{"contracts/GameInstance.sol":{"GameInstance":{"abi":[{"inputs":[],"name":"AccessControlBadConfirmation","type":"error"},{"inputs":[{"internalType":"address","name":"account","type":"address"},{"internalType":"bytes32","name":"neededRole","type":"bytes32"}],"name":"AccessControlUnauthorizedAccount","type":"error"},{"anonymous":false,"inputs":[{"indexed":false,"internalType":"address","name":"player","type":"address"},{"indexed":false,"internalType":"uint256","name":"amount","type":"uint256"}],"name":"FeeRefund","type":"event"},{"anonymous":false,"inputs":[{"indexed":true,"internalType":"address","name":"creator","type":"address"},{"indexed":false,"internalType":"uint256","name":"refundAmount","type":"uint256"}],"name":"GameCanceled","type":"event"},{"anonymous":false,"inputs":[],"name":"GameStarted","type":"event"},{"anonymous":false,"inputs":[{"indexed":false,"internalType":"address","name":"creator","type":"address"},{"indexed":false,"internalType":"string","name":"title","type":"string"}],"name":"Initialized","type":"event"},{"anonymous":false,"inputs":[{"indexed":false,"internalType":"address","name":"player","type":"address"}],"name":"PlayerJoined","type":"event"},{"anonymous":false,"inputs":[{"indexed":true,"internalType":"address","name":"player","type":"address"},{"indexed":false,"internalType":"uint256","name":"feeRefunded","type":"uint256"}],"name":"PlayerUnregistered","type":"event"},{"anonymous":false,"inputs":[{"indexed":false,"internalType":"address","name":"winner","type":"address"},{"indexed":false,"internalType":"uint256","name":"amount","type":"uint256"}],"name":"PrizeDistributed","type":"event"},{"anonymous":false,"inputs":[{"indexed":true,"internalType":"bytes32","name":"role","type":"bytes32"},{"indexed":true,"internalType":"bytes32","name":"previousAdminRole","type":"bytes32"},{"indexed":true,"internalType":"bytes32","name":"newAdminRole","type":"bytes32"}],"name":"RoleAdminChanged","type":"event"},{"anonymous":false,"inputs":[{"indexed":true,"internalType":"bytes32","name":"role","type":"bytes32"},{"indexed":true,"internalType":"address","name":"account","type":"address"},{"indexed":true,"internalType":"address","name":"sender","type":"address"}],"name":"RoleGranted","type":"event"},{"anonymous":false,"inputs":[{"indexed":true,"internalType":"bytes32","name":"role","type":"bytes32"},{"indexed":true,"internalType":"address","name":"account","type":"address"},{"indexed":true,"internalType":"address","name":"sender","type":"address"}],"name":"RoleRevoked","type":"event"},{"anonymous":false,"inputs":[{"indexed":false,"internalType":"address","name":"player","type":"address"},{"indexed":false,"internalType":"uint256","name":"score","type":"uint256"}],"name":"ScoreSubmitted","type":"event"},{"anonymous":false,"inputs":[{"indexed":false,"internalType":"address[]","name":"winner","type":"address[]"}],"name":"WinnersSet","type":"event"},{"inputs":[],"name":"CREATOR_ROLE","outputs":[{"internalType":"bytes32","name":"","type":"bytes32"}],"stateMutability":"view","type":"function"},{"inputs":[],"name":"DEFAULT_ADMIN_ROLE","outputs":[{"internalType":"bytes32","name":"","type":"bytes32"}],"stateMutability":"view","type":"function"},{"inputs":[],"name":"cancelGame","outputs":[],"stateMutability":"nonpayable","type":"function"},{"inputs":[],"name":"cancelRegistration","outputs":[],"stateMutability":"nonpayable","type":"function"},{"inputs":[],"name":"claimPrize","outputs":[],"stateMutability":"nonpayable","type":"function"},{"inputs":[],"name":"claimRefund","outputs":[],"stateMutability":"nonpayable","type":"function"},{"inputs":[],"name":"creator","outputs":[{"internalType":"address","name":"","type":"address"}],"stateMutability":"view","type":"function"},{"inputs":[],"name":"description","outputs":[{"internalType":"string","name":"","type":"string"}],"stateMutability":"view","type":"function"},{"inputs":[],"name":"distributePrize","outputs":[],"stateMutability":"nonpayable","type":"function"},{"inputs":[],"name":"distributionType","outputs":[{"internalType":"enum Types.PrizeDistributionType","name":"","type":"uint8"}],"stateMutability":"view","type":"function"},{"inputs":[],"name":"entryFee","outputs":[{"internalType":"uint256","name":"","type":"uint256"}],"stateMutability":"view","type":"function"},{"inputs":[],"name":"feeToken","outputs":[{"internalType":"address","name":"","type":"address"}],"stateMutability":"view","type":"function"},{"inputs":[],"name":"gameRegistry","outputs":[{"internalType":"address","name":"","type":"address"}],"stateMutability":"view","type":"function"},{"inputs":[{"internalType":"address","name":"","type":"address"}],"name":"gameResults","outputs":[{"internalType":"enum Types.GameType","name":"gameType","type":"uint8"},{"internalType":"address","name":"player","type":"address"},{"internalType":"uint256","name":"score","type":"uint256"},{"internalType":"uint256","name":"timestamp","type":"uint256"},{"internalType":"bytes32","name":"gameHash","type":"bytes32"}],"stateMutability":"view","type":"function"},{"inputs":[],"name":"gameStartTime","outputs":[{"internalType":"uint256","name":"","type":"uint256"}],"stateMutability":"view","type":"function"},{"inputs":[],"name":"gameType","outputs":[{"internalType":"enum Types.GameType","name":"","type":"uint8"}],"stateMutability":"view","type":"function"},{"inputs":[],"name":"getGameData","outputs":[{"components":[{"internalType":"address","name":"creator","type":"address"},{"internalType":"string","name":"title","type":"string"},{"internalType":"string","name":"description","type":"string"},{"internalType":"enum Types.GameStatus","name":"status","type":"uint8"},{"internalType":"enum Types.GameType","name":"gameType","type":"uint8"},{"internalType":"uint256","name":"maxPlayers","type":"uint256"},{"internalType":"uint256","name":"playerCount","type":"uint256"},{"internalType":"uint256","name":"registrationEndTime","type":"uint256"},{"internalType":"uint256","name":"gameStartTime","type":"uint256"},{"internalType":"address","name":"feeToken","type":"address"},{"internalType":"uint256","name":"entryFee","type":"uint256"},{"internalType":"address","name":"prizeToken","type":"address"},{"internalType":"uint256","name":"prizePool","type":"uint256"}],"internalType":"struct Types.GameData","name":"","type":"tuple"}],"stateMutability":"view","type":"function"},{"inputs":[{"internalType":"address","name":"player","type":"address"}],"name":"getPlayerGameResult","outputs":[{"components":[{"internalType":"enum Types.GameType","name":"gameType","type":"uint8"},{"internalType":"address","name":"player","type":"address"},{"internalType":"uint256","name":"score","type":"uint256"},{"internalType":"uint256","name":"timestamp","type":"uint256"},{"internalType":"bytes32","name":"gameHash","type":"bytes32"},{"internalType":"uint256[]","name":"metadata","type":"uint256[]"}],"internalType":"struct Types.GameResult","name":"","type":"tuple"}],"stateMutability":"view","type":"function"},{"inputs":[{"internalType":"address","name":"player","type":"address"}],"name":"getPlayerScore","outputs":[{"internalType":"uint256","name":"","type":"uint256"}],"stateMutability":"view","type":"function"},{"inputs":[{"internalType":"bytes32","name":"role","type":"bytes32"}],"name":"getRoleAdmin","outputs":[{"internalType":"bytes32","name":"","type":"bytes32"}],"stateMutability":"view","type":"function"},{"inputs":[{"internalType":"bytes32","name":"role","type":"bytes32"},{"internalType":"address","name":"account","type":"address"}],"name":"grantRole","outputs":[],"stateMutability":"nonpayable","type":"function"},{"inputs":[{"internalType":"bytes32","name":"role","type":"bytes32"},{"internalType":"address","name":"account","type":"address"}],"name":"hasRole","outputs":[{"internalType":"bool","name":"","type":"bool"}],"stateMutability":"view","type":"function"},{"inputs":[{"components":[{"internalType":"string","name":"title","type":"string"},{"internalType":"string","name":"description","type":"string"},{"internalType":"enum Types.GameType","name":"gameType","type":"uint8"},{"internalType":"address","name":"feeTokenAddress","type":"address"},{"internalType":"uint256","name":"entryFee","type":"uint256"},{"internalType":"uint256","name":"minPlayers","type":"uint256"},{"internalType":"uint256","name":"maxPlayers","type":"uint256"},{"internalType":"uint256","name":"registrationEndTime","type":"uint256"},{"internalType":"uint256","name":"gameStartTime","type":"uint256"},{"internalType":"address","name":"prizeTokenAddress","type":"address"},{"internalType":"uint256","name":"prizePool","type":"uint256"},{"internalType":"enum Types.PrizeDistributionType","name":"distributionType","type":"uint8"},{"internalType":"uint256[]","name":"rankPrizes","type":"uint256[]"}],"internalType":"struct Types.GameConfig","name":"config","type":"tuple"},{"internalType":"address","name":"_creator","type":"address"},{"internalType":"address","name":"_levelManager","type":"address"}],"name":"initialize","outputs":[],"stateMutability":"nonpayable","type":"function"},{"inputs":[{"internalType":"address","name":"","type":"address"}],"name":"isJoined","outputs":[{"internalType":"bool","name":"","type":"bool"}],"stateMutability":"view","type":"function"},{"inputs":[],"name":"joinGame","outputs":[],"stateMutability":"nonpayable","type":"function"},{"inputs":[],"name":"levelManager","outputs":[{"internalType":"address","name":"","type":"address"}],"stateMutability":"view","type":"function"},{"inputs":[],"name":"maxPlayers","outputs":[{"internalType":"uint256","name":"","type":"uint256"}],"stateMutability":"view","type":"function"},{"inputs":[],"name":"minPlayers","outputs":[{"internalType":"uint256","name":"","type":"uint256"}],"stateMutability":"view","type":"function"},{"inputs":[{"internalType":"uint256","name":"","type":"uint256"}],"name":"players","outputs":[{"internalType":"address","name":"player","type":"address"},{"internalType":"uint256","name":"score","type":"uint256"}],"stateMutability":"view","type":"function"},{"inputs":[],"name":"prizePool","outputs":[{"internalType":"uint256","name":"","type":"uint256"}],"stateMutability":"view","type":"function"},{"inputs":[{"internalType":"address","name":"","type":"address"}],"name":"prizeToClaimsAmount","outputs":[{"internalType":"uint256","name":"","type":"uint256"}],"stateMutability":"view","type":"function"},{"inputs":[],"name":"prizeToken","outputs":[{"internalType":"address","name":"","type":"address"}],"stateMutability":"view","type":"function"},{"inputs":[{"internalType":"uint256","name":"","type":"uint256"}],"name":"rankPrizes","outputs":[{"internalType":"uint256","name":"","type":"uint256"}],"stateMutability":"view","type":"function"},{"inputs":[],"name":"registrationEndTime","outputs":[{"internalType":"uint256","name":"","type":"uint256"}],"stateMutability":"view","type":"function"},{"inputs":[{"internalType":"bytes32","name":"role","type":"bytes32"},{"internalType":"address","name":"callerConfirmation","type":"address"}],"name":"renounceRole","outputs":[],"stateMutability":"nonpayable","type":"function"},{"inputs":[{"internalType":"bytes32","name":"role","type":"bytes32"},{"internalType":"address","name":"account","type":"address"}],"name":"revokeRole","outputs":[],"stateMutability":"nonpayable","type":"function"},{"inputs":[{"internalType":"address","name":"_gameRegistry","type":"address"}],"name":"setGameRegistry","outputs":[],"stateMutability":"nonpayable","type":"function"},{"inputs":[{"internalType":"address[]","name":"_winners","type":"address[]"}],"name":"setWinners","outputs":[],"stateMutability":"nonpayable","type":"function"},{"inputs":[],"name":"startGame","outputs":[],"stateMutability":"nonpayable","type":"function"},{"inputs":[],"name":"status","outputs":[{"internalType":"enum Types.GameStatus","name":"","type":"uint8"}],"stateMutability":"view","type":"function"},{"inputs":[{"components":[{"internalType":"enum Types.GameType","name":"gameType","type":"uint8"},{"internalType":"address","name":"player","type":"address"},{"internalType":"uint256","name":"score","type":"uint256"},{"internalType":"uint256","name":"timestamp","type":"uint256"},{"internalType":"bytes32","name":"gameHash","type":"bytes32"},{"internalType":"uint256[]","name":"metadata","type":"uint256[]"}],"internalType":"struct Types.GameResult","name":"result","type":"tuple"}],"name":"submitGameResult","outputs":[],"stateMutability":"nonpayable","type":"function"},{"inputs":[{"internalType":"uint256","name":"score","type":"uint256"}],"name":"submitScore","outputs":[],"stateMutability":"nonpayable","type":"function"},{"inputs":[{"internalType":"bytes4","name":"interfaceId","type":"bytes4"}],"name":"supportsInterface","outputs":[{"internalType":"bool","name":"","type":"bool"}],"stateMutability":"view","type":"function"},{"inputs":[],"name":"title","outputs":[{"internalType":"string","name":"","type":"string"}],"stateMutability":"view","type":"function"},{"inputs":[{"internalType":"uint256","name":"","type":"uint256"}],"name":"winners","outputs":[{"internalType":"address","name":"","type":"address"}],"stateMutability":"view","type":"function"}],"evm":{"bytecode":{"linkReferences":{},"object":"608060405234801561001057600080fd5b50613a47806100206000396000f3fe608060405234801561001057600080fd5b506004361061027f5760003560e01c806377b6e5041161015c578063bbdc02db116100ce578063da09075511610087578063da090755146105a9578063dd898b2f146105c1578063dff7d2c7146105d4578063e085c539146105dd578063e5a078a714610606578063f71d96cb1461060e57600080fd5b8063bbdc02db1461055e578063d0ef024a1461056b578063d4f77b1c1461057e578063d547741f14610586578063d65ab5f214610599578063d84c1ac9146105a157600080fd5b8063a217fddf11610120578063a217fddf146104f3578063a2fb1175146104fb578063af4e99de1461050e578063aff0b29714610523578063b062e95014610536578063b5545a3c1461055657600080fd5b806377b6e504146104965780638233e4331461049e57806384da242d146104b15780638aeda25a146104cb57806391d14854146104e057600080fd5b806336568abe116101f55780635e6a43f5116101b95780635e6a43f514610434578063647846a5146104575780636aba6c191461046a57806370740ac91461047d578063719ce73e146104855780637284e4161461048e57600080fd5b806336568abe146103dd578063445e6b39146103f05780634a79d50c146104035780634c2412a214610418578063554c925c1461042157600080fd5b80631d75d7c2116102475780631d75d7c214610317578063200d2ed21461036f578063248a9ca3146103895780632770c895146103ac5780632a8d950c146103b55780632f2ff15d146103c857600080fd5b806301ffc9a7146102845780630252b995146102ac57806302d05d3f146102c3578063072ea61c146102ee578063140d6b94146102f7575b600080fd5b610297610292366004612d1d565b61062f565b60405190151581526020015b60405180910390f35b6102b5600a5481565b6040519081526020016102a3565b6003546102d6906001600160a01b031681565b6040516001600160a01b0390911681526020016102a3565b6102b5600c5481565b61030a610305366004612d73565b610666565b6040516102a39190612dc3565b61035e610325366004612d73565b601760205260009081526040902080546001820154600283015460039093015460ff8316936101009093046001600160a01b0316929085565b6040516102a3959493929190612e5b565b60135461037c9060ff1681565b6040516102a39190612e92565b6102b5610397366004612ea5565b60009081526020819052604090206001015490565b6102b560075481565b6002546102d6906001600160a01b031681565b6103db6103d6366004612ebe565b6107a8565b005b6103db6103eb366004612ebe565b6107d3565b6103db6103fe366004612eee565b61080b565b61040b610963565b6040516102a39190612fa9565b6102b560085481565b6103db61042f366004612fbc565b6109f1565b610297610442366004612d73565b60156020526000908152604090205460ff1681565b600b546102d6906001600160a01b031681565b6103db61047836600461317f565b610d27565b6103db611129565b6102b5600f5481565b61040b611259565b6103db611266565b6102b56104ac366004612ea5565b6119d8565b6010546104be9060ff1681565b6040516102a391906132df565b6102b56000805160206139f283398151915281565b6102976104ee366004612ebe565b6119f9565b6102b5600081565b6102d6610509366004612ea5565b611a22565b610516611a4c565b6040516102a391906132f3565b6103db610531366004612ea5565b611c47565b6102b5610544366004612d73565b60126020526000908152604090205481565b6103db611d5f565b60065461037c9060ff1681565b600e546102d6906001600160a01b031681565b6103db611ede565b6103db610594366004612ebe565b612233565b6103db612258565b6103db6123b5565b6001546102d69061010090046001600160a01b031681565b6103db6105cf366004612d73565b61257e565b6102b560095481565b6102b56105eb366004612d73565b6001600160a01b031660009081526016602052604090205490565b6103db612608565b61062161061c366004612ea5565b612a1a565b6040516102a39291906133f9565b60006001600160e01b03198216637965db0b60e01b148061066057506301ffc9a760e01b6001600160e01b03198316145b92915050565b6106ac6040805160c08101909152806000815260200160006001600160a01b03168152602001600081526020016000815260200160008019168152602001606081525090565b6001600160a01b03821660009081526017602052604090819020815160c081019092528054829060ff1660048111156106e7576106e7612d90565b60048111156106f8576106f8612d90565b81526020016000820160019054906101000a90046001600160a01b03166001600160a01b03166001600160a01b031681526020016001820154815260200160028201548152602001600382015481526020016004820180548060200260200160405190810160405280929190818152602001828054801561079857602002820191906000526020600020905b815481526020019060010190808311610784575b5050505050815250509050919050565b6000828152602081905260409020600101546107c381612a52565b6107cd8383612a5f565b50505050565b6001600160a01b03811633146107fc5760405163334bd91960e11b815260040160405180910390fd5b6108068282612af1565b505050565b6000805160206139f283398151915261082381612a52565b600160135460ff16600481111561083c5761083c612d90565b146108625760405162461bcd60e51b815260040161085990613412565b60405180910390fd5b60005b8281101561090957601560008585848181106108835761088361343c565b90506020020160208101906108989190612d73565b6001600160a01b0316815260208101919091526040016000205460ff166109015760405162461bcd60e51b815260206004820152601860248201527f54686572652069732077696e6e6572206e6f74206a6f696e00000000000000006044820152606401610859565b600101610865565b5061091660188484612bd6565b506013805460ff191660021790556040517f8451dabc49a0b82cffb0a79a6771fe2718264aae54a4eff4d4463748813ec56f906109569085908590613452565b60405180910390a1505050565b6004805461097090613495565b80601f016020809104026020016040519081016040528092919081815260200182805461099c90613495565b80156109e95780601f106109be576101008083540402835291602001916109e9565b820191906000526020600020905b8154815290600101906020018083116109cc57829003601f168201915b505050505081565b600160135460ff166004811115610a0a57610a0a612d90565b14610a275760405162461bcd60e51b815260040161085990613412565b600a54421015610a745760405162461bcd60e51b815260206004820152601860248201527711d85b59481a185cc81b9bdd081cdd185c9d1959081e595d60421b6044820152606401610859565b3360009081526015602052604090205460ff16610ac75760405162461bcd60e51b8152602060048201526011602482015270141b185e595c881b9bdd081a9bda5b9959607a1b6044820152606401610859565b60065460ff166004811115610ade57610ade612d90565b610aeb60208301836134cf565b6004811115610afc57610afc612d90565b14610b3e5760405162461bcd60e51b815260206004820152601260248201527108ec2daca40e8f2e0ca40dad2e6dac2e8c6d60731b6044820152606401610859565b33610b4f6040830160208401612d73565b6001600160a01b031614610ba55760405162461bcd60e51b815260206004820152601760248201527f506c617965722061646472657373206d69736d617463680000000000000000006044820152606401610859565b60015461010090046001600160a01b0316610bf95760405162461bcd60e51b815260206004820152601460248201527311d85b59549959da5cdd1c9e481b9bdd081cd95d60621b6044820152606401610859565b6001546040516335c34ae960e01b81526101009091046001600160a01b03169060009082906335c34ae990610c3290869060040161351e565b6020604051808303816000875af1158015610c51573d6000803e3d6000fd5b505050506040513d601f19601f82011682018060405250810190610c7591906135dd565b905080610cc45760405162461bcd60e51b815260206004820152601f60248201527f47616d6520726573756c7420766572696669636174696f6e206661696c6564006044820152606401610859565b336000908152601660209081526040808320818701359055601790915290208390610cef828261371b565b9050507fa578df9b0453d14d7ed8615ee0e9d58f70e041e91fc5865e3b71f81ea05296c03384604001356040516109569291906133f9565b60015460ff1615610d705760405162461bcd60e51b8152602060048201526013602482015272105b1c9958591e481a5b9a5d1a585b1a5e9959606a1b6044820152606401610859565b6001805460ff191681179055600280546001600160a01b0319166001600160a01b03831617905560e08301514210610dea5760405162461bcd60e51b815260206004820152601960248201527f52656720656e64206d75737420626520696e20667574757265000000000000006044820152606401610859565b8260e001518361010001511015610e435760405162461bcd60e51b815260206004820152601e60248201527f47616d65206d7573742073746172742061667465722072656720656e647300006044820152606401610859565b8260a001518360c001511015610e905760405162461bcd60e51b815260206004820152601260248201527126b0bc1036bab9ba103132901f1e9026b4b760711b6044820152606401610859565b600380546001600160a01b0319166001600160a01b0384161790558251600490610eba90826137ea565b506020830151600590610ecd90826137ea565b506013805460ff1990811690915560408401516006805491929091166001836004811115610efd57610efd612d90565b02179055506060830151600b80546001600160a01b039283166001600160a01b0319918216179091556080850151600c5560a085015160075560c085015160085560e0850151600955610100850151600a55610120850151600e8054919093169116179055610140830151600f556101608301516010805460ff19166001836002811115610f8d57610f8d612d90565b02179055506101808301518051610fac91601191602090910190612c39565b5060028361016001516002811115610fc657610fc6612d90565b036110b957610180830151516011546110215760405162461bcd60e51b815260206004820152601f60248201527f437573746f6d2072616e6b20636f6e66696720666f726d6174206572726f72006044820152606401610859565b6000805b8281101561106a57601181815481106110405761104061343c565b90600052602060002001548261105691906138ae565b91506110636001826138ae565b9050611025565b506127108111156110b65760405162461bcd60e51b81526020600482015260166024820152755072697a65204250532065786365656473203130302560501b6044820152606401610859565b50505b6110c4600083612a5f565b506110dd6000805160206139f283398151915283612a5f565b506110f76000805160206139f28339815191526000612b5c565b7fc66e6cd41f805f65978f5241034e8d106c42cf3c7a4d62ccd857646b401cbe4a8260046040516109569291906138c1565b336000908152601260205260409020548061117a5760405162461bcd60e51b81526020600482015260116024820152704e6f207072697a6520746f20636c61696d60781b6044820152606401610859565b3360008181526012602052604080822091909155600e54905163a9059cbb60e01b81526001600160a01b039091169163a9059cbb916111be919085906004016133f9565b6020604051808303816000875af11580156111dd573d6000803e3d6000fd5b505050506040513d601f19601f8201168201806040525081019061120191906135dd565b61121d5760405162461bcd60e51b815260040161085990613961565b7fb8e091d87f82e56d22276c9a0088ea5d6068e355383dc08b2721b7b6cb10e845338260405161124e9291906133f9565b60405180910390a150565b6005805461097090613495565b6000805160206139f283398151915261127e81612a52565b600260135460ff16600481111561129757611297612d90565b146112d55760405162461bcd60e51b815260206004820152600e60248201526d11d85b59481b9bdd08195b99195960921b6044820152606401610859565b6018546113155760405162461bcd60e51b815260206004820152600e60248201526d139bc81dda5b9b995c9cc81cd95d60921b6044820152606401610859565b6000600f541161135d5760405162461bcd60e51b81526020600482015260136024820152725072697a6520706f6f6c20697320656d70747960681b6044820152606401610859565b600f805460009182905560025490916001600160a01b039091169060105460ff16600281111561138f5761138f612d90565b0361149357816012600060186000815481106113ad576113ad61343c565b60009182526020808320909101546001600160a01b03168352820192909252604001812080549091906113e19084906138ae565b90915550506002546001600160a01b03161561148e57806001600160a01b0316635fe352ce601860008154811061141a5761141a61343c565b6000918252602090912001546040516001600160e01b031960e084901b16815261145b916001600160a01b0316906801158e460913d00000906004016133f9565b600060405180830381600087803b15801561147557600080fd5b505af1158015611489573d6000803e3d6000fd5b505050505b6119c6565b600160105460ff1660028111156114ac576114ac612d90565b036115fd5760145460006114c082856139a0565b905060006114ce83866139b4565b905060005b8381101561153f5760008390508060126000601485815481106114f8576114f861343c565b600091825260208083206002909202909101546001600160a01b03168352820192909252604001812080549091906115319084906138ae565b9091555050506001016114d3565b50600e5460035460405163a9059cbb60e01b81526001600160a01b039283169263a9059cbb926115769291169085906004016133f9565b6020604051808303816000875af1158015611595573d6000803e3d6000fd5b505050506040513d601f19601f820116820180604052508101906115b991906135dd565b6115f55760405162461bcd60e51b815260206004820152600d60248201526c1499599d5b990819985a5b1959609a1b6044820152606401610859565b5050506119c6565b600260105460ff16600281111561161657611616612d90565b036119c65760115460185411156116855760405162461bcd60e51b815260206004820152602d60248201527f57696e6e657273206c69737420657863656564732072616e6b207072697a652060448201526c31b7b73334b3bab930ba34b7b760991b6064820152608401610859565b6000805b60185481101561171a576000601182815481106116a8576116a861343c565b90600052602060002001549050600081116117055760405162461bcd60e51b815260206004820152601d60248201527f4d697373696e67207072697a6520636f6e66696720666f722072616e6b0000006044820152606401610859565b61170f81846138ae565b925050600101611689565b506127108111156117665760405162461bcd60e51b81526020600482015260166024820152755072697a65204250532065786365656473203130302560501b6044820152606401610859565b60005b6018548110156119c3576000601182815481106117885761178861343c565b600091825260208220015491506127106117a28388613666565b6117ac91906139a0565b90508060126000601886815481106117c6576117c661343c565b60009182526020808320909101546001600160a01b03168352820192909252604001812080549091906117fa9084906138ae565b90915550506002546001600160a01b0316156119b957826000036118b257846001600160a01b0316635fe352ce6018858154811061183a5761183a61343c565b6000918252602090912001546040516001600160e01b031960e084901b16815261187b916001600160a01b0316906801158e460913d00000906004016133f9565b600060405180830381600087803b15801561189557600080fd5b505af11580156118a9573d6000803e3d6000fd5b505050506119b9565b8260010361191c57846001600160a01b0316635fe352ce601885815481106118dc576118dc61343c565b6000918252602090912001546040516001600160e01b031960e084901b16815261187b916001600160a01b031690678ac7230489e80000906004016133f9565b826002036119b957846001600160a01b0316635fe352ce601885815481106119465761194661343c565b6000918252602090912001546040516001600160e01b031960e084901b168152611986916001600160a01b031690674563918244f40000906004016133f9565b600060405180830381600087803b1580156119a057600080fd5b505af11580156119b4573d6000803e3d6000fd5b505050505b5050600101611769565b50505b50506013805460ff1916600317905550565b601181815481106119e857600080fd5b600091825260209091200154905081565b6000918252602082815260408084206001600160a01b0393909316845291905290205460ff1690565b60188181548110611a3257600080fd5b6000918252602090912001546001600160a01b0316905081565b611a54612c74565b611a5c612c74565b6003546001600160a01b0316815260048054611a7790613495565b80601f0160208091040260200160405190810160405280929190818152602001828054611aa390613495565b8015611af05780601f10611ac557610100808354040283529160200191611af0565b820191906000526020600020905b815481529060010190602001808311611ad357829003601f168201915b5050505050816020018190525060058054611b0a90613495565b80601f0160208091040260200160405190810160405280929190818152602001828054611b3690613495565b8015611b835780601f10611b5857610100808354040283529160200191611b83565b820191906000526020600020905b815481529060010190602001808311611b6657829003601f168201915b50505050506040820152601354606082019060ff166004811115611ba957611ba9612d90565b90816004811115611bbc57611bbc612d90565b905250600654608082019060ff166004811115611bdb57611bdb612d90565b90816004811115611bee57611bee612d90565b90525060085460a082015260145460c082015260095460e0820152600a54610100820152600c54610140820152600b546001600160a01b03908116610120830152600f54610180830152600e5416610160820152919050565b600160135460ff166004811115611c6057611c60612d90565b14611c7d5760405162461bcd60e51b815260040161085990613412565b600a54421015611cca5760405162461bcd60e51b815260206004820152601860248201527711d85b59481a185cc81b9bdd081cdd185c9d1959081e595d60421b6044820152606401610859565b3360009081526015602052604090205460ff16611d1d5760405162461bcd60e51b8152602060048201526011602482015270141b185e595c881b9bdd081a9bda5b9959607a1b6044820152606401610859565b3360008181526016602052604090819020839055517fa578df9b0453d14d7ed8615ee0e9d58f70e041e91fc5865e3b71f81ea05296c09161124e9184906133f9565b600460135460ff166004811115611d7857611d78612d90565b14611db95760405162461bcd60e51b815260206004820152601160248201527011d85b59481b9bdd0818d85b98d95b1959607a1b6044820152606401610859565b336000908152600d602052604090205480611e0a5760405162461bcd60e51b81526020600482015260116024820152704e6f207072697a6520746f20636c61696d60781b6044820152606401610859565b336000818152600d602052604080822091909155600b54905163a9059cbb60e01b81526001600160a01b039091169163a9059cbb91611e4e919085906004016133f9565b6020604051808303816000875af1158015611e6d573d6000803e3d6000fd5b505050506040513d601f19601f82011682018060405250810190611e9191906135dd565b611ead5760405162461bcd60e51b815260040161085990613961565b7feb4706597fb7a2e8806c0e31ad4c334330a97bc3cae6b9c360e152c922bb40c8338260405161124e9291906133f9565b600060135460ff166004811115611ef757611ef7612d90565b14611f445760405162461bcd60e51b815260206004820152601a60248201527f47616d65206e6f7420616363657074696e6720706c61796572730000000000006044820152606401610859565b6009544210611f955760405162461bcd60e51b815260206004820152601860248201527f526567697374726174696f6e2074696d652070617373656400000000000000006044820152606401610859565b60085460145410611fde5760405162461bcd60e51b815260206004820152601360248201527213585e081c1b185e595c9cc81c995858da1959606a1b6044820152606401610859565b3360009081526015602052604090205460ff161561202f5760405162461bcd60e51b815260206004820152600e60248201526d105b1c9958591e481a9bda5b995960921b6044820152606401610859565b600c54156120d257600b54600c546040516323b872dd60e01b815233600482015230602482015260448101919091526001600160a01b03909116906323b872dd906064016020604051808303816000875af1158015612092573d6000803e3d6000fd5b505050506040513d601f19601f820116820180604052508101906120b691906135dd565b6120d25760405162461bcd60e51b815260040161085990613961565b6040805180820182523380825260006020808401828152601480546001808201835591855295517fce6d7b5282bd9a3661ae061feed1dbda4e52ab073b1f9285be6e155d9c38d4ec600297880290810180546001600160a01b0319166001600160a01b0393841617905592517fce6d7b5282bd9a3661ae061feed1dbda4e52ab073b1f9285be6e155d9c38d4ed90930192909255600c54948452600d8352868420949094556015909152939020805460ff191690911790555416156121fe57600254604051632ff1a96760e11b81526001600160a01b0390911690635fe352ce906121cb9033906729a2241af62c0000906004016133f9565b600060405180830381600087803b1580156121e557600080fd5b505af11580156121f9573d6000803e3d6000fd5b505050505b6040513381527f31e760aa525306aba638a784082a013b6a1cc0a9a1789f3f22281c0453b10b1f9060200160405180910390a1565b60008281526020819052604090206001015461224e81612a52565b6107cd8383612af1565b6000805160206139f283398151915261227081612a52565b600060135460ff16600481111561228957612289612d90565b146122d65760405162461bcd60e51b815260206004820152601a60248201527f47616d65206e6f7420696e2043726561746564207374617475730000000000006044820152606401610859565b6009544210156123285760405162461bcd60e51b815260206004820152601c60248201527f526567697374726174696f6e206973206e6f74206f76657220796574000000006044820152606401610859565b600754601454101561237c5760405162461bcd60e51b815260206004820152601b60248201527f4e6f7420656e6f75676820706c617965727320746f20737461727400000000006044820152606401610859565b6013805460ff191660011790556040517f762f260439bb4be3ef6e4dc2786e2e7bd187d3d80b79057d7a424fe98563e33590600090a150565b6000805160206139f28339815191526123cd81612a52565b600060135460ff1660048111156123e6576123e6612d90565b14806124085750600160135460ff16600481111561240657612406612d90565b145b6124675760405162461bcd60e51b815260206004820152602a60248201527f43616e6e6f742063616e63656c20616e20656e646564206f722064697374726960448201526962757465642067616d6560b01b6064820152608401610859565b600f805460009091556013805460ff19166004179055801561253857600e5460035460405163a9059cbb60e01b81526001600160a01b039283169263a9059cbb926124b99291169085906004016133f9565b6020604051808303816000875af11580156124d8573d6000803e3d6000fd5b505050506040513d601f19601f820116820180604052508101906124fc91906135dd565b6125385760405162461bcd60e51b815260206004820152600d60248201526c1499599d5b990819985a5b1959609a1b6044820152606401610859565b6003546040518281526001600160a01b03909116907fcabd9ffa4ff52290e56c52a9ed671760a0e5951eaa234fd9e0ccccf507bf98ca9060200160405180910390a25050565b600061258981612a52565b6001600160a01b0382166125df5760405162461bcd60e51b815260206004820152601d60248201527f496e76616c69642067616d6520726567697374727920616464726573730000006044820152606401610859565b50600180546001600160a01b0390921661010002610100600160a81b0319909216919091179055565b6009543390421061265b5760405162461bcd60e51b815260206004820152601960248201527f526567697374726174696f6e2074696d65206973206f766572000000000000006044820152606401610859565b600060135460ff16600481111561267457612674612d90565b146126c15760405162461bcd60e51b815260206004820181905260248201527f47616d6520697320616c7265616479206f6e676f696e67206f7220656e6465646044820152606401610859565b6001600160a01b0381166000908152600d60205260409020548061273d5760405162461bcd60e51b815260206004820152602d60248201527f506c6179657220686173206e6f74206a6f696e6564206f722066656520616c7260448201526c1958591e481c99599d5b991959609a1b6064820152608401610859565b600080805b60145481101561279c57846001600160a01b0316601482815481106127695761276961343c565b60009182526020909120600290910201546001600160a01b031603612794578092506001915061279c565b600101612742565b50806127fb5760405162461bcd60e51b815260206004820152602860248201527f496e7465726e616c206572726f723a20506c61796572206e6f7420666f756e64604482015267081a5b881b1a5cdd60c21b6064820152608401610859565b60145460009061280d906001906139c8565b905080831461288357601481815481106128295761282961343c565b90600052602060002090600202016014848154811061284a5761284a61343c565b60009182526020909120825460029092020180546001600160a01b0319166001600160a01b039092169190911781556001918201549101555b6014805480612894576128946139db565b6000828152602080822060026000199094019384020180546001600160a01b0319168155600101829055919092556001600160a01b0387168252600d905260408120819055600f80548692906128eb9084906139c8565b90915550506001600160a01b038086166000908152601560209081526040808320805460ff19169055601690915280822091909155600b54905163a9059cbb60e01b815291169063a9059cbb9061294890889088906004016133f9565b6020604051808303816000875af1158015612967573d6000803e3d6000fd5b505050506040513d601f19601f8201168201806040525081019061298b91906135dd565b6129d05760405162461bcd60e51b81526020600482015260166024820152751499599d5b99081d1c985b9cd9995c8819985a5b195960521b6044820152606401610859565b846001600160a01b03167fbddaec5e3db6d33ac9b0043f3c92cf3d081b19f8646f372eb3a68a51e273a10485604051612a0b91815260200190565b60405180910390a25050505050565b60148181548110612a2a57600080fd5b6000918252602090912060029091020180546001909101546001600160a01b03909116915082565b612a5c8133612ba7565b50565b6000612a6b83836119f9565b612ae9576000838152602081815260408083206001600160a01b03861684529091529020805460ff19166001179055612aa13390565b6001600160a01b0316826001600160a01b0316847f2f8788117e7eff1d82e926ec794901d17c78024a50270940304540a733656f0d60405160405180910390a4506001610660565b506000610660565b6000612afd83836119f9565b15612ae9576000838152602081815260408083206001600160a01b0386168085529252808320805460ff1916905551339286917ff6391f5c32d9c69d2a47ea670b442974b53935d1edc7fd64eb21e047a839171b9190a4506001610660565b600082815260208190526040808220600101805490849055905190918391839186917fbd79b86ffe0ab8e8776151514217cd7cacd52c909f66475c3af44e129f0b00ff9190a4505050565b612bb182826119f9565b612bd257808260405163e2517d3f60e01b81526004016108599291906133f9565b5050565b828054828255906000526020600020908101928215612c29579160200282015b82811115612c295781546001600160a01b0319166001600160a01b03843516178255602090920191600190910190612bf6565b50612c35929150612d08565b5090565b828054828255906000526020600020908101928215612c29579160200282015b82811115612c29578251825591602001919060010190612c59565b604051806101a0016040528060006001600160a01b03168152602001606081526020016060815260200160006004811115612cb157612cb1612d90565b8152602001600081526020016000815260200160008152602001600081526020016000815260200160006001600160a01b031681526020016000815260200160006001600160a01b03168152602001600081525090565b5b80821115612c355760008155600101612d09565b600060208284031215612d2f57600080fd5b81356001600160e01b031981168114612d4757600080fd5b9392505050565b6001600160a01b0381168114612a5c57600080fd5b8035612d6e81612d4e565b919050565b600060208284031215612d8557600080fd5b8135612d4781612d4e565b634e487b7160e01b600052602160045260246000fd5b60058110612a5c57612a5c612d90565b612dbf81612da6565b9052565b6000602080835260e083018451612dd981612da6565b80838601525060018060a01b03828601511660408501526040850151606085015260608501516080850152608085015160a085015260a085015160c080860152818151808452610100870191508483019350600092505b80831015612e505783518252928401926001929092019190840190612e30565b509695505050505050565b60a08101612e6887612da6565b9581526001600160a01b039490941660208501526040840192909252606083015260809091015290565b60208101612e9f83612da6565b91905290565b600060208284031215612eb757600080fd5b5035919050565b60008060408385031215612ed157600080fd5b823591506020830135612ee381612d4e565b809150509250929050565b60008060208385031215612f0157600080fd5b823567ffffffffffffffff80821115612f1957600080fd5b818501915085601f830112612f2d57600080fd5b813581811115612f3c57600080fd5b8660208260051b8501011115612f5157600080fd5b60209290920196919550909350505050565b6000815180845260005b81811015612f8957602081850181015186830182015201612f6d565b506000602082860101526020601f19601f83011685010191505092915050565b602081526000612d476020830184612f63565b600060208284031215612fce57600080fd5b813567ffffffffffffffff811115612fe557600080fd5b820160c08185031215612d4757600080fd5b634e487b7160e01b600052604160045260246000fd5b6040516101a0810167ffffffffffffffff8111828210171561303157613031612ff7565b60405290565b604051601f8201601f1916810167ffffffffffffffff8111828210171561306057613060612ff7565b604052919050565b600082601f83011261307957600080fd5b813567ffffffffffffffff81111561309357613093612ff7565b6130a6601f8201601f1916602001613037565b8181528460208386010111156130bb57600080fd5b816020850160208301376000918101602001919091529392505050565b60058110612a5c57600080fd5b8035612d6e816130d8565b803560038110612d6e57600080fd5b600082601f83011261311057600080fd5b8135602067ffffffffffffffff82111561312c5761312c612ff7565b8160051b61313b828201613037565b928352848101820192828101908785111561315557600080fd5b83870192505b848310156131745782358252918301919083019061315b565b979650505050505050565b60008060006060848603121561319457600080fd5b833567ffffffffffffffff808211156131ac57600080fd5b908501906101a082880312156131c157600080fd5b6131c961300d565b8235828111156131d857600080fd5b6131e489828601613068565b8252506020830135828111156131f957600080fd5b61320589828601613068565b602083015250613217604084016130e5565b604082015261322860608401612d63565b60608201526080830135608082015260a083013560a082015260c083013560c082015260e083013560e082015261010080840135818301525061012061326f818501612d63565b90820152610140838101359082015261016061328c8185016130f0565b9082015261018083810135838111156132a457600080fd5b6132b08a8287016130ff565b8284015250508095505050506132c860208501612d63565b91506132d660408501612d63565b90509250925092565b6020810160038310612e9f57612e9f612d90565b6020815261330d6020820183516001600160a01b03169052565b600060208301516101a080604085015261332b6101c0850183612f63565b91506040850151601f198584030160608601526133488382612f63565b925050606085015161335d6080860182612db6565b50608085015161337060a0860182612db6565b5060a085015160c085015260c085015160e085015260e08501516101008181870152808701519150506101208181870152808701519150506101406133bf818701836001600160a01b03169052565b8601516101608681019190915286015190506101806133e8818701836001600160a01b03169052565b959095015193019290925250919050565b6001600160a01b03929092168252602082015260400190565b60208082526010908201526f47616d65206e6f74206f6e676f696e6760801b604082015260600190565b634e487b7160e01b600052603260045260246000fd5b60208082528181018390526000908460408401835b86811015612e5057823561347a81612d4e565b6001600160a01b031682529183019190830190600101613467565b600181811c908216806134a957607f821691505b6020821081036134c957634e487b7160e01b600052602260045260246000fd5b50919050565b6000602082840312156134e157600080fd5b8135612d47816130d8565b81835260006001600160fb1b0383111561350557600080fd5b8260051b80836020870137939093016020019392505050565b602081526000823561352f816130d8565b61353881612da6565b80602084015250602083013561354d81612d4e565b60018060a01b0381166040840152506040830135606083015260608301356080830152608083013560a083015260a0830135601e1984360301811261359157600080fd5b830160208101903567ffffffffffffffff8111156135ae57600080fd5b8060051b36038213156135c057600080fd5b60c0808501526135d460e0850182846134ec565b95945050505050565b6000602082840312156135ef57600080fd5b81518015158114612d4757600080fd5b6000808335601e1984360301811261361657600080fd5b83018035915067ffffffffffffffff82111561363157600080fd5b6020019150600581901b360382131561364957600080fd5b9250929050565b634e487b7160e01b600052601160045260246000fd5b808202811582820484141761066057610660613650565b5b81811015612bd2576000815560010161367e565b67ffffffffffffffff8311156136aa576136aa612ff7565b680100000000000000008311156136c3576136c3612ff7565b8054838255808410156136e9578160005260206000206136e782820186830161367d565b505b50818160005260208060002060005b8681101561371257833582820155928201926001016136f8565b50505050505050565b8135613726816130d8565b61372f81612da6565b815460ff821691508160ff198216178355602084013561374e81612d4e565b6001600160a81b03199190911690911760089190911b610100600160a81b031617815560408201356001820155606082013560028201556080820135600382015561379c60a08301836135ff565b6107cd818360048601613692565b601f82111561080657806000526020600020601f840160051c810160208510156137d15750805b6137e3601f850160051c83018261367d565b5050505050565b815167ffffffffffffffff81111561380457613804612ff7565b613818816138128454613495565b846137aa565b602080601f83116001811461384d57600084156138355750858301515b600019600386901b1c1916600185901b1785556138a6565b600085815260208120601f198616915b8281101561387c5788860151825594840194600190910190840161385d565b508582101561389a5787850151600019600388901b60f8161c191681555b505060018460011b0185555b505050505050565b8082018082111561066057610660613650565b60018060a01b03831681526000602060406020840152600084546138e481613495565b8060408701526060600180841660008114613906576001811461392257613952565b60ff19851660608a0152606084151560051b8a01019550613952565b89600052602060002060005b858110156139495781548b820186015290830190880161392e565b8a016060019650505b50939998505050505050505050565b6020808252600f908201526e151c985b9cd9995c8819985a5b1959608a1b604082015260600190565b634e487b7160e01b600052601260045260246000fd5b6000826139af576139af61398a565b500490565b6000826139c3576139c361398a565b500690565b8181038181111561066057610660613650565b634e487b7160e01b600052603160045260246000fdfe828634d95e775031b9ff576b159a8509d3053581a8c9c4d7d86899e0afcd882fa2646970667358221220d2381a04a9bfa4e19d64360edc592d9b35a6d3902ee241bf34780b9bfa083e6764736f6c63430008180033","opcodes":"PUSH1 0x80 PUSH1 0x40 MSTORE CALLVALUE DUP1 ISZERO PUSH2 0x10 JUMPI PUSH1 0x0 DUP1 REVERT JUMPDEST POP PUSH2 0x3A47 DUP1 PUSH2 0x20 PUSH1 0x0 CODECOPY PUSH1 0x0 RETURN INVALID PUSH1 0x80 PUSH1 0x40 MSTORE CALLVALUE DUP1 ISZERO PUSH2 0x10 JUMPI PUSH1 0x0 DUP1 REVERT JUMPDEST POP PUSH1 0x4 CALLDATASIZE LT PUSH2 0x27F JUMPI PUSH1 0x0 CALLDATALOAD PUSH1 0xE0 SHR DUP1 PUSH4 0x77B6E504 GT PUSH2 0x15C JUMPI DUP1 PUSH4 0xBBDC02DB GT PUSH2 0xCE JUMPI DUP1 PUSH4 0xDA090755 GT PUSH2 0x87 JUMPI DUP1 PUSH4 0xDA090755 EQ PUSH2 0x5A9 JUMPI DUP1 PUSH4 0xDD898B2F EQ PUSH2 0x5C1 JUMPI DUP1 PUSH4 0xDFF7D2C7 EQ PUSH2 0x5D4 JUMPI DUP1 PUSH4 0xE085C539 EQ PUSH2 0x5DD JUMPI DUP1 PUSH4 0xE5A078A7 EQ PUSH2 0x606 JUMPI DUP1 PUSH4 0xF71D96CB EQ PUSH2 0x60E JUMPI PUSH1 0x0 DUP1 REVERT JUMPDEST DUP1 PUSH4 0xBBDC02DB EQ PUSH2 0x55E JUMPI DUP1 PUSH4 0xD0EF024A EQ PUSH2 0x56B JUMPI DUP1 PUSH4 0xD4F77B1C EQ PUSH2 0x57E JUMPI DUP1 PUSH4 0xD547741F EQ PUSH2 0x586 JUMPI DUP1 PUSH4 0xD65AB5F2 EQ PUSH2 0x599 JUMPI DUP1 PUSH4 0xD84C1AC9 EQ PUSH2 0x5A1 JUMPI PUSH1 0x0 DUP1 REVERT JUMPDEST DUP1 PUSH4 0xA217FDDF GT PUSH2 0x120 JUMPI DUP1 PUSH4 0xA217FDDF EQ PUSH2 0x4F3 JUMPI DUP1 PUSH4 0xA2FB1175 EQ PUSH2 0x4FB JUMPI DUP1 PUSH4 0xAF4E99DE EQ PUSH2 0x50E JUMPI DUP1 PUSH4 0xAFF0B297 EQ PUSH2 0x523 JUMPI DUP1 PUSH4 0xB062E950 EQ PUSH2 0x536 JUMPI DUP1 PUSH4 0xB5545A3C EQ PUSH2 0x556 JUMPI PUSH1 0x0 DUP1 REVERT JUMPDEST DUP1 PUSH4 0x77B6E504 EQ PUSH2 0x496 JUMPI DUP1 PUSH4 0x8233E433 EQ PUSH2 0x49E JUMPI DUP1 PUSH4 0x84DA242D EQ PUSH2 0x4B1 JUMPI DUP1 PUSH4 0x8AEDA25A EQ PUSH2 0x4CB JUMPI DUP1 PUSH4 0x91D14854 EQ PUSH2 0x4E0 JUMPI PUSH1 0x0 DUP1 REVERT JUMPDEST DUP1 PUSH4 0x36568ABE GT PUSH2 0x1F5 JUMPI DUP1 PUSH4 0x5E6A43F5 GT PUSH2 0x1B9 JUMPI DUP1 PUSH4 0x5E6A43F5 EQ PUSH2 0x434 JUMPI DUP1 PUSH4 0x647846A5 EQ PUSH2 0x457 JUMPI DUP1 PUSH4 0x6ABA6C19 EQ PUSH2 0x46A JUMPI DUP1 PUSH4 0x70740AC9 EQ PUSH2 0x47D JUMPI DUP1 PUSH4 0x719CE73E EQ PUSH2 0x485 JUMPI DUP1 PUSH4 0x7284E416 EQ PUSH2 0x48E JUMPI PUSH1 0x0 DUP1 REVERT JUMPDEST DUP1 PUSH4 0x36568ABE EQ PUSH2 0x3DD JUMPI DUP1 PUSH4 0x445E6B39 EQ PUSH2 0x3F0 JUMPI DUP1 PUSH4 0x4A79D50C EQ PUSH2 0x403 JUMPI DUP1 PUSH4 0x4C2412A2 EQ PUSH2 0x418 JUMPI DUP1 PUSH4 0x554C925C EQ PUSH2 0x421 JUMPI PUSH1 0x0 DUP1 REVERT JUMPDEST DUP1 PUSH4 0x1D75D7C2 GT PUSH2 0x247 JUMPI DUP1 PUSH4 0x1D75D7C2 EQ PUSH2 0x317 JUMPI DUP1 PUSH4 0x200D2ED2 EQ PUSH2 0x36F JUMPI DUP1 PUSH4 0x248A9CA3 EQ PUSH2 0x389 JUMPI DUP1 PUSH4 0x2770C895 EQ PUSH2 0x3AC JUMPI DUP1 PUSH4 0x2A8D950C EQ PUSH2 0x3B5 JUMPI DUP1 PUSH4 0x2F2FF15D EQ PUSH2 0x3C8 JUMPI PUSH1 0x0 DUP1 REVERT JUMPDEST DUP1 PUSH4 0x1FFC9A7 EQ PUSH2 0x284 JUMPI DUP1 PUSH4 0x252B995 EQ PUSH2 0x2AC JUMPI DUP1 PUSH4 0x2D05D3F EQ PUSH2 0x2C3 JUMPI DUP1 PUSH4 0x72EA61C EQ PUSH2 0x2EE JUMPI DUP1 PUSH4 0x140D6B94 EQ PUSH2 0x2F7 JUMPI JUMPDEST PUSH1 0x0 DUP1 REVERT JUMPDEST PUSH2 0x297 PUSH2 0x292 CALLDATASIZE PUSH1 0x4 PUSH2 0x2D1D JUMP JUMPDEST PUSH2 0x62F JUMP JUMPDEST PUSH1 0x40 MLOAD SWAP1 ISZERO ISZERO DUP2 MSTORE PUSH1 0x20 ADD JUMPDEST PUSH1 0x40 MLOAD DUP1 SWAP2 SUB SWAP1 RETURN JUMPDEST PUSH2 0x2B5 PUSH1 0xA SLOAD DUP2 JUMP JUMPDEST PUSH1 0x40 MLOAD SWAP1 DUP2 MSTORE PUSH1 0x20 ADD PUSH2 0x2A3 JUMP JUMPDEST PUSH1 0x3 SLOAD PUSH2 0x2D6 SWAP1 PUSH1 0x1 PUSH1 0x1 PUSH1 0xA0 SHL SUB AND DUP2 JUMP JUMPDEST PUSH1 0x40 MLOAD PUSH1 0x1 PUSH1 0x1 PUSH1 0xA0 SHL SUB SWAP1 SWAP2 AND DUP2 MSTORE PUSH1 0x20 ADD PUSH2 0x2A3 JUMP JUMPDEST PUSH2 0x2B5 PUSH1 0xC SLOAD DUP2 JUMP JUMPDEST PUSH2 0x30A PUSH2 0x305 CALLDATASIZE PUSH1 0x4 PUSH2 0x2D73 JUMP JUMPDEST PUSH2 0x666 JUMP JUMPDEST PUSH1 0x40 MLOAD PUSH2 0x2A3 SWAP2 SWAP1 PUSH2 0x2DC3 JUMP JUMPDEST PUSH2 0x35E PUSH2 0x325 CALLDATASIZE PUSH1 0x4 PUSH2 0x2D73 JUMP JUMPDEST PUSH1 0x17 PUSH1 0x20 MSTORE PUSH1 0x0 SWAP1 DUP2 MSTORE PUSH1 0x40 SWAP1 KECCAK256 DUP1 SLOAD PUSH1 0x1 DUP3 ADD SLOAD PUSH1 0x2 DUP4 ADD SLOAD PUSH1 0x3 SWAP1 SWAP4 ADD SLOAD PUSH1 0xFF DUP4 AND SWAP4 PUSH2 0x100 SWAP1 SWAP4 DIV PUSH1 0x1 PUSH1 0x1 PUSH1 0xA0 SHL SUB AND SWAP3 SWAP1 DUP6 JUMP JUMPDEST PUSH1 0x40 MLOAD PUSH2 0x2A3 SWAP6 SWAP5 SWAP4 SWAP3 SWAP2 SWAP1 PUSH2 0x2E5B JUMP JUMPDEST PUSH1 0x13 SLOAD PUSH2 0x37C SWAP1 PUSH1 0xFF AND DUP2 JUMP JUMPDEST PUSH1 0x40 MLOAD PUSH2 0x2A3 SWAP2 SWAP1 PUSH2 0x2E92 JUMP JUMPDEST PUSH2 0x2B5 PUSH2 0x397 CALLDATASIZE PUSH1 0x4 PUSH2 0x2EA5 JUMP JUMPDEST PUSH1 0x0 SWAP1 DUP2 MSTORE PUSH1 0x20 DUP2 SWAP1 MSTORE PUSH1 0x40 SWAP1 KECCAK256 PUSH1 0x1 ADD SLOAD SWAP1 JUMP JUMPDEST PUSH2 0x2B5 PUSH1 0x7 SLOAD DUP2 JUMP JUMPDEST PUSH1 0x2 SLOAD PUSH2 0x2D6 SWAP1 PUSH1 0x1 PUSH1 0x1 PUSH1 0xA0 SHL SUB AND DUP2 JUMP JUMPDEST PUSH2 0x3DB PUSH2 0x3D6 CALLDATASIZE PUSH1 0x4 PUSH2 0x2EBE JUMP JUMPDEST PUSH2 0x7A8 JUMP JUMPDEST STOP JUMPDEST PUSH2 0x3DB PUSH2 0x3EB CALLDATASIZE PUSH1 0x4 PUSH2 0x2EBE JUMP JUMPDEST PUSH2 0x7D3 JUMP JUMPDEST PUSH2 0x3DB PUSH2 0x3FE CALLDATASIZE PUSH1 0x4 PUSH2 0x2EEE JUMP JUMPDEST PUSH2 0x80B JUMP JUMPDEST PUSH2 0x40B PUSH2 0x963 JUMP JUMPDEST PUSH1 0x40 MLOAD PUSH2 0x2A3 SWAP2 SWAP1 PUSH2 0x2FA9 JUMP JUMPDEST PUSH2 0x2B5 PUSH1 0x8 SLOAD DUP2 JUMP JUMPDEST PUSH2 0x3DB PUSH2 0x42F CALLDATASIZE PUSH1 0x4 PUSH2 0x2FBC JUMP JUMPDEST PUSH2 0x9F1 JUMP JUMPDEST PUSH2 0x297 PUSH2 0x442 CALLDATASIZE PUSH1 0x4 PUSH2 0x2D73 JUMP JUMPDEST PUSH1 0x15 PUSH1 0x20 MSTORE PUSH1 0x0 SWAP1 DUP2 MSTORE PUSH1 0x40 SWAP1 KECCAK256 SLOAD PUSH1 0xFF AND DUP2 JUMP JUMPDEST PUSH1 0xB SLOAD PUSH2 0x2D6 SWAP1 PUSH1 0x1 PUSH1 0x1 PUSH1 0xA0 SHL SUB AND DUP2 JUMP JUMPDEST PUSH2 0x3DB PUSH2 0x478 CALLDATASIZE PUSH1 0x4 PUSH2 0x317F JUMP JUMPDEST PUSH2 0xD27 JUMP JUMPDEST PUSH2 0x3DB PUSH2 0x1129 JUMP JUMPDEST PUSH2 0x2B5 PUSH1 0xF SLOAD DUP2 JUMP JUMPDEST PUSH2 0x40B PUSH2 0x1259 JUMP JUMPDEST PUSH2 0x3DB PUSH2 0x1266 JUMP JUMPDEST PUSH2 0x2B5 PUSH2 0x4AC CALLDATASIZE PUSH1 0x4 PUSH2 0x2EA5 JUMP JUMPDEST PUSH2 0x19D8 JUMP JUMPDEST PUSH1 0x10 SLOAD PUSH2 0x4BE SWAP1 PUSH1 0xFF AND DUP2 JUMP JUMPDEST PUSH1 0x40 MLOAD PUSH2 0x2A3 SWAP2 SWAP1 PUSH2 0x32DF JUMP JUMPDEST PUSH2 0x2B5 PUSH1 0x0 DUP1 MLOAD PUSH1 0x20 PUSH2 0x39F2 DUP4 CODECOPY DUP2 MLOAD SWAP2 MSTORE DUP2 JUMP JUMPDEST PUSH2 0x297 PUSH2 0x4EE CALLDATASIZE PUSH1 0x4 PUSH2 0x2EBE JUMP JUMPDEST PUSH2 0x19F9 JUMP JUMPDEST PUSH2 0x2B5 PUSH1 0x0 DUP2 JUMP JUMPDEST PUSH2 0x2D6 PUSH2 0x509 CALLDATASIZE PUSH1 0x4 PUSH2 0x2EA5 JUMP JUMPDEST PUSH2 0x1A22 JUMP JUMPDEST PUSH2 0x516 PUSH2 0x1A4C JUMP JUMPDEST PUSH1 0x40 MLOAD PUSH2 0x2A3 SWAP2 SWAP1 PUSH2 0x32F3 JUMP JUMPDEST PUSH2 0x3DB PUSH2 0x531 CALLDATASIZE PUSH1 0x4 PUSH2 0x2EA5 JUMP JUMPDEST PUSH2 0x1C47 JUMP JUMPDEST PUSH2 0x2B5 PUSH2 0x544 CALLDATASIZE PUSH1 0x4 PUSH2 0x2D73 JUMP JUMPDEST PUSH1 0x12 PUSH1 0x20 MSTORE PUSH1 0x0 SWAP1 DUP2 MSTORE PUSH1 0x40 SWAP1 KECCAK256 SLOAD DUP2 JUMP JUMPDEST PUSH2 0x3DB PUSH2 0x1D5F JUMP JUMPDEST PUSH1 0x6 SLOAD PUSH2 0x37C SWAP1 PUSH1 0xFF AND DUP2 JUMP JUMPDEST PUSH1 0xE SLOAD PUSH2 0x2D6 SWAP1 PUSH1 0x1 PUSH1 0x1 PUSH1 0xA0 SHL SUB AND DUP2 JUMP JUMPDEST PUSH2 0x3DB PUSH2 0x1EDE JUMP JUMPDEST PUSH2 0x3DB PUSH2 0x594 CALLDATASIZE PUSH1 0x4 PUSH2 0x2EBE JUMP JUMPDEST PUSH2 0x2233 JUMP JUMPDEST PUSH2 0x3DB PUSH2 0x2258 JUMP JUMPDEST PUSH2 0x3DB PUSH2 0x23B5 JUMP JUMPDEST PUSH1 0x1 SLOAD PUSH2 0x2D6 SWAP1 PUSH2 0x100 SWAP1 DIV PUSH1 0x1 PUSH1 0x1 PUSH1 0xA0 SHL SUB AND DUP2 JUMP JUMPDEST PUSH2 0x3DB PUSH2 0x5CF CALLDATASIZE PUSH1 0x4 PUSH2 0x2D73 JUMP JUMPDEST PUSH2 0x257E JUMP JUMPDEST PUSH2 0x2B5 PUSH1 0x9 SLOAD DUP2 JUMP JUMPDEST PUSH2 0x2B5 PUSH2 0x5EB CALLDATASIZE PUSH1 0x4 PUSH2 0x2D73 JUMP JUMPDEST PUSH1 0x1 PUSH1 0x1 PUSH1 0xA0 SHL SUB AND PUSH1 0x0 SWAP1 DUP2 MSTORE PUSH1 0x16 PUSH1 0x20 MSTORE PUSH1 0x40 SWAP1 KECCAK256 SLOAD SWAP1 JUMP JUMPDEST PUSH2 0x3DB PUSH2 0x2608 JUMP JUMPDEST PUSH2 0x621 PUSH2 0x61C CALLDATASIZE PUSH1 0x4 PUSH2 0x2EA5 JUMP JUMPDEST PUSH2 0x2A1A JUMP JUMPDEST PUSH1 0x40 MLOAD PUSH2 0x2A3 SWAP3 SWAP2 SWAP1 PUSH2 0x33F9 JUMP JUMPDEST PUSH1 0x0 PUSH1 0x1 PUSH1 0x1 PUSH1 0xE0 SHL SUB NOT DUP3 AND PUSH4 0x7965DB0B PUSH1 0xE0 SHL EQ DUP1 PUSH2 0x660 JUMPI POP PUSH4 0x1FFC9A7 PUSH1 0xE0 SHL PUSH1 0x1 PUSH1 0x1 PUSH1 0xE0 SHL SUB NOT DUP4 AND EQ JUMPDEST SWAP3 SWAP2 POP POP JUMP JUMPDEST PUSH2 0x6AC PUSH1 0x40 DUP1 MLOAD PUSH1 0xC0 DUP2 ADD SWAP1 SWAP2 MSTORE DUP1 PUSH1 0x0 DUP2 MSTORE PUSH1 0x20 ADD PUSH1 0x0 PUSH1 0x1 PUSH1 0x1 PUSH1 0xA0 SHL SUB AND DUP2 MSTORE PUSH1 0x20 ADD PUSH1 0x0 DUP2 MSTORE PUSH1 0x20 ADD PUSH1 0x0 DUP2 MSTORE PUSH1 0x20 ADD PUSH1 0x0 DUP1 NOT AND DUP2 MSTORE PUSH1 0x20 ADD PUSH1 0x60 DUP2 MSTORE POP SWAP1 JUMP JUMPDEST PUSH1 0x1 PUSH1 0x1 PUSH1 0xA0 SHL SUB DUP3 AND PUSH1 0x0 SWAP1 DUP2 MSTORE PUSH1 0x17 PUSH1 0x20 MSTORE PUSH1 0x40 SWAP1 DUP2 SWAP1 KECCAK256 DUP2 MLOAD PUSH1 0xC0 DUP2 ADD SWAP1 SWAP3 MSTORE DUP1 SLOAD DUP3 SWAP1 PUSH1 0xFF AND PUSH1 0x4 DUP2 GT ISZERO PUSH2 0x6E7 JUMPI PUSH2 0x6E7 PUSH2 0x2D90 JUMP JUMPDEST PUSH1 0x4 DUP2 GT ISZERO PUSH2 0x6F8 JUMPI PUSH2 0x6F8 PUSH2 0x2D90 JUMP JUMPDEST DUP2 MSTORE PUSH1 0x20 ADD PUSH1 0x0 DUP3 ADD PUSH1 0x1 SWAP1 SLOAD SWAP1 PUSH2 0x100 EXP SWAP1 DIV PUSH1 0x1 PUSH1 0x1 PUSH1 0xA0 SHL SUB AND PUSH1 0x1 PUSH1 0x1 PUSH1 0xA0 SHL SUB AND PUSH1 0x1 PUSH1 0x1 PUSH1 0xA0 SHL SUB AND DUP2 MSTORE PUSH1 0x20 ADD PUSH1 0x1 DUP3 ADD SLOAD DUP2 MSTORE PUSH1 0x20 ADD PUSH1 0x2 DUP3 ADD SLOAD DUP2 MSTORE PUSH1 0x20 ADD PUSH1 0x3 DUP3 ADD SLOAD DUP2 MSTORE PUSH1 0x20 ADD PUSH1 0x4 DUP3 ADD DUP1 SLOAD DUP1 PUSH1 0x20 MUL PUSH1 0x20 ADD PUSH1 0x40 MLOAD SWAP1 DUP2 ADD PUSH1 0x40 MSTORE DUP1 SWAP3 SWAP2 SWAP1 DUP2 DUP2 MSTORE PUSH1 0x20 ADD DUP3 DUP1 SLOAD DUP1 ISZERO PUSH2 0x798 JUMPI PUSH1 0x20 MUL DUP3 ADD SWAP2 SWAP1 PUSH1 0x0 MSTORE PUSH1 0x20 PUSH1 0x0 KECCAK256 SWAP1 JUMPDEST DUP2 SLOAD DUP2 MSTORE PUSH1 0x20 ADD SWAP1 PUSH1 0x1 ADD SWAP1 DUP1 DUP4 GT PUSH2 0x784 JUMPI JUMPDEST POP POP POP POP POP DUP2 MSTORE POP POP SWAP1 POP SWAP2 SWAP1 POP JUMP JUMPDEST PUSH1 0x0 DUP3 DUP2 MSTORE PUSH1 0x20 DUP2 SWAP1 MSTORE PUSH1 0x40 SWAP1 KECCAK256 PUSH1 0x1 ADD SLOAD PUSH2 0x7C3 DUP2 PUSH2 0x2A52 JUMP JUMPDEST PUSH2 0x7CD DUP4 DUP4 PUSH2 0x2A5F JUMP JUMPDEST POP POP POP POP JUMP JUMPDEST PUSH1 0x1 PUSH1 0x1 PUSH1 0xA0 SHL SUB DUP2 AND CALLER EQ PUSH2 0x7FC JUMPI PUSH1 0x40 MLOAD PUSH4 0x334BD919 PUSH1 0xE1 SHL DUP2 MSTORE PUSH1 0x4 ADD PUSH1 0x40 MLOAD DUP1 SWAP2 SUB SWAP1 REVERT JUMPDEST PUSH2 0x806 DUP3 DUP3 PUSH2 0x2AF1 JUMP JUMPDEST POP POP POP JUMP JUMPDEST PUSH1 0x0 DUP1 MLOAD PUSH1 0x20 PUSH2 0x39F2 DUP4 CODECOPY DUP2 MLOAD SWAP2 MSTORE PUSH2 0x823 DUP2 PUSH2 0x2A52 JUMP JUMPDEST PUSH1 0x1 PUSH1 0x13 SLOAD PUSH1 0xFF AND PUSH1 0x4 DUP2 GT ISZERO PUSH2 0x83C JUMPI PUSH2 0x83C PUSH2 0x2D90 JUMP JUMPDEST EQ PUSH2 0x862 JUMPI PUSH1 0x40 MLOAD PUSH3 0x461BCD PUSH1 0xE5 SHL DUP2 MSTORE PUSH1 0x4 ADD PUSH2 0x859 SWAP1 PUSH2 0x3412 JUMP JUMPDEST PUSH1 0x40 MLOAD DUP1 SWAP2 SUB SWAP1 REVERT JUMPDEST PUSH1 0x0 JUMPDEST DUP3 DUP2 LT ISZERO PUSH2 0x909 JUMPI PUSH1 0x15 PUSH1 0x0 DUP6 DUP6 DUP5 DUP2 DUP2 LT PUSH2 0x883 JUMPI PUSH2 0x883 PUSH2 0x343C JUMP JUMPDEST SWAP1 POP PUSH1 0x20 MUL ADD PUSH1 0x20 DUP2 ADD SWAP1 PUSH2 0x898 SWAP2 SWAP1 PUSH2 0x2D73 JUMP JUMPDEST PUSH1 0x1 PUSH1 0x1 PUSH1 0xA0 SHL SUB AND DUP2 MSTORE PUSH1 0x20 DUP2 ADD SWAP2 SWAP1 SWAP2 MSTORE PUSH1 0x40 ADD PUSH1 0x0 KECCAK256 SLOAD PUSH1 0xFF AND PUSH2 0x901 JUMPI PUSH1 0x40 MLOAD PUSH3 0x461BCD PUSH1 0xE5 SHL DUP2 MSTORE PUSH1 0x20 PUSH1 0x4 DUP3 ADD MSTORE PUSH1 0x18 PUSH1 0x24 DUP3 ADD MSTORE PUSH32 0x54686572652069732077696E6E6572206E6F74206A6F696E0000000000000000 PUSH1 0x44 DUP3 ADD MSTORE PUSH1 0x64 ADD PUSH2 0x859 JUMP JUMPDEST PUSH1 0x1 ADD PUSH2 0x865 JUMP JUMPDEST POP PUSH2 0x916 PUSH1 0x18 DUP5 DUP5 PUSH2 0x2BD6 JUMP JUMPDEST POP PUSH1 0x13 DUP1 SLOAD PUSH1 0xFF NOT AND PUSH1 0x2 OR SWAP1 SSTORE PUSH1 0x40 MLOAD PUSH32 0x8451DABC49A0B82CFFB0A79A6771FE2718264AAE54A4EFF4D4463748813EC56F SWAP1 PUSH2 0x956 SWAP1 DUP6 SWAP1 DUP6 SWAP1 PUSH2 0x3452 JUMP JUMPDEST PUSH1 0x40 MLOAD DUP1 SWAP2 SUB SWAP1 LOG1 POP POP POP JUMP JUMPDEST PUSH1 0x4 DUP1 SLOAD PUSH2 0x970 SWAP1 PUSH2 0x3495 JUMP JUMPDEST DUP1 PUSH1 0x1F ADD PUSH1 0x20 DUP1 SWAP2 DIV MUL PUSH1 0x20 ADD PUSH1 0x40 MLOAD SWAP1 DUP2 ADD PUSH1 0x40 MSTORE DUP1 SWAP3 SWAP2 SWAP1 DUP2 DUP2 MSTORE PUSH1 0x20 ADD DUP3 DUP1 SLOAD PUSH2 0x99C SWAP1 PUSH2 0x3495 JUMP JUMPDEST DUP1 ISZERO PUSH2 0x9E9 JUMPI DUP1 PUSH1 0x1F LT PUSH2 0x9BE JUMPI PUSH2 0x100 DUP1 DUP4 SLOAD DIV MUL DUP4 MSTORE SWAP2 PUSH1 0x20 ADD SWAP2 PUSH2 0x9E9 JUMP JUMPDEST DUP3 ADD SWAP2 SWAP1 PUSH1 0x0 MSTORE PUSH1 0x20 PUSH1 0x0 KECCAK256 SWAP1 JUMPDEST DUP2 SLOAD DUP2 MSTORE SWAP1 PUSH1 0x1 ADD SWAP1 PUSH1 0x20 ADD DUP1 DUP4 GT PUSH2 0x9CC JUMPI DUP3 SWAP1 SUB PUSH1 0x1F AND DUP3 ADD SWAP2 JUMPDEST POP POP POP POP POP DUP2 JUMP JUMPDEST PUSH1 0x1 PUSH1 0x13 SLOAD PUSH1 0xFF AND PUSH1 0x4 DUP2 GT ISZERO PUSH2 0xA0A JUMPI PUSH2 0xA0A PUSH2 0x2D90 JUMP JUMPDEST EQ PUSH2 0xA27 JUMPI PUSH1 0x40 MLOAD PUSH3 0x461BCD PUSH1 0xE5 SHL DUP2 MSTORE PUSH1 0x4 ADD PUSH2 0x859 SWAP1 PUSH2 0x3412 JUMP JUMPDEST PUSH1 0xA SLOAD TIMESTAMP LT ISZERO PUSH2 0xA74 JUMPI PUSH1 0x40 MLOAD PUSH3 0x461BCD PUSH1 0xE5 SHL DUP2 MSTORE PUSH1 0x20 PUSH1 0x4 DUP3 ADD MSTORE PUSH1 0x18 PUSH1 0x24 DUP3 ADD MSTORE PUSH24 0x11D85B59481A185CC81B9BDD081CDD185C9D1959081E595D PUSH1 0x42 SHL PUSH1 0x44 DUP3 ADD MSTORE PUSH1 0x64 ADD PUSH2 0x859 JUMP JUMPDEST CALLER PUSH1 0x0 SWAP1 DUP2 MSTORE PUSH1 0x15 PUSH1 0x20 MSTORE PUSH1 0x40 SWAP1 KECCAK256 SLOAD PUSH1 0xFF AND PUSH2 0xAC7 JUMPI PUSH1 0x40 MLOAD PUSH3 0x461BCD PUSH1 0xE5 SHL DUP2 MSTORE PUSH1 0x20 PUSH1 0x4 DUP3 ADD MSTORE PUSH1 0x11 PUSH1 0x24 DUP3 ADD MSTORE PUSH17 0x141B185E595C881B9BDD081A9BDA5B9959 PUSH1 0x7A SHL PUSH1 0x44 DUP3 ADD MSTORE PUSH1 0x64 ADD PUSH2 0x859 JUMP JUMPDEST PUSH1 0x6 SLOAD PUSH1 0xFF AND PUSH1 0x4 DUP2 GT ISZERO PUSH2 0xADE JUMPI PUSH2 0xADE PUSH2 0x2D90 JUMP JUMPDEST PUSH2 0xAEB PUSH1 0x20 DUP4 ADD DUP4 PUSH2 0x34CF JUMP JUMPDEST PUSH1 0x4 DUP2 GT ISZERO PUSH2 0xAFC JUMPI PUSH2 0xAFC PUSH2 0x2D90 JUMP JUMPDEST EQ PUSH2 0xB3E JUMPI PUSH1 0x40 MLOAD PUSH3 0x461BCD PUSH1 0xE5 SHL DUP2 MSTORE PUSH1 0x20 PUSH1 0x4 DUP3 ADD MSTORE PUSH1 0x12 PUSH1 0x24 DUP3 ADD MSTORE PUSH18 0x8EC2DACA40E8F2E0CA40DAD2E6DAC2E8C6D PUSH1 0x73 SHL PUSH1 0x44 DUP3 ADD MSTORE PUSH1 0x64 ADD PUSH2 0x859 JUMP JUMPDEST CALLER PUSH2 0xB4F PUSH1 0x40 DUP4 ADD PUSH1 0x20 DUP5 ADD PUSH2 0x2D73 JUMP JUMPDEST PUSH1 0x1 PUSH1 0x1 PUSH1 0xA0 SHL SUB AND EQ PUSH2 0xBA5 JUMPI PUSH1 0x40 MLOAD PUSH3 0x461BCD PUSH1 0xE5 SHL DUP2 MSTORE PUSH1 0x20 PUSH1 0x4 DUP3 ADD MSTORE PUSH1 0x17 PUSH1 0x24 DUP3 ADD MSTORE PUSH32 0x506C617965722061646472657373206D69736D61746368000000000000000000 PUSH1 0x44 DUP3 ADD MSTORE PUSH1 0x64 ADD PUSH2 0x859 JUMP JUMPDEST PUSH1 0x1 SLOAD PUSH2 0x100 SWAP1 DIV PUSH1 0x1 PUSH1 0x1 PUSH1 0xA0 SHL SUB AND PUSH2 0xBF9 JUMPI PUSH1 0x40 MLOAD PUSH3 0x461BCD PUSH1 0xE5 SHL DUP2 MSTORE PUSH1 0x20 PUSH1 0x4 DUP3 ADD MSTORE PUSH1 0x14 PUSH1 0x24 DUP3 ADD MSTORE PUSH20 0x11D85B59549959DA5CDD1C9E481B9BDD081CD95D PUSH1 0x62 SHL PUSH1 0x44 DUP3 ADD MSTORE PUSH1 0x64 ADD PUSH2 0x859 JUMP JUMPDEST PUSH1 0x1 SLOAD PUSH1 0x40 MLOAD PUSH4 0x35C34AE9 PUSH1 0xE0 SHL DUP2 MSTORE PUSH2 0x100 SWAP1 SWAP2 DIV PUSH1 0x1 PUSH1 0x1 PUSH1 0xA0 SHL SUB AND SWAP1 PUSH1 0x0 SWAP1 DUP3 SWAP1 PUSH4 0x35C34AE9 SWAP1 PUSH2 0xC32 SWAP1 DUP7 SWAP1 PUSH1 0x4 ADD PUSH2 0x351E JUMP JUMPDEST PUSH1 0x20 PUSH1 0x40 MLOAD DUP1 DUP4 SUB DUP2 PUSH1 0x0 DUP8 GAS CALL ISZERO DUP1 ISZERO PUSH2 0xC51 JUMPI RETURNDATASIZE PUSH1 0x0 DUP1 RETURNDATACOPY RETURNDATASIZE PUSH1 0x0 REVERT JUMPDEST POP POP POP POP PUSH1 0x40 MLOAD RETURNDATASIZE PUSH1 0x1F NOT PUSH1 0x1F DUP3 ADD AND DUP3 ADD DUP1 PUSH1 0x40 MSTORE POP DUP2 ADD SWAP1 PUSH2 0xC75 SWAP2 SWAP1 PUSH2 0x35DD JUMP JUMPDEST SWAP1 POP DUP1 PUSH2 0xCC4 JUMPI PUSH1 0x40 MLOAD PUSH3 0x461BCD PUSH1 0xE5 SHL DUP2 MSTORE PUSH1 0x20 PUSH1 0x4 DUP3 ADD MSTORE PUSH1 0x1F PUSH1 0x24 DUP3 ADD MSTORE PUSH32 0x47616D6520726573756C7420766572696669636174696F6E206661696C656400 PUSH1 0x44 DUP3 ADD MSTORE PUSH1 0x64 ADD PUSH2 0x859 JUMP JUMPDEST CALLER PUSH1 0x0 SWAP1 DUP2 MSTORE PUSH1 0x16 PUSH1 0x20 SWAP1 DUP2 MSTORE PUSH1 0x40 DUP1 DUP4 KECCAK256 DUP2 DUP8 ADD CALLDATALOAD SWAP1 SSTORE PUSH1 0x17 SWAP1 SWAP2 MSTORE SWAP1 KECCAK256 DUP4 SWAP1 PUSH2 0xCEF DUP3 DUP3 PUSH2 0x371B JUMP JUMPDEST SWAP1 POP POP PUSH32 0xA578DF9B0453D14D7ED8615EE0E9D58F70E041E91FC5865E3B71F81EA05296C0 CALLER DUP5 PUSH1 0x40 ADD CALLDATALOAD PUSH1 0x40 MLOAD PUSH2 0x956 SWAP3 SWAP2 SWAP1 PUSH2 0x33F9 JUMP JUMPDEST PUSH1 0x1 SLOAD PUSH1 0xFF AND ISZERO PUSH2 0xD70 JUMPI PUSH1 0x40 MLOAD PUSH3 0x461BCD PUSH1 0xE5 SHL DUP2 MSTORE PUSH1 0x20 PUSH1 0x4 DUP3 ADD MSTORE PUSH1 0x13 PUSH1 0x24 DUP3 ADD MSTORE PUSH19 0x105B1C9958591E481A5B9A5D1A585B1A5E9959 PUSH1 0x6A SHL PUSH1 0x44 DUP3 ADD MSTORE PUSH1 0x64 ADD PUSH2 0x859 JUMP JUMPDEST PUSH1 0x1 DUP1 SLOAD PUSH1 0xFF NOT AND DUP2 OR SWAP1 SSTORE PUSH1 0x2 DUP1 SLOAD PUSH1 0x1 PUSH1 0x1 PUSH1 0xA0 SHL SUB NOT AND PUSH1 0x1 PUSH1 0x1 PUSH1 0xA0 SHL SUB DUP4 AND OR SWAP1 SSTORE PUSH1 0xE0 DUP4 ADD MLOAD TIMESTAMP LT PUSH2 0xDEA JUMPI PUSH1 0x40 MLOAD PUSH3 0x461BCD PUSH1 0xE5 SHL DUP2 MSTORE PUSH1 0x20 PUSH1 0x4 DUP3 ADD MSTORE PUSH1 0x19 PUSH1 0x24 DUP3 ADD MSTORE PUSH32 0x52656720656E64206D75737420626520696E2066757475726500000000000000 PUSH1 0x44 DUP3 ADD MSTORE PUSH1 0x64 ADD PUSH2 0x859 JUMP JUMPDEST DUP3 PUSH1 0xE0 ADD MLOAD DUP4 PUSH2 0x100 ADD MLOAD LT ISZERO PUSH2 0xE43 JUMPI PUSH1 0x40 MLOAD PUSH3 0x461BCD PUSH1 0xE5 SHL DUP2 MSTORE PUSH1 0x20 PUSH1 0x4 DUP3 ADD MSTORE PUSH1 0x1E PUSH1 0x24 DUP3 ADD MSTORE PUSH32 0x47616D65206D7573742073746172742061667465722072656720656E64730000 PUSH1 0x44 DUP3 ADD MSTORE PUSH1 0x64 ADD PUSH2 0x859 JUMP JUMPDEST DUP3 PUSH1 0xA0 ADD MLOAD DUP4 PUSH1 0xC0 ADD MLOAD LT ISZERO PUSH2 0xE90 JUMPI PUSH1 0x40 MLOAD PUSH3 0x461BCD PUSH1 0xE5 SHL DUP2 MSTORE PUSH1 0x20 PUSH1 0x4 DUP3 ADD MSTORE PUSH1 0x12 PUSH1 0x24 DUP3 ADD MSTORE PUSH18 0x26B0BC1036BAB9BA103132901F1E9026B4B7 PUSH1 0x71 SHL PUSH1 0x44 DUP3 ADD MSTORE PUSH1 0x64 ADD PUSH2 0x859 JUMP JUMPDEST PUSH1 0x3 DUP1 SLOAD PUSH1 0x1 PUSH1 0x1 PUSH1 0xA0 SHL SUB NOT AND PUSH1 0x1 PUSH1 0x1 PUSH1 0xA0 SHL SUB DUP5 AND OR SWAP1 SSTORE DUP3 MLOAD PUSH1 0x4 SWAP1 PUSH2 0xEBA SWAP1 DUP3 PUSH2 0x37EA JUMP JUMPDEST POP PUSH1 0x20 DUP4 ADD MLOAD PUSH1 0x5 SWAP1 PUSH2 0xECD SWAP1 DUP3 PUSH2 0x37EA JUMP JUMPDEST POP PUSH1 0x13 DUP1 SLOAD PUSH1 0xFF NOT SWAP1 DUP2 AND SWAP1 SWAP2 SSTORE PUSH1 0x40 DUP5 ADD MLOAD PUSH1 0x6 DUP1 SLOAD SWAP2 SWAP3 SWAP1 SWAP2 AND PUSH1 0x1 DUP4 PUSH1 0x4 DUP2 GT ISZERO PUSH2 0xEFD JUMPI PUSH2 0xEFD PUSH2 0x2D90 JUMP JUMPDEST MUL OR SWAP1 SSTORE POP PUSH1 0x60 DUP4 ADD MLOAD PUSH1 0xB DUP1 SLOAD PUSH1 0x1 PUSH1 0x1 PUSH1 0xA0 SHL SUB SWAP3 DUP4 AND PUSH1 0x1 PUSH1 0x1 PUSH1 0xA0 SHL SUB NOT SWAP2 DUP3 AND OR SWAP1 SWAP2 SSTORE PUSH1 0x80 DUP6 ADD MLOAD PUSH1 0xC SSTORE PUSH1 0xA0 DUP6 ADD MLOAD PUSH1 0x7 SSTORE PUSH1 0xC0 DUP6 ADD MLOAD PUSH1 0x8 SSTORE PUSH1 0xE0 DUP6 ADD MLOAD PUSH1 0x9 SSTORE PUSH2 0x100 DUP6 ADD MLOAD PUSH1 0xA SSTORE PUSH2 0x120 DUP6 ADD MLOAD PUSH1 0xE DUP1 SLOAD SWAP2 SWAP1 SWAP4 AND SWAP2 AND OR SWAP1 SSTORE PUSH2 0x140 DUP4 ADD MLOAD PUSH1 0xF SSTORE PUSH2 0x160 DUP4 ADD MLOAD PUSH1 0x10 DUP1 SLOAD PUSH1 0xFF NOT AND PUSH1 0x1 DUP4 PUSH1 0x2 DUP2 GT ISZERO PUSH2 0xF8D JUMPI PUSH2 0xF8D PUSH2 0x2D90 JUMP JUMPDEST MUL OR SWAP1 SSTORE POP PUSH2 0x180 DUP4 ADD MLOAD DUP1 MLOAD PUSH2 0xFAC SWAP2 PUSH1 0x11 SWAP2 PUSH1 0x20 SWAP1 SWAP2 ADD SWAP1 PUSH2 0x2C39 JUMP JUMPDEST POP PUSH1 0x2 DUP4 PUSH2 0x160 ADD MLOAD PUSH1 0x2 DUP2 GT ISZERO PUSH2 0xFC6 JUMPI PUSH2 0xFC6 PUSH2 0x2D90 JUMP JUMPDEST SUB PUSH2 0x10B9 JUMPI PUSH2 0x180 DUP4 ADD MLOAD MLOAD PUSH1 0x11 SLOAD PUSH2 0x1021 JUMPI PUSH1 0x40 MLOAD PUSH3 0x461BCD PUSH1 0xE5 SHL DUP2 MSTORE PUSH1 0x20 PUSH1 0x4 DUP3 ADD MSTORE PUSH1 0x1F PUSH1 0x24 DUP3 ADD MSTORE PUSH32 0x437573746F6D2072616E6B20636F6E66696720666F726D6174206572726F7200 PUSH1 0x44 DUP3 ADD MSTORE PUSH1 0x64 ADD PUSH2 0x859 JUMP JUMPDEST PUSH1 0x0 DUP1 JUMPDEST DUP3 DUP2 LT ISZERO PUSH2 0x106A JUMPI PUSH1 0x11 DUP2 DUP2 SLOAD DUP2 LT PUSH2 0x1040 JUMPI PUSH2 0x1040 PUSH2 0x343C JUMP JUMPDEST SWAP1 PUSH1 0x0 MSTORE PUSH1 0x20 PUSH1 0x0 KECCAK256 ADD SLOAD DUP3 PUSH2 0x1056 SWAP2 SWAP1 PUSH2 0x38AE JUMP JUMPDEST SWAP2 POP PUSH2 0x1063 PUSH1 0x1 DUP3 PUSH2 0x38AE JUMP JUMPDEST SWAP1 POP PUSH2 0x1025 JUMP JUMPDEST POP PUSH2 0x2710 DUP2 GT ISZERO PUSH2 0x10B6 JUMPI PUSH1 0x40 MLOAD PUSH3 0x461BCD PUSH1 0xE5 SHL DUP2 MSTORE PUSH1 0x20 PUSH1 0x4 DUP3 ADD MSTORE PUSH1 0x16 PUSH1 0x24 DUP3 ADD MSTORE PUSH22 0x5072697A652042505320657863656564732031303025 PUSH1 0x50 SHL PUSH1 0x44 DUP3 ADD MSTORE PUSH1 0x64 ADD PUSH2 0x859 JUMP JUMPDEST POP POP JUMPDEST PUSH2 0x10C4 PUSH1 0x0 DUP4 PUSH2 0x2A5F JUMP JUMPDEST POP PUSH2 0x10DD PUSH1 0x0 DUP1 MLOAD PUSH1 0x20 PUSH2 0x39F2 DUP4 CODECOPY DUP2 MLOAD SWAP2 MSTORE DUP4 PUSH2 0x2A5F JUMP JUMPDEST POP PUSH2 0x10F7 PUSH1 0x0 DUP1 MLOAD PUSH1 0x20 PUSH2 0x39F2 DUP4 CODECOPY DUP2 MLOAD SWAP2 MSTORE PUSH1 0x0 PUSH2 0x2B5C JUMP JUMPDEST PUSH32 0xC66E6CD41F805F65978F5241034E8D106C42CF3C7A4D62CCD857646B401CBE4A DUP3 PUSH1 0x4 PUSH1 0x40 MLOAD PUSH2 0x956 SWAP3 SWAP2 SWAP1 PUSH2 0x38C1 JUMP JUMPDEST CALLER PUSH1 0x0 SWAP1 DUP2 MSTORE PUSH1 0x12 PUSH1 0x20 MSTORE PUSH1 0x40 SWAP1 KECCAK256 SLOAD DUP1 PUSH2 0x117A JUMPI PUSH1 0x40 MLOAD PUSH3 0x461BCD PUSH1 0xE5 SHL DUP2 MSTORE PUSH1 0x20 PUSH1 0x4 DUP3 ADD MSTORE PUSH1 0x11 PUSH1 0x24 DUP3 ADD MSTORE PUSH17 0x4E6F207072697A6520746F20636C61696D PUSH1 0x78 SHL PUSH1 0x44 DUP3 ADD MSTORE PUSH1 0x64 ADD PUSH2 0x859 JUMP JUMPDEST CALLER PUSH1 0x0 DUP2 DUP2 MSTORE PUSH1 0x12 PUSH1 0x20 MSTORE PUSH1 0x40 DUP1 DUP3 KECCAK256 SWAP2 SWAP1 SWAP2 SSTORE PUSH1 0xE SLOAD SWAP1 MLOAD PUSH4 0xA9059CBB PUSH1 0xE0 SHL DUP2 MSTORE PUSH1 0x1 PUSH1 0x1 PUSH1 0xA0 SHL SUB SWAP1 SWAP2 AND SWAP2 PUSH4 0xA9059CBB SWAP2 PUSH2 0x11BE SWAP2 SWAP1 DUP6 SWAP1 PUSH1 0x4 ADD PUSH2 0x33F9 JUMP JUMPDEST PUSH1 0x20 PUSH1 0x40 MLOAD DUP1 DUP4 SUB DUP2 PUSH1 0x0 DUP8 GAS CALL ISZERO DUP1 ISZERO PUSH2 0x11DD JUMPI RETURNDATASIZE PUSH1 0x0 DUP1 RETURNDATACOPY RETURNDATASIZE PUSH1 0x0 REVERT JUMPDEST POP POP POP POP PUSH1 0x40 MLOAD RETURNDATASIZE PUSH1 0x1F NOT PUSH1 0x1F DUP3 ADD AND DUP3 ADD DUP1 PUSH1 0x40 MSTORE POP DUP2 ADD SWAP1 PUSH2 0x1201 SWAP2 SWAP1 PUSH2 0x35DD JUMP JUMPDEST PUSH2 0x121D JUMPI PUSH1 0x40 MLOAD PUSH3 0x461BCD PUSH1 0xE5 SHL DUP2 MSTORE PUSH1 0x4 ADD PUSH2 0x859 SWAP1 PUSH2 0x3961 JUMP JUMPDEST PUSH32 0xB8E091D87F82E56D22276C9A0088EA5D6068E355383DC08B2721B7B6CB10E845 CALLER DUP3 PUSH1 0x40 MLOAD PUSH2 0x124E SWAP3 SWAP2 SWAP1 PUSH2 0x33F9 JUMP JUMPDEST PUSH1 0x40 MLOAD DUP1 SWAP2 SUB SWAP1 LOG1 POP JUMP JUMPDEST PUSH1 0x5 DUP1 SLOAD PUSH2 0x970 SWAP1 PUSH2 0x3495 JUMP JUMPDEST PUSH1 0x0 DUP1 MLOAD PUSH1 0x20 PUSH2 0x39F2 DUP4 CODECOPY DUP2 MLOAD SWAP2 MSTORE PUSH2 0x127E DUP2 PUSH2 0x2A52 JUMP JUMPDEST PUSH1 0x2 PUSH1 0x13 SLOAD PUSH1 0xFF AND PUSH1 0x4 DUP2 GT ISZERO PUSH2 0x1297 JUMPI PUSH2 0x1297 PUSH2 0x2D90 JUMP JUMPDEST EQ PUSH2 0x12D5 JUMPI PUSH1 0x40 MLOAD PUSH3 0x461BCD PUSH1 0xE5 SHL DUP2 MSTORE PUSH1 0x20 PUSH1 0x4 DUP3 ADD MSTORE PUSH1 0xE PUSH1 0x24 DUP3 ADD MSTORE PUSH14 0x11D85B59481B9BDD08195B991959 PUSH1 0x92 SHL PUSH1 0x44 DUP3 ADD MSTORE PUSH1 0x64 ADD PUSH2 0x859 JUMP JUMPDEST PUSH1 0x18 SLOAD PUSH2 0x1315 JUMPI PUSH1 0x40 MLOAD PUSH3 0x461BCD PUSH1 0xE5 SHL DUP2 MSTORE PUSH1 0x20 PUSH1 0x4 DUP3 ADD MSTORE PUSH1 0xE PUSH1 0x24 DUP3 ADD MSTORE PUSH14 0x139BC81DDA5B9B995C9CC81CD95D PUSH1 0x92 SHL PUSH1 0x44 DUP3 ADD MSTORE PUSH1 0x64 ADD PUSH2 0x859 JUMP JUMPDEST PUSH1 0x0 PUSH1 0xF SLOAD GT PUSH2 0x135D JUMPI PUSH1 0x40 MLOAD PUSH3 0x461BCD PUSH1 0xE5 SHL DUP2 MSTORE PUSH1 0x20 PUSH1 0x4 DUP3 ADD MSTORE PUSH1 0x13 PUSH1 0x24 DUP3 ADD MSTORE PUSH19 0x5072697A6520706F6F6C20697320656D707479 PUSH1 0x68 SHL PUSH1 0x44 DUP3 ADD MSTORE PUSH1 0x64 ADD PUSH2 0x859 JUMP JUMPDEST PUSH1 0xF DUP1 SLOAD PUSH1 0x0 SWAP2 DUP3 SWAP1 SSTORE PUSH1 0x2 SLOAD SWAP1 SWAP2 PUSH1 0x1 PUSH1 0x1 PUSH1 0xA0 SHL SUB SWAP1 SWAP2 AND SWAP1 PUSH1 0x10 SLOAD PUSH1 0xFF AND PUSH1 0x2 DUP2 GT ISZERO PUSH2 0x138F JUMPI PUSH2 0x138F PUSH2 0x2D90 JUMP JUMPDEST SUB PUSH2 0x1493 JUMPI DUP2 PUSH1 0x12 PUSH1 0x0 PUSH1 0x18 PUSH1 0x0 DUP2 SLOAD DUP2 LT PUSH2 0x13AD JUMPI PUSH2 0x13AD PUSH2 0x343C JUMP JUMPDEST PUSH1 0x0 SWAP2 DUP3 MSTORE PUSH1 0x20 DUP1 DUP4 KECCAK256 SWAP1 SWAP2 ADD SLOAD PUSH1 0x1 PUSH1 0x1 PUSH1 0xA0 SHL SUB AND DUP4 MSTORE DUP3 ADD SWAP3 SWAP1 SWAP3 MSTORE PUSH1 0x40 ADD DUP2 KECCAK256 DUP1 SLOAD SWAP1 SWAP2 SWAP1 PUSH2 0x13E1 SWAP1 DUP5 SWAP1 PUSH2 0x38AE JUMP JUMPDEST SWAP1 SWAP2 SSTORE POP POP PUSH1 0x2 SLOAD PUSH1 0x1 PUSH1 0x1 PUSH1 0xA0 SHL SUB AND ISZERO PUSH2 0x148E JUMPI DUP1 PUSH1 0x1 PUSH1 0x1 PUSH1 0xA0 SHL SUB AND PUSH4 0x5FE352CE PUSH1 0x18 PUSH1 0x0 DUP2 SLOAD DUP2 LT PUSH2 0x141A JUMPI PUSH2 0x141A PUSH2 0x343C JUMP JUMPDEST PUSH1 0x0 SWAP2 DUP3 MSTORE PUSH1 0x20 SWAP1 SWAP2 KECCAK256 ADD SLOAD PUSH1 0x40 MLOAD PUSH1 0x1 PUSH1 0x1 PUSH1 0xE0 SHL SUB NOT PUSH1 0xE0 DUP5 SWAP1 SHL AND DUP2 MSTORE PUSH2 0x145B SWAP2 PUSH1 0x1 PUSH1 0x1 PUSH1 0xA0 SHL SUB AND SWAP1 PUSH9 0x1158E460913D00000 SWAP1 PUSH1 0x4 ADD PUSH2 0x33F9 JUMP JUMPDEST PUSH1 0x0 PUSH1 0x40 MLOAD DUP1 DUP4 SUB DUP2 PUSH1 0x0 DUP8 DUP1 EXTCODESIZE ISZERO DUP1 ISZERO PUSH2 0x1475 JUMPI PUSH1 0x0 DUP1 REVERT JUMPDEST POP GAS CALL ISZERO DUP1 ISZERO PUSH2 0x1489 JUMPI RETURNDATASIZE PUSH1 0x0 DUP1 RETURNDATACOPY RETURNDATASIZE PUSH1 0x0 REVERT JUMPDEST POP POP POP POP JUMPDEST PUSH2 0x19C6 JUMP JUMPDEST PUSH1 0x1 PUSH1 0x10 SLOAD PUSH1 0xFF AND PUSH1 0x2 DUP2 GT ISZERO PUSH2 0x14AC JUMPI PUSH2 0x14AC PUSH2 0x2D90 JUMP JUMPDEST SUB PUSH2 0x15FD JUMPI PUSH1 0x14 SLOAD PUSH1 0x0 PUSH2 0x14C0 DUP3 DUP6 PUSH2 0x39A0 JUMP JUMPDEST SWAP1 POP PUSH1 0x0 PUSH2 0x14CE DUP4 DUP7 PUSH2 0x39B4 JUMP JUMPDEST SWAP1 POP PUSH1 0x0 JUMPDEST DUP4 DUP2 LT ISZERO PUSH2 0x153F JUMPI PUSH1 0x0 DUP4 SWAP1 POP DUP1 PUSH1 0x12 PUSH1 0x0 PUSH1 0x14 DUP6 DUP2 SLOAD DUP2 LT PUSH2 0x14F8 JUMPI PUSH2 0x14F8 PUSH2 0x343C JUMP JUMPDEST PUSH1 0x0 SWAP2 DUP3 MSTORE PUSH1 0x20 DUP1 DUP4 KECCAK256 PUSH1 0x2 SWAP1 SWAP3 MUL SWAP1 SWAP2 ADD SLOAD PUSH1 0x1 PUSH1 0x1 PUSH1 0xA0 SHL SUB AND DUP4 MSTORE DUP3 ADD SWAP3 SWAP1 SWAP3 MSTORE PUSH1 0x40 ADD DUP2 KECCAK256 DUP1 SLOAD SWAP1 SWAP2 SWAP1 PUSH2 0x1531 SWAP1 DUP5 SWAP1 PUSH2 0x38AE JUMP JUMPDEST SWAP1 SWAP2 SSTORE POP POP POP PUSH1 0x1 ADD PUSH2 0x14D3 JUMP JUMPDEST POP PUSH1 0xE SLOAD PUSH1 0x3 SLOAD PUSH1 0x40 MLOAD PUSH4 0xA9059CBB PUSH1 0xE0 SHL DUP2 MSTORE PUSH1 0x1 PUSH1 0x1 PUSH1 0xA0 SHL SUB SWAP3 DUP4 AND SWAP3 PUSH4 0xA9059CBB SWAP3 PUSH2 0x1576 SWAP3 SWAP2 AND SWAP1 DUP6 SWAP1 PUSH1 0x4 ADD PUSH2 0x33F9 JUMP JUMPDEST PUSH1 0x20 PUSH1 0x40 MLOAD DUP1 DUP4 SUB DUP2 PUSH1 0x0 DUP8 GAS CALL ISZERO DUP1 ISZERO PUSH2 0x1595 JUMPI RETURNDATASIZE PUSH1 0x0 DUP1 RETURNDATACOPY RETURNDATASIZE PUSH1 0x0 REVERT JUMPDEST POP POP POP POP PUSH1 0x40 MLOAD RETURNDATASIZE PUSH1 0x1F NOT PUSH1 0x1F DUP3 ADD AND DUP3 ADD DUP1 PUSH1 0x40 MSTORE POP DUP2 ADD SWAP1 PUSH2 0x15B9 SWAP2 SWAP1 PUSH2 0x35DD JUMP JUMPDEST PUSH2 0x15F5 JUMPI PUSH1 0x40 MLOAD PUSH3 0x461BCD PUSH1 0xE5 SHL DUP2 MSTORE PUSH1 0x20 PUSH1 0x4 DUP3 ADD MSTORE PUSH1 0xD PUSH1 0x24 DUP3 ADD MSTORE PUSH13 0x1499599D5B990819985A5B1959 PUSH1 0x9A SHL PUSH1 0x44 DUP3 ADD MSTORE PUSH1 0x64 ADD PUSH2 0x859 JUMP JUMPDEST POP POP POP PUSH2 0x19C6 JUMP JUMPDEST PUSH1 0x2 PUSH1 0x10 SLOAD PUSH1 0xFF AND PUSH1 0x2 DUP2 GT ISZERO PUSH2 0x1616 JUMPI PUSH2 0x1616 PUSH2 0x2D90 JUMP JUMPDEST SUB PUSH2 0x19C6 JUMPI PUSH1 0x11 SLOAD PUSH1 0x18 SLOAD GT ISZERO PUSH2 0x1685 JUMPI PUSH1 0x40 MLOAD PUSH3 0x461BCD PUSH1 0xE5 SHL DUP2 MSTORE PUSH1 0x20 PUSH1 0x4 DUP3 ADD MSTORE PUSH1 0x2D PUSH1 0x24 DUP3 ADD MSTORE PUSH32 0x57696E6E657273206C69737420657863656564732072616E6B207072697A6520 PUSH1 0x44 DUP3 ADD MSTORE PUSH13 0x31B7B73334B3BAB930BA34B7B7 PUSH1 0x99 SHL PUSH1 0x64 DUP3 ADD MSTORE PUSH1 0x84 ADD PUSH2 0x859 JUMP JUMPDEST PUSH1 0x0 DUP1 JUMPDEST PUSH1 0x18 SLOAD DUP2 LT ISZERO PUSH2 0x171A JUMPI PUSH1 0x0 PUSH1 0x11 DUP3 DUP2 SLOAD DUP2 LT PUSH2 0x16A8 JUMPI PUSH2 0x16A8 PUSH2 0x343C JUMP JUMPDEST SWAP1 PUSH1 0x0 MSTORE PUSH1 0x20 PUSH1 0x0 KECCAK256 ADD SLOAD SWAP1 POP PUSH1 0x0 DUP2 GT PUSH2 0x1705 JUMPI PUSH1 0x40 MLOAD PUSH3 0x461BCD PUSH1 0xE5 SHL DUP2 MSTORE PUSH1 0x20 PUSH1 0x4 DUP3 ADD MSTORE PUSH1 0x1D PUSH1 0x24 DUP3 ADD MSTORE PUSH32 0x4D697373696E67207072697A6520636F6E66696720666F722072616E6B000000 PUSH1 0x44 DUP3 ADD MSTORE PUSH1 0x64 ADD PUSH2 0x859 JUMP JUMPDEST PUSH2 0x170F DUP2 DUP5 PUSH2 0x38AE JUMP JUMPDEST SWAP3 POP POP PUSH1 0x1 ADD PUSH2 0x1689 JUMP JUMPDEST POP PUSH2 0x2710 DUP2 GT ISZERO PUSH2 0x1766 JUMPI PUSH1 0x40 MLOAD PUSH3 0x461BCD PUSH1 0xE5 SHL DUP2 MSTORE PUSH1 0x20 PUSH1 0x4 DUP3 ADD MSTORE PUSH1 0x16 PUSH1 0x24 DUP3 ADD MSTORE PUSH22 0x5072697A652042505320657863656564732031303025 PUSH1 0x50 SHL PUSH1 0x44 DUP3 ADD MSTORE PUSH1 0x64 ADD PUSH2 0x859 JUMP JUMPDEST PUSH1 0x0 JUMPDEST PUSH1 0x18 SLOAD DUP2 LT ISZERO PUSH2 0x19C3 JUMPI PUSH1 0x0 PUSH1 0x11 DUP3 DUP2 SLOAD DUP2 LT PUSH2 0x1788 JUMPI PUSH2 0x1788 PUSH2 0x343C JUMP JUMPDEST PUSH1 0x0 SWAP2 DUP3 MSTORE PUSH1 0x20 DUP3 KECCAK256 ADD SLOAD SWAP2 POP PUSH2 0x2710 PUSH2 0x17A2 DUP4 DUP9 PUSH2 0x3666 JUMP JUMPDEST PUSH2 0x17AC SWAP2 SWAP1 PUSH2 0x39A0 JUMP JUMPDEST SWAP1 POP DUP1 PUSH1 0x12 PUSH1 0x0 PUSH1 0x18 DUP7 DUP2 SLOAD DUP2 LT PUSH2 0x17C6 JUMPI PUSH2 0x17C6 PUSH2 0x343C JUMP JUMPDEST PUSH1 0x0 SWAP2 DUP3 MSTORE PUSH1 0x20 DUP1 DUP4 KECCAK256 SWAP1 SWAP2 ADD SLOAD PUSH1 0x1 PUSH1 0x1 PUSH1 0xA0 SHL SUB AND DUP4 MSTORE DUP3 ADD SWAP3 SWAP1 SWAP3 MSTORE PUSH1 0x40 ADD DUP2 KECCAK256 DUP1 SLOAD SWAP1 SWAP2 SWAP1 PUSH2 0x17FA SWAP1 DUP5 SWAP1 PUSH2 0x38AE JUMP JUMPDEST SWAP1 SWAP2 SSTORE POP POP PUSH1 0x2 SLOAD PUSH1 0x1 PUSH1 0x1 PUSH1 0xA0 SHL SUB AND ISZERO PUSH2 0x19B9 JUMPI DUP3 PUSH1 0x0 SUB PUSH2 0x18B2 JUMPI DUP5 PUSH1 0x1 PUSH1 0x1 PUSH1 0xA0 SHL SUB AND PUSH4 0x5FE352CE PUSH1 0x18 DUP6 DUP2 SLOAD DUP2 LT PUSH2 0x183A JUMPI PUSH2 0x183A PUSH2 0x343C JUMP JUMPDEST PUSH1 0x0 SWAP2 DUP3 MSTORE PUSH1 0x20 SWAP1 SWAP2 KECCAK256 ADD SLOAD PUSH1 0x40 MLOAD PUSH1 0x1 PUSH1 0x1 PUSH1 0xE0 SHL SUB NOT PUSH1 0xE0 DUP5 SWAP1 SHL AND DUP2 MSTORE PUSH2 0x187B SWAP2 PUSH1 0x1 PUSH1 0x1 PUSH1 0xA0 SHL SUB AND SWAP1 PUSH9 0x1158E460913D00000 SWAP1 PUSH1 0x4 ADD PUSH2 0x33F9 JUMP JUMPDEST PUSH1 0x0 PUSH1 0x40 MLOAD DUP1 DUP4 SUB DUP2 PUSH1 0x0 DUP8 DUP1 EXTCODESIZE ISZERO DUP1 ISZERO PUSH2 0x1895 JUMPI PUSH1 0x0 DUP1 REVERT JUMPDEST POP GAS CALL ISZERO DUP1 ISZERO PUSH2 0x18A9 JUMPI RETURNDATASIZE PUSH1 0x0 DUP1 RETURNDATACOPY RETURNDATASIZE PUSH1 0x0 REVERT JUMPDEST POP POP POP POP PUSH2 0x19B9 JUMP JUMPDEST DUP3 PUSH1 0x1 SUB PUSH2 0x191C JUMPI DUP5 PUSH1 0x1 PUSH1 0x1 PUSH1 0xA0 SHL SUB AND PUSH4 0x5FE352CE PUSH1 0x18 DUP6 DUP2 SLOAD DUP2 LT PUSH2 0x18DC JUMPI PUSH2 0x18DC PUSH2 0x343C JUMP JUMPDEST PUSH1 0x0 SWAP2 DUP3 MSTORE PUSH1 0x20 SWAP1 SWAP2 KECCAK256 ADD SLOAD PUSH1 0x40 MLOAD PUSH1 0x1 PUSH1 0x1 PUSH1 0xE0 SHL SUB NOT PUSH1 0xE0 DUP5 SWAP1 SHL AND DUP2 MSTORE PUSH2 0x187B SWAP2 PUSH1 0x1 PUSH1 0x1 PUSH1 0xA0 SHL SUB AND SWAP1 PUSH8 0x8AC7230489E80000 SWAP1 PUSH1 0x4 ADD PUSH2 0x33F9 JUMP JUMPDEST DUP3 PUSH1 0x2 SUB PUSH2 0x19B9 JUMPI DUP5 PUSH1 0x1 PUSH1 0x1 PUSH1 0xA0 SHL SUB AND PUSH4 0x5FE352CE PUSH1 0x18 DUP6 DUP2 SLOAD DUP2 LT PUSH2 0x1946 JUMPI PUSH2 0x1946 PUSH2 0x343C JUMP JUMPDEST PUSH1 0x0 SWAP2 DUP3 MSTORE PUSH1 0x20 SWAP1 SWAP2 KECCAK256 ADD SLOAD PUSH1 0x40 MLOAD PUSH1 0x1 PUSH1 0x1 PUSH1 0xE0 SHL SUB NOT PUSH1 0xE0 DUP5 SWAP1 SHL AND DUP2 MSTORE PUSH2 0x1986 SWAP2 PUSH1 0x1 PUSH1 0x1 PUSH1 0xA0 SHL SUB AND SWAP1 PUSH8 0x4563918244F40000 SWAP1 PUSH1 0x4 ADD PUSH2 0x33F9 JUMP JUMPDEST PUSH1 0x0 PUSH1 0x40 MLOAD DUP1 DUP4 SUB DUP2 PUSH1 0x0 DUP8 DUP1 EXTCODESIZE ISZERO DUP1 ISZERO PUSH2 0x19A0 JUMPI PUSH1 0x0 DUP1 REVERT JUMPDEST POP GAS CALL ISZERO DUP1 ISZERO PUSH2 0x19B4 JUMPI RETURNDATASIZE PUSH1 0x0 DUP1 RETURNDATACOPY RETURNDATASIZE PUSH1 0x0 REVERT JUMPDEST POP POP POP POP JUMPDEST POP POP PUSH1 0x1 ADD PUSH2 0x1769 JUMP JUMPDEST POP POP JUMPDEST POP POP PUSH1 0x13 DUP1 SLOAD PUSH1 0xFF NOT AND PUSH1 0x3 OR SWAP1 SSTORE POP JUMP JUMPDEST PUSH1 0x11 DUP2 DUP2 SLOAD DUP2 LT PUSH2 0x19E8 JUMPI PUSH1 0x0 DUP1 REVERT JUMPDEST PUSH1 0x0 SWAP2 DUP3 MSTORE PUSH1 0x20 SWAP1 SWAP2 KECCAK256 ADD SLOAD SWAP1 POP DUP2 JUMP JUMPDEST PUSH1 0x0 SWAP2 DUP3 MSTORE PUSH1 0x20 DUP3 DUP2 MSTORE PUSH1 0x40 DUP1 DUP5 KECCAK256 PUSH1 0x1 PUSH1 0x1 PUSH1 0xA0 SHL SUB SWAP4 SWAP1 SWAP4 AND DUP5 MSTORE SWAP2 SWAP1 MSTORE SWAP1 KECCAK256 SLOAD PUSH1 0xFF AND SWAP1 JUMP JUMPDEST PUSH1 0x18 DUP2 DUP2 SLOAD DUP2 LT PUSH2 0x1A32 JUMPI PUSH1 0x0 DUP1 REVERT JUMPDEST PUSH1 0x0 SWAP2 DUP3 MSTORE PUSH1 0x20 SWAP1 SWAP2 KECCAK256 ADD SLOAD PUSH1 0x1 PUSH1 0x1 PUSH1 0xA0 SHL SUB AND SWAP1 POP DUP2 JUMP JUMPDEST PUSH2 0x1A54 PUSH2 0x2C74 JUMP JUMPDEST PUSH2 0x1A5C PUSH2 0x2C74 JUMP JUMPDEST PUSH1 0x3 SLOAD PUSH1 0x1 PUSH1 0x1 PUSH1 0xA0 SHL SUB AND DUP2 MSTORE PUSH1 0x4 DUP1 SLOAD PUSH2 0x1A77 SWAP1 PUSH2 0x3495 JUMP JUMPDEST DUP1 PUSH1 0x1F ADD PUSH1 0x20 DUP1 SWAP2 DIV MUL PUSH1 0x20 ADD PUSH1 0x40 MLOAD SWAP1 DUP2 ADD PUSH1 0x40 MSTORE DUP1 SWAP3 SWAP2 SWAP1 DUP2 DUP2 MSTORE PUSH1 0x20 ADD DUP3 DUP1 SLOAD PUSH2 0x1AA3 SWAP1 PUSH2 0x3495 JUMP JUMPDEST DUP1 ISZERO PUSH2 0x1AF0 JUMPI DUP1 PUSH1 0x1F LT PUSH2 0x1AC5 JUMPI PUSH2 0x100 DUP1 DUP4 SLOAD DIV MUL DUP4 MSTORE SWAP2 PUSH1 0x20 ADD SWAP2 PUSH2 0x1AF0 JUMP JUMPDEST DUP3 ADD SWAP2 SWAP1 PUSH1 0x0 MSTORE PUSH1 0x20 PUSH1 0x0 KECCAK256 SWAP1 JUMPDEST DUP2 SLOAD DUP2 MSTORE SWAP1 PUSH1 0x1 ADD SWAP1 PUSH1 0x20 ADD DUP1 DUP4 GT PUSH2 0x1AD3 JUMPI DUP3 SWAP1 SUB PUSH1 0x1F AND DUP3 ADD SWAP2 JUMPDEST POP POP POP POP POP DUP2 PUSH1 0x20 ADD DUP2 SWAP1 MSTORE POP PUSH1 0x5 DUP1 SLOAD PUSH2 0x1B0A SWAP1 PUSH2 0x3495 JUMP JUMPDEST DUP1 PUSH1 0x1F ADD PUSH1 0x20 DUP1 SWAP2 DIV MUL PUSH1 0x20 ADD PUSH1 0x40 MLOAD SWAP1 DUP2 ADD PUSH1 0x40 MSTORE DUP1 SWAP3 SWAP2 SWAP1 DUP2 DUP2 MSTORE PUSH1 0x20 ADD DUP3 DUP1 SLOAD PUSH2 0x1B36 SWAP1 PUSH2 0x3495 JUMP JUMPDEST DUP1 ISZERO PUSH2 0x1B83 JUMPI DUP1 PUSH1 0x1F LT PUSH2 0x1B58 JUMPI PUSH2 0x100 DUP1 DUP4 SLOAD DIV MUL DUP4 MSTORE SWAP2 PUSH1 0x20 ADD SWAP2 PUSH2 0x1B83 JUMP JUMPDEST DUP3 ADD SWAP2 SWAP1 PUSH1 0x0 MSTORE PUSH1 0x20 PUSH1 0x0 KECCAK256 SWAP1 JUMPDEST DUP2 SLOAD DUP2 MSTORE SWAP1 PUSH1 0x1 ADD SWAP1 PUSH1 0x20 ADD DUP1 DUP4 GT PUSH2 0x1B66 JUMPI DUP3 SWAP1 SUB PUSH1 0x1F AND DUP3 ADD SWAP2 JUMPDEST POP POP POP POP POP PUSH1 0x40 DUP3 ADD MSTORE PUSH1 0x13 SLOAD PUSH1 0x60 DUP3 ADD SWAP1 PUSH1 0xFF AND PUSH1 0x4 DUP2 GT ISZERO PUSH2 0x1BA9 JUMPI PUSH2 0x1BA9 PUSH2 0x2D90 JUMP JUMPDEST SWAP1 DUP2 PUSH1 0x4 DUP2 GT ISZERO PUSH2 0x1BBC JUMPI PUSH2 0x1BBC PUSH2 0x2D90 JUMP JUMPDEST SWAP1 MSTORE POP PUSH1 0x6 SLOAD PUSH1 0x80 DUP3 ADD SWAP1 PUSH1 0xFF AND PUSH1 0x4 DUP2 GT ISZERO PUSH2 0x1BDB JUMPI PUSH2 0x1BDB PUSH2 0x2D90 JUMP JUMPDEST SWAP1 DUP2 PUSH1 0x4 DUP2 GT ISZERO PUSH2 0x1BEE JUMPI PUSH2 0x1BEE PUSH2 0x2D90 JUMP JUMPDEST SWAP1 MSTORE POP PUSH1 0x8 SLOAD PUSH1 0xA0 DUP3 ADD MSTORE PUSH1 0x14 SLOAD PUSH1 0xC0 DUP3 ADD MSTORE PUSH1 0x9 SLOAD PUSH1 0xE0 DUP3 ADD MSTORE PUSH1 0xA SLOAD PUSH2 0x100 DUP3 ADD MSTORE PUSH1 0xC SLOAD PUSH2 0x140 DUP3 ADD MSTORE PUSH1 0xB SLOAD PUSH1 0x1 PUSH1 0x1 PUSH1 0xA0 SHL SUB SWAP1 DUP2 AND PUSH2 0x120 DUP4 ADD MSTORE PUSH1 0xF SLOAD PUSH2 0x180 DUP4 ADD MSTORE PUSH1 0xE SLOAD AND PUSH2 0x160 DUP3 ADD MSTORE SWAP2 SWAP1 POP JUMP JUMPDEST PUSH1 0x1 PUSH1 0x13 SLOAD PUSH1 0xFF AND PUSH1 0x4 DUP2 GT ISZERO PUSH2 0x1C60 JUMPI PUSH2 0x1C60 PUSH2 0x2D90 JUMP JUMPDEST EQ PUSH2 0x1C7D JUMPI PUSH1 0x40 MLOAD PUSH3 0x461BCD PUSH1 0xE5 SHL DUP2 MSTORE PUSH1 0x4 ADD PUSH2 0x859 SWAP1 PUSH2 0x3412 JUMP JUMPDEST PUSH1 0xA SLOAD TIMESTAMP LT ISZERO PUSH2 0x1CCA JUMPI PUSH1 0x40 MLOAD PUSH3 0x461BCD PUSH1 0xE5 SHL DUP2 MSTORE PUSH1 0x20 PUSH1 0x4 DUP3 ADD MSTORE PUSH1 0x18 PUSH1 0x24 DUP3 ADD MSTORE PUSH24 0x11D85B59481A185CC81B9BDD081CDD185C9D1959081E595D PUSH1 0x42 SHL PUSH1 0x44 DUP3 ADD MSTORE PUSH1 0x64 ADD PUSH2 0x859 JUMP JUMPDEST CALLER PUSH1 0x0 SWAP1 DUP2 MSTORE PUSH1 0x15 PUSH1 0x20 MSTORE PUSH1 0x40 SWAP1 KECCAK256 SLOAD PUSH1 0xFF AND PUSH2 0x1D1D JUMPI PUSH1 0x40 MLOAD PUSH3 0x461BCD PUSH1 0xE5 SHL DUP2 MSTORE PUSH1 0x20 PUSH1 0x4 DUP3 ADD MSTORE PUSH1 0x11 PUSH1 0x24 DUP3 ADD MSTORE PUSH17 0x141B185E595C881B9BDD081A9BDA5B9959 PUSH1 0x7A SHL PUSH1 0x44 DUP3 ADD MSTORE PUSH1 0x64 ADD PUSH2 0x859 JUMP JUMPDEST CALLER PUSH1 0x0 DUP2 DUP2 MSTORE PUSH1 0x16 PUSH1 0x20 MSTORE PUSH1 0x40 SWAP1 DUP2 SWAP1 KECCAK256 DUP4 SWAP1 SSTORE MLOAD PUSH32 0xA578DF9B0453D14D7ED8615EE0E9D58F70E041E91FC5865E3B71F81EA05296C0 SWAP2 PUSH2 0x124E SWAP2 DUP5 SWAP1 PUSH2 0x33F9 JUMP JUMPDEST PUSH1 0x4 PUSH1 0x13 SLOAD PUSH1 0xFF AND PUSH1 0x4 DUP2 GT ISZERO PUSH2 0x1D78 JUMPI PUSH2 0x1D78 PUSH2 0x2D90 JUMP JUMPDEST EQ PUSH2 0x1DB9 JUMPI PUSH1 0x40 MLOAD PUSH3 0x461BCD PUSH1 0xE5 SHL DUP2 MSTORE PUSH1 0x20 PUSH1 0x4 DUP3 ADD MSTORE PUSH1 0x11 PUSH1 0x24 DUP3 ADD MSTORE PUSH17 0x11D85B59481B9BDD0818D85B98D95B1959 PUSH1 0x7A SHL PUSH1 0x44 DUP3 ADD MSTORE PUSH1 0x64 ADD PUSH2 0x859 JUMP JUMPDEST CALLER PUSH1 0x0 SWAP1 DUP2 MSTORE PUSH1 0xD PUSH1 0x20 MSTORE PUSH1 0x40 SWAP1 KECCAK256 SLOAD DUP1 PUSH2 0x1E0A JUMPI PUSH1 0x40 MLOAD PUSH3 0x461BCD PUSH1 0xE5 SHL DUP2 MSTORE PUSH1 0x20 PUSH1 0x4 DUP3 ADD MSTORE PUSH1 0x11 PUSH1 0x24 DUP3 ADD MSTORE PUSH17 0x4E6F207072697A6520746F20636C61696D PUSH1 0x78 SHL PUSH1 0x44 DUP3 ADD MSTORE PUSH1 0x64 ADD PUSH2 0x859 JUMP JUMPDEST CALLER PUSH1 0x0 DUP2 DUP2 MSTORE PUSH1 0xD PUSH1 0x20 MSTORE PUSH1 0x40 DUP1 DUP3 KECCAK256 SWAP2 SWAP1 SWAP2 SSTORE PUSH1 0xB SLOAD SWAP1 MLOAD PUSH4 0xA9059CBB PUSH1 0xE0 SHL DUP2 MSTORE PUSH1 0x1 PUSH1 0x1 PUSH1 0xA0 SHL SUB SWAP1 SWAP2 AND SWAP2 PUSH4 0xA9059CBB SWAP2 PUSH2 0x1E4E SWAP2 SWAP1 DUP6 SWAP1 PUSH1 0x4 ADD PUSH2 0x33F9 JUMP JUMPDEST PUSH1 0x20 PUSH1 0x40 MLOAD DUP1 DUP4 SUB DUP2 PUSH1 0x0 DUP8 GAS CALL ISZERO DUP1 ISZERO PUSH2 0x1E6D JUMPI RETURNDATASIZE PUSH1 0x0 DUP1 RETURNDATACOPY RETURNDATASIZE PUSH1 0x0 REVERT JUMPDEST POP POP POP POP PUSH1 0x40 MLOAD RETURNDATASIZE PUSH1 0x1F NOT PUSH1 0x1F DUP3 ADD AND DUP3 ADD DUP1 PUSH1 0x40 MSTORE POP DUP2 ADD SWAP1 PUSH2 0x1E91 SWAP2 SWAP1 PUSH2 0x35DD JUMP JUMPDEST PUSH2 0x1EAD JUMPI PUSH1 0x40 MLOAD PUSH3 0x461BCD PUSH1 0xE5 SHL DUP2 MSTORE PUSH1 0x4 ADD PUSH2 0x859 SWAP1 PUSH2 0x3961 JUMP JUMPDEST PUSH32 0xEB4706597FB7A2E8806C0E31AD4C334330A97BC3CAE6B9C360E152C922BB40C8 CALLER DUP3 PUSH1 0x40 MLOAD PUSH2 0x124E SWAP3 SWAP2 SWAP1 PUSH2 0x33F9 JUMP JUMPDEST PUSH1 0x0 PUSH1 0x13 SLOAD PUSH1 0xFF AND PUSH1 0x4 DUP2 GT ISZERO PUSH2 0x1EF7 JUMPI PUSH2 0x1EF7 PUSH2 0x2D90 JUMP JUMPDEST EQ PUSH2 0x1F44 JUMPI PUSH1 0x40 MLOAD PUSH3 0x461BCD PUSH1 0xE5 SHL DUP2 MSTORE PUSH1 0x20 PUSH1 0x4 DUP3 ADD MSTORE PUSH1 0x1A PUSH1 0x24 DUP3 ADD MSTORE PUSH32 0x47616D65206E6F7420616363657074696E6720706C6179657273000000000000 PUSH1 0x44 DUP3 ADD MSTORE PUSH1 0x64 ADD PUSH2 0x859 JUMP JUMPDEST PUSH1 0x9 SLOAD TIMESTAMP LT PUSH2 0x1F95 JUMPI PUSH1 0x40 MLOAD PUSH3 0x461BCD PUSH1 0xE5 SHL DUP2 MSTORE PUSH1 0x20 PUSH1 0x4 DUP3 ADD MSTORE PUSH1 0x18 PUSH1 0x24 DUP3 ADD MSTORE PUSH32 0x526567697374726174696F6E2074696D65207061737365640000000000000000 PUSH1 0x44 DUP3 ADD MSTORE PUSH1 0x64 ADD PUSH2 0x859 JUMP JUMPDEST PUSH1 0x8 SLOAD PUSH1 0x14 SLOAD LT PUSH2 0x1FDE JUMPI PUSH1 0x40 MLOAD PUSH3 0x461BCD PUSH1 0xE5 SHL DUP2 MSTORE PUSH1 0x20 PUSH1 0x4 DUP3 ADD MSTORE PUSH1 0x13 PUSH1 0x24 DUP3 ADD MSTORE PUSH19 0x13585E081C1B185E595C9CC81C995858DA1959 PUSH1 0x6A SHL PUSH1 0x44 DUP3 ADD MSTORE PUSH1 0x64 ADD PUSH2 0x859 JUMP JUMPDEST CALLER PUSH1 0x0 SWAP1 DUP2 MSTORE PUSH1 0x15 PUSH1 0x20 MSTORE PUSH1 0x40 SWAP1 KECCAK256 SLOAD PUSH1 0xFF AND ISZERO PUSH2 0x202F JUMPI PUSH1 0x40 MLOAD PUSH3 0x461BCD PUSH1 0xE5 SHL DUP2 MSTORE PUSH1 0x20 PUSH1 0x4 DUP3 ADD MSTORE PUSH1 0xE PUSH1 0x24 DUP3 ADD MSTORE PUSH14 0x105B1C9958591E481A9BDA5B9959 PUSH1 0x92 SHL PUSH1 0x44 DUP3 ADD MSTORE PUSH1 0x64 ADD PUSH2 0x859 JUMP JUMPDEST PUSH1 0xC SLOAD ISZERO PUSH2 0x20D2 JUMPI PUSH1 0xB SLOAD PUSH1 0xC SLOAD PUSH1 0x40 MLOAD PUSH4 0x23B872DD PUSH1 0xE0 SHL DUP2 MSTORE CALLER PUSH1 0x4 DUP3 ADD MSTORE ADDRESS PUSH1 0x24 DUP3 ADD MSTORE PUSH1 0x44 DUP2 ADD SWAP2 SWAP1 SWAP2 MSTORE PUSH1 0x1 PUSH1 0x1 PUSH1 0xA0 SHL SUB SWAP1 SWAP2 AND SWAP1 PUSH4 0x23B872DD SWAP1 PUSH1 0x64 ADD PUSH1 0x20 PUSH1 0x40 MLOAD DUP1 DUP4 SUB DUP2 PUSH1 0x0 DUP8 GAS CALL ISZERO DUP1 ISZERO PUSH2 0x2092 JUMPI RETURNDATASIZE PUSH1 0x0 DUP1 RETURNDATACOPY RETURNDATASIZE PUSH1 0x0 REVERT JUMPDEST POP POP POP POP PUSH1 0x40 MLOAD RETURNDATASIZE PUSH1 0x1F NOT PUSH1 0x1F DUP3 ADD AND DUP3 ADD DUP1 PUSH1 0x40 MSTORE POP DUP2 ADD SWAP1 PUSH2 0x20B6 SWAP2 SWAP1 PUSH2 0x35DD JUMP JUMPDEST PUSH2 0x20D2 JUMPI PUSH1 0x40 MLOAD PUSH3 0x461BCD PUSH1 0xE5 SHL DUP2 MSTORE PUSH1 0x4 ADD PUSH2 0x859 SWAP1 PUSH2 0x3961 JUMP JUMPDEST PUSH1 0x40 DUP1 MLOAD DUP1 DUP3 ADD DUP3 MSTORE CALLER DUP1 DUP3 MSTORE PUSH1 0x0 PUSH1 0x20 DUP1 DUP5 ADD DUP3 DUP2 MSTORE PUSH1 0x14 DUP1 SLOAD PUSH1 0x1 DUP1 DUP3 ADD DUP4 SSTORE SWAP2 DUP6 MSTORE SWAP6 MLOAD PUSH32 0xCE6D7B5282BD9A3661AE061FEED1DBDA4E52AB073B1F9285BE6E155D9C38D4EC PUSH1 0x2 SWAP8 DUP9 MUL SWAP1 DUP2 ADD DUP1 SLOAD PUSH1 0x1 PUSH1 0x1 PUSH1 0xA0 SHL SUB NOT AND PUSH1 0x1 PUSH1 0x1 PUSH1 0xA0 SHL SUB SWAP4 DUP5 AND OR SWAP1 SSTORE SWAP3 MLOAD PUSH32 0xCE6D7B5282BD9A3661AE061FEED1DBDA4E52AB073B1F9285BE6E155D9C38D4ED SWAP1 SWAP4 ADD SWAP3 SWAP1 SWAP3 SSTORE PUSH1 0xC SLOAD SWAP5 DUP5 MSTORE PUSH1 0xD DUP4 MSTORE DUP7 DUP5 KECCAK256 SWAP5 SWAP1 SWAP5 SSTORE PUSH1 0x15 SWAP1 SWAP2 MSTORE SWAP4 SWAP1 KECCAK256 DUP1 SLOAD PUSH1 0xFF NOT AND SWAP1 SWAP2 OR SWAP1 SSTORE SLOAD AND ISZERO PUSH2 0x21FE JUMPI PUSH1 0x2 SLOAD PUSH1 0x40 MLOAD PUSH4 0x2FF1A967 PUSH1 0xE1 SHL DUP2 MSTORE PUSH1 0x1 PUSH1 0x1 PUSH1 0xA0 SHL SUB SWAP1 SWAP2 AND SWAP1 PUSH4 0x5FE352CE SWAP1 PUSH2 0x21CB SWAP1 CALLER SWAP1 PUSH8 0x29A2241AF62C0000 SWAP1 PUSH1 0x4 ADD PUSH2 0x33F9 JUMP JUMPDEST PUSH1 0x0 PUSH1 0x40 MLOAD DUP1 DUP4 SUB DUP2 PUSH1 0x0 DUP8 DUP1 EXTCODESIZE ISZERO DUP1 ISZERO PUSH2 0x21E5 JUMPI PUSH1 0x0 DUP1 REVERT JUMPDEST POP GAS CALL ISZERO DUP1 ISZERO PUSH2 0x21F9 JUMPI RETURNDATASIZE PUSH1 0x0 DUP1 RETURNDATACOPY RETURNDATASIZE PUSH1 0x0 REVERT JUMPDEST POP POP POP POP JUMPDEST PUSH1 0x40 MLOAD CALLER DUP2 MSTORE PUSH32 0x31E760AA525306ABA638A784082A013B6A1CC0A9A1789F3F22281C0453B10B1F SWAP1 PUSH1 0x20 ADD PUSH1 0x40 MLOAD DUP1 SWAP2 SUB SWAP1 LOG1 JUMP JUMPDEST PUSH1 0x0 DUP3 DUP2 MSTORE PUSH1 0x20 DUP2 SWAP1 MSTORE PUSH1 0x40 SWAP1 KECCAK256 PUSH1 0x1 ADD SLOAD PUSH2 0x224E DUP2 PUSH2 0x2A52 JUMP JUMPDEST PUSH2 0x7CD DUP4 DUP4 PUSH2 0x2AF1 JUMP JUMPDEST PUSH1 0x0 DUP1 MLOAD PUSH1 0x20 PUSH2 0x39F2 DUP4 CODECOPY DUP2 MLOAD SWAP2 MSTORE PUSH2 0x2270 DUP2 PUSH2 0x2A52 JUMP JUMPDEST PUSH1 0x0 PUSH1 0x13 SLOAD PUSH1 0xFF AND PUSH1 0x4 DUP2 GT ISZERO PUSH2 0x2289 JUMPI PUSH2 0x2289 PUSH2 0x2D90 JUMP JUMPDEST EQ PUSH2 0x22D6 JUMPI PUSH1 0x40 MLOAD PUSH3 0x461BCD PUSH1 0xE5 SHL DUP2 MSTORE PUSH1 0x20 PUSH1 0x4 DUP3 ADD MSTORE PUSH1 0x1A PUSH1 0x24 DUP3 ADD MSTORE PUSH32 0x47616D65206E6F7420696E204372656174656420737461747573000000000000 PUSH1 0x44 DUP3 ADD MSTORE PUSH1 0x64 ADD PUSH2 0x859 JUMP JUMPDEST PUSH1 0x9 SLOAD TIMESTAMP LT ISZERO PUSH2 0x2328 JUMPI PUSH1 0x40 MLOAD PUSH3 0x461BCD PUSH1 0xE5 SHL DUP2 MSTORE PUSH1 0x20 PUSH1 0x4 DUP3 ADD MSTORE PUSH1 0x1C PUSH1 0x24 DUP3 ADD MSTORE PUSH32 0x526567697374726174696F6E206973206E6F74206F7665722079657400000000 PUSH1 0x44 DUP3 ADD MSTORE PUSH1 0x64 ADD PUSH2 0x859 JUMP JUMPDEST PUSH1 0x7 SLOAD PUSH1 0x14 SLOAD LT ISZERO PUSH2 0x237C JUMPI PUSH1 0x40 MLOAD PUSH3 0x461BCD PUSH1 0xE5 SHL DUP2 MSTORE PUSH1 0x20 PUSH1 0x4 DUP3 ADD MSTORE PUSH1 0x1B PUSH1 0x24 DUP3 ADD MSTORE PUSH32 0x4E6F7420656E6F75676820706C617965727320746F2073746172740000000000 PUSH1 0x44 DUP3 ADD MSTORE PUSH1 0x64 ADD PUSH2 0x859 JUMP JUMPDEST PUSH1 0x13 DUP1 SLOAD PUSH1 0xFF NOT AND PUSH1 0x1 OR SWAP1 SSTORE PUSH1 0x40 MLOAD PUSH32 0x762F260439BB4BE3EF6E4DC2786E2E7BD187D3D80B79057D7A424FE98563E335 SWAP1 PUSH1 0x0 SWAP1 LOG1 POP JUMP JUMPDEST PUSH1 0x0 DUP1 MLOAD PUSH1 0x20 PUSH2 0x39F2 DUP4 CODECOPY DUP2 MLOAD SWAP2 MSTORE PUSH2 0x23CD DUP2 PUSH2 0x2A52 JUMP JUMPDEST PUSH1 0x0 PUSH1 0x13 SLOAD PUSH1 0xFF AND PUSH1 0x4 DUP2 GT ISZERO PUSH2 0x23E6 JUMPI PUSH2 0x23E6 PUSH2 0x2D90 JUMP JUMPDEST EQ DUP1 PUSH2 0x2408 JUMPI POP PUSH1 0x1 PUSH1 0x13 SLOAD PUSH1 0xFF AND PUSH1 0x4 DUP2 GT ISZERO PUSH2 0x2406 JUMPI PUSH2 0x2406 PUSH2 0x2D90 JUMP JUMPDEST EQ JUMPDEST PUSH2 0x2467 JUMPI PUSH1 0x40 MLOAD PUSH3 0x461BCD PUSH1 0xE5 SHL DUP2 MSTORE PUSH1 0x20 PUSH1 0x4 DUP3 ADD MSTORE PUSH1 0x2A PUSH1 0x24 DUP3 ADD MSTORE PUSH32 0x43616E6E6F742063616E63656C20616E20656E646564206F7220646973747269 PUSH1 0x44 DUP3 ADD MSTORE PUSH10 0x62757465642067616D65 PUSH1 0xB0 SHL PUSH1 0x64 DUP3 ADD MSTORE PUSH1 0x84 ADD PUSH2 0x859 JUMP JUMPDEST PUSH1 0xF DUP1 SLOAD PUSH1 0x0 SWAP1 SWAP2 SSTORE PUSH1 0x13 DUP1 SLOAD PUSH1 0xFF NOT AND PUSH1 0x4 OR SWAP1 SSTORE DUP1 ISZERO PUSH2 0x2538 JUMPI PUSH1 0xE SLOAD PUSH1 0x3 SLOAD PUSH1 0x40 MLOAD PUSH4 0xA9059CBB PUSH1 0xE0 SHL DUP2 MSTORE PUSH1 0x1 PUSH1 0x1 PUSH1 0xA0 SHL SUB SWAP3 DUP4 AND SWAP3 PUSH4 0xA9059CBB SWAP3 PUSH2 0x24B9 SWAP3 SWAP2 AND SWAP1 DUP6 SWAP1 PUSH1 0x4 ADD PUSH2 0x33F9 JUMP JUMPDEST PUSH1 0x20 PUSH1 0x40 MLOAD DUP1 DUP4 SUB DUP2 PUSH1 0x0 DUP8 GAS CALL ISZERO DUP1 ISZERO PUSH2 0x24D8 JUMPI RETURNDATASIZE PUSH1 0x0 DUP1 RETURNDATACOPY RETURNDATASIZE PUSH1 0x0 REVERT JUMPDEST POP POP POP POP PUSH1 0x40 MLOAD RETURNDATASIZE PUSH1 0x1F NOT PUSH1 0x1F DUP3 ADD AND DUP3 ADD DUP1 PUSH1 0x40 MSTORE POP DUP2 ADD SWAP1 PUSH2 0x24FC SWAP2 SWAP1 PUSH2 0x35DD JUMP JUMPDEST PUSH2 0x2538 JUMPI PUSH1 0x40 MLOAD PUSH3 0x461BCD PUSH1 0xE5 SHL DUP2 MSTORE PUSH1 0x20 PUSH1 0x4 DUP3 ADD MSTORE PUSH1 0xD PUSH1 0x24 DUP3 ADD MSTORE PUSH13 0x1499599D5B990819985A5B1959 PUSH1 0x9A SHL PUSH1 0x44 DUP3 ADD MSTORE PUSH1 0x64 ADD PUSH2 0x859 JUMP JUMPDEST PUSH1 0x3 SLOAD PUSH1 0x40 MLOAD DUP3 DUP2 MSTORE PUSH1 0x1 PUSH1 0x1 PUSH1 0xA0 SHL SUB SWAP1 SWAP2 AND SWAP1 PUSH32 0xCABD9FFA4FF52290E56C52A9ED671760A0E5951EAA234FD9E0CCCCF507BF98CA SWAP1 PUSH1 0x20 ADD PUSH1 0x40 MLOAD DUP1 SWAP2 SUB SWAP1 LOG2 POP POP JUMP JUMPDEST PUSH1 0x0 PUSH2 0x2589 DUP2 PUSH2 0x2A52 JUMP JUMPDEST PUSH1 0x1 PUSH1 0x1 PUSH1 0xA0 SHL SUB DUP3 AND PUSH2 0x25DF JUMPI PUSH1 0x40 MLOAD PUSH3 0x461BCD PUSH1 0xE5 SHL DUP2 MSTORE PUSH1 0x20 PUSH1 0x4 DUP3 ADD MSTORE PUSH1 0x1D PUSH1 0x24 DUP3 ADD MSTORE PUSH32 0x496E76616C69642067616D652072656769737472792061646472657373000000 PUSH1 0x44 DUP3 ADD MSTORE PUSH1 0x64 ADD PUSH2 0x859 JUMP JUMPDEST POP PUSH1 0x1 DUP1 SLOAD PUSH1 0x1 PUSH1 0x1 PUSH1 0xA0 SHL SUB SWAP1 SWAP3 AND PUSH2 0x100 MUL PUSH2 0x100 PUSH1 0x1 PUSH1 0xA8 SHL SUB NOT SWAP1 SWAP3 AND SWAP2 SWAP1 SWAP2 OR SWAP1 SSTORE JUMP JUMPDEST PUSH1 0x9 SLOAD CALLER SWAP1 TIMESTAMP LT PUSH2 0x265B JUMPI PUSH1 0x40 MLOAD PUSH3 0x461BCD PUSH1 0xE5 SHL DUP2 MSTORE PUSH1 0x20 PUSH1 0x4 DUP3 ADD MSTORE PUSH1 0x19 PUSH1 0x24 DUP3 ADD MSTORE PUSH32 0x526567697374726174696F6E2074696D65206973206F76657200000000000000 PUSH1 0x44 DUP3 ADD MSTORE PUSH1 0x64 ADD PUSH2 0x859 JUMP JUMPDEST PUSH1 0x0 PUSH1 0x13 SLOAD PUSH1 0xFF AND PUSH1 0x4 DUP2 GT ISZERO PUSH2 0x2674 JUMPI PUSH2 0x2674 PUSH2 0x2D90 JUMP JUMPDEST EQ PUSH2 0x26C1 JUMPI PUSH1 0x40 MLOAD PUSH3 0x461BCD PUSH1 0xE5 SHL DUP2 MSTORE PUSH1 0x20 PUSH1 0x4 DUP3 ADD DUP2 SWAP1 MSTORE PUSH1 0x24 DUP3 ADD MSTORE PUSH32 0x47616D6520697320616C7265616479206F6E676F696E67206F7220656E646564 PUSH1 0x44 DUP3 ADD MSTORE PUSH1 0x64 ADD PUSH2 0x859 JUMP JUMPDEST PUSH1 0x1 PUSH1 0x1 PUSH1 0xA0 SHL SUB DUP2 AND PUSH1 0x0 SWAP1 DUP2 MSTORE PUSH1 0xD PUSH1 0x20 MSTORE PUSH1 0x40 SWAP1 KECCAK256 SLOAD DUP1 PUSH2 0x273D JUMPI PUSH1 0x40 MLOAD PUSH3 0x461BCD PUSH1 0xE5 SHL DUP2 MSTORE PUSH1 0x20 PUSH1 0x4 DUP3 ADD MSTORE PUSH1 0x2D PUSH1 0x24 DUP3 ADD MSTORE PUSH32 0x506C6179657220686173206E6F74206A6F696E6564206F722066656520616C72 PUSH1 0x44 DUP3 ADD MSTORE PUSH13 0x1958591E481C99599D5B991959 PUSH1 0x9A SHL PUSH1 0x64 DUP3 ADD MSTORE PUSH1 0x84 ADD PUSH2 0x859 JUMP JUMPDEST PUSH1 0x0 DUP1 DUP1 JUMPDEST PUSH1 0x14 SLOAD DUP2 LT ISZERO PUSH2 0x279C JUMPI DUP5 PUSH1 0x1 PUSH1 0x1 PUSH1 0xA0 SHL SUB AND PUSH1 0x14 DUP3 DUP2 SLOAD DUP2 LT PUSH2 0x2769 JUMPI PUSH2 0x2769 PUSH2 0x343C JUMP JUMPDEST PUSH1 0x0 SWAP2 DUP3 MSTORE PUSH1 0x20 SWAP1 SWAP2 KECCAK256 PUSH1 0x2 SWAP1 SWAP2 MUL ADD SLOAD PUSH1 0x1 PUSH1 0x1 PUSH1 0xA0 SHL SUB AND SUB PUSH2 0x2794 JUMPI DUP1 SWAP3 POP PUSH1 0x1 SWAP2 POP PUSH2 0x279C JUMP JUMPDEST PUSH1 0x1 ADD PUSH2 0x2742 JUMP JUMPDEST POP DUP1 PUSH2 0x27FB JUMPI PUSH1 0x40 MLOAD PUSH3 0x461BCD PUSH1 0xE5 SHL DUP2 MSTORE PUSH1 0x20 PUSH1 0x4 DUP3 ADD MSTORE PUSH1 0x28 PUSH1 0x24 DUP3 ADD MSTORE PUSH32 0x496E7465726E616C206572726F723A20506C61796572206E6F7420666F756E64 PUSH1 0x44 DUP3 ADD MSTORE PUSH8 0x81A5B881B1A5CDD PUSH1 0xC2 SHL PUSH1 0x64 DUP3 ADD MSTORE PUSH1 0x84 ADD PUSH2 0x859 JUMP JUMPDEST PUSH1 0x14 SLOAD PUSH1 0x0 SWAP1 PUSH2 0x280D SWAP1 PUSH1 0x1 SWAP1 PUSH2 0x39C8 JUMP JUMPDEST SWAP1 POP DUP1 DUP4 EQ PUSH2 0x2883 JUMPI PUSH1 0x14 DUP2 DUP2 SLOAD DUP2 LT PUSH2 0x2829 JUMPI PUSH2 0x2829 PUSH2 0x343C JUMP JUMPDEST SWAP1 PUSH1 0x0 MSTORE PUSH1 0x20 PUSH1 0x0 KECCAK256 SWAP1 PUSH1 0x2 MUL ADD PUSH1 0x14 DUP5 DUP2 SLOAD DUP2 LT PUSH2 0x284A JUMPI PUSH2 0x284A PUSH2 0x343C JUMP JUMPDEST PUSH1 0x0 SWAP2 DUP3 MSTORE PUSH1 0x20 SWAP1 SWAP2 KECCAK256 DUP3 SLOAD PUSH1 0x2 SWAP1 SWAP3 MUL ADD DUP1 SLOAD PUSH1 0x1 PUSH1 0x1 PUSH1 0xA0 SHL SUB NOT AND PUSH1 0x1 PUSH1 0x1 PUSH1 0xA0 SHL SUB SWAP1 SWAP3 AND SWAP2 SWAP1 SWAP2 OR DUP2 SSTORE PUSH1 0x1 SWAP2 DUP3 ADD SLOAD SWAP2 ADD SSTORE JUMPDEST PUSH1 0x14 DUP1 SLOAD DUP1 PUSH2 0x2894 JUMPI PUSH2 0x2894 PUSH2 0x39DB JUMP JUMPDEST PUSH1 0x0 DUP3 DUP2 MSTORE PUSH1 0x20 DUP1 DUP3 KECCAK256 PUSH1 0x2 PUSH1 0x0 NOT SWAP1 SWAP5 ADD SWAP4 DUP5 MUL ADD DUP1 SLOAD PUSH1 0x1 PUSH1 0x1 PUSH1 0xA0 SHL SUB NOT AND DUP2 SSTORE PUSH1 0x1 ADD DUP3 SWAP1 SSTORE SWAP2 SWAP1 SWAP3 SSTORE PUSH1 0x1 PUSH1 0x1 PUSH1 0xA0 SHL SUB DUP8 AND DUP3 MSTORE PUSH1 0xD SWAP1 MSTORE PUSH1 0x40 DUP2 KECCAK256 DUP2 SWAP1 SSTORE PUSH1 0xF DUP1 SLOAD DUP7 SWAP3 SWAP1 PUSH2 0x28EB SWAP1 DUP5 SWAP1 PUSH2 0x39C8 JUMP JUMPDEST SWAP1 SWAP2 SSTORE POP POP PUSH1 0x1 PUSH1 0x1 PUSH1 0xA0 SHL SUB DUP1 DUP7 AND PUSH1 0x0 SWAP1 DUP2 MSTORE PUSH1 0x15 PUSH1 0x20 SWAP1 DUP2 MSTORE PUSH1 0x40 DUP1 DUP4 KECCAK256 DUP1 SLOAD PUSH1 0xFF NOT AND SWAP1 SSTORE PUSH1 0x16 SWAP1 SWAP2 MSTORE DUP1 DUP3 KECCAK256 SWAP2 SWAP1 SWAP2 SSTORE PUSH1 0xB SLOAD SWAP1 MLOAD PUSH4 0xA9059CBB PUSH1 0xE0 SHL DUP2 MSTORE SWAP2 AND SWAP1 PUSH4 0xA9059CBB SWAP1 PUSH2 0x2948 SWAP1 DUP9 SWAP1 DUP9 SWAP1 PUSH1 0x4 ADD PUSH2 0x33F9 JUMP JUMPDEST PUSH1 0x20 PUSH1 0x40 MLOAD DUP1 DUP4 SUB DUP2 PUSH1 0x0 DUP8 GAS CALL ISZERO DUP1 ISZERO PUSH2 0x2967 JUMPI RETURNDATASIZE PUSH1 0x0 DUP1 RETURNDATACOPY RETURNDATASIZE PUSH1 0x0 REVERT JUMPDEST POP POP POP POP PUSH1 0x40 MLOAD RETURNDATASIZE PUSH1 0x1F NOT PUSH1 0x1F DUP3 ADD AND DUP3 ADD DUP1 PUSH1 0x40 MSTORE POP DUP2 ADD SWAP1 PUSH2 0x298B SWAP2 SWAP1 PUSH2 0x35DD JUMP JUMPDEST PUSH2 0x29D0 JUMPI PUSH1 0x40 MLOAD PUSH3 0x461BCD PUSH1 0xE5 SHL DUP2 MSTORE PUSH1 0x20 PUSH1 0x4 DUP3 ADD MSTORE PUSH1 0x16 PUSH1 0x24 DUP3 ADD MSTORE PUSH22 0x1499599D5B99081D1C985B9CD9995C8819985A5B1959 PUSH1 0x52 SHL PUSH1 0x44 DUP3 ADD MSTORE PUSH1 0x64 ADD PUSH2 0x859 JUMP JUMPDEST DUP5 PUSH1 0x1 PUSH1 0x1 PUSH1 0xA0 SHL SUB AND PUSH32 0xBDDAEC5E3DB6D33AC9B0043F3C92CF3D081B19F8646F372EB3A68A51E273A104 DUP6 PUSH1 0x40 MLOAD PUSH2 0x2A0B SWAP2 DUP2 MSTORE PUSH1 0x20 ADD SWAP1 JUMP JUMPDEST PUSH1 0x40 MLOAD DUP1 SWAP2 SUB SWAP1 LOG2 POP POP POP POP POP JUMP JUMPDEST PUSH1 0x14 DUP2 DUP2 SLOAD DUP2 LT PUSH2 0x2A2A JUMPI PUSH1 0x0 DUP1 REVERT JUMPDEST PUSH1 0x0 SWAP2 DUP3 MSTORE PUSH1 0x20 SWAP1 SWAP2 KECCAK256 PUSH1 0x2 SWAP1 SWAP2 MUL ADD DUP1 SLOAD PUSH1 0x1 SWAP1 SWAP2 ADD SLOAD PUSH1 0x1 PUSH1 0x1 PUSH1 0xA0 SHL SUB SWAP1 SWAP2 AND SWAP2 POP DUP3 JUMP JUMPDEST PUSH2 0x2A5C DUP2 CALLER PUSH2 0x2BA7 JUMP JUMPDEST POP JUMP JUMPDEST PUSH1 0x0 PUSH2 0x2A6B DUP4 DUP4 PUSH2 0x19F9 JUMP JUMPDEST PUSH2 0x2AE9 JUMPI PUSH1 0x0 DUP4 DUP2 MSTORE PUSH1 0x20 DUP2 DUP2 MSTORE PUSH1 0x40 DUP1 DUP4 KECCAK256 PUSH1 0x1 PUSH1 0x1 PUSH1 0xA0 SHL SUB DUP7 AND DUP5 MSTORE SWAP1 SWAP2 MSTORE SWAP1 KECCAK256 DUP1 SLOAD PUSH1 0xFF NOT AND PUSH1 0x1 OR SWAP1 SSTORE PUSH2 0x2AA1 CALLER SWAP1 JUMP JUMPDEST PUSH1 0x1 PUSH1 0x1 PUSH1 0xA0 SHL SUB AND DUP3 PUSH1 0x1 PUSH1 0x1 PUSH1 0xA0 SHL SUB AND DUP5 PUSH32 0x2F8788117E7EFF1D82E926EC794901D17C78024A50270940304540A733656F0D PUSH1 0x40 MLOAD PUSH1 0x40 MLOAD DUP1 SWAP2 SUB SWAP1 LOG4 POP PUSH1 0x1 PUSH2 0x660 JUMP JUMPDEST POP PUSH1 0x0 PUSH2 0x660 JUMP JUMPDEST PUSH1 0x0 PUSH2 0x2AFD DUP4 DUP4 PUSH2 0x19F9 JUMP JUMPDEST ISZERO PUSH2 0x2AE9 JUMPI PUSH1 0x0 DUP4 DUP2 MSTORE PUSH1 0x20 DUP2 DUP2 MSTORE PUSH1 0x40 DUP1 DUP4 KECCAK256 PUSH1 0x1 PUSH1 0x1 PUSH1 0xA0 SHL SUB DUP7 AND DUP1 DUP6 MSTORE SWAP3 MSTORE DUP1 DUP4 KECCAK256 DUP1 SLOAD PUSH1 0xFF NOT AND SWAP1 SSTORE MLOAD CALLER SWAP3 DUP7 SWAP2 PUSH32 0xF6391F5C32D9C69D2A47EA670B442974B53935D1EDC7FD64EB21E047A839171B SWAP2 SWAP1 LOG4 POP PUSH1 0x1 PUSH2 0x660 JUMP JUMPDEST PUSH1 0x0 DUP3 DUP2 MSTORE PUSH1 0x20 DUP2 SWAP1 MSTORE PUSH1 0x40 DUP1 DUP3 KECCAK256 PUSH1 0x1 ADD DUP1 SLOAD SWAP1 DUP5 SWAP1 SSTORE SWAP1 MLOAD SWAP1 SWAP2 DUP4 SWAP2 DUP4 SWAP2 DUP7 SWAP2 PUSH32 0xBD79B86FFE0AB8E8776151514217CD7CACD52C909F66475C3AF44E129F0B00FF SWAP2 SWAP1 LOG4 POP POP POP JUMP JUMPDEST PUSH2 0x2BB1 DUP3 DUP3 PUSH2 0x19F9 JUMP JUMPDEST PUSH2 0x2BD2 JUMPI DUP1 DUP3 PUSH1 0x40 MLOAD PUSH4 0xE2517D3F PUSH1 0xE0 SHL DUP2 MSTORE PUSH1 0x4 ADD PUSH2 0x859 SWAP3 SWAP2 SWAP1 PUSH2 0x33F9 JUMP JUMPDEST POP POP JUMP JUMPDEST DUP3 DUP1 SLOAD DUP3 DUP3 SSTORE SWAP1 PUSH1 0x0 MSTORE PUSH1 0x20 PUSH1 0x0 KECCAK256 SWAP1 DUP2 ADD SWAP3 DUP3 ISZERO PUSH2 0x2C29 JUMPI SWAP2 PUSH1 0x20 MUL DUP3 ADD JUMPDEST DUP3 DUP2 GT ISZERO PUSH2 0x2C29 JUMPI DUP2 SLOAD PUSH1 0x1 PUSH1 0x1 PUSH1 0xA0 SHL SUB NOT AND PUSH1 0x1 PUSH1 0x1 PUSH1 0xA0 SHL SUB DUP5 CALLDATALOAD AND OR DUP3 SSTORE PUSH1 0x20 SWAP1 SWAP3 ADD SWAP2 PUSH1 0x1 SWAP1 SWAP2 ADD SWAP1 PUSH2 0x2BF6 JUMP JUMPDEST POP PUSH2 0x2C35 SWAP3 SWAP2 POP PUSH2 0x2D08 JUMP JUMPDEST POP SWAP1 JUMP JUMPDEST DUP3 DUP1 SLOAD DUP3 DUP3 SSTORE SWAP1 PUSH1 0x0 MSTORE PUSH1 0x20 PUSH1 0x0 KECCAK256 SWAP1 DUP2 ADD SWAP3 DUP3 ISZERO PUSH2 0x2C29 JUMPI SWAP2 PUSH1 0x20 MUL DUP3 ADD JUMPDEST DUP3 DUP2 GT ISZERO PUSH2 0x2C29 JUMPI DUP3 MLOAD DUP3 SSTORE SWAP2 PUSH1 0x20 ADD SWAP2 SWAP1 PUSH1 0x1 ADD SWAP1 PUSH2 0x2C59 JUMP JUMPDEST PUSH1 0x40 MLOAD DUP1 PUSH2 0x1A0 ADD PUSH1 0x40 MSTORE DUP1 PUSH1 0x0 PUSH1 0x1 PUSH1 0x1 PUSH1 0xA0 SHL SUB AND DUP2 MSTORE PUSH1 0x20 ADD PUSH1 0x60 DUP2 MSTORE PUSH1 0x20 ADD PUSH1 0x60 DUP2 MSTORE PUSH1 0x20 ADD PUSH1 0x0 PUSH1 0x4 DUP2 GT ISZERO PUSH2 0x2CB1 JUMPI PUSH2 0x2CB1 PUSH2 0x2D90 JUMP JUMPDEST DUP2 MSTORE PUSH1 0x20 ADD PUSH1 0x0 DUP2 MSTORE PUSH1 0x20 ADD PUSH1 0x0 DUP2 MSTORE PUSH1 0x20 ADD PUSH1 0x0 DUP2 MSTORE PUSH1 0x20 ADD PUSH1 0x0 DUP2 MSTORE PUSH1 0x20 ADD PUSH1 0x0 DUP2 MSTORE PUSH1 0x20 ADD PUSH1 0x0 PUSH1 0x1 PUSH1 0x1 PUSH1 0xA0 SHL SUB AND DUP2 MSTORE PUSH1 0x20 ADD PUSH1 0x0 DUP2 MSTORE PUSH1 0x20 ADD PUSH1 0x0 PUSH1 0x1 PUSH1 0x1 PUSH1 0xA0 SHL SUB AND DUP2 MSTORE PUSH1 0x20 ADD PUSH1 0x0 DUP2 MSTORE POP SWAP1 JUMP JUMPDEST JUMPDEST DUP1 DUP3 GT ISZERO PUSH2 0x2C35 JUMPI PUSH1 0x0 DUP2 SSTORE PUSH1 0x1 ADD PUSH2 0x2D09 JUMP JUMPDEST PUSH1 0x0 PUSH1 0x20 DUP3 DUP5 SUB SLT ISZERO PUSH2 0x2D2F JUMPI PUSH1 0x0 DUP1 REVERT JUMPDEST DUP2 CALLDATALOAD PUSH1 0x1 PUSH1 0x1 PUSH1 0xE0 SHL SUB NOT DUP2 AND DUP2 EQ PUSH2 0x2D47 JUMPI PUSH1 0x0 DUP1 REVERT JUMPDEST SWAP4 SWAP3 POP POP POP JUMP JUMPDEST PUSH1 0x1 PUSH1 0x1 PUSH1 0xA0 SHL SUB DUP2 AND DUP2 EQ PUSH2 0x2A5C JUMPI PUSH1 0x0 DUP1 REVERT JUMPDEST DUP1 CALLDATALOAD PUSH2 0x2D6E DUP2 PUSH2 0x2D4E JUMP JUMPDEST SWAP2 SWAP1 POP JUMP JUMPDEST PUSH1 0x0 PUSH1 0x20 DUP3 DUP5 SUB SLT ISZERO PUSH2 0x2D85 JUMPI PUSH1 0x0 DUP1 REVERT JUMPDEST DUP2 CALLDATALOAD PUSH2 0x2D47 DUP2 PUSH2 0x2D4E JUMP JUMPDEST PUSH4 0x4E487B71 PUSH1 0xE0 SHL PUSH1 0x0 MSTORE PUSH1 0x21 PUSH1 0x4 MSTORE PUSH1 0x24 PUSH1 0x0 REVERT JUMPDEST PUSH1 0x5 DUP2 LT PUSH2 0x2A5C JUMPI PUSH2 0x2A5C PUSH2 0x2D90 JUMP JUMPDEST PUSH2 0x2DBF DUP2 PUSH2 0x2DA6 JUMP JUMPDEST SWAP1 MSTORE JUMP JUMPDEST PUSH1 0x0 PUSH1 0x20 DUP1 DUP4 MSTORE PUSH1 0xE0 DUP4 ADD DUP5 MLOAD PUSH2 0x2DD9 DUP2 PUSH2 0x2DA6 JUMP JUMPDEST DUP1 DUP4 DUP7 ADD MSTORE POP PUSH1 0x1 DUP1 PUSH1 0xA0 SHL SUB DUP3 DUP7 ADD MLOAD AND PUSH1 0x40 DUP6 ADD MSTORE PUSH1 0x40 DUP6 ADD MLOAD PUSH1 0x60 DUP6 ADD MSTORE PUSH1 0x60 DUP6 ADD MLOAD PUSH1 0x80 DUP6 ADD MSTORE PUSH1 0x80 DUP6 ADD MLOAD PUSH1 0xA0 DUP6 ADD MSTORE PUSH1 0xA0 DUP6 ADD MLOAD PUSH1 0xC0 DUP1 DUP7 ADD MSTORE DUP2 DUP2 MLOAD DUP1 DUP5 MSTORE PUSH2 0x100 DUP8 ADD SWAP2 POP DUP5 DUP4 ADD SWAP4 POP PUSH1 0x0 SWAP3 POP JUMPDEST DUP1 DUP4 LT ISZERO PUSH2 0x2E50 JUMPI DUP4 MLOAD DUP3 MSTORE SWAP3 DUP5 ADD SWAP3 PUSH1 0x1 SWAP3 SWAP1 SWAP3 ADD SWAP2 SWAP1 DUP5 ADD SWAP1 PUSH2 0x2E30 JUMP JUMPDEST POP SWAP7 SWAP6 POP POP POP POP POP POP JUMP JUMPDEST PUSH1 0xA0 DUP2 ADD PUSH2 0x2E68 DUP8 PUSH2 0x2DA6 JUMP JUMPDEST SWAP6 DUP2 MSTORE PUSH1 0x1 PUSH1 0x1 PUSH1 0xA0 SHL SUB SWAP5 SWAP1 SWAP5 AND PUSH1 0x20 DUP6 ADD MSTORE PUSH1 0x40 DUP5 ADD SWAP3 SWAP1 SWAP3 MSTORE PUSH1 0x60 DUP4 ADD MSTORE PUSH1 0x80 SWAP1 SWAP2 ADD MSTORE SWAP1 JUMP JUMPDEST PUSH1 0x20 DUP2 ADD PUSH2 0x2E9F DUP4 PUSH2 0x2DA6 JUMP JUMPDEST SWAP2 SWAP1 MSTORE SWAP1 JUMP JUMPDEST PUSH1 0x0 PUSH1 0x20 DUP3 DUP5 SUB SLT ISZERO PUSH2 0x2EB7 JUMPI PUSH1 0x0 DUP1 REVERT JUMPDEST POP CALLDATALOAD SWAP2 SWAP1 POP JUMP JUMPDEST PUSH1 0x0 DUP1 PUSH1 0x40 DUP4 DUP6 SUB SLT ISZERO PUSH2 0x2ED1 JUMPI PUSH1 0x0 DUP1 REVERT JUMPDEST DUP3 CALLDATALOAD SWAP2 POP PUSH1 0x20 DUP4 ADD CALLDATALOAD PUSH2 0x2EE3 DUP2 PUSH2 0x2D4E JUMP JUMPDEST DUP1 SWAP2 POP POP SWAP3 POP SWAP3 SWAP1 POP JUMP JUMPDEST PUSH1 0x0 DUP1 PUSH1 0x20 DUP4 DUP6 SUB SLT ISZERO PUSH2 0x2F01 JUMPI PUSH1 0x0 DUP1 REVERT JUMPDEST DUP3 CALLDATALOAD PUSH8 0xFFFFFFFFFFFFFFFF DUP1 DUP3 GT ISZERO PUSH2 0x2F19 JUMPI PUSH1 0x0 DUP1 REVERT JUMPDEST DUP2 DUP6 ADD SWAP2 POP DUP6 PUSH1 0x1F DUP4 ADD SLT PUSH2 0x2F2D JUMPI PUSH1 0x0 DUP1 REVERT JUMPDEST DUP2 CALLDATALOAD DUP2 DUP2 GT ISZERO PUSH2 0x2F3C JUMPI PUSH1 0x0 DUP1 REVERT JUMPDEST DUP7 PUSH1 0x20 DUP3 PUSH1 0x5 SHL DUP6 ADD ADD GT ISZERO PUSH2 0x2F51 JUMPI PUSH1 0x0 DUP1 REVERT JUMPDEST PUSH1 0x20 SWAP3 SWAP1 SWAP3 ADD SWAP7 SWAP2 SWAP6 POP SWAP1 SWAP4 POP POP POP POP JUMP JUMPDEST PUSH1 0x0 DUP2 MLOAD DUP1 DUP5 MSTORE PUSH1 0x0 JUMPDEST DUP2 DUP2 LT ISZERO PUSH2 0x2F89 JUMPI PUSH1 0x20 DUP2 DUP6 ADD DUP2 ADD MLOAD DUP7 DUP4 ADD DUP3 ADD MSTORE ADD PUSH2 0x2F6D JUMP JUMPDEST POP PUSH1 0x0 PUSH1 0x20 DUP3 DUP7 ADD ADD MSTORE PUSH1 0x20 PUSH1 0x1F NOT PUSH1 0x1F DUP4 ADD AND DUP6 ADD ADD SWAP2 POP POP SWAP3 SWAP2 POP POP JUMP JUMPDEST PUSH1 0x20 DUP2 MSTORE PUSH1 0x0 PUSH2 0x2D47 PUSH1 0x20 DUP4 ADD DUP5 PUSH2 0x2F63 JUMP JUMPDEST PUSH1 0x0 PUSH1 0x20 DUP3 DUP5 SUB SLT ISZERO PUSH2 0x2FCE JUMPI PUSH1 0x0 DUP1 REVERT JUMPDEST DUP2 CALLDATALOAD PUSH8 0xFFFFFFFFFFFFFFFF DUP2 GT ISZERO PUSH2 0x2FE5 JUMPI PUSH1 0x0 DUP1 REVERT JUMPDEST DUP3 ADD PUSH1 0xC0 DUP2 DUP6 SUB SLT ISZERO PUSH2 0x2D47 JUMPI PUSH1 0x0 DUP1 REVERT JUMPDEST PUSH4 0x4E487B71 PUSH1 0xE0 SHL PUSH1 0x0 MSTORE PUSH1 0x41 PUSH1 0x4 MSTORE PUSH1 0x24 PUSH1 0x0 REVERT JUMPDEST PUSH1 0x40 MLOAD PUSH2 0x1A0 DUP2 ADD PUSH8 0xFFFFFFFFFFFFFFFF DUP2 GT DUP3 DUP3 LT OR ISZERO PUSH2 0x3031 JUMPI PUSH2 0x3031 PUSH2 0x2FF7 JUMP JUMPDEST PUSH1 0x40 MSTORE SWAP1 JUMP JUMPDEST PUSH1 0x40 MLOAD PUSH1 0x1F DUP3 ADD PUSH1 0x1F NOT AND DUP2 ADD PUSH8 0xFFFFFFFFFFFFFFFF DUP2 GT DUP3 DUP3 LT OR ISZERO PUSH2 0x3060 JUMPI PUSH2 0x3060 PUSH2 0x2FF7 JUMP JUMPDEST PUSH1 0x40 MSTORE SWAP2 SWAP1 POP JUMP JUMPDEST PUSH1 0x0 DUP3 PUSH1 0x1F DUP4 ADD SLT PUSH2 0x3079 JUMPI PUSH1 0x0 DUP1 REVERT JUMPDEST DUP2 CALLDATALOAD PUSH8 0xFFFFFFFFFFFFFFFF DUP2 GT ISZERO PUSH2 0x3093 JUMPI PUSH2 0x3093 PUSH2 0x2FF7 JUMP JUMPDEST PUSH2 0x30A6 PUSH1 0x1F DUP3 ADD PUSH1 0x1F NOT AND PUSH1 0x20 ADD PUSH2 0x3037 JUMP JUMPDEST DUP2 DUP2 MSTORE DUP5 PUSH1 0x20 DUP4 DUP7 ADD ADD GT ISZERO PUSH2 0x30BB JUMPI PUSH1 0x0 DUP1 REVERT JUMPDEST DUP2 PUSH1 0x20 DUP6 ADD PUSH1 0x20 DUP4 ADD CALLDATACOPY PUSH1 0x0 SWAP2 DUP2 ADD PUSH1 0x20 ADD SWAP2 SWAP1 SWAP2 MSTORE SWAP4 SWAP3 POP POP POP JUMP JUMPDEST PUSH1 0x5 DUP2 LT PUSH2 0x2A5C JUMPI PUSH1 0x0 DUP1 REVERT JUMPDEST DUP1 CALLDATALOAD PUSH2 0x2D6E DUP2 PUSH2 0x30D8 JUMP JUMPDEST DUP1 CALLDATALOAD PUSH1 0x3 DUP2 LT PUSH2 0x2D6E JUMPI PUSH1 0x0 DUP1 REVERT JUMPDEST PUSH1 0x0 DUP3 PUSH1 0x1F DUP4 ADD SLT PUSH2 0x3110 JUMPI PUSH1 0x0 DUP1 REVERT JUMPDEST DUP2 CALLDATALOAD PUSH1 0x20 PUSH8 0xFFFFFFFFFFFFFFFF DUP3 GT ISZERO PUSH2 0x312C JUMPI PUSH2 0x312C PUSH2 0x2FF7 JUMP JUMPDEST DUP2 PUSH1 0x5 SHL PUSH2 0x313B DUP3 DUP3 ADD PUSH2 0x3037 JUMP JUMPDEST SWAP3 DUP4 MSTORE DUP5 DUP2 ADD DUP3 ADD SWAP3 DUP3 DUP2 ADD SWAP1 DUP8 DUP6 GT ISZERO PUSH2 0x3155 JUMPI PUSH1 0x0 DUP1 REVERT JUMPDEST DUP4 DUP8 ADD SWAP3 POP JUMPDEST DUP5 DUP4 LT ISZERO PUSH2 0x3174 JUMPI DUP3 CALLDATALOAD DUP3 MSTORE SWAP2 DUP4 ADD SWAP2 SWAP1 DUP4 ADD SWAP1 PUSH2 0x315B JUMP JUMPDEST SWAP8 SWAP7 POP POP POP POP POP POP POP JUMP JUMPDEST PUSH1 0x0 DUP1 PUSH1 0x0 PUSH1 0x60 DUP5 DUP7 SUB SLT ISZERO PUSH2 0x3194 JUMPI PUSH1 0x0 DUP1 REVERT JUMPDEST DUP4 CALLDATALOAD PUSH8 0xFFFFFFFFFFFFFFFF DUP1 DUP3 GT ISZERO PUSH2 0x31AC JUMPI PUSH1 0x0 DUP1 REVERT JUMPDEST SWAP1 DUP6 ADD SWAP1 PUSH2 0x1A0 DUP3 DUP9 SUB SLT ISZERO PUSH2 0x31C1 JUMPI PUSH1 0x0 DUP1 REVERT JUMPDEST PUSH2 0x31C9 PUSH2 0x300D JUMP JUMPDEST DUP3 CALLDATALOAD DUP3 DUP2 GT ISZERO PUSH2 0x31D8 JUMPI PUSH1 0x0 DUP1 REVERT JUMPDEST PUSH2 0x31E4 DUP10 DUP3 DUP7 ADD PUSH2 0x3068 JUMP JUMPDEST DUP3 MSTORE POP PUSH1 0x20 DUP4 ADD CALLDATALOAD DUP3 DUP2 GT ISZERO PUSH2 0x31F9 JUMPI PUSH1 0x0 DUP1 REVERT JUMPDEST PUSH2 0x3205 DUP10 DUP3 DUP7 ADD PUSH2 0x3068 JUMP JUMPDEST PUSH1 0x20 DUP4 ADD MSTORE POP PUSH2 0x3217 PUSH1 0x40 DUP5 ADD PUSH2 0x30E5 JUMP JUMPDEST PUSH1 0x40 DUP3 ADD MSTORE PUSH2 0x3228 PUSH1 0x60 DUP5 ADD PUSH2 0x2D63 JUMP JUMPDEST PUSH1 0x60 DUP3 ADD MSTORE PUSH1 0x80 DUP4 ADD CALLDATALOAD PUSH1 0x80 DUP3 ADD MSTORE PUSH1 0xA0 DUP4 ADD CALLDATALOAD PUSH1 0xA0 DUP3 ADD MSTORE PUSH1 0xC0 DUP4 ADD CALLDATALOAD PUSH1 0xC0 DUP3 ADD MSTORE PUSH1 0xE0 DUP4 ADD CALLDATALOAD PUSH1 0xE0 DUP3 ADD MSTORE PUSH2 0x100 DUP1 DUP5 ADD CALLDATALOAD DUP2 DUP4 ADD MSTORE POP PUSH2 0x120 PUSH2 0x326F DUP2 DUP6 ADD PUSH2 0x2D63 JUMP JUMPDEST SWAP1 DUP3 ADD MSTORE PUSH2 0x140 DUP4 DUP2 ADD CALLDATALOAD SWAP1 DUP3 ADD MSTORE PUSH2 0x160 PUSH2 0x328C DUP2 DUP6 ADD PUSH2 0x30F0 JUMP JUMPDEST SWAP1 DUP3 ADD MSTORE PUSH2 0x180 DUP4 DUP2 ADD CALLDATALOAD DUP4 DUP2 GT ISZERO PUSH2 0x32A4 JUMPI PUSH1 0x0 DUP1 REVERT JUMPDEST PUSH2 0x32B0 DUP11 DUP3 DUP8 ADD PUSH2 0x30FF JUMP JUMPDEST DUP3 DUP5 ADD MSTORE POP POP DUP1 SWAP6 POP POP POP POP PUSH2 0x32C8 PUSH1 0x20 DUP6 ADD PUSH2 0x2D63 JUMP JUMPDEST SWAP2 POP PUSH2 0x32D6 PUSH1 0x40 DUP6 ADD PUSH2 0x2D63 JUMP JUMPDEST SWAP1 POP SWAP3 POP SWAP3 POP SWAP3 JUMP JUMPDEST PUSH1 0x20 DUP2 ADD PUSH1 0x3 DUP4 LT PUSH2 0x2E9F JUMPI PUSH2 0x2E9F PUSH2 0x2D90 JUMP JUMPDEST PUSH1 0x20 DUP2 MSTORE PUSH2 0x330D PUSH1 0x20 DUP3 ADD DUP4 MLOAD PUSH1 0x1 PUSH1 0x1 PUSH1 0xA0 SHL SUB AND SWAP1 MSTORE JUMP JUMPDEST PUSH1 0x0 PUSH1 0x20 DUP4 ADD MLOAD PUSH2 0x1A0 DUP1 PUSH1 0x40 DUP6 ADD MSTORE PUSH2 0x332B PUSH2 0x1C0 DUP6 ADD DUP4 PUSH2 0x2F63 JUMP JUMPDEST SWAP2 POP PUSH1 0x40 DUP6 ADD MLOAD PUSH1 0x1F NOT DUP6 DUP5 SUB ADD PUSH1 0x60 DUP7 ADD MSTORE PUSH2 0x3348 DUP4 DUP3 PUSH2 0x2F63 JUMP JUMPDEST SWAP3 POP POP PUSH1 0x60 DUP6 ADD MLOAD PUSH2 0x335D PUSH1 0x80 DUP7 ADD DUP3 PUSH2 0x2DB6 JUMP JUMPDEST POP PUSH1 0x80 DUP6 ADD MLOAD PUSH2 0x3370 PUSH1 0xA0 DUP7 ADD DUP3 PUSH2 0x2DB6 JUMP JUMPDEST POP PUSH1 0xA0 DUP6 ADD MLOAD PUSH1 0xC0 DUP6 ADD MSTORE PUSH1 0xC0 DUP6 ADD MLOAD PUSH1 0xE0 DUP6 ADD MSTORE PUSH1 0xE0 DUP6 ADD MLOAD PUSH2 0x100 DUP2 DUP2 DUP8 ADD MSTORE DUP1 DUP8 ADD MLOAD SWAP2 POP POP PUSH2 0x120 DUP2 DUP2 DUP8 ADD MSTORE DUP1 DUP8 ADD MLOAD SWAP2 POP POP PUSH2 0x140 PUSH2 0x33BF DUP2 DUP8 ADD DUP4 PUSH1 0x1 PUSH1 0x1 PUSH1 0xA0 SHL SUB AND SWAP1 MSTORE JUMP JUMPDEST DUP7 ADD MLOAD PUSH2 0x160 DUP7 DUP2 ADD SWAP2 SWAP1 SWAP2 MSTORE DUP7 ADD MLOAD SWAP1 POP PUSH2 0x180 PUSH2 0x33E8 DUP2 DUP8 ADD DUP4 PUSH1 0x1 PUSH1 0x1 PUSH1 0xA0 SHL SUB AND SWAP1 MSTORE JUMP JUMPDEST SWAP6 SWAP1 SWAP6 ADD MLOAD SWAP4 ADD SWAP3 SWAP1 SWAP3 MSTORE POP SWAP2 SWAP1 POP JUMP JUMPDEST PUSH1 0x1 PUSH1 0x1 PUSH1 0xA0 SHL SUB SWAP3 SWAP1 SWAP3 AND DUP3 MSTORE PUSH1 0x20 DUP3 ADD MSTORE PUSH1 0x40 ADD SWAP1 JUMP JUMPDEST PUSH1 0x20 DUP1 DUP3 MSTORE PUSH1 0x10 SWAP1 DUP3 ADD MSTORE PUSH16 0x47616D65206E6F74206F6E676F696E67 PUSH1 0x80 SHL PUSH1 0x40 DUP3 ADD MSTORE PUSH1 0x60 ADD SWAP1 JUMP JUMPDEST PUSH4 0x4E487B71 PUSH1 0xE0 SHL PUSH1 0x0 MSTORE PUSH1 0x32 PUSH1 0x4 MSTORE PUSH1 0x24 PUSH1 0x0 REVERT JUMPDEST PUSH1 0x20 DUP1 DUP3 MSTORE DUP2 DUP2 ADD DUP4 SWAP1 MSTORE PUSH1 0x0 SWAP1 DUP5 PUSH1 0x40 DUP5 ADD DUP4 JUMPDEST DUP7 DUP2 LT ISZERO PUSH2 0x2E50 JUMPI DUP3 CALLDATALOAD PUSH2 0x347A DUP2 PUSH2 0x2D4E JUMP JUMPDEST PUSH1 0x1 PUSH1 0x1 PUSH1 0xA0 SHL SUB AND DUP3 MSTORE SWAP2 DUP4 ADD SWAP2 SWAP1 DUP4 ADD SWAP1 PUSH1 0x1 ADD PUSH2 0x3467 JUMP JUMPDEST PUSH1 0x1 DUP2 DUP2 SHR SWAP1 DUP3 AND DUP1 PUSH2 0x34A9 JUMPI PUSH1 0x7F DUP3 AND SWAP2 POP JUMPDEST PUSH1 0x20 DUP3 LT DUP2 SUB PUSH2 0x34C9 JUMPI PUSH4 0x4E487B71 PUSH1 0xE0 SHL PUSH1 0x0 MSTORE PUSH1 0x22 PUSH1 0x4 MSTORE PUSH1 0x24 PUSH1 0x0 REVERT JUMPDEST POP SWAP2 SWAP1 POP JUMP JUMPDEST PUSH1 0x0 PUSH1 0x20 DUP3 DUP5 SUB SLT ISZERO PUSH2 0x34E1 JUMPI PUSH1 0x0 DUP1 REVERT JUMPDEST DUP2 CALLDATALOAD PUSH2 0x2D47 DUP2 PUSH2 0x30D8 JUMP JUMPDEST DUP2 DUP4 MSTORE PUSH1 0x0 PUSH1 0x1 PUSH1 0x1 PUSH1 0xFB SHL SUB DUP4 GT ISZERO PUSH2 0x3505 JUMPI PUSH1 0x0 DUP1 REVERT JUMPDEST DUP3 PUSH1 0x5 SHL DUP1 DUP4 PUSH1 0x20 DUP8 ADD CALLDATACOPY SWAP4 SWAP1 SWAP4 ADD PUSH1 0x20 ADD SWAP4 SWAP3 POP POP POP JUMP JUMPDEST PUSH1 0x20 DUP2 MSTORE PUSH1 0x0 DUP3 CALLDATALOAD PUSH2 0x352F DUP2 PUSH2 0x30D8 JUMP JUMPDEST PUSH2 0x3538 DUP2 PUSH2 0x2DA6 JUMP JUMPDEST DUP1 PUSH1 0x20 DUP5 ADD MSTORE POP PUSH1 0x20 DUP4 ADD CALLDATALOAD PUSH2 0x354D DUP2 PUSH2 0x2D4E JUMP JUMPDEST PUSH1 0x1 DUP1 PUSH1 0xA0 SHL SUB DUP2 AND PUSH1 0x40 DUP5 ADD MSTORE POP PUSH1 0x40 DUP4 ADD CALLDATALOAD PUSH1 0x60 DUP4 ADD MSTORE PUSH1 0x60 DUP4 ADD CALLDATALOAD PUSH1 0x80 DUP4 ADD MSTORE PUSH1 0x80 DUP4 ADD CALLDATALOAD PUSH1 0xA0 DUP4 ADD MSTORE PUSH1 0xA0 DUP4 ADD CALLDATALOAD PUSH1 0x1E NOT DUP5 CALLDATASIZE SUB ADD DUP2 SLT PUSH2 0x3591 JUMPI PUSH1 0x0 DUP1 REVERT JUMPDEST DUP4 ADD PUSH1 0x20 DUP2 ADD SWAP1 CALLDATALOAD PUSH8 0xFFFFFFFFFFFFFFFF DUP2 GT ISZERO PUSH2 0x35AE JUMPI PUSH1 0x0 DUP1 REVERT JUMPDEST DUP1 PUSH1 0x5 SHL CALLDATASIZE SUB DUP3 SGT ISZERO PUSH2 0x35C0 JUMPI PUSH1 0x0 DUP1 REVERT JUMPDEST PUSH1 0xC0 DUP1 DUP6 ADD MSTORE PUSH2 0x35D4 PUSH1 0xE0 DUP6 ADD DUP3 DUP5 PUSH2 0x34EC JUMP JUMPDEST SWAP6 SWAP5 POP POP POP POP POP JUMP JUMPDEST PUSH1 0x0 PUSH1 0x20 DUP3 DUP5 SUB SLT ISZERO PUSH2 0x35EF JUMPI PUSH1 0x0 DUP1 REVERT JUMPDEST DUP2 MLOAD DUP1 ISZERO ISZERO DUP2 EQ PUSH2 0x2D47 JUMPI PUSH1 0x0 DUP1 REVERT JUMPDEST PUSH1 0x0 DUP1 DUP4 CALLDATALOAD PUSH1 0x1E NOT DUP5 CALLDATASIZE SUB ADD DUP2 SLT PUSH2 0x3616 JUMPI PUSH1 0x0 DUP1 REVERT JUMPDEST DUP4 ADD DUP1 CALLDATALOAD SWAP2 POP PUSH8 0xFFFFFFFFFFFFFFFF DUP3 GT ISZERO PUSH2 0x3631 JUMPI PUSH1 0x0 DUP1 REVERT JUMPDEST PUSH1 0x20 ADD SWAP2 POP PUSH1 0x5 DUP2 SWAP1 SHL CALLDATASIZE SUB DUP3 SGT ISZERO PUSH2 0x3649 JUMPI PUSH1 0x0 DUP1 REVERT JUMPDEST SWAP3 POP SWAP3 SWAP1 POP JUMP JUMPDEST PUSH4 0x4E487B71 PUSH1 0xE0 SHL PUSH1 0x0 MSTORE PUSH1 0x11 PUSH1 0x4 MSTORE PUSH1 0x24 PUSH1 0x0 REVERT JUMPDEST DUP1 DUP3 MUL DUP2 ISZERO DUP3 DUP3 DIV DUP5 EQ OR PUSH2 0x660 JUMPI PUSH2 0x660 PUSH2 0x3650 JUMP JUMPDEST JUMPDEST DUP2 DUP2 LT ISZERO PUSH2 0x2BD2 JUMPI PUSH1 0x0 DUP2 SSTORE PUSH1 0x1 ADD PUSH2 0x367E JUMP JUMPDEST PUSH8 0xFFFFFFFFFFFFFFFF DUP4 GT ISZERO PUSH2 0x36AA JUMPI PUSH2 0x36AA PUSH2 0x2FF7 JUMP JUMPDEST PUSH9 0x10000000000000000 DUP4 GT ISZERO PUSH2 0x36C3 JUMPI PUSH2 0x36C3 PUSH2 0x2FF7 JUMP JUMPDEST DUP1 SLOAD DUP4 DUP3 SSTORE DUP1 DUP5 LT ISZERO PUSH2 0x36E9 JUMPI DUP2 PUSH1 0x0 MSTORE PUSH1 0x20 PUSH1 0x0 KECCAK256 PUSH2 0x36E7 DUP3 DUP3 ADD DUP7 DUP4 ADD PUSH2 0x367D JUMP JUMPDEST POP JUMPDEST POP DUP2 DUP2 PUSH1 0x0 MSTORE PUSH1 0x20 DUP1 PUSH1 0x0 KECCAK256 PUSH1 0x0 JUMPDEST DUP7 DUP2 LT ISZERO PUSH2 0x3712 JUMPI DUP4 CALLDATALOAD DUP3 DUP3 ADD SSTORE SWAP3 DUP3 ADD SWAP3 PUSH1 0x1 ADD PUSH2 0x36F8 JUMP JUMPDEST POP POP POP POP POP POP POP JUMP JUMPDEST DUP2 CALLDATALOAD PUSH2 0x3726 DUP2 PUSH2 0x30D8 JUMP JUMPDEST PUSH2 0x372F DUP2 PUSH2 0x2DA6 JUMP JUMPDEST DUP2 SLOAD PUSH1 0xFF DUP3 AND SWAP2 POP DUP2 PUSH1 0xFF NOT DUP3 AND OR DUP4 SSTORE PUSH1 0x20 DUP5 ADD CALLDATALOAD PUSH2 0x374E DUP2 PUSH2 0x2D4E JUMP JUMPDEST PUSH1 0x1 PUSH1 0x1 PUSH1 0xA8 SHL SUB NOT SWAP2 SWAP1 SWAP2 AND SWAP1 SWAP2 OR PUSH1 0x8 SWAP2 SWAP1 SWAP2 SHL PUSH2 0x100 PUSH1 0x1 PUSH1 0xA8 SHL SUB AND OR DUP2 SSTORE PUSH1 0x40 DUP3 ADD CALLDATALOAD PUSH1 0x1 DUP3 ADD SSTORE PUSH1 0x60 DUP3 ADD CALLDATALOAD PUSH1 0x2 DUP3 ADD SSTORE PUSH1 0x80 DUP3 ADD CALLDATALOAD PUSH1 0x3 DUP3 ADD SSTORE PUSH2 0x379C PUSH1 0xA0 DUP4 ADD DUP4 PUSH2 0x35FF JUMP JUMPDEST PUSH2 0x7CD DUP2 DUP4 PUSH1 0x4 DUP7 ADD PUSH2 0x3692 JUMP JUMPDEST PUSH1 0x1F DUP3 GT ISZERO PUSH2 0x806 JUMPI DUP1 PUSH1 0x0 MSTORE PUSH1 0x20 PUSH1 0x0 KECCAK256 PUSH1 0x1F DUP5 ADD PUSH1 0x5 SHR DUP2 ADD PUSH1 0x20 DUP6 LT ISZERO PUSH2 0x37D1 JUMPI POP DUP1 JUMPDEST PUSH2 0x37E3 PUSH1 0x1F DUP6 ADD PUSH1 0x5 SHR DUP4 ADD DUP3 PUSH2 0x367D JUMP JUMPDEST POP POP POP POP POP JUMP JUMPDEST DUP2 MLOAD PUSH8 0xFFFFFFFFFFFFFFFF DUP2 GT ISZERO PUSH2 0x3804 JUMPI PUSH2 0x3804 PUSH2 0x2FF7 JUMP JUMPDEST PUSH2 0x3818 DUP2 PUSH2 0x3812 DUP5 SLOAD PUSH2 0x3495 JUMP JUMPDEST DUP5 PUSH2 0x37AA JUMP JUMPDEST PUSH1 0x20 DUP1 PUSH1 0x1F DUP4 GT PUSH1 0x1 DUP2 EQ PUSH2 0x384D JUMPI PUSH1 0x0 DUP5 ISZERO PUSH2 0x3835 JUMPI POP DUP6 DUP4 ADD MLOAD JUMPDEST PUSH1 0x0 NOT PUSH1 0x3 DUP7 SWAP1 SHL SHR NOT AND PUSH1 0x1 DUP6 SWAP1 SHL OR DUP6 SSTORE PUSH2 0x38A6 JUMP JUMPDEST PUSH1 0x0 DUP6 DUP2 MSTORE PUSH1 0x20 DUP2 KECCAK256 PUSH1 0x1F NOT DUP7 AND SWAP2 JUMPDEST DUP3 DUP2 LT ISZERO PUSH2 0x387C JUMPI DUP9 DUP7 ADD MLOAD DUP3 SSTORE SWAP5 DUP5 ADD SWAP5 PUSH1 0x1 SWAP1 SWAP2 ADD SWAP1 DUP5 ADD PUSH2 0x385D JUMP JUMPDEST POP DUP6 DUP3 LT ISZERO PUSH2 0x389A JUMPI DUP8 DUP6 ADD MLOAD PUSH1 0x0 NOT PUSH1 0x3 DUP9 SWAP1 SHL PUSH1 0xF8 AND SHR NOT AND DUP2 SSTORE JUMPDEST POP POP PUSH1 0x1 DUP5 PUSH1 0x1 SHL ADD DUP6 SSTORE JUMPDEST POP POP POP POP POP POP JUMP JUMPDEST DUP1 DUP3 ADD DUP1 DUP3 GT ISZERO PUSH2 0x660 JUMPI PUSH2 0x660 PUSH2 0x3650 JUMP JUMPDEST PUSH1 0x1 DUP1 PUSH1 0xA0 SHL SUB DUP4 AND DUP2 MSTORE PUSH1 0x0 PUSH1 0x20 PUSH1 0x40 PUSH1 0x20 DUP5 ADD MSTORE PUSH1 0x0 DUP5 SLOAD PUSH2 0x38E4 DUP2 PUSH2 0x3495 JUMP JUMPDEST DUP1 PUSH1 0x40 DUP8 ADD MSTORE PUSH1 0x60 PUSH1 0x1 DUP1 DUP5 AND PUSH1 0x0 DUP2 EQ PUSH2 0x3906 JUMPI PUSH1 0x1 DUP2 EQ PUSH2 0x3922 JUMPI PUSH2 0x3952 JUMP JUMPDEST PUSH1 0xFF NOT DUP6 AND PUSH1 0x60 DUP11 ADD MSTORE PUSH1 0x60 DUP5 ISZERO ISZERO PUSH1 0x5 SHL DUP11 ADD ADD SWAP6 POP PUSH2 0x3952 JUMP JUMPDEST DUP10 PUSH1 0x0 MSTORE PUSH1 0x20 PUSH1 0x0 KECCAK256 PUSH1 0x0 JUMPDEST DUP6 DUP2 LT ISZERO PUSH2 0x3949 JUMPI DUP2 SLOAD DUP12 DUP3 ADD DUP7 ADD MSTORE SWAP1 DUP4 ADD SWAP1 DUP9 ADD PUSH2 0x392E JUMP JUMPDEST DUP11 ADD PUSH1 0x60 ADD SWAP7 POP POP JUMPDEST POP SWAP4 SWAP10 SWAP9 POP POP POP POP POP POP POP POP POP JUMP JUMPDEST PUSH1 0x20 DUP1 DUP3 MSTORE PUSH1 0xF SWAP1 DUP3 ADD MSTORE PUSH15 0x151C985B9CD9995C8819985A5B1959 PUSH1 0x8A SHL PUSH1 0x40 DUP3 ADD MSTORE PUSH1 0x60 ADD SWAP1 JUMP JUMPDEST PUSH4 0x4E487B71 PUSH1 0xE0 SHL PUSH1 0x0 MSTORE PUSH1 0x12 PUSH1 0x4 MSTORE PUSH1 0x24 PUSH1 0x0 REVERT JUMPDEST PUSH1 0x0 DUP3 PUSH2 0x39AF JUMPI PUSH2 0x39AF PUSH2 0x398A JUMP JUMPDEST POP DIV SWAP1 JUMP JUMPDEST PUSH1 0x0 DUP3 PUSH2 0x39C3 JUMPI PUSH2 0x39C3 PUSH2 0x398A JUMP JUMPDEST POP MOD SWAP1 JUMP JUMPDEST DUP2 DUP2 SUB DUP2 DUP2 GT ISZERO PUSH2 0x660 JUMPI PUSH2 0x660 PUSH2 0x3650 JUMP JUMPDEST PUSH4 0x4E487B71 PUSH1 0xE0 SHL PUSH1 0x0 MSTORE PUSH1 0x31 PUSH1 0x4 MSTORE PUSH1 0x24 PUSH1 0x0 REVERT INVALID DUP3 DUP7 CALLVALUE 0xD9 MCOPY PUSH24 0x5031B9FF576B159A8509D3053581A8C9C4D7D86899E0AFCD DUP9 0x2F LOG2 PUSH5 0x6970667358 0x22 SLT KECCAK256 0xD2 CODESIZE BYTE DIV 0xA9 0xBF LOG4 0xE1 SWAP14 PUSH5 0x360EDC592D SWAP12 CALLDATALOAD 0xA6 0xD3 SWAP1 0x2E 0xE2 COINBASE 0xBF CALLVALUE PUSH25 0xB9BFA083E6764736F6C634300081800330000000000000000 "},"methodIdentifiers":{"CREATOR_ROLE()":"8aeda25a","DEFAULT_ADMIN_ROLE()":"a217fddf","cancelGame()":"d84c1ac9","cancelRegistration()":"e5a078a7","claimPrize()":"70740ac9","claimRefund()":"b5545a3c","creator()":"02d05d3f","description()":"7284e416","distributePrize()":"77b6e504","distributionType()":"84da242d","entryFee()":"072ea61c","feeToken()":"647846a5","gameRegistry()":"da090755","gameResults(address)":"1d75d7c2","gameStartTime()":"0252b995","gameType()":"bbdc02db","getGameData()":"af4e99de","getPlayerGameResult(address)":"140d6b94","getPlayerScore(address)":"e085c539","getRoleAdmin(bytes32)":"248a9ca3","grantRole(bytes32,address)":"2f2ff15d","hasRole(bytes32,address)":"91d14854","initialize((string,string,uint8,address,uint256,uint256,uint256,uint256,uint256,address,uint256,uint8,uint256[]),address,address)":"6aba6c19","isJoined(address)":"5e6a43f5","joinGame()":"d4f77b1c","levelManager()":"2a8d950c","maxPlayers()":"4c2412a2","minPlayers()":"2770c895","players(uint256)":"f71d96cb","prizePool()":"719ce73e","prizeToClaimsAmount(address)":"b062e950","prizeToken()":"d0ef024a","rankPrizes(uint256)":"8233e433","registrationEndTime()":"dff7d2c7","renounceRole(bytes32,address)":"36568abe","revokeRole(bytes32,address)":"d547741f","setGameRegistry(address)":"dd898b2f","setWinners(address[])":"445e6b39","startGame()":"d65ab5f2","status()":"200d2ed2","submitGameResult((uint8,address,uint256,uint256,bytes32,uint256[]))":"554c925c","submitScore(uint256)":"aff0b297","supportsInterface(bytes4)":"01ffc9a7","title()":"4a79d50c","winners(uint256)":"a2fb1175"}}}}}