{"contracts/GameRegistry.sol":{"GameRegistry":{"abi":[{"inputs":[],"stateMutability":"nonpayable","type":"constructor"},{"inputs":[],"name":"AccessControlBadConfirmation","type":"error"},{"inputs":[{"internalType":"address","name":"account","type":"address"},{"internalType":"bytes32","name":"neededRole","type":"bytes32"}],"name":"AccessControlUnauthorizedAccount","type":"error"},{"anonymous":false,"inputs":[{"indexed":false,"internalType":"enum Types.GameType","name":"gameType","type":"uint8"}],"name":"GameDisabled","type":"event"},{"anonymous":false,"inputs":[{"indexed":false,"internalType":"enum Types.GameType","name":"gameType","type":"uint8"}],"name":"GameEnabled","type":"event"},{"anonymous":false,"inputs":[{"indexed":true,"internalType":"address","name":"player","type":"address"},{"indexed":false,"internalType":"enum Types.GameType","name":"gameType","type":"uint8"},{"indexed":false,"internalType":"uint256","name":"score","type":"uint256"},{"indexed":false,"internalType":"bytes32","name":"gameHash","type":"bytes32"}],"name":"GameResultVerified","type":"event"},{"anonymous":false,"inputs":[{"indexed":false,"internalType":"enum Types.GameType","name":"gameType","type":"uint8"},{"indexed":false,"internalType":"uint256","name":"maxScore","type":"uint256"}],"name":"MaxScoreUpdated","type":"event"},{"anonymous":false,"inputs":[{"indexed":true,"internalType":"bytes32","name":"role","type":"bytes32"},{"indexed":true,"internalType":"bytes32","name":"previousAdminRole","type":"bytes32"},{"indexed":true,"internalType":"bytes32","name":"newAdminRole","type":"bytes32"}],"name":"RoleAdminChanged","type":"event"},{"anonymous":false,"inputs":[{"indexed":true,"internalType":"bytes32","name":"role","type":"bytes32"},{"indexed":true,"internalType":"address","name":"account","type":"address"},{"indexed":true,"internalType":"address","name":"sender","type":"address"}],"name":"RoleGranted","type":"event"},{"anonymous":false,"inputs":[{"indexed":true,"internalType":"bytes32","name":"role","type":"bytes32"},{"indexed":true,"internalType":"address","name":"account","type":"address"},{"indexed":true,"internalType":"address","name":"sender","type":"address"}],"name":"RoleRevoked","type":"event"},{"inputs":[],"name":"DEFAULT_ADMIN_ROLE","outputs":[{"internalType":"bytes32","name":"","type":"bytes32"}],"stateMutability":"view","type":"function"},{"inputs":[],"name":"GAME_ADMIN_ROLE","outputs":[{"internalType":"bytes32","name":"","type":"bytes32"}],"stateMutability":"view","type":"function"},{"inputs":[],"name":"MIN_GAME_INTERVAL","outputs":[{"internalType":"uint256","name":"","type":"uint256"}],"stateMutability":"view","type":"function"},{"inputs":[{"internalType":"address","name":"player","type":"address"},{"internalType":"enum Types.GameType","name":"gameType","type":"uint8"}],"name":"canPlayerPlay","outputs":[{"internalType":"bool","name":"","type":"bool"}],"stateMutability":"view","type":"function"},{"inputs":[{"components":[{"internalType":"enum Types.GameType","name":"gameType","type":"uint8"},{"internalType":"address","name":"player","type":"address"},{"internalType":"uint256","name":"score","type":"uint256"},{"internalType":"uint256","name":"timestamp","type":"uint256"},{"internalType":"bytes32","name":"gameHash","type":"bytes32"},{"internalType":"uint256[]","name":"metadata","type":"uint256[]"}],"internalType":"struct Types.GameResult","name":"result","type":"tuple"}],"name":"computeGameHash","outputs":[{"internalType":"bytes32","name":"","type":"bytes32"}],"stateMutability":"pure","type":"function"},{"inputs":[{"internalType":"enum Types.GameType","name":"gameType","type":"uint8"}],"name":"disableGame","outputs":[],"stateMutability":"nonpayable","type":"function"},{"inputs":[{"internalType":"enum Types.GameType","name":"gameType","type":"uint8"}],"name":"enableGame","outputs":[],"stateMutability":"nonpayable","type":"function"},{"inputs":[{"internalType":"enum Types.GameType","name":"","type":"uint8"}],"name":"gameEnabled","outputs":[{"internalType":"bool","name":"","type":"bool"}],"stateMutability":"view","type":"function"},{"inputs":[{"internalType":"enum Types.GameType","name":"gameType","type":"uint8"}],"name":"getGameInfo","outputs":[{"internalType":"bool","name":"enabled","type":"bool"},{"internalType":"uint256","name":"maxScore","type":"uint256"}],"stateMutability":"view","type":"function"},{"inputs":[{"internalType":"bytes32","name":"role","type":"bytes32"}],"name":"getRoleAdmin","outputs":[{"internalType":"bytes32","name":"","type":"bytes32"}],"stateMutability":"view","type":"function"},{"inputs":[{"internalType":"bytes32","name":"role","type":"bytes32"},{"internalType":"address","name":"account","type":"address"}],"name":"grantRole","outputs":[],"stateMutability":"nonpayable","type":"function"},{"inputs":[{"internalType":"bytes32","name":"role","type":"bytes32"},{"internalType":"address","name":"account","type":"address"}],"name":"hasRole","outputs":[{"internalType":"bool","name":"","type":"bool"}],"stateMutability":"view","type":"function"},{"inputs":[{"internalType":"address","name":"","type":"address"},{"internalType":"enum Types.GameType","name":"","type":"uint8"}],"name":"lastPlayedTime","outputs":[{"internalType":"uint256","name":"","type":"uint256"}],"stateMutability":"view","type":"function"},{"inputs":[{"internalType":"enum Types.GameType","name":"","type":"uint8"}],"name":"maxScores","outputs":[{"internalType":"uint256","name":"","type":"uint256"}],"stateMutability":"view","type":"function"},{"inputs":[{"internalType":"bytes32","name":"role","type":"bytes32"},{"internalType":"address","name":"callerConfirmation","type":"address"}],"name":"renounceRole","outputs":[],"stateMutability":"nonpayable","type":"function"},{"inputs":[{"internalType":"bytes32","name":"role","type":"bytes32"},{"internalType":"address","name":"account","type":"address"}],"name":"revokeRole","outputs":[],"stateMutability":"nonpayable","type":"function"},{"inputs":[{"internalType":"bytes4","name":"interfaceId","type":"bytes4"}],"name":"supportsInterface","outputs":[{"internalType":"bool","name":"","type":"bool"}],"stateMutability":"view","type":"function"},{"inputs":[{"internalType":"enum Types.GameType","name":"gameType","type":"uint8"},{"internalType":"uint256","name":"newMaxScore","type":"uint256"}],"name":"updateMaxScore","outputs":[],"stateMutability":"nonpayable","type":"function"},{"inputs":[{"components":[{"internalType":"enum Types.GameType","name":"gameType","type":"uint8"},{"internalType":"address","name":"player","type":"address"},{"internalType":"uint256","name":"score","type":"uint256"},{"internalType":"uint256","name":"timestamp","type":"uint256"},{"internalType":"bytes32","name":"gameHash","type":"bytes32"},{"internalType":"uint256[]","name":"metadata","type":"uint256[]"}],"internalType":"struct Types.GameResult","name":"result","type":"tuple"}],"name":"verifyGameResult","outputs":[{"internalType":"bool","name":"","type":"bool"}],"stateMutability":"nonpayable","type":"function"}],"evm":{"bytecode":{"linkReferences":{},"object":"60806040523480156200001157600080fd5b506200001f60003362000269565b506200004c7f9b7946abd96dccbe6cfc6cc2c13300ab429d93e16fa72dc459eeccda73817f083362000269565b506200007a7f9b7946abd96dccbe6cfc6cc2c13300ab429d93e16fa72dc459eeccda73817f08600062000318565b7fcc69885fda6bcc1a4ace058b4a62bf5e179ea78fd58a1ccd71c22cc9b688792f8054600160ff1991821681179092557fd9d16d34ffb15ba3a3d852f0d403e2ce1d691fb54de27ac87cd2f993f3ec330f80548216831790557f7dfe757ecd65cbd7922a9c0161e935dd7fdbcc0e999689c7d31633896b1fc60b80548216831790557fedc95719e9a3b28dd8e80877cb5880a9be7de1a13fc8b05e7999683b6b567643805490911682179055600360205260647fa15bc60c955c405d20d9149c709e2460f1c2d9a497496a7f46004d1772c3054c8190557fc3a24b0501bd2c13a7e57f2db4369ec4c223447539fc0724a9d55ac4a06ebd4d5560327fcbc4e5fb02c3d1de23a9f1e014b4d2ee5aeaea9505df5e855c9210bf472495af5560046000526127107f83ec6a1f0257b830b5e016457c9cf1435391bf56cc98f369a58a54fe937724655560405160008051602062001a7b83398151915291620001e09162000363565b60405180910390a160008051602062001a7b833981519152600260405162000209919062000363565b60405180910390a160008051602062001a7b833981519152600360405162000232919062000363565b60405180910390a160008051602062001a7b83398151915260046040516200025b919062000363565b60405180910390a16200038c565b6000828152602081815260408083206001600160a01b038516845290915281205460ff166200030e576000838152602081815260408083206001600160a01b03861684529091529020805460ff19166001179055620002c53390565b6001600160a01b0316826001600160a01b0316847f2f8788117e7eff1d82e926ec794901d17c78024a50270940304540a733656f0d60405160405180910390a450600162000312565b5060005b92915050565b600082815260208190526040808220600101805490849055905190918391839186917fbd79b86ffe0ab8e8776151514217cd7cacd52c909f66475c3af44e129f0b00ff9190a4505050565b60208101600583106200038657634e487b7160e01b600052602160045260246000fd5b91905290565b6116df806200039c6000396000f3fe608060405234801561001057600080fd5b50600436106101215760003560e01c806353c2a81e116100ad578063c54a41eb11610071578063c54a41eb14610279578063ce863cd8146102a4578063d547741f146102ce578063e84b2780146102e1578063f010b541146102e957600080fd5b806353c2a81e1461022357806391d1485414610236578063a217fddf14610249578063be22d27d14610251578063c2c9a8841461026657600080fd5b806330e10425116100f457806330e10425146101a757806335c34ae9146101c757806336568abe146101da5780634ac0326e146101ed5780635026f42b1461021057600080fd5b806301ffc9a714610126578063248a9ca31461014e5780632b446be91461017f5780632f2ff15d14610192575b600080fd5b61013961013436600461133b565b6102fc565b60405190151581526020015b60405180910390f35b61017161015c36600461136c565b60009081526020819052604090206001015490565b604051908152602001610145565b61013961018d3660046113b0565b610333565b6101a56101a03660046113e3565b61039a565b005b6101716101b5366004611406565b60036020526000908152604090205481565b6101396101d5366004611421565b6103c5565b6101a56101e83660046113e3565b6107f5565b6101396101fb366004611406565b60016020526000908152604090205460ff1681565b61017161021e366004611421565b61082d565b6101a561023136600461145c565b610895565b6101396102443660046113e3565b610925565b610171600081565b61017160008051602061168a83398151915281565b6101a5610274366004611406565b61094e565b6101716102873660046113b0565b600260209081526000928352604080842090915290825290205481565b6102b76102b2366004611406565b610a43565b604080519215158352602083019190915201610145565b6101a56102dc3660046113e3565b610ac2565b610171600a81565b6101a56102f7366004611406565b610ae7565b60006001600160e01b03198216637965db0b60e01b148061032d57506301ffc9a760e01b6001600160e01b03198316145b92915050565b6001600160a01b038216600090815260026020526040812081908184600481111561036057610360611486565b600481111561037157610371611486565b8152602001908152602001600020549050600a8161038f91906114b2565b421015949350505050565b6000828152602081905260409020600101546103b581610b7c565b6103bf8383610b89565b50505050565b60006001816103d76020850185611406565b60048111156103e8576103e8611486565b60048111156103f9576103f9611486565b815260208101919091526040016000205460ff166104565760405162461bcd60e51b815260206004820152601560248201527411d85b59481d1e5c19481b9bdd08195b98589b1959605a1b60448201526064015b60405180910390fd5b60006104656020840184611406565b600481111561047657610476611486565b036104b75760405162461bcd60e51b8152602060048201526011602482015270496e76616c69642067616d65207479706560781b604482015260640161044d565b60006002816104cc60408601602087016114c5565b6001600160a01b031681526020808201929092526040016000908120916104f590860186611406565b600481111561050657610506611486565b600481111561051757610517611486565b8152602001908152602001600020549050600a8161053591906114b2565b4210156105845760405162461bcd60e51b815260206004820152601860248201527f546f6f206672657175656e74207375626d697373696f6e730000000000000000604482015260640161044d565b426002600061059960408701602088016114c5565b6001600160a01b031681526020808201929092526040016000908120916105c290870187611406565b60048111156105d3576105d3611486565b60048111156105e4576105e4611486565b8152602001908152602001600020819055506003600084600001602081019061060d9190611406565b600481111561061e5761061e611486565b600481111561062f5761062f611486565b815260200190815260200160002054836040013511156106895760405162461bcd60e51b815260206004820152601560248201527453636f72652065786365656473206d6178696d756d60581b604482015260640161044d565b42836060013511156106d15760405162461bcd60e51b81526020600482015260116024820152700496e76616c69642074696d657374616d7607c1b604482015260640161044d565b6106de62015180426114e0565b836060013510156107255760405162461bcd60e51b8152602060048201526011602482015270151a5b595cdd185b5c081d1bdbc81bdb19607a1b604482015260640161044d565b60006107308461082d565b90508360800135811461077a5760405162461bcd60e51b815260206004820152601260248201527108ec2daca40d0c2e6d040dad2e6dac2e8c6d60731b604482015260640161044d565b61078384610c1b565b61079360408501602086016114c5565b6001600160a01b03167f1e9c851913c59ce225051a04a5685a51e8f1dc7f4f54fa7ab6976ec8d21f56ad6107ca6020870187611406565b866040013587608001356040516107e393929190611515565b60405180910390a25060019392505050565b6001600160a01b038116331461081e5760405163334bd91960e11b815260040160405180910390fd5b6108288282611297565b505050565b600061083c6020830183611406565b61084c60408401602085016114c5565b6040840135606085013561086360a0870187611534565b60405160200161087896959493929190611585565b604051602081830303815290604052805190602001209050919050565b60008051602061168a8339815191526108ad81610b7c565b81600360008560048111156108c4576108c4611486565b60048111156108d5576108d5611486565b8152602001908152602001600020819055507f4e15c40ee9242df13e261a3c7729bdfd091e0c966fda0f3b95b0325b52b82c298383604051610918929190611604565b60405180910390a1505050565b6000918252602082815260408084206001600160a01b0393909316845291905290205460ff1690565b60008051602061168a83398151915261096681610b7c565b600082600481111561097a5761097a611486565b036109bb5760405162461bcd60e51b8152602060048201526011602482015270496e76616c69642067616d65207479706560781b604482015260640161044d565b60018060008460048111156109d2576109d2611486565b60048111156109e3576109e3611486565b815260200190815260200160002060006101000a81548160ff0219169083151502179055507f8a4c3e88784cd877ada8be9f43efc736c434652cbd9ac3fc2ca00795bd5da9e782604051610a37919061161f565b60405180910390a15050565b60008060016000846004811115610a5c57610a5c611486565b6004811115610a6d57610a6d611486565b8152602081019190915260400160009081205460ff1690600390856004811115610a9957610a99611486565b6004811115610aaa57610aaa611486565b81526020019081526020016000205491509150915091565b600082815260208190526040902060010154610add81610b7c565b6103bf8383611297565b60008051602061168a833981519152610aff81610b7c565b600060016000846004811115610b1757610b17611486565b6004811115610b2857610b28611486565b815260200190815260200160002060006101000a81548160ff0219169083151502179055507ff57acfb7bbc2a8ccb2061f1e6f82ad5fd4bed847d0fcb39d9f40a0ab0eda108a82604051610a37919061161f565b610b868133611302565b50565b6000610b958383610925565b610c13576000838152602081815260408083206001600160a01b03861684529091529020805460ff19166001179055610bcb3390565b6001600160a01b0316826001600160a01b0316847f2f8788117e7eff1d82e926ec794901d17c78024a50270940304540a733656f0d60405160405180910390a450600161032d565b50600061032d565b6001610c2a6020830183611406565b6004811115610c3b57610c3b611486565b03610d5a576001610c4f60a0830183611534565b90501015610c6f5760405162461bcd60e51b815260040161044d9061162d565b6000610c7e60a0830183611534565b6000818110610c8f57610c8f61165c565b905060200201359050600081118015610ca9575060058111155b610ced5760405162461bcd60e51b8152602060048201526015602482015274125b9d985b1a5908185d1d195b5c1d0818dbdd5b9d605a1b604482015260640161044d565b6000610cfa8260066114e0565b610d05906014611672565b9050808360400135146108285760405162461bcd60e51b815260206004820152601d60248201527f53636f726520646f6573206e6f74206d6174636820617474656d707473000000604482015260640161044d565b6002610d696020830183611406565b6004811115610d7a57610d7a611486565b03610f0a576003610d8e60a0830183611534565b90501015610dae5760405162461bcd60e51b815260040161044d9061162d565b6000610dbd60a0830183611534565b6000818110610dce57610dce61165c565b9050602002013590506000828060a00190610de99190611534565b6001818110610dfa57610dfa61165c565b9050602002013590506000838060a00190610e159190611534565b6002818110610e2657610e2661165c565b905060200201359050808284610e3c91906114b2565b610e4691906114b2565b600a14610e8c5760405162461bcd60e51b8152602060048201526014602482015273496e76616c696420746f74616c20726f756e647360601b604482015260640161044d565b6000610e99836005611672565b610ea485600a611672565b610eae91906114b2565b905080856040013514610f035760405162461bcd60e51b815260206004820152601c60248201527f53636f726520646f6573206e6f74206d6174636820726573756c747300000000604482015260640161044d565b5050505050565b6003610f196020830183611406565b6004811115610f2a57610f2a611486565b03611021576001610f3e60a0830183611534565b90501015610f5e5760405162461bcd60e51b815260040161044d9061162d565b6000610f6d60a0830183611534565b6000818110610f7e57610f7e61165c565b9050602002013590506032811115610fca5760405162461bcd60e51b815260206004820152600f60248201526e546f6f206d616e7920636c69636b7360881b604482015260640161044d565b8082604001351461101d5760405162461bcd60e51b815260206004820181905260248201527f53636f726520646f6573206e6f74206d6174636820636c69636b20636f756e74604482015260640161044d565b5050565b60046110306020830183611406565b600481111561104157611041611486565b03610b8657600361105560a0830183611534565b905010156110755760405162461bcd60e51b815260040161044d9061162d565b600061108460a0830183611534565b60008181106110955761109561165c565b9050602002013590506000828060a001906110b09190611534565b60018181106110c1576110c161165c565b9050602002013590506000838060a001906110dc9190611534565b60028181106110ed576110ed61165c565b90506020020135905060018210156111375760405162461bcd60e51b815260206004820152600d60248201526c125b9d985b1a59081b195d995b609a1b604482015260640161044d565b600181101561117c5760405162461bcd60e51b8152602060048201526011602482015270496e76616c6964206d617820636f6d626f60781b604482015260640161044d565b600061118a8361012c611672565b9050808410156111dc5760405162461bcd60e51b815260206004820152601760248201527f53636f726520746f6f206c6f7720666f72206c6576656c000000000000000000604482015260640161044d565b60006111ea846103e8611672565b90508085111561123c5760405162461bcd60e51b815260206004820152601860248201527f53636f726520746f6f206869676820666f72206c6576656c0000000000000000604482015260640161044d565b8486604001351461128f5760405162461bcd60e51b815260206004820152601c60248201527f53636f7265206d69736d617463682077697468206d6574616461746100000000604482015260640161044d565b505050505050565b60006112a38383610925565b15610c13576000838152602081815260408083206001600160a01b0386168085529252808320805460ff1916905551339286917ff6391f5c32d9c69d2a47ea670b442974b53935d1edc7fd64eb21e047a839171b9190a450600161032d565b61130c8282610925565b61101d5760405163e2517d3f60e01b81526001600160a01b03821660048201526024810183905260440161044d565b60006020828403121561134d57600080fd5b81356001600160e01b03198116811461136557600080fd5b9392505050565b60006020828403121561137e57600080fd5b5035919050565b80356001600160a01b038116811461139c57600080fd5b919050565b80356005811061139c57600080fd5b600080604083850312156113c357600080fd5b6113cc83611385565b91506113da602084016113a1565b90509250929050565b600080604083850312156113f657600080fd5b823591506113da60208401611385565b60006020828403121561141857600080fd5b611365826113a1565b60006020828403121561143357600080fd5b813567ffffffffffffffff81111561144a57600080fd5b820160c0818503121561136557600080fd5b6000806040838503121561146f57600080fd5b611478836113a1565b946020939093013593505050565b634e487b7160e01b600052602160045260246000fd5b634e487b7160e01b600052601160045260246000fd5b8082018082111561032d5761032d61149c565b6000602082840312156114d757600080fd5b61136582611385565b8181038181111561032d5761032d61149c565b6005811061151157634e487b7160e01b600052602160045260246000fd5b9052565b6060810161152382866114f3565b602082019390935260400152919050565b6000808335601e1984360301811261154b57600080fd5b83018035915067ffffffffffffffff82111561156657600080fd5b6020019150600581901b360382131561157e57600080fd5b9250929050565b6000600588106115a557634e487b7160e01b600052602160045260246000fd5b60f888901b8252606087901b6bffffffffffffffffffffffff1916600183015260158201869052603582018590526001600160fb1b038311156115e757600080fd5b8260051b8085605585013791909101605501979650505050505050565b6040810161161282856114f3565b8260208301529392505050565b6020810161032d82846114f3565b6020808252601590820152744d697373696e672067616d65206d6574616461746160581b604082015260600190565b634e487b7160e01b600052603260045260246000fd5b808202811582820484141761032d5761032d61149c56fe9b7946abd96dccbe6cfc6cc2c13300ab429d93e16fa72dc459eeccda73817f08a2646970667358221220ae96da378545eed50cb9cc2199672f1cb43bb91ba4a32a5ab8a7587a12922b3f64736f6c634300081800338a4c3e88784cd877ada8be9f43efc736c434652cbd9ac3fc2ca00795bd5da9e7","opcodes":"PUSH1 0x80 PUSH1 0x40 MSTORE CALLVALUE DUP1 ISZERO PUSH3 0x11 JUMPI PUSH1 0x0 DUP1 REVERT JUMPDEST POP PUSH3 0x1F PUSH1 0x0 CALLER PUSH3 0x269 JUMP JUMPDEST POP PUSH3 0x4C PUSH32 0x9B7946ABD96DCCBE6CFC6CC2C13300AB429D93E16FA72DC459EECCDA73817F08 CALLER PUSH3 0x269 JUMP JUMPDEST POP PUSH3 0x7A PUSH32 0x9B7946ABD96DCCBE6CFC6CC2C13300AB429D93E16FA72DC459EECCDA73817F08 PUSH1 0x0 PUSH3 0x318 JUMP JUMPDEST PUSH32 0xCC69885FDA6BCC1A4ACE058B4A62BF5E179EA78FD58A1CCD71C22CC9B688792F DUP1 SLOAD PUSH1 0x1 PUSH1 0xFF NOT SWAP2 DUP3 AND DUP2 OR SWAP1 SWAP3 SSTORE PUSH32 0xD9D16D34FFB15BA3A3D852F0D403E2CE1D691FB54DE27AC87CD2F993F3EC330F DUP1 SLOAD DUP3 AND DUP4 OR SWAP1 SSTORE PUSH32 0x7DFE757ECD65CBD7922A9C0161E935DD7FDBCC0E999689C7D31633896B1FC60B DUP1 SLOAD DUP3 AND DUP4 OR SWAP1 SSTORE PUSH32 0xEDC95719E9A3B28DD8E80877CB5880A9BE7DE1A13FC8B05E7999683B6B567643 DUP1 SLOAD SWAP1 SWAP2 AND DUP3 OR SWAP1 SSTORE PUSH1 0x3 PUSH1 0x20 MSTORE PUSH1 0x64 PUSH32 0xA15BC60C955C405D20D9149C709E2460F1C2D9A497496A7F46004D1772C3054C DUP2 SWAP1 SSTORE PUSH32 0xC3A24B0501BD2C13A7E57F2DB4369EC4C223447539FC0724A9D55AC4A06EBD4D SSTORE PUSH1 0x32 PUSH32 0xCBC4E5FB02C3D1DE23A9F1E014B4D2EE5AEAEA9505DF5E855C9210BF472495AF SSTORE PUSH1 0x4 PUSH1 0x0 MSTORE PUSH2 0x2710 PUSH32 0x83EC6A1F0257B830B5E016457C9CF1435391BF56CC98F369A58A54FE93772465 SSTORE PUSH1 0x40 MLOAD PUSH1 0x0 DUP1 MLOAD PUSH1 0x20 PUSH3 0x1A7B DUP4 CODECOPY DUP2 MLOAD SWAP2 MSTORE SWAP2 PUSH3 0x1E0 SWAP2 PUSH3 0x363 JUMP JUMPDEST PUSH1 0x40 MLOAD DUP1 SWAP2 SUB SWAP1 LOG1 PUSH1 0x0 DUP1 MLOAD PUSH1 0x20 PUSH3 0x1A7B DUP4 CODECOPY DUP2 MLOAD SWAP2 MSTORE PUSH1 0x2 PUSH1 0x40 MLOAD PUSH3 0x209 SWAP2 SWAP1 PUSH3 0x363 JUMP JUMPDEST PUSH1 0x40 MLOAD DUP1 SWAP2 SUB SWAP1 LOG1 PUSH1 0x0 DUP1 MLOAD PUSH1 0x20 PUSH3 0x1A7B DUP4 CODECOPY DUP2 MLOAD SWAP2 MSTORE PUSH1 0x3 PUSH1 0x40 MLOAD PUSH3 0x232 SWAP2 SWAP1 PUSH3 0x363 JUMP JUMPDEST PUSH1 0x40 MLOAD DUP1 SWAP2 SUB SWAP1 LOG1 PUSH1 0x0 DUP1 MLOAD PUSH1 0x20 PUSH3 0x1A7B DUP4 CODECOPY DUP2 MLOAD SWAP2 MSTORE PUSH1 0x4 PUSH1 0x40 MLOAD PUSH3 0x25B SWAP2 SWAP1 PUSH3 0x363 JUMP JUMPDEST PUSH1 0x40 MLOAD DUP1 SWAP2 SUB SWAP1 LOG1 PUSH3 0x38C JUMP JUMPDEST PUSH1 0x0 DUP3 DUP2 MSTORE PUSH1 0x20 DUP2 DUP2 MSTORE PUSH1 0x40 DUP1 DUP4 KECCAK256 PUSH1 0x1 PUSH1 0x1 PUSH1 0xA0 SHL SUB DUP6 AND DUP5 MSTORE SWAP1 SWAP2 MSTORE DUP2 KECCAK256 SLOAD PUSH1 0xFF AND PUSH3 0x30E JUMPI PUSH1 0x0 DUP4 DUP2 MSTORE PUSH1 0x20 DUP2 DUP2 MSTORE PUSH1 0x40 DUP1 DUP4 KECCAK256 PUSH1 0x1 PUSH1 0x1 PUSH1 0xA0 SHL SUB DUP7 AND DUP5 MSTORE SWAP1 SWAP2 MSTORE SWAP1 KECCAK256 DUP1 SLOAD PUSH1 0xFF NOT AND PUSH1 0x1 OR SWAP1 SSTORE PUSH3 0x2C5 CALLER SWAP1 JUMP JUMPDEST PUSH1 0x1 PUSH1 0x1 PUSH1 0xA0 SHL SUB AND DUP3 PUSH1 0x1 PUSH1 0x1 PUSH1 0xA0 SHL SUB AND DUP5 PUSH32 0x2F8788117E7EFF1D82E926EC794901D17C78024A50270940304540A733656F0D PUSH1 0x40 MLOAD PUSH1 0x40 MLOAD DUP1 SWAP2 SUB SWAP1 LOG4 POP PUSH1 0x1 PUSH3 0x312 JUMP JUMPDEST POP PUSH1 0x0 JUMPDEST SWAP3 SWAP2 POP POP JUMP JUMPDEST PUSH1 0x0 DUP3 DUP2 MSTORE PUSH1 0x20 DUP2 SWAP1 MSTORE PUSH1 0x40 DUP1 DUP3 KECCAK256 PUSH1 0x1 ADD DUP1 SLOAD SWAP1 DUP5 SWAP1 SSTORE SWAP1 MLOAD SWAP1 SWAP2 DUP4 SWAP2 DUP4 SWAP2 DUP7 SWAP2 PUSH32 0xBD79B86FFE0AB8E8776151514217CD7CACD52C909F66475C3AF44E129F0B00FF SWAP2 SWAP1 LOG4 POP POP POP JUMP JUMPDEST PUSH1 0x20 DUP2 ADD PUSH1 0x5 DUP4 LT PUSH3 0x386 JUMPI PUSH4 0x4E487B71 PUSH1 0xE0 SHL PUSH1 0x0 MSTORE PUSH1 0x21 PUSH1 0x4 MSTORE PUSH1 0x24 PUSH1 0x0 REVERT JUMPDEST SWAP2 SWAP1 MSTORE SWAP1 JUMP JUMPDEST PUSH2 0x16DF DUP1 PUSH3 0x39C PUSH1 0x0 CODECOPY PUSH1 0x0 RETURN INVALID PUSH1 0x80 PUSH1 0x40 MSTORE CALLVALUE DUP1 ISZERO PUSH2 0x10 JUMPI PUSH1 0x0 DUP1 REVERT JUMPDEST POP PUSH1 0x4 CALLDATASIZE LT PUSH2 0x121 JUMPI PUSH1 0x0 CALLDATALOAD PUSH1 0xE0 SHR DUP1 PUSH4 0x53C2A81E GT PUSH2 0xAD JUMPI DUP1 PUSH4 0xC54A41EB GT PUSH2 0x71 JUMPI DUP1 PUSH4 0xC54A41EB EQ PUSH2 0x279 JUMPI DUP1 PUSH4 0xCE863CD8 EQ PUSH2 0x2A4 JUMPI DUP1 PUSH4 0xD547741F EQ PUSH2 0x2CE JUMPI DUP1 PUSH4 0xE84B2780 EQ PUSH2 0x2E1 JUMPI DUP1 PUSH4 0xF010B541 EQ PUSH2 0x2E9 JUMPI PUSH1 0x0 DUP1 REVERT JUMPDEST DUP1 PUSH4 0x53C2A81E EQ PUSH2 0x223 JUMPI DUP1 PUSH4 0x91D14854 EQ PUSH2 0x236 JUMPI DUP1 PUSH4 0xA217FDDF EQ PUSH2 0x249 JUMPI DUP1 PUSH4 0xBE22D27D EQ PUSH2 0x251 JUMPI DUP1 PUSH4 0xC2C9A884 EQ PUSH2 0x266 JUMPI PUSH1 0x0 DUP1 REVERT JUMPDEST DUP1 PUSH4 0x30E10425 GT PUSH2 0xF4 JUMPI DUP1 PUSH4 0x30E10425 EQ PUSH2 0x1A7 JUMPI DUP1 PUSH4 0x35C34AE9 EQ PUSH2 0x1C7 JUMPI DUP1 PUSH4 0x36568ABE EQ PUSH2 0x1DA JUMPI DUP1 PUSH4 0x4AC0326E EQ PUSH2 0x1ED JUMPI DUP1 PUSH4 0x5026F42B EQ PUSH2 0x210 JUMPI PUSH1 0x0 DUP1 REVERT JUMPDEST DUP1 PUSH4 0x1FFC9A7 EQ PUSH2 0x126 JUMPI DUP1 PUSH4 0x248A9CA3 EQ PUSH2 0x14E JUMPI DUP1 PUSH4 0x2B446BE9 EQ PUSH2 0x17F JUMPI DUP1 PUSH4 0x2F2FF15D EQ PUSH2 0x192 JUMPI JUMPDEST PUSH1 0x0 DUP1 REVERT JUMPDEST PUSH2 0x139 PUSH2 0x134 CALLDATASIZE PUSH1 0x4 PUSH2 0x133B JUMP JUMPDEST PUSH2 0x2FC JUMP JUMPDEST PUSH1 0x40 MLOAD SWAP1 ISZERO ISZERO DUP2 MSTORE PUSH1 0x20 ADD JUMPDEST PUSH1 0x40 MLOAD DUP1 SWAP2 SUB SWAP1 RETURN JUMPDEST PUSH2 0x171 PUSH2 0x15C CALLDATASIZE PUSH1 0x4 PUSH2 0x136C JUMP JUMPDEST PUSH1 0x0 SWAP1 DUP2 MSTORE PUSH1 0x20 DUP2 SWAP1 MSTORE PUSH1 0x40 SWAP1 KECCAK256 PUSH1 0x1 ADD SLOAD SWAP1 JUMP JUMPDEST PUSH1 0x40 MLOAD SWAP1 DUP2 MSTORE PUSH1 0x20 ADD PUSH2 0x145 JUMP JUMPDEST PUSH2 0x139 PUSH2 0x18D CALLDATASIZE PUSH1 0x4 PUSH2 0x13B0 JUMP JUMPDEST PUSH2 0x333 JUMP JUMPDEST PUSH2 0x1A5 PUSH2 0x1A0 CALLDATASIZE PUSH1 0x4 PUSH2 0x13E3 JUMP JUMPDEST PUSH2 0x39A JUMP JUMPDEST STOP JUMPDEST PUSH2 0x171 PUSH2 0x1B5 CALLDATASIZE PUSH1 0x4 PUSH2 0x1406 JUMP JUMPDEST PUSH1 0x3 PUSH1 0x20 MSTORE PUSH1 0x0 SWAP1 DUP2 MSTORE PUSH1 0x40 SWAP1 KECCAK256 SLOAD DUP2 JUMP JUMPDEST PUSH2 0x139 PUSH2 0x1D5 CALLDATASIZE PUSH1 0x4 PUSH2 0x1421 JUMP JUMPDEST PUSH2 0x3C5 JUMP JUMPDEST PUSH2 0x1A5 PUSH2 0x1E8 CALLDATASIZE PUSH1 0x4 PUSH2 0x13E3 JUMP JUMPDEST PUSH2 0x7F5 JUMP JUMPDEST PUSH2 0x139 PUSH2 0x1FB CALLDATASIZE PUSH1 0x4 PUSH2 0x1406 JUMP JUMPDEST PUSH1 0x1 PUSH1 0x20 MSTORE PUSH1 0x0 SWAP1 DUP2 MSTORE PUSH1 0x40 SWAP1 KECCAK256 SLOAD PUSH1 0xFF AND DUP2 JUMP JUMPDEST PUSH2 0x171 PUSH2 0x21E CALLDATASIZE PUSH1 0x4 PUSH2 0x1421 JUMP JUMPDEST PUSH2 0x82D JUMP JUMPDEST PUSH2 0x1A5 PUSH2 0x231 CALLDATASIZE PUSH1 0x4 PUSH2 0x145C JUMP JUMPDEST PUSH2 0x895 JUMP JUMPDEST PUSH2 0x139 PUSH2 0x244 CALLDATASIZE PUSH1 0x4 PUSH2 0x13E3 JUMP JUMPDEST PUSH2 0x925 JUMP JUMPDEST PUSH2 0x171 PUSH1 0x0 DUP2 JUMP JUMPDEST PUSH2 0x171 PUSH1 0x0 DUP1 MLOAD PUSH1 0x20 PUSH2 0x168A DUP4 CODECOPY DUP2 MLOAD SWAP2 MSTORE DUP2 JUMP JUMPDEST PUSH2 0x1A5 PUSH2 0x274 CALLDATASIZE PUSH1 0x4 PUSH2 0x1406 JUMP JUMPDEST PUSH2 0x94E JUMP JUMPDEST PUSH2 0x171 PUSH2 0x287 CALLDATASIZE PUSH1 0x4 PUSH2 0x13B0 JUMP JUMPDEST PUSH1 0x2 PUSH1 0x20 SWAP1 DUP2 MSTORE PUSH1 0x0 SWAP3 DUP4 MSTORE PUSH1 0x40 DUP1 DUP5 KECCAK256 SWAP1 SWAP2 MSTORE SWAP1 DUP3 MSTORE SWAP1 KECCAK256 SLOAD DUP2 JUMP JUMPDEST PUSH2 0x2B7 PUSH2 0x2B2 CALLDATASIZE PUSH1 0x4 PUSH2 0x1406 JUMP JUMPDEST PUSH2 0xA43 JUMP JUMPDEST PUSH1 0x40 DUP1 MLOAD SWAP3 ISZERO ISZERO DUP4 MSTORE PUSH1 0x20 DUP4 ADD SWAP2 SWAP1 SWAP2 MSTORE ADD PUSH2 0x145 JUMP JUMPDEST PUSH2 0x1A5 PUSH2 0x2DC CALLDATASIZE PUSH1 0x4 PUSH2 0x13E3 JUMP JUMPDEST PUSH2 0xAC2 JUMP JUMPDEST PUSH2 0x171 PUSH1 0xA DUP2 JUMP JUMPDEST PUSH2 0x1A5 PUSH2 0x2F7 CALLDATASIZE PUSH1 0x4 PUSH2 0x1406 JUMP JUMPDEST PUSH2 0xAE7 JUMP JUMPDEST PUSH1 0x0 PUSH1 0x1 PUSH1 0x1 PUSH1 0xE0 SHL SUB NOT DUP3 AND PUSH4 0x7965DB0B PUSH1 0xE0 SHL EQ DUP1 PUSH2 0x32D JUMPI POP PUSH4 0x1FFC9A7 PUSH1 0xE0 SHL PUSH1 0x1 PUSH1 0x1 PUSH1 0xE0 SHL SUB NOT DUP4 AND EQ JUMPDEST SWAP3 SWAP2 POP POP JUMP JUMPDEST PUSH1 0x1 PUSH1 0x1 PUSH1 0xA0 SHL SUB DUP3 AND PUSH1 0x0 SWAP1 DUP2 MSTORE PUSH1 0x2 PUSH1 0x20 MSTORE PUSH1 0x40 DUP2 KECCAK256 DUP2 SWAP1 DUP2 DUP5 PUSH1 0x4 DUP2 GT ISZERO PUSH2 0x360 JUMPI PUSH2 0x360 PUSH2 0x1486 JUMP JUMPDEST PUSH1 0x4 DUP2 GT ISZERO PUSH2 0x371 JUMPI PUSH2 0x371 PUSH2 0x1486 JUMP JUMPDEST DUP2 MSTORE PUSH1 0x20 ADD SWAP1 DUP2 MSTORE PUSH1 0x20 ADD PUSH1 0x0 KECCAK256 SLOAD SWAP1 POP PUSH1 0xA DUP2 PUSH2 0x38F SWAP2 SWAP1 PUSH2 0x14B2 JUMP JUMPDEST TIMESTAMP LT ISZERO SWAP5 SWAP4 POP POP POP POP JUMP JUMPDEST PUSH1 0x0 DUP3 DUP2 MSTORE PUSH1 0x20 DUP2 SWAP1 MSTORE PUSH1 0x40 SWAP1 KECCAK256 PUSH1 0x1 ADD SLOAD PUSH2 0x3B5 DUP2 PUSH2 0xB7C JUMP JUMPDEST PUSH2 0x3BF DUP4 DUP4 PUSH2 0xB89 JUMP JUMPDEST POP POP POP POP JUMP JUMPDEST PUSH1 0x0 PUSH1 0x1 DUP2 PUSH2 0x3D7 PUSH1 0x20 DUP6 ADD DUP6 PUSH2 0x1406 JUMP JUMPDEST PUSH1 0x4 DUP2 GT ISZERO PUSH2 0x3E8 JUMPI PUSH2 0x3E8 PUSH2 0x1486 JUMP JUMPDEST PUSH1 0x4 DUP2 GT ISZERO PUSH2 0x3F9 JUMPI PUSH2 0x3F9 PUSH2 0x1486 JUMP JUMPDEST DUP2 MSTORE PUSH1 0x20 DUP2 ADD SWAP2 SWAP1 SWAP2 MSTORE PUSH1 0x40 ADD PUSH1 0x0 KECCAK256 SLOAD PUSH1 0xFF AND PUSH2 0x456 JUMPI PUSH1 0x40 MLOAD PUSH3 0x461BCD PUSH1 0xE5 SHL DUP2 MSTORE PUSH1 0x20 PUSH1 0x4 DUP3 ADD MSTORE PUSH1 0x15 PUSH1 0x24 DUP3 ADD MSTORE PUSH21 0x11D85B59481D1E5C19481B9BDD08195B98589B1959 PUSH1 0x5A SHL PUSH1 0x44 DUP3 ADD MSTORE PUSH1 0x64 ADD JUMPDEST PUSH1 0x40 MLOAD DUP1 SWAP2 SUB SWAP1 REVERT JUMPDEST PUSH1 0x0 PUSH2 0x465 PUSH1 0x20 DUP5 ADD DUP5 PUSH2 0x1406 JUMP JUMPDEST PUSH1 0x4 DUP2 GT ISZERO PUSH2 0x476 JUMPI PUSH2 0x476 PUSH2 0x1486 JUMP JUMPDEST SUB PUSH2 0x4B7 JUMPI PUSH1 0x40 MLOAD PUSH3 0x461BCD PUSH1 0xE5 SHL DUP2 MSTORE PUSH1 0x20 PUSH1 0x4 DUP3 ADD MSTORE PUSH1 0x11 PUSH1 0x24 DUP3 ADD MSTORE PUSH17 0x496E76616C69642067616D652074797065 PUSH1 0x78 SHL PUSH1 0x44 DUP3 ADD MSTORE PUSH1 0x64 ADD PUSH2 0x44D JUMP JUMPDEST PUSH1 0x0 PUSH1 0x2 DUP2 PUSH2 0x4CC PUSH1 0x40 DUP7 ADD PUSH1 0x20 DUP8 ADD PUSH2 0x14C5 JUMP JUMPDEST PUSH1 0x1 PUSH1 0x1 PUSH1 0xA0 SHL SUB AND DUP2 MSTORE PUSH1 0x20 DUP1 DUP3 ADD SWAP3 SWAP1 SWAP3 MSTORE PUSH1 0x40 ADD PUSH1 0x0 SWAP1 DUP2 KECCAK256 SWAP2 PUSH2 0x4F5 SWAP1 DUP7 ADD DUP7 PUSH2 0x1406 JUMP JUMPDEST PUSH1 0x4 DUP2 GT ISZERO PUSH2 0x506 JUMPI PUSH2 0x506 PUSH2 0x1486 JUMP JUMPDEST PUSH1 0x4 DUP2 GT ISZERO PUSH2 0x517 JUMPI PUSH2 0x517 PUSH2 0x1486 JUMP JUMPDEST DUP2 MSTORE PUSH1 0x20 ADD SWAP1 DUP2 MSTORE PUSH1 0x20 ADD PUSH1 0x0 KECCAK256 SLOAD SWAP1 POP PUSH1 0xA DUP2 PUSH2 0x535 SWAP2 SWAP1 PUSH2 0x14B2 JUMP JUMPDEST TIMESTAMP LT ISZERO PUSH2 0x584 JUMPI PUSH1 0x40 MLOAD PUSH3 0x461BCD PUSH1 0xE5 SHL DUP2 MSTORE PUSH1 0x20 PUSH1 0x4 DUP3 ADD MSTORE PUSH1 0x18 PUSH1 0x24 DUP3 ADD MSTORE PUSH32 0x546F6F206672657175656E74207375626D697373696F6E730000000000000000 PUSH1 0x44 DUP3 ADD MSTORE PUSH1 0x64 ADD PUSH2 0x44D JUMP JUMPDEST TIMESTAMP PUSH1 0x2 PUSH1 0x0 PUSH2 0x599 PUSH1 0x40 DUP8 ADD PUSH1 0x20 DUP9 ADD PUSH2 0x14C5 JUMP JUMPDEST PUSH1 0x1 PUSH1 0x1 PUSH1 0xA0 SHL SUB AND DUP2 MSTORE PUSH1 0x20 DUP1 DUP3 ADD SWAP3 SWAP1 SWAP3 MSTORE PUSH1 0x40 ADD PUSH1 0x0 SWAP1 DUP2 KECCAK256 SWAP2 PUSH2 0x5C2 SWAP1 DUP8 ADD DUP8 PUSH2 0x1406 JUMP JUMPDEST PUSH1 0x4 DUP2 GT ISZERO PUSH2 0x5D3 JUMPI PUSH2 0x5D3 PUSH2 0x1486 JUMP JUMPDEST PUSH1 0x4 DUP2 GT ISZERO PUSH2 0x5E4 JUMPI PUSH2 0x5E4 PUSH2 0x1486 JUMP JUMPDEST DUP2 MSTORE PUSH1 0x20 ADD SWAP1 DUP2 MSTORE PUSH1 0x20 ADD PUSH1 0x0 KECCAK256 DUP2 SWAP1 SSTORE POP PUSH1 0x3 PUSH1 0x0 DUP5 PUSH1 0x0 ADD PUSH1 0x20 DUP2 ADD SWAP1 PUSH2 0x60D SWAP2 SWAP1 PUSH2 0x1406 JUMP JUMPDEST PUSH1 0x4 DUP2 GT ISZERO PUSH2 0x61E JUMPI PUSH2 0x61E PUSH2 0x1486 JUMP JUMPDEST PUSH1 0x4 DUP2 GT ISZERO PUSH2 0x62F JUMPI PUSH2 0x62F PUSH2 0x1486 JUMP JUMPDEST DUP2 MSTORE PUSH1 0x20 ADD SWAP1 DUP2 MSTORE PUSH1 0x20 ADD PUSH1 0x0 KECCAK256 SLOAD DUP4 PUSH1 0x40 ADD CALLDATALOAD GT ISZERO PUSH2 0x689 JUMPI PUSH1 0x40 MLOAD PUSH3 0x461BCD PUSH1 0xE5 SHL DUP2 MSTORE PUSH1 0x20 PUSH1 0x4 DUP3 ADD MSTORE PUSH1 0x15 PUSH1 0x24 DUP3 ADD MSTORE PUSH21 0x53636F72652065786365656473206D6178696D756D PUSH1 0x58 SHL PUSH1 0x44 DUP3 ADD MSTORE PUSH1 0x64 ADD PUSH2 0x44D JUMP JUMPDEST TIMESTAMP DUP4 PUSH1 0x60 ADD CALLDATALOAD GT ISZERO PUSH2 0x6D1 JUMPI PUSH1 0x40 MLOAD PUSH3 0x461BCD PUSH1 0xE5 SHL DUP2 MSTORE PUSH1 0x20 PUSH1 0x4 DUP3 ADD MSTORE PUSH1 0x11 PUSH1 0x24 DUP3 ADD MSTORE PUSH17 0x496E76616C69642074696D657374616D7 PUSH1 0x7C SHL PUSH1 0x44 DUP3 ADD MSTORE PUSH1 0x64 ADD PUSH2 0x44D JUMP JUMPDEST PUSH2 0x6DE PUSH3 0x15180 TIMESTAMP PUSH2 0x14E0 JUMP JUMPDEST DUP4 PUSH1 0x60 ADD CALLDATALOAD LT ISZERO PUSH2 0x725 JUMPI PUSH1 0x40 MLOAD PUSH3 0x461BCD PUSH1 0xE5 SHL DUP2 MSTORE PUSH1 0x20 PUSH1 0x4 DUP3 ADD MSTORE PUSH1 0x11 PUSH1 0x24 DUP3 ADD MSTORE PUSH17 0x151A5B595CDD185B5C081D1BDBC81BDB19 PUSH1 0x7A SHL PUSH1 0x44 DUP3 ADD MSTORE PUSH1 0x64 ADD PUSH2 0x44D JUMP JUMPDEST PUSH1 0x0 PUSH2 0x730 DUP5 PUSH2 0x82D JUMP JUMPDEST SWAP1 POP DUP4 PUSH1 0x80 ADD CALLDATALOAD DUP2 EQ PUSH2 0x77A JUMPI PUSH1 0x40 MLOAD PUSH3 0x461BCD PUSH1 0xE5 SHL DUP2 MSTORE PUSH1 0x20 PUSH1 0x4 DUP3 ADD MSTORE PUSH1 0x12 PUSH1 0x24 DUP3 ADD MSTORE PUSH18 0x8EC2DACA40D0C2E6D040DAD2E6DAC2E8C6D PUSH1 0x73 SHL PUSH1 0x44 DUP3 ADD MSTORE PUSH1 0x64 ADD PUSH2 0x44D JUMP JUMPDEST PUSH2 0x783 DUP5 PUSH2 0xC1B JUMP JUMPDEST PUSH2 0x793 PUSH1 0x40 DUP6 ADD PUSH1 0x20 DUP7 ADD PUSH2 0x14C5 JUMP JUMPDEST PUSH1 0x1 PUSH1 0x1 PUSH1 0xA0 SHL SUB AND PUSH32 0x1E9C851913C59CE225051A04A5685A51E8F1DC7F4F54FA7AB6976EC8D21F56AD PUSH2 0x7CA PUSH1 0x20 DUP8 ADD DUP8 PUSH2 0x1406 JUMP JUMPDEST DUP7 PUSH1 0x40 ADD CALLDATALOAD DUP8 PUSH1 0x80 ADD CALLDATALOAD PUSH1 0x40 MLOAD PUSH2 0x7E3 SWAP4 SWAP3 SWAP2 SWAP1 PUSH2 0x1515 JUMP JUMPDEST PUSH1 0x40 MLOAD DUP1 SWAP2 SUB SWAP1 LOG2 POP PUSH1 0x1 SWAP4 SWAP3 POP POP POP JUMP JUMPDEST PUSH1 0x1 PUSH1 0x1 PUSH1 0xA0 SHL SUB DUP2 AND CALLER EQ PUSH2 0x81E JUMPI PUSH1 0x40 MLOAD PUSH4 0x334BD919 PUSH1 0xE1 SHL DUP2 MSTORE PUSH1 0x4 ADD PUSH1 0x40 MLOAD DUP1 SWAP2 SUB SWAP1 REVERT JUMPDEST PUSH2 0x828 DUP3 DUP3 PUSH2 0x1297 JUMP JUMPDEST POP POP POP JUMP JUMPDEST PUSH1 0x0 PUSH2 0x83C PUSH1 0x20 DUP4 ADD DUP4 PUSH2 0x1406 JUMP JUMPDEST PUSH2 0x84C PUSH1 0x40 DUP5 ADD PUSH1 0x20 DUP6 ADD PUSH2 0x14C5 JUMP JUMPDEST PUSH1 0x40 DUP5 ADD CALLDATALOAD PUSH1 0x60 DUP6 ADD CALLDATALOAD PUSH2 0x863 PUSH1 0xA0 DUP8 ADD DUP8 PUSH2 0x1534 JUMP JUMPDEST PUSH1 0x40 MLOAD PUSH1 0x20 ADD PUSH2 0x878 SWAP7 SWAP6 SWAP5 SWAP4 SWAP3 SWAP2 SWAP1 PUSH2 0x1585 JUMP JUMPDEST PUSH1 0x40 MLOAD PUSH1 0x20 DUP2 DUP4 SUB SUB DUP2 MSTORE SWAP1 PUSH1 0x40 MSTORE DUP1 MLOAD SWAP1 PUSH1 0x20 ADD KECCAK256 SWAP1 POP SWAP2 SWAP1 POP JUMP JUMPDEST PUSH1 0x0 DUP1 MLOAD PUSH1 0x20 PUSH2 0x168A DUP4 CODECOPY DUP2 MLOAD SWAP2 MSTORE PUSH2 0x8AD DUP2 PUSH2 0xB7C JUMP JUMPDEST DUP2 PUSH1 0x3 PUSH1 0x0 DUP6 PUSH1 0x4 DUP2 GT ISZERO PUSH2 0x8C4 JUMPI PUSH2 0x8C4 PUSH2 0x1486 JUMP JUMPDEST PUSH1 0x4 DUP2 GT ISZERO PUSH2 0x8D5 JUMPI PUSH2 0x8D5 PUSH2 0x1486 JUMP JUMPDEST DUP2 MSTORE PUSH1 0x20 ADD SWAP1 DUP2 MSTORE PUSH1 0x20 ADD PUSH1 0x0 KECCAK256 DUP2 SWAP1 SSTORE POP PUSH32 0x4E15C40EE9242DF13E261A3C7729BDFD091E0C966FDA0F3B95B0325B52B82C29 DUP4 DUP4 PUSH1 0x40 MLOAD PUSH2 0x918 SWAP3 SWAP2 SWAP1 PUSH2 0x1604 JUMP JUMPDEST PUSH1 0x40 MLOAD DUP1 SWAP2 SUB SWAP1 LOG1 POP POP POP JUMP JUMPDEST PUSH1 0x0 SWAP2 DUP3 MSTORE PUSH1 0x20 DUP3 DUP2 MSTORE PUSH1 0x40 DUP1 DUP5 KECCAK256 PUSH1 0x1 PUSH1 0x1 PUSH1 0xA0 SHL SUB SWAP4 SWAP1 SWAP4 AND DUP5 MSTORE SWAP2 SWAP1 MSTORE SWAP1 KECCAK256 SLOAD PUSH1 0xFF AND SWAP1 JUMP JUMPDEST PUSH1 0x0 DUP1 MLOAD PUSH1 0x20 PUSH2 0x168A DUP4 CODECOPY DUP2 MLOAD SWAP2 MSTORE PUSH2 0x966 DUP2 PUSH2 0xB7C JUMP JUMPDEST PUSH1 0x0 DUP3 PUSH1 0x4 DUP2 GT ISZERO PUSH2 0x97A JUMPI PUSH2 0x97A PUSH2 0x1486 JUMP JUMPDEST SUB PUSH2 0x9BB JUMPI PUSH1 0x40 MLOAD PUSH3 0x461BCD PUSH1 0xE5 SHL DUP2 MSTORE PUSH1 0x20 PUSH1 0x4 DUP3 ADD MSTORE PUSH1 0x11 PUSH1 0x24 DUP3 ADD MSTORE PUSH17 0x496E76616C69642067616D652074797065 PUSH1 0x78 SHL PUSH1 0x44 DUP3 ADD MSTORE PUSH1 0x64 ADD PUSH2 0x44D JUMP JUMPDEST PUSH1 0x1 DUP1 PUSH1 0x0 DUP5 PUSH1 0x4 DUP2 GT ISZERO PUSH2 0x9D2 JUMPI PUSH2 0x9D2 PUSH2 0x1486 JUMP JUMPDEST PUSH1 0x4 DUP2 GT ISZERO PUSH2 0x9E3 JUMPI PUSH2 0x9E3 PUSH2 0x1486 JUMP JUMPDEST DUP2 MSTORE PUSH1 0x20 ADD SWAP1 DUP2 MSTORE PUSH1 0x20 ADD PUSH1 0x0 KECCAK256 PUSH1 0x0 PUSH2 0x100 EXP DUP2 SLOAD DUP2 PUSH1 0xFF MUL NOT AND SWAP1 DUP4 ISZERO ISZERO MUL OR SWAP1 SSTORE POP PUSH32 0x8A4C3E88784CD877ADA8BE9F43EFC736C434652CBD9AC3FC2CA00795BD5DA9E7 DUP3 PUSH1 0x40 MLOAD PUSH2 0xA37 SWAP2 SWAP1 PUSH2 0x161F JUMP JUMPDEST PUSH1 0x40 MLOAD DUP1 SWAP2 SUB SWAP1 LOG1 POP POP JUMP JUMPDEST PUSH1 0x0 DUP1 PUSH1 0x1 PUSH1 0x0 DUP5 PUSH1 0x4 DUP2 GT ISZERO PUSH2 0xA5C JUMPI PUSH2 0xA5C PUSH2 0x1486 JUMP JUMPDEST PUSH1 0x4 DUP2 GT ISZERO PUSH2 0xA6D JUMPI PUSH2 0xA6D PUSH2 0x1486 JUMP JUMPDEST DUP2 MSTORE PUSH1 0x20 DUP2 ADD SWAP2 SWAP1 SWAP2 MSTORE PUSH1 0x40 ADD PUSH1 0x0 SWAP1 DUP2 KECCAK256 SLOAD PUSH1 0xFF AND SWAP1 PUSH1 0x3 SWAP1 DUP6 PUSH1 0x4 DUP2 GT ISZERO PUSH2 0xA99 JUMPI PUSH2 0xA99 PUSH2 0x1486 JUMP JUMPDEST PUSH1 0x4 DUP2 GT ISZERO PUSH2 0xAAA JUMPI PUSH2 0xAAA PUSH2 0x1486 JUMP JUMPDEST DUP2 MSTORE PUSH1 0x20 ADD SWAP1 DUP2 MSTORE PUSH1 0x20 ADD PUSH1 0x0 KECCAK256 SLOAD SWAP2 POP SWAP2 POP SWAP2 POP SWAP2 JUMP JUMPDEST PUSH1 0x0 DUP3 DUP2 MSTORE PUSH1 0x20 DUP2 SWAP1 MSTORE PUSH1 0x40 SWAP1 KECCAK256 PUSH1 0x1 ADD SLOAD PUSH2 0xADD DUP2 PUSH2 0xB7C JUMP JUMPDEST PUSH2 0x3BF DUP4 DUP4 PUSH2 0x1297 JUMP JUMPDEST PUSH1 0x0 DUP1 MLOAD PUSH1 0x20 PUSH2 0x168A DUP4 CODECOPY DUP2 MLOAD SWAP2 MSTORE PUSH2 0xAFF DUP2 PUSH2 0xB7C JUMP JUMPDEST PUSH1 0x0 PUSH1 0x1 PUSH1 0x0 DUP5 PUSH1 0x4 DUP2 GT ISZERO PUSH2 0xB17 JUMPI PUSH2 0xB17 PUSH2 0x1486 JUMP JUMPDEST PUSH1 0x4 DUP2 GT ISZERO PUSH2 0xB28 JUMPI PUSH2 0xB28 PUSH2 0x1486 JUMP JUMPDEST DUP2 MSTORE PUSH1 0x20 ADD SWAP1 DUP2 MSTORE PUSH1 0x20 ADD PUSH1 0x0 KECCAK256 PUSH1 0x0 PUSH2 0x100 EXP DUP2 SLOAD DUP2 PUSH1 0xFF MUL NOT AND SWAP1 DUP4 ISZERO ISZERO MUL OR SWAP1 SSTORE POP PUSH32 0xF57ACFB7BBC2A8CCB2061F1E6F82AD5FD4BED847D0FCB39D9F40A0AB0EDA108A DUP3 PUSH1 0x40 MLOAD PUSH2 0xA37 SWAP2 SWAP1 PUSH2 0x161F JUMP JUMPDEST PUSH2 0xB86 DUP2 CALLER PUSH2 0x1302 JUMP JUMPDEST POP JUMP JUMPDEST PUSH1 0x0 PUSH2 0xB95 DUP4 DUP4 PUSH2 0x925 JUMP JUMPDEST PUSH2 0xC13 JUMPI PUSH1 0x0 DUP4 DUP2 MSTORE PUSH1 0x20 DUP2 DUP2 MSTORE PUSH1 0x40 DUP1 DUP4 KECCAK256 PUSH1 0x1 PUSH1 0x1 PUSH1 0xA0 SHL SUB DUP7 AND DUP5 MSTORE SWAP1 SWAP2 MSTORE SWAP1 KECCAK256 DUP1 SLOAD PUSH1 0xFF NOT AND PUSH1 0x1 OR SWAP1 SSTORE PUSH2 0xBCB CALLER SWAP1 JUMP JUMPDEST PUSH1 0x1 PUSH1 0x1 PUSH1 0xA0 SHL SUB AND DUP3 PUSH1 0x1 PUSH1 0x1 PUSH1 0xA0 SHL SUB AND DUP5 PUSH32 0x2F8788117E7EFF1D82E926EC794901D17C78024A50270940304540A733656F0D PUSH1 0x40 MLOAD PUSH1 0x40 MLOAD DUP1 SWAP2 SUB SWAP1 LOG4 POP PUSH1 0x1 PUSH2 0x32D JUMP JUMPDEST POP PUSH1 0x0 PUSH2 0x32D JUMP JUMPDEST PUSH1 0x1 PUSH2 0xC2A PUSH1 0x20 DUP4 ADD DUP4 PUSH2 0x1406 JUMP JUMPDEST PUSH1 0x4 DUP2 GT ISZERO PUSH2 0xC3B JUMPI PUSH2 0xC3B PUSH2 0x1486 JUMP JUMPDEST SUB PUSH2 0xD5A JUMPI PUSH1 0x1 PUSH2 0xC4F PUSH1 0xA0 DUP4 ADD DUP4 PUSH2 0x1534 JUMP JUMPDEST SWAP1 POP LT ISZERO PUSH2 0xC6F JUMPI PUSH1 0x40 MLOAD PUSH3 0x461BCD PUSH1 0xE5 SHL DUP2 MSTORE PUSH1 0x4 ADD PUSH2 0x44D SWAP1 PUSH2 0x162D JUMP JUMPDEST PUSH1 0x0 PUSH2 0xC7E PUSH1 0xA0 DUP4 ADD DUP4 PUSH2 0x1534 JUMP JUMPDEST PUSH1 0x0 DUP2 DUP2 LT PUSH2 0xC8F JUMPI PUSH2 0xC8F PUSH2 0x165C JUMP JUMPDEST SWAP1 POP PUSH1 0x20 MUL ADD CALLDATALOAD SWAP1 POP PUSH1 0x0 DUP2 GT DUP1 ISZERO PUSH2 0xCA9 JUMPI POP PUSH1 0x5 DUP2 GT ISZERO JUMPDEST PUSH2 0xCED JUMPI PUSH1 0x40 MLOAD PUSH3 0x461BCD PUSH1 0xE5 SHL DUP2 MSTORE PUSH1 0x20 PUSH1 0x4 DUP3 ADD MSTORE PUSH1 0x15 PUSH1 0x24 DUP3 ADD MSTORE PUSH21 0x125B9D985B1A5908185D1D195B5C1D0818DBDD5B9D PUSH1 0x5A SHL PUSH1 0x44 DUP3 ADD MSTORE PUSH1 0x64 ADD PUSH2 0x44D JUMP JUMPDEST PUSH1 0x0 PUSH2 0xCFA DUP3 PUSH1 0x6 PUSH2 0x14E0 JUMP JUMPDEST PUSH2 0xD05 SWAP1 PUSH1 0x14 PUSH2 0x1672 JUMP JUMPDEST SWAP1 POP DUP1 DUP4 PUSH1 0x40 ADD CALLDATALOAD EQ PUSH2 0x828 JUMPI PUSH1 0x40 MLOAD PUSH3 0x461BCD PUSH1 0xE5 SHL DUP2 MSTORE PUSH1 0x20 PUSH1 0x4 DUP3 ADD MSTORE PUSH1 0x1D PUSH1 0x24 DUP3 ADD MSTORE PUSH32 0x53636F726520646F6573206E6F74206D6174636820617474656D707473000000 PUSH1 0x44 DUP3 ADD MSTORE PUSH1 0x64 ADD PUSH2 0x44D JUMP JUMPDEST PUSH1 0x2 PUSH2 0xD69 PUSH1 0x20 DUP4 ADD DUP4 PUSH2 0x1406 JUMP JUMPDEST PUSH1 0x4 DUP2 GT ISZERO PUSH2 0xD7A JUMPI PUSH2 0xD7A PUSH2 0x1486 JUMP JUMPDEST SUB PUSH2 0xF0A JUMPI PUSH1 0x3 PUSH2 0xD8E PUSH1 0xA0 DUP4 ADD DUP4 PUSH2 0x1534 JUMP JUMPDEST SWAP1 POP LT ISZERO PUSH2 0xDAE JUMPI PUSH1 0x40 MLOAD PUSH3 0x461BCD PUSH1 0xE5 SHL DUP2 MSTORE PUSH1 0x4 ADD PUSH2 0x44D SWAP1 PUSH2 0x162D JUMP JUMPDEST PUSH1 0x0 PUSH2 0xDBD PUSH1 0xA0 DUP4 ADD DUP4 PUSH2 0x1534 JUMP JUMPDEST PUSH1 0x0 DUP2 DUP2 LT PUSH2 0xDCE JUMPI PUSH2 0xDCE PUSH2 0x165C JUMP JUMPDEST SWAP1 POP PUSH1 0x20 MUL ADD CALLDATALOAD SWAP1 POP PUSH1 0x0 DUP3 DUP1 PUSH1 0xA0 ADD SWAP1 PUSH2 0xDE9 SWAP2 SWAP1 PUSH2 0x1534 JUMP JUMPDEST PUSH1 0x1 DUP2 DUP2 LT PUSH2 0xDFA JUMPI PUSH2 0xDFA PUSH2 0x165C JUMP JUMPDEST SWAP1 POP PUSH1 0x20 MUL ADD CALLDATALOAD SWAP1 POP PUSH1 0x0 DUP4 DUP1 PUSH1 0xA0 ADD SWAP1 PUSH2 0xE15 SWAP2 SWAP1 PUSH2 0x1534 JUMP JUMPDEST PUSH1 0x2 DUP2 DUP2 LT PUSH2 0xE26 JUMPI PUSH2 0xE26 PUSH2 0x165C JUMP JUMPDEST SWAP1 POP PUSH1 0x20 MUL ADD CALLDATALOAD SWAP1 POP DUP1 DUP3 DUP5 PUSH2 0xE3C SWAP2 SWAP1 PUSH2 0x14B2 JUMP JUMPDEST PUSH2 0xE46 SWAP2 SWAP1 PUSH2 0x14B2 JUMP JUMPDEST PUSH1 0xA EQ PUSH2 0xE8C JUMPI PUSH1 0x40 MLOAD PUSH3 0x461BCD PUSH1 0xE5 SHL DUP2 MSTORE PUSH1 0x20 PUSH1 0x4 DUP3 ADD MSTORE PUSH1 0x14 PUSH1 0x24 DUP3 ADD MSTORE PUSH20 0x496E76616C696420746F74616C20726F756E6473 PUSH1 0x60 SHL PUSH1 0x44 DUP3 ADD MSTORE PUSH1 0x64 ADD PUSH2 0x44D JUMP JUMPDEST PUSH1 0x0 PUSH2 0xE99 DUP4 PUSH1 0x5 PUSH2 0x1672 JUMP JUMPDEST PUSH2 0xEA4 DUP6 PUSH1 0xA PUSH2 0x1672 JUMP JUMPDEST PUSH2 0xEAE SWAP2 SWAP1 PUSH2 0x14B2 JUMP JUMPDEST SWAP1 POP DUP1 DUP6 PUSH1 0x40 ADD CALLDATALOAD EQ PUSH2 0xF03 JUMPI PUSH1 0x40 MLOAD PUSH3 0x461BCD PUSH1 0xE5 SHL DUP2 MSTORE PUSH1 0x20 PUSH1 0x4 DUP3 ADD MSTORE PUSH1 0x1C PUSH1 0x24 DUP3 ADD MSTORE PUSH32 0x53636F726520646F6573206E6F74206D6174636820726573756C747300000000 PUSH1 0x44 DUP3 ADD MSTORE PUSH1 0x64 ADD PUSH2 0x44D JUMP JUMPDEST POP POP POP POP POP JUMP JUMPDEST PUSH1 0x3 PUSH2 0xF19 PUSH1 0x20 DUP4 ADD DUP4 PUSH2 0x1406 JUMP JUMPDEST PUSH1 0x4 DUP2 GT ISZERO PUSH2 0xF2A JUMPI PUSH2 0xF2A PUSH2 0x1486 JUMP JUMPDEST SUB PUSH2 0x1021 JUMPI PUSH1 0x1 PUSH2 0xF3E PUSH1 0xA0 DUP4 ADD DUP4 PUSH2 0x1534 JUMP JUMPDEST SWAP1 POP LT ISZERO PUSH2 0xF5E JUMPI PUSH1 0x40 MLOAD PUSH3 0x461BCD PUSH1 0xE5 SHL DUP2 MSTORE PUSH1 0x4 ADD PUSH2 0x44D SWAP1 PUSH2 0x162D JUMP JUMPDEST PUSH1 0x0 PUSH2 0xF6D PUSH1 0xA0 DUP4 ADD DUP4 PUSH2 0x1534 JUMP JUMPDEST PUSH1 0x0 DUP2 DUP2 LT PUSH2 0xF7E JUMPI PUSH2 0xF7E PUSH2 0x165C JUMP JUMPDEST SWAP1 POP PUSH1 0x20 MUL ADD CALLDATALOAD SWAP1 POP PUSH1 0x32 DUP2 GT ISZERO PUSH2 0xFCA JUMPI PUSH1 0x40 MLOAD PUSH3 0x461BCD PUSH1 0xE5 SHL DUP2 MSTORE PUSH1 0x20 PUSH1 0x4 DUP3 ADD MSTORE PUSH1 0xF PUSH1 0x24 DUP3 ADD MSTORE PUSH15 0x546F6F206D616E7920636C69636B73 PUSH1 0x88 SHL PUSH1 0x44 DUP3 ADD MSTORE PUSH1 0x64 ADD PUSH2 0x44D JUMP JUMPDEST DUP1 DUP3 PUSH1 0x40 ADD CALLDATALOAD EQ PUSH2 0x101D JUMPI PUSH1 0x40 MLOAD PUSH3 0x461BCD PUSH1 0xE5 SHL DUP2 MSTORE PUSH1 0x20 PUSH1 0x4 DUP3 ADD DUP2 SWAP1 MSTORE PUSH1 0x24 DUP3 ADD MSTORE PUSH32 0x53636F726520646F6573206E6F74206D6174636820636C69636B20636F756E74 PUSH1 0x44 DUP3 ADD MSTORE PUSH1 0x64 ADD PUSH2 0x44D JUMP JUMPDEST POP POP JUMP JUMPDEST PUSH1 0x4 PUSH2 0x1030 PUSH1 0x20 DUP4 ADD DUP4 PUSH2 0x1406 JUMP JUMPDEST PUSH1 0x4 DUP2 GT ISZERO PUSH2 0x1041 JUMPI PUSH2 0x1041 PUSH2 0x1486 JUMP JUMPDEST SUB PUSH2 0xB86 JUMPI PUSH1 0x3 PUSH2 0x1055 PUSH1 0xA0 DUP4 ADD DUP4 PUSH2 0x1534 JUMP JUMPDEST SWAP1 POP LT ISZERO PUSH2 0x1075 JUMPI PUSH1 0x40 MLOAD PUSH3 0x461BCD PUSH1 0xE5 SHL DUP2 MSTORE PUSH1 0x4 ADD PUSH2 0x44D SWAP1 PUSH2 0x162D JUMP JUMPDEST PUSH1 0x0 PUSH2 0x1084 PUSH1 0xA0 DUP4 ADD DUP4 PUSH2 0x1534 JUMP JUMPDEST PUSH1 0x0 DUP2 DUP2 LT PUSH2 0x1095 JUMPI PUSH2 0x1095 PUSH2 0x165C JUMP JUMPDEST SWAP1 POP PUSH1 0x20 MUL ADD CALLDATALOAD SWAP1 POP PUSH1 0x0 DUP3 DUP1 PUSH1 0xA0 ADD SWAP1 PUSH2 0x10B0 SWAP2 SWAP1 PUSH2 0x1534 JUMP JUMPDEST PUSH1 0x1 DUP2 DUP2 LT PUSH2 0x10C1 JUMPI PUSH2 0x10C1 PUSH2 0x165C JUMP JUMPDEST SWAP1 POP PUSH1 0x20 MUL ADD CALLDATALOAD SWAP1 POP PUSH1 0x0 DUP4 DUP1 PUSH1 0xA0 ADD SWAP1 PUSH2 0x10DC SWAP2 SWAP1 PUSH2 0x1534 JUMP JUMPDEST PUSH1 0x2 DUP2 DUP2 LT PUSH2 0x10ED JUMPI PUSH2 0x10ED PUSH2 0x165C JUMP JUMPDEST SWAP1 POP PUSH1 0x20 MUL ADD CALLDATALOAD SWAP1 POP PUSH1 0x1 DUP3 LT ISZERO PUSH2 0x1137 JUMPI PUSH1 0x40 MLOAD PUSH3 0x461BCD PUSH1 0xE5 SHL DUP2 MSTORE PUSH1 0x20 PUSH1 0x4 DUP3 ADD MSTORE PUSH1 0xD PUSH1 0x24 DUP3 ADD MSTORE PUSH13 0x125B9D985B1A59081B195D995B PUSH1 0x9A SHL PUSH1 0x44 DUP3 ADD MSTORE PUSH1 0x64 ADD PUSH2 0x44D JUMP JUMPDEST PUSH1 0x1 DUP2 LT ISZERO PUSH2 0x117C JUMPI PUSH1 0x40 MLOAD PUSH3 0x461BCD PUSH1 0xE5 SHL DUP2 MSTORE PUSH1 0x20 PUSH1 0x4 DUP3 ADD MSTORE PUSH1 0x11 PUSH1 0x24 DUP3 ADD MSTORE PUSH17 0x496E76616C6964206D617820636F6D626F PUSH1 0x78 SHL PUSH1 0x44 DUP3 ADD MSTORE PUSH1 0x64 ADD PUSH2 0x44D JUMP JUMPDEST PUSH1 0x0 PUSH2 0x118A DUP4 PUSH2 0x12C PUSH2 0x1672 JUMP JUMPDEST SWAP1 POP DUP1 DUP5 LT ISZERO PUSH2 0x11DC JUMPI PUSH1 0x40 MLOAD PUSH3 0x461BCD PUSH1 0xE5 SHL DUP2 MSTORE PUSH1 0x20 PUSH1 0x4 DUP3 ADD MSTORE PUSH1 0x17 PUSH1 0x24 DUP3 ADD MSTORE PUSH32 0x53636F726520746F6F206C6F7720666F72206C6576656C000000000000000000 PUSH1 0x44 DUP3 ADD MSTORE PUSH1 0x64 ADD PUSH2 0x44D JUMP JUMPDEST PUSH1 0x0 PUSH2 0x11EA DUP5 PUSH2 0x3E8 PUSH2 0x1672 JUMP JUMPDEST SWAP1 POP DUP1 DUP6 GT ISZERO PUSH2 0x123C JUMPI PUSH1 0x40 MLOAD PUSH3 0x461BCD PUSH1 0xE5 SHL DUP2 MSTORE PUSH1 0x20 PUSH1 0x4 DUP3 ADD MSTORE PUSH1 0x18 PUSH1 0x24 DUP3 ADD MSTORE PUSH32 0x53636F726520746F6F206869676820666F72206C6576656C0000000000000000 PUSH1 0x44 DUP3 ADD MSTORE PUSH1 0x64 ADD PUSH2 0x44D JUMP JUMPDEST DUP5 DUP7 PUSH1 0x40 ADD CALLDATALOAD EQ PUSH2 0x128F JUMPI PUSH1 0x40 MLOAD PUSH3 0x461BCD PUSH1 0xE5 SHL DUP2 MSTORE PUSH1 0x20 PUSH1 0x4 DUP3 ADD MSTORE PUSH1 0x1C PUSH1 0x24 DUP3 ADD MSTORE PUSH32 0x53636F7265206D69736D617463682077697468206D6574616461746100000000 PUSH1 0x44 DUP3 ADD MSTORE PUSH1 0x64 ADD PUSH2 0x44D JUMP JUMPDEST POP POP POP POP POP POP JUMP JUMPDEST PUSH1 0x0 PUSH2 0x12A3 DUP4 DUP4 PUSH2 0x925 JUMP JUMPDEST ISZERO PUSH2 0xC13 JUMPI PUSH1 0x0 DUP4 DUP2 MSTORE PUSH1 0x20 DUP2 DUP2 MSTORE PUSH1 0x40 DUP1 DUP4 KECCAK256 PUSH1 0x1 PUSH1 0x1 PUSH1 0xA0 SHL SUB DUP7 AND DUP1 DUP6 MSTORE SWAP3 MSTORE DUP1 DUP4 KECCAK256 DUP1 SLOAD PUSH1 0xFF NOT AND SWAP1 SSTORE MLOAD CALLER SWAP3 DUP7 SWAP2 PUSH32 0xF6391F5C32D9C69D2A47EA670B442974B53935D1EDC7FD64EB21E047A839171B SWAP2 SWAP1 LOG4 POP PUSH1 0x1 PUSH2 0x32D JUMP JUMPDEST PUSH2 0x130C DUP3 DUP3 PUSH2 0x925 JUMP JUMPDEST PUSH2 0x101D JUMPI PUSH1 0x40 MLOAD PUSH4 0xE2517D3F PUSH1 0xE0 SHL DUP2 MSTORE PUSH1 0x1 PUSH1 0x1 PUSH1 0xA0 SHL SUB DUP3 AND PUSH1 0x4 DUP3 ADD MSTORE PUSH1 0x24 DUP2 ADD DUP4 SWAP1 MSTORE PUSH1 0x44 ADD PUSH2 0x44D JUMP JUMPDEST PUSH1 0x0 PUSH1 0x20 DUP3 DUP5 SUB SLT ISZERO PUSH2 0x134D JUMPI PUSH1 0x0 DUP1 REVERT JUMPDEST DUP2 CALLDATALOAD PUSH1 0x1 PUSH1 0x1 PUSH1 0xE0 SHL SUB NOT DUP2 AND DUP2 EQ PUSH2 0x1365 JUMPI PUSH1 0x0 DUP1 REVERT JUMPDEST SWAP4 SWAP3 POP POP POP JUMP JUMPDEST PUSH1 0x0 PUSH1 0x20 DUP3 DUP5 SUB SLT ISZERO PUSH2 0x137E JUMPI PUSH1 0x0 DUP1 REVERT JUMPDEST POP CALLDATALOAD SWAP2 SWAP1 POP JUMP JUMPDEST DUP1 CALLDATALOAD PUSH1 0x1 PUSH1 0x1 PUSH1 0xA0 SHL SUB DUP2 AND DUP2 EQ PUSH2 0x139C JUMPI PUSH1 0x0 DUP1 REVERT JUMPDEST SWAP2 SWAP1 POP JUMP JUMPDEST DUP1 CALLDATALOAD PUSH1 0x5 DUP2 LT PUSH2 0x139C JUMPI PUSH1 0x0 DUP1 REVERT JUMPDEST PUSH1 0x0 DUP1 PUSH1 0x40 DUP4 DUP6 SUB SLT ISZERO PUSH2 0x13C3 JUMPI PUSH1 0x0 DUP1 REVERT JUMPDEST PUSH2 0x13CC DUP4 PUSH2 0x1385 JUMP JUMPDEST SWAP2 POP PUSH2 0x13DA PUSH1 0x20 DUP5 ADD PUSH2 0x13A1 JUMP JUMPDEST SWAP1 POP SWAP3 POP SWAP3 SWAP1 POP JUMP JUMPDEST PUSH1 0x0 DUP1 PUSH1 0x40 DUP4 DUP6 SUB SLT ISZERO PUSH2 0x13F6 JUMPI PUSH1 0x0 DUP1 REVERT JUMPDEST DUP3 CALLDATALOAD SWAP2 POP PUSH2 0x13DA PUSH1 0x20 DUP5 ADD PUSH2 0x1385 JUMP JUMPDEST PUSH1 0x0 PUSH1 0x20 DUP3 DUP5 SUB SLT ISZERO PUSH2 0x1418 JUMPI PUSH1 0x0 DUP1 REVERT JUMPDEST PUSH2 0x1365 DUP3 PUSH2 0x13A1 JUMP JUMPDEST PUSH1 0x0 PUSH1 0x20 DUP3 DUP5 SUB SLT ISZERO PUSH2 0x1433 JUMPI PUSH1 0x0 DUP1 REVERT JUMPDEST DUP2 CALLDATALOAD PUSH8 0xFFFFFFFFFFFFFFFF DUP2 GT ISZERO PUSH2 0x144A JUMPI PUSH1 0x0 DUP1 REVERT JUMPDEST DUP3 ADD PUSH1 0xC0 DUP2 DUP6 SUB SLT ISZERO PUSH2 0x1365 JUMPI PUSH1 0x0 DUP1 REVERT JUMPDEST PUSH1 0x0 DUP1 PUSH1 0x40 DUP4 DUP6 SUB SLT ISZERO PUSH2 0x146F JUMPI PUSH1 0x0 DUP1 REVERT JUMPDEST PUSH2 0x1478 DUP4 PUSH2 0x13A1 JUMP JUMPDEST SWAP5 PUSH1 0x20 SWAP4 SWAP1 SWAP4 ADD CALLDATALOAD SWAP4 POP POP POP JUMP JUMPDEST PUSH4 0x4E487B71 PUSH1 0xE0 SHL PUSH1 0x0 MSTORE PUSH1 0x21 PUSH1 0x4 MSTORE PUSH1 0x24 PUSH1 0x0 REVERT JUMPDEST PUSH4 0x4E487B71 PUSH1 0xE0 SHL PUSH1 0x0 MSTORE PUSH1 0x11 PUSH1 0x4 MSTORE PUSH1 0x24 PUSH1 0x0 REVERT JUMPDEST DUP1 DUP3 ADD DUP1 DUP3 GT ISZERO PUSH2 0x32D JUMPI PUSH2 0x32D PUSH2 0x149C JUMP JUMPDEST PUSH1 0x0 PUSH1 0x20 DUP3 DUP5 SUB SLT ISZERO PUSH2 0x14D7 JUMPI PUSH1 0x0 DUP1 REVERT JUMPDEST PUSH2 0x1365 DUP3 PUSH2 0x1385 JUMP JUMPDEST DUP2 DUP2 SUB DUP2 DUP2 GT ISZERO PUSH2 0x32D JUMPI PUSH2 0x32D PUSH2 0x149C JUMP JUMPDEST PUSH1 0x5 DUP2 LT PUSH2 0x1511 JUMPI PUSH4 0x4E487B71 PUSH1 0xE0 SHL PUSH1 0x0 MSTORE PUSH1 0x21 PUSH1 0x4 MSTORE PUSH1 0x24 PUSH1 0x0 REVERT JUMPDEST SWAP1 MSTORE JUMP JUMPDEST PUSH1 0x60 DUP2 ADD PUSH2 0x1523 DUP3 DUP7 PUSH2 0x14F3 JUMP JUMPDEST PUSH1 0x20 DUP3 ADD SWAP4 SWAP1 SWAP4 MSTORE PUSH1 0x40 ADD MSTORE SWAP2 SWAP1 POP JUMP JUMPDEST PUSH1 0x0 DUP1 DUP4 CALLDATALOAD PUSH1 0x1E NOT DUP5 CALLDATASIZE SUB ADD DUP2 SLT PUSH2 0x154B JUMPI PUSH1 0x0 DUP1 REVERT JUMPDEST DUP4 ADD DUP1 CALLDATALOAD SWAP2 POP PUSH8 0xFFFFFFFFFFFFFFFF DUP3 GT ISZERO PUSH2 0x1566 JUMPI PUSH1 0x0 DUP1 REVERT JUMPDEST PUSH1 0x20 ADD SWAP2 POP PUSH1 0x5 DUP2 SWAP1 SHL CALLDATASIZE SUB DUP3 SGT ISZERO PUSH2 0x157E JUMPI PUSH1 0x0 DUP1 REVERT JUMPDEST SWAP3 POP SWAP3 SWAP1 POP JUMP JUMPDEST PUSH1 0x0 PUSH1 0x5 DUP9 LT PUSH2 0x15A5 JUMPI PUSH4 0x4E487B71 PUSH1 0xE0 SHL PUSH1 0x0 MSTORE PUSH1 0x21 PUSH1 0x4 MSTORE PUSH1 0x24 PUSH1 0x0 REVERT JUMPDEST PUSH1 0xF8 DUP9 SWAP1 SHL DUP3 MSTORE PUSH1 0x60 DUP8 SWAP1 SHL PUSH12 0xFFFFFFFFFFFFFFFFFFFFFFFF NOT AND PUSH1 0x1 DUP4 ADD MSTORE PUSH1 0x15 DUP3 ADD DUP7 SWAP1 MSTORE PUSH1 0x35 DUP3 ADD DUP6 SWAP1 MSTORE PUSH1 0x1 PUSH1 0x1 PUSH1 0xFB SHL SUB DUP4 GT ISZERO PUSH2 0x15E7 JUMPI PUSH1 0x0 DUP1 REVERT JUMPDEST DUP3 PUSH1 0x5 SHL DUP1 DUP6 PUSH1 0x55 DUP6 ADD CALLDATACOPY SWAP2 SWAP1 SWAP2 ADD PUSH1 0x55 ADD SWAP8 SWAP7 POP POP POP POP POP POP POP JUMP JUMPDEST PUSH1 0x40 DUP2 ADD PUSH2 0x1612 DUP3 DUP6 PUSH2 0x14F3 JUMP JUMPDEST DUP3 PUSH1 0x20 DUP4 ADD MSTORE SWAP4 SWAP3 POP POP POP JUMP JUMPDEST PUSH1 0x20 DUP2 ADD PUSH2 0x32D DUP3 DUP5 PUSH2 0x14F3 JUMP JUMPDEST PUSH1 0x20 DUP1 DUP3 MSTORE PUSH1 0x15 SWAP1 DUP3 ADD MSTORE PUSH21 0x4D697373696E672067616D65206D65746164617461 PUSH1 0x58 SHL PUSH1 0x40 DUP3 ADD MSTORE PUSH1 0x60 ADD SWAP1 JUMP JUMPDEST PUSH4 0x4E487B71 PUSH1 0xE0 SHL PUSH1 0x0 MSTORE PUSH1 0x32 PUSH1 0x4 MSTORE PUSH1 0x24 PUSH1 0x0 REVERT JUMPDEST DUP1 DUP3 MUL DUP2 ISZERO DUP3 DUP3 DIV DUP5 EQ OR PUSH2 0x32D JUMPI PUSH2 0x32D PUSH2 0x149C JUMP INVALID SWAP12 PUSH26 0x46ABD96DCCBE6CFC6CC2C13300AB429D93E16FA72DC459EECCDA PUSH20 0x817F08A2646970667358221220AE96DA378545EE 0xD5 0xC 0xB9 0xCC 0x21 SWAP10 PUSH8 0x2F1CB43BB91BA4A3 0x2A GAS 0xB8 0xA7 PC PUSH27 0x12922B3F64736F6C634300081800338A4C3E88784CD877ADA8BE9F NUMBER 0xEF 0xC7 CALLDATASIZE 0xC4 CALLVALUE PUSH6 0x2CBD9AC3FC2C LOG0 SMOD SWAP6 0xBD TSTORE 0xA9 0xE7 "},"methodIdentifiers":{"DEFAULT_ADMIN_ROLE()":"a217fddf","GAME_ADMIN_ROLE()":"be22d27d","MIN_GAME_INTERVAL()":"e84b2780","canPlayerPlay(address,uint8)":"2b446be9","computeGameHash((uint8,address,uint256,uint256,bytes32,uint256[]))":"5026f42b","disableGame(uint8)":"f010b541","enableGame(uint8)":"c2c9a884","gameEnabled(uint8)":"4ac0326e","getGameInfo(uint8)":"ce863cd8","getRoleAdmin(bytes32)":"248a9ca3","grantRole(bytes32,address)":"2f2ff15d","hasRole(bytes32,address)":"91d14854","lastPlayedTime(address,uint8)":"c54a41eb","maxScores(uint8)":"30e10425","renounceRole(bytes32,address)":"36568abe","revokeRole(bytes32,address)":"d547741f","supportsInterface(bytes4)":"01ffc9a7","updateMaxScore(uint8,uint256)":"53c2a81e","verifyGameResult((uint8,address,uint256,uint256,bytes32,uint256[]))":"35c34ae9"}}}}}