{"contracts/GameInstance.sol":{"GameInstance":{"abi":[{"inputs":[],"name":"AccessControlBadConfirmation","type":"error"},{"inputs":[{"internalType":"address","name":"account","type":"address"},{"internalType":"bytes32","name":"neededRole","type":"bytes32"}],"name":"AccessControlUnauthorizedAccount","type":"error"},{"anonymous":false,"inputs":[{"indexed":false,"internalType":"address","name":"player","type":"address"},{"indexed":false,"internalType":"uint256","name":"amount","type":"uint256"}],"name":"FeeRefund","type":"event"},{"anonymous":false,"inputs":[{"indexed":true,"internalType":"address","name":"creator","type":"address"},{"indexed":false,"internalType":"uint256","name":"refundAmount","type":"uint256"}],"name":"GameCanceled","type":"event"},{"anonymous":false,"inputs":[],"name":"GameStarted","type":"event"},{"anonymous":false,"inputs":[{"indexed":false,"internalType":"address","name":"creator","type":"address"},{"indexed":false,"internalType":"string","name":"title","type":"string"}],"name":"Initialized","type":"event"},{"anonymous":false,"inputs":[{"indexed":false,"internalType":"address","name":"player","type":"address"}],"name":"PlayerJoined","type":"event"},{"anonymous":false,"inputs":[{"indexed":true,"internalType":"address","name":"player","type":"address"},{"indexed":false,"internalType":"uint256","name":"feeRefunded","type":"uint256"}],"name":"PlayerUnregistered","type":"event"},{"anonymous":false,"inputs":[{"indexed":false,"internalType":"address","name":"winner","type":"address"},{"indexed":false,"internalType":"uint256","name":"amount","type":"uint256"}],"name":"PrizeDistributed","type":"event"},{"anonymous":false,"inputs":[{"indexed":true,"internalType":"bytes32","name":"role","type":"bytes32"},{"indexed":true,"internalType":"bytes32","name":"previousAdminRole","type":"bytes32"},{"indexed":true,"internalType":"bytes32","name":"newAdminRole","type":"bytes32"}],"name":"RoleAdminChanged","type":"event"},{"anonymous":false,"inputs":[{"indexed":true,"internalType":"bytes32","name":"role","type":"bytes32"},{"indexed":true,"internalType":"address","name":"account","type":"address"},{"indexed":true,"internalType":"address","name":"sender","type":"address"}],"name":"RoleGranted","type":"event"},{"anonymous":false,"inputs":[{"indexed":true,"internalType":"bytes32","name":"role","type":"bytes32"},{"indexed":true,"internalType":"address","name":"account","type":"address"},{"indexed":true,"internalType":"address","name":"sender","type":"address"}],"name":"RoleRevoked","type":"event"},{"anonymous":false,"inputs":[{"indexed":false,"internalType":"address","name":"player","type":"address"},{"indexed":false,"internalType":"uint256","name":"score","type":"uint256"}],"name":"ScoreSubmitted","type":"event"},{"anonymous":false,"inputs":[{"indexed":false,"internalType":"address[]","name":"winner","type":"address[]"}],"name":"WinnersSet","type":"event"},{"inputs":[],"name":"CREATOR_ROLE","outputs":[{"internalType":"bytes32","name":"","type":"bytes32"}],"stateMutability":"view","type":"function"},{"inputs":[],"name":"DEFAULT_ADMIN_ROLE","outputs":[{"internalType":"bytes32","name":"","type":"bytes32"}],"stateMutability":"view","type":"function"},{"inputs":[],"name":"cancelGame","outputs":[],"stateMutability":"nonpayable","type":"function"},{"inputs":[],"name":"cancelRegistration","outputs":[],"stateMutability":"nonpayable","type":"function"},{"inputs":[],"name":"claimPrize","outputs":[],"stateMutability":"nonpayable","type":"function"},{"inputs":[],"name":"claimRefund","outputs":[],"stateMutability":"nonpayable","type":"function"},{"inputs":[],"name":"creator","outputs":[{"internalType":"address","name":"","type":"address"}],"stateMutability":"view","type":"function"},{"inputs":[],"name":"description","outputs":[{"internalType":"string","name":"","type":"string"}],"stateMutability":"view","type":"function"},{"inputs":[],"name":"distributePrize","outputs":[],"stateMutability":"nonpayable","type":"function"},{"inputs":[],"name":"distributionType","outputs":[{"internalType":"enum Types.PrizeDistributionType","name":"","type":"uint8"}],"stateMutability":"view","type":"function"},{"inputs":[],"name":"entryFee","outputs":[{"internalType":"uint256","name":"","type":"uint256"}],"stateMutability":"view","type":"function"},{"inputs":[],"name":"feeToken","outputs":[{"internalType":"address","name":"","type":"address"}],"stateMutability":"view","type":"function"},{"inputs":[],"name":"gameRegistry","outputs":[{"internalType":"address","name":"","type":"address"}],"stateMutability":"view","type":"function"},{"inputs":[{"internalType":"address","name":"","type":"address"}],"name":"gameResults","outputs":[{"internalType":"enum Types.GameType","name":"gameType","type":"uint8"},{"internalType":"address","name":"player","type":"address"},{"internalType":"uint256","name":"score","type":"uint256"},{"internalType":"uint256","name":"timestamp","type":"uint256"},{"internalType":"bytes32","name":"gameHash","type":"bytes32"}],"stateMutability":"view","type":"function"},{"inputs":[],"name":"gameStartTime","outputs":[{"internalType":"uint256","name":"","type":"uint256"}],"stateMutability":"view","type":"function"},{"inputs":[],"name":"gameType","outputs":[{"internalType":"enum Types.GameType","name":"","type":"uint8"}],"stateMutability":"view","type":"function"},{"inputs":[],"name":"getGameData","outputs":[{"components":[{"internalType":"address","name":"creator","type":"address"},{"internalType":"string","name":"title","type":"string"},{"internalType":"string","name":"description","type":"string"},{"internalType":"enum Types.GameStatus","name":"status","type":"uint8"},{"internalType":"enum Types.GameType","name":"gameType","type":"uint8"},{"internalType":"uint256","name":"maxPlayers","type":"uint256"},{"internalType":"uint256","name":"playerCount","type":"uint256"},{"internalType":"uint256","name":"registrationEndTime","type":"uint256"},{"internalType":"uint256","name":"gameStartTime","type":"uint256"},{"internalType":"address","name":"feeToken","type":"address"},{"internalType":"uint256","name":"entryFee","type":"uint256"},{"internalType":"address","name":"prizeToken","type":"address"},{"internalType":"uint256","name":"prizePool","type":"uint256"}],"internalType":"struct Types.GameData","name":"","type":"tuple"}],"stateMutability":"view","type":"function"},{"inputs":[{"internalType":"address","name":"player","type":"address"}],"name":"getPlayerGameResult","outputs":[{"components":[{"internalType":"enum Types.GameType","name":"gameType","type":"uint8"},{"internalType":"address","name":"player","type":"address"},{"internalType":"uint256","name":"score","type":"uint256"},{"internalType":"uint256","name":"timestamp","type":"uint256"},{"internalType":"bytes32","name":"gameHash","type":"bytes32"},{"internalType":"uint256[]","name":"metadata","type":"uint256[]"}],"internalType":"struct Types.GameResult","name":"","type":"tuple"}],"stateMutability":"view","type":"function"},{"inputs":[{"internalType":"address","name":"player","type":"address"}],"name":"getPlayerScore","outputs":[{"internalType":"uint256","name":"","type":"uint256"}],"stateMutability":"view","type":"function"},{"inputs":[{"internalType":"bytes32","name":"role","type":"bytes32"}],"name":"getRoleAdmin","outputs":[{"internalType":"bytes32","name":"","type":"bytes32"}],"stateMutability":"view","type":"function"},{"inputs":[{"internalType":"bytes32","name":"role","type":"bytes32"},{"internalType":"address","name":"account","type":"address"}],"name":"grantRole","outputs":[],"stateMutability":"nonpayable","type":"function"},{"inputs":[{"internalType":"bytes32","name":"role","type":"bytes32"},{"internalType":"address","name":"account","type":"address"}],"name":"hasRole","outputs":[{"internalType":"bool","name":"","type":"bool"}],"stateMutability":"view","type":"function"},{"inputs":[{"components":[{"internalType":"string","name":"title","type":"string"},{"internalType":"string","name":"description","type":"string"},{"internalType":"enum Types.GameType","name":"gameType","type":"uint8"},{"internalType":"address","name":"feeTokenAddress","type":"address"},{"internalType":"uint256","name":"entryFee","type":"uint256"},{"internalType":"uint256","name":"minPlayers","type":"uint256"},{"internalType":"uint256","name":"maxPlayers","type":"uint256"},{"internalType":"uint256","name":"registrationEndTime","type":"uint256"},{"internalType":"uint256","name":"gameStartTime","type":"uint256"},{"internalType":"address","name":"prizeTokenAddress","type":"address"},{"internalType":"uint256","name":"prizePool","type":"uint256"},{"internalType":"enum Types.PrizeDistributionType","name":"distributionType","type":"uint8"},{"internalType":"uint256[]","name":"rankPrizes","type":"uint256[]"}],"internalType":"struct Types.GameConfig","name":"config","type":"tuple"},{"internalType":"address","name":"_creator","type":"address"}],"name":"initialize","outputs":[],"stateMutability":"nonpayable","type":"function"},{"inputs":[{"internalType":"address","name":"","type":"address"}],"name":"isJoined","outputs":[{"internalType":"bool","name":"","type":"bool"}],"stateMutability":"view","type":"function"},{"inputs":[],"name":"joinGame","outputs":[],"stateMutability":"nonpayable","type":"function"},{"inputs":[],"name":"maxPlayers","outputs":[{"internalType":"uint256","name":"","type":"uint256"}],"stateMutability":"view","type":"function"},{"inputs":[],"name":"minPlayers","outputs":[{"internalType":"uint256","name":"","type":"uint256"}],"stateMutability":"view","type":"function"},{"inputs":[{"internalType":"uint256","name":"","type":"uint256"}],"name":"players","outputs":[{"internalType":"address","name":"player","type":"address"},{"internalType":"uint256","name":"score","type":"uint256"}],"stateMutability":"view","type":"function"},{"inputs":[],"name":"prizePool","outputs":[{"internalType":"uint256","name":"","type":"uint256"}],"stateMutability":"view","type":"function"},{"inputs":[{"internalType":"address","name":"","type":"address"}],"name":"prizeToClaimsAmount","outputs":[{"internalType":"uint256","name":"","type":"uint256"}],"stateMutability":"view","type":"function"},{"inputs":[],"name":"prizeToken","outputs":[{"internalType":"address","name":"","type":"address"}],"stateMutability":"view","type":"function"},{"inputs":[{"internalType":"uint256","name":"","type":"uint256"}],"name":"rankPrizes","outputs":[{"internalType":"uint256","name":"","type":"uint256"}],"stateMutability":"view","type":"function"},{"inputs":[],"name":"registrationEndTime","outputs":[{"internalType":"uint256","name":"","type":"uint256"}],"stateMutability":"view","type":"function"},{"inputs":[{"internalType":"bytes32","name":"role","type":"bytes32"},{"internalType":"address","name":"callerConfirmation","type":"address"}],"name":"renounceRole","outputs":[],"stateMutability":"nonpayable","type":"function"},{"inputs":[{"internalType":"bytes32","name":"role","type":"bytes32"},{"internalType":"address","name":"account","type":"address"}],"name":"revokeRole","outputs":[],"stateMutability":"nonpayable","type":"function"},{"inputs":[{"internalType":"address","name":"_gameRegistry","type":"address"}],"name":"setGameRegistry","outputs":[],"stateMutability":"nonpayable","type":"function"},{"inputs":[{"internalType":"address[]","name":"_winners","type":"address[]"}],"name":"setWinners","outputs":[],"stateMutability":"nonpayable","type":"function"},{"inputs":[],"name":"startGame","outputs":[],"stateMutability":"nonpayable","type":"function"},{"inputs":[],"name":"status","outputs":[{"internalType":"enum Types.GameStatus","name":"","type":"uint8"}],"stateMutability":"view","type":"function"},{"inputs":[{"components":[{"internalType":"enum Types.GameType","name":"gameType","type":"uint8"},{"internalType":"address","name":"player","type":"address"},{"internalType":"uint256","name":"score","type":"uint256"},{"internalType":"uint256","name":"timestamp","type":"uint256"},{"internalType":"bytes32","name":"gameHash","type":"bytes32"},{"internalType":"uint256[]","name":"metadata","type":"uint256[]"}],"internalType":"struct Types.GameResult","name":"result","type":"tuple"}],"name":"submitGameResult","outputs":[],"stateMutability":"nonpayable","type":"function"},{"inputs":[{"internalType":"uint256","name":"score","type":"uint256"}],"name":"submitScore","outputs":[],"stateMutability":"nonpayable","type":"function"},{"inputs":[{"internalType":"bytes4","name":"interfaceId","type":"bytes4"}],"name":"supportsInterface","outputs":[{"internalType":"bool","name":"","type":"bool"}],"stateMutability":"view","type":"function"},{"inputs":[],"name":"title","outputs":[{"internalType":"string","name":"","type":"string"}],"stateMutability":"view","type":"function"},{"inputs":[{"internalType":"uint256","name":"","type":"uint256"}],"name":"winners","outputs":[{"internalType":"address","name":"","type":"address"}],"stateMutability":"view","type":"function"}],"evm":{"bytecode":{"linkReferences":{},"object":"608060405234801561001057600080fd5b50613726806100206000396000f3fe608060405234801561001057600080fd5b50600436106102745760003560e01c806384da242d11610151578063d0ef024a116100c3578063da09075511610087578063da0907551461058b578063dd898b2f146105a3578063dff7d2c7146105b6578063e085c539146105bf578063e5a078a7146105e8578063f71d96cb146105f057600080fd5b8063d0ef024a1461054d578063d4f77b1c14610560578063d547741f14610568578063d65ab5f21461057b578063d84c1ac91461058357600080fd5b8063a59fffcb11610115578063a59fffcb146104dd578063af4e99de146104f0578063aff0b29714610505578063b062e95014610518578063b5545a3c14610538578063bbdc02db1461054057600080fd5b806384da242d146104805780638aeda25a1461049a57806391d14854146104af578063a217fddf146104c2578063a2fb1175146104ca57600080fd5b8063445e6b39116101ea578063647846a5116101ae578063647846a51461043957806370740ac91461044c578063719ce73e146104545780637284e4161461045d57806377b6e504146104655780638233e4331461046d57600080fd5b8063445e6b39146103d25780634a79d50c146103e55780634c2412a2146103fa578063554c925c146104035780635e6a43f51461041657600080fd5b80631d75d7c21161023c5780631d75d7c21461030c578063200d2ed214610364578063248a9ca31461037e5780632770c895146103a15780632f2ff15d146103aa57806336568abe146103bf57600080fd5b806301ffc9a7146102795780630252b995146102a157806302d05d3f146102b8578063072ea61c146102e3578063140d6b94146102ec575b600080fd5b61028c610287366004612a0c565b610611565b60405190151581526020015b60405180910390f35b6102aa60095481565b604051908152602001610298565b6002546102cb906001600160a01b031681565b6040516001600160a01b039091168152602001610298565b6102aa600b5481565b6102ff6102fa366004612a62565b610648565b6040516102989190612ab2565b61035361031a366004612a62565b601660205260009081526040902080546001820154600283015460039093015460ff8316936101009093046001600160a01b0316929085565b604051610298959493929190612b4a565b6012546103719060ff1681565b6040516102989190612b81565b6102aa61038c366004612b94565b60009081526020819052604090206001015490565b6102aa60065481565b6103bd6103b8366004612bad565b61078a565b005b6103bd6103cd366004612bad565b6107b5565b6103bd6103e0366004612bdd565b6107ed565b6103ed610945565b6040516102989190612c98565b6102aa60075481565b6103bd610411366004612cab565b6109d3565b61028c610424366004612a62565b60146020526000908152604090205460ff1681565b600a546102cb906001600160a01b031681565b6103bd610d09565b6102aa600e5481565b6103ed610e39565b6103bd610e46565b6102aa61047b366004612b94565b61134a565b600f5461048d9060ff1681565b6040516102989190612ce6565b6102aa6000805160206136d183398151915281565b61028c6104bd366004612bad565b61136b565b6102aa600081565b6102cb6104d8366004612b94565b611394565b6103bd6104eb366004612e82565b6113be565b6104f86117b1565b6040516102989190612fd2565b6103bd610513366004612b94565b6119ac565b6102aa610526366004612a62565b60116020526000908152604090205481565b6103bd611ac4565b6005546103719060ff1681565b600d546102cb906001600160a01b031681565b6103bd611c43565b6103bd610576366004612bad565b611f22565b6103bd611f47565b6103bd6120a4565b6001546102cb9061010090046001600160a01b031681565b6103bd6105b1366004612a62565b61226d565b6102aa60085481565b6102aa6105cd366004612a62565b6001600160a01b031660009081526015602052604090205490565b6103bd6122f7565b6106036105fe366004612b94565b612709565b6040516102989291906130d8565b60006001600160e01b03198216637965db0b60e01b148061064257506301ffc9a760e01b6001600160e01b03198316145b92915050565b61068e6040805160c08101909152806000815260200160006001600160a01b03168152602001600081526020016000815260200160008019168152602001606081525090565b6001600160a01b03821660009081526016602052604090819020815160c081019092528054829060ff1660048111156106c9576106c9612a7f565b60048111156106da576106da612a7f565b81526020016000820160019054906101000a90046001600160a01b03166001600160a01b03166001600160a01b031681526020016001820154815260200160028201548152602001600382015481526020016004820180548060200260200160405190810160405280929190818152602001828054801561077a57602002820191906000526020600020905b815481526020019060010190808311610766575b5050505050815250509050919050565b6000828152602081905260409020600101546107a581612741565b6107af838361274e565b50505050565b6001600160a01b03811633146107de5760405163334bd91960e11b815260040160405180910390fd5b6107e882826127e0565b505050565b6000805160206136d183398151915261080581612741565b600160125460ff16600481111561081e5761081e612a7f565b146108445760405162461bcd60e51b815260040161083b906130f1565b60405180910390fd5b60005b828110156108eb57601460008585848181106108655761086561311b565b905060200201602081019061087a9190612a62565b6001600160a01b0316815260208101919091526040016000205460ff166108e35760405162461bcd60e51b815260206004820152601860248201527f54686572652069732077696e6e6572206e6f74206a6f696e0000000000000000604482015260640161083b565b600101610847565b506108f8601784846128c5565b506012805460ff191660021790556040517f8451dabc49a0b82cffb0a79a6771fe2718264aae54a4eff4d4463748813ec56f906109389085908590613131565b60405180910390a1505050565b6003805461095290613174565b80601f016020809104026020016040519081016040528092919081815260200182805461097e90613174565b80156109cb5780601f106109a0576101008083540402835291602001916109cb565b820191906000526020600020905b8154815290600101906020018083116109ae57829003601f168201915b505050505081565b600160125460ff1660048111156109ec576109ec612a7f565b14610a095760405162461bcd60e51b815260040161083b906130f1565b600954421015610a565760405162461bcd60e51b815260206004820152601860248201527711d85b59481a185cc81b9bdd081cdd185c9d1959081e595d60421b604482015260640161083b565b3360009081526014602052604090205460ff16610aa95760405162461bcd60e51b8152602060048201526011602482015270141b185e595c881b9bdd081a9bda5b9959607a1b604482015260640161083b565b60055460ff166004811115610ac057610ac0612a7f565b610acd60208301836131ae565b6004811115610ade57610ade612a7f565b14610b205760405162461bcd60e51b815260206004820152601260248201527108ec2daca40e8f2e0ca40dad2e6dac2e8c6d60731b604482015260640161083b565b33610b316040830160208401612a62565b6001600160a01b031614610b875760405162461bcd60e51b815260206004820152601760248201527f506c617965722061646472657373206d69736d61746368000000000000000000604482015260640161083b565b60015461010090046001600160a01b0316610bdb5760405162461bcd60e51b815260206004820152601460248201527311d85b59549959da5cdd1c9e481b9bdd081cd95d60621b604482015260640161083b565b6001546040516335c34ae960e01b81526101009091046001600160a01b03169060009082906335c34ae990610c149086906004016131fd565b6020604051808303816000875af1158015610c33573d6000803e3d6000fd5b505050506040513d601f19601f82011682018060405250810190610c5791906132bc565b905080610ca65760405162461bcd60e51b815260206004820152601f60248201527f47616d6520726573756c7420766572696669636174696f6e206661696c656400604482015260640161083b565b336000908152601560209081526040808320818701359055601690915290208390610cd182826133fa565b9050507fa578df9b0453d14d7ed8615ee0e9d58f70e041e91fc5865e3b71f81ea05296c03384604001356040516109389291906130d8565b3360009081526011602052604090205480610d5a5760405162461bcd60e51b81526020600482015260116024820152704e6f207072697a6520746f20636c61696d60781b604482015260640161083b565b3360008181526011602052604080822091909155600d54905163a9059cbb60e01b81526001600160a01b039091169163a9059cbb91610d9e919085906004016130d8565b6020604051808303816000875af1158015610dbd573d6000803e3d6000fd5b505050506040513d601f19601f82011682018060405250810190610de191906132bc565b610dfd5760405162461bcd60e51b815260040161083b90613489565b7fb8e091d87f82e56d22276c9a0088ea5d6068e355383dc08b2721b7b6cb10e8453382604051610e2e9291906130d8565b60405180910390a150565b6004805461095290613174565b6000805160206136d1833981519152610e5e81612741565b600260125460ff166004811115610e7757610e77612a7f565b14610eb55760405162461bcd60e51b815260206004820152600e60248201526d11d85b59481b9bdd08195b99195960921b604482015260640161083b565b601754610ef55760405162461bcd60e51b815260206004820152600e60248201526d139bc81dda5b9b995c9cc81cd95d60921b604482015260640161083b565b6000600e5411610f3d5760405162461bcd60e51b81526020600482015260136024820152725072697a6520706f6f6c20697320656d70747960681b604482015260640161083b565b600e805460009182905590600f5460ff166002811115610f5f57610f5f612a7f565b03610fbc5780601160006017600081548110610f7d57610f7d61311b565b60009182526020808320909101546001600160a01b0316835282019290925260400181208054909190610fb19084906134b2565b909155506113399050565b6001600f5460ff166002811115610fd557610fd5612a7f565b03611126576013546000610fe982846134db565b90506000610ff783856134ef565b905060005b838110156110685760008390508060116000601385815481106110215761102161311b565b600091825260208083206002909202909101546001600160a01b031683528201929092526040018120805490919061105a9084906134b2565b909155505050600101610ffc565b50600d5460025460405163a9059cbb60e01b81526001600160a01b039283169263a9059cbb9261109f9291169085906004016130d8565b6020604051808303816000875af11580156110be573d6000803e3d6000fd5b505050506040513d601f19601f820116820180604052508101906110e291906132bc565b61111e5760405162461bcd60e51b815260206004820152600d60248201526c1499599d5b990819985a5b1959609a1b604482015260640161083b565b505050611339565b6002600f5460ff16600281111561113f5761113f612a7f565b036113395760105460175411156111ae5760405162461bcd60e51b815260206004820152602d60248201527f57696e6e657273206c69737420657863656564732072616e6b207072697a652060448201526c31b7b73334b3bab930ba34b7b760991b606482015260840161083b565b6000805b601754811015611243576000601082815481106111d1576111d161311b565b906000526020600020015490506000811161122e5760405162461bcd60e51b815260206004820152601d60248201527f4d697373696e67207072697a6520636f6e66696720666f722072616e6b000000604482015260640161083b565b61123881846134b2565b9250506001016111b2565b5061271081111561128f5760405162461bcd60e51b81526020600482015260166024820152755072697a65204250532065786365656473203130302560501b604482015260640161083b565b60005b601754811015611336576000601082815481106112b1576112b161311b565b600091825260208220015491506127106112cb8387613345565b6112d591906134db565b90508060116000601786815481106112ef576112ef61311b565b60009182526020808320909101546001600160a01b03168352820192909252604001812080549091906113239084906134b2565b9091555050600190920191506112929050565b50505b50506012805460ff19166003179055565b6010818154811061135a57600080fd5b600091825260209091200154905081565b6000918252602082815260408084206001600160a01b0393909316845291905290205460ff1690565b601781815481106113a457600080fd5b6000918252602090912001546001600160a01b0316905081565b60015460ff16156114075760405162461bcd60e51b8152602060048201526013602482015272105b1c9958591e481a5b9a5d1a585b1a5e9959606a1b604482015260640161083b565b6001805460ff19168117905560e082015142106114665760405162461bcd60e51b815260206004820152601960248201527f52656720656e64206d75737420626520696e2066757475726500000000000000604482015260640161083b565b8160e0015182610100015110156114bf5760405162461bcd60e51b815260206004820152601e60248201527f47616d65206d7573742073746172742061667465722072656720656e64730000604482015260640161083b565b8160a001518260c00151101561150c5760405162461bcd60e51b815260206004820152601260248201527126b0bc1036bab9ba103132901f1e9026b4b760711b604482015260640161083b565b600280546001600160a01b0319166001600160a01b03831617905581516003906115369082613543565b5060208201516004906115499082613543565b506012805460ff199081169091556040830151600580549192909116600183600481111561157957611579612a7f565b02179055506060820151600a80546001600160a01b039283166001600160a01b0319918216179091556080840151600b5560a084015160065560c084015160075560e0840151600855610100840151600955610120840151600d8054919093169116179055610140820151600e55610160820151600f805460ff1916600183600281111561160957611609612a7f565b0217905550610180820151805161162891601091602090910190612928565b506002826101600151600281111561164257611642612a7f565b03611735576101808201515160105461169d5760405162461bcd60e51b815260206004820152601f60248201527f437573746f6d2072616e6b20636f6e66696720666f726d6174206572726f7200604482015260640161083b565b6000805b828110156116e657601081815481106116bc576116bc61311b565b9060005260206000200154826116d291906134b2565b91506116df6001826134b2565b90506116a1565b506127108111156117325760405162461bcd60e51b81526020600482015260166024820152755072697a65204250532065786365656473203130302560501b604482015260640161083b565b50505b61174060008261274e565b506117596000805160206136d18339815191528261274e565b506117736000805160206136d1833981519152600061284b565b7fc66e6cd41f805f65978f5241034e8d106c42cf3c7a4d62ccd857646b401cbe4a8160036040516117a5929190613607565b60405180910390a15050565b6117b9612963565b6117c1612963565b6002546001600160a01b03168152600380546117dc90613174565b80601f016020809104026020016040519081016040528092919081815260200182805461180890613174565b80156118555780601f1061182a57610100808354040283529160200191611855565b820191906000526020600020905b81548152906001019060200180831161183857829003601f168201915b505050505081602001819052506004805461186f90613174565b80601f016020809104026020016040519081016040528092919081815260200182805461189b90613174565b80156118e85780601f106118bd576101008083540402835291602001916118e8565b820191906000526020600020905b8154815290600101906020018083116118cb57829003601f168201915b50505050506040820152601254606082019060ff16600481111561190e5761190e612a7f565b9081600481111561192157611921612a7f565b905250600554608082019060ff16600481111561194057611940612a7f565b9081600481111561195357611953612a7f565b90525060075460a082015260135460c082015260085460e0820152600954610100820152600b54610140820152600a546001600160a01b03908116610120830152600e54610180830152600d5416610160820152919050565b600160125460ff1660048111156119c5576119c5612a7f565b146119e25760405162461bcd60e51b815260040161083b906130f1565b600954421015611a2f5760405162461bcd60e51b815260206004820152601860248201527711d85b59481a185cc81b9bdd081cdd185c9d1959081e595d60421b604482015260640161083b565b3360009081526014602052604090205460ff16611a825760405162461bcd60e51b8152602060048201526011602482015270141b185e595c881b9bdd081a9bda5b9959607a1b604482015260640161083b565b3360008181526015602052604090819020839055517fa578df9b0453d14d7ed8615ee0e9d58f70e041e91fc5865e3b71f81ea05296c091610e2e9184906130d8565b600460125460ff166004811115611add57611add612a7f565b14611b1e5760405162461bcd60e51b815260206004820152601160248201527011d85b59481b9bdd0818d85b98d95b1959607a1b604482015260640161083b565b336000908152600c602052604090205480611b6f5760405162461bcd60e51b81526020600482015260116024820152704e6f207072697a6520746f20636c61696d60781b604482015260640161083b565b336000818152600c602052604080822091909155600a54905163a9059cbb60e01b81526001600160a01b039091169163a9059cbb91611bb3919085906004016130d8565b6020604051808303816000875af1158015611bd2573d6000803e3d6000fd5b505050506040513d601f19601f82011682018060405250810190611bf691906132bc565b611c125760405162461bcd60e51b815260040161083b90613489565b7feb4706597fb7a2e8806c0e31ad4c334330a97bc3cae6b9c360e152c922bb40c83382604051610e2e9291906130d8565b600060125460ff166004811115611c5c57611c5c612a7f565b14611ca95760405162461bcd60e51b815260206004820152601a60248201527f47616d65206e6f7420616363657074696e6720706c6179657273000000000000604482015260640161083b565b6008544210611cfa5760405162461bcd60e51b815260206004820152601860248201527f526567697374726174696f6e2074696d65207061737365640000000000000000604482015260640161083b565b60075460135410611d435760405162461bcd60e51b815260206004820152601360248201527213585e081c1b185e595c9cc81c995858da1959606a1b604482015260640161083b565b3360009081526014602052604090205460ff1615611d945760405162461bcd60e51b815260206004820152600e60248201526d105b1c9958591e481a9bda5b995960921b604482015260640161083b565b600b5415611e3757600a54600b546040516323b872dd60e01b815233600482015230602482015260448101919091526001600160a01b03909116906323b872dd906064016020604051808303816000875af1158015611df7573d6000803e3d6000fd5b505050506040513d601f19601f82011682018060405250810190611e1b91906132bc565b611e375760405162461bcd60e51b815260040161083b90613489565b6040805180820182523380825260006020808401828152601380546001808201835591855295517f66de8ffda797e3de9c05e8fc57b3bf0ec28a930d40b0d285d93c06501cf6a090600290970296870180546001600160a01b0319166001600160a01b0390921691909117905590517f66de8ffda797e3de9c05e8fc57b3bf0ec28a930d40b0d285d93c06501cf6a09190950194909455600b54838352600c8252858320556014815290849020805460ff191690931790925591519182527f31e760aa525306aba638a784082a013b6a1cc0a9a1789f3f22281c0453b10b1f910160405180910390a1565b600082815260208190526040902060010154611f3d81612741565b6107af83836127e0565b6000805160206136d1833981519152611f5f81612741565b600060125460ff166004811115611f7857611f78612a7f565b14611fc55760405162461bcd60e51b815260206004820152601a60248201527f47616d65206e6f7420696e204372656174656420737461747573000000000000604482015260640161083b565b6008544210156120175760405162461bcd60e51b815260206004820152601c60248201527f526567697374726174696f6e206973206e6f74206f7665722079657400000000604482015260640161083b565b600654601354101561206b5760405162461bcd60e51b815260206004820152601b60248201527f4e6f7420656e6f75676820706c617965727320746f2073746172740000000000604482015260640161083b565b6012805460ff191660011790556040517f762f260439bb4be3ef6e4dc2786e2e7bd187d3d80b79057d7a424fe98563e33590600090a150565b6000805160206136d18339815191526120bc81612741565b600060125460ff1660048111156120d5576120d5612a7f565b14806120f75750600160125460ff1660048111156120f5576120f5612a7f565b145b6121565760405162461bcd60e51b815260206004820152602a60248201527f43616e6e6f742063616e63656c20616e20656e646564206f722064697374726960448201526962757465642067616d6560b01b606482015260840161083b565b600e805460009091556012805460ff19166004179055801561222757600d5460025460405163a9059cbb60e01b81526001600160a01b039283169263a9059cbb926121a89291169085906004016130d8565b6020604051808303816000875af11580156121c7573d6000803e3d6000fd5b505050506040513d601f19601f820116820180604052508101906121eb91906132bc565b6122275760405162461bcd60e51b815260206004820152600d60248201526c1499599d5b990819985a5b1959609a1b604482015260640161083b565b6002546040518281526001600160a01b03909116907fcabd9ffa4ff52290e56c52a9ed671760a0e5951eaa234fd9e0ccccf507bf98ca9060200160405180910390a25050565b600061227881612741565b6001600160a01b0382166122ce5760405162461bcd60e51b815260206004820152601d60248201527f496e76616c69642067616d652072656769737472792061646472657373000000604482015260640161083b565b50600180546001600160a01b0390921661010002610100600160a81b0319909216919091179055565b6008543390421061234a5760405162461bcd60e51b815260206004820152601960248201527f526567697374726174696f6e2074696d65206973206f76657200000000000000604482015260640161083b565b600060125460ff16600481111561236357612363612a7f565b146123b05760405162461bcd60e51b815260206004820181905260248201527f47616d6520697320616c7265616479206f6e676f696e67206f7220656e646564604482015260640161083b565b6001600160a01b0381166000908152600c60205260409020548061242c5760405162461bcd60e51b815260206004820152602d60248201527f506c6179657220686173206e6f74206a6f696e6564206f722066656520616c7260448201526c1958591e481c99599d5b991959609a1b606482015260840161083b565b600080805b60135481101561248b57846001600160a01b0316601382815481106124585761245861311b565b60009182526020909120600290910201546001600160a01b031603612483578092506001915061248b565b600101612431565b50806124ea5760405162461bcd60e51b815260206004820152602860248201527f496e7465726e616c206572726f723a20506c61796572206e6f7420666f756e64604482015267081a5b881b1a5cdd60c21b606482015260840161083b565b6013546000906124fc906001906136a7565b905080831461257257601381815481106125185761251861311b565b9060005260206000209060020201601384815481106125395761253961311b565b60009182526020909120825460029092020180546001600160a01b0319166001600160a01b039092169190911781556001918201549101555b6013805480612583576125836136ba565b6000828152602080822060026000199094019384020180546001600160a01b0319168155600101829055919092556001600160a01b0387168252600c905260408120819055600e80548692906125da9084906136a7565b90915550506001600160a01b038086166000908152601460209081526040808320805460ff19169055601590915280822091909155600a54905163a9059cbb60e01b815291169063a9059cbb9061263790889088906004016130d8565b6020604051808303816000875af1158015612656573d6000803e3d6000fd5b505050506040513d601f19601f8201168201806040525081019061267a91906132bc565b6126bf5760405162461bcd60e51b81526020600482015260166024820152751499599d5b99081d1c985b9cd9995c8819985a5b195960521b604482015260640161083b565b846001600160a01b03167fbddaec5e3db6d33ac9b0043f3c92cf3d081b19f8646f372eb3a68a51e273a104856040516126fa91815260200190565b60405180910390a25050505050565b6013818154811061271957600080fd5b6000918252602090912060029091020180546001909101546001600160a01b03909116915082565b61274b8133612896565b50565b600061275a838361136b565b6127d8576000838152602081815260408083206001600160a01b03861684529091529020805460ff191660011790556127903390565b6001600160a01b0316826001600160a01b0316847f2f8788117e7eff1d82e926ec794901d17c78024a50270940304540a733656f0d60405160405180910390a4506001610642565b506000610642565b60006127ec838361136b565b156127d8576000838152602081815260408083206001600160a01b0386168085529252808320805460ff1916905551339286917ff6391f5c32d9c69d2a47ea670b442974b53935d1edc7fd64eb21e047a839171b9190a4506001610642565b600082815260208190526040808220600101805490849055905190918391839186917fbd79b86ffe0ab8e8776151514217cd7cacd52c909f66475c3af44e129f0b00ff9190a4505050565b6128a0828261136b565b6128c157808260405163e2517d3f60e01b815260040161083b9291906130d8565b5050565b828054828255906000526020600020908101928215612918579160200282015b828111156129185781546001600160a01b0319166001600160a01b038435161782556020909201916001909101906128e5565b506129249291506129f7565b5090565b828054828255906000526020600020908101928215612918579160200282015b82811115612918578251825591602001919060010190612948565b604051806101a0016040528060006001600160a01b031681526020016060815260200160608152602001600060048111156129a0576129a0612a7f565b8152602001600081526020016000815260200160008152602001600081526020016000815260200160006001600160a01b031681526020016000815260200160006001600160a01b03168152602001600081525090565b5b8082111561292457600081556001016129f8565b600060208284031215612a1e57600080fd5b81356001600160e01b031981168114612a3657600080fd5b9392505050565b6001600160a01b038116811461274b57600080fd5b8035612a5d81612a3d565b919050565b600060208284031215612a7457600080fd5b8135612a3681612a3d565b634e487b7160e01b600052602160045260246000fd5b6005811061274b5761274b612a7f565b612aae81612a95565b9052565b6000602080835260e083018451612ac881612a95565b80838601525060018060a01b03828601511660408501526040850151606085015260608501516080850152608085015160a085015260a085015160c080860152818151808452610100870191508483019350600092505b80831015612b3f5783518252928401926001929092019190840190612b1f565b509695505050505050565b60a08101612b5787612a95565b9581526001600160a01b039490941660208501526040840192909252606083015260809091015290565b60208101612b8e83612a95565b91905290565b600060208284031215612ba657600080fd5b5035919050565b60008060408385031215612bc057600080fd5b823591506020830135612bd281612a3d565b809150509250929050565b60008060208385031215612bf057600080fd5b823567ffffffffffffffff80821115612c0857600080fd5b818501915085601f830112612c1c57600080fd5b813581811115612c2b57600080fd5b8660208260051b8501011115612c4057600080fd5b60209290920196919550909350505050565b6000815180845260005b81811015612c7857602081850181015186830182015201612c5c565b506000602082860101526020601f19601f83011685010191505092915050565b602081526000612a366020830184612c52565b600060208284031215612cbd57600080fd5b813567ffffffffffffffff811115612cd457600080fd5b820160c08185031215612a3657600080fd5b6020810160038310612b8e57612b8e612a7f565b634e487b7160e01b600052604160045260246000fd5b6040516101a0810167ffffffffffffffff81118282101715612d3457612d34612cfa565b60405290565b604051601f8201601f1916810167ffffffffffffffff81118282101715612d6357612d63612cfa565b604052919050565b600082601f830112612d7c57600080fd5b813567ffffffffffffffff811115612d9657612d96612cfa565b612da9601f8201601f1916602001612d3a565b818152846020838601011115612dbe57600080fd5b816020850160208301376000918101602001919091529392505050565b6005811061274b57600080fd5b8035612a5d81612ddb565b803560038110612a5d57600080fd5b600082601f830112612e1357600080fd5b8135602067ffffffffffffffff821115612e2f57612e2f612cfa565b8160051b612e3e828201612d3a565b9283528481018201928281019087851115612e5857600080fd5b83870192505b84831015612e7757823582529183019190830190612e5e565b979650505050505050565b60008060408385031215612e9557600080fd5b823567ffffffffffffffff80821115612ead57600080fd5b908401906101a08287031215612ec257600080fd5b612eca612d10565b823582811115612ed957600080fd5b612ee588828601612d6b565b825250602083013582811115612efa57600080fd5b612f0688828601612d6b565b602083015250612f1860408401612de8565b6040820152612f2960608401612a52565b60608201526080830135608082015260a083013560a082015260c083013560c082015260e083013560e0820152610100808401358183015250610120612f70818501612a52565b908201526101408381013590820152610160612f8d818501612df3565b908201526101808381013583811115612fa557600080fd5b612fb189828701612e02565b828401525050809450505050612fc960208401612a52565b90509250929050565b60208152612fec6020820183516001600160a01b03169052565b600060208301516101a080604085015261300a6101c0850183612c52565b91506040850151601f198584030160608601526130278382612c52565b925050606085015161303c6080860182612aa5565b50608085015161304f60a0860182612aa5565b5060a085015160c085015260c085015160e085015260e085015161010081818701528087015191505061012081818701528087015191505061014061309e818701836001600160a01b03169052565b8601516101608681019190915286015190506101806130c7818701836001600160a01b03169052565b959095015193019290925250919050565b6001600160a01b03929092168252602082015260400190565b60208082526010908201526f47616d65206e6f74206f6e676f696e6760801b604082015260600190565b634e487b7160e01b600052603260045260246000fd5b60208082528181018390526000908460408401835b86811015612b3f57823561315981612a3d565b6001600160a01b031682529183019190830190600101613146565b600181811c9082168061318857607f821691505b6020821081036131a857634e487b7160e01b600052602260045260246000fd5b50919050565b6000602082840312156131c057600080fd5b8135612a3681612ddb565b81835260006001600160fb1b038311156131e457600080fd5b8260051b80836020870137939093016020019392505050565b602081526000823561320e81612ddb565b61321781612a95565b80602084015250602083013561322c81612a3d565b60018060a01b0381166040840152506040830135606083015260608301356080830152608083013560a083015260a0830135601e1984360301811261327057600080fd5b830160208101903567ffffffffffffffff81111561328d57600080fd5b8060051b360382131561329f57600080fd5b60c0808501526132b360e0850182846131cb565b95945050505050565b6000602082840312156132ce57600080fd5b81518015158114612a3657600080fd5b6000808335601e198436030181126132f557600080fd5b83018035915067ffffffffffffffff82111561331057600080fd5b6020019150600581901b360382131561332857600080fd5b9250929050565b634e487b7160e01b600052601160045260246000fd5b80820281158282048414176106425761064261332f565b5b818110156128c1576000815560010161335d565b67ffffffffffffffff83111561338957613389612cfa565b680100000000000000008311156133a2576133a2612cfa565b8054838255808410156133c8578160005260206000206133c682820186830161335c565b505b50818160005260208060002060005b868110156133f157833582820155928201926001016133d7565b50505050505050565b813561340581612ddb565b61340e81612a95565b815460ff821691508160ff198216178355602084013561342d81612a3d565b6001600160a81b03199190911690911760089190911b610100600160a81b031617815560408201356001820155606082013560028201556080820135600382015561347b60a08301836132de565b6107af818360048601613371565b6020808252600f908201526e151c985b9cd9995c8819985a5b1959608a1b604082015260600190565b808201808211156106425761064261332f565b634e487b7160e01b600052601260045260246000fd5b6000826134ea576134ea6134c5565b500490565b6000826134fe576134fe6134c5565b500690565b601f8211156107e857806000526020600020601f840160051c8101602085101561352a5750805b61353c601f850160051c83018261335c565b5050505050565b815167ffffffffffffffff81111561355d5761355d612cfa565b6135718161356b8454613174565b84613503565b602080601f8311600181146135a6576000841561358e5750858301515b600019600386901b1c1916600185901b1785556135ff565b600085815260208120601f198616915b828110156135d5578886015182559484019460019091019084016135b6565b50858210156135f35787850151600019600388901b60f8161c191681555b505060018460011b0185555b505050505050565b60018060a01b038316815260006020604060208401526000845461362a81613174565b806040870152606060018084166000811461364c576001811461366857613698565b60ff19851660608a0152606084151560051b8a01019550613698565b89600052602060002060005b8581101561368f5781548b8201860152908301908801613674565b8a016060019650505b50939998505050505050505050565b818103818111156106425761064261332f565b634e487b7160e01b600052603160045260246000fdfe828634d95e775031b9ff576b159a8509d3053581a8c9c4d7d86899e0afcd882fa2646970667358221220efd770c3fd00a2fac297852acb6c5fb7b3e568daa3189cb6f69232da8e20cf5164736f6c63430008180033","opcodes":"PUSH1 0x80 PUSH1 0x40 MSTORE CALLVALUE DUP1 ISZERO PUSH2 0x10 JUMPI PUSH1 0x0 DUP1 REVERT JUMPDEST POP PUSH2 0x3726 DUP1 PUSH2 0x20 PUSH1 0x0 CODECOPY PUSH1 0x0 RETURN INVALID PUSH1 0x80 PUSH1 0x40 MSTORE CALLVALUE DUP1 ISZERO PUSH2 0x10 JUMPI PUSH1 0x0 DUP1 REVERT JUMPDEST POP PUSH1 0x4 CALLDATASIZE LT PUSH2 0x274 JUMPI PUSH1 0x0 CALLDATALOAD PUSH1 0xE0 SHR DUP1 PUSH4 0x84DA242D GT PUSH2 0x151 JUMPI DUP1 PUSH4 0xD0EF024A GT PUSH2 0xC3 JUMPI DUP1 PUSH4 0xDA090755 GT PUSH2 0x87 JUMPI DUP1 PUSH4 0xDA090755 EQ PUSH2 0x58B JUMPI DUP1 PUSH4 0xDD898B2F EQ PUSH2 0x5A3 JUMPI DUP1 PUSH4 0xDFF7D2C7 EQ PUSH2 0x5B6 JUMPI DUP1 PUSH4 0xE085C539 EQ PUSH2 0x5BF JUMPI DUP1 PUSH4 0xE5A078A7 EQ PUSH2 0x5E8 JUMPI DUP1 PUSH4 0xF71D96CB EQ PUSH2 0x5F0 JUMPI PUSH1 0x0 DUP1 REVERT JUMPDEST DUP1 PUSH4 0xD0EF024A EQ PUSH2 0x54D JUMPI DUP1 PUSH4 0xD4F77B1C EQ PUSH2 0x560 JUMPI DUP1 PUSH4 0xD547741F EQ PUSH2 0x568 JUMPI DUP1 PUSH4 0xD65AB5F2 EQ PUSH2 0x57B JUMPI DUP1 PUSH4 0xD84C1AC9 EQ PUSH2 0x583 JUMPI PUSH1 0x0 DUP1 REVERT JUMPDEST DUP1 PUSH4 0xA59FFFCB GT PUSH2 0x115 JUMPI DUP1 PUSH4 0xA59FFFCB EQ PUSH2 0x4DD JUMPI DUP1 PUSH4 0xAF4E99DE EQ PUSH2 0x4F0 JUMPI DUP1 PUSH4 0xAFF0B297 EQ PUSH2 0x505 JUMPI DUP1 PUSH4 0xB062E950 EQ PUSH2 0x518 JUMPI DUP1 PUSH4 0xB5545A3C EQ PUSH2 0x538 JUMPI DUP1 PUSH4 0xBBDC02DB EQ PUSH2 0x540 JUMPI PUSH1 0x0 DUP1 REVERT JUMPDEST DUP1 PUSH4 0x84DA242D EQ PUSH2 0x480 JUMPI DUP1 PUSH4 0x8AEDA25A EQ PUSH2 0x49A JUMPI DUP1 PUSH4 0x91D14854 EQ PUSH2 0x4AF JUMPI DUP1 PUSH4 0xA217FDDF EQ PUSH2 0x4C2 JUMPI DUP1 PUSH4 0xA2FB1175 EQ PUSH2 0x4CA JUMPI PUSH1 0x0 DUP1 REVERT JUMPDEST DUP1 PUSH4 0x445E6B39 GT PUSH2 0x1EA JUMPI DUP1 PUSH4 0x647846A5 GT PUSH2 0x1AE JUMPI DUP1 PUSH4 0x647846A5 EQ PUSH2 0x439 JUMPI DUP1 PUSH4 0x70740AC9 EQ PUSH2 0x44C JUMPI DUP1 PUSH4 0x719CE73E EQ PUSH2 0x454 JUMPI DUP1 PUSH4 0x7284E416 EQ PUSH2 0x45D JUMPI DUP1 PUSH4 0x77B6E504 EQ PUSH2 0x465 JUMPI DUP1 PUSH4 0x8233E433 EQ PUSH2 0x46D JUMPI PUSH1 0x0 DUP1 REVERT JUMPDEST DUP1 PUSH4 0x445E6B39 EQ PUSH2 0x3D2 JUMPI DUP1 PUSH4 0x4A79D50C EQ PUSH2 0x3E5 JUMPI DUP1 PUSH4 0x4C2412A2 EQ PUSH2 0x3FA JUMPI DUP1 PUSH4 0x554C925C EQ PUSH2 0x403 JUMPI DUP1 PUSH4 0x5E6A43F5 EQ PUSH2 0x416 JUMPI PUSH1 0x0 DUP1 REVERT JUMPDEST DUP1 PUSH4 0x1D75D7C2 GT PUSH2 0x23C JUMPI DUP1 PUSH4 0x1D75D7C2 EQ PUSH2 0x30C JUMPI DUP1 PUSH4 0x200D2ED2 EQ PUSH2 0x364 JUMPI DUP1 PUSH4 0x248A9CA3 EQ PUSH2 0x37E JUMPI DUP1 PUSH4 0x2770C895 EQ PUSH2 0x3A1 JUMPI DUP1 PUSH4 0x2F2FF15D EQ PUSH2 0x3AA JUMPI DUP1 PUSH4 0x36568ABE EQ PUSH2 0x3BF JUMPI PUSH1 0x0 DUP1 REVERT JUMPDEST DUP1 PUSH4 0x1FFC9A7 EQ PUSH2 0x279 JUMPI DUP1 PUSH4 0x252B995 EQ PUSH2 0x2A1 JUMPI DUP1 PUSH4 0x2D05D3F EQ PUSH2 0x2B8 JUMPI DUP1 PUSH4 0x72EA61C EQ PUSH2 0x2E3 JUMPI DUP1 PUSH4 0x140D6B94 EQ PUSH2 0x2EC JUMPI JUMPDEST PUSH1 0x0 DUP1 REVERT JUMPDEST PUSH2 0x28C PUSH2 0x287 CALLDATASIZE PUSH1 0x4 PUSH2 0x2A0C JUMP JUMPDEST PUSH2 0x611 JUMP JUMPDEST PUSH1 0x40 MLOAD SWAP1 ISZERO ISZERO DUP2 MSTORE PUSH1 0x20 ADD JUMPDEST PUSH1 0x40 MLOAD DUP1 SWAP2 SUB SWAP1 RETURN JUMPDEST PUSH2 0x2AA PUSH1 0x9 SLOAD DUP2 JUMP JUMPDEST PUSH1 0x40 MLOAD SWAP1 DUP2 MSTORE PUSH1 0x20 ADD PUSH2 0x298 JUMP JUMPDEST PUSH1 0x2 SLOAD PUSH2 0x2CB SWAP1 PUSH1 0x1 PUSH1 0x1 PUSH1 0xA0 SHL SUB AND DUP2 JUMP JUMPDEST PUSH1 0x40 MLOAD PUSH1 0x1 PUSH1 0x1 PUSH1 0xA0 SHL SUB SWAP1 SWAP2 AND DUP2 MSTORE PUSH1 0x20 ADD PUSH2 0x298 JUMP JUMPDEST PUSH2 0x2AA PUSH1 0xB SLOAD DUP2 JUMP JUMPDEST PUSH2 0x2FF PUSH2 0x2FA CALLDATASIZE PUSH1 0x4 PUSH2 0x2A62 JUMP JUMPDEST PUSH2 0x648 JUMP JUMPDEST PUSH1 0x40 MLOAD PUSH2 0x298 SWAP2 SWAP1 PUSH2 0x2AB2 JUMP JUMPDEST PUSH2 0x353 PUSH2 0x31A CALLDATASIZE PUSH1 0x4 PUSH2 0x2A62 JUMP JUMPDEST PUSH1 0x16 PUSH1 0x20 MSTORE PUSH1 0x0 SWAP1 DUP2 MSTORE PUSH1 0x40 SWAP1 KECCAK256 DUP1 SLOAD PUSH1 0x1 DUP3 ADD SLOAD PUSH1 0x2 DUP4 ADD SLOAD PUSH1 0x3 SWAP1 SWAP4 ADD SLOAD PUSH1 0xFF DUP4 AND SWAP4 PUSH2 0x100 SWAP1 SWAP4 DIV PUSH1 0x1 PUSH1 0x1 PUSH1 0xA0 SHL SUB AND SWAP3 SWAP1 DUP6 JUMP JUMPDEST PUSH1 0x40 MLOAD PUSH2 0x298 SWAP6 SWAP5 SWAP4 SWAP3 SWAP2 SWAP1 PUSH2 0x2B4A JUMP JUMPDEST PUSH1 0x12 SLOAD PUSH2 0x371 SWAP1 PUSH1 0xFF AND DUP2 JUMP JUMPDEST PUSH1 0x40 MLOAD PUSH2 0x298 SWAP2 SWAP1 PUSH2 0x2B81 JUMP JUMPDEST PUSH2 0x2AA PUSH2 0x38C CALLDATASIZE PUSH1 0x4 PUSH2 0x2B94 JUMP JUMPDEST PUSH1 0x0 SWAP1 DUP2 MSTORE PUSH1 0x20 DUP2 SWAP1 MSTORE PUSH1 0x40 SWAP1 KECCAK256 PUSH1 0x1 ADD SLOAD SWAP1 JUMP JUMPDEST PUSH2 0x2AA PUSH1 0x6 SLOAD DUP2 JUMP JUMPDEST PUSH2 0x3BD PUSH2 0x3B8 CALLDATASIZE PUSH1 0x4 PUSH2 0x2BAD JUMP JUMPDEST PUSH2 0x78A JUMP JUMPDEST STOP JUMPDEST PUSH2 0x3BD PUSH2 0x3CD CALLDATASIZE PUSH1 0x4 PUSH2 0x2BAD JUMP JUMPDEST PUSH2 0x7B5 JUMP JUMPDEST PUSH2 0x3BD PUSH2 0x3E0 CALLDATASIZE PUSH1 0x4 PUSH2 0x2BDD JUMP JUMPDEST PUSH2 0x7ED JUMP JUMPDEST PUSH2 0x3ED PUSH2 0x945 JUMP JUMPDEST PUSH1 0x40 MLOAD PUSH2 0x298 SWAP2 SWAP1 PUSH2 0x2C98 JUMP JUMPDEST PUSH2 0x2AA PUSH1 0x7 SLOAD DUP2 JUMP JUMPDEST PUSH2 0x3BD PUSH2 0x411 CALLDATASIZE PUSH1 0x4 PUSH2 0x2CAB JUMP JUMPDEST PUSH2 0x9D3 JUMP JUMPDEST PUSH2 0x28C PUSH2 0x424 CALLDATASIZE PUSH1 0x4 PUSH2 0x2A62 JUMP JUMPDEST PUSH1 0x14 PUSH1 0x20 MSTORE PUSH1 0x0 SWAP1 DUP2 MSTORE PUSH1 0x40 SWAP1 KECCAK256 SLOAD PUSH1 0xFF AND DUP2 JUMP JUMPDEST PUSH1 0xA SLOAD PUSH2 0x2CB SWAP1 PUSH1 0x1 PUSH1 0x1 PUSH1 0xA0 SHL SUB AND DUP2 JUMP JUMPDEST PUSH2 0x3BD PUSH2 0xD09 JUMP JUMPDEST PUSH2 0x2AA PUSH1 0xE SLOAD DUP2 JUMP JUMPDEST PUSH2 0x3ED PUSH2 0xE39 JUMP JUMPDEST PUSH2 0x3BD PUSH2 0xE46 JUMP JUMPDEST PUSH2 0x2AA PUSH2 0x47B CALLDATASIZE PUSH1 0x4 PUSH2 0x2B94 JUMP JUMPDEST PUSH2 0x134A JUMP JUMPDEST PUSH1 0xF SLOAD PUSH2 0x48D SWAP1 PUSH1 0xFF AND DUP2 JUMP JUMPDEST PUSH1 0x40 MLOAD PUSH2 0x298 SWAP2 SWAP1 PUSH2 0x2CE6 JUMP JUMPDEST PUSH2 0x2AA PUSH1 0x0 DUP1 MLOAD PUSH1 0x20 PUSH2 0x36D1 DUP4 CODECOPY DUP2 MLOAD SWAP2 MSTORE DUP2 JUMP JUMPDEST PUSH2 0x28C PUSH2 0x4BD CALLDATASIZE PUSH1 0x4 PUSH2 0x2BAD JUMP JUMPDEST PUSH2 0x136B JUMP JUMPDEST PUSH2 0x2AA PUSH1 0x0 DUP2 JUMP JUMPDEST PUSH2 0x2CB PUSH2 0x4D8 CALLDATASIZE PUSH1 0x4 PUSH2 0x2B94 JUMP JUMPDEST PUSH2 0x1394 JUMP JUMPDEST PUSH2 0x3BD PUSH2 0x4EB CALLDATASIZE PUSH1 0x4 PUSH2 0x2E82 JUMP JUMPDEST PUSH2 0x13BE JUMP JUMPDEST PUSH2 0x4F8 PUSH2 0x17B1 JUMP JUMPDEST PUSH1 0x40 MLOAD PUSH2 0x298 SWAP2 SWAP1 PUSH2 0x2FD2 JUMP JUMPDEST PUSH2 0x3BD PUSH2 0x513 CALLDATASIZE PUSH1 0x4 PUSH2 0x2B94 JUMP JUMPDEST PUSH2 0x19AC JUMP JUMPDEST PUSH2 0x2AA PUSH2 0x526 CALLDATASIZE PUSH1 0x4 PUSH2 0x2A62 JUMP JUMPDEST PUSH1 0x11 PUSH1 0x20 MSTORE PUSH1 0x0 SWAP1 DUP2 MSTORE PUSH1 0x40 SWAP1 KECCAK256 SLOAD DUP2 JUMP JUMPDEST PUSH2 0x3BD PUSH2 0x1AC4 JUMP JUMPDEST PUSH1 0x5 SLOAD PUSH2 0x371 SWAP1 PUSH1 0xFF AND DUP2 JUMP JUMPDEST PUSH1 0xD SLOAD PUSH2 0x2CB SWAP1 PUSH1 0x1 PUSH1 0x1 PUSH1 0xA0 SHL SUB AND DUP2 JUMP JUMPDEST PUSH2 0x3BD PUSH2 0x1C43 JUMP JUMPDEST PUSH2 0x3BD PUSH2 0x576 CALLDATASIZE PUSH1 0x4 PUSH2 0x2BAD JUMP JUMPDEST PUSH2 0x1F22 JUMP JUMPDEST PUSH2 0x3BD PUSH2 0x1F47 JUMP JUMPDEST PUSH2 0x3BD PUSH2 0x20A4 JUMP JUMPDEST PUSH1 0x1 SLOAD PUSH2 0x2CB SWAP1 PUSH2 0x100 SWAP1 DIV PUSH1 0x1 PUSH1 0x1 PUSH1 0xA0 SHL SUB AND DUP2 JUMP JUMPDEST PUSH2 0x3BD PUSH2 0x5B1 CALLDATASIZE PUSH1 0x4 PUSH2 0x2A62 JUMP JUMPDEST PUSH2 0x226D JUMP JUMPDEST PUSH2 0x2AA PUSH1 0x8 SLOAD DUP2 JUMP JUMPDEST PUSH2 0x2AA PUSH2 0x5CD CALLDATASIZE PUSH1 0x4 PUSH2 0x2A62 JUMP JUMPDEST PUSH1 0x1 PUSH1 0x1 PUSH1 0xA0 SHL SUB AND PUSH1 0x0 SWAP1 DUP2 MSTORE PUSH1 0x15 PUSH1 0x20 MSTORE PUSH1 0x40 SWAP1 KECCAK256 SLOAD SWAP1 JUMP JUMPDEST PUSH2 0x3BD PUSH2 0x22F7 JUMP JUMPDEST PUSH2 0x603 PUSH2 0x5FE CALLDATASIZE PUSH1 0x4 PUSH2 0x2B94 JUMP JUMPDEST PUSH2 0x2709 JUMP JUMPDEST PUSH1 0x40 MLOAD PUSH2 0x298 SWAP3 SWAP2 SWAP1 PUSH2 0x30D8 JUMP JUMPDEST PUSH1 0x0 PUSH1 0x1 PUSH1 0x1 PUSH1 0xE0 SHL SUB NOT DUP3 AND PUSH4 0x7965DB0B PUSH1 0xE0 SHL EQ DUP1 PUSH2 0x642 JUMPI POP PUSH4 0x1FFC9A7 PUSH1 0xE0 SHL PUSH1 0x1 PUSH1 0x1 PUSH1 0xE0 SHL SUB NOT DUP4 AND EQ JUMPDEST SWAP3 SWAP2 POP POP JUMP JUMPDEST PUSH2 0x68E PUSH1 0x40 DUP1 MLOAD PUSH1 0xC0 DUP2 ADD SWAP1 SWAP2 MSTORE DUP1 PUSH1 0x0 DUP2 MSTORE PUSH1 0x20 ADD PUSH1 0x0 PUSH1 0x1 PUSH1 0x1 PUSH1 0xA0 SHL SUB AND DUP2 MSTORE PUSH1 0x20 ADD PUSH1 0x0 DUP2 MSTORE PUSH1 0x20 ADD PUSH1 0x0 DUP2 MSTORE PUSH1 0x20 ADD PUSH1 0x0 DUP1 NOT AND DUP2 MSTORE PUSH1 0x20 ADD PUSH1 0x60 DUP2 MSTORE POP SWAP1 JUMP JUMPDEST PUSH1 0x1 PUSH1 0x1 PUSH1 0xA0 SHL SUB DUP3 AND PUSH1 0x0 SWAP1 DUP2 MSTORE PUSH1 0x16 PUSH1 0x20 MSTORE PUSH1 0x40 SWAP1 DUP2 SWAP1 KECCAK256 DUP2 MLOAD PUSH1 0xC0 DUP2 ADD SWAP1 SWAP3 MSTORE DUP1 SLOAD DUP3 SWAP1 PUSH1 0xFF AND PUSH1 0x4 DUP2 GT ISZERO PUSH2 0x6C9 JUMPI PUSH2 0x6C9 PUSH2 0x2A7F JUMP JUMPDEST PUSH1 0x4 DUP2 GT ISZERO PUSH2 0x6DA JUMPI PUSH2 0x6DA PUSH2 0x2A7F JUMP JUMPDEST DUP2 MSTORE PUSH1 0x20 ADD PUSH1 0x0 DUP3 ADD PUSH1 0x1 SWAP1 SLOAD SWAP1 PUSH2 0x100 EXP SWAP1 DIV PUSH1 0x1 PUSH1 0x1 PUSH1 0xA0 SHL SUB AND PUSH1 0x1 PUSH1 0x1 PUSH1 0xA0 SHL SUB AND PUSH1 0x1 PUSH1 0x1 PUSH1 0xA0 SHL SUB AND DUP2 MSTORE PUSH1 0x20 ADD PUSH1 0x1 DUP3 ADD SLOAD DUP2 MSTORE PUSH1 0x20 ADD PUSH1 0x2 DUP3 ADD SLOAD DUP2 MSTORE PUSH1 0x20 ADD PUSH1 0x3 DUP3 ADD SLOAD DUP2 MSTORE PUSH1 0x20 ADD PUSH1 0x4 DUP3 ADD DUP1 SLOAD DUP1 PUSH1 0x20 MUL PUSH1 0x20 ADD PUSH1 0x40 MLOAD SWAP1 DUP2 ADD PUSH1 0x40 MSTORE DUP1 SWAP3 SWAP2 SWAP1 DUP2 DUP2 MSTORE PUSH1 0x20 ADD DUP3 DUP1 SLOAD DUP1 ISZERO PUSH2 0x77A JUMPI PUSH1 0x20 MUL DUP3 ADD SWAP2 SWAP1 PUSH1 0x0 MSTORE PUSH1 0x20 PUSH1 0x0 KECCAK256 SWAP1 JUMPDEST DUP2 SLOAD DUP2 MSTORE PUSH1 0x20 ADD SWAP1 PUSH1 0x1 ADD SWAP1 DUP1 DUP4 GT PUSH2 0x766 JUMPI JUMPDEST POP POP POP POP POP DUP2 MSTORE POP POP SWAP1 POP SWAP2 SWAP1 POP JUMP JUMPDEST PUSH1 0x0 DUP3 DUP2 MSTORE PUSH1 0x20 DUP2 SWAP1 MSTORE PUSH1 0x40 SWAP1 KECCAK256 PUSH1 0x1 ADD SLOAD PUSH2 0x7A5 DUP2 PUSH2 0x2741 JUMP JUMPDEST PUSH2 0x7AF DUP4 DUP4 PUSH2 0x274E JUMP JUMPDEST POP POP POP POP JUMP JUMPDEST PUSH1 0x1 PUSH1 0x1 PUSH1 0xA0 SHL SUB DUP2 AND CALLER EQ PUSH2 0x7DE JUMPI PUSH1 0x40 MLOAD PUSH4 0x334BD919 PUSH1 0xE1 SHL DUP2 MSTORE PUSH1 0x4 ADD PUSH1 0x40 MLOAD DUP1 SWAP2 SUB SWAP1 REVERT JUMPDEST PUSH2 0x7E8 DUP3 DUP3 PUSH2 0x27E0 JUMP JUMPDEST POP POP POP JUMP JUMPDEST PUSH1 0x0 DUP1 MLOAD PUSH1 0x20 PUSH2 0x36D1 DUP4 CODECOPY DUP2 MLOAD SWAP2 MSTORE PUSH2 0x805 DUP2 PUSH2 0x2741 JUMP JUMPDEST PUSH1 0x1 PUSH1 0x12 SLOAD PUSH1 0xFF AND PUSH1 0x4 DUP2 GT ISZERO PUSH2 0x81E JUMPI PUSH2 0x81E PUSH2 0x2A7F JUMP JUMPDEST EQ PUSH2 0x844 JUMPI PUSH1 0x40 MLOAD PUSH3 0x461BCD PUSH1 0xE5 SHL DUP2 MSTORE PUSH1 0x4 ADD PUSH2 0x83B SWAP1 PUSH2 0x30F1 JUMP JUMPDEST PUSH1 0x40 MLOAD DUP1 SWAP2 SUB SWAP1 REVERT JUMPDEST PUSH1 0x0 JUMPDEST DUP3 DUP2 LT ISZERO PUSH2 0x8EB JUMPI PUSH1 0x14 PUSH1 0x0 DUP6 DUP6 DUP5 DUP2 DUP2 LT PUSH2 0x865 JUMPI PUSH2 0x865 PUSH2 0x311B JUMP JUMPDEST SWAP1 POP PUSH1 0x20 MUL ADD PUSH1 0x20 DUP2 ADD SWAP1 PUSH2 0x87A SWAP2 SWAP1 PUSH2 0x2A62 JUMP JUMPDEST PUSH1 0x1 PUSH1 0x1 PUSH1 0xA0 SHL SUB AND DUP2 MSTORE PUSH1 0x20 DUP2 ADD SWAP2 SWAP1 SWAP2 MSTORE PUSH1 0x40 ADD PUSH1 0x0 KECCAK256 SLOAD PUSH1 0xFF AND PUSH2 0x8E3 JUMPI PUSH1 0x40 MLOAD PUSH3 0x461BCD PUSH1 0xE5 SHL DUP2 MSTORE PUSH1 0x20 PUSH1 0x4 DUP3 ADD MSTORE PUSH1 0x18 PUSH1 0x24 DUP3 ADD MSTORE PUSH32 0x54686572652069732077696E6E6572206E6F74206A6F696E0000000000000000 PUSH1 0x44 DUP3 ADD MSTORE PUSH1 0x64 ADD PUSH2 0x83B JUMP JUMPDEST PUSH1 0x1 ADD PUSH2 0x847 JUMP JUMPDEST POP PUSH2 0x8F8 PUSH1 0x17 DUP5 DUP5 PUSH2 0x28C5 JUMP JUMPDEST POP PUSH1 0x12 DUP1 SLOAD PUSH1 0xFF NOT AND PUSH1 0x2 OR SWAP1 SSTORE PUSH1 0x40 MLOAD PUSH32 0x8451DABC49A0B82CFFB0A79A6771FE2718264AAE54A4EFF4D4463748813EC56F SWAP1 PUSH2 0x938 SWAP1 DUP6 SWAP1 DUP6 SWAP1 PUSH2 0x3131 JUMP JUMPDEST PUSH1 0x40 MLOAD DUP1 SWAP2 SUB SWAP1 LOG1 POP POP POP JUMP JUMPDEST PUSH1 0x3 DUP1 SLOAD PUSH2 0x952 SWAP1 PUSH2 0x3174 JUMP JUMPDEST DUP1 PUSH1 0x1F ADD PUSH1 0x20 DUP1 SWAP2 DIV MUL PUSH1 0x20 ADD PUSH1 0x40 MLOAD SWAP1 DUP2 ADD PUSH1 0x40 MSTORE DUP1 SWAP3 SWAP2 SWAP1 DUP2 DUP2 MSTORE PUSH1 0x20 ADD DUP3 DUP1 SLOAD PUSH2 0x97E SWAP1 PUSH2 0x3174 JUMP JUMPDEST DUP1 ISZERO PUSH2 0x9CB JUMPI DUP1 PUSH1 0x1F LT PUSH2 0x9A0 JUMPI PUSH2 0x100 DUP1 DUP4 SLOAD DIV MUL DUP4 MSTORE SWAP2 PUSH1 0x20 ADD SWAP2 PUSH2 0x9CB JUMP JUMPDEST DUP3 ADD SWAP2 SWAP1 PUSH1 0x0 MSTORE PUSH1 0x20 PUSH1 0x0 KECCAK256 SWAP1 JUMPDEST DUP2 SLOAD DUP2 MSTORE SWAP1 PUSH1 0x1 ADD SWAP1 PUSH1 0x20 ADD DUP1 DUP4 GT PUSH2 0x9AE JUMPI DUP3 SWAP1 SUB PUSH1 0x1F AND DUP3 ADD SWAP2 JUMPDEST POP POP POP POP POP DUP2 JUMP JUMPDEST PUSH1 0x1 PUSH1 0x12 SLOAD PUSH1 0xFF AND PUSH1 0x4 DUP2 GT ISZERO PUSH2 0x9EC JUMPI PUSH2 0x9EC PUSH2 0x2A7F JUMP JUMPDEST EQ PUSH2 0xA09 JUMPI PUSH1 0x40 MLOAD PUSH3 0x461BCD PUSH1 0xE5 SHL DUP2 MSTORE PUSH1 0x4 ADD PUSH2 0x83B SWAP1 PUSH2 0x30F1 JUMP JUMPDEST PUSH1 0x9 SLOAD TIMESTAMP LT ISZERO PUSH2 0xA56 JUMPI PUSH1 0x40 MLOAD PUSH3 0x461BCD PUSH1 0xE5 SHL DUP2 MSTORE PUSH1 0x20 PUSH1 0x4 DUP3 ADD MSTORE PUSH1 0x18 PUSH1 0x24 DUP3 ADD MSTORE PUSH24 0x11D85B59481A185CC81B9BDD081CDD185C9D1959081E595D PUSH1 0x42 SHL PUSH1 0x44 DUP3 ADD MSTORE PUSH1 0x64 ADD PUSH2 0x83B JUMP JUMPDEST CALLER PUSH1 0x0 SWAP1 DUP2 MSTORE PUSH1 0x14 PUSH1 0x20 MSTORE PUSH1 0x40 SWAP1 KECCAK256 SLOAD PUSH1 0xFF AND PUSH2 0xAA9 JUMPI PUSH1 0x40 MLOAD PUSH3 0x461BCD PUSH1 0xE5 SHL DUP2 MSTORE PUSH1 0x20 PUSH1 0x4 DUP3 ADD MSTORE PUSH1 0x11 PUSH1 0x24 DUP3 ADD MSTORE PUSH17 0x141B185E595C881B9BDD081A9BDA5B9959 PUSH1 0x7A SHL PUSH1 0x44 DUP3 ADD MSTORE PUSH1 0x64 ADD PUSH2 0x83B JUMP JUMPDEST PUSH1 0x5 SLOAD PUSH1 0xFF AND PUSH1 0x4 DUP2 GT ISZERO PUSH2 0xAC0 JUMPI PUSH2 0xAC0 PUSH2 0x2A7F JUMP JUMPDEST PUSH2 0xACD PUSH1 0x20 DUP4 ADD DUP4 PUSH2 0x31AE JUMP JUMPDEST PUSH1 0x4 DUP2 GT ISZERO PUSH2 0xADE JUMPI PUSH2 0xADE PUSH2 0x2A7F JUMP JUMPDEST EQ PUSH2 0xB20 JUMPI PUSH1 0x40 MLOAD PUSH3 0x461BCD PUSH1 0xE5 SHL DUP2 MSTORE PUSH1 0x20 PUSH1 0x4 DUP3 ADD MSTORE PUSH1 0x12 PUSH1 0x24 DUP3 ADD MSTORE PUSH18 0x8EC2DACA40E8F2E0CA40DAD2E6DAC2E8C6D PUSH1 0x73 SHL PUSH1 0x44 DUP3 ADD MSTORE PUSH1 0x64 ADD PUSH2 0x83B JUMP JUMPDEST CALLER PUSH2 0xB31 PUSH1 0x40 DUP4 ADD PUSH1 0x20 DUP5 ADD PUSH2 0x2A62 JUMP JUMPDEST PUSH1 0x1 PUSH1 0x1 PUSH1 0xA0 SHL SUB AND EQ PUSH2 0xB87 JUMPI PUSH1 0x40 MLOAD PUSH3 0x461BCD PUSH1 0xE5 SHL DUP2 MSTORE PUSH1 0x20 PUSH1 0x4 DUP3 ADD MSTORE PUSH1 0x17 PUSH1 0x24 DUP3 ADD MSTORE PUSH32 0x506C617965722061646472657373206D69736D61746368000000000000000000 PUSH1 0x44 DUP3 ADD MSTORE PUSH1 0x64 ADD PUSH2 0x83B JUMP JUMPDEST PUSH1 0x1 SLOAD PUSH2 0x100 SWAP1 DIV PUSH1 0x1 PUSH1 0x1 PUSH1 0xA0 SHL SUB AND PUSH2 0xBDB JUMPI PUSH1 0x40 MLOAD PUSH3 0x461BCD PUSH1 0xE5 SHL DUP2 MSTORE PUSH1 0x20 PUSH1 0x4 DUP3 ADD MSTORE PUSH1 0x14 PUSH1 0x24 DUP3 ADD MSTORE PUSH20 0x11D85B59549959DA5CDD1C9E481B9BDD081CD95D PUSH1 0x62 SHL PUSH1 0x44 DUP3 ADD MSTORE PUSH1 0x64 ADD PUSH2 0x83B JUMP JUMPDEST PUSH1 0x1 SLOAD PUSH1 0x40 MLOAD PUSH4 0x35C34AE9 PUSH1 0xE0 SHL DUP2 MSTORE PUSH2 0x100 SWAP1 SWAP2 DIV PUSH1 0x1 PUSH1 0x1 PUSH1 0xA0 SHL SUB AND SWAP1 PUSH1 0x0 SWAP1 DUP3 SWAP1 PUSH4 0x35C34AE9 SWAP1 PUSH2 0xC14 SWAP1 DUP7 SWAP1 PUSH1 0x4 ADD PUSH2 0x31FD JUMP JUMPDEST PUSH1 0x20 PUSH1 0x40 MLOAD DUP1 DUP4 SUB DUP2 PUSH1 0x0 DUP8 GAS CALL ISZERO DUP1 ISZERO PUSH2 0xC33 JUMPI RETURNDATASIZE PUSH1 0x0 DUP1 RETURNDATACOPY RETURNDATASIZE PUSH1 0x0 REVERT JUMPDEST POP POP POP POP PUSH1 0x40 MLOAD RETURNDATASIZE PUSH1 0x1F NOT PUSH1 0x1F DUP3 ADD AND DUP3 ADD DUP1 PUSH1 0x40 MSTORE POP DUP2 ADD SWAP1 PUSH2 0xC57 SWAP2 SWAP1 PUSH2 0x32BC JUMP JUMPDEST SWAP1 POP DUP1 PUSH2 0xCA6 JUMPI PUSH1 0x40 MLOAD PUSH3 0x461BCD PUSH1 0xE5 SHL DUP2 MSTORE PUSH1 0x20 PUSH1 0x4 DUP3 ADD MSTORE PUSH1 0x1F PUSH1 0x24 DUP3 ADD MSTORE PUSH32 0x47616D6520726573756C7420766572696669636174696F6E206661696C656400 PUSH1 0x44 DUP3 ADD MSTORE PUSH1 0x64 ADD PUSH2 0x83B JUMP JUMPDEST CALLER PUSH1 0x0 SWAP1 DUP2 MSTORE PUSH1 0x15 PUSH1 0x20 SWAP1 DUP2 MSTORE PUSH1 0x40 DUP1 DUP4 KECCAK256 DUP2 DUP8 ADD CALLDATALOAD SWAP1 SSTORE PUSH1 0x16 SWAP1 SWAP2 MSTORE SWAP1 KECCAK256 DUP4 SWAP1 PUSH2 0xCD1 DUP3 DUP3 PUSH2 0x33FA JUMP JUMPDEST SWAP1 POP POP PUSH32 0xA578DF9B0453D14D7ED8615EE0E9D58F70E041E91FC5865E3B71F81EA05296C0 CALLER DUP5 PUSH1 0x40 ADD CALLDATALOAD PUSH1 0x40 MLOAD PUSH2 0x938 SWAP3 SWAP2 SWAP1 PUSH2 0x30D8 JUMP JUMPDEST CALLER PUSH1 0x0 SWAP1 DUP2 MSTORE PUSH1 0x11 PUSH1 0x20 MSTORE PUSH1 0x40 SWAP1 KECCAK256 SLOAD DUP1 PUSH2 0xD5A JUMPI PUSH1 0x40 MLOAD PUSH3 0x461BCD PUSH1 0xE5 SHL DUP2 MSTORE PUSH1 0x20 PUSH1 0x4 DUP3 ADD MSTORE PUSH1 0x11 PUSH1 0x24 DUP3 ADD MSTORE PUSH17 0x4E6F207072697A6520746F20636C61696D PUSH1 0x78 SHL PUSH1 0x44 DUP3 ADD MSTORE PUSH1 0x64 ADD PUSH2 0x83B JUMP JUMPDEST CALLER PUSH1 0x0 DUP2 DUP2 MSTORE PUSH1 0x11 PUSH1 0x20 MSTORE PUSH1 0x40 DUP1 DUP3 KECCAK256 SWAP2 SWAP1 SWAP2 SSTORE PUSH1 0xD SLOAD SWAP1 MLOAD PUSH4 0xA9059CBB PUSH1 0xE0 SHL DUP2 MSTORE PUSH1 0x1 PUSH1 0x1 PUSH1 0xA0 SHL SUB SWAP1 SWAP2 AND SWAP2 PUSH4 0xA9059CBB SWAP2 PUSH2 0xD9E SWAP2 SWAP1 DUP6 SWAP1 PUSH1 0x4 ADD PUSH2 0x30D8 JUMP JUMPDEST PUSH1 0x20 PUSH1 0x40 MLOAD DUP1 DUP4 SUB DUP2 PUSH1 0x0 DUP8 GAS CALL ISZERO DUP1 ISZERO PUSH2 0xDBD JUMPI RETURNDATASIZE PUSH1 0x0 DUP1 RETURNDATACOPY RETURNDATASIZE PUSH1 0x0 REVERT JUMPDEST POP POP POP POP PUSH1 0x40 MLOAD RETURNDATASIZE PUSH1 0x1F NOT PUSH1 0x1F DUP3 ADD AND DUP3 ADD DUP1 PUSH1 0x40 MSTORE POP DUP2 ADD SWAP1 PUSH2 0xDE1 SWAP2 SWAP1 PUSH2 0x32BC JUMP JUMPDEST PUSH2 0xDFD JUMPI PUSH1 0x40 MLOAD PUSH3 0x461BCD PUSH1 0xE5 SHL DUP2 MSTORE PUSH1 0x4 ADD PUSH2 0x83B SWAP1 PUSH2 0x3489 JUMP JUMPDEST PUSH32 0xB8E091D87F82E56D22276C9A0088EA5D6068E355383DC08B2721B7B6CB10E845 CALLER DUP3 PUSH1 0x40 MLOAD PUSH2 0xE2E SWAP3 SWAP2 SWAP1 PUSH2 0x30D8 JUMP JUMPDEST PUSH1 0x40 MLOAD DUP1 SWAP2 SUB SWAP1 LOG1 POP JUMP JUMPDEST PUSH1 0x4 DUP1 SLOAD PUSH2 0x952 SWAP1 PUSH2 0x3174 JUMP JUMPDEST PUSH1 0x0 DUP1 MLOAD PUSH1 0x20 PUSH2 0x36D1 DUP4 CODECOPY DUP2 MLOAD SWAP2 MSTORE PUSH2 0xE5E DUP2 PUSH2 0x2741 JUMP JUMPDEST PUSH1 0x2 PUSH1 0x12 SLOAD PUSH1 0xFF AND PUSH1 0x4 DUP2 GT ISZERO PUSH2 0xE77 JUMPI PUSH2 0xE77 PUSH2 0x2A7F JUMP JUMPDEST EQ PUSH2 0xEB5 JUMPI PUSH1 0x40 MLOAD PUSH3 0x461BCD PUSH1 0xE5 SHL DUP2 MSTORE PUSH1 0x20 PUSH1 0x4 DUP3 ADD MSTORE PUSH1 0xE PUSH1 0x24 DUP3 ADD MSTORE PUSH14 0x11D85B59481B9BDD08195B991959 PUSH1 0x92 SHL PUSH1 0x44 DUP3 ADD MSTORE PUSH1 0x64 ADD PUSH2 0x83B JUMP JUMPDEST PUSH1 0x17 SLOAD PUSH2 0xEF5 JUMPI PUSH1 0x40 MLOAD PUSH3 0x461BCD PUSH1 0xE5 SHL DUP2 MSTORE PUSH1 0x20 PUSH1 0x4 DUP3 ADD MSTORE PUSH1 0xE PUSH1 0x24 DUP3 ADD MSTORE PUSH14 0x139BC81DDA5B9B995C9CC81CD95D PUSH1 0x92 SHL PUSH1 0x44 DUP3 ADD MSTORE PUSH1 0x64 ADD PUSH2 0x83B JUMP JUMPDEST PUSH1 0x0 PUSH1 0xE SLOAD GT PUSH2 0xF3D JUMPI PUSH1 0x40 MLOAD PUSH3 0x461BCD PUSH1 0xE5 SHL DUP2 MSTORE PUSH1 0x20 PUSH1 0x4 DUP3 ADD MSTORE PUSH1 0x13 PUSH1 0x24 DUP3 ADD MSTORE PUSH19 0x5072697A6520706F6F6C20697320656D707479 PUSH1 0x68 SHL PUSH1 0x44 DUP3 ADD MSTORE PUSH1 0x64 ADD PUSH2 0x83B JUMP JUMPDEST PUSH1 0xE DUP1 SLOAD PUSH1 0x0 SWAP2 DUP3 SWAP1 SSTORE SWAP1 PUSH1 0xF SLOAD PUSH1 0xFF AND PUSH1 0x2 DUP2 GT ISZERO PUSH2 0xF5F JUMPI PUSH2 0xF5F PUSH2 0x2A7F JUMP JUMPDEST SUB PUSH2 0xFBC JUMPI DUP1 PUSH1 0x11 PUSH1 0x0 PUSH1 0x17 PUSH1 0x0 DUP2 SLOAD DUP2 LT PUSH2 0xF7D JUMPI PUSH2 0xF7D PUSH2 0x311B JUMP JUMPDEST PUSH1 0x0 SWAP2 DUP3 MSTORE PUSH1 0x20 DUP1 DUP4 KECCAK256 SWAP1 SWAP2 ADD SLOAD PUSH1 0x1 PUSH1 0x1 PUSH1 0xA0 SHL SUB AND DUP4 MSTORE DUP3 ADD SWAP3 SWAP1 SWAP3 MSTORE PUSH1 0x40 ADD DUP2 KECCAK256 DUP1 SLOAD SWAP1 SWAP2 SWAP1 PUSH2 0xFB1 SWAP1 DUP5 SWAP1 PUSH2 0x34B2 JUMP JUMPDEST SWAP1 SWAP2 SSTORE POP PUSH2 0x1339 SWAP1 POP JUMP JUMPDEST PUSH1 0x1 PUSH1 0xF SLOAD PUSH1 0xFF AND PUSH1 0x2 DUP2 GT ISZERO PUSH2 0xFD5 JUMPI PUSH2 0xFD5 PUSH2 0x2A7F JUMP JUMPDEST SUB PUSH2 0x1126 JUMPI PUSH1 0x13 SLOAD PUSH1 0x0 PUSH2 0xFE9 DUP3 DUP5 PUSH2 0x34DB JUMP JUMPDEST SWAP1 POP PUSH1 0x0 PUSH2 0xFF7 DUP4 DUP6 PUSH2 0x34EF JUMP JUMPDEST SWAP1 POP PUSH1 0x0 JUMPDEST DUP4 DUP2 LT ISZERO PUSH2 0x1068 JUMPI PUSH1 0x0 DUP4 SWAP1 POP DUP1 PUSH1 0x11 PUSH1 0x0 PUSH1 0x13 DUP6 DUP2 SLOAD DUP2 LT PUSH2 0x1021 JUMPI PUSH2 0x1021 PUSH2 0x311B JUMP JUMPDEST PUSH1 0x0 SWAP2 DUP3 MSTORE PUSH1 0x20 DUP1 DUP4 KECCAK256 PUSH1 0x2 SWAP1 SWAP3 MUL SWAP1 SWAP2 ADD SLOAD PUSH1 0x1 PUSH1 0x1 PUSH1 0xA0 SHL SUB AND DUP4 MSTORE DUP3 ADD SWAP3 SWAP1 SWAP3 MSTORE PUSH1 0x40 ADD DUP2 KECCAK256 DUP1 SLOAD SWAP1 SWAP2 SWAP1 PUSH2 0x105A SWAP1 DUP5 SWAP1 PUSH2 0x34B2 JUMP JUMPDEST SWAP1 SWAP2 SSTORE POP POP POP PUSH1 0x1 ADD PUSH2 0xFFC JUMP JUMPDEST POP PUSH1 0xD SLOAD PUSH1 0x2 SLOAD PUSH1 0x40 MLOAD PUSH4 0xA9059CBB PUSH1 0xE0 SHL DUP2 MSTORE PUSH1 0x1 PUSH1 0x1 PUSH1 0xA0 SHL SUB SWAP3 DUP4 AND SWAP3 PUSH4 0xA9059CBB SWAP3 PUSH2 0x109F SWAP3 SWAP2 AND SWAP1 DUP6 SWAP1 PUSH1 0x4 ADD PUSH2 0x30D8 JUMP JUMPDEST PUSH1 0x20 PUSH1 0x40 MLOAD DUP1 DUP4 SUB DUP2 PUSH1 0x0 DUP8 GAS CALL ISZERO DUP1 ISZERO PUSH2 0x10BE JUMPI RETURNDATASIZE PUSH1 0x0 DUP1 RETURNDATACOPY RETURNDATASIZE PUSH1 0x0 REVERT JUMPDEST POP POP POP POP PUSH1 0x40 MLOAD RETURNDATASIZE PUSH1 0x1F NOT PUSH1 0x1F DUP3 ADD AND DUP3 ADD DUP1 PUSH1 0x40 MSTORE POP DUP2 ADD SWAP1 PUSH2 0x10E2 SWAP2 SWAP1 PUSH2 0x32BC JUMP JUMPDEST PUSH2 0x111E JUMPI PUSH1 0x40 MLOAD PUSH3 0x461BCD PUSH1 0xE5 SHL DUP2 MSTORE PUSH1 0x20 PUSH1 0x4 DUP3 ADD MSTORE PUSH1 0xD PUSH1 0x24 DUP3 ADD MSTORE PUSH13 0x1499599D5B990819985A5B1959 PUSH1 0x9A SHL PUSH1 0x44 DUP3 ADD MSTORE PUSH1 0x64 ADD PUSH2 0x83B JUMP JUMPDEST POP POP POP PUSH2 0x1339 JUMP JUMPDEST PUSH1 0x2 PUSH1 0xF SLOAD PUSH1 0xFF AND PUSH1 0x2 DUP2 GT ISZERO PUSH2 0x113F JUMPI PUSH2 0x113F PUSH2 0x2A7F JUMP JUMPDEST SUB PUSH2 0x1339 JUMPI PUSH1 0x10 SLOAD PUSH1 0x17 SLOAD GT ISZERO PUSH2 0x11AE JUMPI PUSH1 0x40 MLOAD PUSH3 0x461BCD PUSH1 0xE5 SHL DUP2 MSTORE PUSH1 0x20 PUSH1 0x4 DUP3 ADD MSTORE PUSH1 0x2D PUSH1 0x24 DUP3 ADD MSTORE PUSH32 0x57696E6E657273206C69737420657863656564732072616E6B207072697A6520 PUSH1 0x44 DUP3 ADD MSTORE PUSH13 0x31B7B73334B3BAB930BA34B7B7 PUSH1 0x99 SHL PUSH1 0x64 DUP3 ADD MSTORE PUSH1 0x84 ADD PUSH2 0x83B JUMP JUMPDEST PUSH1 0x0 DUP1 JUMPDEST PUSH1 0x17 SLOAD DUP2 LT ISZERO PUSH2 0x1243 JUMPI PUSH1 0x0 PUSH1 0x10 DUP3 DUP2 SLOAD DUP2 LT PUSH2 0x11D1 JUMPI PUSH2 0x11D1 PUSH2 0x311B JUMP JUMPDEST SWAP1 PUSH1 0x0 MSTORE PUSH1 0x20 PUSH1 0x0 KECCAK256 ADD SLOAD SWAP1 POP PUSH1 0x0 DUP2 GT PUSH2 0x122E JUMPI PUSH1 0x40 MLOAD PUSH3 0x461BCD PUSH1 0xE5 SHL DUP2 MSTORE PUSH1 0x20 PUSH1 0x4 DUP3 ADD MSTORE PUSH1 0x1D PUSH1 0x24 DUP3 ADD MSTORE PUSH32 0x4D697373696E67207072697A6520636F6E66696720666F722072616E6B000000 PUSH1 0x44 DUP3 ADD MSTORE PUSH1 0x64 ADD PUSH2 0x83B JUMP JUMPDEST PUSH2 0x1238 DUP2 DUP5 PUSH2 0x34B2 JUMP JUMPDEST SWAP3 POP POP PUSH1 0x1 ADD PUSH2 0x11B2 JUMP JUMPDEST POP PUSH2 0x2710 DUP2 GT ISZERO PUSH2 0x128F JUMPI PUSH1 0x40 MLOAD PUSH3 0x461BCD PUSH1 0xE5 SHL DUP2 MSTORE PUSH1 0x20 PUSH1 0x4 DUP3 ADD MSTORE PUSH1 0x16 PUSH1 0x24 DUP3 ADD MSTORE PUSH22 0x5072697A652042505320657863656564732031303025 PUSH1 0x50 SHL PUSH1 0x44 DUP3 ADD MSTORE PUSH1 0x64 ADD PUSH2 0x83B JUMP JUMPDEST PUSH1 0x0 JUMPDEST PUSH1 0x17 SLOAD DUP2 LT ISZERO PUSH2 0x1336 JUMPI PUSH1 0x0 PUSH1 0x10 DUP3 DUP2 SLOAD DUP2 LT PUSH2 0x12B1 JUMPI PUSH2 0x12B1 PUSH2 0x311B JUMP JUMPDEST PUSH1 0x0 SWAP2 DUP3 MSTORE PUSH1 0x20 DUP3 KECCAK256 ADD SLOAD SWAP2 POP PUSH2 0x2710 PUSH2 0x12CB DUP4 DUP8 PUSH2 0x3345 JUMP JUMPDEST PUSH2 0x12D5 SWAP2 SWAP1 PUSH2 0x34DB JUMP JUMPDEST SWAP1 POP DUP1 PUSH1 0x11 PUSH1 0x0 PUSH1 0x17 DUP7 DUP2 SLOAD DUP2 LT PUSH2 0x12EF JUMPI PUSH2 0x12EF PUSH2 0x311B JUMP JUMPDEST PUSH1 0x0 SWAP2 DUP3 MSTORE PUSH1 0x20 DUP1 DUP4 KECCAK256 SWAP1 SWAP2 ADD SLOAD PUSH1 0x1 PUSH1 0x1 PUSH1 0xA0 SHL SUB AND DUP4 MSTORE DUP3 ADD SWAP3 SWAP1 SWAP3 MSTORE PUSH1 0x40 ADD DUP2 KECCAK256 DUP1 SLOAD SWAP1 SWAP2 SWAP1 PUSH2 0x1323 SWAP1 DUP5 SWAP1 PUSH2 0x34B2 JUMP JUMPDEST SWAP1 SWAP2 SSTORE POP POP PUSH1 0x1 SWAP1 SWAP3 ADD SWAP2 POP PUSH2 0x1292 SWAP1 POP JUMP JUMPDEST POP POP JUMPDEST POP POP PUSH1 0x12 DUP1 SLOAD PUSH1 0xFF NOT AND PUSH1 0x3 OR SWAP1 SSTORE JUMP JUMPDEST PUSH1 0x10 DUP2 DUP2 SLOAD DUP2 LT PUSH2 0x135A JUMPI PUSH1 0x0 DUP1 REVERT JUMPDEST PUSH1 0x0 SWAP2 DUP3 MSTORE PUSH1 0x20 SWAP1 SWAP2 KECCAK256 ADD SLOAD SWAP1 POP DUP2 JUMP JUMPDEST PUSH1 0x0 SWAP2 DUP3 MSTORE PUSH1 0x20 DUP3 DUP2 MSTORE PUSH1 0x40 DUP1 DUP5 KECCAK256 PUSH1 0x1 PUSH1 0x1 PUSH1 0xA0 SHL SUB SWAP4 SWAP1 SWAP4 AND DUP5 MSTORE SWAP2 SWAP1 MSTORE SWAP1 KECCAK256 SLOAD PUSH1 0xFF AND SWAP1 JUMP JUMPDEST PUSH1 0x17 DUP2 DUP2 SLOAD DUP2 LT PUSH2 0x13A4 JUMPI PUSH1 0x0 DUP1 REVERT JUMPDEST PUSH1 0x0 SWAP2 DUP3 MSTORE PUSH1 0x20 SWAP1 SWAP2 KECCAK256 ADD SLOAD PUSH1 0x1 PUSH1 0x1 PUSH1 0xA0 SHL SUB AND SWAP1 POP DUP2 JUMP JUMPDEST PUSH1 0x1 SLOAD PUSH1 0xFF AND ISZERO PUSH2 0x1407 JUMPI PUSH1 0x40 MLOAD PUSH3 0x461BCD PUSH1 0xE5 SHL DUP2 MSTORE PUSH1 0x20 PUSH1 0x4 DUP3 ADD MSTORE PUSH1 0x13 PUSH1 0x24 DUP3 ADD MSTORE PUSH19 0x105B1C9958591E481A5B9A5D1A585B1A5E9959 PUSH1 0x6A SHL PUSH1 0x44 DUP3 ADD MSTORE PUSH1 0x64 ADD PUSH2 0x83B JUMP JUMPDEST PUSH1 0x1 DUP1 SLOAD PUSH1 0xFF NOT AND DUP2 OR SWAP1 SSTORE PUSH1 0xE0 DUP3 ADD MLOAD TIMESTAMP LT PUSH2 0x1466 JUMPI PUSH1 0x40 MLOAD PUSH3 0x461BCD PUSH1 0xE5 SHL DUP2 MSTORE PUSH1 0x20 PUSH1 0x4 DUP3 ADD MSTORE PUSH1 0x19 PUSH1 0x24 DUP3 ADD MSTORE PUSH32 0x52656720656E64206D75737420626520696E2066757475726500000000000000 PUSH1 0x44 DUP3 ADD MSTORE PUSH1 0x64 ADD PUSH2 0x83B JUMP JUMPDEST DUP2 PUSH1 0xE0 ADD MLOAD DUP3 PUSH2 0x100 ADD MLOAD LT ISZERO PUSH2 0x14BF JUMPI PUSH1 0x40 MLOAD PUSH3 0x461BCD PUSH1 0xE5 SHL DUP2 MSTORE PUSH1 0x20 PUSH1 0x4 DUP3 ADD MSTORE PUSH1 0x1E PUSH1 0x24 DUP3 ADD MSTORE PUSH32 0x47616D65206D7573742073746172742061667465722072656720656E64730000 PUSH1 0x44 DUP3 ADD MSTORE PUSH1 0x64 ADD PUSH2 0x83B JUMP JUMPDEST DUP2 PUSH1 0xA0 ADD MLOAD DUP3 PUSH1 0xC0 ADD MLOAD LT ISZERO PUSH2 0x150C JUMPI PUSH1 0x40 MLOAD PUSH3 0x461BCD PUSH1 0xE5 SHL DUP2 MSTORE PUSH1 0x20 PUSH1 0x4 DUP3 ADD MSTORE PUSH1 0x12 PUSH1 0x24 DUP3 ADD MSTORE PUSH18 0x26B0BC1036BAB9BA103132901F1E9026B4B7 PUSH1 0x71 SHL PUSH1 0x44 DUP3 ADD MSTORE PUSH1 0x64 ADD PUSH2 0x83B JUMP JUMPDEST PUSH1 0x2 DUP1 SLOAD PUSH1 0x1 PUSH1 0x1 PUSH1 0xA0 SHL SUB NOT AND PUSH1 0x1 PUSH1 0x1 PUSH1 0xA0 SHL SUB DUP4 AND OR SWAP1 SSTORE DUP2 MLOAD PUSH1 0x3 SWAP1 PUSH2 0x1536 SWAP1 DUP3 PUSH2 0x3543 JUMP JUMPDEST POP PUSH1 0x20 DUP3 ADD MLOAD PUSH1 0x4 SWAP1 PUSH2 0x1549 SWAP1 DUP3 PUSH2 0x3543 JUMP JUMPDEST POP PUSH1 0x12 DUP1 SLOAD PUSH1 0xFF NOT SWAP1 DUP2 AND SWAP1 SWAP2 SSTORE PUSH1 0x40 DUP4 ADD MLOAD PUSH1 0x5 DUP1 SLOAD SWAP2 SWAP3 SWAP1 SWAP2 AND PUSH1 0x1 DUP4 PUSH1 0x4 DUP2 GT ISZERO PUSH2 0x1579 JUMPI PUSH2 0x1579 PUSH2 0x2A7F JUMP JUMPDEST MUL OR SWAP1 SSTORE POP PUSH1 0x60 DUP3 ADD MLOAD PUSH1 0xA DUP1 SLOAD PUSH1 0x1 PUSH1 0x1 PUSH1 0xA0 SHL SUB SWAP3 DUP4 AND PUSH1 0x1 PUSH1 0x1 PUSH1 0xA0 SHL SUB NOT SWAP2 DUP3 AND OR SWAP1 SWAP2 SSTORE PUSH1 0x80 DUP5 ADD MLOAD PUSH1 0xB SSTORE PUSH1 0xA0 DUP5 ADD MLOAD PUSH1 0x6 SSTORE PUSH1 0xC0 DUP5 ADD MLOAD PUSH1 0x7 SSTORE PUSH1 0xE0 DUP5 ADD MLOAD PUSH1 0x8 SSTORE PUSH2 0x100 DUP5 ADD MLOAD PUSH1 0x9 SSTORE PUSH2 0x120 DUP5 ADD MLOAD PUSH1 0xD DUP1 SLOAD SWAP2 SWAP1 SWAP4 AND SWAP2 AND OR SWAP1 SSTORE PUSH2 0x140 DUP3 ADD MLOAD PUSH1 0xE SSTORE PUSH2 0x160 DUP3 ADD MLOAD PUSH1 0xF DUP1 SLOAD PUSH1 0xFF NOT AND PUSH1 0x1 DUP4 PUSH1 0x2 DUP2 GT ISZERO PUSH2 0x1609 JUMPI PUSH2 0x1609 PUSH2 0x2A7F JUMP JUMPDEST MUL OR SWAP1 SSTORE POP PUSH2 0x180 DUP3 ADD MLOAD DUP1 MLOAD PUSH2 0x1628 SWAP2 PUSH1 0x10 SWAP2 PUSH1 0x20 SWAP1 SWAP2 ADD SWAP1 PUSH2 0x2928 JUMP JUMPDEST POP PUSH1 0x2 DUP3 PUSH2 0x160 ADD MLOAD PUSH1 0x2 DUP2 GT ISZERO PUSH2 0x1642 JUMPI PUSH2 0x1642 PUSH2 0x2A7F JUMP JUMPDEST SUB PUSH2 0x1735 JUMPI PUSH2 0x180 DUP3 ADD MLOAD MLOAD PUSH1 0x10 SLOAD PUSH2 0x169D JUMPI PUSH1 0x40 MLOAD PUSH3 0x461BCD PUSH1 0xE5 SHL DUP2 MSTORE PUSH1 0x20 PUSH1 0x4 DUP3 ADD MSTORE PUSH1 0x1F PUSH1 0x24 DUP3 ADD MSTORE PUSH32 0x437573746F6D2072616E6B20636F6E66696720666F726D6174206572726F7200 PUSH1 0x44 DUP3 ADD MSTORE PUSH1 0x64 ADD PUSH2 0x83B JUMP JUMPDEST PUSH1 0x0 DUP1 JUMPDEST DUP3 DUP2 LT ISZERO PUSH2 0x16E6 JUMPI PUSH1 0x10 DUP2 DUP2 SLOAD DUP2 LT PUSH2 0x16BC JUMPI PUSH2 0x16BC PUSH2 0x311B JUMP JUMPDEST SWAP1 PUSH1 0x0 MSTORE PUSH1 0x20 PUSH1 0x0 KECCAK256 ADD SLOAD DUP3 PUSH2 0x16D2 SWAP2 SWAP1 PUSH2 0x34B2 JUMP JUMPDEST SWAP2 POP PUSH2 0x16DF PUSH1 0x1 DUP3 PUSH2 0x34B2 JUMP JUMPDEST SWAP1 POP PUSH2 0x16A1 JUMP JUMPDEST POP PUSH2 0x2710 DUP2 GT ISZERO PUSH2 0x1732 JUMPI PUSH1 0x40 MLOAD PUSH3 0x461BCD PUSH1 0xE5 SHL DUP2 MSTORE PUSH1 0x20 PUSH1 0x4 DUP3 ADD MSTORE PUSH1 0x16 PUSH1 0x24 DUP3 ADD MSTORE PUSH22 0x5072697A652042505320657863656564732031303025 PUSH1 0x50 SHL PUSH1 0x44 DUP3 ADD MSTORE PUSH1 0x64 ADD PUSH2 0x83B JUMP JUMPDEST POP POP JUMPDEST PUSH2 0x1740 PUSH1 0x0 DUP3 PUSH2 0x274E JUMP JUMPDEST POP PUSH2 0x1759 PUSH1 0x0 DUP1 MLOAD PUSH1 0x20 PUSH2 0x36D1 DUP4 CODECOPY DUP2 MLOAD SWAP2 MSTORE DUP3 PUSH2 0x274E JUMP JUMPDEST POP PUSH2 0x1773 PUSH1 0x0 DUP1 MLOAD PUSH1 0x20 PUSH2 0x36D1 DUP4 CODECOPY DUP2 MLOAD SWAP2 MSTORE PUSH1 0x0 PUSH2 0x284B JUMP JUMPDEST PUSH32 0xC66E6CD41F805F65978F5241034E8D106C42CF3C7A4D62CCD857646B401CBE4A DUP2 PUSH1 0x3 PUSH1 0x40 MLOAD PUSH2 0x17A5 SWAP3 SWAP2 SWAP1 PUSH2 0x3607 JUMP JUMPDEST PUSH1 0x40 MLOAD DUP1 SWAP2 SUB SWAP1 LOG1 POP POP JUMP JUMPDEST PUSH2 0x17B9 PUSH2 0x2963 JUMP JUMPDEST PUSH2 0x17C1 PUSH2 0x2963 JUMP JUMPDEST PUSH1 0x2 SLOAD PUSH1 0x1 PUSH1 0x1 PUSH1 0xA0 SHL SUB AND DUP2 MSTORE PUSH1 0x3 DUP1 SLOAD PUSH2 0x17DC SWAP1 PUSH2 0x3174 JUMP JUMPDEST DUP1 PUSH1 0x1F ADD PUSH1 0x20 DUP1 SWAP2 DIV MUL PUSH1 0x20 ADD PUSH1 0x40 MLOAD SWAP1 DUP2 ADD PUSH1 0x40 MSTORE DUP1 SWAP3 SWAP2 SWAP1 DUP2 DUP2 MSTORE PUSH1 0x20 ADD DUP3 DUP1 SLOAD PUSH2 0x1808 SWAP1 PUSH2 0x3174 JUMP JUMPDEST DUP1 ISZERO PUSH2 0x1855 JUMPI DUP1 PUSH1 0x1F LT PUSH2 0x182A JUMPI PUSH2 0x100 DUP1 DUP4 SLOAD DIV MUL DUP4 MSTORE SWAP2 PUSH1 0x20 ADD SWAP2 PUSH2 0x1855 JUMP JUMPDEST DUP3 ADD SWAP2 SWAP1 PUSH1 0x0 MSTORE PUSH1 0x20 PUSH1 0x0 KECCAK256 SWAP1 JUMPDEST DUP2 SLOAD DUP2 MSTORE SWAP1 PUSH1 0x1 ADD SWAP1 PUSH1 0x20 ADD DUP1 DUP4 GT PUSH2 0x1838 JUMPI DUP3 SWAP1 SUB PUSH1 0x1F AND DUP3 ADD SWAP2 JUMPDEST POP POP POP POP POP DUP2 PUSH1 0x20 ADD DUP2 SWAP1 MSTORE POP PUSH1 0x4 DUP1 SLOAD PUSH2 0x186F SWAP1 PUSH2 0x3174 JUMP JUMPDEST DUP1 PUSH1 0x1F ADD PUSH1 0x20 DUP1 SWAP2 DIV MUL PUSH1 0x20 ADD PUSH1 0x40 MLOAD SWAP1 DUP2 ADD PUSH1 0x40 MSTORE DUP1 SWAP3 SWAP2 SWAP1 DUP2 DUP2 MSTORE PUSH1 0x20 ADD DUP3 DUP1 SLOAD PUSH2 0x189B SWAP1 PUSH2 0x3174 JUMP JUMPDEST DUP1 ISZERO PUSH2 0x18E8 JUMPI DUP1 PUSH1 0x1F LT PUSH2 0x18BD JUMPI PUSH2 0x100 DUP1 DUP4 SLOAD DIV MUL DUP4 MSTORE SWAP2 PUSH1 0x20 ADD SWAP2 PUSH2 0x18E8 JUMP JUMPDEST DUP3 ADD SWAP2 SWAP1 PUSH1 0x0 MSTORE PUSH1 0x20 PUSH1 0x0 KECCAK256 SWAP1 JUMPDEST DUP2 SLOAD DUP2 MSTORE SWAP1 PUSH1 0x1 ADD SWAP1 PUSH1 0x20 ADD DUP1 DUP4 GT PUSH2 0x18CB JUMPI DUP3 SWAP1 SUB PUSH1 0x1F AND DUP3 ADD SWAP2 JUMPDEST POP POP POP POP POP PUSH1 0x40 DUP3 ADD MSTORE PUSH1 0x12 SLOAD PUSH1 0x60 DUP3 ADD SWAP1 PUSH1 0xFF AND PUSH1 0x4 DUP2 GT ISZERO PUSH2 0x190E JUMPI PUSH2 0x190E PUSH2 0x2A7F JUMP JUMPDEST SWAP1 DUP2 PUSH1 0x4 DUP2 GT ISZERO PUSH2 0x1921 JUMPI PUSH2 0x1921 PUSH2 0x2A7F JUMP JUMPDEST SWAP1 MSTORE POP PUSH1 0x5 SLOAD PUSH1 0x80 DUP3 ADD SWAP1 PUSH1 0xFF AND PUSH1 0x4 DUP2 GT ISZERO PUSH2 0x1940 JUMPI PUSH2 0x1940 PUSH2 0x2A7F JUMP JUMPDEST SWAP1 DUP2 PUSH1 0x4 DUP2 GT ISZERO PUSH2 0x1953 JUMPI PUSH2 0x1953 PUSH2 0x2A7F JUMP JUMPDEST SWAP1 MSTORE POP PUSH1 0x7 SLOAD PUSH1 0xA0 DUP3 ADD MSTORE PUSH1 0x13 SLOAD PUSH1 0xC0 DUP3 ADD MSTORE PUSH1 0x8 SLOAD PUSH1 0xE0 DUP3 ADD MSTORE PUSH1 0x9 SLOAD PUSH2 0x100 DUP3 ADD MSTORE PUSH1 0xB SLOAD PUSH2 0x140 DUP3 ADD MSTORE PUSH1 0xA SLOAD PUSH1 0x1 PUSH1 0x1 PUSH1 0xA0 SHL SUB SWAP1 DUP2 AND PUSH2 0x120 DUP4 ADD MSTORE PUSH1 0xE SLOAD PUSH2 0x180 DUP4 ADD MSTORE PUSH1 0xD SLOAD AND PUSH2 0x160 DUP3 ADD MSTORE SWAP2 SWAP1 POP JUMP JUMPDEST PUSH1 0x1 PUSH1 0x12 SLOAD PUSH1 0xFF AND PUSH1 0x4 DUP2 GT ISZERO PUSH2 0x19C5 JUMPI PUSH2 0x19C5 PUSH2 0x2A7F JUMP JUMPDEST EQ PUSH2 0x19E2 JUMPI PUSH1 0x40 MLOAD PUSH3 0x461BCD PUSH1 0xE5 SHL DUP2 MSTORE PUSH1 0x4 ADD PUSH2 0x83B SWAP1 PUSH2 0x30F1 JUMP JUMPDEST PUSH1 0x9 SLOAD TIMESTAMP LT ISZERO PUSH2 0x1A2F JUMPI PUSH1 0x40 MLOAD PUSH3 0x461BCD PUSH1 0xE5 SHL DUP2 MSTORE PUSH1 0x20 PUSH1 0x4 DUP3 ADD MSTORE PUSH1 0x18 PUSH1 0x24 DUP3 ADD MSTORE PUSH24 0x11D85B59481A185CC81B9BDD081CDD185C9D1959081E595D PUSH1 0x42 SHL PUSH1 0x44 DUP3 ADD MSTORE PUSH1 0x64 ADD PUSH2 0x83B JUMP JUMPDEST CALLER PUSH1 0x0 SWAP1 DUP2 MSTORE PUSH1 0x14 PUSH1 0x20 MSTORE PUSH1 0x40 SWAP1 KECCAK256 SLOAD PUSH1 0xFF AND PUSH2 0x1A82 JUMPI PUSH1 0x40 MLOAD PUSH3 0x461BCD PUSH1 0xE5 SHL DUP2 MSTORE PUSH1 0x20 PUSH1 0x4 DUP3 ADD MSTORE PUSH1 0x11 PUSH1 0x24 DUP3 ADD MSTORE PUSH17 0x141B185E595C881B9BDD081A9BDA5B9959 PUSH1 0x7A SHL PUSH1 0x44 DUP3 ADD MSTORE PUSH1 0x64 ADD PUSH2 0x83B JUMP JUMPDEST CALLER PUSH1 0x0 DUP2 DUP2 MSTORE PUSH1 0x15 PUSH1 0x20 MSTORE PUSH1 0x40 SWAP1 DUP2 SWAP1 KECCAK256 DUP4 SWAP1 SSTORE MLOAD PUSH32 0xA578DF9B0453D14D7ED8615EE0E9D58F70E041E91FC5865E3B71F81EA05296C0 SWAP2 PUSH2 0xE2E SWAP2 DUP5 SWAP1 PUSH2 0x30D8 JUMP JUMPDEST PUSH1 0x4 PUSH1 0x12 SLOAD PUSH1 0xFF AND PUSH1 0x4 DUP2 GT ISZERO PUSH2 0x1ADD JUMPI PUSH2 0x1ADD PUSH2 0x2A7F JUMP JUMPDEST EQ PUSH2 0x1B1E JUMPI PUSH1 0x40 MLOAD PUSH3 0x461BCD PUSH1 0xE5 SHL DUP2 MSTORE PUSH1 0x20 PUSH1 0x4 DUP3 ADD MSTORE PUSH1 0x11 PUSH1 0x24 DUP3 ADD MSTORE PUSH17 0x11D85B59481B9BDD0818D85B98D95B1959 PUSH1 0x7A SHL PUSH1 0x44 DUP3 ADD MSTORE PUSH1 0x64 ADD PUSH2 0x83B JUMP JUMPDEST CALLER PUSH1 0x0 SWAP1 DUP2 MSTORE PUSH1 0xC PUSH1 0x20 MSTORE PUSH1 0x40 SWAP1 KECCAK256 SLOAD DUP1 PUSH2 0x1B6F JUMPI PUSH1 0x40 MLOAD PUSH3 0x461BCD PUSH1 0xE5 SHL DUP2 MSTORE PUSH1 0x20 PUSH1 0x4 DUP3 ADD MSTORE PUSH1 0x11 PUSH1 0x24 DUP3 ADD MSTORE PUSH17 0x4E6F207072697A6520746F20636C61696D PUSH1 0x78 SHL PUSH1 0x44 DUP3 ADD MSTORE PUSH1 0x64 ADD PUSH2 0x83B JUMP JUMPDEST CALLER PUSH1 0x0 DUP2 DUP2 MSTORE PUSH1 0xC PUSH1 0x20 MSTORE PUSH1 0x40 DUP1 DUP3 KECCAK256 SWAP2 SWAP1 SWAP2 SSTORE PUSH1 0xA SLOAD SWAP1 MLOAD PUSH4 0xA9059CBB PUSH1 0xE0 SHL DUP2 MSTORE PUSH1 0x1 PUSH1 0x1 PUSH1 0xA0 SHL SUB SWAP1 SWAP2 AND SWAP2 PUSH4 0xA9059CBB SWAP2 PUSH2 0x1BB3 SWAP2 SWAP1 DUP6 SWAP1 PUSH1 0x4 ADD PUSH2 0x30D8 JUMP JUMPDEST PUSH1 0x20 PUSH1 0x40 MLOAD DUP1 DUP4 SUB DUP2 PUSH1 0x0 DUP8 GAS CALL ISZERO DUP1 ISZERO PUSH2 0x1BD2 JUMPI RETURNDATASIZE PUSH1 0x0 DUP1 RETURNDATACOPY RETURNDATASIZE PUSH1 0x0 REVERT JUMPDEST POP POP POP POP PUSH1 0x40 MLOAD RETURNDATASIZE PUSH1 0x1F NOT PUSH1 0x1F DUP3 ADD AND DUP3 ADD DUP1 PUSH1 0x40 MSTORE POP DUP2 ADD SWAP1 PUSH2 0x1BF6 SWAP2 SWAP1 PUSH2 0x32BC JUMP JUMPDEST PUSH2 0x1C12 JUMPI PUSH1 0x40 MLOAD PUSH3 0x461BCD PUSH1 0xE5 SHL DUP2 MSTORE PUSH1 0x4 ADD PUSH2 0x83B SWAP1 PUSH2 0x3489 JUMP JUMPDEST PUSH32 0xEB4706597FB7A2E8806C0E31AD4C334330A97BC3CAE6B9C360E152C922BB40C8 CALLER DUP3 PUSH1 0x40 MLOAD PUSH2 0xE2E SWAP3 SWAP2 SWAP1 PUSH2 0x30D8 JUMP JUMPDEST PUSH1 0x0 PUSH1 0x12 SLOAD PUSH1 0xFF AND PUSH1 0x4 DUP2 GT ISZERO PUSH2 0x1C5C JUMPI PUSH2 0x1C5C PUSH2 0x2A7F JUMP JUMPDEST EQ PUSH2 0x1CA9 JUMPI PUSH1 0x40 MLOAD PUSH3 0x461BCD PUSH1 0xE5 SHL DUP2 MSTORE PUSH1 0x20 PUSH1 0x4 DUP3 ADD MSTORE PUSH1 0x1A PUSH1 0x24 DUP3 ADD MSTORE PUSH32 0x47616D65206E6F7420616363657074696E6720706C6179657273000000000000 PUSH1 0x44 DUP3 ADD MSTORE PUSH1 0x64 ADD PUSH2 0x83B JUMP JUMPDEST PUSH1 0x8 SLOAD TIMESTAMP LT PUSH2 0x1CFA JUMPI PUSH1 0x40 MLOAD PUSH3 0x461BCD PUSH1 0xE5 SHL DUP2 MSTORE PUSH1 0x20 PUSH1 0x4 DUP3 ADD MSTORE PUSH1 0x18 PUSH1 0x24 DUP3 ADD MSTORE PUSH32 0x526567697374726174696F6E2074696D65207061737365640000000000000000 PUSH1 0x44 DUP3 ADD MSTORE PUSH1 0x64 ADD PUSH2 0x83B JUMP JUMPDEST PUSH1 0x7 SLOAD PUSH1 0x13 SLOAD LT PUSH2 0x1D43 JUMPI PUSH1 0x40 MLOAD PUSH3 0x461BCD PUSH1 0xE5 SHL DUP2 MSTORE PUSH1 0x20 PUSH1 0x4 DUP3 ADD MSTORE PUSH1 0x13 PUSH1 0x24 DUP3 ADD MSTORE PUSH19 0x13585E081C1B185E595C9CC81C995858DA1959 PUSH1 0x6A SHL PUSH1 0x44 DUP3 ADD MSTORE PUSH1 0x64 ADD PUSH2 0x83B JUMP JUMPDEST CALLER PUSH1 0x0 SWAP1 DUP2 MSTORE PUSH1 0x14 PUSH1 0x20 MSTORE PUSH1 0x40 SWAP1 KECCAK256 SLOAD PUSH1 0xFF AND ISZERO PUSH2 0x1D94 JUMPI PUSH1 0x40 MLOAD PUSH3 0x461BCD PUSH1 0xE5 SHL DUP2 MSTORE PUSH1 0x20 PUSH1 0x4 DUP3 ADD MSTORE PUSH1 0xE PUSH1 0x24 DUP3 ADD MSTORE PUSH14 0x105B1C9958591E481A9BDA5B9959 PUSH1 0x92 SHL PUSH1 0x44 DUP3 ADD MSTORE PUSH1 0x64 ADD PUSH2 0x83B JUMP JUMPDEST PUSH1 0xB SLOAD ISZERO PUSH2 0x1E37 JUMPI PUSH1 0xA SLOAD PUSH1 0xB SLOAD PUSH1 0x40 MLOAD PUSH4 0x23B872DD PUSH1 0xE0 SHL DUP2 MSTORE CALLER PUSH1 0x4 DUP3 ADD MSTORE ADDRESS PUSH1 0x24 DUP3 ADD MSTORE PUSH1 0x44 DUP2 ADD SWAP2 SWAP1 SWAP2 MSTORE PUSH1 0x1 PUSH1 0x1 PUSH1 0xA0 SHL SUB SWAP1 SWAP2 AND SWAP1 PUSH4 0x23B872DD SWAP1 PUSH1 0x64 ADD PUSH1 0x20 PUSH1 0x40 MLOAD DUP1 DUP4 SUB DUP2 PUSH1 0x0 DUP8 GAS CALL ISZERO DUP1 ISZERO PUSH2 0x1DF7 JUMPI RETURNDATASIZE PUSH1 0x0 DUP1 RETURNDATACOPY RETURNDATASIZE PUSH1 0x0 REVERT JUMPDEST POP POP POP POP PUSH1 0x40 MLOAD RETURNDATASIZE PUSH1 0x1F NOT PUSH1 0x1F DUP3 ADD AND DUP3 ADD DUP1 PUSH1 0x40 MSTORE POP DUP2 ADD SWAP1 PUSH2 0x1E1B SWAP2 SWAP1 PUSH2 0x32BC JUMP JUMPDEST PUSH2 0x1E37 JUMPI PUSH1 0x40 MLOAD PUSH3 0x461BCD PUSH1 0xE5 SHL DUP2 MSTORE PUSH1 0x4 ADD PUSH2 0x83B SWAP1 PUSH2 0x3489 JUMP JUMPDEST PUSH1 0x40 DUP1 MLOAD DUP1 DUP3 ADD DUP3 MSTORE CALLER DUP1 DUP3 MSTORE PUSH1 0x0 PUSH1 0x20 DUP1 DUP5 ADD DUP3 DUP2 MSTORE PUSH1 0x13 DUP1 SLOAD PUSH1 0x1 DUP1 DUP3 ADD DUP4 SSTORE SWAP2 DUP6 MSTORE SWAP6 MLOAD PUSH32 0x66DE8FFDA797E3DE9C05E8FC57B3BF0EC28A930D40B0D285D93C06501CF6A090 PUSH1 0x2 SWAP1 SWAP8 MUL SWAP7 DUP8 ADD DUP1 SLOAD PUSH1 0x1 PUSH1 0x1 PUSH1 0xA0 SHL SUB NOT AND PUSH1 0x1 PUSH1 0x1 PUSH1 0xA0 SHL SUB SWAP1 SWAP3 AND SWAP2 SWAP1 SWAP2 OR SWAP1 SSTORE SWAP1 MLOAD PUSH32 0x66DE8FFDA797E3DE9C05E8FC57B3BF0EC28A930D40B0D285D93C06501CF6A091 SWAP1 SWAP6 ADD SWAP5 SWAP1 SWAP5 SSTORE PUSH1 0xB SLOAD DUP4 DUP4 MSTORE PUSH1 0xC DUP3 MSTORE DUP6 DUP4 KECCAK256 SSTORE PUSH1 0x14 DUP2 MSTORE SWAP1 DUP5 SWAP1 KECCAK256 DUP1 SLOAD PUSH1 0xFF NOT AND SWAP1 SWAP4 OR SWAP1 SWAP3 SSTORE SWAP2 MLOAD SWAP2 DUP3 MSTORE PUSH32 0x31E760AA525306ABA638A784082A013B6A1CC0A9A1789F3F22281C0453B10B1F SWAP2 ADD PUSH1 0x40 MLOAD DUP1 SWAP2 SUB SWAP1 LOG1 JUMP JUMPDEST PUSH1 0x0 DUP3 DUP2 MSTORE PUSH1 0x20 DUP2 SWAP1 MSTORE PUSH1 0x40 SWAP1 KECCAK256 PUSH1 0x1 ADD SLOAD PUSH2 0x1F3D DUP2 PUSH2 0x2741 JUMP JUMPDEST PUSH2 0x7AF DUP4 DUP4 PUSH2 0x27E0 JUMP JUMPDEST PUSH1 0x0 DUP1 MLOAD PUSH1 0x20 PUSH2 0x36D1 DUP4 CODECOPY DUP2 MLOAD SWAP2 MSTORE PUSH2 0x1F5F DUP2 PUSH2 0x2741 JUMP JUMPDEST PUSH1 0x0 PUSH1 0x12 SLOAD PUSH1 0xFF AND PUSH1 0x4 DUP2 GT ISZERO PUSH2 0x1F78 JUMPI PUSH2 0x1F78 PUSH2 0x2A7F JUMP JUMPDEST EQ PUSH2 0x1FC5 JUMPI PUSH1 0x40 MLOAD PUSH3 0x461BCD PUSH1 0xE5 SHL DUP2 MSTORE PUSH1 0x20 PUSH1 0x4 DUP3 ADD MSTORE PUSH1 0x1A PUSH1 0x24 DUP3 ADD MSTORE PUSH32 0x47616D65206E6F7420696E204372656174656420737461747573000000000000 PUSH1 0x44 DUP3 ADD MSTORE PUSH1 0x64 ADD PUSH2 0x83B JUMP JUMPDEST PUSH1 0x8 SLOAD TIMESTAMP LT ISZERO PUSH2 0x2017 JUMPI PUSH1 0x40 MLOAD PUSH3 0x461BCD PUSH1 0xE5 SHL DUP2 MSTORE PUSH1 0x20 PUSH1 0x4 DUP3 ADD MSTORE PUSH1 0x1C PUSH1 0x24 DUP3 ADD MSTORE PUSH32 0x526567697374726174696F6E206973206E6F74206F7665722079657400000000 PUSH1 0x44 DUP3 ADD MSTORE PUSH1 0x64 ADD PUSH2 0x83B JUMP JUMPDEST PUSH1 0x6 SLOAD PUSH1 0x13 SLOAD LT ISZERO PUSH2 0x206B JUMPI PUSH1 0x40 MLOAD PUSH3 0x461BCD PUSH1 0xE5 SHL DUP2 MSTORE PUSH1 0x20 PUSH1 0x4 DUP3 ADD MSTORE PUSH1 0x1B PUSH1 0x24 DUP3 ADD MSTORE PUSH32 0x4E6F7420656E6F75676820706C617965727320746F2073746172740000000000 PUSH1 0x44 DUP3 ADD MSTORE PUSH1 0x64 ADD PUSH2 0x83B JUMP JUMPDEST PUSH1 0x12 DUP1 SLOAD PUSH1 0xFF NOT AND PUSH1 0x1 OR SWAP1 SSTORE PUSH1 0x40 MLOAD PUSH32 0x762F260439BB4BE3EF6E4DC2786E2E7BD187D3D80B79057D7A424FE98563E335 SWAP1 PUSH1 0x0 SWAP1 LOG1 POP JUMP JUMPDEST PUSH1 0x0 DUP1 MLOAD PUSH1 0x20 PUSH2 0x36D1 DUP4 CODECOPY DUP2 MLOAD SWAP2 MSTORE PUSH2 0x20BC DUP2 PUSH2 0x2741 JUMP JUMPDEST PUSH1 0x0 PUSH1 0x12 SLOAD PUSH1 0xFF AND PUSH1 0x4 DUP2 GT ISZERO PUSH2 0x20D5 JUMPI PUSH2 0x20D5 PUSH2 0x2A7F JUMP JUMPDEST EQ DUP1 PUSH2 0x20F7 JUMPI POP PUSH1 0x1 PUSH1 0x12 SLOAD PUSH1 0xFF AND PUSH1 0x4 DUP2 GT ISZERO PUSH2 0x20F5 JUMPI PUSH2 0x20F5 PUSH2 0x2A7F JUMP JUMPDEST EQ JUMPDEST PUSH2 0x2156 JUMPI PUSH1 0x40 MLOAD PUSH3 0x461BCD PUSH1 0xE5 SHL DUP2 MSTORE PUSH1 0x20 PUSH1 0x4 DUP3 ADD MSTORE PUSH1 0x2A PUSH1 0x24 DUP3 ADD MSTORE PUSH32 0x43616E6E6F742063616E63656C20616E20656E646564206F7220646973747269 PUSH1 0x44 DUP3 ADD MSTORE PUSH10 0x62757465642067616D65 PUSH1 0xB0 SHL PUSH1 0x64 DUP3 ADD MSTORE PUSH1 0x84 ADD PUSH2 0x83B JUMP JUMPDEST PUSH1 0xE DUP1 SLOAD PUSH1 0x0 SWAP1 SWAP2 SSTORE PUSH1 0x12 DUP1 SLOAD PUSH1 0xFF NOT AND PUSH1 0x4 OR SWAP1 SSTORE DUP1 ISZERO PUSH2 0x2227 JUMPI PUSH1 0xD SLOAD PUSH1 0x2 SLOAD PUSH1 0x40 MLOAD PUSH4 0xA9059CBB PUSH1 0xE0 SHL DUP2 MSTORE PUSH1 0x1 PUSH1 0x1 PUSH1 0xA0 SHL SUB SWAP3 DUP4 AND SWAP3 PUSH4 0xA9059CBB SWAP3 PUSH2 0x21A8 SWAP3 SWAP2 AND SWAP1 DUP6 SWAP1 PUSH1 0x4 ADD PUSH2 0x30D8 JUMP JUMPDEST PUSH1 0x20 PUSH1 0x40 MLOAD DUP1 DUP4 SUB DUP2 PUSH1 0x0 DUP8 GAS CALL ISZERO DUP1 ISZERO PUSH2 0x21C7 JUMPI RETURNDATASIZE PUSH1 0x0 DUP1 RETURNDATACOPY RETURNDATASIZE PUSH1 0x0 REVERT JUMPDEST POP POP POP POP PUSH1 0x40 MLOAD RETURNDATASIZE PUSH1 0x1F NOT PUSH1 0x1F DUP3 ADD AND DUP3 ADD DUP1 PUSH1 0x40 MSTORE POP DUP2 ADD SWAP1 PUSH2 0x21EB SWAP2 SWAP1 PUSH2 0x32BC JUMP JUMPDEST PUSH2 0x2227 JUMPI PUSH1 0x40 MLOAD PUSH3 0x461BCD PUSH1 0xE5 SHL DUP2 MSTORE PUSH1 0x20 PUSH1 0x4 DUP3 ADD MSTORE PUSH1 0xD PUSH1 0x24 DUP3 ADD MSTORE PUSH13 0x1499599D5B990819985A5B1959 PUSH1 0x9A SHL PUSH1 0x44 DUP3 ADD MSTORE PUSH1 0x64 ADD PUSH2 0x83B JUMP JUMPDEST PUSH1 0x2 SLOAD PUSH1 0x40 MLOAD DUP3 DUP2 MSTORE PUSH1 0x1 PUSH1 0x1 PUSH1 0xA0 SHL SUB SWAP1 SWAP2 AND SWAP1 PUSH32 0xCABD9FFA4FF52290E56C52A9ED671760A0E5951EAA234FD9E0CCCCF507BF98CA SWAP1 PUSH1 0x20 ADD PUSH1 0x40 MLOAD DUP1 SWAP2 SUB SWAP1 LOG2 POP POP JUMP JUMPDEST PUSH1 0x0 PUSH2 0x2278 DUP2 PUSH2 0x2741 JUMP JUMPDEST PUSH1 0x1 PUSH1 0x1 PUSH1 0xA0 SHL SUB DUP3 AND PUSH2 0x22CE JUMPI PUSH1 0x40 MLOAD PUSH3 0x461BCD PUSH1 0xE5 SHL DUP2 MSTORE PUSH1 0x20 PUSH1 0x4 DUP3 ADD MSTORE PUSH1 0x1D PUSH1 0x24 DUP3 ADD MSTORE PUSH32 0x496E76616C69642067616D652072656769737472792061646472657373000000 PUSH1 0x44 DUP3 ADD MSTORE PUSH1 0x64 ADD PUSH2 0x83B JUMP JUMPDEST POP PUSH1 0x1 DUP1 SLOAD PUSH1 0x1 PUSH1 0x1 PUSH1 0xA0 SHL SUB SWAP1 SWAP3 AND PUSH2 0x100 MUL PUSH2 0x100 PUSH1 0x1 PUSH1 0xA8 SHL SUB NOT SWAP1 SWAP3 AND SWAP2 SWAP1 SWAP2 OR SWAP1 SSTORE JUMP JUMPDEST PUSH1 0x8 SLOAD CALLER SWAP1 TIMESTAMP LT PUSH2 0x234A JUMPI PUSH1 0x40 MLOAD PUSH3 0x461BCD PUSH1 0xE5 SHL DUP2 MSTORE PUSH1 0x20 PUSH1 0x4 DUP3 ADD MSTORE PUSH1 0x19 PUSH1 0x24 DUP3 ADD MSTORE PUSH32 0x526567697374726174696F6E2074696D65206973206F76657200000000000000 PUSH1 0x44 DUP3 ADD MSTORE PUSH1 0x64 ADD PUSH2 0x83B JUMP JUMPDEST PUSH1 0x0 PUSH1 0x12 SLOAD PUSH1 0xFF AND PUSH1 0x4 DUP2 GT ISZERO PUSH2 0x2363 JUMPI PUSH2 0x2363 PUSH2 0x2A7F JUMP JUMPDEST EQ PUSH2 0x23B0 JUMPI PUSH1 0x40 MLOAD PUSH3 0x461BCD PUSH1 0xE5 SHL DUP2 MSTORE PUSH1 0x20 PUSH1 0x4 DUP3 ADD DUP2 SWAP1 MSTORE PUSH1 0x24 DUP3 ADD MSTORE PUSH32 0x47616D6520697320616C7265616479206F6E676F696E67206F7220656E646564 PUSH1 0x44 DUP3 ADD MSTORE PUSH1 0x64 ADD PUSH2 0x83B JUMP JUMPDEST PUSH1 0x1 PUSH1 0x1 PUSH1 0xA0 SHL SUB DUP2 AND PUSH1 0x0 SWAP1 DUP2 MSTORE PUSH1 0xC PUSH1 0x20 MSTORE PUSH1 0x40 SWAP1 KECCAK256 SLOAD DUP1 PUSH2 0x242C JUMPI PUSH1 0x40 MLOAD PUSH3 0x461BCD PUSH1 0xE5 SHL DUP2 MSTORE PUSH1 0x20 PUSH1 0x4 DUP3 ADD MSTORE PUSH1 0x2D PUSH1 0x24 DUP3 ADD MSTORE PUSH32 0x506C6179657220686173206E6F74206A6F696E6564206F722066656520616C72 PUSH1 0x44 DUP3 ADD MSTORE PUSH13 0x1958591E481C99599D5B991959 PUSH1 0x9A SHL PUSH1 0x64 DUP3 ADD MSTORE PUSH1 0x84 ADD PUSH2 0x83B JUMP JUMPDEST PUSH1 0x0 DUP1 DUP1 JUMPDEST PUSH1 0x13 SLOAD DUP2 LT ISZERO PUSH2 0x248B JUMPI DUP5 PUSH1 0x1 PUSH1 0x1 PUSH1 0xA0 SHL SUB AND PUSH1 0x13 DUP3 DUP2 SLOAD DUP2 LT PUSH2 0x2458 JUMPI PUSH2 0x2458 PUSH2 0x311B JUMP JUMPDEST PUSH1 0x0 SWAP2 DUP3 MSTORE PUSH1 0x20 SWAP1 SWAP2 KECCAK256 PUSH1 0x2 SWAP1 SWAP2 MUL ADD SLOAD PUSH1 0x1 PUSH1 0x1 PUSH1 0xA0 SHL SUB AND SUB PUSH2 0x2483 JUMPI DUP1 SWAP3 POP PUSH1 0x1 SWAP2 POP PUSH2 0x248B JUMP JUMPDEST PUSH1 0x1 ADD PUSH2 0x2431 JUMP JUMPDEST POP DUP1 PUSH2 0x24EA JUMPI PUSH1 0x40 MLOAD PUSH3 0x461BCD PUSH1 0xE5 SHL DUP2 MSTORE PUSH1 0x20 PUSH1 0x4 DUP3 ADD MSTORE PUSH1 0x28 PUSH1 0x24 DUP3 ADD MSTORE PUSH32 0x496E7465726E616C206572726F723A20506C61796572206E6F7420666F756E64 PUSH1 0x44 DUP3 ADD MSTORE PUSH8 0x81A5B881B1A5CDD PUSH1 0xC2 SHL PUSH1 0x64 DUP3 ADD MSTORE PUSH1 0x84 ADD PUSH2 0x83B JUMP JUMPDEST PUSH1 0x13 SLOAD PUSH1 0x0 SWAP1 PUSH2 0x24FC SWAP1 PUSH1 0x1 SWAP1 PUSH2 0x36A7 JUMP JUMPDEST SWAP1 POP DUP1 DUP4 EQ PUSH2 0x2572 JUMPI PUSH1 0x13 DUP2 DUP2 SLOAD DUP2 LT PUSH2 0x2518 JUMPI PUSH2 0x2518 PUSH2 0x311B JUMP JUMPDEST SWAP1 PUSH1 0x0 MSTORE PUSH1 0x20 PUSH1 0x0 KECCAK256 SWAP1 PUSH1 0x2 MUL ADD PUSH1 0x13 DUP5 DUP2 SLOAD DUP2 LT PUSH2 0x2539 JUMPI PUSH2 0x2539 PUSH2 0x311B JUMP JUMPDEST PUSH1 0x0 SWAP2 DUP3 MSTORE PUSH1 0x20 SWAP1 SWAP2 KECCAK256 DUP3 SLOAD PUSH1 0x2 SWAP1 SWAP3 MUL ADD DUP1 SLOAD PUSH1 0x1 PUSH1 0x1 PUSH1 0xA0 SHL SUB NOT AND PUSH1 0x1 PUSH1 0x1 PUSH1 0xA0 SHL SUB SWAP1 SWAP3 AND SWAP2 SWAP1 SWAP2 OR DUP2 SSTORE PUSH1 0x1 SWAP2 DUP3 ADD SLOAD SWAP2 ADD SSTORE JUMPDEST PUSH1 0x13 DUP1 SLOAD DUP1 PUSH2 0x2583 JUMPI PUSH2 0x2583 PUSH2 0x36BA JUMP JUMPDEST PUSH1 0x0 DUP3 DUP2 MSTORE PUSH1 0x20 DUP1 DUP3 KECCAK256 PUSH1 0x2 PUSH1 0x0 NOT SWAP1 SWAP5 ADD SWAP4 DUP5 MUL ADD DUP1 SLOAD PUSH1 0x1 PUSH1 0x1 PUSH1 0xA0 SHL SUB NOT AND DUP2 SSTORE PUSH1 0x1 ADD DUP3 SWAP1 SSTORE SWAP2 SWAP1 SWAP3 SSTORE PUSH1 0x1 PUSH1 0x1 PUSH1 0xA0 SHL SUB DUP8 AND DUP3 MSTORE PUSH1 0xC SWAP1 MSTORE PUSH1 0x40 DUP2 KECCAK256 DUP2 SWAP1 SSTORE PUSH1 0xE DUP1 SLOAD DUP7 SWAP3 SWAP1 PUSH2 0x25DA SWAP1 DUP5 SWAP1 PUSH2 0x36A7 JUMP JUMPDEST SWAP1 SWAP2 SSTORE POP POP PUSH1 0x1 PUSH1 0x1 PUSH1 0xA0 SHL SUB DUP1 DUP7 AND PUSH1 0x0 SWAP1 DUP2 MSTORE PUSH1 0x14 PUSH1 0x20 SWAP1 DUP2 MSTORE PUSH1 0x40 DUP1 DUP4 KECCAK256 DUP1 SLOAD PUSH1 0xFF NOT AND SWAP1 SSTORE PUSH1 0x15 SWAP1 SWAP2 MSTORE DUP1 DUP3 KECCAK256 SWAP2 SWAP1 SWAP2 SSTORE PUSH1 0xA SLOAD SWAP1 MLOAD PUSH4 0xA9059CBB PUSH1 0xE0 SHL DUP2 MSTORE SWAP2 AND SWAP1 PUSH4 0xA9059CBB SWAP1 PUSH2 0x2637 SWAP1 DUP9 SWAP1 DUP9 SWAP1 PUSH1 0x4 ADD PUSH2 0x30D8 JUMP JUMPDEST PUSH1 0x20 PUSH1 0x40 MLOAD DUP1 DUP4 SUB DUP2 PUSH1 0x0 DUP8 GAS CALL ISZERO DUP1 ISZERO PUSH2 0x2656 JUMPI RETURNDATASIZE PUSH1 0x0 DUP1 RETURNDATACOPY RETURNDATASIZE PUSH1 0x0 REVERT JUMPDEST POP POP POP POP PUSH1 0x40 MLOAD RETURNDATASIZE PUSH1 0x1F NOT PUSH1 0x1F DUP3 ADD AND DUP3 ADD DUP1 PUSH1 0x40 MSTORE POP DUP2 ADD SWAP1 PUSH2 0x267A SWAP2 SWAP1 PUSH2 0x32BC JUMP JUMPDEST PUSH2 0x26BF JUMPI PUSH1 0x40 MLOAD PUSH3 0x461BCD PUSH1 0xE5 SHL DUP2 MSTORE PUSH1 0x20 PUSH1 0x4 DUP3 ADD MSTORE PUSH1 0x16 PUSH1 0x24 DUP3 ADD MSTORE PUSH22 0x1499599D5B99081D1C985B9CD9995C8819985A5B1959 PUSH1 0x52 SHL PUSH1 0x44 DUP3 ADD MSTORE PUSH1 0x64 ADD PUSH2 0x83B JUMP JUMPDEST DUP5 PUSH1 0x1 PUSH1 0x1 PUSH1 0xA0 SHL SUB AND PUSH32 0xBDDAEC5E3DB6D33AC9B0043F3C92CF3D081B19F8646F372EB3A68A51E273A104 DUP6 PUSH1 0x40 MLOAD PUSH2 0x26FA SWAP2 DUP2 MSTORE PUSH1 0x20 ADD SWAP1 JUMP JUMPDEST PUSH1 0x40 MLOAD DUP1 SWAP2 SUB SWAP1 LOG2 POP POP POP POP POP JUMP JUMPDEST PUSH1 0x13 DUP2 DUP2 SLOAD DUP2 LT PUSH2 0x2719 JUMPI PUSH1 0x0 DUP1 REVERT JUMPDEST PUSH1 0x0 SWAP2 DUP3 MSTORE PUSH1 0x20 SWAP1 SWAP2 KECCAK256 PUSH1 0x2 SWAP1 SWAP2 MUL ADD DUP1 SLOAD PUSH1 0x1 SWAP1 SWAP2 ADD SLOAD PUSH1 0x1 PUSH1 0x1 PUSH1 0xA0 SHL SUB SWAP1 SWAP2 AND SWAP2 POP DUP3 JUMP JUMPDEST PUSH2 0x274B DUP2 CALLER PUSH2 0x2896 JUMP JUMPDEST POP JUMP JUMPDEST PUSH1 0x0 PUSH2 0x275A DUP4 DUP4 PUSH2 0x136B JUMP JUMPDEST PUSH2 0x27D8 JUMPI PUSH1 0x0 DUP4 DUP2 MSTORE PUSH1 0x20 DUP2 DUP2 MSTORE PUSH1 0x40 DUP1 DUP4 KECCAK256 PUSH1 0x1 PUSH1 0x1 PUSH1 0xA0 SHL SUB DUP7 AND DUP5 MSTORE SWAP1 SWAP2 MSTORE SWAP1 KECCAK256 DUP1 SLOAD PUSH1 0xFF NOT AND PUSH1 0x1 OR SWAP1 SSTORE PUSH2 0x2790 CALLER SWAP1 JUMP JUMPDEST PUSH1 0x1 PUSH1 0x1 PUSH1 0xA0 SHL SUB AND DUP3 PUSH1 0x1 PUSH1 0x1 PUSH1 0xA0 SHL SUB AND DUP5 PUSH32 0x2F8788117E7EFF1D82E926EC794901D17C78024A50270940304540A733656F0D PUSH1 0x40 MLOAD PUSH1 0x40 MLOAD DUP1 SWAP2 SUB SWAP1 LOG4 POP PUSH1 0x1 PUSH2 0x642 JUMP JUMPDEST POP PUSH1 0x0 PUSH2 0x642 JUMP JUMPDEST PUSH1 0x0 PUSH2 0x27EC DUP4 DUP4 PUSH2 0x136B JUMP JUMPDEST ISZERO PUSH2 0x27D8 JUMPI PUSH1 0x0 DUP4 DUP2 MSTORE PUSH1 0x20 DUP2 DUP2 MSTORE PUSH1 0x40 DUP1 DUP4 KECCAK256 PUSH1 0x1 PUSH1 0x1 PUSH1 0xA0 SHL SUB DUP7 AND DUP1 DUP6 MSTORE SWAP3 MSTORE DUP1 DUP4 KECCAK256 DUP1 SLOAD PUSH1 0xFF NOT AND SWAP1 SSTORE MLOAD CALLER SWAP3 DUP7 SWAP2 PUSH32 0xF6391F5C32D9C69D2A47EA670B442974B53935D1EDC7FD64EB21E047A839171B SWAP2 SWAP1 LOG4 POP PUSH1 0x1 PUSH2 0x642 JUMP JUMPDEST PUSH1 0x0 DUP3 DUP2 MSTORE PUSH1 0x20 DUP2 SWAP1 MSTORE PUSH1 0x40 DUP1 DUP3 KECCAK256 PUSH1 0x1 ADD DUP1 SLOAD SWAP1 DUP5 SWAP1 SSTORE SWAP1 MLOAD SWAP1 SWAP2 DUP4 SWAP2 DUP4 SWAP2 DUP7 SWAP2 PUSH32 0xBD79B86FFE0AB8E8776151514217CD7CACD52C909F66475C3AF44E129F0B00FF SWAP2 SWAP1 LOG4 POP POP POP JUMP JUMPDEST PUSH2 0x28A0 DUP3 DUP3 PUSH2 0x136B JUMP JUMPDEST PUSH2 0x28C1 JUMPI DUP1 DUP3 PUSH1 0x40 MLOAD PUSH4 0xE2517D3F PUSH1 0xE0 SHL DUP2 MSTORE PUSH1 0x4 ADD PUSH2 0x83B SWAP3 SWAP2 SWAP1 PUSH2 0x30D8 JUMP JUMPDEST POP POP JUMP JUMPDEST DUP3 DUP1 SLOAD DUP3 DUP3 SSTORE SWAP1 PUSH1 0x0 MSTORE PUSH1 0x20 PUSH1 0x0 KECCAK256 SWAP1 DUP2 ADD SWAP3 DUP3 ISZERO PUSH2 0x2918 JUMPI SWAP2 PUSH1 0x20 MUL DUP3 ADD JUMPDEST DUP3 DUP2 GT ISZERO PUSH2 0x2918 JUMPI DUP2 SLOAD PUSH1 0x1 PUSH1 0x1 PUSH1 0xA0 SHL SUB NOT AND PUSH1 0x1 PUSH1 0x1 PUSH1 0xA0 SHL SUB DUP5 CALLDATALOAD AND OR DUP3 SSTORE PUSH1 0x20 SWAP1 SWAP3 ADD SWAP2 PUSH1 0x1 SWAP1 SWAP2 ADD SWAP1 PUSH2 0x28E5 JUMP JUMPDEST POP PUSH2 0x2924 SWAP3 SWAP2 POP PUSH2 0x29F7 JUMP JUMPDEST POP SWAP1 JUMP JUMPDEST DUP3 DUP1 SLOAD DUP3 DUP3 SSTORE SWAP1 PUSH1 0x0 MSTORE PUSH1 0x20 PUSH1 0x0 KECCAK256 SWAP1 DUP2 ADD SWAP3 DUP3 ISZERO PUSH2 0x2918 JUMPI SWAP2 PUSH1 0x20 MUL DUP3 ADD JUMPDEST DUP3 DUP2 GT ISZERO PUSH2 0x2918 JUMPI DUP3 MLOAD DUP3 SSTORE SWAP2 PUSH1 0x20 ADD SWAP2 SWAP1 PUSH1 0x1 ADD SWAP1 PUSH2 0x2948 JUMP JUMPDEST PUSH1 0x40 MLOAD DUP1 PUSH2 0x1A0 ADD PUSH1 0x40 MSTORE DUP1 PUSH1 0x0 PUSH1 0x1 PUSH1 0x1 PUSH1 0xA0 SHL SUB AND DUP2 MSTORE PUSH1 0x20 ADD PUSH1 0x60 DUP2 MSTORE PUSH1 0x20 ADD PUSH1 0x60 DUP2 MSTORE PUSH1 0x20 ADD PUSH1 0x0 PUSH1 0x4 DUP2 GT ISZERO PUSH2 0x29A0 JUMPI PUSH2 0x29A0 PUSH2 0x2A7F JUMP JUMPDEST DUP2 MSTORE PUSH1 0x20 ADD PUSH1 0x0 DUP2 MSTORE PUSH1 0x20 ADD PUSH1 0x0 DUP2 MSTORE PUSH1 0x20 ADD PUSH1 0x0 DUP2 MSTORE PUSH1 0x20 ADD PUSH1 0x0 DUP2 MSTORE PUSH1 0x20 ADD PUSH1 0x0 DUP2 MSTORE PUSH1 0x20 ADD PUSH1 0x0 PUSH1 0x1 PUSH1 0x1 PUSH1 0xA0 SHL SUB AND DUP2 MSTORE PUSH1 0x20 ADD PUSH1 0x0 DUP2 MSTORE PUSH1 0x20 ADD PUSH1 0x0 PUSH1 0x1 PUSH1 0x1 PUSH1 0xA0 SHL SUB AND DUP2 MSTORE PUSH1 0x20 ADD PUSH1 0x0 DUP2 MSTORE POP SWAP1 JUMP JUMPDEST JUMPDEST DUP1 DUP3 GT ISZERO PUSH2 0x2924 JUMPI PUSH1 0x0 DUP2 SSTORE PUSH1 0x1 ADD PUSH2 0x29F8 JUMP JUMPDEST PUSH1 0x0 PUSH1 0x20 DUP3 DUP5 SUB SLT ISZERO PUSH2 0x2A1E JUMPI PUSH1 0x0 DUP1 REVERT JUMPDEST DUP2 CALLDATALOAD PUSH1 0x1 PUSH1 0x1 PUSH1 0xE0 SHL SUB NOT DUP2 AND DUP2 EQ PUSH2 0x2A36 JUMPI PUSH1 0x0 DUP1 REVERT JUMPDEST SWAP4 SWAP3 POP POP POP JUMP JUMPDEST PUSH1 0x1 PUSH1 0x1 PUSH1 0xA0 SHL SUB DUP2 AND DUP2 EQ PUSH2 0x274B JUMPI PUSH1 0x0 DUP1 REVERT JUMPDEST DUP1 CALLDATALOAD PUSH2 0x2A5D DUP2 PUSH2 0x2A3D JUMP JUMPDEST SWAP2 SWAP1 POP JUMP JUMPDEST PUSH1 0x0 PUSH1 0x20 DUP3 DUP5 SUB SLT ISZERO PUSH2 0x2A74 JUMPI PUSH1 0x0 DUP1 REVERT JUMPDEST DUP2 CALLDATALOAD PUSH2 0x2A36 DUP2 PUSH2 0x2A3D JUMP JUMPDEST PUSH4 0x4E487B71 PUSH1 0xE0 SHL PUSH1 0x0 MSTORE PUSH1 0x21 PUSH1 0x4 MSTORE PUSH1 0x24 PUSH1 0x0 REVERT JUMPDEST PUSH1 0x5 DUP2 LT PUSH2 0x274B JUMPI PUSH2 0x274B PUSH2 0x2A7F JUMP JUMPDEST PUSH2 0x2AAE DUP2 PUSH2 0x2A95 JUMP JUMPDEST SWAP1 MSTORE JUMP JUMPDEST PUSH1 0x0 PUSH1 0x20 DUP1 DUP4 MSTORE PUSH1 0xE0 DUP4 ADD DUP5 MLOAD PUSH2 0x2AC8 DUP2 PUSH2 0x2A95 JUMP JUMPDEST DUP1 DUP4 DUP7 ADD MSTORE POP PUSH1 0x1 DUP1 PUSH1 0xA0 SHL SUB DUP3 DUP7 ADD MLOAD AND PUSH1 0x40 DUP6 ADD MSTORE PUSH1 0x40 DUP6 ADD MLOAD PUSH1 0x60 DUP6 ADD MSTORE PUSH1 0x60 DUP6 ADD MLOAD PUSH1 0x80 DUP6 ADD MSTORE PUSH1 0x80 DUP6 ADD MLOAD PUSH1 0xA0 DUP6 ADD MSTORE PUSH1 0xA0 DUP6 ADD MLOAD PUSH1 0xC0 DUP1 DUP7 ADD MSTORE DUP2 DUP2 MLOAD DUP1 DUP5 MSTORE PUSH2 0x100 DUP8 ADD SWAP2 POP DUP5 DUP4 ADD SWAP4 POP PUSH1 0x0 SWAP3 POP JUMPDEST DUP1 DUP4 LT ISZERO PUSH2 0x2B3F JUMPI DUP4 MLOAD DUP3 MSTORE SWAP3 DUP5 ADD SWAP3 PUSH1 0x1 SWAP3 SWAP1 SWAP3 ADD SWAP2 SWAP1 DUP5 ADD SWAP1 PUSH2 0x2B1F JUMP JUMPDEST POP SWAP7 SWAP6 POP POP POP POP POP POP JUMP JUMPDEST PUSH1 0xA0 DUP2 ADD PUSH2 0x2B57 DUP8 PUSH2 0x2A95 JUMP JUMPDEST SWAP6 DUP2 MSTORE PUSH1 0x1 PUSH1 0x1 PUSH1 0xA0 SHL SUB SWAP5 SWAP1 SWAP5 AND PUSH1 0x20 DUP6 ADD MSTORE PUSH1 0x40 DUP5 ADD SWAP3 SWAP1 SWAP3 MSTORE PUSH1 0x60 DUP4 ADD MSTORE PUSH1 0x80 SWAP1 SWAP2 ADD MSTORE SWAP1 JUMP JUMPDEST PUSH1 0x20 DUP2 ADD PUSH2 0x2B8E DUP4 PUSH2 0x2A95 JUMP JUMPDEST SWAP2 SWAP1 MSTORE SWAP1 JUMP JUMPDEST PUSH1 0x0 PUSH1 0x20 DUP3 DUP5 SUB SLT ISZERO PUSH2 0x2BA6 JUMPI PUSH1 0x0 DUP1 REVERT JUMPDEST POP CALLDATALOAD SWAP2 SWAP1 POP JUMP JUMPDEST PUSH1 0x0 DUP1 PUSH1 0x40 DUP4 DUP6 SUB SLT ISZERO PUSH2 0x2BC0 JUMPI PUSH1 0x0 DUP1 REVERT JUMPDEST DUP3 CALLDATALOAD SWAP2 POP PUSH1 0x20 DUP4 ADD CALLDATALOAD PUSH2 0x2BD2 DUP2 PUSH2 0x2A3D JUMP JUMPDEST DUP1 SWAP2 POP POP SWAP3 POP SWAP3 SWAP1 POP JUMP JUMPDEST PUSH1 0x0 DUP1 PUSH1 0x20 DUP4 DUP6 SUB SLT ISZERO PUSH2 0x2BF0 JUMPI PUSH1 0x0 DUP1 REVERT JUMPDEST DUP3 CALLDATALOAD PUSH8 0xFFFFFFFFFFFFFFFF DUP1 DUP3 GT ISZERO PUSH2 0x2C08 JUMPI PUSH1 0x0 DUP1 REVERT JUMPDEST DUP2 DUP6 ADD SWAP2 POP DUP6 PUSH1 0x1F DUP4 ADD SLT PUSH2 0x2C1C JUMPI PUSH1 0x0 DUP1 REVERT JUMPDEST DUP2 CALLDATALOAD DUP2 DUP2 GT ISZERO PUSH2 0x2C2B JUMPI PUSH1 0x0 DUP1 REVERT JUMPDEST DUP7 PUSH1 0x20 DUP3 PUSH1 0x5 SHL DUP6 ADD ADD GT ISZERO PUSH2 0x2C40 JUMPI PUSH1 0x0 DUP1 REVERT JUMPDEST PUSH1 0x20 SWAP3 SWAP1 SWAP3 ADD SWAP7 SWAP2 SWAP6 POP SWAP1 SWAP4 POP POP POP POP JUMP JUMPDEST PUSH1 0x0 DUP2 MLOAD DUP1 DUP5 MSTORE PUSH1 0x0 JUMPDEST DUP2 DUP2 LT ISZERO PUSH2 0x2C78 JUMPI PUSH1 0x20 DUP2 DUP6 ADD DUP2 ADD MLOAD DUP7 DUP4 ADD DUP3 ADD MSTORE ADD PUSH2 0x2C5C JUMP JUMPDEST POP PUSH1 0x0 PUSH1 0x20 DUP3 DUP7 ADD ADD MSTORE PUSH1 0x20 PUSH1 0x1F NOT PUSH1 0x1F DUP4 ADD AND DUP6 ADD ADD SWAP2 POP POP SWAP3 SWAP2 POP POP JUMP JUMPDEST PUSH1 0x20 DUP2 MSTORE PUSH1 0x0 PUSH2 0x2A36 PUSH1 0x20 DUP4 ADD DUP5 PUSH2 0x2C52 JUMP JUMPDEST PUSH1 0x0 PUSH1 0x20 DUP3 DUP5 SUB SLT ISZERO PUSH2 0x2CBD JUMPI PUSH1 0x0 DUP1 REVERT JUMPDEST DUP2 CALLDATALOAD PUSH8 0xFFFFFFFFFFFFFFFF DUP2 GT ISZERO PUSH2 0x2CD4 JUMPI PUSH1 0x0 DUP1 REVERT JUMPDEST DUP3 ADD PUSH1 0xC0 DUP2 DUP6 SUB SLT ISZERO PUSH2 0x2A36 JUMPI PUSH1 0x0 DUP1 REVERT JUMPDEST PUSH1 0x20 DUP2 ADD PUSH1 0x3 DUP4 LT PUSH2 0x2B8E JUMPI PUSH2 0x2B8E PUSH2 0x2A7F JUMP JUMPDEST PUSH4 0x4E487B71 PUSH1 0xE0 SHL PUSH1 0x0 MSTORE PUSH1 0x41 PUSH1 0x4 MSTORE PUSH1 0x24 PUSH1 0x0 REVERT JUMPDEST PUSH1 0x40 MLOAD PUSH2 0x1A0 DUP2 ADD PUSH8 0xFFFFFFFFFFFFFFFF DUP2 GT DUP3 DUP3 LT OR ISZERO PUSH2 0x2D34 JUMPI PUSH2 0x2D34 PUSH2 0x2CFA JUMP JUMPDEST PUSH1 0x40 MSTORE SWAP1 JUMP JUMPDEST PUSH1 0x40 MLOAD PUSH1 0x1F DUP3 ADD PUSH1 0x1F NOT AND DUP2 ADD PUSH8 0xFFFFFFFFFFFFFFFF DUP2 GT DUP3 DUP3 LT OR ISZERO PUSH2 0x2D63 JUMPI PUSH2 0x2D63 PUSH2 0x2CFA JUMP JUMPDEST PUSH1 0x40 MSTORE SWAP2 SWAP1 POP JUMP JUMPDEST PUSH1 0x0 DUP3 PUSH1 0x1F DUP4 ADD SLT PUSH2 0x2D7C JUMPI PUSH1 0x0 DUP1 REVERT JUMPDEST DUP2 CALLDATALOAD PUSH8 0xFFFFFFFFFFFFFFFF DUP2 GT ISZERO PUSH2 0x2D96 JUMPI PUSH2 0x2D96 PUSH2 0x2CFA JUMP JUMPDEST PUSH2 0x2DA9 PUSH1 0x1F DUP3 ADD PUSH1 0x1F NOT AND PUSH1 0x20 ADD PUSH2 0x2D3A JUMP JUMPDEST DUP2 DUP2 MSTORE DUP5 PUSH1 0x20 DUP4 DUP7 ADD ADD GT ISZERO PUSH2 0x2DBE JUMPI PUSH1 0x0 DUP1 REVERT JUMPDEST DUP2 PUSH1 0x20 DUP6 ADD PUSH1 0x20 DUP4 ADD CALLDATACOPY PUSH1 0x0 SWAP2 DUP2 ADD PUSH1 0x20 ADD SWAP2 SWAP1 SWAP2 MSTORE SWAP4 SWAP3 POP POP POP JUMP JUMPDEST PUSH1 0x5 DUP2 LT PUSH2 0x274B JUMPI PUSH1 0x0 DUP1 REVERT JUMPDEST DUP1 CALLDATALOAD PUSH2 0x2A5D DUP2 PUSH2 0x2DDB JUMP JUMPDEST DUP1 CALLDATALOAD PUSH1 0x3 DUP2 LT PUSH2 0x2A5D JUMPI PUSH1 0x0 DUP1 REVERT JUMPDEST PUSH1 0x0 DUP3 PUSH1 0x1F DUP4 ADD SLT PUSH2 0x2E13 JUMPI PUSH1 0x0 DUP1 REVERT JUMPDEST DUP2 CALLDATALOAD PUSH1 0x20 PUSH8 0xFFFFFFFFFFFFFFFF DUP3 GT ISZERO PUSH2 0x2E2F JUMPI PUSH2 0x2E2F PUSH2 0x2CFA JUMP JUMPDEST DUP2 PUSH1 0x5 SHL PUSH2 0x2E3E DUP3 DUP3 ADD PUSH2 0x2D3A JUMP JUMPDEST SWAP3 DUP4 MSTORE DUP5 DUP2 ADD DUP3 ADD SWAP3 DUP3 DUP2 ADD SWAP1 DUP8 DUP6 GT ISZERO PUSH2 0x2E58 JUMPI PUSH1 0x0 DUP1 REVERT JUMPDEST DUP4 DUP8 ADD SWAP3 POP JUMPDEST DUP5 DUP4 LT ISZERO PUSH2 0x2E77 JUMPI DUP3 CALLDATALOAD DUP3 MSTORE SWAP2 DUP4 ADD SWAP2 SWAP1 DUP4 ADD SWAP1 PUSH2 0x2E5E JUMP JUMPDEST SWAP8 SWAP7 POP POP POP POP POP POP POP JUMP JUMPDEST PUSH1 0x0 DUP1 PUSH1 0x40 DUP4 DUP6 SUB SLT ISZERO PUSH2 0x2E95 JUMPI PUSH1 0x0 DUP1 REVERT JUMPDEST DUP3 CALLDATALOAD PUSH8 0xFFFFFFFFFFFFFFFF DUP1 DUP3 GT ISZERO PUSH2 0x2EAD JUMPI PUSH1 0x0 DUP1 REVERT JUMPDEST SWAP1 DUP5 ADD SWAP1 PUSH2 0x1A0 DUP3 DUP8 SUB SLT ISZERO PUSH2 0x2EC2 JUMPI PUSH1 0x0 DUP1 REVERT JUMPDEST PUSH2 0x2ECA PUSH2 0x2D10 JUMP JUMPDEST DUP3 CALLDATALOAD DUP3 DUP2 GT ISZERO PUSH2 0x2ED9 JUMPI PUSH1 0x0 DUP1 REVERT JUMPDEST PUSH2 0x2EE5 DUP9 DUP3 DUP7 ADD PUSH2 0x2D6B JUMP JUMPDEST DUP3 MSTORE POP PUSH1 0x20 DUP4 ADD CALLDATALOAD DUP3 DUP2 GT ISZERO PUSH2 0x2EFA JUMPI PUSH1 0x0 DUP1 REVERT JUMPDEST PUSH2 0x2F06 DUP9 DUP3 DUP7 ADD PUSH2 0x2D6B JUMP JUMPDEST PUSH1 0x20 DUP4 ADD MSTORE POP PUSH2 0x2F18 PUSH1 0x40 DUP5 ADD PUSH2 0x2DE8 JUMP JUMPDEST PUSH1 0x40 DUP3 ADD MSTORE PUSH2 0x2F29 PUSH1 0x60 DUP5 ADD PUSH2 0x2A52 JUMP JUMPDEST PUSH1 0x60 DUP3 ADD MSTORE PUSH1 0x80 DUP4 ADD CALLDATALOAD PUSH1 0x80 DUP3 ADD MSTORE PUSH1 0xA0 DUP4 ADD CALLDATALOAD PUSH1 0xA0 DUP3 ADD MSTORE PUSH1 0xC0 DUP4 ADD CALLDATALOAD PUSH1 0xC0 DUP3 ADD MSTORE PUSH1 0xE0 DUP4 ADD CALLDATALOAD PUSH1 0xE0 DUP3 ADD MSTORE PUSH2 0x100 DUP1 DUP5 ADD CALLDATALOAD DUP2 DUP4 ADD MSTORE POP PUSH2 0x120 PUSH2 0x2F70 DUP2 DUP6 ADD PUSH2 0x2A52 JUMP JUMPDEST SWAP1 DUP3 ADD MSTORE PUSH2 0x140 DUP4 DUP2 ADD CALLDATALOAD SWAP1 DUP3 ADD MSTORE PUSH2 0x160 PUSH2 0x2F8D DUP2 DUP6 ADD PUSH2 0x2DF3 JUMP JUMPDEST SWAP1 DUP3 ADD MSTORE PUSH2 0x180 DUP4 DUP2 ADD CALLDATALOAD DUP4 DUP2 GT ISZERO PUSH2 0x2FA5 JUMPI PUSH1 0x0 DUP1 REVERT JUMPDEST PUSH2 0x2FB1 DUP10 DUP3 DUP8 ADD PUSH2 0x2E02 JUMP JUMPDEST DUP3 DUP5 ADD MSTORE POP POP DUP1 SWAP5 POP POP POP POP PUSH2 0x2FC9 PUSH1 0x20 DUP5 ADD PUSH2 0x2A52 JUMP JUMPDEST SWAP1 POP SWAP3 POP SWAP3 SWAP1 POP JUMP JUMPDEST PUSH1 0x20 DUP2 MSTORE PUSH2 0x2FEC PUSH1 0x20 DUP3 ADD DUP4 MLOAD PUSH1 0x1 PUSH1 0x1 PUSH1 0xA0 SHL SUB AND SWAP1 MSTORE JUMP JUMPDEST PUSH1 0x0 PUSH1 0x20 DUP4 ADD MLOAD PUSH2 0x1A0 DUP1 PUSH1 0x40 DUP6 ADD MSTORE PUSH2 0x300A PUSH2 0x1C0 DUP6 ADD DUP4 PUSH2 0x2C52 JUMP JUMPDEST SWAP2 POP PUSH1 0x40 DUP6 ADD MLOAD PUSH1 0x1F NOT DUP6 DUP5 SUB ADD PUSH1 0x60 DUP7 ADD MSTORE PUSH2 0x3027 DUP4 DUP3 PUSH2 0x2C52 JUMP JUMPDEST SWAP3 POP POP PUSH1 0x60 DUP6 ADD MLOAD PUSH2 0x303C PUSH1 0x80 DUP7 ADD DUP3 PUSH2 0x2AA5 JUMP JUMPDEST POP PUSH1 0x80 DUP6 ADD MLOAD PUSH2 0x304F PUSH1 0xA0 DUP7 ADD DUP3 PUSH2 0x2AA5 JUMP JUMPDEST POP PUSH1 0xA0 DUP6 ADD MLOAD PUSH1 0xC0 DUP6 ADD MSTORE PUSH1 0xC0 DUP6 ADD MLOAD PUSH1 0xE0 DUP6 ADD MSTORE PUSH1 0xE0 DUP6 ADD MLOAD PUSH2 0x100 DUP2 DUP2 DUP8 ADD MSTORE DUP1 DUP8 ADD MLOAD SWAP2 POP POP PUSH2 0x120 DUP2 DUP2 DUP8 ADD MSTORE DUP1 DUP8 ADD MLOAD SWAP2 POP POP PUSH2 0x140 PUSH2 0x309E DUP2 DUP8 ADD DUP4 PUSH1 0x1 PUSH1 0x1 PUSH1 0xA0 SHL SUB AND SWAP1 MSTORE JUMP JUMPDEST DUP7 ADD MLOAD PUSH2 0x160 DUP7 DUP2 ADD SWAP2 SWAP1 SWAP2 MSTORE DUP7 ADD MLOAD SWAP1 POP PUSH2 0x180 PUSH2 0x30C7 DUP2 DUP8 ADD DUP4 PUSH1 0x1 PUSH1 0x1 PUSH1 0xA0 SHL SUB AND SWAP1 MSTORE JUMP JUMPDEST SWAP6 SWAP1 SWAP6 ADD MLOAD SWAP4 ADD SWAP3 SWAP1 SWAP3 MSTORE POP SWAP2 SWAP1 POP JUMP JUMPDEST PUSH1 0x1 PUSH1 0x1 PUSH1 0xA0 SHL SUB SWAP3 SWAP1 SWAP3 AND DUP3 MSTORE PUSH1 0x20 DUP3 ADD MSTORE PUSH1 0x40 ADD SWAP1 JUMP JUMPDEST PUSH1 0x20 DUP1 DUP3 MSTORE PUSH1 0x10 SWAP1 DUP3 ADD MSTORE PUSH16 0x47616D65206E6F74206F6E676F696E67 PUSH1 0x80 SHL PUSH1 0x40 DUP3 ADD MSTORE PUSH1 0x60 ADD SWAP1 JUMP JUMPDEST PUSH4 0x4E487B71 PUSH1 0xE0 SHL PUSH1 0x0 MSTORE PUSH1 0x32 PUSH1 0x4 MSTORE PUSH1 0x24 PUSH1 0x0 REVERT JUMPDEST PUSH1 0x20 DUP1 DUP3 MSTORE DUP2 DUP2 ADD DUP4 SWAP1 MSTORE PUSH1 0x0 SWAP1 DUP5 PUSH1 0x40 DUP5 ADD DUP4 JUMPDEST DUP7 DUP2 LT ISZERO PUSH2 0x2B3F JUMPI DUP3 CALLDATALOAD PUSH2 0x3159 DUP2 PUSH2 0x2A3D JUMP JUMPDEST PUSH1 0x1 PUSH1 0x1 PUSH1 0xA0 SHL SUB AND DUP3 MSTORE SWAP2 DUP4 ADD SWAP2 SWAP1 DUP4 ADD SWAP1 PUSH1 0x1 ADD PUSH2 0x3146 JUMP JUMPDEST PUSH1 0x1 DUP2 DUP2 SHR SWAP1 DUP3 AND DUP1 PUSH2 0x3188 JUMPI PUSH1 0x7F DUP3 AND SWAP2 POP JUMPDEST PUSH1 0x20 DUP3 LT DUP2 SUB PUSH2 0x31A8 JUMPI PUSH4 0x4E487B71 PUSH1 0xE0 SHL PUSH1 0x0 MSTORE PUSH1 0x22 PUSH1 0x4 MSTORE PUSH1 0x24 PUSH1 0x0 REVERT JUMPDEST POP SWAP2 SWAP1 POP JUMP JUMPDEST PUSH1 0x0 PUSH1 0x20 DUP3 DUP5 SUB SLT ISZERO PUSH2 0x31C0 JUMPI PUSH1 0x0 DUP1 REVERT JUMPDEST DUP2 CALLDATALOAD PUSH2 0x2A36 DUP2 PUSH2 0x2DDB JUMP JUMPDEST DUP2 DUP4 MSTORE PUSH1 0x0 PUSH1 0x1 PUSH1 0x1 PUSH1 0xFB SHL SUB DUP4 GT ISZERO PUSH2 0x31E4 JUMPI PUSH1 0x0 DUP1 REVERT JUMPDEST DUP3 PUSH1 0x5 SHL DUP1 DUP4 PUSH1 0x20 DUP8 ADD CALLDATACOPY SWAP4 SWAP1 SWAP4 ADD PUSH1 0x20 ADD SWAP4 SWAP3 POP POP POP JUMP JUMPDEST PUSH1 0x20 DUP2 MSTORE PUSH1 0x0 DUP3 CALLDATALOAD PUSH2 0x320E DUP2 PUSH2 0x2DDB JUMP JUMPDEST PUSH2 0x3217 DUP2 PUSH2 0x2A95 JUMP JUMPDEST DUP1 PUSH1 0x20 DUP5 ADD MSTORE POP PUSH1 0x20 DUP4 ADD CALLDATALOAD PUSH2 0x322C DUP2 PUSH2 0x2A3D JUMP JUMPDEST PUSH1 0x1 DUP1 PUSH1 0xA0 SHL SUB DUP2 AND PUSH1 0x40 DUP5 ADD MSTORE POP PUSH1 0x40 DUP4 ADD CALLDATALOAD PUSH1 0x60 DUP4 ADD MSTORE PUSH1 0x60 DUP4 ADD CALLDATALOAD PUSH1 0x80 DUP4 ADD MSTORE PUSH1 0x80 DUP4 ADD CALLDATALOAD PUSH1 0xA0 DUP4 ADD MSTORE PUSH1 0xA0 DUP4 ADD CALLDATALOAD PUSH1 0x1E NOT DUP5 CALLDATASIZE SUB ADD DUP2 SLT PUSH2 0x3270 JUMPI PUSH1 0x0 DUP1 REVERT JUMPDEST DUP4 ADD PUSH1 0x20 DUP2 ADD SWAP1 CALLDATALOAD PUSH8 0xFFFFFFFFFFFFFFFF DUP2 GT ISZERO PUSH2 0x328D JUMPI PUSH1 0x0 DUP1 REVERT JUMPDEST DUP1 PUSH1 0x5 SHL CALLDATASIZE SUB DUP3 SGT ISZERO PUSH2 0x329F JUMPI PUSH1 0x0 DUP1 REVERT JUMPDEST PUSH1 0xC0 DUP1 DUP6 ADD MSTORE PUSH2 0x32B3 PUSH1 0xE0 DUP6 ADD DUP3 DUP5 PUSH2 0x31CB JUMP JUMPDEST SWAP6 SWAP5 POP POP POP POP POP JUMP JUMPDEST PUSH1 0x0 PUSH1 0x20 DUP3 DUP5 SUB SLT ISZERO PUSH2 0x32CE JUMPI PUSH1 0x0 DUP1 REVERT JUMPDEST DUP2 MLOAD DUP1 ISZERO ISZERO DUP2 EQ PUSH2 0x2A36 JUMPI PUSH1 0x0 DUP1 REVERT JUMPDEST PUSH1 0x0 DUP1 DUP4 CALLDATALOAD PUSH1 0x1E NOT DUP5 CALLDATASIZE SUB ADD DUP2 SLT PUSH2 0x32F5 JUMPI PUSH1 0x0 DUP1 REVERT JUMPDEST DUP4 ADD DUP1 CALLDATALOAD SWAP2 POP PUSH8 0xFFFFFFFFFFFFFFFF DUP3 GT ISZERO PUSH2 0x3310 JUMPI PUSH1 0x0 DUP1 REVERT JUMPDEST PUSH1 0x20 ADD SWAP2 POP PUSH1 0x5 DUP2 SWAP1 SHL CALLDATASIZE SUB DUP3 SGT ISZERO PUSH2 0x3328 JUMPI PUSH1 0x0 DUP1 REVERT JUMPDEST SWAP3 POP SWAP3 SWAP1 POP JUMP JUMPDEST PUSH4 0x4E487B71 PUSH1 0xE0 SHL PUSH1 0x0 MSTORE PUSH1 0x11 PUSH1 0x4 MSTORE PUSH1 0x24 PUSH1 0x0 REVERT JUMPDEST DUP1 DUP3 MUL DUP2 ISZERO DUP3 DUP3 DIV DUP5 EQ OR PUSH2 0x642 JUMPI PUSH2 0x642 PUSH2 0x332F JUMP JUMPDEST JUMPDEST DUP2 DUP2 LT ISZERO PUSH2 0x28C1 JUMPI PUSH1 0x0 DUP2 SSTORE PUSH1 0x1 ADD PUSH2 0x335D JUMP JUMPDEST PUSH8 0xFFFFFFFFFFFFFFFF DUP4 GT ISZERO PUSH2 0x3389 JUMPI PUSH2 0x3389 PUSH2 0x2CFA JUMP JUMPDEST PUSH9 0x10000000000000000 DUP4 GT ISZERO PUSH2 0x33A2 JUMPI PUSH2 0x33A2 PUSH2 0x2CFA JUMP JUMPDEST DUP1 SLOAD DUP4 DUP3 SSTORE DUP1 DUP5 LT ISZERO PUSH2 0x33C8 JUMPI DUP2 PUSH1 0x0 MSTORE PUSH1 0x20 PUSH1 0x0 KECCAK256 PUSH2 0x33C6 DUP3 DUP3 ADD DUP7 DUP4 ADD PUSH2 0x335C JUMP JUMPDEST POP JUMPDEST POP DUP2 DUP2 PUSH1 0x0 MSTORE PUSH1 0x20 DUP1 PUSH1 0x0 KECCAK256 PUSH1 0x0 JUMPDEST DUP7 DUP2 LT ISZERO PUSH2 0x33F1 JUMPI DUP4 CALLDATALOAD DUP3 DUP3 ADD SSTORE SWAP3 DUP3 ADD SWAP3 PUSH1 0x1 ADD PUSH2 0x33D7 JUMP JUMPDEST POP POP POP POP POP POP POP JUMP JUMPDEST DUP2 CALLDATALOAD PUSH2 0x3405 DUP2 PUSH2 0x2DDB JUMP JUMPDEST PUSH2 0x340E DUP2 PUSH2 0x2A95 JUMP JUMPDEST DUP2 SLOAD PUSH1 0xFF DUP3 AND SWAP2 POP DUP2 PUSH1 0xFF NOT DUP3 AND OR DUP4 SSTORE PUSH1 0x20 DUP5 ADD CALLDATALOAD PUSH2 0x342D DUP2 PUSH2 0x2A3D JUMP JUMPDEST PUSH1 0x1 PUSH1 0x1 PUSH1 0xA8 SHL SUB NOT SWAP2 SWAP1 SWAP2 AND SWAP1 SWAP2 OR PUSH1 0x8 SWAP2 SWAP1 SWAP2 SHL PUSH2 0x100 PUSH1 0x1 PUSH1 0xA8 SHL SUB AND OR DUP2 SSTORE PUSH1 0x40 DUP3 ADD CALLDATALOAD PUSH1 0x1 DUP3 ADD SSTORE PUSH1 0x60 DUP3 ADD CALLDATALOAD PUSH1 0x2 DUP3 ADD SSTORE PUSH1 0x80 DUP3 ADD CALLDATALOAD PUSH1 0x3 DUP3 ADD SSTORE PUSH2 0x347B PUSH1 0xA0 DUP4 ADD DUP4 PUSH2 0x32DE JUMP JUMPDEST PUSH2 0x7AF DUP2 DUP4 PUSH1 0x4 DUP7 ADD PUSH2 0x3371 JUMP JUMPDEST PUSH1 0x20 DUP1 DUP3 MSTORE PUSH1 0xF SWAP1 DUP3 ADD MSTORE PUSH15 0x151C985B9CD9995C8819985A5B1959 PUSH1 0x8A SHL PUSH1 0x40 DUP3 ADD MSTORE PUSH1 0x60 ADD SWAP1 JUMP JUMPDEST DUP1 DUP3 ADD DUP1 DUP3 GT ISZERO PUSH2 0x642 JUMPI PUSH2 0x642 PUSH2 0x332F JUMP JUMPDEST PUSH4 0x4E487B71 PUSH1 0xE0 SHL PUSH1 0x0 MSTORE PUSH1 0x12 PUSH1 0x4 MSTORE PUSH1 0x24 PUSH1 0x0 REVERT JUMPDEST PUSH1 0x0 DUP3 PUSH2 0x34EA JUMPI PUSH2 0x34EA PUSH2 0x34C5 JUMP JUMPDEST POP DIV SWAP1 JUMP JUMPDEST PUSH1 0x0 DUP3 PUSH2 0x34FE JUMPI PUSH2 0x34FE PUSH2 0x34C5 JUMP JUMPDEST POP MOD SWAP1 JUMP JUMPDEST PUSH1 0x1F DUP3 GT ISZERO PUSH2 0x7E8 JUMPI DUP1 PUSH1 0x0 MSTORE PUSH1 0x20 PUSH1 0x0 KECCAK256 PUSH1 0x1F DUP5 ADD PUSH1 0x5 SHR DUP2 ADD PUSH1 0x20 DUP6 LT ISZERO PUSH2 0x352A JUMPI POP DUP1 JUMPDEST PUSH2 0x353C PUSH1 0x1F DUP6 ADD PUSH1 0x5 SHR DUP4 ADD DUP3 PUSH2 0x335C JUMP JUMPDEST POP POP POP POP POP JUMP JUMPDEST DUP2 MLOAD PUSH8 0xFFFFFFFFFFFFFFFF DUP2 GT ISZERO PUSH2 0x355D JUMPI PUSH2 0x355D PUSH2 0x2CFA JUMP JUMPDEST PUSH2 0x3571 DUP2 PUSH2 0x356B DUP5 SLOAD PUSH2 0x3174 JUMP JUMPDEST DUP5 PUSH2 0x3503 JUMP JUMPDEST PUSH1 0x20 DUP1 PUSH1 0x1F DUP4 GT PUSH1 0x1 DUP2 EQ PUSH2 0x35A6 JUMPI PUSH1 0x0 DUP5 ISZERO PUSH2 0x358E JUMPI POP DUP6 DUP4 ADD MLOAD JUMPDEST PUSH1 0x0 NOT PUSH1 0x3 DUP7 SWAP1 SHL SHR NOT AND PUSH1 0x1 DUP6 SWAP1 SHL OR DUP6 SSTORE PUSH2 0x35FF JUMP JUMPDEST PUSH1 0x0 DUP6 DUP2 MSTORE PUSH1 0x20 DUP2 KECCAK256 PUSH1 0x1F NOT DUP7 AND SWAP2 JUMPDEST DUP3 DUP2 LT ISZERO PUSH2 0x35D5 JUMPI DUP9 DUP7 ADD MLOAD DUP3 SSTORE SWAP5 DUP5 ADD SWAP5 PUSH1 0x1 SWAP1 SWAP2 ADD SWAP1 DUP5 ADD PUSH2 0x35B6 JUMP JUMPDEST POP DUP6 DUP3 LT ISZERO PUSH2 0x35F3 JUMPI DUP8 DUP6 ADD MLOAD PUSH1 0x0 NOT PUSH1 0x3 DUP9 SWAP1 SHL PUSH1 0xF8 AND SHR NOT AND DUP2 SSTORE JUMPDEST POP POP PUSH1 0x1 DUP5 PUSH1 0x1 SHL ADD DUP6 SSTORE JUMPDEST POP POP POP POP POP POP JUMP JUMPDEST PUSH1 0x1 DUP1 PUSH1 0xA0 SHL SUB DUP4 AND DUP2 MSTORE PUSH1 0x0 PUSH1 0x20 PUSH1 0x40 PUSH1 0x20 DUP5 ADD MSTORE PUSH1 0x0 DUP5 SLOAD PUSH2 0x362A DUP2 PUSH2 0x3174 JUMP JUMPDEST DUP1 PUSH1 0x40 DUP8 ADD MSTORE PUSH1 0x60 PUSH1 0x1 DUP1 DUP5 AND PUSH1 0x0 DUP2 EQ PUSH2 0x364C JUMPI PUSH1 0x1 DUP2 EQ PUSH2 0x3668 JUMPI PUSH2 0x3698 JUMP JUMPDEST PUSH1 0xFF NOT DUP6 AND PUSH1 0x60 DUP11 ADD MSTORE PUSH1 0x60 DUP5 ISZERO ISZERO PUSH1 0x5 SHL DUP11 ADD ADD SWAP6 POP PUSH2 0x3698 JUMP JUMPDEST DUP10 PUSH1 0x0 MSTORE PUSH1 0x20 PUSH1 0x0 KECCAK256 PUSH1 0x0 JUMPDEST DUP6 DUP2 LT ISZERO PUSH2 0x368F JUMPI DUP2 SLOAD DUP12 DUP3 ADD DUP7 ADD MSTORE SWAP1 DUP4 ADD SWAP1 DUP9 ADD PUSH2 0x3674 JUMP JUMPDEST DUP11 ADD PUSH1 0x60 ADD SWAP7 POP POP JUMPDEST POP SWAP4 SWAP10 SWAP9 POP POP POP POP POP POP POP POP POP JUMP JUMPDEST DUP2 DUP2 SUB DUP2 DUP2 GT ISZERO PUSH2 0x642 JUMPI PUSH2 0x642 PUSH2 0x332F JUMP JUMPDEST PUSH4 0x4E487B71 PUSH1 0xE0 SHL PUSH1 0x0 MSTORE PUSH1 0x31 PUSH1 0x4 MSTORE PUSH1 0x24 PUSH1 0x0 REVERT INVALID DUP3 DUP7 CALLVALUE 0xD9 MCOPY PUSH24 0x5031B9FF576B159A8509D3053581A8C9C4D7D86899E0AFCD DUP9 0x2F LOG2 PUSH5 0x6970667358 0x22 SLT KECCAK256 0xEF 0xD7 PUSH17 0xC3FD00A2FAC297852ACB6C5FB7B3E568DA LOG3 XOR SWAP13 0xB6 0xF6 SWAP3 ORIGIN 0xDA DUP15 KECCAK256 0xCF MLOAD PUSH5 0x736F6C6343 STOP ADDMOD XOR STOP CALLER "},"methodIdentifiers":{"CREATOR_ROLE()":"8aeda25a","DEFAULT_ADMIN_ROLE()":"a217fddf","cancelGame()":"d84c1ac9","cancelRegistration()":"e5a078a7","claimPrize()":"70740ac9","claimRefund()":"b5545a3c","creator()":"02d05d3f","description()":"7284e416","distributePrize()":"77b6e504","distributionType()":"84da242d","entryFee()":"072ea61c","feeToken()":"647846a5","gameRegistry()":"da090755","gameResults(address)":"1d75d7c2","gameStartTime()":"0252b995","gameType()":"bbdc02db","getGameData()":"af4e99de","getPlayerGameResult(address)":"140d6b94","getPlayerScore(address)":"e085c539","getRoleAdmin(bytes32)":"248a9ca3","grantRole(bytes32,address)":"2f2ff15d","hasRole(bytes32,address)":"91d14854","initialize((string,string,uint8,address,uint256,uint256,uint256,uint256,uint256,address,uint256,uint8,uint256[]),address)":"a59fffcb","isJoined(address)":"5e6a43f5","joinGame()":"d4f77b1c","maxPlayers()":"4c2412a2","minPlayers()":"2770c895","players(uint256)":"f71d96cb","prizePool()":"719ce73e","prizeToClaimsAmount(address)":"b062e950","prizeToken()":"d0ef024a","rankPrizes(uint256)":"8233e433","registrationEndTime()":"dff7d2c7","renounceRole(bytes32,address)":"36568abe","revokeRole(bytes32,address)":"d547741f","setGameRegistry(address)":"dd898b2f","setWinners(address[])":"445e6b39","startGame()":"d65ab5f2","status()":"200d2ed2","submitGameResult((uint8,address,uint256,uint256,bytes32,uint256[]))":"554c925c","submitScore(uint256)":"aff0b297","supportsInterface(bytes4)":"01ffc9a7","title()":"4a79d50c","winners(uint256)":"a2fb1175"}}}}}