{"contracts/GameRegistry.sol":{"GameRegistry":{"abi":[{"inputs":[],"stateMutability":"nonpayable","type":"constructor"},{"inputs":[],"name":"AccessControlBadConfirmation","type":"error"},{"inputs":[{"internalType":"address","name":"account","type":"address"},{"internalType":"bytes32","name":"neededRole","type":"bytes32"}],"name":"AccessControlUnauthorizedAccount","type":"error"},{"anonymous":false,"inputs":[{"indexed":false,"internalType":"enum Types.GameType","name":"gameType","type":"uint8"}],"name":"GameDisabled","type":"event"},{"anonymous":false,"inputs":[{"indexed":false,"internalType":"enum Types.GameType","name":"gameType","type":"uint8"}],"name":"GameEnabled","type":"event"},{"anonymous":false,"inputs":[{"indexed":true,"internalType":"address","name":"player","type":"address"},{"indexed":false,"internalType":"enum Types.GameType","name":"gameType","type":"uint8"},{"indexed":false,"internalType":"uint256","name":"score","type":"uint256"},{"indexed":false,"internalType":"bytes32","name":"gameHash","type":"bytes32"}],"name":"GameResultVerified","type":"event"},{"anonymous":false,"inputs":[{"indexed":true,"internalType":"bytes32","name":"role","type":"bytes32"},{"indexed":true,"internalType":"bytes32","name":"previousAdminRole","type":"bytes32"},{"indexed":true,"internalType":"bytes32","name":"newAdminRole","type":"bytes32"}],"name":"RoleAdminChanged","type":"event"},{"anonymous":false,"inputs":[{"indexed":true,"internalType":"bytes32","name":"role","type":"bytes32"},{"indexed":true,"internalType":"address","name":"account","type":"address"},{"indexed":true,"internalType":"address","name":"sender","type":"address"}],"name":"RoleGranted","type":"event"},{"anonymous":false,"inputs":[{"indexed":true,"internalType":"bytes32","name":"role","type":"bytes32"},{"indexed":true,"internalType":"address","name":"account","type":"address"},{"indexed":true,"internalType":"address","name":"sender","type":"address"}],"name":"RoleRevoked","type":"event"},{"inputs":[],"name":"DEFAULT_ADMIN_ROLE","outputs":[{"internalType":"bytes32","name":"","type":"bytes32"}],"stateMutability":"view","type":"function"},{"inputs":[],"name":"GAME_ADMIN_ROLE","outputs":[{"internalType":"bytes32","name":"","type":"bytes32"}],"stateMutability":"view","type":"function"},{"inputs":[],"name":"MIN_GAME_INTERVAL","outputs":[{"internalType":"uint256","name":"","type":"uint256"}],"stateMutability":"view","type":"function"},{"inputs":[{"internalType":"address","name":"player","type":"address"},{"internalType":"enum Types.GameType","name":"gameType","type":"uint8"}],"name":"canPlayerPlay","outputs":[{"internalType":"bool","name":"","type":"bool"}],"stateMutability":"view","type":"function"},{"inputs":[{"components":[{"internalType":"enum Types.GameType","name":"gameType","type":"uint8"},{"internalType":"address","name":"player","type":"address"},{"internalType":"uint256","name":"score","type":"uint256"},{"internalType":"uint256","name":"timestamp","type":"uint256"},{"internalType":"bytes32","name":"gameHash","type":"bytes32"},{"internalType":"uint256[]","name":"metadata","type":"uint256[]"}],"internalType":"struct Types.GameResult","name":"result","type":"tuple"}],"name":"computeGameHash","outputs":[{"internalType":"bytes32","name":"","type":"bytes32"}],"stateMutability":"pure","type":"function"},{"inputs":[{"internalType":"enum Types.GameType","name":"gameType","type":"uint8"}],"name":"disableGame","outputs":[],"stateMutability":"nonpayable","type":"function"},{"inputs":[{"internalType":"enum Types.GameType","name":"gameType","type":"uint8"}],"name":"enableGame","outputs":[],"stateMutability":"nonpayable","type":"function"},{"inputs":[{"internalType":"enum Types.GameType","name":"","type":"uint8"}],"name":"gameEnabled","outputs":[{"internalType":"bool","name":"","type":"bool"}],"stateMutability":"view","type":"function"},{"inputs":[{"internalType":"enum Types.GameType","name":"gameType","type":"uint8"}],"name":"getGameInfo","outputs":[{"internalType":"bool","name":"enabled","type":"bool"}],"stateMutability":"view","type":"function"},{"inputs":[{"internalType":"bytes32","name":"role","type":"bytes32"}],"name":"getRoleAdmin","outputs":[{"internalType":"bytes32","name":"","type":"bytes32"}],"stateMutability":"view","type":"function"},{"inputs":[{"internalType":"bytes32","name":"role","type":"bytes32"},{"internalType":"address","name":"account","type":"address"}],"name":"grantRole","outputs":[],"stateMutability":"nonpayable","type":"function"},{"inputs":[{"internalType":"bytes32","name":"role","type":"bytes32"},{"internalType":"address","name":"account","type":"address"}],"name":"hasRole","outputs":[{"internalType":"bool","name":"","type":"bool"}],"stateMutability":"view","type":"function"},{"inputs":[{"internalType":"address","name":"","type":"address"},{"internalType":"enum Types.GameType","name":"","type":"uint8"}],"name":"lastPlayedTime","outputs":[{"internalType":"uint256","name":"","type":"uint256"}],"stateMutability":"view","type":"function"},{"inputs":[{"internalType":"bytes32","name":"role","type":"bytes32"},{"internalType":"address","name":"callerConfirmation","type":"address"}],"name":"renounceRole","outputs":[],"stateMutability":"nonpayable","type":"function"},{"inputs":[{"internalType":"bytes32","name":"role","type":"bytes32"},{"internalType":"address","name":"account","type":"address"}],"name":"revokeRole","outputs":[],"stateMutability":"nonpayable","type":"function"},{"inputs":[{"internalType":"bytes4","name":"interfaceId","type":"bytes4"}],"name":"supportsInterface","outputs":[{"internalType":"bool","name":"","type":"bool"}],"stateMutability":"view","type":"function"},{"inputs":[{"components":[{"internalType":"enum Types.GameType","name":"gameType","type":"uint8"},{"internalType":"address","name":"player","type":"address"},{"internalType":"uint256","name":"score","type":"uint256"},{"internalType":"uint256","name":"timestamp","type":"uint256"},{"internalType":"bytes32","name":"gameHash","type":"bytes32"},{"internalType":"uint256[]","name":"metadata","type":"uint256[]"}],"internalType":"struct Types.GameResult","name":"result","type":"tuple"}],"name":"verifyGameResult","outputs":[{"internalType":"bool","name":"","type":"bool"}],"stateMutability":"nonpayable","type":"function"}],"evm":{"bytecode":{"linkReferences":{},"object":"60806040523480156200001157600080fd5b506200001f6000336200022a565b506200004c7f9b7946abd96dccbe6cfc6cc2c13300ab429d93e16fa72dc459eeccda73817f08336200022a565b506200007a7f9b7946abd96dccbe6cfc6cc2c13300ab429d93e16fa72dc459eeccda73817f086000620002d9565b600160208190527fcc69885fda6bcc1a4ace058b4a62bf5e179ea78fd58a1ccd71c22cc9b688792f805460ff1990811683179091557fd9d16d34ffb15ba3a3d852f0d403e2ce1d691fb54de27ac87cd2f993f3ec330f80548216831790557f7dfe757ecd65cbd7922a9c0161e935dd7fdbcc0e999689c7d31633896b1fc60b80548216831790557fedc95719e9a3b28dd8e80877cb5880a9be7de1a13fc8b05e7999683b6b567643805482168317905560056000527fe2689cd4a84e23ad2f564004f1c9013e9589d260bde6380aba3ca7e09e4df40c80549091168217905560405160008051602062001a9583398151915291620001789162000324565b60405180910390a160008051602062001a958339815191526002604051620001a1919062000324565b60405180910390a160008051602062001a958339815191526003604051620001ca919062000324565b60405180910390a160008051602062001a958339815191526004604051620001f3919062000324565b60405180910390a160008051602062001a9583398151915260056040516200021c919062000324565b60405180910390a16200034d565b6000828152602081815260408083206001600160a01b038516845290915281205460ff16620002cf576000838152602081815260408083206001600160a01b03861684529091529020805460ff19166001179055620002863390565b6001600160a01b0316826001600160a01b0316847f2f8788117e7eff1d82e926ec794901d17c78024a50270940304540a733656f0d60405160405180910390a4506001620002d3565b5060005b92915050565b600082815260208190526040808220600101805490849055905190918391839186917fbd79b86ffe0ab8e8776151514217cd7cacd52c909f66475c3af44e129f0b00ff9190a4505050565b60208101600683106200034757634e487b7160e01b600052602160045260246000fd5b91905290565b611738806200035d6000396000f3fe608060405234801561001057600080fd5b506004361061010b5760003560e01c806391d14854116100a2578063c54a41eb11610071578063c54a41eb14610242578063ce863cd81461026d578063d547741f14610280578063e84b278014610293578063f010b5411461029b57600080fd5b806391d14854146101ed578063a217fddf14610200578063be22d27d14610208578063c2c9a8841461022f57600080fd5b806335c34ae9116100de57806335c34ae91461019157806336568abe146101a45780634ac0326e146101b75780635026f42b146101da57600080fd5b806301ffc9a714610110578063248a9ca3146101385780632b446be9146101695780632f2ff15d1461017c575b600080fd5b61012361011e3660046113f9565b6102ae565b60405190151581526020015b60405180910390f35b61015b61014636600461142a565b60009081526020819052604090206001015490565b60405190815260200161012f565b61012361017736600461146e565b6102e5565b61018f61018a3660046114a1565b61034c565b005b61012361019f3660046114c4565b610377565b61018f6101b23660046114a1565b610713565b6101236101c53660046114ff565b60016020526000908152604090205460ff1681565b61015b6101e83660046114c4565b61074b565b6101236101fb3660046114a1565b6107b3565b61015b600081565b61015b7f9b7946abd96dccbe6cfc6cc2c13300ab429d93e16fa72dc459eeccda73817f0881565b61018f61023d3660046114ff565b6107dc565b61015b61025036600461146e565b600260209081526000928352604080842090915290825290205481565b61012361027b3660046114ff565b6108e3565b61018f61028e3660046114a1565b610926565b61015b600a81565b61018f6102a93660046114ff565b61094b565b60006001600160e01b03198216637965db0b60e01b14806102df57506301ffc9a760e01b6001600160e01b03198316145b92915050565b6001600160a01b03821660009081526002602052604081208190818460058111156103125761031261151a565b60058111156103235761032361151a565b8152602001908152602001600020549050600a816103419190611546565b421015949350505050565b600082815260208190526040902060010154610367816109f2565b61037183836109ff565b50505050565b600060018161038960208501856114ff565b600581111561039a5761039a61151a565b60058111156103ab576103ab61151a565b815260208101919091526040016000205460ff166104085760405162461bcd60e51b815260206004820152601560248201527411d85b59481d1e5c19481b9bdd08195b98589b1959605a1b60448201526064015b60405180910390fd5b600061041760208401846114ff565b60058111156104285761042861151a565b036104695760405162461bcd60e51b8152602060048201526011602482015270496e76616c69642067616d65207479706560781b60448201526064016103ff565b600060028161047e6040860160208701611559565b6001600160a01b031681526020808201929092526040016000908120916104a7908601866114ff565b60058111156104b8576104b861151a565b60058111156104c9576104c961151a565b8152602001908152602001600020549050600a816104e79190611546565b4210156105365760405162461bcd60e51b815260206004820152601860248201527f546f6f206672657175656e74207375626d697373696f6e73000000000000000060448201526064016103ff565b426002600061054b6040870160208801611559565b6001600160a01b03168152602080820192909252604001600090812091610574908701876114ff565b60058111156105855761058561151a565b60058111156105965761059661151a565b815260208101919091526040016000205542606084013511156105ef5760405162461bcd60e51b81526020600482015260116024820152700496e76616c69642074696d657374616d7607c1b60448201526064016103ff565b6105fc6201518042611574565b836060013510156106435760405162461bcd60e51b8152602060048201526011602482015270151a5b595cdd185b5c081d1bdbc81bdb19607a1b60448201526064016103ff565b600061064e8461074b565b9050836080013581146106985760405162461bcd60e51b815260206004820152601260248201527108ec2daca40d0c2e6d040dad2e6dac2e8c6d60731b60448201526064016103ff565b6106a184610a91565b6106b16040850160208601611559565b6001600160a01b03167f1e9c851913c59ce225051a04a5685a51e8f1dc7f4f54fa7ab6976ec8d21f56ad6106e860208701876114ff565b86604001358760800135604051610701939291906115a9565b60405180910390a25060019392505050565b6001600160a01b038116331461073c5760405163334bd91960e11b815260040160405180910390fd5b6107468282611355565b505050565b600061075a60208301836114ff565b61076a6040840160208501611559565b6040840135606085013561078160a08701876115c8565b60405160200161079696959493929190611619565b604051602081830303815290604052805190602001209050919050565b6000918252602082815260408084206001600160a01b0393909316845291905290205460ff1690565b7f9b7946abd96dccbe6cfc6cc2c13300ab429d93e16fa72dc459eeccda73817f08610806816109f2565b600082600581111561081a5761081a61151a565b0361085b5760405162461bcd60e51b8152602060048201526011602482015270496e76616c69642067616d65207479706560781b60448201526064016103ff565b60018060008460058111156108725761087261151a565b60058111156108835761088361151a565b815260200190815260200160002060006101000a81548160ff0219169083151502179055507f8a4c3e88784cd877ada8be9f43efc736c434652cbd9ac3fc2ca00795bd5da9e7826040516108d79190611698565b60405180910390a15050565b6000600160008360058111156108fb576108fb61151a565b600581111561090c5761090c61151a565b815260208101919091526040016000205460ff1692915050565b600082815260208190526040902060010154610941816109f2565b6103718383611355565b7f9b7946abd96dccbe6cfc6cc2c13300ab429d93e16fa72dc459eeccda73817f08610975816109f2565b60006001600084600581111561098d5761098d61151a565b600581111561099e5761099e61151a565b815260200190815260200160002060006101000a81548160ff0219169083151502179055507ff57acfb7bbc2a8ccb2061f1e6f82ad5fd4bed847d0fcb39d9f40a0ab0eda108a826040516108d79190611698565b6109fc81336113c0565b50565b6000610a0b83836107b3565b610a89576000838152602081815260408083206001600160a01b03861684529091529020805460ff19166001179055610a413390565b6001600160a01b0316826001600160a01b0316847f2f8788117e7eff1d82e926ec794901d17c78024a50270940304540a733656f0d60405160405180910390a45060016102df565b5060006102df565b6001610aa060208301836114ff565b6005811115610ab157610ab161151a565b03610bd0576001610ac560a08301836115c8565b90501015610ae55760405162461bcd60e51b81526004016103ff906116a6565b6000610af460a08301836115c8565b6000818110610b0557610b056116d5565b905060200201359050600081118015610b1f575060058111155b610b635760405162461bcd60e51b8152602060048201526015602482015274125b9d985b1a5908185d1d195b5c1d0818dbdd5b9d605a1b60448201526064016103ff565b6000610b70826006611574565b610b7b9060146116eb565b9050808360400135146107465760405162461bcd60e51b815260206004820152601d60248201527f53636f726520646f6573206e6f74206d6174636820617474656d70747300000060448201526064016103ff565b6002610bdf60208301836114ff565b6005811115610bf057610bf061151a565b03610d80576003610c0460a08301836115c8565b90501015610c245760405162461bcd60e51b81526004016103ff906116a6565b6000610c3360a08301836115c8565b6000818110610c4457610c446116d5565b9050602002013590506000828060a00190610c5f91906115c8565b6001818110610c7057610c706116d5565b9050602002013590506000838060a00190610c8b91906115c8565b6002818110610c9c57610c9c6116d5565b905060200201359050808284610cb29190611546565b610cbc9190611546565b600a14610d025760405162461bcd60e51b8152602060048201526014602482015273496e76616c696420746f74616c20726f756e647360601b60448201526064016103ff565b6000610d0f8360056116eb565b610d1a85600a6116eb565b610d249190611546565b905080856040013514610d795760405162461bcd60e51b815260206004820152601c60248201527f53636f726520646f6573206e6f74206d6174636820726573756c74730000000060448201526064016103ff565b5050505050565b6003610d8f60208301836114ff565b6005811115610da057610da061151a565b03610e97576001610db460a08301836115c8565b90501015610dd45760405162461bcd60e51b81526004016103ff906116a6565b6000610de360a08301836115c8565b6000818110610df457610df46116d5565b9050602002013590506032811115610e405760405162461bcd60e51b815260206004820152600f60248201526e546f6f206d616e7920636c69636b7360881b60448201526064016103ff565b80826040013514610e935760405162461bcd60e51b815260206004820181905260248201527f53636f726520646f6573206e6f74206d6174636820636c69636b20636f756e7460448201526064016103ff565b5050565b6005610ea660208301836114ff565b6005811115610eb757610eb761151a565b03611102576003610ecb60a08301836115c8565b90501015610eeb5760405162461bcd60e51b81526004016103ff906116a6565b6000610efa60a08301836115c8565b6000818110610f0b57610f0b6116d5565b9050602002013590506000828060a00190610f2691906115c8565b6001818110610f3757610f376116d5565b9050602002013590506000838060a00190610f5291906115c8565b6002818110610f6357610f636116d5565b9050602002013590506001821015610fad5760405162461bcd60e51b815260206004820152600d60248201526c125b9d985b1a59081b195d995b609a1b60448201526064016103ff565b6001811015610ff25760405162461bcd60e51b8152602060048201526011602482015270496e76616c6964206d617820636f6d626f60781b60448201526064016103ff565b60006110008361012c6116eb565b90508084101561104c5760405162461bcd60e51b815260206004820152601760248201527614d8dbdc99481d1bdbc81b1bddc8199bdc881b195d995b604a1b60448201526064016103ff565b600061105a846103e86116eb565b9050808511156110a75760405162461bcd60e51b815260206004820152601860248201527714d8dbdc99481d1bdbc81a1a59da08199bdc881b195d995b60421b60448201526064016103ff565b848660400135146110fa5760405162461bcd60e51b815260206004820152601c60248201527f53636f7265206d69736d617463682077697468206d657461646174610000000060448201526064016103ff565b505050505050565b600461111160208301836114ff565b60058111156111225761112261151a565b036109fc57600461113660a08301836115c8565b905010156111565760405162461bcd60e51b81526004016103ff906116a6565b600061116560a08301836115c8565b6000818110611176576111766116d5565b9050602002013590506000828060a0019061119191906115c8565b60018181106111a2576111a26116d5565b9050602002013590506000838060a001906111bd91906115c8565b60028181106111ce576111ce6116d5565b9050602002013590506000848060a001906111e991906115c8565b60038181106111fa576111fa6116d5565b90506020020135905060018310156112445760405162461bcd60e51b815260206004820152600d60248201526c125b9d985b1a59081b195d995b609a1b60448201526064016103ff565b6000611252846103e86116eb565b90508085101561129e5760405162461bcd60e51b815260206004820152601760248201527614d8dbdc99481d1bdbc81b1bddc8199bdc881b195d995b604a1b60448201526064016103ff565b60006112ac856113886116eb565b9050808611156112f95760405162461bcd60e51b815260206004820152601860248201527714d8dbdc99481d1bdbc81a1a59da08199bdc881b195d995b60421b60448201526064016103ff565b8587604001351461134c5760405162461bcd60e51b815260206004820152601c60248201527f53636f7265206d69736d617463682077697468206d657461646174610000000060448201526064016103ff565b50505050505050565b600061136183836107b3565b15610a89576000838152602081815260408083206001600160a01b0386168085529252808320805460ff1916905551339286917ff6391f5c32d9c69d2a47ea670b442974b53935d1edc7fd64eb21e047a839171b9190a45060016102df565b6113ca82826107b3565b610e935760405163e2517d3f60e01b81526001600160a01b0382166004820152602481018390526044016103ff565b60006020828403121561140b57600080fd5b81356001600160e01b03198116811461142357600080fd5b9392505050565b60006020828403121561143c57600080fd5b5035919050565b80356001600160a01b038116811461145a57600080fd5b919050565b80356006811061145a57600080fd5b6000806040838503121561148157600080fd5b61148a83611443565b91506114986020840161145f565b90509250929050565b600080604083850312156114b457600080fd5b8235915061149860208401611443565b6000602082840312156114d657600080fd5b813567ffffffffffffffff8111156114ed57600080fd5b820160c0818503121561142357600080fd5b60006020828403121561151157600080fd5b6114238261145f565b634e487b7160e01b600052602160045260246000fd5b634e487b7160e01b600052601160045260246000fd5b808201808211156102df576102df611530565b60006020828403121561156b57600080fd5b61142382611443565b818103818111156102df576102df611530565b600681106115a557634e487b7160e01b600052602160045260246000fd5b9052565b606081016115b78286611587565b602082019390935260400152919050565b6000808335601e198436030181126115df57600080fd5b83018035915067ffffffffffffffff8211156115fa57600080fd5b6020019150600581901b360382131561161257600080fd5b9250929050565b60006006881061163957634e487b7160e01b600052602160045260246000fd5b60f888901b8252606087901b6bffffffffffffffffffffffff1916600183015260158201869052603582018590526001600160fb1b0383111561167b57600080fd5b8260051b8085605585013791909101605501979650505050505050565b602081016102df8284611587565b6020808252601590820152744d697373696e672067616d65206d6574616461746160581b604082015260600190565b634e487b7160e01b600052603260045260246000fd5b80820281158282048414176102df576102df61153056fea264697066735822122071911faaa32fe4fd92bf2974d5a4e998fc6befa556c841b2ec1754119df576fb64736f6c634300081800338a4c3e88784cd877ada8be9f43efc736c434652cbd9ac3fc2ca00795bd5da9e7","opcodes":"PUSH1 0x80 PUSH1 0x40 MSTORE CALLVALUE DUP1 ISZERO PUSH3 0x11 JUMPI PUSH1 0x0 DUP1 REVERT JUMPDEST POP PUSH3 0x1F PUSH1 0x0 CALLER PUSH3 0x22A JUMP JUMPDEST POP PUSH3 0x4C PUSH32 0x9B7946ABD96DCCBE6CFC6CC2C13300AB429D93E16FA72DC459EECCDA73817F08 CALLER PUSH3 0x22A JUMP JUMPDEST POP PUSH3 0x7A PUSH32 0x9B7946ABD96DCCBE6CFC6CC2C13300AB429D93E16FA72DC459EECCDA73817F08 PUSH1 0x0 PUSH3 0x2D9 JUMP JUMPDEST PUSH1 0x1 PUSH1 0x20 DUP2 SWAP1 MSTORE PUSH32 0xCC69885FDA6BCC1A4ACE058B4A62BF5E179EA78FD58A1CCD71C22CC9B688792F DUP1 SLOAD PUSH1 0xFF NOT SWAP1 DUP2 AND DUP4 OR SWAP1 SWAP2 SSTORE PUSH32 0xD9D16D34FFB15BA3A3D852F0D403E2CE1D691FB54DE27AC87CD2F993F3EC330F DUP1 SLOAD DUP3 AND DUP4 OR SWAP1 SSTORE PUSH32 0x7DFE757ECD65CBD7922A9C0161E935DD7FDBCC0E999689C7D31633896B1FC60B DUP1 SLOAD DUP3 AND DUP4 OR SWAP1 SSTORE PUSH32 0xEDC95719E9A3B28DD8E80877CB5880A9BE7DE1A13FC8B05E7999683B6B567643 DUP1 SLOAD DUP3 AND DUP4 OR SWAP1 SSTORE PUSH1 0x5 PUSH1 0x0 MSTORE PUSH32 0xE2689CD4A84E23AD2F564004F1C9013E9589D260BDE6380ABA3CA7E09E4DF40C DUP1 SLOAD SWAP1 SWAP2 AND DUP3 OR SWAP1 SSTORE PUSH1 0x40 MLOAD PUSH1 0x0 DUP1 MLOAD PUSH1 0x20 PUSH3 0x1A95 DUP4 CODECOPY DUP2 MLOAD SWAP2 MSTORE SWAP2 PUSH3 0x178 SWAP2 PUSH3 0x324 JUMP JUMPDEST PUSH1 0x40 MLOAD DUP1 SWAP2 SUB SWAP1 LOG1 PUSH1 0x0 DUP1 MLOAD PUSH1 0x20 PUSH3 0x1A95 DUP4 CODECOPY DUP2 MLOAD SWAP2 MSTORE PUSH1 0x2 PUSH1 0x40 MLOAD PUSH3 0x1A1 SWAP2 SWAP1 PUSH3 0x324 JUMP JUMPDEST PUSH1 0x40 MLOAD DUP1 SWAP2 SUB SWAP1 LOG1 PUSH1 0x0 DUP1 MLOAD PUSH1 0x20 PUSH3 0x1A95 DUP4 CODECOPY DUP2 MLOAD SWAP2 MSTORE PUSH1 0x3 PUSH1 0x40 MLOAD PUSH3 0x1CA SWAP2 SWAP1 PUSH3 0x324 JUMP JUMPDEST PUSH1 0x40 MLOAD DUP1 SWAP2 SUB SWAP1 LOG1 PUSH1 0x0 DUP1 MLOAD PUSH1 0x20 PUSH3 0x1A95 DUP4 CODECOPY DUP2 MLOAD SWAP2 MSTORE PUSH1 0x4 PUSH1 0x40 MLOAD PUSH3 0x1F3 SWAP2 SWAP1 PUSH3 0x324 JUMP JUMPDEST PUSH1 0x40 MLOAD DUP1 SWAP2 SUB SWAP1 LOG1 PUSH1 0x0 DUP1 MLOAD PUSH1 0x20 PUSH3 0x1A95 DUP4 CODECOPY DUP2 MLOAD SWAP2 MSTORE PUSH1 0x5 PUSH1 0x40 MLOAD PUSH3 0x21C SWAP2 SWAP1 PUSH3 0x324 JUMP JUMPDEST PUSH1 0x40 MLOAD DUP1 SWAP2 SUB SWAP1 LOG1 PUSH3 0x34D JUMP JUMPDEST PUSH1 0x0 DUP3 DUP2 MSTORE PUSH1 0x20 DUP2 DUP2 MSTORE PUSH1 0x40 DUP1 DUP4 KECCAK256 PUSH1 0x1 PUSH1 0x1 PUSH1 0xA0 SHL SUB DUP6 AND DUP5 MSTORE SWAP1 SWAP2 MSTORE DUP2 KECCAK256 SLOAD PUSH1 0xFF AND PUSH3 0x2CF JUMPI PUSH1 0x0 DUP4 DUP2 MSTORE PUSH1 0x20 DUP2 DUP2 MSTORE PUSH1 0x40 DUP1 DUP4 KECCAK256 PUSH1 0x1 PUSH1 0x1 PUSH1 0xA0 SHL SUB DUP7 AND DUP5 MSTORE SWAP1 SWAP2 MSTORE SWAP1 KECCAK256 DUP1 SLOAD PUSH1 0xFF NOT AND PUSH1 0x1 OR SWAP1 SSTORE PUSH3 0x286 CALLER SWAP1 JUMP JUMPDEST PUSH1 0x1 PUSH1 0x1 PUSH1 0xA0 SHL SUB AND DUP3 PUSH1 0x1 PUSH1 0x1 PUSH1 0xA0 SHL SUB AND DUP5 PUSH32 0x2F8788117E7EFF1D82E926EC794901D17C78024A50270940304540A733656F0D PUSH1 0x40 MLOAD PUSH1 0x40 MLOAD DUP1 SWAP2 SUB SWAP1 LOG4 POP PUSH1 0x1 PUSH3 0x2D3 JUMP JUMPDEST POP PUSH1 0x0 JUMPDEST SWAP3 SWAP2 POP POP JUMP JUMPDEST PUSH1 0x0 DUP3 DUP2 MSTORE PUSH1 0x20 DUP2 SWAP1 MSTORE PUSH1 0x40 DUP1 DUP3 KECCAK256 PUSH1 0x1 ADD DUP1 SLOAD SWAP1 DUP5 SWAP1 SSTORE SWAP1 MLOAD SWAP1 SWAP2 DUP4 SWAP2 DUP4 SWAP2 DUP7 SWAP2 PUSH32 0xBD79B86FFE0AB8E8776151514217CD7CACD52C909F66475C3AF44E129F0B00FF SWAP2 SWAP1 LOG4 POP POP POP JUMP JUMPDEST PUSH1 0x20 DUP2 ADD PUSH1 0x6 DUP4 LT PUSH3 0x347 JUMPI PUSH4 0x4E487B71 PUSH1 0xE0 SHL PUSH1 0x0 MSTORE PUSH1 0x21 PUSH1 0x4 MSTORE PUSH1 0x24 PUSH1 0x0 REVERT JUMPDEST SWAP2 SWAP1 MSTORE SWAP1 JUMP JUMPDEST PUSH2 0x1738 DUP1 PUSH3 0x35D PUSH1 0x0 CODECOPY PUSH1 0x0 RETURN INVALID PUSH1 0x80 PUSH1 0x40 MSTORE CALLVALUE DUP1 ISZERO PUSH2 0x10 JUMPI PUSH1 0x0 DUP1 REVERT JUMPDEST POP PUSH1 0x4 CALLDATASIZE LT PUSH2 0x10B JUMPI PUSH1 0x0 CALLDATALOAD PUSH1 0xE0 SHR DUP1 PUSH4 0x91D14854 GT PUSH2 0xA2 JUMPI DUP1 PUSH4 0xC54A41EB GT PUSH2 0x71 JUMPI DUP1 PUSH4 0xC54A41EB EQ PUSH2 0x242 JUMPI DUP1 PUSH4 0xCE863CD8 EQ PUSH2 0x26D JUMPI DUP1 PUSH4 0xD547741F EQ PUSH2 0x280 JUMPI DUP1 PUSH4 0xE84B2780 EQ PUSH2 0x293 JUMPI DUP1 PUSH4 0xF010B541 EQ PUSH2 0x29B JUMPI PUSH1 0x0 DUP1 REVERT JUMPDEST DUP1 PUSH4 0x91D14854 EQ PUSH2 0x1ED JUMPI DUP1 PUSH4 0xA217FDDF EQ PUSH2 0x200 JUMPI DUP1 PUSH4 0xBE22D27D EQ PUSH2 0x208 JUMPI DUP1 PUSH4 0xC2C9A884 EQ PUSH2 0x22F JUMPI PUSH1 0x0 DUP1 REVERT JUMPDEST DUP1 PUSH4 0x35C34AE9 GT PUSH2 0xDE JUMPI DUP1 PUSH4 0x35C34AE9 EQ PUSH2 0x191 JUMPI DUP1 PUSH4 0x36568ABE EQ PUSH2 0x1A4 JUMPI DUP1 PUSH4 0x4AC0326E EQ PUSH2 0x1B7 JUMPI DUP1 PUSH4 0x5026F42B EQ PUSH2 0x1DA JUMPI PUSH1 0x0 DUP1 REVERT JUMPDEST DUP1 PUSH4 0x1FFC9A7 EQ PUSH2 0x110 JUMPI DUP1 PUSH4 0x248A9CA3 EQ PUSH2 0x138 JUMPI DUP1 PUSH4 0x2B446BE9 EQ PUSH2 0x169 JUMPI DUP1 PUSH4 0x2F2FF15D EQ PUSH2 0x17C JUMPI JUMPDEST PUSH1 0x0 DUP1 REVERT JUMPDEST PUSH2 0x123 PUSH2 0x11E CALLDATASIZE PUSH1 0x4 PUSH2 0x13F9 JUMP JUMPDEST PUSH2 0x2AE JUMP JUMPDEST PUSH1 0x40 MLOAD SWAP1 ISZERO ISZERO DUP2 MSTORE PUSH1 0x20 ADD JUMPDEST PUSH1 0x40 MLOAD DUP1 SWAP2 SUB SWAP1 RETURN JUMPDEST PUSH2 0x15B PUSH2 0x146 CALLDATASIZE PUSH1 0x4 PUSH2 0x142A JUMP JUMPDEST PUSH1 0x0 SWAP1 DUP2 MSTORE PUSH1 0x20 DUP2 SWAP1 MSTORE PUSH1 0x40 SWAP1 KECCAK256 PUSH1 0x1 ADD SLOAD SWAP1 JUMP JUMPDEST PUSH1 0x40 MLOAD SWAP1 DUP2 MSTORE PUSH1 0x20 ADD PUSH2 0x12F JUMP JUMPDEST PUSH2 0x123 PUSH2 0x177 CALLDATASIZE PUSH1 0x4 PUSH2 0x146E JUMP JUMPDEST PUSH2 0x2E5 JUMP JUMPDEST PUSH2 0x18F PUSH2 0x18A CALLDATASIZE PUSH1 0x4 PUSH2 0x14A1 JUMP JUMPDEST PUSH2 0x34C JUMP JUMPDEST STOP JUMPDEST PUSH2 0x123 PUSH2 0x19F CALLDATASIZE PUSH1 0x4 PUSH2 0x14C4 JUMP JUMPDEST PUSH2 0x377 JUMP JUMPDEST PUSH2 0x18F PUSH2 0x1B2 CALLDATASIZE PUSH1 0x4 PUSH2 0x14A1 JUMP JUMPDEST PUSH2 0x713 JUMP JUMPDEST PUSH2 0x123 PUSH2 0x1C5 CALLDATASIZE PUSH1 0x4 PUSH2 0x14FF JUMP JUMPDEST PUSH1 0x1 PUSH1 0x20 MSTORE PUSH1 0x0 SWAP1 DUP2 MSTORE PUSH1 0x40 SWAP1 KECCAK256 SLOAD PUSH1 0xFF AND DUP2 JUMP JUMPDEST PUSH2 0x15B PUSH2 0x1E8 CALLDATASIZE PUSH1 0x4 PUSH2 0x14C4 JUMP JUMPDEST PUSH2 0x74B JUMP JUMPDEST PUSH2 0x123 PUSH2 0x1FB CALLDATASIZE PUSH1 0x4 PUSH2 0x14A1 JUMP JUMPDEST PUSH2 0x7B3 JUMP JUMPDEST PUSH2 0x15B PUSH1 0x0 DUP2 JUMP JUMPDEST PUSH2 0x15B PUSH32 0x9B7946ABD96DCCBE6CFC6CC2C13300AB429D93E16FA72DC459EECCDA73817F08 DUP2 JUMP JUMPDEST PUSH2 0x18F PUSH2 0x23D CALLDATASIZE PUSH1 0x4 PUSH2 0x14FF JUMP JUMPDEST PUSH2 0x7DC JUMP JUMPDEST PUSH2 0x15B PUSH2 0x250 CALLDATASIZE PUSH1 0x4 PUSH2 0x146E JUMP JUMPDEST PUSH1 0x2 PUSH1 0x20 SWAP1 DUP2 MSTORE PUSH1 0x0 SWAP3 DUP4 MSTORE PUSH1 0x40 DUP1 DUP5 KECCAK256 SWAP1 SWAP2 MSTORE SWAP1 DUP3 MSTORE SWAP1 KECCAK256 SLOAD DUP2 JUMP JUMPDEST PUSH2 0x123 PUSH2 0x27B CALLDATASIZE PUSH1 0x4 PUSH2 0x14FF JUMP JUMPDEST PUSH2 0x8E3 JUMP JUMPDEST PUSH2 0x18F PUSH2 0x28E CALLDATASIZE PUSH1 0x4 PUSH2 0x14A1 JUMP JUMPDEST PUSH2 0x926 JUMP JUMPDEST PUSH2 0x15B PUSH1 0xA DUP2 JUMP JUMPDEST PUSH2 0x18F PUSH2 0x2A9 CALLDATASIZE PUSH1 0x4 PUSH2 0x14FF JUMP JUMPDEST PUSH2 0x94B JUMP JUMPDEST PUSH1 0x0 PUSH1 0x1 PUSH1 0x1 PUSH1 0xE0 SHL SUB NOT DUP3 AND PUSH4 0x7965DB0B PUSH1 0xE0 SHL EQ DUP1 PUSH2 0x2DF JUMPI POP PUSH4 0x1FFC9A7 PUSH1 0xE0 SHL PUSH1 0x1 PUSH1 0x1 PUSH1 0xE0 SHL SUB NOT DUP4 AND EQ JUMPDEST SWAP3 SWAP2 POP POP JUMP JUMPDEST PUSH1 0x1 PUSH1 0x1 PUSH1 0xA0 SHL SUB DUP3 AND PUSH1 0x0 SWAP1 DUP2 MSTORE PUSH1 0x2 PUSH1 0x20 MSTORE PUSH1 0x40 DUP2 KECCAK256 DUP2 SWAP1 DUP2 DUP5 PUSH1 0x5 DUP2 GT ISZERO PUSH2 0x312 JUMPI PUSH2 0x312 PUSH2 0x151A JUMP JUMPDEST PUSH1 0x5 DUP2 GT ISZERO PUSH2 0x323 JUMPI PUSH2 0x323 PUSH2 0x151A JUMP JUMPDEST DUP2 MSTORE PUSH1 0x20 ADD SWAP1 DUP2 MSTORE PUSH1 0x20 ADD PUSH1 0x0 KECCAK256 SLOAD SWAP1 POP PUSH1 0xA DUP2 PUSH2 0x341 SWAP2 SWAP1 PUSH2 0x1546 JUMP JUMPDEST TIMESTAMP LT ISZERO SWAP5 SWAP4 POP POP POP POP JUMP JUMPDEST PUSH1 0x0 DUP3 DUP2 MSTORE PUSH1 0x20 DUP2 SWAP1 MSTORE PUSH1 0x40 SWAP1 KECCAK256 PUSH1 0x1 ADD SLOAD PUSH2 0x367 DUP2 PUSH2 0x9F2 JUMP JUMPDEST PUSH2 0x371 DUP4 DUP4 PUSH2 0x9FF JUMP JUMPDEST POP POP POP POP JUMP JUMPDEST PUSH1 0x0 PUSH1 0x1 DUP2 PUSH2 0x389 PUSH1 0x20 DUP6 ADD DUP6 PUSH2 0x14FF JUMP JUMPDEST PUSH1 0x5 DUP2 GT ISZERO PUSH2 0x39A JUMPI PUSH2 0x39A PUSH2 0x151A JUMP JUMPDEST PUSH1 0x5 DUP2 GT ISZERO PUSH2 0x3AB JUMPI PUSH2 0x3AB PUSH2 0x151A JUMP JUMPDEST DUP2 MSTORE PUSH1 0x20 DUP2 ADD SWAP2 SWAP1 SWAP2 MSTORE PUSH1 0x40 ADD PUSH1 0x0 KECCAK256 SLOAD PUSH1 0xFF AND PUSH2 0x408 JUMPI PUSH1 0x40 MLOAD PUSH3 0x461BCD PUSH1 0xE5 SHL DUP2 MSTORE PUSH1 0x20 PUSH1 0x4 DUP3 ADD MSTORE PUSH1 0x15 PUSH1 0x24 DUP3 ADD MSTORE PUSH21 0x11D85B59481D1E5C19481B9BDD08195B98589B1959 PUSH1 0x5A SHL PUSH1 0x44 DUP3 ADD MSTORE PUSH1 0x64 ADD JUMPDEST PUSH1 0x40 MLOAD DUP1 SWAP2 SUB SWAP1 REVERT JUMPDEST PUSH1 0x0 PUSH2 0x417 PUSH1 0x20 DUP5 ADD DUP5 PUSH2 0x14FF JUMP JUMPDEST PUSH1 0x5 DUP2 GT ISZERO PUSH2 0x428 JUMPI PUSH2 0x428 PUSH2 0x151A JUMP JUMPDEST SUB PUSH2 0x469 JUMPI PUSH1 0x40 MLOAD PUSH3 0x461BCD PUSH1 0xE5 SHL DUP2 MSTORE PUSH1 0x20 PUSH1 0x4 DUP3 ADD MSTORE PUSH1 0x11 PUSH1 0x24 DUP3 ADD MSTORE PUSH17 0x496E76616C69642067616D652074797065 PUSH1 0x78 SHL PUSH1 0x44 DUP3 ADD MSTORE PUSH1 0x64 ADD PUSH2 0x3FF JUMP JUMPDEST PUSH1 0x0 PUSH1 0x2 DUP2 PUSH2 0x47E PUSH1 0x40 DUP7 ADD PUSH1 0x20 DUP8 ADD PUSH2 0x1559 JUMP JUMPDEST PUSH1 0x1 PUSH1 0x1 PUSH1 0xA0 SHL SUB AND DUP2 MSTORE PUSH1 0x20 DUP1 DUP3 ADD SWAP3 SWAP1 SWAP3 MSTORE PUSH1 0x40 ADD PUSH1 0x0 SWAP1 DUP2 KECCAK256 SWAP2 PUSH2 0x4A7 SWAP1 DUP7 ADD DUP7 PUSH2 0x14FF JUMP JUMPDEST PUSH1 0x5 DUP2 GT ISZERO PUSH2 0x4B8 JUMPI PUSH2 0x4B8 PUSH2 0x151A JUMP JUMPDEST PUSH1 0x5 DUP2 GT ISZERO PUSH2 0x4C9 JUMPI PUSH2 0x4C9 PUSH2 0x151A JUMP JUMPDEST DUP2 MSTORE PUSH1 0x20 ADD SWAP1 DUP2 MSTORE PUSH1 0x20 ADD PUSH1 0x0 KECCAK256 SLOAD SWAP1 POP PUSH1 0xA DUP2 PUSH2 0x4E7 SWAP2 SWAP1 PUSH2 0x1546 JUMP JUMPDEST TIMESTAMP LT ISZERO PUSH2 0x536 JUMPI PUSH1 0x40 MLOAD PUSH3 0x461BCD PUSH1 0xE5 SHL DUP2 MSTORE PUSH1 0x20 PUSH1 0x4 DUP3 ADD MSTORE PUSH1 0x18 PUSH1 0x24 DUP3 ADD MSTORE PUSH32 0x546F6F206672657175656E74207375626D697373696F6E730000000000000000 PUSH1 0x44 DUP3 ADD MSTORE PUSH1 0x64 ADD PUSH2 0x3FF JUMP JUMPDEST TIMESTAMP PUSH1 0x2 PUSH1 0x0 PUSH2 0x54B PUSH1 0x40 DUP8 ADD PUSH1 0x20 DUP9 ADD PUSH2 0x1559 JUMP JUMPDEST PUSH1 0x1 PUSH1 0x1 PUSH1 0xA0 SHL SUB AND DUP2 MSTORE PUSH1 0x20 DUP1 DUP3 ADD SWAP3 SWAP1 SWAP3 MSTORE PUSH1 0x40 ADD PUSH1 0x0 SWAP1 DUP2 KECCAK256 SWAP2 PUSH2 0x574 SWAP1 DUP8 ADD DUP8 PUSH2 0x14FF JUMP JUMPDEST PUSH1 0x5 DUP2 GT ISZERO PUSH2 0x585 JUMPI PUSH2 0x585 PUSH2 0x151A JUMP JUMPDEST PUSH1 0x5 DUP2 GT ISZERO PUSH2 0x596 JUMPI PUSH2 0x596 PUSH2 0x151A JUMP JUMPDEST DUP2 MSTORE PUSH1 0x20 DUP2 ADD SWAP2 SWAP1 SWAP2 MSTORE PUSH1 0x40 ADD PUSH1 0x0 KECCAK256 SSTORE TIMESTAMP PUSH1 0x60 DUP5 ADD CALLDATALOAD GT ISZERO PUSH2 0x5EF JUMPI PUSH1 0x40 MLOAD PUSH3 0x461BCD PUSH1 0xE5 SHL DUP2 MSTORE PUSH1 0x20 PUSH1 0x4 DUP3 ADD MSTORE PUSH1 0x11 PUSH1 0x24 DUP3 ADD MSTORE PUSH17 0x496E76616C69642074696D657374616D7 PUSH1 0x7C SHL PUSH1 0x44 DUP3 ADD MSTORE PUSH1 0x64 ADD PUSH2 0x3FF JUMP JUMPDEST PUSH2 0x5FC PUSH3 0x15180 TIMESTAMP PUSH2 0x1574 JUMP JUMPDEST DUP4 PUSH1 0x60 ADD CALLDATALOAD LT ISZERO PUSH2 0x643 JUMPI PUSH1 0x40 MLOAD PUSH3 0x461BCD PUSH1 0xE5 SHL DUP2 MSTORE PUSH1 0x20 PUSH1 0x4 DUP3 ADD MSTORE PUSH1 0x11 PUSH1 0x24 DUP3 ADD MSTORE PUSH17 0x151A5B595CDD185B5C081D1BDBC81BDB19 PUSH1 0x7A SHL PUSH1 0x44 DUP3 ADD MSTORE PUSH1 0x64 ADD PUSH2 0x3FF JUMP JUMPDEST PUSH1 0x0 PUSH2 0x64E DUP5 PUSH2 0x74B JUMP JUMPDEST SWAP1 POP DUP4 PUSH1 0x80 ADD CALLDATALOAD DUP2 EQ PUSH2 0x698 JUMPI PUSH1 0x40 MLOAD PUSH3 0x461BCD PUSH1 0xE5 SHL DUP2 MSTORE PUSH1 0x20 PUSH1 0x4 DUP3 ADD MSTORE PUSH1 0x12 PUSH1 0x24 DUP3 ADD MSTORE PUSH18 0x8EC2DACA40D0C2E6D040DAD2E6DAC2E8C6D PUSH1 0x73 SHL PUSH1 0x44 DUP3 ADD MSTORE PUSH1 0x64 ADD PUSH2 0x3FF JUMP JUMPDEST PUSH2 0x6A1 DUP5 PUSH2 0xA91 JUMP JUMPDEST PUSH2 0x6B1 PUSH1 0x40 DUP6 ADD PUSH1 0x20 DUP7 ADD PUSH2 0x1559 JUMP JUMPDEST PUSH1 0x1 PUSH1 0x1 PUSH1 0xA0 SHL SUB AND PUSH32 0x1E9C851913C59CE225051A04A5685A51E8F1DC7F4F54FA7AB6976EC8D21F56AD PUSH2 0x6E8 PUSH1 0x20 DUP8 ADD DUP8 PUSH2 0x14FF JUMP JUMPDEST DUP7 PUSH1 0x40 ADD CALLDATALOAD DUP8 PUSH1 0x80 ADD CALLDATALOAD PUSH1 0x40 MLOAD PUSH2 0x701 SWAP4 SWAP3 SWAP2 SWAP1 PUSH2 0x15A9 JUMP JUMPDEST PUSH1 0x40 MLOAD DUP1 SWAP2 SUB SWAP1 LOG2 POP PUSH1 0x1 SWAP4 SWAP3 POP POP POP JUMP JUMPDEST PUSH1 0x1 PUSH1 0x1 PUSH1 0xA0 SHL SUB DUP2 AND CALLER EQ PUSH2 0x73C JUMPI PUSH1 0x40 MLOAD PUSH4 0x334BD919 PUSH1 0xE1 SHL DUP2 MSTORE PUSH1 0x4 ADD PUSH1 0x40 MLOAD DUP1 SWAP2 SUB SWAP1 REVERT JUMPDEST PUSH2 0x746 DUP3 DUP3 PUSH2 0x1355 JUMP JUMPDEST POP POP POP JUMP JUMPDEST PUSH1 0x0 PUSH2 0x75A PUSH1 0x20 DUP4 ADD DUP4 PUSH2 0x14FF JUMP JUMPDEST PUSH2 0x76A PUSH1 0x40 DUP5 ADD PUSH1 0x20 DUP6 ADD PUSH2 0x1559 JUMP JUMPDEST PUSH1 0x40 DUP5 ADD CALLDATALOAD PUSH1 0x60 DUP6 ADD CALLDATALOAD PUSH2 0x781 PUSH1 0xA0 DUP8 ADD DUP8 PUSH2 0x15C8 JUMP JUMPDEST PUSH1 0x40 MLOAD PUSH1 0x20 ADD PUSH2 0x796 SWAP7 SWAP6 SWAP5 SWAP4 SWAP3 SWAP2 SWAP1 PUSH2 0x1619 JUMP JUMPDEST PUSH1 0x40 MLOAD PUSH1 0x20 DUP2 DUP4 SUB SUB DUP2 MSTORE SWAP1 PUSH1 0x40 MSTORE DUP1 MLOAD SWAP1 PUSH1 0x20 ADD KECCAK256 SWAP1 POP SWAP2 SWAP1 POP JUMP JUMPDEST PUSH1 0x0 SWAP2 DUP3 MSTORE PUSH1 0x20 DUP3 DUP2 MSTORE PUSH1 0x40 DUP1 DUP5 KECCAK256 PUSH1 0x1 PUSH1 0x1 PUSH1 0xA0 SHL SUB SWAP4 SWAP1 SWAP4 AND DUP5 MSTORE SWAP2 SWAP1 MSTORE SWAP1 KECCAK256 SLOAD PUSH1 0xFF AND SWAP1 JUMP JUMPDEST PUSH32 0x9B7946ABD96DCCBE6CFC6CC2C13300AB429D93E16FA72DC459EECCDA73817F08 PUSH2 0x806 DUP2 PUSH2 0x9F2 JUMP JUMPDEST PUSH1 0x0 DUP3 PUSH1 0x5 DUP2 GT ISZERO PUSH2 0x81A JUMPI PUSH2 0x81A PUSH2 0x151A JUMP JUMPDEST SUB PUSH2 0x85B JUMPI PUSH1 0x40 MLOAD PUSH3 0x461BCD PUSH1 0xE5 SHL DUP2 MSTORE PUSH1 0x20 PUSH1 0x4 DUP3 ADD MSTORE PUSH1 0x11 PUSH1 0x24 DUP3 ADD MSTORE PUSH17 0x496E76616C69642067616D652074797065 PUSH1 0x78 SHL PUSH1 0x44 DUP3 ADD MSTORE PUSH1 0x64 ADD PUSH2 0x3FF JUMP JUMPDEST PUSH1 0x1 DUP1 PUSH1 0x0 DUP5 PUSH1 0x5 DUP2 GT ISZERO PUSH2 0x872 JUMPI PUSH2 0x872 PUSH2 0x151A JUMP JUMPDEST PUSH1 0x5 DUP2 GT ISZERO PUSH2 0x883 JUMPI PUSH2 0x883 PUSH2 0x151A JUMP JUMPDEST DUP2 MSTORE PUSH1 0x20 ADD SWAP1 DUP2 MSTORE PUSH1 0x20 ADD PUSH1 0x0 KECCAK256 PUSH1 0x0 PUSH2 0x100 EXP DUP2 SLOAD DUP2 PUSH1 0xFF MUL NOT AND SWAP1 DUP4 ISZERO ISZERO MUL OR SWAP1 SSTORE POP PUSH32 0x8A4C3E88784CD877ADA8BE9F43EFC736C434652CBD9AC3FC2CA00795BD5DA9E7 DUP3 PUSH1 0x40 MLOAD PUSH2 0x8D7 SWAP2 SWAP1 PUSH2 0x1698 JUMP JUMPDEST PUSH1 0x40 MLOAD DUP1 SWAP2 SUB SWAP1 LOG1 POP POP JUMP JUMPDEST PUSH1 0x0 PUSH1 0x1 PUSH1 0x0 DUP4 PUSH1 0x5 DUP2 GT ISZERO PUSH2 0x8FB JUMPI PUSH2 0x8FB PUSH2 0x151A JUMP JUMPDEST PUSH1 0x5 DUP2 GT ISZERO PUSH2 0x90C JUMPI PUSH2 0x90C PUSH2 0x151A JUMP JUMPDEST DUP2 MSTORE PUSH1 0x20 DUP2 ADD SWAP2 SWAP1 SWAP2 MSTORE PUSH1 0x40 ADD PUSH1 0x0 KECCAK256 SLOAD PUSH1 0xFF AND SWAP3 SWAP2 POP POP JUMP JUMPDEST PUSH1 0x0 DUP3 DUP2 MSTORE PUSH1 0x20 DUP2 SWAP1 MSTORE PUSH1 0x40 SWAP1 KECCAK256 PUSH1 0x1 ADD SLOAD PUSH2 0x941 DUP2 PUSH2 0x9F2 JUMP JUMPDEST PUSH2 0x371 DUP4 DUP4 PUSH2 0x1355 JUMP JUMPDEST PUSH32 0x9B7946ABD96DCCBE6CFC6CC2C13300AB429D93E16FA72DC459EECCDA73817F08 PUSH2 0x975 DUP2 PUSH2 0x9F2 JUMP JUMPDEST PUSH1 0x0 PUSH1 0x1 PUSH1 0x0 DUP5 PUSH1 0x5 DUP2 GT ISZERO PUSH2 0x98D JUMPI PUSH2 0x98D PUSH2 0x151A JUMP JUMPDEST PUSH1 0x5 DUP2 GT ISZERO PUSH2 0x99E JUMPI PUSH2 0x99E PUSH2 0x151A JUMP JUMPDEST DUP2 MSTORE PUSH1 0x20 ADD SWAP1 DUP2 MSTORE PUSH1 0x20 ADD PUSH1 0x0 KECCAK256 PUSH1 0x0 PUSH2 0x100 EXP DUP2 SLOAD DUP2 PUSH1 0xFF MUL NOT AND SWAP1 DUP4 ISZERO ISZERO MUL OR SWAP1 SSTORE POP PUSH32 0xF57ACFB7BBC2A8CCB2061F1E6F82AD5FD4BED847D0FCB39D9F40A0AB0EDA108A DUP3 PUSH1 0x40 MLOAD PUSH2 0x8D7 SWAP2 SWAP1 PUSH2 0x1698 JUMP JUMPDEST PUSH2 0x9FC DUP2 CALLER PUSH2 0x13C0 JUMP JUMPDEST POP JUMP JUMPDEST PUSH1 0x0 PUSH2 0xA0B DUP4 DUP4 PUSH2 0x7B3 JUMP JUMPDEST PUSH2 0xA89 JUMPI PUSH1 0x0 DUP4 DUP2 MSTORE PUSH1 0x20 DUP2 DUP2 MSTORE PUSH1 0x40 DUP1 DUP4 KECCAK256 PUSH1 0x1 PUSH1 0x1 PUSH1 0xA0 SHL SUB DUP7 AND DUP5 MSTORE SWAP1 SWAP2 MSTORE SWAP1 KECCAK256 DUP1 SLOAD PUSH1 0xFF NOT AND PUSH1 0x1 OR SWAP1 SSTORE PUSH2 0xA41 CALLER SWAP1 JUMP JUMPDEST PUSH1 0x1 PUSH1 0x1 PUSH1 0xA0 SHL SUB AND DUP3 PUSH1 0x1 PUSH1 0x1 PUSH1 0xA0 SHL SUB AND DUP5 PUSH32 0x2F8788117E7EFF1D82E926EC794901D17C78024A50270940304540A733656F0D PUSH1 0x40 MLOAD PUSH1 0x40 MLOAD DUP1 SWAP2 SUB SWAP1 LOG4 POP PUSH1 0x1 PUSH2 0x2DF JUMP JUMPDEST POP PUSH1 0x0 PUSH2 0x2DF JUMP JUMPDEST PUSH1 0x1 PUSH2 0xAA0 PUSH1 0x20 DUP4 ADD DUP4 PUSH2 0x14FF JUMP JUMPDEST PUSH1 0x5 DUP2 GT ISZERO PUSH2 0xAB1 JUMPI PUSH2 0xAB1 PUSH2 0x151A JUMP JUMPDEST SUB PUSH2 0xBD0 JUMPI PUSH1 0x1 PUSH2 0xAC5 PUSH1 0xA0 DUP4 ADD DUP4 PUSH2 0x15C8 JUMP JUMPDEST SWAP1 POP LT ISZERO PUSH2 0xAE5 JUMPI PUSH1 0x40 MLOAD PUSH3 0x461BCD PUSH1 0xE5 SHL DUP2 MSTORE PUSH1 0x4 ADD PUSH2 0x3FF SWAP1 PUSH2 0x16A6 JUMP JUMPDEST PUSH1 0x0 PUSH2 0xAF4 PUSH1 0xA0 DUP4 ADD DUP4 PUSH2 0x15C8 JUMP JUMPDEST PUSH1 0x0 DUP2 DUP2 LT PUSH2 0xB05 JUMPI PUSH2 0xB05 PUSH2 0x16D5 JUMP JUMPDEST SWAP1 POP PUSH1 0x20 MUL ADD CALLDATALOAD SWAP1 POP PUSH1 0x0 DUP2 GT DUP1 ISZERO PUSH2 0xB1F JUMPI POP PUSH1 0x5 DUP2 GT ISZERO JUMPDEST PUSH2 0xB63 JUMPI PUSH1 0x40 MLOAD PUSH3 0x461BCD PUSH1 0xE5 SHL DUP2 MSTORE PUSH1 0x20 PUSH1 0x4 DUP3 ADD MSTORE PUSH1 0x15 PUSH1 0x24 DUP3 ADD MSTORE PUSH21 0x125B9D985B1A5908185D1D195B5C1D0818DBDD5B9D PUSH1 0x5A SHL PUSH1 0x44 DUP3 ADD MSTORE PUSH1 0x64 ADD PUSH2 0x3FF JUMP JUMPDEST PUSH1 0x0 PUSH2 0xB70 DUP3 PUSH1 0x6 PUSH2 0x1574 JUMP JUMPDEST PUSH2 0xB7B SWAP1 PUSH1 0x14 PUSH2 0x16EB JUMP JUMPDEST SWAP1 POP DUP1 DUP4 PUSH1 0x40 ADD CALLDATALOAD EQ PUSH2 0x746 JUMPI PUSH1 0x40 MLOAD PUSH3 0x461BCD PUSH1 0xE5 SHL DUP2 MSTORE PUSH1 0x20 PUSH1 0x4 DUP3 ADD MSTORE PUSH1 0x1D PUSH1 0x24 DUP3 ADD MSTORE PUSH32 0x53636F726520646F6573206E6F74206D6174636820617474656D707473000000 PUSH1 0x44 DUP3 ADD MSTORE PUSH1 0x64 ADD PUSH2 0x3FF JUMP JUMPDEST PUSH1 0x2 PUSH2 0xBDF PUSH1 0x20 DUP4 ADD DUP4 PUSH2 0x14FF JUMP JUMPDEST PUSH1 0x5 DUP2 GT ISZERO PUSH2 0xBF0 JUMPI PUSH2 0xBF0 PUSH2 0x151A JUMP JUMPDEST SUB PUSH2 0xD80 JUMPI PUSH1 0x3 PUSH2 0xC04 PUSH1 0xA0 DUP4 ADD DUP4 PUSH2 0x15C8 JUMP JUMPDEST SWAP1 POP LT ISZERO PUSH2 0xC24 JUMPI PUSH1 0x40 MLOAD PUSH3 0x461BCD PUSH1 0xE5 SHL DUP2 MSTORE PUSH1 0x4 ADD PUSH2 0x3FF SWAP1 PUSH2 0x16A6 JUMP JUMPDEST PUSH1 0x0 PUSH2 0xC33 PUSH1 0xA0 DUP4 ADD DUP4 PUSH2 0x15C8 JUMP JUMPDEST PUSH1 0x0 DUP2 DUP2 LT PUSH2 0xC44 JUMPI PUSH2 0xC44 PUSH2 0x16D5 JUMP JUMPDEST SWAP1 POP PUSH1 0x20 MUL ADD CALLDATALOAD SWAP1 POP PUSH1 0x0 DUP3 DUP1 PUSH1 0xA0 ADD SWAP1 PUSH2 0xC5F SWAP2 SWAP1 PUSH2 0x15C8 JUMP JUMPDEST PUSH1 0x1 DUP2 DUP2 LT PUSH2 0xC70 JUMPI PUSH2 0xC70 PUSH2 0x16D5 JUMP JUMPDEST SWAP1 POP PUSH1 0x20 MUL ADD CALLDATALOAD SWAP1 POP PUSH1 0x0 DUP4 DUP1 PUSH1 0xA0 ADD SWAP1 PUSH2 0xC8B SWAP2 SWAP1 PUSH2 0x15C8 JUMP JUMPDEST PUSH1 0x2 DUP2 DUP2 LT PUSH2 0xC9C JUMPI PUSH2 0xC9C PUSH2 0x16D5 JUMP JUMPDEST SWAP1 POP PUSH1 0x20 MUL ADD CALLDATALOAD SWAP1 POP DUP1 DUP3 DUP5 PUSH2 0xCB2 SWAP2 SWAP1 PUSH2 0x1546 JUMP JUMPDEST PUSH2 0xCBC SWAP2 SWAP1 PUSH2 0x1546 JUMP JUMPDEST PUSH1 0xA EQ PUSH2 0xD02 JUMPI PUSH1 0x40 MLOAD PUSH3 0x461BCD PUSH1 0xE5 SHL DUP2 MSTORE PUSH1 0x20 PUSH1 0x4 DUP3 ADD MSTORE PUSH1 0x14 PUSH1 0x24 DUP3 ADD MSTORE PUSH20 0x496E76616C696420746F74616C20726F756E6473 PUSH1 0x60 SHL PUSH1 0x44 DUP3 ADD MSTORE PUSH1 0x64 ADD PUSH2 0x3FF JUMP JUMPDEST PUSH1 0x0 PUSH2 0xD0F DUP4 PUSH1 0x5 PUSH2 0x16EB JUMP JUMPDEST PUSH2 0xD1A DUP6 PUSH1 0xA PUSH2 0x16EB JUMP JUMPDEST PUSH2 0xD24 SWAP2 SWAP1 PUSH2 0x1546 JUMP JUMPDEST SWAP1 POP DUP1 DUP6 PUSH1 0x40 ADD CALLDATALOAD EQ PUSH2 0xD79 JUMPI PUSH1 0x40 MLOAD PUSH3 0x461BCD PUSH1 0xE5 SHL DUP2 MSTORE PUSH1 0x20 PUSH1 0x4 DUP3 ADD MSTORE PUSH1 0x1C PUSH1 0x24 DUP3 ADD MSTORE PUSH32 0x53636F726520646F6573206E6F74206D6174636820726573756C747300000000 PUSH1 0x44 DUP3 ADD MSTORE PUSH1 0x64 ADD PUSH2 0x3FF JUMP JUMPDEST POP POP POP POP POP JUMP JUMPDEST PUSH1 0x3 PUSH2 0xD8F PUSH1 0x20 DUP4 ADD DUP4 PUSH2 0x14FF JUMP JUMPDEST PUSH1 0x5 DUP2 GT ISZERO PUSH2 0xDA0 JUMPI PUSH2 0xDA0 PUSH2 0x151A JUMP JUMPDEST SUB PUSH2 0xE97 JUMPI PUSH1 0x1 PUSH2 0xDB4 PUSH1 0xA0 DUP4 ADD DUP4 PUSH2 0x15C8 JUMP JUMPDEST SWAP1 POP LT ISZERO PUSH2 0xDD4 JUMPI PUSH1 0x40 MLOAD PUSH3 0x461BCD PUSH1 0xE5 SHL DUP2 MSTORE PUSH1 0x4 ADD PUSH2 0x3FF SWAP1 PUSH2 0x16A6 JUMP JUMPDEST PUSH1 0x0 PUSH2 0xDE3 PUSH1 0xA0 DUP4 ADD DUP4 PUSH2 0x15C8 JUMP JUMPDEST PUSH1 0x0 DUP2 DUP2 LT PUSH2 0xDF4 JUMPI PUSH2 0xDF4 PUSH2 0x16D5 JUMP JUMPDEST SWAP1 POP PUSH1 0x20 MUL ADD CALLDATALOAD SWAP1 POP PUSH1 0x32 DUP2 GT ISZERO PUSH2 0xE40 JUMPI PUSH1 0x40 MLOAD PUSH3 0x461BCD PUSH1 0xE5 SHL DUP2 MSTORE PUSH1 0x20 PUSH1 0x4 DUP3 ADD MSTORE PUSH1 0xF PUSH1 0x24 DUP3 ADD MSTORE PUSH15 0x546F6F206D616E7920636C69636B73 PUSH1 0x88 SHL PUSH1 0x44 DUP3 ADD MSTORE PUSH1 0x64 ADD PUSH2 0x3FF JUMP JUMPDEST DUP1 DUP3 PUSH1 0x40 ADD CALLDATALOAD EQ PUSH2 0xE93 JUMPI PUSH1 0x40 MLOAD PUSH3 0x461BCD PUSH1 0xE5 SHL DUP2 MSTORE PUSH1 0x20 PUSH1 0x4 DUP3 ADD DUP2 SWAP1 MSTORE PUSH1 0x24 DUP3 ADD MSTORE PUSH32 0x53636F726520646F6573206E6F74206D6174636820636C69636B20636F756E74 PUSH1 0x44 DUP3 ADD MSTORE PUSH1 0x64 ADD PUSH2 0x3FF JUMP JUMPDEST POP POP JUMP JUMPDEST PUSH1 0x5 PUSH2 0xEA6 PUSH1 0x20 DUP4 ADD DUP4 PUSH2 0x14FF JUMP JUMPDEST PUSH1 0x5 DUP2 GT ISZERO PUSH2 0xEB7 JUMPI PUSH2 0xEB7 PUSH2 0x151A JUMP JUMPDEST SUB PUSH2 0x1102 JUMPI PUSH1 0x3 PUSH2 0xECB PUSH1 0xA0 DUP4 ADD DUP4 PUSH2 0x15C8 JUMP JUMPDEST SWAP1 POP LT ISZERO PUSH2 0xEEB JUMPI PUSH1 0x40 MLOAD PUSH3 0x461BCD PUSH1 0xE5 SHL DUP2 MSTORE PUSH1 0x4 ADD PUSH2 0x3FF SWAP1 PUSH2 0x16A6 JUMP JUMPDEST PUSH1 0x0 PUSH2 0xEFA PUSH1 0xA0 DUP4 ADD DUP4 PUSH2 0x15C8 JUMP JUMPDEST PUSH1 0x0 DUP2 DUP2 LT PUSH2 0xF0B JUMPI PUSH2 0xF0B PUSH2 0x16D5 JUMP JUMPDEST SWAP1 POP PUSH1 0x20 MUL ADD CALLDATALOAD SWAP1 POP PUSH1 0x0 DUP3 DUP1 PUSH1 0xA0 ADD SWAP1 PUSH2 0xF26 SWAP2 SWAP1 PUSH2 0x15C8 JUMP JUMPDEST PUSH1 0x1 DUP2 DUP2 LT PUSH2 0xF37 JUMPI PUSH2 0xF37 PUSH2 0x16D5 JUMP JUMPDEST SWAP1 POP PUSH1 0x20 MUL ADD CALLDATALOAD SWAP1 POP PUSH1 0x0 DUP4 DUP1 PUSH1 0xA0 ADD SWAP1 PUSH2 0xF52 SWAP2 SWAP1 PUSH2 0x15C8 JUMP JUMPDEST PUSH1 0x2 DUP2 DUP2 LT PUSH2 0xF63 JUMPI PUSH2 0xF63 PUSH2 0x16D5 JUMP JUMPDEST SWAP1 POP PUSH1 0x20 MUL ADD CALLDATALOAD SWAP1 POP PUSH1 0x1 DUP3 LT ISZERO PUSH2 0xFAD JUMPI PUSH1 0x40 MLOAD PUSH3 0x461BCD PUSH1 0xE5 SHL DUP2 MSTORE PUSH1 0x20 PUSH1 0x4 DUP3 ADD MSTORE PUSH1 0xD PUSH1 0x24 DUP3 ADD MSTORE PUSH13 0x125B9D985B1A59081B195D995B PUSH1 0x9A SHL PUSH1 0x44 DUP3 ADD MSTORE PUSH1 0x64 ADD PUSH2 0x3FF JUMP JUMPDEST PUSH1 0x1 DUP2 LT ISZERO PUSH2 0xFF2 JUMPI PUSH1 0x40 MLOAD PUSH3 0x461BCD PUSH1 0xE5 SHL DUP2 MSTORE PUSH1 0x20 PUSH1 0x4 DUP3 ADD MSTORE PUSH1 0x11 PUSH1 0x24 DUP3 ADD MSTORE PUSH17 0x496E76616C6964206D617820636F6D626F PUSH1 0x78 SHL PUSH1 0x44 DUP3 ADD MSTORE PUSH1 0x64 ADD PUSH2 0x3FF JUMP JUMPDEST PUSH1 0x0 PUSH2 0x1000 DUP4 PUSH2 0x12C PUSH2 0x16EB JUMP JUMPDEST SWAP1 POP DUP1 DUP5 LT ISZERO PUSH2 0x104C JUMPI PUSH1 0x40 MLOAD PUSH3 0x461BCD PUSH1 0xE5 SHL DUP2 MSTORE PUSH1 0x20 PUSH1 0x4 DUP3 ADD MSTORE PUSH1 0x17 PUSH1 0x24 DUP3 ADD MSTORE PUSH23 0x14D8DBDC99481D1BDBC81B1BDDC8199BDC881B195D995B PUSH1 0x4A SHL PUSH1 0x44 DUP3 ADD MSTORE PUSH1 0x64 ADD PUSH2 0x3FF JUMP JUMPDEST PUSH1 0x0 PUSH2 0x105A DUP5 PUSH2 0x3E8 PUSH2 0x16EB JUMP JUMPDEST SWAP1 POP DUP1 DUP6 GT ISZERO PUSH2 0x10A7 JUMPI PUSH1 0x40 MLOAD PUSH3 0x461BCD PUSH1 0xE5 SHL DUP2 MSTORE PUSH1 0x20 PUSH1 0x4 DUP3 ADD MSTORE PUSH1 0x18 PUSH1 0x24 DUP3 ADD MSTORE PUSH24 0x14D8DBDC99481D1BDBC81A1A59DA08199BDC881B195D995B PUSH1 0x42 SHL PUSH1 0x44 DUP3 ADD MSTORE PUSH1 0x64 ADD PUSH2 0x3FF JUMP JUMPDEST DUP5 DUP7 PUSH1 0x40 ADD CALLDATALOAD EQ PUSH2 0x10FA JUMPI PUSH1 0x40 MLOAD PUSH3 0x461BCD PUSH1 0xE5 SHL DUP2 MSTORE PUSH1 0x20 PUSH1 0x4 DUP3 ADD MSTORE PUSH1 0x1C PUSH1 0x24 DUP3 ADD MSTORE PUSH32 0x53636F7265206D69736D617463682077697468206D6574616461746100000000 PUSH1 0x44 DUP3 ADD MSTORE PUSH1 0x64 ADD PUSH2 0x3FF JUMP JUMPDEST POP POP POP POP POP POP JUMP JUMPDEST PUSH1 0x4 PUSH2 0x1111 PUSH1 0x20 DUP4 ADD DUP4 PUSH2 0x14FF JUMP JUMPDEST PUSH1 0x5 DUP2 GT ISZERO PUSH2 0x1122 JUMPI PUSH2 0x1122 PUSH2 0x151A JUMP JUMPDEST SUB PUSH2 0x9FC JUMPI PUSH1 0x4 PUSH2 0x1136 PUSH1 0xA0 DUP4 ADD DUP4 PUSH2 0x15C8 JUMP JUMPDEST SWAP1 POP LT ISZERO PUSH2 0x1156 JUMPI PUSH1 0x40 MLOAD PUSH3 0x461BCD PUSH1 0xE5 SHL DUP2 MSTORE PUSH1 0x4 ADD PUSH2 0x3FF SWAP1 PUSH2 0x16A6 JUMP JUMPDEST PUSH1 0x0 PUSH2 0x1165 PUSH1 0xA0 DUP4 ADD DUP4 PUSH2 0x15C8 JUMP JUMPDEST PUSH1 0x0 DUP2 DUP2 LT PUSH2 0x1176 JUMPI PUSH2 0x1176 PUSH2 0x16D5 JUMP JUMPDEST SWAP1 POP PUSH1 0x20 MUL ADD CALLDATALOAD SWAP1 POP PUSH1 0x0 DUP3 DUP1 PUSH1 0xA0 ADD SWAP1 PUSH2 0x1191 SWAP2 SWAP1 PUSH2 0x15C8 JUMP JUMPDEST PUSH1 0x1 DUP2 DUP2 LT PUSH2 0x11A2 JUMPI PUSH2 0x11A2 PUSH2 0x16D5 JUMP JUMPDEST SWAP1 POP PUSH1 0x20 MUL ADD CALLDATALOAD SWAP1 POP PUSH1 0x0 DUP4 DUP1 PUSH1 0xA0 ADD SWAP1 PUSH2 0x11BD SWAP2 SWAP1 PUSH2 0x15C8 JUMP JUMPDEST PUSH1 0x2 DUP2 DUP2 LT PUSH2 0x11CE JUMPI PUSH2 0x11CE PUSH2 0x16D5 JUMP JUMPDEST SWAP1 POP PUSH1 0x20 MUL ADD CALLDATALOAD SWAP1 POP PUSH1 0x0 DUP5 DUP1 PUSH1 0xA0 ADD SWAP1 PUSH2 0x11E9 SWAP2 SWAP1 PUSH2 0x15C8 JUMP JUMPDEST PUSH1 0x3 DUP2 DUP2 LT PUSH2 0x11FA JUMPI PUSH2 0x11FA PUSH2 0x16D5 JUMP JUMPDEST SWAP1 POP PUSH1 0x20 MUL ADD CALLDATALOAD SWAP1 POP PUSH1 0x1 DUP4 LT ISZERO PUSH2 0x1244 JUMPI PUSH1 0x40 MLOAD PUSH3 0x461BCD PUSH1 0xE5 SHL DUP2 MSTORE PUSH1 0x20 PUSH1 0x4 DUP3 ADD MSTORE PUSH1 0xD PUSH1 0x24 DUP3 ADD MSTORE PUSH13 0x125B9D985B1A59081B195D995B PUSH1 0x9A SHL PUSH1 0x44 DUP3 ADD MSTORE PUSH1 0x64 ADD PUSH2 0x3FF JUMP JUMPDEST PUSH1 0x0 PUSH2 0x1252 DUP5 PUSH2 0x3E8 PUSH2 0x16EB JUMP JUMPDEST SWAP1 POP DUP1 DUP6 LT ISZERO PUSH2 0x129E JUMPI PUSH1 0x40 MLOAD PUSH3 0x461BCD PUSH1 0xE5 SHL DUP2 MSTORE PUSH1 0x20 PUSH1 0x4 DUP3 ADD MSTORE PUSH1 0x17 PUSH1 0x24 DUP3 ADD MSTORE PUSH23 0x14D8DBDC99481D1BDBC81B1BDDC8199BDC881B195D995B PUSH1 0x4A SHL PUSH1 0x44 DUP3 ADD MSTORE PUSH1 0x64 ADD PUSH2 0x3FF JUMP JUMPDEST PUSH1 0x0 PUSH2 0x12AC DUP6 PUSH2 0x1388 PUSH2 0x16EB JUMP JUMPDEST SWAP1 POP DUP1 DUP7 GT ISZERO PUSH2 0x12F9 JUMPI PUSH1 0x40 MLOAD PUSH3 0x461BCD PUSH1 0xE5 SHL DUP2 MSTORE PUSH1 0x20 PUSH1 0x4 DUP3 ADD MSTORE PUSH1 0x18 PUSH1 0x24 DUP3 ADD MSTORE PUSH24 0x14D8DBDC99481D1BDBC81A1A59DA08199BDC881B195D995B PUSH1 0x42 SHL PUSH1 0x44 DUP3 ADD MSTORE PUSH1 0x64 ADD PUSH2 0x3FF JUMP JUMPDEST DUP6 DUP8 PUSH1 0x40 ADD CALLDATALOAD EQ PUSH2 0x134C JUMPI PUSH1 0x40 MLOAD PUSH3 0x461BCD PUSH1 0xE5 SHL DUP2 MSTORE PUSH1 0x20 PUSH1 0x4 DUP3 ADD MSTORE PUSH1 0x1C PUSH1 0x24 DUP3 ADD MSTORE PUSH32 0x53636F7265206D69736D617463682077697468206D6574616461746100000000 PUSH1 0x44 DUP3 ADD MSTORE PUSH1 0x64 ADD PUSH2 0x3FF JUMP JUMPDEST POP POP POP POP POP POP POP JUMP JUMPDEST PUSH1 0x0 PUSH2 0x1361 DUP4 DUP4 PUSH2 0x7B3 JUMP JUMPDEST ISZERO PUSH2 0xA89 JUMPI PUSH1 0x0 DUP4 DUP2 MSTORE PUSH1 0x20 DUP2 DUP2 MSTORE PUSH1 0x40 DUP1 DUP4 KECCAK256 PUSH1 0x1 PUSH1 0x1 PUSH1 0xA0 SHL SUB DUP7 AND DUP1 DUP6 MSTORE SWAP3 MSTORE DUP1 DUP4 KECCAK256 DUP1 SLOAD PUSH1 0xFF NOT AND SWAP1 SSTORE MLOAD CALLER SWAP3 DUP7 SWAP2 PUSH32 0xF6391F5C32D9C69D2A47EA670B442974B53935D1EDC7FD64EB21E047A839171B SWAP2 SWAP1 LOG4 POP PUSH1 0x1 PUSH2 0x2DF JUMP JUMPDEST PUSH2 0x13CA DUP3 DUP3 PUSH2 0x7B3 JUMP JUMPDEST PUSH2 0xE93 JUMPI PUSH1 0x40 MLOAD PUSH4 0xE2517D3F PUSH1 0xE0 SHL DUP2 MSTORE PUSH1 0x1 PUSH1 0x1 PUSH1 0xA0 SHL SUB DUP3 AND PUSH1 0x4 DUP3 ADD MSTORE PUSH1 0x24 DUP2 ADD DUP4 SWAP1 MSTORE PUSH1 0x44 ADD PUSH2 0x3FF JUMP JUMPDEST PUSH1 0x0 PUSH1 0x20 DUP3 DUP5 SUB SLT ISZERO PUSH2 0x140B JUMPI PUSH1 0x0 DUP1 REVERT JUMPDEST DUP2 CALLDATALOAD PUSH1 0x1 PUSH1 0x1 PUSH1 0xE0 SHL SUB NOT DUP2 AND DUP2 EQ PUSH2 0x1423 JUMPI PUSH1 0x0 DUP1 REVERT JUMPDEST SWAP4 SWAP3 POP POP POP JUMP JUMPDEST PUSH1 0x0 PUSH1 0x20 DUP3 DUP5 SUB SLT ISZERO PUSH2 0x143C JUMPI PUSH1 0x0 DUP1 REVERT JUMPDEST POP CALLDATALOAD SWAP2 SWAP1 POP JUMP JUMPDEST DUP1 CALLDATALOAD PUSH1 0x1 PUSH1 0x1 PUSH1 0xA0 SHL SUB DUP2 AND DUP2 EQ PUSH2 0x145A JUMPI PUSH1 0x0 DUP1 REVERT JUMPDEST SWAP2 SWAP1 POP JUMP JUMPDEST DUP1 CALLDATALOAD PUSH1 0x6 DUP2 LT PUSH2 0x145A JUMPI PUSH1 0x0 DUP1 REVERT JUMPDEST PUSH1 0x0 DUP1 PUSH1 0x40 DUP4 DUP6 SUB SLT ISZERO PUSH2 0x1481 JUMPI PUSH1 0x0 DUP1 REVERT JUMPDEST PUSH2 0x148A DUP4 PUSH2 0x1443 JUMP JUMPDEST SWAP2 POP PUSH2 0x1498 PUSH1 0x20 DUP5 ADD PUSH2 0x145F JUMP JUMPDEST SWAP1 POP SWAP3 POP SWAP3 SWAP1 POP JUMP JUMPDEST PUSH1 0x0 DUP1 PUSH1 0x40 DUP4 DUP6 SUB SLT ISZERO PUSH2 0x14B4 JUMPI PUSH1 0x0 DUP1 REVERT JUMPDEST DUP3 CALLDATALOAD SWAP2 POP PUSH2 0x1498 PUSH1 0x20 DUP5 ADD PUSH2 0x1443 JUMP JUMPDEST PUSH1 0x0 PUSH1 0x20 DUP3 DUP5 SUB SLT ISZERO PUSH2 0x14D6 JUMPI PUSH1 0x0 DUP1 REVERT JUMPDEST DUP2 CALLDATALOAD PUSH8 0xFFFFFFFFFFFFFFFF DUP2 GT ISZERO PUSH2 0x14ED JUMPI PUSH1 0x0 DUP1 REVERT JUMPDEST DUP3 ADD PUSH1 0xC0 DUP2 DUP6 SUB SLT ISZERO PUSH2 0x1423 JUMPI PUSH1 0x0 DUP1 REVERT JUMPDEST PUSH1 0x0 PUSH1 0x20 DUP3 DUP5 SUB SLT ISZERO PUSH2 0x1511 JUMPI PUSH1 0x0 DUP1 REVERT JUMPDEST PUSH2 0x1423 DUP3 PUSH2 0x145F JUMP JUMPDEST PUSH4 0x4E487B71 PUSH1 0xE0 SHL PUSH1 0x0 MSTORE PUSH1 0x21 PUSH1 0x4 MSTORE PUSH1 0x24 PUSH1 0x0 REVERT JUMPDEST PUSH4 0x4E487B71 PUSH1 0xE0 SHL PUSH1 0x0 MSTORE PUSH1 0x11 PUSH1 0x4 MSTORE PUSH1 0x24 PUSH1 0x0 REVERT JUMPDEST DUP1 DUP3 ADD DUP1 DUP3 GT ISZERO PUSH2 0x2DF JUMPI PUSH2 0x2DF PUSH2 0x1530 JUMP JUMPDEST PUSH1 0x0 PUSH1 0x20 DUP3 DUP5 SUB SLT ISZERO PUSH2 0x156B JUMPI PUSH1 0x0 DUP1 REVERT JUMPDEST PUSH2 0x1423 DUP3 PUSH2 0x1443 JUMP JUMPDEST DUP2 DUP2 SUB DUP2 DUP2 GT ISZERO PUSH2 0x2DF JUMPI PUSH2 0x2DF PUSH2 0x1530 JUMP JUMPDEST PUSH1 0x6 DUP2 LT PUSH2 0x15A5 JUMPI PUSH4 0x4E487B71 PUSH1 0xE0 SHL PUSH1 0x0 MSTORE PUSH1 0x21 PUSH1 0x4 MSTORE PUSH1 0x24 PUSH1 0x0 REVERT JUMPDEST SWAP1 MSTORE JUMP JUMPDEST PUSH1 0x60 DUP2 ADD PUSH2 0x15B7 DUP3 DUP7 PUSH2 0x1587 JUMP JUMPDEST PUSH1 0x20 DUP3 ADD SWAP4 SWAP1 SWAP4 MSTORE PUSH1 0x40 ADD MSTORE SWAP2 SWAP1 POP JUMP JUMPDEST PUSH1 0x0 DUP1 DUP4 CALLDATALOAD PUSH1 0x1E NOT DUP5 CALLDATASIZE SUB ADD DUP2 SLT PUSH2 0x15DF JUMPI PUSH1 0x0 DUP1 REVERT JUMPDEST DUP4 ADD DUP1 CALLDATALOAD SWAP2 POP PUSH8 0xFFFFFFFFFFFFFFFF DUP3 GT ISZERO PUSH2 0x15FA JUMPI PUSH1 0x0 DUP1 REVERT JUMPDEST PUSH1 0x20 ADD SWAP2 POP PUSH1 0x5 DUP2 SWAP1 SHL CALLDATASIZE SUB DUP3 SGT ISZERO PUSH2 0x1612 JUMPI PUSH1 0x0 DUP1 REVERT JUMPDEST SWAP3 POP SWAP3 SWAP1 POP JUMP JUMPDEST PUSH1 0x0 PUSH1 0x6 DUP9 LT PUSH2 0x1639 JUMPI PUSH4 0x4E487B71 PUSH1 0xE0 SHL PUSH1 0x0 MSTORE PUSH1 0x21 PUSH1 0x4 MSTORE PUSH1 0x24 PUSH1 0x0 REVERT JUMPDEST PUSH1 0xF8 DUP9 SWAP1 SHL DUP3 MSTORE PUSH1 0x60 DUP8 SWAP1 SHL PUSH12 0xFFFFFFFFFFFFFFFFFFFFFFFF NOT AND PUSH1 0x1 DUP4 ADD MSTORE PUSH1 0x15 DUP3 ADD DUP7 SWAP1 MSTORE PUSH1 0x35 DUP3 ADD DUP6 SWAP1 MSTORE PUSH1 0x1 PUSH1 0x1 PUSH1 0xFB SHL SUB DUP4 GT ISZERO PUSH2 0x167B JUMPI PUSH1 0x0 DUP1 REVERT JUMPDEST DUP3 PUSH1 0x5 SHL DUP1 DUP6 PUSH1 0x55 DUP6 ADD CALLDATACOPY SWAP2 SWAP1 SWAP2 ADD PUSH1 0x55 ADD SWAP8 SWAP7 POP POP POP POP POP POP POP JUMP JUMPDEST PUSH1 0x20 DUP2 ADD PUSH2 0x2DF DUP3 DUP5 PUSH2 0x1587 JUMP JUMPDEST PUSH1 0x20 DUP1 DUP3 MSTORE PUSH1 0x15 SWAP1 DUP3 ADD MSTORE PUSH21 0x4D697373696E672067616D65206D65746164617461 PUSH1 0x58 SHL PUSH1 0x40 DUP3 ADD MSTORE PUSH1 0x60 ADD SWAP1 JUMP JUMPDEST PUSH4 0x4E487B71 PUSH1 0xE0 SHL PUSH1 0x0 MSTORE PUSH1 0x32 PUSH1 0x4 MSTORE PUSH1 0x24 PUSH1 0x0 REVERT JUMPDEST DUP1 DUP3 MUL DUP2 ISZERO DUP3 DUP3 DIV DUP5 EQ OR PUSH2 0x2DF JUMPI PUSH2 0x2DF PUSH2 0x1530 JUMP INVALID LOG2 PUSH5 0x6970667358 0x22 SLT KECCAK256 PUSH18 0x911FAAA32FE4FD92BF2974D5A4E998FC6BEF 0xA5 JUMP 0xC8 COINBASE 0xB2 0xEC OR SLOAD GT SWAP14 CREATE2 PUSH23 0xFB64736F6C634300081800338A4C3E88784CD877ADA8BE SWAP16 NUMBER 0xEF 0xC7 CALLDATASIZE 0xC4 CALLVALUE PUSH6 0x2CBD9AC3FC2C LOG0 SMOD SWAP6 0xBD TSTORE 0xA9 0xE7 "},"methodIdentifiers":{"DEFAULT_ADMIN_ROLE()":"a217fddf","GAME_ADMIN_ROLE()":"be22d27d","MIN_GAME_INTERVAL()":"e84b2780","canPlayerPlay(address,uint8)":"2b446be9","computeGameHash((uint8,address,uint256,uint256,bytes32,uint256[]))":"5026f42b","disableGame(uint8)":"f010b541","enableGame(uint8)":"c2c9a884","gameEnabled(uint8)":"4ac0326e","getGameInfo(uint8)":"ce863cd8","getRoleAdmin(bytes32)":"248a9ca3","grantRole(bytes32,address)":"2f2ff15d","hasRole(bytes32,address)":"91d14854","lastPlayedTime(address,uint8)":"c54a41eb","renounceRole(bytes32,address)":"36568abe","revokeRole(bytes32,address)":"d547741f","supportsInterface(bytes4)":"01ffc9a7","verifyGameResult((uint8,address,uint256,uint256,bytes32,uint256[]))":"35c34ae9"}}}}}