{
  "_format": "hh-sol-artifact-1",
  "contractName": "GameFactory",
  "sourceName": "contracts/GameFactory.sol",
  "abi": [
    {
      "inputs": [
        {
          "internalType": "address",
          "name": "blitzTokenAddress",
          "type": "address"
        },
        {
          "internalType": "address",
          "name": "levelManagerAddress",
          "type": "address"
        }
      ],
      "stateMutability": "nonpayable",
      "type": "constructor"
    },
    {
      "inputs": [],
      "name": "AccessControlBadConfirmation",
      "type": "error"
    },
    {
      "inputs": [
        {
          "internalType": "address",
          "name": "account",
          "type": "address"
        },
        {
          "internalType": "bytes32",
          "name": "neededRole",
          "type": "bytes32"
        }
      ],
      "name": "AccessControlUnauthorizedAccount",
      "type": "error"
    },
    {
      "anonymous": false,
      "inputs": [
        {
          "indexed": true,
          "internalType": "address",
          "name": "token",
          "type": "address"
        },
        {
          "indexed": true,
          "internalType": "address",
          "name": "recipient",
          "type": "address"
        },
        {
          "indexed": false,
          "internalType": "uint256",
          "name": "amount",
          "type": "uint256"
        }
      ],
      "name": "FeesWithdrawn",
      "type": "event"
    },
    {
      "anonymous": false,
      "inputs": [
        {
          "indexed": true,
          "internalType": "address",
          "name": "game",
          "type": "address"
        },
        {
          "indexed": true,
          "internalType": "address",
          "name": "creator",
          "type": "address"
        }
      ],
      "name": "GameCreated",
      "type": "event"
    },
    {
      "anonymous": false,
      "inputs": [
        {
          "indexed": true,
          "internalType": "bytes32",
          "name": "role",
          "type": "bytes32"
        },
        {
          "indexed": true,
          "internalType": "bytes32",
          "name": "previousAdminRole",
          "type": "bytes32"
        },
        {
          "indexed": true,
          "internalType": "bytes32",
          "name": "newAdminRole",
          "type": "bytes32"
        }
      ],
      "name": "RoleAdminChanged",
      "type": "event"
    },
    {
      "anonymous": false,
      "inputs": [
        {
          "indexed": true,
          "internalType": "bytes32",
          "name": "role",
          "type": "bytes32"
        },
        {
          "indexed": true,
          "internalType": "address",
          "name": "account",
          "type": "address"
        },
        {
          "indexed": true,
          "internalType": "address",
          "name": "sender",
          "type": "address"
        }
      ],
      "name": "RoleGranted",
      "type": "event"
    },
    {
      "anonymous": false,
      "inputs": [
        {
          "indexed": true,
          "internalType": "bytes32",
          "name": "role",
          "type": "bytes32"
        },
        {
          "indexed": true,
          "internalType": "address",
          "name": "account",
          "type": "address"
        },
        {
          "indexed": true,
          "internalType": "address",
          "name": "sender",
          "type": "address"
        }
      ],
      "name": "RoleRevoked",
      "type": "event"
    },
    {
      "inputs": [],
      "name": "DEFAULT_ADMIN_ROLE",
      "outputs": [
        {
          "internalType": "bytes32",
          "name": "",
          "type": "bytes32"
        }
      ],
      "stateMutability": "view",
      "type": "function"
    },
    {
      "inputs": [],
      "name": "OWNER_ROLE",
      "outputs": [
        {
          "internalType": "bytes32",
          "name": "",
          "type": "bytes32"
        }
      ],
      "stateMutability": "view",
      "type": "function"
    },
    {
      "inputs": [
        {
          "internalType": "uint256",
          "name": "",
          "type": "uint256"
        }
      ],
      "name": "allGames",
      "outputs": [
        {
          "internalType": "address",
          "name": "",
          "type": "address"
        }
      ],
      "stateMutability": "view",
      "type": "function"
    },
    {
      "inputs": [
        {
          "components": [
            {
              "internalType": "string",
              "name": "title",
              "type": "string"
            },
            {
              "internalType": "string",
              "name": "description",
              "type": "string"
            },
            {
              "internalType": "enum Types.GameType",
              "name": "gameType",
              "type": "uint8"
            },
            {
              "internalType": "address",
              "name": "feeTokenAddress",
              "type": "address"
            },
            {
              "internalType": "uint256",
              "name": "entryFee",
              "type": "uint256"
            },
            {
              "internalType": "uint256",
              "name": "minPlayers",
              "type": "uint256"
            },
            {
              "internalType": "uint256",
              "name": "maxPlayers",
              "type": "uint256"
            },
            {
              "internalType": "uint256",
              "name": "registrationEndTime",
              "type": "uint256"
            },
            {
              "internalType": "uint256",
              "name": "gameStartTime",
              "type": "uint256"
            },
            {
              "internalType": "address",
              "name": "prizeTokenAddress",
              "type": "address"
            },
            {
              "internalType": "uint256",
              "name": "prizePool",
              "type": "uint256"
            },
            {
              "internalType": "enum Types.PrizeDistributionType",
              "name": "distributionType",
              "type": "uint8"
            },
            {
              "internalType": "uint256[]",
              "name": "rankPrizes",
              "type": "uint256[]"
            }
          ],
          "internalType": "struct Types.GameConfig",
          "name": "config",
          "type": "tuple"
        }
      ],
      "name": "createGame",
      "outputs": [
        {
          "internalType": "address",
          "name": "gameInstance",
          "type": "address"
        }
      ],
      "stateMutability": "nonpayable",
      "type": "function"
    },
    {
      "inputs": [
        {
          "internalType": "address",
          "name": "",
          "type": "address"
        }
      ],
      "name": "feeBalances",
      "outputs": [
        {
          "internalType": "uint256",
          "name": "",
          "type": "uint256"
        }
      ],
      "stateMutability": "view",
      "type": "function"
    },
    {
      "inputs": [
        {
          "internalType": "address",
          "name": "",
          "type": "address"
        },
        {
          "internalType": "uint256",
          "name": "",
          "type": "uint256"
        }
      ],
      "name": "gamesByCreator",
      "outputs": [
        {
          "internalType": "address",
          "name": "",
          "type": "address"
        }
      ],
      "stateMutability": "view",
      "type": "function"
    },
    {
      "inputs": [],
      "name": "getAllGames",
      "outputs": [
        {
          "internalType": "address[]",
          "name": "",
          "type": "address[]"
        }
      ],
      "stateMutability": "view",
      "type": "function"
    },
    {
      "inputs": [
        {
          "internalType": "uint256",
          "name": "begin",
          "type": "uint256"
        },
        {
          "internalType": "uint256",
          "name": "count",
          "type": "uint256"
        }
      ],
      "name": "getPartofGames",
      "outputs": [
        {
          "internalType": "address[]",
          "name": "",
          "type": "address[]"
        }
      ],
      "stateMutability": "view",
      "type": "function"
    },
    {
      "inputs": [
        {
          "internalType": "bytes32",
          "name": "role",
          "type": "bytes32"
        }
      ],
      "name": "getRoleAdmin",
      "outputs": [
        {
          "internalType": "bytes32",
          "name": "",
          "type": "bytes32"
        }
      ],
      "stateMutability": "view",
      "type": "function"
    },
    {
      "inputs": [],
      "name": "getTotalGames",
      "outputs": [
        {
          "internalType": "uint256",
          "name": "",
          "type": "uint256"
        }
      ],
      "stateMutability": "view",
      "type": "function"
    },
    {
      "inputs": [
        {
          "internalType": "bytes32",
          "name": "role",
          "type": "bytes32"
        },
        {
          "internalType": "address",
          "name": "account",
          "type": "address"
        }
      ],
      "name": "grantRole",
      "outputs": [],
      "stateMutability": "nonpayable",
      "type": "function"
    },
    {
      "inputs": [
        {
          "internalType": "bytes32",
          "name": "role",
          "type": "bytes32"
        },
        {
          "internalType": "address",
          "name": "account",
          "type": "address"
        }
      ],
      "name": "hasRole",
      "outputs": [
        {
          "internalType": "bool",
          "name": "",
          "type": "bool"
        }
      ],
      "stateMutability": "view",
      "type": "function"
    },
    {
      "inputs": [
        {
          "internalType": "bytes32",
          "name": "role",
          "type": "bytes32"
        },
        {
          "internalType": "address",
          "name": "callerConfirmation",
          "type": "address"
        }
      ],
      "name": "renounceRole",
      "outputs": [],
      "stateMutability": "nonpayable",
      "type": "function"
    },
    {
      "inputs": [
        {
          "internalType": "bytes32",
          "name": "role",
          "type": "bytes32"
        },
        {
          "internalType": "address",
          "name": "account",
          "type": "address"
        }
      ],
      "name": "revokeRole",
      "outputs": [],
      "stateMutability": "nonpayable",
      "type": "function"
    },
    {
      "inputs": [
        {
          "internalType": "bytes4",
          "name": "interfaceId",
          "type": "bytes4"
        }
      ],
      "name": "supportsInterface",
      "outputs": [
        {
          "internalType": "bool",
          "name": "",
          "type": "bool"
        }
      ],
      "stateMutability": "view",
      "type": "function"
    },
    {
      "inputs": [
        {
          "internalType": "address",
          "name": "tokenAddress",
          "type": "address"
        }
      ],
      "name": "withdrawFees",
      "outputs": [],
      "stateMutability": "nonpayable",
      "type": "function"
    }
  ],
  "bytecode": "0x60c06040523480156200001157600080fd5b50604051620056b0380380620056b08339810160408190526200003491620001ac565b6001600160a01b03808316608052811660a0526200005460003362000095565b5062000070600080516020620056908339815191523362000095565b506200008d60008051602062005690833981519152600062000144565b5050620001e4565b6000828152602081815260408083206001600160a01b038516845290915281205460ff166200013a576000838152602081815260408083206001600160a01b03861684529091529020805460ff19166001179055620000f13390565b6001600160a01b0316826001600160a01b0316847f2f8788117e7eff1d82e926ec794901d17c78024a50270940304540a733656f0d60405160405180910390a45060016200013e565b5060005b92915050565b600082815260208190526040808220600101805490849055905190918391839186917fbd79b86ffe0ab8e8776151514217cd7cacd52c909f66475c3af44e129f0b00ff9190a4505050565b80516001600160a01b0381168114620001a757600080fd5b919050565b60008060408385031215620001c057600080fd5b620001cb836200018f565b9150620001db602084016200018f565b90509250929050565b60805160a0516154826200020e6000396000818161086501526109af0152600050506154826000f3fe608060405234801561001057600080fd5b50600436106101005760003560e01c80636cebbd4a11610097578063d1e7bff411610066578063d1e7bff41461023a578063d547741f1461024d578063db1c45f914610260578063e58378bb1461026857600080fd5b80636cebbd4a146101ec57806391d148541461020c578063a0b550951461021f578063a217fddf1461023257600080fd5b806332906257116100d3578063329062571461018657806336568abe146101b157806353afc025146101c45780635bd4349b146101e457600080fd5b806301ffc9a714610105578063164e68de1461012d578063248a9ca3146101425780632f2ff15d14610173575b600080fd5b610118610113366004610cfc565b61028f565b60405190151581526020015b60405180910390f35b61014061013b366004610d49565b6102c6565b005b610165610150366004610d64565b60009081526020819052604090206001015490565b604051908152602001610124565b610140610181366004610d7d565b610448565b610199610194366004610da9565b610473565b6040516001600160a01b039091168152602001610124565b6101406101bf366004610d7d565b6104ab565b6101656101d2366004610d49565b60036020526000908152604090205481565b600154610165565b6101ff6101fa366004610dd3565b6104e3565b6040516101249190610df5565b61011861021a366004610d7d565b610637565b61019961022d366004610d64565b610660565b610165600081565b610199610248366004610fc1565b61068a565b61014061025b366004610d7d565b610b21565b6101ff610b46565b6101657fb19546dff01e856fb3f010c267a7b1c60363cf8a4664e21cc89c26224620214e81565b60006001600160e01b03198216637965db0b60e01b14806102c057506301ffc9a760e01b6001600160e01b03198316145b92915050565b7fb19546dff01e856fb3f010c267a7b1c60363cf8a4664e21cc89c26224620214e6102f081610ba8565b6001600160a01b038216600090815260036020526040902054806103665760405162461bcd60e51b815260206004820152602260248201527f4e6f206665657320746f20776974686472617720666f72207468697320746f6b60448201526132b760f11b60648201526084015b60405180910390fd5b6001600160a01b038316600081815260036020526040808220919091555163a9059cbb60e01b81523360048201526024810183905263a9059cbb906044016020604051808303816000875af11580156103c3573d6000803e3d6000fd5b505050506040513d601f19601f820116820180604052508101906103e79190611100565b6104035760405162461bcd60e51b815260040161035d90611122565b60405181815233906001600160a01b038516907f5e110f8bc8a20b65dcc87f224bdf1cc039346e267118bae2739847f07321ffa89060200160405180910390a3505050565b60008281526020819052604090206001015461046381610ba8565b61046d8383610bb5565b50505050565b6002602052816000526040600020818154811061048f57600080fd5b6000918252602090912001546001600160a01b03169150829050565b6001600160a01b03811633146104d45760405163334bd91960e11b815260040160405180910390fd5b6104de8282610c47565b505050565b60015460609083106105435760405162461bcd60e51b815260206004820152602360248201527f496e76616c696420737461727420696e64657820286f7574206f6620626f756e60448201526264732960e81b606482015260840161035d565b600061054f8385611161565b60015490915081111561056157506001545b600061056d8583611174565b905060008167ffffffffffffffff81111561058a5761058a610e42565b6040519080825280602002602001820160405280156105b3578160200160208202803683370190505b50905060005b8281101561062d5760016105cd8289611161565b815481106105dd576105dd611187565b9060005260206000200160009054906101000a90046001600160a01b031682828151811061060d5761060d611187565b6001600160a01b03909216602092830291909101909101526001016105b9565b5095945050505050565b6000918252602082815260408084206001600160a01b0393909316845291905290205460ff1690565b6001818154811061067057600080fd5b6000918252602090912001546001600160a01b0316905081565b610140810151610120820151604051636eb1769f60e11b8152336004820152306024820152600092916001600160a01b03169063dd62ed3e90604401602060405180830381865afa1580156106e3573d6000803e3d6000fd5b505050506040513d601f19601f82011682018060405250810190610707919061119d565b101561076b5760405162461bcd60e51b815260206004820152602d60248201527f466163746f7279206e6f7420617070726f76656420666f72207072697a65207460448201526c37b5b2b7103a3930b739b332b960991b606482015260840161035d565b6101208201516101408301516040516323b872dd60e01b815233600482015230602482015260448101919091526001600160a01b03909116906323b872dd906064016020604051808303816000875af11580156107cc573d6000803e3d6000fd5b505050506040513d601f19601f820116820180604052508101906107f09190611100565b61080c5760405162461bcd60e51b815260040161035d90611122565b600060405161081a90610cef565b604051809103906000f080158015610836573d6000803e3d6000fd5b506040516312f5cdb760e31b81529092508291506001600160a01b038216906397ae6db89061088f90869033907f0000000000000000000000000000000000000000000000000000000000000000903090600401611272565b600060405180830381600087803b1580156108a957600080fd5b505af11580156108bd573d6000803e3d6000fd5b50505050610140830151156109685761012083015161014084015160405163a9059cbb60e01b81526001600160a01b038581166004830152602482019290925291169063a9059cbb906044016020604051808303816000875af1158015610928573d6000803e3d6000fd5b505050506040513d601f19601f8201168201806040525081019061094c9190611100565b6109685760405162461bcd60e51b815260040161035d90611122565b604051632f2ff15d60e01b81527f6a64baf327d646d1bca72653e2a075d15fd6ac6d8cbd7f6ee03fc55875e0fa88600482018190526001600160a01b0384811660248401527f00000000000000000000000000000000000000000000000000000000000000009290831690632f2ff15d90604401600060405180830381600087803b1580156109f657600080fd5b505af1158015610a0a573d6000803e3d6000fd5b50506001805480820182557fb10e2d527612073b26eecdfd717e6a320cf44b4afac2b0732d9fcbe2b7fa0cf60180546001600160a01b03199081166001600160a01b038a8116918217909355336000818152600260209081526040808320805498890181558352912090950180549093169091179091559151632ff1a96760e11b81526004810192909252674563918244f40000602483015285169250635fe352ce9150604401600060405180830381600087803b158015610acb57600080fd5b505af1158015610adf573d6000803e3d6000fd5b50506040513392506001600160a01b03871691507fb60d84e37a6658effce28870b1d123cb86f86409df5888679310c0f276e1f5d290600090a3505050919050565b600082815260208190526040902060010154610b3c81610ba8565b61046d8383610c47565b60606001805480602002602001604051908101604052809291908181526020018280548015610b9e57602002820191906000526020600020905b81546001600160a01b03168152600190910190602001808311610b80575b5050505050905090565b610bb28133610cb2565b50565b6000610bc18383610637565b610c3f576000838152602081815260408083206001600160a01b03861684529091529020805460ff19166001179055610bf73390565b6001600160a01b0316826001600160a01b0316847f2f8788117e7eff1d82e926ec794901d17c78024a50270940304540a733656f0d60405160405180910390a45060016102c0565b5060006102c0565b6000610c538383610637565b15610c3f576000838152602081815260408083206001600160a01b0386168085529252808320805460ff1916905551339286917ff6391f5c32d9c69d2a47ea670b442974b53935d1edc7fd64eb21e047a839171b9190a45060016102c0565b610cbc8282610637565b610ceb5760405163e2517d3f60e01b81526001600160a01b03821660048201526024810183905260440161035d565b5050565b614096806113b783390190565b600060208284031215610d0e57600080fd5b81356001600160e01b031981168114610d2657600080fd5b9392505050565b80356001600160a01b0381168114610d4457600080fd5b919050565b600060208284031215610d5b57600080fd5b610d2682610d2d565b600060208284031215610d7657600080fd5b5035919050565b60008060408385031215610d9057600080fd5b82359150610da060208401610d2d565b90509250929050565b60008060408385031215610dbc57600080fd5b610dc583610d2d565b946020939093013593505050565b60008060408385031215610de657600080fd5b50508035926020909101359150565b6020808252825182820181905260009190848201906040850190845b81811015610e365783516001600160a01b031683529284019291840191600101610e11565b50909695505050505050565b634e487b7160e01b600052604160045260246000fd5b6040516101a0810167ffffffffffffffff81118282101715610e7c57610e7c610e42565b60405290565b604051601f8201601f1916810167ffffffffffffffff81118282101715610eab57610eab610e42565b604052919050565b600082601f830112610ec457600080fd5b813567ffffffffffffffff811115610ede57610ede610e42565b610ef1601f8201601f1916602001610e82565b818152846020838601011115610f0657600080fd5b816020850160208301376000918101602001919091529392505050565b803560058110610d4457600080fd5b803560038110610d4457600080fd5b600082601f830112610f5257600080fd5b8135602067ffffffffffffffff821115610f6e57610f6e610e42565b8160051b610f7d828201610e82565b9283528481018201928281019087851115610f9757600080fd5b83870192505b84831015610fb657823582529183019190830190610f9d565b979650505050505050565b600060208284031215610fd357600080fd5b813567ffffffffffffffff80821115610feb57600080fd5b908301906101a0828603121561100057600080fd5b611008610e58565b82358281111561101757600080fd5b61102387828601610eb3565b82525060208301358281111561103857600080fd5b61104487828601610eb3565b60208301525061105660408401610f23565b604082015261106760608401610d2d565b60608201526080830135608082015260a083013560a082015260c083013560c082015260e083013560e08201526101008084013581830152506101206110ae818501610d2d565b9082015261014083810135908201526101606110cb818501610f32565b9082015261018083810135838111156110e357600080fd5b6110ef88828701610f41565b918301919091525095945050505050565b60006020828403121561111257600080fd5b81518015158114610d2657600080fd5b6020808252600f908201526e151c985b9cd9995c8819985a5b1959608a1b604082015260600190565b634e487b7160e01b600052601160045260246000fd5b808201808211156102c0576102c061114b565b818103818111156102c0576102c061114b565b634e487b7160e01b600052603260045260246000fd5b6000602082840312156111af57600080fd5b5051919050565b6000815180845260005b818110156111dc576020818501810151868301820152016111c0565b506000602082860101526020601f19601f83011685010191505092915050565b634e487b7160e01b600052602160045260246000fd5b60058110611222576112226111fc565b9052565b60038110611222576112226111fc565b60008151808452602080850194506020840160005b838110156112675781518752958201959082019060010161124b565b509495945050505050565b60808152600085516101a08060808501526112916102208501836111b6565b91506020880151607f19808685030160a08701526112af84836111b6565b935060408a015191506112c560c0870183611212565b60608a01516001600160a01b03811660e0880152915060808a01516101008781019190915260a08b01516101208089019190915260c08c0151610140808a019190915260e08d0151610160808b0191909152928d0151610180808b0191909152828e01516001600160a01b038116888c0152955092908d01516101c08a01528c0151945061135990506101e0880185611226565b8a0151868503909101610200870152915061137690508282611236565b9250505061138f60208301866001600160a01b03169052565b6001600160a01b03841660408301526001600160a01b03831660608301529594505050505056fe608060405234801561001057600080fd5b50614076806100206000396000f3fe608060405234801561001057600080fd5b50600436106102a05760003560e01c80638233e43311610167578063bbdc02db116100ce578063da09075511610087578063da0907551461060d578063dd898b2f14610625578063dff7d2c714610638578063e085c53914610641578063e5a078a71461066a578063f71d96cb1461067257600080fd5b8063bbdc02db146105c2578063d0ef024a146105cf578063d4f77b1c146105e2578063d547741f146105ea578063d65ab5f2146105fd578063d84c1ac91461060557600080fd5b8063a217fddf11610120578063a217fddf14610557578063a2fb11751461055f578063af4e99de14610572578063aff0b29714610587578063b062e9501461059a578063b5545a3c146105ba57600080fd5b80638233e433146104dc57806384da242d146104ef57806385bfd47c146105095780638aeda25a1461051c57806391d148541461053157806397ae6db81461054457600080fd5b80633b2370ac1161020b578063647846a5116101c4578063647846a51461048157806370740ac91461049457806370824c5c1461049c578063719ce73e146104c35780637284e416146104cc57806377b6e504146104d457600080fd5b80633b2370ac14610411578063445e6b391461041a5780634a79d50c1461042d5780634c2412a214610442578063554c925c1461044b5780635e6a43f51461045e57600080fd5b8063200d2ed21161025d578063200d2ed214610390578063248a9ca3146103aa5780632770c895146103cd5780632a8d950c146103d65780632f2ff15d146103e957806336568abe146103fe57600080fd5b806301ffc9a7146102a55780630252b995146102cd57806302d05d3f146102e4578063072ea61c1461030f578063140d6b94146103185780631d75d7c214610338575b600080fd5b6102b86102b336600461333b565b610693565b60405190151581526020015b60405180910390f35b6102d6600b5481565b6040519081526020016102c4565b6004546102f7906001600160a01b031681565b6040516001600160a01b0390911681526020016102c4565b6102d6600d5481565b61032b610326366004613391565b6106ca565b6040516102c491906133e1565b61037f610346366004613391565b601960205260009081526040902080546001820154600283015460039093015460ff8316936101009093046001600160a01b0316929085565b6040516102c4959493929190613479565b60155461039d9060ff1681565b6040516102c491906134b0565b6102d66103b83660046134c3565b60009081526020819052604090206001015490565b6102d660085481565b6002546102f7906001600160a01b031681565b6103fc6103f73660046134dc565b61080c565b005b6103fc61040c3660046134dc565b610837565b6102d660115481565b6103fc61042836600461350c565b61086f565b6104356109c7565b6040516102c491906135c7565b6102d660095481565b6103fc6104593660046135da565b610a55565b6102b861046c366004613391565b60176020526000908152604090205460ff1681565b600c546102f7906001600160a01b031681565b6103fc610d8b565b6102d67f797343f8d6a29aafeb3aaf0910a8973e0081c60c2f6c1f775cd9f76ea348fc1e81565b6102d660105481565b610435610ebb565b6103fc610ec8565b6102d66104ea3660046134c3565b61163a565b6012546104fc9060ff1681565b6040516102c49190613615565b6003546102f7906001600160a01b031681565b6102d660008051602061402183398151915281565b6102b861053f3660046134dc565b61165b565b6103fc6105523660046137b1565b611684565b6102d6600081565b6102f761056d3660046134c3565b611aae565b61057a611ad8565b6040516102c49190613922565b6103fc6105953660046134c3565b611cd3565b6102d66105a8366004613391565b60146020526000908152604090205481565b6103fc611deb565b60075461039d9060ff1681565b600f546102f7906001600160a01b031681565b6103fc611f6a565b6103fc6105f83660046134dc565b612409565b6103fc61242e565b6103fc61284b565b6001546102f79061010090046001600160a01b031681565b6103fc610633366004613391565b612ba3565b6102d6600a5481565b6102d661064f366004613391565b6001600160a01b031660009081526018602052604090205490565b6103fc612c2d565b6106856106803660046134c3565b61303f565b6040516102c4929190613a28565b60006001600160e01b03198216637965db0b60e01b14806106c457506301ffc9a760e01b6001600160e01b03198316145b92915050565b6107106040805160c08101909152806000815260200160006001600160a01b03168152602001600081526020016000815260200160008019168152602001606081525090565b6001600160a01b03821660009081526019602052604090819020815160c081019092528054829060ff16600481111561074b5761074b6133ae565b600481111561075c5761075c6133ae565b81526020016000820160019054906101000a90046001600160a01b03166001600160a01b03166001600160a01b03168152602001600182015481526020016002820154815260200160038201548152602001600482018054806020026020016040519081016040528092919081815260200182805480156107fc57602002820191906000526020600020905b8154815260200190600101908083116107e8575b5050505050815250509050919050565b60008281526020819052604090206001015461082781613077565b6108318383613081565b50505050565b6001600160a01b03811633146108605760405163334bd91960e11b815260040160405180910390fd5b61086a8282613113565b505050565b60008051602061402183398151915261088781613077565b600160155460ff1660048111156108a0576108a06133ae565b146108c65760405162461bcd60e51b81526004016108bd90613a41565b60405180910390fd5b60005b8281101561096d57601760008585848181106108e7576108e7613a6b565b90506020020160208101906108fc9190613391565b6001600160a01b0316815260208101919091526040016000205460ff166109655760405162461bcd60e51b815260206004820152601860248201527f54686572652069732077696e6e6572206e6f74206a6f696e000000000000000060448201526064016108bd565b6001016108c9565b5061097a601a84846131f4565b506015805460ff191660021790556040517f8451dabc49a0b82cffb0a79a6771fe2718264aae54a4eff4d4463748813ec56f906109ba9085908590613a81565b60405180910390a1505050565b600580546109d490613ac4565b80601f0160208091040260200160405190810160405280929190818152602001828054610a0090613ac4565b8015610a4d5780601f10610a2257610100808354040283529160200191610a4d565b820191906000526020600020905b815481529060010190602001808311610a3057829003601f168201915b505050505081565b600160155460ff166004811115610a6e57610a6e6133ae565b14610a8b5760405162461bcd60e51b81526004016108bd90613a41565b600b54421015610ad85760405162461bcd60e51b815260206004820152601860248201527711d85b59481a185cc81b9bdd081cdd185c9d1959081e595d60421b60448201526064016108bd565b3360009081526017602052604090205460ff16610b2b5760405162461bcd60e51b8152602060048201526011602482015270141b185e595c881b9bdd081a9bda5b9959607a1b60448201526064016108bd565b60075460ff166004811115610b4257610b426133ae565b610b4f6020830183613afe565b6004811115610b6057610b606133ae565b14610ba25760405162461bcd60e51b815260206004820152601260248201527108ec2daca40e8f2e0ca40dad2e6dac2e8c6d60731b60448201526064016108bd565b33610bb36040830160208401613391565b6001600160a01b031614610c095760405162461bcd60e51b815260206004820152601760248201527f506c617965722061646472657373206d69736d6174636800000000000000000060448201526064016108bd565b60015461010090046001600160a01b0316610c5d5760405162461bcd60e51b815260206004820152601460248201527311d85b59549959da5cdd1c9e481b9bdd081cd95d60621b60448201526064016108bd565b6001546040516335c34ae960e01b81526101009091046001600160a01b03169060009082906335c34ae990610c96908690600401613b4d565b6020604051808303816000875af1158015610cb5573d6000803e3d6000fd5b505050506040513d601f19601f82011682018060405250810190610cd99190613c0c565b905080610d285760405162461bcd60e51b815260206004820152601f60248201527f47616d6520726573756c7420766572696669636174696f6e206661696c65640060448201526064016108bd565b336000908152601860209081526040808320818701359055601990915290208390610d538282613d4a565b9050507fa578df9b0453d14d7ed8615ee0e9d58f70e041e91fc5865e3b71f81ea05296c03384604001356040516109ba929190613a28565b3360009081526014602052604090205480610ddc5760405162461bcd60e51b81526020600482015260116024820152704e6f207072697a6520746f20636c61696d60781b60448201526064016108bd565b3360008181526014602052604080822091909155600f54905163a9059cbb60e01b81526001600160a01b039091169163a9059cbb91610e2091908590600401613a28565b6020604051808303816000875af1158015610e3f573d6000803e3d6000fd5b505050506040513d601f19601f82011682018060405250810190610e639190613c0c565b610e7f5760405162461bcd60e51b81526004016108bd90613dd9565b7fb8e091d87f82e56d22276c9a0088ea5d6068e355383dc08b2721b7b6cb10e8453382604051610eb0929190613a28565b60405180910390a150565b600680546109d490613ac4565b600080516020614021833981519152610ee081613077565b600260155460ff166004811115610ef957610ef96133ae565b14610f375760405162461bcd60e51b815260206004820152600e60248201526d11d85b59481b9bdd08195b99195960921b60448201526064016108bd565b601a54610f775760405162461bcd60e51b815260206004820152600e60248201526d139bc81dda5b9b995c9cc81cd95d60921b60448201526064016108bd565b600060105411610fbf5760405162461bcd60e51b81526020600482015260136024820152725072697a6520706f6f6c20697320656d70747960681b60448201526064016108bd565b6010805460009182905560025490916001600160a01b039091169060125460ff166002811115610ff157610ff16133ae565b036110f5578160146000601a60008154811061100f5761100f613a6b565b60009182526020808320909101546001600160a01b0316835282019290925260400181208054909190611043908490613e02565b90915550506002546001600160a01b0316156110f057806001600160a01b0316635fe352ce601a60008154811061107c5761107c613a6b565b6000918252602090912001546040516001600160e01b031960e084901b1681526110bd916001600160a01b0316906801158e460913d0000090600401613a28565b600060405180830381600087803b1580156110d757600080fd5b505af11580156110eb573d6000803e3d6000fd5b505050505b611628565b600160125460ff16600281111561110e5761110e6133ae565b0361125f5760165460006111228285613e2b565b905060006111308386613e3f565b905060005b838110156111a157600083905080601460006016858154811061115a5761115a613a6b565b600091825260208083206002909202909101546001600160a01b0316835282019290925260400181208054909190611193908490613e02565b909155505050600101611135565b50600f546004805460405163a9059cbb60e01b81526001600160a01b039384169363a9059cbb936111d89390911691869101613a28565b6020604051808303816000875af11580156111f7573d6000803e3d6000fd5b505050506040513d601f19601f8201168201806040525081019061121b9190613c0c565b6112575760405162461bcd60e51b815260206004820152600d60248201526c1499599d5b990819985a5b1959609a1b60448201526064016108bd565b505050611628565b600260125460ff166002811115611278576112786133ae565b0361162857601354601a5411156112e75760405162461bcd60e51b815260206004820152602d60248201527f57696e6e657273206c69737420657863656564732072616e6b207072697a652060448201526c31b7b73334b3bab930ba34b7b760991b60648201526084016108bd565b6000805b601a5481101561137c5760006013828154811061130a5761130a613a6b565b90600052602060002001549050600081116113675760405162461bcd60e51b815260206004820152601d60248201527f4d697373696e67207072697a6520636f6e66696720666f722072616e6b00000060448201526064016108bd565b6113718184613e02565b9250506001016112eb565b506127108111156113c85760405162461bcd60e51b81526020600482015260166024820152755072697a65204250532065786365656473203130302560501b60448201526064016108bd565b60005b601a54811015611625576000601382815481106113ea576113ea613a6b565b600091825260208220015491506127106114048388613c95565b61140e9190613e2b565b90508060146000601a868154811061142857611428613a6b565b60009182526020808320909101546001600160a01b031683528201929092526040018120805490919061145c908490613e02565b90915550506002546001600160a01b03161561161b578260000361151457846001600160a01b0316635fe352ce601a858154811061149c5761149c613a6b565b6000918252602090912001546040516001600160e01b031960e084901b1681526114dd916001600160a01b0316906801158e460913d0000090600401613a28565b600060405180830381600087803b1580156114f757600080fd5b505af115801561150b573d6000803e3d6000fd5b5050505061161b565b8260010361157e57846001600160a01b0316635fe352ce601a858154811061153e5761153e613a6b565b6000918252602090912001546040516001600160e01b031960e084901b1681526114dd916001600160a01b031690678ac7230489e8000090600401613a28565b8260020361161b57846001600160a01b0316635fe352ce601a85815481106115a8576115a8613a6b565b6000918252602090912001546040516001600160e01b031960e084901b1681526115e8916001600160a01b031690674563918244f4000090600401613a28565b600060405180830381600087803b15801561160257600080fd5b505af1158015611616573d6000803e3d6000fd5b505050505b50506001016113cb565b50505b50506015805460ff1916600317905550565b6013818154811061164a57600080fd5b600091825260209091200154905081565b6000918252602082815260408084206001600160a01b0393909316845291905290205460ff1690565b60015460ff16156116cd5760405162461bcd60e51b8152602060048201526013602482015272105b1c9958591e481a5b9a5d1a585b1a5e9959606a1b60448201526064016108bd565b6001805460ff191681179055600280546001600160a01b038085166001600160a01b031992831617909255600380549284169290911691909117905560e0840151421061175c5760405162461bcd60e51b815260206004820152601960248201527f52656720656e64206d75737420626520696e206675747572650000000000000060448201526064016108bd565b8360e0015184610100015110156117b55760405162461bcd60e51b815260206004820152601e60248201527f47616d65206d7573742073746172742061667465722072656720656e6473000060448201526064016108bd565b8360a001518460c0015110156118025760405162461bcd60e51b815260206004820152601260248201527126b0bc1036bab9ba103132901f1e9026b4b760711b60448201526064016108bd565b600480546001600160a01b0319166001600160a01b038516179055835160059061182c9082613e93565b50602084015160069061183f9082613e93565b506015805460ff199081169091556040850151600780549192909116600183600481111561186f5761186f6133ae565b02179055506060840151600c80546001600160a01b039283166001600160a01b0319918216179091556080860151600d5560a086015160085560c086015160095560e0860151600a55610100860151600b55610120860151600f805491909316911617905561014084015160108190556011556101608401516012805460ff19166001836002811115611904576119046133ae565b0217905550610180840151805161192391601391602090910190613257565b506002846101600151600281111561193d5761193d6133ae565b03611a3057610180840151516013546119985760405162461bcd60e51b815260206004820152601f60248201527f437573746f6d2072616e6b20636f6e66696720666f726d6174206572726f720060448201526064016108bd565b6000805b828110156119e157601381815481106119b7576119b7613a6b565b9060005260206000200154826119cd9190613e02565b91506119da600182613e02565b905061199c565b50612710811115611a2d5760405162461bcd60e51b81526020600482015260166024820152755072697a65204250532065786365656473203130302560501b60448201526064016108bd565b50505b611a3b600084613081565b50611a5460008051602061402183398151915284613081565b50611a6e600080516020614021833981519152600061317e565b7fc66e6cd41f805f65978f5241034e8d106c42cf3c7a4d62ccd857646b401cbe4a836005604051611aa0929190613f57565b60405180910390a150505050565b601a8181548110611abe57600080fd5b6000918252602090912001546001600160a01b0316905081565b611ae0613292565b611ae8613292565b6004546001600160a01b0316815260058054611b0390613ac4565b80601f0160208091040260200160405190810160405280929190818152602001828054611b2f90613ac4565b8015611b7c5780601f10611b5157610100808354040283529160200191611b7c565b820191906000526020600020905b815481529060010190602001808311611b5f57829003601f168201915b5050505050816020018190525060068054611b9690613ac4565b80601f0160208091040260200160405190810160405280929190818152602001828054611bc290613ac4565b8015611c0f5780601f10611be457610100808354040283529160200191611c0f565b820191906000526020600020905b815481529060010190602001808311611bf257829003601f168201915b50505050506040820152601554606082019060ff166004811115611c3557611c356133ae565b90816004811115611c4857611c486133ae565b905250600754608082019060ff166004811115611c6757611c676133ae565b90816004811115611c7a57611c7a6133ae565b90525060095460a082015260165460c0820152600a5460e0820152600b54610100820152600d54610140820152600c546001600160a01b03908116610120830152601054610180830152600f5416610160820152919050565b600160155460ff166004811115611cec57611cec6133ae565b14611d095760405162461bcd60e51b81526004016108bd90613a41565b600b54421015611d565760405162461bcd60e51b815260206004820152601860248201527711d85b59481a185cc81b9bdd081cdd185c9d1959081e595d60421b60448201526064016108bd565b3360009081526017602052604090205460ff16611da95760405162461bcd60e51b8152602060048201526011602482015270141b185e595c881b9bdd081a9bda5b9959607a1b60448201526064016108bd565b3360008181526018602052604090819020839055517fa578df9b0453d14d7ed8615ee0e9d58f70e041e91fc5865e3b71f81ea05296c091610eb0918490613a28565b600460155460ff166004811115611e0457611e046133ae565b14611e455760405162461bcd60e51b815260206004820152601160248201527011d85b59481b9bdd0818d85b98d95b1959607a1b60448201526064016108bd565b336000908152600e602052604090205480611e965760405162461bcd60e51b81526020600482015260116024820152704e6f207072697a6520746f20636c61696d60781b60448201526064016108bd565b336000818152600e602052604080822091909155600c54905163a9059cbb60e01b81526001600160a01b039091169163a9059cbb91611eda91908590600401613a28565b6020604051808303816000875af1158015611ef9573d6000803e3d6000fd5b505050506040513d601f19601f82011682018060405250810190611f1d9190613c0c565b611f395760405162461bcd60e51b81526004016108bd90613dd9565b7feb4706597fb7a2e8806c0e31ad4c334330a97bc3cae6b9c360e152c922bb40c83382604051610eb0929190613a28565b600060155460ff166004811115611f8357611f836133ae565b14611fd05760405162461bcd60e51b815260206004820152601a60248201527f47616d65206e6f7420616363657074696e6720706c617965727300000000000060448201526064016108bd565b600a5442106120215760405162461bcd60e51b815260206004820152601860248201527f526567697374726174696f6e2074696d6520706173736564000000000000000060448201526064016108bd565b6009546016541061206a5760405162461bcd60e51b815260206004820152601360248201527213585e081c1b185e595c9cc81c995858da1959606a1b60448201526064016108bd565b3360009081526017602052604090205460ff16156120bb5760405162461bcd60e51b815260206004820152600e60248201526d105b1c9958591e481a9bda5b995960921b60448201526064016108bd565b600d54156122a857600c54600d546040516323b872dd60e01b815233600482015230602482015260448101919091526001600160a01b03909116906323b872dd906064016020604051808303816000875af115801561211e573d6000803e3d6000fd5b505050506040513d601f19601f820116820180604052508101906121429190613c0c565b61215e5760405162461bcd60e51b81526004016108bd90613dd9565b6000612710600d546103e86121739190613c95565b61217d9190613e2b565b9050600081600d5461218f9190613ff7565b90506000821180156121ab57506003546001600160a01b031615155b1561227557600c5460035460405163a9059cbb60e01b81526001600160a01b039283169263a9059cbb926121e6929116908690600401613a28565b6020604051808303816000875af1158015612205573d6000803e3d6000fd5b505050506040513d601f19601f820116820180604052508101906122299190613c0c565b6122755760405162461bcd60e51b815260206004820152601c60248201527f506c6174666f726d20666565207472616e73666572206661696c65640000000060448201526064016108bd565b600f54600c546001600160a01b039182169116036122a557806010600082825461229f9190613e02565b90915550505b50505b6040805180820182523380825260006020808401828152601680546001808201835591855295517fd833147d7dc355ba459fc788f669e58cfaf9dc25ddcd0702e87d69c7b5124289600297880290810180546001600160a01b0319166001600160a01b0393841617905592517fd833147d7dc355ba459fc788f669e58cfaf9dc25ddcd0702e87d69c7b512428a90930192909255600d54948452600e8352868420949094556017909152939020805460ff191690911790555416156123d457600254604051632ff1a96760e11b81526001600160a01b0390911690635fe352ce906123a19033906729a2241af62c000090600401613a28565b600060405180830381600087803b1580156123bb57600080fd5b505af11580156123cf573d6000803e3d6000fd5b505050505b6040513381527f31e760aa525306aba638a784082a013b6a1cc0a9a1789f3f22281c0453b10b1f9060200160405180910390a1565b60008281526020819052604090206001015461242481613077565b6108318383613113565b60008051602061402183398151915261244681613077565b600060155460ff16600481111561245f5761245f6133ae565b146124ac5760405162461bcd60e51b815260206004820152601a60248201527f47616d65206e6f7420696e20437265617465642073746174757300000000000060448201526064016108bd565b600a544210156124fe5760405162461bcd60e51b815260206004820152601c60248201527f526567697374726174696f6e206973206e6f74206f766572207965740000000060448201526064016108bd565b6008546016541015612811576015805460ff191660041790556011541561263b57600f546004805460115460405163a9059cbb60e01b81526001600160a01b039485169463a9059cbb9461255794909116929101613a28565b6020604051808303816000875af1158015612576573d6000803e3d6000fd5b505050506040513d601f19601f8201168201806040525081019061259a9190613c0c565b6125dc5760405162461bcd60e51b8152602060048201526013602482015272141c9a5e99481c99599d5b990819985a5b1959606a1b60448201526064016108bd565b601154601060008282546125f09190613ff7565b90915550506004546011546040519081526001600160a01b03909116907fcabd9ffa4ff52290e56c52a9ed671760a0e5951eaa234fd9e0ccccf507bf98ca9060200160405180910390a25b60005b60165481101561280d5760006016828154811061265d5761265d613a6b565b600091825260208083206002909202909101546001600160a01b0316808352600e9091526040909120549091508015612803576001600160a01b0382166000908152600e602052604081208190556127106126ba83612328613c95565b6126c49190613e2b565b9050801561280157600c5460405163a9059cbb60e01b81526001600160a01b039091169063a9059cbb906126fe9086908590600401613a28565b6020604051808303816000875af115801561271d573d6000803e3d6000fd5b505050506040513d601f19601f820116820180604052508101906127419190613c0c565b61278d5760405162461bcd60e51b815260206004820152601760248201527f456e7472792066656520726566756e64206661696c656400000000000000000060448201526064016108bd565b600f54600c546001600160a01b039182169116036127bd5780601060008282546127b79190613ff7565b90915550505b826001600160a01b03167fbddaec5e3db6d33ac9b0043f3c92cf3d081b19f8646f372eb3a68a51e273a104826040516127f891815260200190565b60405180910390a25b505b505060010161263e565b5050565b6015805460ff191660011790556040517f762f260439bb4be3ef6e4dc2786e2e7bd187d3d80b79057d7a424fe98563e33590600090a15b50565b60008051602061402183398151915261286381613077565b600060155460ff16600481111561287c5761287c6133ae565b148061289e5750600160155460ff16600481111561289c5761289c6133ae565b145b6128fd5760405162461bcd60e51b815260206004820152602a60248201527f43616e6e6f742063616e63656c20616e20656e646564206f722064697374726960448201526962757465642067616d6560b01b60648201526084016108bd565b6010805460009091556015805460ff191660041790558015612a1757600f546004805460405163a9059cbb60e01b81526001600160a01b039384169363a9059cbb9361294f9390911691869101613a28565b6020604051808303816000875af115801561296e573d6000803e3d6000fd5b505050506040513d601f19601f820116820180604052508101906129929190613c0c565b6129d45760405162461bcd60e51b8152602060048201526013602482015272141c9a5e99481c99599d5b990819985a5b1959606a1b60448201526064016108bd565b6004546040518281526001600160a01b03909116907fcabd9ffa4ff52290e56c52a9ed671760a0e5951eaa234fd9e0ccccf507bf98ca9060200160405180910390a25b60005b60165481101561086a57600060168281548110612a3957612a39613a6b565b600091825260208083206002909202909101546001600160a01b0316808352600e9091526040909120549091508015612b99576001600160a01b0382166000908152600e60205260408120819055612710612a9683612328613c95565b612aa09190613e2b565b90508015612b9757600c5460405163a9059cbb60e01b81526001600160a01b039091169063a9059cbb90612ada9086908590600401613a28565b6020604051808303816000875af1158015612af9573d6000803e3d6000fd5b505050506040513d601f19601f82011682018060405250810190612b1d9190613c0c565b612b5d5760405162461bcd60e51b8152602060048201526011602482015270119959481c99599d5b990819985a5b1959607a1b60448201526064016108bd565b7feb4706597fb7a2e8806c0e31ad4c334330a97bc3cae6b9c360e152c922bb40c88382604051612b8e929190613a28565b60405180910390a15b505b5050600101612a1a565b6000612bae81613077565b6001600160a01b038216612c045760405162461bcd60e51b815260206004820152601d60248201527f496e76616c69642067616d65207265676973747279206164647265737300000060448201526064016108bd565b50600180546001600160a01b0390921661010002610100600160a81b0319909216919091179055565b600a5433904210612c805760405162461bcd60e51b815260206004820152601960248201527f526567697374726174696f6e2074696d65206973206f7665720000000000000060448201526064016108bd565b600060155460ff166004811115612c9957612c996133ae565b14612ce65760405162461bcd60e51b815260206004820181905260248201527f47616d6520697320616c7265616479206f6e676f696e67206f7220656e64656460448201526064016108bd565b6001600160a01b0381166000908152600e602052604090205480612d625760405162461bcd60e51b815260206004820152602d60248201527f506c6179657220686173206e6f74206a6f696e6564206f722066656520616c7260448201526c1958591e481c99599d5b991959609a1b60648201526084016108bd565b600080805b601654811015612dc157846001600160a01b031660168281548110612d8e57612d8e613a6b565b60009182526020909120600290910201546001600160a01b031603612db95780925060019150612dc1565b600101612d67565b5080612e205760405162461bcd60e51b815260206004820152602860248201527f496e7465726e616c206572726f723a20506c61796572206e6f7420666f756e64604482015267081a5b881b1a5cdd60c21b60648201526084016108bd565b601654600090612e3290600190613ff7565b9050808314612ea85760168181548110612e4e57612e4e613a6b565b906000526020600020906002020160168481548110612e6f57612e6f613a6b565b60009182526020909120825460029092020180546001600160a01b0319166001600160a01b039092169190911781556001918201549101555b6016805480612eb957612eb961400a565b6000828152602080822060026000199094019384020180546001600160a01b0319168155600101829055919092556001600160a01b0387168252600e90526040812081905560108054869290612f10908490613ff7565b90915550506001600160a01b038086166000908152601760209081526040808320805460ff19169055601890915280822091909155600c54905163a9059cbb60e01b815291169063a9059cbb90612f6d9088908890600401613a28565b6020604051808303816000875af1158015612f8c573d6000803e3d6000fd5b505050506040513d601f19601f82011682018060405250810190612fb09190613c0c565b612ff55760405162461bcd60e51b81526020600482015260166024820152751499599d5b99081d1c985b9cd9995c8819985a5b195960521b60448201526064016108bd565b846001600160a01b03167fbddaec5e3db6d33ac9b0043f3c92cf3d081b19f8646f372eb3a68a51e273a1048560405161303091815260200190565b60405180910390a25050505050565b6016818154811061304f57600080fd5b6000918252602090912060029091020180546001909101546001600160a01b03909116915082565b61284881336131c9565b600061308d838361165b565b61310b576000838152602081815260408083206001600160a01b03861684529091529020805460ff191660011790556130c33390565b6001600160a01b0316826001600160a01b0316847f2f8788117e7eff1d82e926ec794901d17c78024a50270940304540a733656f0d60405160405180910390a45060016106c4565b5060006106c4565b600061311f838361165b565b1561310b576000838152602081815260408083206001600160a01b0386168085529252808320805460ff1916905551339286917ff6391f5c32d9c69d2a47ea670b442974b53935d1edc7fd64eb21e047a839171b9190a45060016106c4565b600082815260208190526040808220600101805490849055905190918391839186917fbd79b86ffe0ab8e8776151514217cd7cacd52c909f66475c3af44e129f0b00ff9190a4505050565b6131d3828261165b565b61280d57808260405163e2517d3f60e01b81526004016108bd929190613a28565b828054828255906000526020600020908101928215613247579160200282015b828111156132475781546001600160a01b0319166001600160a01b03843516178255602090920191600190910190613214565b50613253929150613326565b5090565b828054828255906000526020600020908101928215613247579160200282015b82811115613247578251825591602001919060010190613277565b604051806101a0016040528060006001600160a01b031681526020016060815260200160608152602001600060048111156132cf576132cf6133ae565b8152602001600081526020016000815260200160008152602001600081526020016000815260200160006001600160a01b031681526020016000815260200160006001600160a01b03168152602001600081525090565b5b808211156132535760008155600101613327565b60006020828403121561334d57600080fd5b81356001600160e01b03198116811461336557600080fd5b9392505050565b6001600160a01b038116811461284857600080fd5b803561338c8161336c565b919050565b6000602082840312156133a357600080fd5b81356133658161336c565b634e487b7160e01b600052602160045260246000fd5b60058110612848576128486133ae565b6133dd816133c4565b9052565b6000602080835260e0830184516133f7816133c4565b80838601525060018060a01b03828601511660408501526040850151606085015260608501516080850152608085015160a085015260a085015160c080860152818151808452610100870191508483019350600092505b8083101561346e578351825292840192600192909201919084019061344e565b509695505050505050565b60a08101613486876133c4565b9581526001600160a01b039490941660208501526040840192909252606083015260809091015290565b602081016134bd836133c4565b91905290565b6000602082840312156134d557600080fd5b5035919050565b600080604083850312156134ef57600080fd5b8235915060208301356135018161336c565b809150509250929050565b6000806020838503121561351f57600080fd5b823567ffffffffffffffff8082111561353757600080fd5b818501915085601f83011261354b57600080fd5b81358181111561355a57600080fd5b8660208260051b850101111561356f57600080fd5b60209290920196919550909350505050565b6000815180845260005b818110156135a75760208185018101518683018201520161358b565b506000602082860101526020601f19601f83011685010191505092915050565b6020815260006133656020830184613581565b6000602082840312156135ec57600080fd5b813567ffffffffffffffff81111561360357600080fd5b820160c0818503121561336557600080fd5b60208101600383106134bd576134bd6133ae565b634e487b7160e01b600052604160045260246000fd5b6040516101a0810167ffffffffffffffff8111828210171561366357613663613629565b60405290565b604051601f8201601f1916810167ffffffffffffffff8111828210171561369257613692613629565b604052919050565b600082601f8301126136ab57600080fd5b813567ffffffffffffffff8111156136c5576136c5613629565b6136d8601f8201601f1916602001613669565b8181528460208386010111156136ed57600080fd5b816020850160208301376000918101602001919091529392505050565b6005811061284857600080fd5b803561338c8161370a565b80356003811061338c57600080fd5b600082601f83011261374257600080fd5b8135602067ffffffffffffffff82111561375e5761375e613629565b8160051b61376d828201613669565b928352848101820192828101908785111561378757600080fd5b83870192505b848310156137a65782358252918301919083019061378d565b979650505050505050565b600080600080608085870312156137c757600080fd5b843567ffffffffffffffff808211156137df57600080fd5b908601906101a082890312156137f457600080fd5b6137fc61363f565b82358281111561380b57600080fd5b6138178a82860161369a565b82525060208301358281111561382c57600080fd5b6138388a82860161369a565b60208301525061384a60408401613717565b604082015261385b60608401613381565b60608201526080830135608082015260a083013560a082015260c083013560c082015260e083013560e08201526101008084013581830152506101206138a2818501613381565b9082015261014083810135908201526101606138bf818501613722565b9082015261018083810135838111156138d757600080fd5b6138e38b828701613731565b8284015250508096505050506138fb60208601613381565b925061390960408601613381565b915061391760608601613381565b905092959194509250565b6020815261393c6020820183516001600160a01b03169052565b600060208301516101a080604085015261395a6101c0850183613581565b91506040850151601f198584030160608601526139778382613581565b925050606085015161398c60808601826133d4565b50608085015161399f60a08601826133d4565b5060a085015160c085015260c085015160e085015260e08501516101008181870152808701519150506101208181870152808701519150506101406139ee818701836001600160a01b03169052565b860151610160868101919091528601519050610180613a17818701836001600160a01b03169052565b959095015193019290925250919050565b6001600160a01b03929092168252602082015260400190565b60208082526010908201526f47616d65206e6f74206f6e676f696e6760801b604082015260600190565b634e487b7160e01b600052603260045260246000fd5b60208082528181018390526000908460408401835b8681101561346e578235613aa98161336c565b6001600160a01b031682529183019190830190600101613a96565b600181811c90821680613ad857607f821691505b602082108103613af857634e487b7160e01b600052602260045260246000fd5b50919050565b600060208284031215613b1057600080fd5b81356133658161370a565b81835260006001600160fb1b03831115613b3457600080fd5b8260051b80836020870137939093016020019392505050565b6020815260008235613b5e8161370a565b613b67816133c4565b806020840152506020830135613b7c8161336c565b60018060a01b0381166040840152506040830135606083015260608301356080830152608083013560a083015260a0830135601e19843603018112613bc057600080fd5b830160208101903567ffffffffffffffff811115613bdd57600080fd5b8060051b3603821315613bef57600080fd5b60c080850152613c0360e085018284613b1b565b95945050505050565b600060208284031215613c1e57600080fd5b8151801515811461336557600080fd5b6000808335601e19843603018112613c4557600080fd5b83018035915067ffffffffffffffff821115613c6057600080fd5b6020019150600581901b3603821315613c7857600080fd5b9250929050565b634e487b7160e01b600052601160045260246000fd5b80820281158282048414176106c4576106c4613c7f565b5b8181101561280d5760008155600101613cad565b67ffffffffffffffff831115613cd957613cd9613629565b68010000000000000000831115613cf257613cf2613629565b805483825580841015613d1857816000526020600020613d16828201868301613cac565b505b50818160005260208060002060005b86811015613d415783358282015592820192600101613d27565b50505050505050565b8135613d558161370a565b613d5e816133c4565b815460ff821691508160ff1982161783556020840135613d7d8161336c565b6001600160a81b03199190911690911760089190911b610100600160a81b0316178155604082013560018201556060820135600282015560808201356003820155613dcb60a0830183613c2e565b610831818360048601613cc1565b6020808252600f908201526e151c985b9cd9995c8819985a5b1959608a1b604082015260600190565b808201808211156106c4576106c4613c7f565b634e487b7160e01b600052601260045260246000fd5b600082613e3a57613e3a613e15565b500490565b600082613e4e57613e4e613e15565b500690565b601f82111561086a57806000526020600020601f840160051c81016020851015613e7a5750805b613e8c601f850160051c830182613cac565b5050505050565b815167ffffffffffffffff811115613ead57613ead613629565b613ec181613ebb8454613ac4565b84613e53565b602080601f831160018114613ef65760008415613ede5750858301515b600019600386901b1c1916600185901b178555613f4f565b600085815260208120601f198616915b82811015613f2557888601518255948401946001909101908401613f06565b5085821015613f435787850151600019600388901b60f8161c191681555b505060018460011b0185555b505050505050565b60018060a01b0383168152600060206040602084015260008454613f7a81613ac4565b8060408701526060600180841660008114613f9c5760018114613fb857613fe8565b60ff19851660608a0152606084151560051b8a01019550613fe8565b89600052602060002060005b85811015613fdf5781548b8201860152908301908801613fc4565b8a016060019650505b50939998505050505050505050565b818103818111156106c4576106c4613c7f565b634e487b7160e01b600052603160045260246000fdfe828634d95e775031b9ff576b159a8509d3053581a8c9c4d7d86899e0afcd882fa2646970667358221220eb8cb05d22af6fde391ca85e30423922f1bbee3908d4ad306f154662e35a3e1664736f6c63430008180033a2646970667358221220ff9b4ca2da4e7ad959d3e936aea8fec284b099b2c12f6ded49a8803a6b67d29964736f6c63430008180033b19546dff01e856fb3f010c267a7b1c60363cf8a4664e21cc89c26224620214e",
  "linkReferences": {},
  "deployedLinkReferences": {}
}