{
  "_format": "hh-sol-artifact-1",
  "contractName": "GameFactory",
  "sourceName": "contracts/GameFactory.sol",
  "abi": [
    {
      "inputs": [
        {
          "internalType": "address",
          "name": "blitzTokenAddress",
          "type": "address"
        },
        {
          "internalType": "address",
          "name": "levelManagerAddress",
          "type": "address"
        }
      ],
      "stateMutability": "nonpayable",
      "type": "constructor"
    },
    {
      "inputs": [],
      "name": "AccessControlBadConfirmation",
      "type": "error"
    },
    {
      "inputs": [
        {
          "internalType": "address",
          "name": "account",
          "type": "address"
        },
        {
          "internalType": "bytes32",
          "name": "neededRole",
          "type": "bytes32"
        }
      ],
      "name": "AccessControlUnauthorizedAccount",
      "type": "error"
    },
    {
      "anonymous": false,
      "inputs": [
        {
          "indexed": true,
          "internalType": "address",
          "name": "token",
          "type": "address"
        },
        {
          "indexed": true,
          "internalType": "address",
          "name": "recipient",
          "type": "address"
        },
        {
          "indexed": false,
          "internalType": "uint256",
          "name": "amount",
          "type": "uint256"
        }
      ],
      "name": "FeesWithdrawn",
      "type": "event"
    },
    {
      "anonymous": false,
      "inputs": [
        {
          "indexed": true,
          "internalType": "address",
          "name": "game",
          "type": "address"
        },
        {
          "indexed": true,
          "internalType": "address",
          "name": "creator",
          "type": "address"
        }
      ],
      "name": "GameCreated",
      "type": "event"
    },
    {
      "anonymous": false,
      "inputs": [
        {
          "indexed": true,
          "internalType": "bytes32",
          "name": "role",
          "type": "bytes32"
        },
        {
          "indexed": true,
          "internalType": "bytes32",
          "name": "previousAdminRole",
          "type": "bytes32"
        },
        {
          "indexed": true,
          "internalType": "bytes32",
          "name": "newAdminRole",
          "type": "bytes32"
        }
      ],
      "name": "RoleAdminChanged",
      "type": "event"
    },
    {
      "anonymous": false,
      "inputs": [
        {
          "indexed": true,
          "internalType": "bytes32",
          "name": "role",
          "type": "bytes32"
        },
        {
          "indexed": true,
          "internalType": "address",
          "name": "account",
          "type": "address"
        },
        {
          "indexed": true,
          "internalType": "address",
          "name": "sender",
          "type": "address"
        }
      ],
      "name": "RoleGranted",
      "type": "event"
    },
    {
      "anonymous": false,
      "inputs": [
        {
          "indexed": true,
          "internalType": "bytes32",
          "name": "role",
          "type": "bytes32"
        },
        {
          "indexed": true,
          "internalType": "address",
          "name": "account",
          "type": "address"
        },
        {
          "indexed": true,
          "internalType": "address",
          "name": "sender",
          "type": "address"
        }
      ],
      "name": "RoleRevoked",
      "type": "event"
    },
    {
      "inputs": [],
      "name": "DEFAULT_ADMIN_ROLE",
      "outputs": [
        {
          "internalType": "bytes32",
          "name": "",
          "type": "bytes32"
        }
      ],
      "stateMutability": "view",
      "type": "function"
    },
    {
      "inputs": [],
      "name": "OWNER_ROLE",
      "outputs": [
        {
          "internalType": "bytes32",
          "name": "",
          "type": "bytes32"
        }
      ],
      "stateMutability": "view",
      "type": "function"
    },
    {
      "inputs": [
        {
          "internalType": "uint256",
          "name": "",
          "type": "uint256"
        }
      ],
      "name": "allGames",
      "outputs": [
        {
          "internalType": "address",
          "name": "",
          "type": "address"
        }
      ],
      "stateMutability": "view",
      "type": "function"
    },
    {
      "inputs": [
        {
          "components": [
            {
              "internalType": "string",
              "name": "title",
              "type": "string"
            },
            {
              "internalType": "string",
              "name": "description",
              "type": "string"
            },
            {
              "internalType": "enum Types.GameType",
              "name": "gameType",
              "type": "uint8"
            },
            {
              "internalType": "address",
              "name": "feeTokenAddress",
              "type": "address"
            },
            {
              "internalType": "uint256",
              "name": "entryFee",
              "type": "uint256"
            },
            {
              "internalType": "uint256",
              "name": "minPlayers",
              "type": "uint256"
            },
            {
              "internalType": "uint256",
              "name": "maxPlayers",
              "type": "uint256"
            },
            {
              "internalType": "uint256",
              "name": "registrationEndTime",
              "type": "uint256"
            },
            {
              "internalType": "uint256",
              "name": "gameStartTime",
              "type": "uint256"
            },
            {
              "internalType": "address",
              "name": "prizeTokenAddress",
              "type": "address"
            },
            {
              "internalType": "uint256",
              "name": "prizePool",
              "type": "uint256"
            },
            {
              "internalType": "enum Types.PrizeDistributionType",
              "name": "distributionType",
              "type": "uint8"
            },
            {
              "internalType": "uint256[]",
              "name": "rankPrizes",
              "type": "uint256[]"
            }
          ],
          "internalType": "struct Types.GameConfig",
          "name": "config",
          "type": "tuple"
        }
      ],
      "name": "createGame",
      "outputs": [
        {
          "internalType": "address",
          "name": "gameInstance",
          "type": "address"
        }
      ],
      "stateMutability": "nonpayable",
      "type": "function"
    },
    {
      "inputs": [
        {
          "internalType": "address",
          "name": "",
          "type": "address"
        }
      ],
      "name": "feeBalances",
      "outputs": [
        {
          "internalType": "uint256",
          "name": "",
          "type": "uint256"
        }
      ],
      "stateMutability": "view",
      "type": "function"
    },
    {
      "inputs": [
        {
          "internalType": "address",
          "name": "",
          "type": "address"
        },
        {
          "internalType": "uint256",
          "name": "",
          "type": "uint256"
        }
      ],
      "name": "gamesByCreator",
      "outputs": [
        {
          "internalType": "address",
          "name": "",
          "type": "address"
        }
      ],
      "stateMutability": "view",
      "type": "function"
    },
    {
      "inputs": [],
      "name": "getAllGames",
      "outputs": [
        {
          "internalType": "address[]",
          "name": "",
          "type": "address[]"
        }
      ],
      "stateMutability": "view",
      "type": "function"
    },
    {
      "inputs": [
        {
          "internalType": "uint256",
          "name": "begin",
          "type": "uint256"
        },
        {
          "internalType": "uint256",
          "name": "count",
          "type": "uint256"
        }
      ],
      "name": "getPartofGames",
      "outputs": [
        {
          "internalType": "address[]",
          "name": "",
          "type": "address[]"
        }
      ],
      "stateMutability": "view",
      "type": "function"
    },
    {
      "inputs": [
        {
          "internalType": "bytes32",
          "name": "role",
          "type": "bytes32"
        }
      ],
      "name": "getRoleAdmin",
      "outputs": [
        {
          "internalType": "bytes32",
          "name": "",
          "type": "bytes32"
        }
      ],
      "stateMutability": "view",
      "type": "function"
    },
    {
      "inputs": [],
      "name": "getTotalGames",
      "outputs": [
        {
          "internalType": "uint256",
          "name": "",
          "type": "uint256"
        }
      ],
      "stateMutability": "view",
      "type": "function"
    },
    {
      "inputs": [
        {
          "internalType": "bytes32",
          "name": "role",
          "type": "bytes32"
        },
        {
          "internalType": "address",
          "name": "account",
          "type": "address"
        }
      ],
      "name": "grantRole",
      "outputs": [],
      "stateMutability": "nonpayable",
      "type": "function"
    },
    {
      "inputs": [
        {
          "internalType": "bytes32",
          "name": "role",
          "type": "bytes32"
        },
        {
          "internalType": "address",
          "name": "account",
          "type": "address"
        }
      ],
      "name": "hasRole",
      "outputs": [
        {
          "internalType": "bool",
          "name": "",
          "type": "bool"
        }
      ],
      "stateMutability": "view",
      "type": "function"
    },
    {
      "inputs": [
        {
          "internalType": "bytes32",
          "name": "role",
          "type": "bytes32"
        },
        {
          "internalType": "address",
          "name": "callerConfirmation",
          "type": "address"
        }
      ],
      "name": "renounceRole",
      "outputs": [],
      "stateMutability": "nonpayable",
      "type": "function"
    },
    {
      "inputs": [
        {
          "internalType": "bytes32",
          "name": "role",
          "type": "bytes32"
        },
        {
          "internalType": "address",
          "name": "account",
          "type": "address"
        }
      ],
      "name": "revokeRole",
      "outputs": [],
      "stateMutability": "nonpayable",
      "type": "function"
    },
    {
      "inputs": [
        {
          "internalType": "bytes4",
          "name": "interfaceId",
          "type": "bytes4"
        }
      ],
      "name": "supportsInterface",
      "outputs": [
        {
          "internalType": "bool",
          "name": "",
          "type": "bool"
        }
      ],
      "stateMutability": "view",
      "type": "function"
    },
    {
      "inputs": [
        {
          "internalType": "address",
          "name": "tokenAddress",
          "type": "address"
        }
      ],
      "name": "withdrawFees",
      "outputs": [],
      "stateMutability": "nonpayable",
      "type": "function"
    }
  ],
  "bytecode": "0x60c06040523480156200001157600080fd5b50604051620050b2380380620050b28339810160408190526200003491620001ac565b6001600160a01b03808316608052811660a0526200005460003362000095565b5062000070600080516020620050928339815191523362000095565b506200008d60008051602062005092833981519152600062000144565b5050620001e4565b6000828152602081815260408083206001600160a01b038516845290915281205460ff166200013a576000838152602081815260408083206001600160a01b03861684529091529020805460ff19166001179055620000f13390565b6001600160a01b0316826001600160a01b0316847f2f8788117e7eff1d82e926ec794901d17c78024a50270940304540a733656f0d60405160405180910390a45060016200013e565b5060005b92915050565b600082815260208190526040808220600101805490849055905190918391839186917fbd79b86ffe0ab8e8776151514217cd7cacd52c909f66475c3af44e129f0b00ff9190a4505050565b80516001600160a01b0381168114620001a757600080fd5b919050565b60008060408385031215620001c057600080fd5b620001cb836200018f565b9150620001db602084016200018f565b90509250929050565b60805160a051614e8162000211600039600081816108b80152610a820152600061086c0152614e816000f3fe608060405234801561001057600080fd5b50600436106101005760003560e01c80636cebbd4a11610097578063d1e7bff411610066578063d1e7bff41461023a578063d547741f1461024d578063db1c45f914610260578063e58378bb1461026857600080fd5b80636cebbd4a146101ec57806391d148541461020c578063a0b550951461021f578063a217fddf1461023257600080fd5b806332906257116100d3578063329062571461018657806336568abe146101b157806353afc025146101c45780635bd4349b146101e457600080fd5b806301ffc9a714610105578063164e68de1461012d578063248a9ca3146101425780632f2ff15d14610173575b600080fd5b610118610113366004610cfb565b61028f565b60405190151581526020015b60405180910390f35b61014061013b366004610d48565b6102c6565b005b610165610150366004610d63565b60009081526020819052604090206001015490565b604051908152602001610124565b610140610181366004610d7c565b610448565b610199610194366004610da8565b610473565b6040516001600160a01b039091168152602001610124565b6101406101bf366004610d7c565b6104ab565b6101656101d2366004610d48565b60036020526000908152604090205481565b600154610165565b6101ff6101fa366004610dd2565b6104e3565b6040516101249190610df4565b61011861021a366004610d7c565b610637565b61019961022d366004610d63565b610660565b610165600081565b610199610248366004610fc0565b61068a565b61014061025b366004610d7c565b610b20565b6101ff610b45565b6101657fb19546dff01e856fb3f010c267a7b1c60363cf8a4664e21cc89c26224620214e81565b60006001600160e01b03198216637965db0b60e01b14806102c057506301ffc9a760e01b6001600160e01b03198316145b92915050565b7fb19546dff01e856fb3f010c267a7b1c60363cf8a4664e21cc89c26224620214e6102f081610ba7565b6001600160a01b038216600090815260036020526040902054806103665760405162461bcd60e51b815260206004820152602260248201527f4e6f206665657320746f20776974686472617720666f72207468697320746f6b60448201526132b760f11b60648201526084015b60405180910390fd5b6001600160a01b038316600081815260036020526040808220919091555163a9059cbb60e01b81523360048201526024810183905263a9059cbb906044016020604051808303816000875af11580156103c3573d6000803e3d6000fd5b505050506040513d601f19601f820116820180604052508101906103e791906110ff565b6104035760405162461bcd60e51b815260040161035d90611121565b60405181815233906001600160a01b038516907f5e110f8bc8a20b65dcc87f224bdf1cc039346e267118bae2739847f07321ffa89060200160405180910390a3505050565b60008281526020819052604090206001015461046381610ba7565b61046d8383610bb4565b50505050565b6002602052816000526040600020818154811061048f57600080fd5b6000918252602090912001546001600160a01b03169150829050565b6001600160a01b03811633146104d45760405163334bd91960e11b815260040160405180910390fd5b6104de8282610c46565b505050565b60015460609083106105435760405162461bcd60e51b815260206004820152602360248201527f496e76616c696420737461727420696e64657820286f7574206f6620626f756e60448201526264732960e81b606482015260840161035d565b600061054f8385611160565b60015490915081111561056157506001545b600061056d8583611173565b905060008167ffffffffffffffff81111561058a5761058a610e41565b6040519080825280602002602001820160405280156105b3578160200160208202803683370190505b50905060005b8281101561062d5760016105cd8289611160565b815481106105dd576105dd611186565b9060005260206000200160009054906101000a90046001600160a01b031682828151811061060d5761060d611186565b6001600160a01b03909216602092830291909101909101526001016105b9565b5095945050505050565b6000918252602082815260408084206001600160a01b0393909316845291905290205460ff1690565b6001818154811061067057600080fd5b6000918252602090912001546001600160a01b0316905081565b610140810151600090816127106106a3836101f461119c565b6106ad91906111b3565b905060006106bb8284611160565b610120860151604051636eb1769f60e11b815233600482015230602482015291925082916001600160a01b039091169063dd62ed3e90604401602060405180830381865afa158015610711573d6000803e3d6000fd5b505050506040513d601f19601f8201168201806040525081019061073591906111d5565b101561079d5760405162461bcd60e51b815260206004820152603160248201527f466163746f7279206e6f7420617070726f76656420666f72207072697a652f6660448201527032b2903a37b5b2b7103a3930b739b332b960791b606482015260840161035d565b6101208501516040516323b872dd60e01b8152336004820152306024820152604481018390526001600160a01b03909116906323b872dd906064016020604051808303816000875af11580156107f7573d6000803e3d6000fd5b505050506040513d601f19601f8201168201806040525081019061081b91906110ff565b6108375760405162461bcd60e51b815260040161035d90611121565b600060405161084590610cee565b604051809103906000f080158015610861573d6000803e3d6000fd5b506001600160a01b037f000000000000000000000000000000000000000000000000000000000000000081166060890152604051636aba6c1960e01b8152919650869250821690636aba6c19906108e090899033907f0000000000000000000000000000000000000000000000000000000000000000906004016112aa565b600060405180830381600087803b1580156108fa57600080fd5b505af115801561090e573d6000803e3d6000fd5b5050505060008411156109b15761012086015160405163a9059cbb60e01b81526001600160a01b038781166004830152602482018790529091169063a9059cbb906044016020604051808303816000875af1158015610971573d6000803e3d6000fd5b505050506040513d601f19601f8201168201806040525081019061099591906110ff565b6109b15760405162461bcd60e51b815260040161035d90611121565b82156109ea576101208601516001600160a01b0316600090815260036020526040812080548592906109e4908490611160565b90915550505b6001805480820182557fb10e2d527612073b26eecdfd717e6a320cf44b4afac2b0732d9fcbe2b7fa0cf60180546001600160a01b038881166001600160a01b03199283168117909355336000818152600260209081526040808320805498890181558352912090950180549093169093179091559151632ff1a96760e11b81526004810191909152674563918244f4000060248201527f000000000000000000000000000000000000000000000000000000000000000091821690635fe352ce90604401600060405180830381600087803b158015610ac857600080fd5b505af1158015610adc573d6000803e3d6000fd5b50506040513392506001600160a01b03891691507fb60d84e37a6658effce28870b1d123cb86f86409df5888679310c0f276e1f5d290600090a35050505050919050565b600082815260208190526040902060010154610b3b81610ba7565b61046d8383610c46565b60606001805480602002602001604051908101604052809291908181526020018280548015610b9d57602002820191906000526020600020905b81546001600160a01b03168152600190910190602001808311610b7f575b5050505050905090565b610bb18133610cb1565b50565b6000610bc08383610637565b610c3e576000838152602081815260408083206001600160a01b03861684529091529020805460ff19166001179055610bf63390565b6001600160a01b0316826001600160a01b0316847f2f8788117e7eff1d82e926ec794901d17c78024a50270940304540a733656f0d60405160405180910390a45060016102c0565b5060006102c0565b6000610c528383610637565b15610c3e576000838152602081815260408083206001600160a01b0386168085529252808320805460ff1916905551339286917ff6391f5c32d9c69d2a47ea670b442974b53935d1edc7fd64eb21e047a839171b9190a45060016102c0565b610cbb8282610637565b610cea5760405163e2517d3f60e01b81526001600160a01b03821660048201526024810183905260440161035d565b5050565b613a67806113e583390190565b600060208284031215610d0d57600080fd5b81356001600160e01b031981168114610d2557600080fd5b9392505050565b80356001600160a01b0381168114610d4357600080fd5b919050565b600060208284031215610d5a57600080fd5b610d2582610d2c565b600060208284031215610d7557600080fd5b5035919050565b60008060408385031215610d8f57600080fd5b82359150610d9f60208401610d2c565b90509250929050565b60008060408385031215610dbb57600080fd5b610dc483610d2c565b946020939093013593505050565b60008060408385031215610de557600080fd5b50508035926020909101359150565b6020808252825182820181905260009190848201906040850190845b81811015610e355783516001600160a01b031683529284019291840191600101610e10565b50909695505050505050565b634e487b7160e01b600052604160045260246000fd5b6040516101a0810167ffffffffffffffff81118282101715610e7b57610e7b610e41565b60405290565b604051601f8201601f1916810167ffffffffffffffff81118282101715610eaa57610eaa610e41565b604052919050565b600082601f830112610ec357600080fd5b813567ffffffffffffffff811115610edd57610edd610e41565b610ef0601f8201601f1916602001610e81565b818152846020838601011115610f0557600080fd5b816020850160208301376000918101602001919091529392505050565b803560058110610d4357600080fd5b803560038110610d4357600080fd5b600082601f830112610f5157600080fd5b8135602067ffffffffffffffff821115610f6d57610f6d610e41565b8160051b610f7c828201610e81565b9283528481018201928281019087851115610f9657600080fd5b83870192505b84831015610fb557823582529183019190830190610f9c565b979650505050505050565b600060208284031215610fd257600080fd5b813567ffffffffffffffff80821115610fea57600080fd5b908301906101a08286031215610fff57600080fd5b611007610e57565b82358281111561101657600080fd5b61102287828601610eb2565b82525060208301358281111561103757600080fd5b61104387828601610eb2565b60208301525061105560408401610f22565b604082015261106660608401610d2c565b60608201526080830135608082015260a083013560a082015260c083013560c082015260e083013560e08201526101008084013581830152506101206110ad818501610d2c565b9082015261014083810135908201526101606110ca818501610f31565b9082015261018083810135838111156110e257600080fd5b6110ee88828701610f40565b918301919091525095945050505050565b60006020828403121561111157600080fd5b81518015158114610d2557600080fd5b6020808252600f908201526e151c985b9cd9995c8819985a5b1959608a1b604082015260600190565b634e487b7160e01b600052601160045260246000fd5b808201808211156102c0576102c061114a565b818103818111156102c0576102c061114a565b634e487b7160e01b600052603260045260246000fd5b80820281158282048414176102c0576102c061114a565b6000826111d057634e487b7160e01b600052601260045260246000fd5b500490565b6000602082840312156111e757600080fd5b5051919050565b6000815180845260005b81811015611214576020818501810151868301820152016111f8565b506000602082860101526020601f19601f83011685010191505092915050565b634e487b7160e01b600052602160045260246000fd5b6005811061125a5761125a611234565b9052565b6003811061125a5761125a611234565b60008151808452602080850194506020840160005b8381101561129f57815187529582019590820190600101611283565b509495945050505050565b60608152600084516101a08060608501526112c96102008501836111ee565b91506020870151605f19808685030160808701526112e784836111ee565b9350604089015191506112fd60a087018361124a565b60608901516001600160a01b03811660c08801529150608089015160e087015260a08901519150610100828188015260c08a01519250610120838189015260e08b0151935061014084818a0152828c01519450610160925084838a0152818c015194506101809150611379828a01866001600160a01b03169052565b808c0151868a015250818b015194506113966101c089018661125e565b8a01518786039092016101e08801525091506113b49050828261126e565b925050506113cd60208301856001600160a01b03169052565b6001600160a01b038316604083015294935050505056fe608060405234801561001057600080fd5b50613a47806100206000396000f3fe608060405234801561001057600080fd5b506004361061027f5760003560e01c806377b6e5041161015c578063bbdc02db116100ce578063da09075511610087578063da090755146105a9578063dd898b2f146105c1578063dff7d2c7146105d4578063e085c539146105dd578063e5a078a714610606578063f71d96cb1461060e57600080fd5b8063bbdc02db1461055e578063d0ef024a1461056b578063d4f77b1c1461057e578063d547741f14610586578063d65ab5f214610599578063d84c1ac9146105a157600080fd5b8063a217fddf11610120578063a217fddf146104f3578063a2fb1175146104fb578063af4e99de1461050e578063aff0b29714610523578063b062e95014610536578063b5545a3c1461055657600080fd5b806377b6e504146104965780638233e4331461049e57806384da242d146104b15780638aeda25a146104cb57806391d14854146104e057600080fd5b806336568abe116101f55780635e6a43f5116101b95780635e6a43f514610434578063647846a5146104575780636aba6c191461046a57806370740ac91461047d578063719ce73e146104855780637284e4161461048e57600080fd5b806336568abe146103dd578063445e6b39146103f05780634a79d50c146104035780634c2412a214610418578063554c925c1461042157600080fd5b80631d75d7c2116102475780631d75d7c214610317578063200d2ed21461036f578063248a9ca3146103895780632770c895146103ac5780632a8d950c146103b55780632f2ff15d146103c857600080fd5b806301ffc9a7146102845780630252b995146102ac57806302d05d3f146102c3578063072ea61c146102ee578063140d6b94146102f7575b600080fd5b610297610292366004612d1d565b61062f565b60405190151581526020015b60405180910390f35b6102b5600a5481565b6040519081526020016102a3565b6003546102d6906001600160a01b031681565b6040516001600160a01b0390911681526020016102a3565b6102b5600c5481565b61030a610305366004612d73565b610666565b6040516102a39190612dc3565b61035e610325366004612d73565b601760205260009081526040902080546001820154600283015460039093015460ff8316936101009093046001600160a01b0316929085565b6040516102a3959493929190612e5b565b60135461037c9060ff1681565b6040516102a39190612e92565b6102b5610397366004612ea5565b60009081526020819052604090206001015490565b6102b560075481565b6002546102d6906001600160a01b031681565b6103db6103d6366004612ebe565b6107a8565b005b6103db6103eb366004612ebe565b6107d3565b6103db6103fe366004612eee565b61080b565b61040b610963565b6040516102a39190612fa9565b6102b560085481565b6103db61042f366004612fbc565b6109f1565b610297610442366004612d73565b60156020526000908152604090205460ff1681565b600b546102d6906001600160a01b031681565b6103db61047836600461317f565b610d27565b6103db611129565b6102b5600f5481565b61040b611259565b6103db611266565b6102b56104ac366004612ea5565b6119d8565b6010546104be9060ff1681565b6040516102a391906132df565b6102b56000805160206139f283398151915281565b6102976104ee366004612ebe565b6119f9565b6102b5600081565b6102d6610509366004612ea5565b611a22565b610516611a4c565b6040516102a391906132f3565b6103db610531366004612ea5565b611c47565b6102b5610544366004612d73565b60126020526000908152604090205481565b6103db611d5f565b60065461037c9060ff1681565b600e546102d6906001600160a01b031681565b6103db611ede565b6103db610594366004612ebe565b612233565b6103db612258565b6103db6123b5565b6001546102d69061010090046001600160a01b031681565b6103db6105cf366004612d73565b61257e565b6102b560095481565b6102b56105eb366004612d73565b6001600160a01b031660009081526016602052604090205490565b6103db612608565b61062161061c366004612ea5565b612a1a565b6040516102a39291906133f9565b60006001600160e01b03198216637965db0b60e01b148061066057506301ffc9a760e01b6001600160e01b03198316145b92915050565b6106ac6040805160c08101909152806000815260200160006001600160a01b03168152602001600081526020016000815260200160008019168152602001606081525090565b6001600160a01b03821660009081526017602052604090819020815160c081019092528054829060ff1660048111156106e7576106e7612d90565b60048111156106f8576106f8612d90565b81526020016000820160019054906101000a90046001600160a01b03166001600160a01b03166001600160a01b031681526020016001820154815260200160028201548152602001600382015481526020016004820180548060200260200160405190810160405280929190818152602001828054801561079857602002820191906000526020600020905b815481526020019060010190808311610784575b5050505050815250509050919050565b6000828152602081905260409020600101546107c381612a52565b6107cd8383612a5f565b50505050565b6001600160a01b03811633146107fc5760405163334bd91960e11b815260040160405180910390fd5b6108068282612af1565b505050565b6000805160206139f283398151915261082381612a52565b600160135460ff16600481111561083c5761083c612d90565b146108625760405162461bcd60e51b815260040161085990613412565b60405180910390fd5b60005b8281101561090957601560008585848181106108835761088361343c565b90506020020160208101906108989190612d73565b6001600160a01b0316815260208101919091526040016000205460ff166109015760405162461bcd60e51b815260206004820152601860248201527f54686572652069732077696e6e6572206e6f74206a6f696e00000000000000006044820152606401610859565b600101610865565b5061091660188484612bd6565b506013805460ff191660021790556040517f8451dabc49a0b82cffb0a79a6771fe2718264aae54a4eff4d4463748813ec56f906109569085908590613452565b60405180910390a1505050565b6004805461097090613495565b80601f016020809104026020016040519081016040528092919081815260200182805461099c90613495565b80156109e95780601f106109be576101008083540402835291602001916109e9565b820191906000526020600020905b8154815290600101906020018083116109cc57829003601f168201915b505050505081565b600160135460ff166004811115610a0a57610a0a612d90565b14610a275760405162461bcd60e51b815260040161085990613412565b600a54421015610a745760405162461bcd60e51b815260206004820152601860248201527711d85b59481a185cc81b9bdd081cdd185c9d1959081e595d60421b6044820152606401610859565b3360009081526015602052604090205460ff16610ac75760405162461bcd60e51b8152602060048201526011602482015270141b185e595c881b9bdd081a9bda5b9959607a1b6044820152606401610859565b60065460ff166004811115610ade57610ade612d90565b610aeb60208301836134cf565b6004811115610afc57610afc612d90565b14610b3e5760405162461bcd60e51b815260206004820152601260248201527108ec2daca40e8f2e0ca40dad2e6dac2e8c6d60731b6044820152606401610859565b33610b4f6040830160208401612d73565b6001600160a01b031614610ba55760405162461bcd60e51b815260206004820152601760248201527f506c617965722061646472657373206d69736d617463680000000000000000006044820152606401610859565b60015461010090046001600160a01b0316610bf95760405162461bcd60e51b815260206004820152601460248201527311d85b59549959da5cdd1c9e481b9bdd081cd95d60621b6044820152606401610859565b6001546040516335c34ae960e01b81526101009091046001600160a01b03169060009082906335c34ae990610c3290869060040161351e565b6020604051808303816000875af1158015610c51573d6000803e3d6000fd5b505050506040513d601f19601f82011682018060405250810190610c7591906135dd565b905080610cc45760405162461bcd60e51b815260206004820152601f60248201527f47616d6520726573756c7420766572696669636174696f6e206661696c6564006044820152606401610859565b336000908152601660209081526040808320818701359055601790915290208390610cef828261371b565b9050507fa578df9b0453d14d7ed8615ee0e9d58f70e041e91fc5865e3b71f81ea05296c03384604001356040516109569291906133f9565b60015460ff1615610d705760405162461bcd60e51b8152602060048201526013602482015272105b1c9958591e481a5b9a5d1a585b1a5e9959606a1b6044820152606401610859565b6001805460ff191681179055600280546001600160a01b0319166001600160a01b03831617905560e08301514210610dea5760405162461bcd60e51b815260206004820152601960248201527f52656720656e64206d75737420626520696e20667574757265000000000000006044820152606401610859565b8260e001518361010001511015610e435760405162461bcd60e51b815260206004820152601e60248201527f47616d65206d7573742073746172742061667465722072656720656e647300006044820152606401610859565b8260a001518360c001511015610e905760405162461bcd60e51b815260206004820152601260248201527126b0bc1036bab9ba103132901f1e9026b4b760711b6044820152606401610859565b600380546001600160a01b0319166001600160a01b0384161790558251600490610eba90826137ea565b506020830151600590610ecd90826137ea565b506013805460ff1990811690915560408401516006805491929091166001836004811115610efd57610efd612d90565b02179055506060830151600b80546001600160a01b039283166001600160a01b0319918216179091556080850151600c5560a085015160075560c085015160085560e0850151600955610100850151600a55610120850151600e8054919093169116179055610140830151600f556101608301516010805460ff19166001836002811115610f8d57610f8d612d90565b02179055506101808301518051610fac91601191602090910190612c39565b5060028361016001516002811115610fc657610fc6612d90565b036110b957610180830151516011546110215760405162461bcd60e51b815260206004820152601f60248201527f437573746f6d2072616e6b20636f6e66696720666f726d6174206572726f72006044820152606401610859565b6000805b8281101561106a57601181815481106110405761104061343c565b90600052602060002001548261105691906138ae565b91506110636001826138ae565b9050611025565b506127108111156110b65760405162461bcd60e51b81526020600482015260166024820152755072697a65204250532065786365656473203130302560501b6044820152606401610859565b50505b6110c4600083612a5f565b506110dd6000805160206139f283398151915283612a5f565b506110f76000805160206139f28339815191526000612b5c565b7fc66e6cd41f805f65978f5241034e8d106c42cf3c7a4d62ccd857646b401cbe4a8260046040516109569291906138c1565b336000908152601260205260409020548061117a5760405162461bcd60e51b81526020600482015260116024820152704e6f207072697a6520746f20636c61696d60781b6044820152606401610859565b3360008181526012602052604080822091909155600e54905163a9059cbb60e01b81526001600160a01b039091169163a9059cbb916111be919085906004016133f9565b6020604051808303816000875af11580156111dd573d6000803e3d6000fd5b505050506040513d601f19601f8201168201806040525081019061120191906135dd565b61121d5760405162461bcd60e51b815260040161085990613961565b7fb8e091d87f82e56d22276c9a0088ea5d6068e355383dc08b2721b7b6cb10e845338260405161124e9291906133f9565b60405180910390a150565b6005805461097090613495565b6000805160206139f283398151915261127e81612a52565b600260135460ff16600481111561129757611297612d90565b146112d55760405162461bcd60e51b815260206004820152600e60248201526d11d85b59481b9bdd08195b99195960921b6044820152606401610859565b6018546113155760405162461bcd60e51b815260206004820152600e60248201526d139bc81dda5b9b995c9cc81cd95d60921b6044820152606401610859565b6000600f541161135d5760405162461bcd60e51b81526020600482015260136024820152725072697a6520706f6f6c20697320656d70747960681b6044820152606401610859565b600f805460009182905560025490916001600160a01b039091169060105460ff16600281111561138f5761138f612d90565b0361149357816012600060186000815481106113ad576113ad61343c565b60009182526020808320909101546001600160a01b03168352820192909252604001812080549091906113e19084906138ae565b90915550506002546001600160a01b03161561148e57806001600160a01b0316635fe352ce601860008154811061141a5761141a61343c565b6000918252602090912001546040516001600160e01b031960e084901b16815261145b916001600160a01b0316906801158e460913d00000906004016133f9565b600060405180830381600087803b15801561147557600080fd5b505af1158015611489573d6000803e3d6000fd5b505050505b6119c6565b600160105460ff1660028111156114ac576114ac612d90565b036115fd5760145460006114c082856139a0565b905060006114ce83866139b4565b905060005b8381101561153f5760008390508060126000601485815481106114f8576114f861343c565b600091825260208083206002909202909101546001600160a01b03168352820192909252604001812080549091906115319084906138ae565b9091555050506001016114d3565b50600e5460035460405163a9059cbb60e01b81526001600160a01b039283169263a9059cbb926115769291169085906004016133f9565b6020604051808303816000875af1158015611595573d6000803e3d6000fd5b505050506040513d601f19601f820116820180604052508101906115b991906135dd565b6115f55760405162461bcd60e51b815260206004820152600d60248201526c1499599d5b990819985a5b1959609a1b6044820152606401610859565b5050506119c6565b600260105460ff16600281111561161657611616612d90565b036119c65760115460185411156116855760405162461bcd60e51b815260206004820152602d60248201527f57696e6e657273206c69737420657863656564732072616e6b207072697a652060448201526c31b7b73334b3bab930ba34b7b760991b6064820152608401610859565b6000805b60185481101561171a576000601182815481106116a8576116a861343c565b90600052602060002001549050600081116117055760405162461bcd60e51b815260206004820152601d60248201527f4d697373696e67207072697a6520636f6e66696720666f722072616e6b0000006044820152606401610859565b61170f81846138ae565b925050600101611689565b506127108111156117665760405162461bcd60e51b81526020600482015260166024820152755072697a65204250532065786365656473203130302560501b6044820152606401610859565b60005b6018548110156119c3576000601182815481106117885761178861343c565b600091825260208220015491506127106117a28388613666565b6117ac91906139a0565b90508060126000601886815481106117c6576117c661343c565b60009182526020808320909101546001600160a01b03168352820192909252604001812080549091906117fa9084906138ae565b90915550506002546001600160a01b0316156119b957826000036118b257846001600160a01b0316635fe352ce6018858154811061183a5761183a61343c565b6000918252602090912001546040516001600160e01b031960e084901b16815261187b916001600160a01b0316906801158e460913d00000906004016133f9565b600060405180830381600087803b15801561189557600080fd5b505af11580156118a9573d6000803e3d6000fd5b505050506119b9565b8260010361191c57846001600160a01b0316635fe352ce601885815481106118dc576118dc61343c565b6000918252602090912001546040516001600160e01b031960e084901b16815261187b916001600160a01b031690678ac7230489e80000906004016133f9565b826002036119b957846001600160a01b0316635fe352ce601885815481106119465761194661343c565b6000918252602090912001546040516001600160e01b031960e084901b168152611986916001600160a01b031690674563918244f40000906004016133f9565b600060405180830381600087803b1580156119a057600080fd5b505af11580156119b4573d6000803e3d6000fd5b505050505b5050600101611769565b50505b50506013805460ff1916600317905550565b601181815481106119e857600080fd5b600091825260209091200154905081565b6000918252602082815260408084206001600160a01b0393909316845291905290205460ff1690565b60188181548110611a3257600080fd5b6000918252602090912001546001600160a01b0316905081565b611a54612c74565b611a5c612c74565b6003546001600160a01b0316815260048054611a7790613495565b80601f0160208091040260200160405190810160405280929190818152602001828054611aa390613495565b8015611af05780601f10611ac557610100808354040283529160200191611af0565b820191906000526020600020905b815481529060010190602001808311611ad357829003601f168201915b5050505050816020018190525060058054611b0a90613495565b80601f0160208091040260200160405190810160405280929190818152602001828054611b3690613495565b8015611b835780601f10611b5857610100808354040283529160200191611b83565b820191906000526020600020905b815481529060010190602001808311611b6657829003601f168201915b50505050506040820152601354606082019060ff166004811115611ba957611ba9612d90565b90816004811115611bbc57611bbc612d90565b905250600654608082019060ff166004811115611bdb57611bdb612d90565b90816004811115611bee57611bee612d90565b90525060085460a082015260145460c082015260095460e0820152600a54610100820152600c54610140820152600b546001600160a01b03908116610120830152600f54610180830152600e5416610160820152919050565b600160135460ff166004811115611c6057611c60612d90565b14611c7d5760405162461bcd60e51b815260040161085990613412565b600a54421015611cca5760405162461bcd60e51b815260206004820152601860248201527711d85b59481a185cc81b9bdd081cdd185c9d1959081e595d60421b6044820152606401610859565b3360009081526015602052604090205460ff16611d1d5760405162461bcd60e51b8152602060048201526011602482015270141b185e595c881b9bdd081a9bda5b9959607a1b6044820152606401610859565b3360008181526016602052604090819020839055517fa578df9b0453d14d7ed8615ee0e9d58f70e041e91fc5865e3b71f81ea05296c09161124e9184906133f9565b600460135460ff166004811115611d7857611d78612d90565b14611db95760405162461bcd60e51b815260206004820152601160248201527011d85b59481b9bdd0818d85b98d95b1959607a1b6044820152606401610859565b336000908152600d602052604090205480611e0a5760405162461bcd60e51b81526020600482015260116024820152704e6f207072697a6520746f20636c61696d60781b6044820152606401610859565b336000818152600d602052604080822091909155600b54905163a9059cbb60e01b81526001600160a01b039091169163a9059cbb91611e4e919085906004016133f9565b6020604051808303816000875af1158015611e6d573d6000803e3d6000fd5b505050506040513d601f19601f82011682018060405250810190611e9191906135dd565b611ead5760405162461bcd60e51b815260040161085990613961565b7feb4706597fb7a2e8806c0e31ad4c334330a97bc3cae6b9c360e152c922bb40c8338260405161124e9291906133f9565b600060135460ff166004811115611ef757611ef7612d90565b14611f445760405162461bcd60e51b815260206004820152601a60248201527f47616d65206e6f7420616363657074696e6720706c61796572730000000000006044820152606401610859565b6009544210611f955760405162461bcd60e51b815260206004820152601860248201527f526567697374726174696f6e2074696d652070617373656400000000000000006044820152606401610859565b60085460145410611fde5760405162461bcd60e51b815260206004820152601360248201527213585e081c1b185e595c9cc81c995858da1959606a1b6044820152606401610859565b3360009081526015602052604090205460ff161561202f5760405162461bcd60e51b815260206004820152600e60248201526d105b1c9958591e481a9bda5b995960921b6044820152606401610859565b600c54156120d257600b54600c546040516323b872dd60e01b815233600482015230602482015260448101919091526001600160a01b03909116906323b872dd906064016020604051808303816000875af1158015612092573d6000803e3d6000fd5b505050506040513d601f19601f820116820180604052508101906120b691906135dd565b6120d25760405162461bcd60e51b815260040161085990613961565b6040805180820182523380825260006020808401828152601480546001808201835591855295517fce6d7b5282bd9a3661ae061feed1dbda4e52ab073b1f9285be6e155d9c38d4ec600297880290810180546001600160a01b0319166001600160a01b0393841617905592517fce6d7b5282bd9a3661ae061feed1dbda4e52ab073b1f9285be6e155d9c38d4ed90930192909255600c54948452600d8352868420949094556015909152939020805460ff191690911790555416156121fe57600254604051632ff1a96760e11b81526001600160a01b0390911690635fe352ce906121cb9033906729a2241af62c0000906004016133f9565b600060405180830381600087803b1580156121e557600080fd5b505af11580156121f9573d6000803e3d6000fd5b505050505b6040513381527f31e760aa525306aba638a784082a013b6a1cc0a9a1789f3f22281c0453b10b1f9060200160405180910390a1565b60008281526020819052604090206001015461224e81612a52565b6107cd8383612af1565b6000805160206139f283398151915261227081612a52565b600060135460ff16600481111561228957612289612d90565b146122d65760405162461bcd60e51b815260206004820152601a60248201527f47616d65206e6f7420696e2043726561746564207374617475730000000000006044820152606401610859565b6009544210156123285760405162461bcd60e51b815260206004820152601c60248201527f526567697374726174696f6e206973206e6f74206f76657220796574000000006044820152606401610859565b600754601454101561237c5760405162461bcd60e51b815260206004820152601b60248201527f4e6f7420656e6f75676820706c617965727320746f20737461727400000000006044820152606401610859565b6013805460ff191660011790556040517f762f260439bb4be3ef6e4dc2786e2e7bd187d3d80b79057d7a424fe98563e33590600090a150565b6000805160206139f28339815191526123cd81612a52565b600060135460ff1660048111156123e6576123e6612d90565b14806124085750600160135460ff16600481111561240657612406612d90565b145b6124675760405162461bcd60e51b815260206004820152602a60248201527f43616e6e6f742063616e63656c20616e20656e646564206f722064697374726960448201526962757465642067616d6560b01b6064820152608401610859565b600f805460009091556013805460ff19166004179055801561253857600e5460035460405163a9059cbb60e01b81526001600160a01b039283169263a9059cbb926124b99291169085906004016133f9565b6020604051808303816000875af11580156124d8573d6000803e3d6000fd5b505050506040513d601f19601f820116820180604052508101906124fc91906135dd565b6125385760405162461bcd60e51b815260206004820152600d60248201526c1499599d5b990819985a5b1959609a1b6044820152606401610859565b6003546040518281526001600160a01b03909116907fcabd9ffa4ff52290e56c52a9ed671760a0e5951eaa234fd9e0ccccf507bf98ca9060200160405180910390a25050565b600061258981612a52565b6001600160a01b0382166125df5760405162461bcd60e51b815260206004820152601d60248201527f496e76616c69642067616d6520726567697374727920616464726573730000006044820152606401610859565b50600180546001600160a01b0390921661010002610100600160a81b0319909216919091179055565b6009543390421061265b5760405162461bcd60e51b815260206004820152601960248201527f526567697374726174696f6e2074696d65206973206f766572000000000000006044820152606401610859565b600060135460ff16600481111561267457612674612d90565b146126c15760405162461bcd60e51b815260206004820181905260248201527f47616d6520697320616c7265616479206f6e676f696e67206f7220656e6465646044820152606401610859565b6001600160a01b0381166000908152600d60205260409020548061273d5760405162461bcd60e51b815260206004820152602d60248201527f506c6179657220686173206e6f74206a6f696e6564206f722066656520616c7260448201526c1958591e481c99599d5b991959609a1b6064820152608401610859565b600080805b60145481101561279c57846001600160a01b0316601482815481106127695761276961343c565b60009182526020909120600290910201546001600160a01b031603612794578092506001915061279c565b600101612742565b50806127fb5760405162461bcd60e51b815260206004820152602860248201527f496e7465726e616c206572726f723a20506c61796572206e6f7420666f756e64604482015267081a5b881b1a5cdd60c21b6064820152608401610859565b60145460009061280d906001906139c8565b905080831461288357601481815481106128295761282961343c565b90600052602060002090600202016014848154811061284a5761284a61343c565b60009182526020909120825460029092020180546001600160a01b0319166001600160a01b039092169190911781556001918201549101555b6014805480612894576128946139db565b6000828152602080822060026000199094019384020180546001600160a01b0319168155600101829055919092556001600160a01b0387168252600d905260408120819055600f80548692906128eb9084906139c8565b90915550506001600160a01b038086166000908152601560209081526040808320805460ff19169055601690915280822091909155600b54905163a9059cbb60e01b815291169063a9059cbb9061294890889088906004016133f9565b6020604051808303816000875af1158015612967573d6000803e3d6000fd5b505050506040513d601f19601f8201168201806040525081019061298b91906135dd565b6129d05760405162461bcd60e51b81526020600482015260166024820152751499599d5b99081d1c985b9cd9995c8819985a5b195960521b6044820152606401610859565b846001600160a01b03167fbddaec5e3db6d33ac9b0043f3c92cf3d081b19f8646f372eb3a68a51e273a10485604051612a0b91815260200190565b60405180910390a25050505050565b60148181548110612a2a57600080fd5b6000918252602090912060029091020180546001909101546001600160a01b03909116915082565b612a5c8133612ba7565b50565b6000612a6b83836119f9565b612ae9576000838152602081815260408083206001600160a01b03861684529091529020805460ff19166001179055612aa13390565b6001600160a01b0316826001600160a01b0316847f2f8788117e7eff1d82e926ec794901d17c78024a50270940304540a733656f0d60405160405180910390a4506001610660565b506000610660565b6000612afd83836119f9565b15612ae9576000838152602081815260408083206001600160a01b0386168085529252808320805460ff1916905551339286917ff6391f5c32d9c69d2a47ea670b442974b53935d1edc7fd64eb21e047a839171b9190a4506001610660565b600082815260208190526040808220600101805490849055905190918391839186917fbd79b86ffe0ab8e8776151514217cd7cacd52c909f66475c3af44e129f0b00ff9190a4505050565b612bb182826119f9565b612bd257808260405163e2517d3f60e01b81526004016108599291906133f9565b5050565b828054828255906000526020600020908101928215612c29579160200282015b82811115612c295781546001600160a01b0319166001600160a01b03843516178255602090920191600190910190612bf6565b50612c35929150612d08565b5090565b828054828255906000526020600020908101928215612c29579160200282015b82811115612c29578251825591602001919060010190612c59565b604051806101a0016040528060006001600160a01b03168152602001606081526020016060815260200160006004811115612cb157612cb1612d90565b8152602001600081526020016000815260200160008152602001600081526020016000815260200160006001600160a01b031681526020016000815260200160006001600160a01b03168152602001600081525090565b5b80821115612c355760008155600101612d09565b600060208284031215612d2f57600080fd5b81356001600160e01b031981168114612d4757600080fd5b9392505050565b6001600160a01b0381168114612a5c57600080fd5b8035612d6e81612d4e565b919050565b600060208284031215612d8557600080fd5b8135612d4781612d4e565b634e487b7160e01b600052602160045260246000fd5b60058110612a5c57612a5c612d90565b612dbf81612da6565b9052565b6000602080835260e083018451612dd981612da6565b80838601525060018060a01b03828601511660408501526040850151606085015260608501516080850152608085015160a085015260a085015160c080860152818151808452610100870191508483019350600092505b80831015612e505783518252928401926001929092019190840190612e30565b509695505050505050565b60a08101612e6887612da6565b9581526001600160a01b039490941660208501526040840192909252606083015260809091015290565b60208101612e9f83612da6565b91905290565b600060208284031215612eb757600080fd5b5035919050565b60008060408385031215612ed157600080fd5b823591506020830135612ee381612d4e565b809150509250929050565b60008060208385031215612f0157600080fd5b823567ffffffffffffffff80821115612f1957600080fd5b818501915085601f830112612f2d57600080fd5b813581811115612f3c57600080fd5b8660208260051b8501011115612f5157600080fd5b60209290920196919550909350505050565b6000815180845260005b81811015612f8957602081850181015186830182015201612f6d565b506000602082860101526020601f19601f83011685010191505092915050565b602081526000612d476020830184612f63565b600060208284031215612fce57600080fd5b813567ffffffffffffffff811115612fe557600080fd5b820160c08185031215612d4757600080fd5b634e487b7160e01b600052604160045260246000fd5b6040516101a0810167ffffffffffffffff8111828210171561303157613031612ff7565b60405290565b604051601f8201601f1916810167ffffffffffffffff8111828210171561306057613060612ff7565b604052919050565b600082601f83011261307957600080fd5b813567ffffffffffffffff81111561309357613093612ff7565b6130a6601f8201601f1916602001613037565b8181528460208386010111156130bb57600080fd5b816020850160208301376000918101602001919091529392505050565b60058110612a5c57600080fd5b8035612d6e816130d8565b803560038110612d6e57600080fd5b600082601f83011261311057600080fd5b8135602067ffffffffffffffff82111561312c5761312c612ff7565b8160051b61313b828201613037565b928352848101820192828101908785111561315557600080fd5b83870192505b848310156131745782358252918301919083019061315b565b979650505050505050565b60008060006060848603121561319457600080fd5b833567ffffffffffffffff808211156131ac57600080fd5b908501906101a082880312156131c157600080fd5b6131c961300d565b8235828111156131d857600080fd5b6131e489828601613068565b8252506020830135828111156131f957600080fd5b61320589828601613068565b602083015250613217604084016130e5565b604082015261322860608401612d63565b60608201526080830135608082015260a083013560a082015260c083013560c082015260e083013560e082015261010080840135818301525061012061326f818501612d63565b90820152610140838101359082015261016061328c8185016130f0565b9082015261018083810135838111156132a457600080fd5b6132b08a8287016130ff565b8284015250508095505050506132c860208501612d63565b91506132d660408501612d63565b90509250925092565b6020810160038310612e9f57612e9f612d90565b6020815261330d6020820183516001600160a01b03169052565b600060208301516101a080604085015261332b6101c0850183612f63565b91506040850151601f198584030160608601526133488382612f63565b925050606085015161335d6080860182612db6565b50608085015161337060a0860182612db6565b5060a085015160c085015260c085015160e085015260e08501516101008181870152808701519150506101208181870152808701519150506101406133bf818701836001600160a01b03169052565b8601516101608681019190915286015190506101806133e8818701836001600160a01b03169052565b959095015193019290925250919050565b6001600160a01b03929092168252602082015260400190565b60208082526010908201526f47616d65206e6f74206f6e676f696e6760801b604082015260600190565b634e487b7160e01b600052603260045260246000fd5b60208082528181018390526000908460408401835b86811015612e5057823561347a81612d4e565b6001600160a01b031682529183019190830190600101613467565b600181811c908216806134a957607f821691505b6020821081036134c957634e487b7160e01b600052602260045260246000fd5b50919050565b6000602082840312156134e157600080fd5b8135612d47816130d8565b81835260006001600160fb1b0383111561350557600080fd5b8260051b80836020870137939093016020019392505050565b602081526000823561352f816130d8565b61353881612da6565b80602084015250602083013561354d81612d4e565b60018060a01b0381166040840152506040830135606083015260608301356080830152608083013560a083015260a0830135601e1984360301811261359157600080fd5b830160208101903567ffffffffffffffff8111156135ae57600080fd5b8060051b36038213156135c057600080fd5b60c0808501526135d460e0850182846134ec565b95945050505050565b6000602082840312156135ef57600080fd5b81518015158114612d4757600080fd5b6000808335601e1984360301811261361657600080fd5b83018035915067ffffffffffffffff82111561363157600080fd5b6020019150600581901b360382131561364957600080fd5b9250929050565b634e487b7160e01b600052601160045260246000fd5b808202811582820484141761066057610660613650565b5b81811015612bd2576000815560010161367e565b67ffffffffffffffff8311156136aa576136aa612ff7565b680100000000000000008311156136c3576136c3612ff7565b8054838255808410156136e9578160005260206000206136e782820186830161367d565b505b50818160005260208060002060005b8681101561371257833582820155928201926001016136f8565b50505050505050565b8135613726816130d8565b61372f81612da6565b815460ff821691508160ff198216178355602084013561374e81612d4e565b6001600160a81b03199190911690911760089190911b610100600160a81b031617815560408201356001820155606082013560028201556080820135600382015561379c60a08301836135ff565b6107cd818360048601613692565b601f82111561080657806000526020600020601f840160051c810160208510156137d15750805b6137e3601f850160051c83018261367d565b5050505050565b815167ffffffffffffffff81111561380457613804612ff7565b613818816138128454613495565b846137aa565b602080601f83116001811461384d57600084156138355750858301515b600019600386901b1c1916600185901b1785556138a6565b600085815260208120601f198616915b8281101561387c5788860151825594840194600190910190840161385d565b508582101561389a5787850151600019600388901b60f8161c191681555b505060018460011b0185555b505050505050565b8082018082111561066057610660613650565b60018060a01b03831681526000602060406020840152600084546138e481613495565b8060408701526060600180841660008114613906576001811461392257613952565b60ff19851660608a0152606084151560051b8a01019550613952565b89600052602060002060005b858110156139495781548b820186015290830190880161392e565b8a016060019650505b50939998505050505050505050565b6020808252600f908201526e151c985b9cd9995c8819985a5b1959608a1b604082015260600190565b634e487b7160e01b600052601260045260246000fd5b6000826139af576139af61398a565b500490565b6000826139c3576139c361398a565b500690565b8181038181111561066057610660613650565b634e487b7160e01b600052603160045260246000fdfe828634d95e775031b9ff576b159a8509d3053581a8c9c4d7d86899e0afcd882fa2646970667358221220d2381a04a9bfa4e19d64360edc592d9b35a6d3902ee241bf34780b9bfa083e6764736f6c63430008180033a26469706673582212200d58f3ce4328b62aa1a7b76f67266a18d815f99b7669b595ed11859d33b97c6f64736f6c63430008180033b19546dff01e856fb3f010c267a7b1c60363cf8a4664e21cc89c26224620214e",
  "linkReferences": {},
  "deployedLinkReferences": {}
}