{
  "_format": "hh-sol-artifact-1",
  "contractName": "GameInstance",
  "sourceName": "contracts/GameInstance.sol",
  "abi": [
    {
      "inputs": [],
      "name": "AccessControlBadConfirmation",
      "type": "error"
    },
    {
      "inputs": [
        {
          "internalType": "address",
          "name": "account",
          "type": "address"
        },
        {
          "internalType": "bytes32",
          "name": "neededRole",
          "type": "bytes32"
        }
      ],
      "name": "AccessControlUnauthorizedAccount",
      "type": "error"
    },
    {
      "anonymous": false,
      "inputs": [
        {
          "indexed": false,
          "internalType": "address",
          "name": "player",
          "type": "address"
        },
        {
          "indexed": false,
          "internalType": "uint256",
          "name": "amount",
          "type": "uint256"
        }
      ],
      "name": "FeeRefund",
      "type": "event"
    },
    {
      "anonymous": false,
      "inputs": [
        {
          "indexed": true,
          "internalType": "address",
          "name": "creator",
          "type": "address"
        },
        {
          "indexed": false,
          "internalType": "uint256",
          "name": "refundAmount",
          "type": "uint256"
        }
      ],
      "name": "GameCanceled",
      "type": "event"
    },
    {
      "anonymous": false,
      "inputs": [],
      "name": "GameStarted",
      "type": "event"
    },
    {
      "anonymous": false,
      "inputs": [
        {
          "indexed": false,
          "internalType": "address",
          "name": "creator",
          "type": "address"
        },
        {
          "indexed": false,
          "internalType": "string",
          "name": "title",
          "type": "string"
        }
      ],
      "name": "Initialized",
      "type": "event"
    },
    {
      "anonymous": false,
      "inputs": [
        {
          "indexed": false,
          "internalType": "address",
          "name": "player",
          "type": "address"
        }
      ],
      "name": "PlayerJoined",
      "type": "event"
    },
    {
      "anonymous": false,
      "inputs": [
        {
          "indexed": true,
          "internalType": "address",
          "name": "player",
          "type": "address"
        },
        {
          "indexed": false,
          "internalType": "uint256",
          "name": "feeRefunded",
          "type": "uint256"
        }
      ],
      "name": "PlayerUnregistered",
      "type": "event"
    },
    {
      "anonymous": false,
      "inputs": [
        {
          "indexed": false,
          "internalType": "address",
          "name": "winner",
          "type": "address"
        },
        {
          "indexed": false,
          "internalType": "uint256",
          "name": "amount",
          "type": "uint256"
        }
      ],
      "name": "PrizeDistributed",
      "type": "event"
    },
    {
      "anonymous": false,
      "inputs": [
        {
          "indexed": true,
          "internalType": "bytes32",
          "name": "role",
          "type": "bytes32"
        },
        {
          "indexed": true,
          "internalType": "bytes32",
          "name": "previousAdminRole",
          "type": "bytes32"
        },
        {
          "indexed": true,
          "internalType": "bytes32",
          "name": "newAdminRole",
          "type": "bytes32"
        }
      ],
      "name": "RoleAdminChanged",
      "type": "event"
    },
    {
      "anonymous": false,
      "inputs": [
        {
          "indexed": true,
          "internalType": "bytes32",
          "name": "role",
          "type": "bytes32"
        },
        {
          "indexed": true,
          "internalType": "address",
          "name": "account",
          "type": "address"
        },
        {
          "indexed": true,
          "internalType": "address",
          "name": "sender",
          "type": "address"
        }
      ],
      "name": "RoleGranted",
      "type": "event"
    },
    {
      "anonymous": false,
      "inputs": [
        {
          "indexed": true,
          "internalType": "bytes32",
          "name": "role",
          "type": "bytes32"
        },
        {
          "indexed": true,
          "internalType": "address",
          "name": "account",
          "type": "address"
        },
        {
          "indexed": true,
          "internalType": "address",
          "name": "sender",
          "type": "address"
        }
      ],
      "name": "RoleRevoked",
      "type": "event"
    },
    {
      "anonymous": false,
      "inputs": [
        {
          "indexed": false,
          "internalType": "address",
          "name": "player",
          "type": "address"
        },
        {
          "indexed": false,
          "internalType": "uint256",
          "name": "score",
          "type": "uint256"
        }
      ],
      "name": "ScoreSubmitted",
      "type": "event"
    },
    {
      "anonymous": false,
      "inputs": [
        {
          "indexed": false,
          "internalType": "address[]",
          "name": "winner",
          "type": "address[]"
        }
      ],
      "name": "WinnersSet",
      "type": "event"
    },
    {
      "inputs": [],
      "name": "CREATOR_ROLE",
      "outputs": [
        {
          "internalType": "bytes32",
          "name": "",
          "type": "bytes32"
        }
      ],
      "stateMutability": "view",
      "type": "function"
    },
    {
      "inputs": [],
      "name": "DEFAULT_ADMIN_ROLE",
      "outputs": [
        {
          "internalType": "bytes32",
          "name": "",
          "type": "bytes32"
        }
      ],
      "stateMutability": "view",
      "type": "function"
    },
    {
      "inputs": [],
      "name": "cancelGame",
      "outputs": [],
      "stateMutability": "nonpayable",
      "type": "function"
    },
    {
      "inputs": [],
      "name": "cancelRegistration",
      "outputs": [],
      "stateMutability": "nonpayable",
      "type": "function"
    },
    {
      "inputs": [],
      "name": "claimPrize",
      "outputs": [],
      "stateMutability": "nonpayable",
      "type": "function"
    },
    {
      "inputs": [],
      "name": "claimRefund",
      "outputs": [],
      "stateMutability": "nonpayable",
      "type": "function"
    },
    {
      "inputs": [],
      "name": "creator",
      "outputs": [
        {
          "internalType": "address",
          "name": "",
          "type": "address"
        }
      ],
      "stateMutability": "view",
      "type": "function"
    },
    {
      "inputs": [],
      "name": "description",
      "outputs": [
        {
          "internalType": "string",
          "name": "",
          "type": "string"
        }
      ],
      "stateMutability": "view",
      "type": "function"
    },
    {
      "inputs": [],
      "name": "distributePrize",
      "outputs": [],
      "stateMutability": "nonpayable",
      "type": "function"
    },
    {
      "inputs": [],
      "name": "distributionType",
      "outputs": [
        {
          "internalType": "enum Types.PrizeDistributionType",
          "name": "",
          "type": "uint8"
        }
      ],
      "stateMutability": "view",
      "type": "function"
    },
    {
      "inputs": [],
      "name": "entryFee",
      "outputs": [
        {
          "internalType": "uint256",
          "name": "",
          "type": "uint256"
        }
      ],
      "stateMutability": "view",
      "type": "function"
    },
    {
      "inputs": [],
      "name": "feeToken",
      "outputs": [
        {
          "internalType": "address",
          "name": "",
          "type": "address"
        }
      ],
      "stateMutability": "view",
      "type": "function"
    },
    {
      "inputs": [],
      "name": "gameRegistry",
      "outputs": [
        {
          "internalType": "address",
          "name": "",
          "type": "address"
        }
      ],
      "stateMutability": "view",
      "type": "function"
    },
    {
      "inputs": [
        {
          "internalType": "address",
          "name": "",
          "type": "address"
        }
      ],
      "name": "gameResults",
      "outputs": [
        {
          "internalType": "enum Types.GameType",
          "name": "gameType",
          "type": "uint8"
        },
        {
          "internalType": "address",
          "name": "player",
          "type": "address"
        },
        {
          "internalType": "uint256",
          "name": "score",
          "type": "uint256"
        },
        {
          "internalType": "uint256",
          "name": "timestamp",
          "type": "uint256"
        },
        {
          "internalType": "bytes32",
          "name": "gameHash",
          "type": "bytes32"
        }
      ],
      "stateMutability": "view",
      "type": "function"
    },
    {
      "inputs": [],
      "name": "gameStartTime",
      "outputs": [
        {
          "internalType": "uint256",
          "name": "",
          "type": "uint256"
        }
      ],
      "stateMutability": "view",
      "type": "function"
    },
    {
      "inputs": [],
      "name": "gameType",
      "outputs": [
        {
          "internalType": "enum Types.GameType",
          "name": "",
          "type": "uint8"
        }
      ],
      "stateMutability": "view",
      "type": "function"
    },
    {
      "inputs": [],
      "name": "getGameData",
      "outputs": [
        {
          "components": [
            {
              "internalType": "address",
              "name": "creator",
              "type": "address"
            },
            {
              "internalType": "string",
              "name": "title",
              "type": "string"
            },
            {
              "internalType": "string",
              "name": "description",
              "type": "string"
            },
            {
              "internalType": "enum Types.GameStatus",
              "name": "status",
              "type": "uint8"
            },
            {
              "internalType": "enum Types.GameType",
              "name": "gameType",
              "type": "uint8"
            },
            {
              "internalType": "uint256",
              "name": "maxPlayers",
              "type": "uint256"
            },
            {
              "internalType": "uint256",
              "name": "playerCount",
              "type": "uint256"
            },
            {
              "internalType": "uint256",
              "name": "registrationEndTime",
              "type": "uint256"
            },
            {
              "internalType": "uint256",
              "name": "gameStartTime",
              "type": "uint256"
            },
            {
              "internalType": "address",
              "name": "feeToken",
              "type": "address"
            },
            {
              "internalType": "uint256",
              "name": "entryFee",
              "type": "uint256"
            },
            {
              "internalType": "address",
              "name": "prizeToken",
              "type": "address"
            },
            {
              "internalType": "uint256",
              "name": "prizePool",
              "type": "uint256"
            }
          ],
          "internalType": "struct Types.GameData",
          "name": "",
          "type": "tuple"
        }
      ],
      "stateMutability": "view",
      "type": "function"
    },
    {
      "inputs": [
        {
          "internalType": "address",
          "name": "player",
          "type": "address"
        }
      ],
      "name": "getPlayerGameResult",
      "outputs": [
        {
          "components": [
            {
              "internalType": "enum Types.GameType",
              "name": "gameType",
              "type": "uint8"
            },
            {
              "internalType": "address",
              "name": "player",
              "type": "address"
            },
            {
              "internalType": "uint256",
              "name": "score",
              "type": "uint256"
            },
            {
              "internalType": "uint256",
              "name": "timestamp",
              "type": "uint256"
            },
            {
              "internalType": "bytes32",
              "name": "gameHash",
              "type": "bytes32"
            },
            {
              "internalType": "uint256[]",
              "name": "metadata",
              "type": "uint256[]"
            }
          ],
          "internalType": "struct Types.GameResult",
          "name": "",
          "type": "tuple"
        }
      ],
      "stateMutability": "view",
      "type": "function"
    },
    {
      "inputs": [
        {
          "internalType": "address",
          "name": "player",
          "type": "address"
        }
      ],
      "name": "getPlayerScore",
      "outputs": [
        {
          "internalType": "uint256",
          "name": "",
          "type": "uint256"
        }
      ],
      "stateMutability": "view",
      "type": "function"
    },
    {
      "inputs": [
        {
          "internalType": "bytes32",
          "name": "role",
          "type": "bytes32"
        }
      ],
      "name": "getRoleAdmin",
      "outputs": [
        {
          "internalType": "bytes32",
          "name": "",
          "type": "bytes32"
        }
      ],
      "stateMutability": "view",
      "type": "function"
    },
    {
      "inputs": [
        {
          "internalType": "bytes32",
          "name": "role",
          "type": "bytes32"
        },
        {
          "internalType": "address",
          "name": "account",
          "type": "address"
        }
      ],
      "name": "grantRole",
      "outputs": [],
      "stateMutability": "nonpayable",
      "type": "function"
    },
    {
      "inputs": [
        {
          "internalType": "bytes32",
          "name": "role",
          "type": "bytes32"
        },
        {
          "internalType": "address",
          "name": "account",
          "type": "address"
        }
      ],
      "name": "hasRole",
      "outputs": [
        {
          "internalType": "bool",
          "name": "",
          "type": "bool"
        }
      ],
      "stateMutability": "view",
      "type": "function"
    },
    {
      "inputs": [
        {
          "components": [
            {
              "internalType": "string",
              "name": "title",
              "type": "string"
            },
            {
              "internalType": "string",
              "name": "description",
              "type": "string"
            },
            {
              "internalType": "enum Types.GameType",
              "name": "gameType",
              "type": "uint8"
            },
            {
              "internalType": "address",
              "name": "feeTokenAddress",
              "type": "address"
            },
            {
              "internalType": "uint256",
              "name": "entryFee",
              "type": "uint256"
            },
            {
              "internalType": "uint256",
              "name": "minPlayers",
              "type": "uint256"
            },
            {
              "internalType": "uint256",
              "name": "maxPlayers",
              "type": "uint256"
            },
            {
              "internalType": "uint256",
              "name": "registrationEndTime",
              "type": "uint256"
            },
            {
              "internalType": "uint256",
              "name": "gameStartTime",
              "type": "uint256"
            },
            {
              "internalType": "address",
              "name": "prizeTokenAddress",
              "type": "address"
            },
            {
              "internalType": "uint256",
              "name": "prizePool",
              "type": "uint256"
            },
            {
              "internalType": "enum Types.PrizeDistributionType",
              "name": "distributionType",
              "type": "uint8"
            },
            {
              "internalType": "uint256[]",
              "name": "rankPrizes",
              "type": "uint256[]"
            }
          ],
          "internalType": "struct Types.GameConfig",
          "name": "config",
          "type": "tuple"
        },
        {
          "internalType": "address",
          "name": "_creator",
          "type": "address"
        }
      ],
      "name": "initialize",
      "outputs": [],
      "stateMutability": "nonpayable",
      "type": "function"
    },
    {
      "inputs": [
        {
          "internalType": "address",
          "name": "",
          "type": "address"
        }
      ],
      "name": "isJoined",
      "outputs": [
        {
          "internalType": "bool",
          "name": "",
          "type": "bool"
        }
      ],
      "stateMutability": "view",
      "type": "function"
    },
    {
      "inputs": [],
      "name": "joinGame",
      "outputs": [],
      "stateMutability": "nonpayable",
      "type": "function"
    },
    {
      "inputs": [],
      "name": "maxPlayers",
      "outputs": [
        {
          "internalType": "uint256",
          "name": "",
          "type": "uint256"
        }
      ],
      "stateMutability": "view",
      "type": "function"
    },
    {
      "inputs": [],
      "name": "minPlayers",
      "outputs": [
        {
          "internalType": "uint256",
          "name": "",
          "type": "uint256"
        }
      ],
      "stateMutability": "view",
      "type": "function"
    },
    {
      "inputs": [
        {
          "internalType": "uint256",
          "name": "",
          "type": "uint256"
        }
      ],
      "name": "players",
      "outputs": [
        {
          "internalType": "address",
          "name": "player",
          "type": "address"
        },
        {
          "internalType": "uint256",
          "name": "score",
          "type": "uint256"
        }
      ],
      "stateMutability": "view",
      "type": "function"
    },
    {
      "inputs": [],
      "name": "prizePool",
      "outputs": [
        {
          "internalType": "uint256",
          "name": "",
          "type": "uint256"
        }
      ],
      "stateMutability": "view",
      "type": "function"
    },
    {
      "inputs": [
        {
          "internalType": "address",
          "name": "",
          "type": "address"
        }
      ],
      "name": "prizeToClaimsAmount",
      "outputs": [
        {
          "internalType": "uint256",
          "name": "",
          "type": "uint256"
        }
      ],
      "stateMutability": "view",
      "type": "function"
    },
    {
      "inputs": [],
      "name": "prizeToken",
      "outputs": [
        {
          "internalType": "address",
          "name": "",
          "type": "address"
        }
      ],
      "stateMutability": "view",
      "type": "function"
    },
    {
      "inputs": [
        {
          "internalType": "uint256",
          "name": "",
          "type": "uint256"
        }
      ],
      "name": "rankPrizes",
      "outputs": [
        {
          "internalType": "uint256",
          "name": "",
          "type": "uint256"
        }
      ],
      "stateMutability": "view",
      "type": "function"
    },
    {
      "inputs": [],
      "name": "registrationEndTime",
      "outputs": [
        {
          "internalType": "uint256",
          "name": "",
          "type": "uint256"
        }
      ],
      "stateMutability": "view",
      "type": "function"
    },
    {
      "inputs": [
        {
          "internalType": "bytes32",
          "name": "role",
          "type": "bytes32"
        },
        {
          "internalType": "address",
          "name": "callerConfirmation",
          "type": "address"
        }
      ],
      "name": "renounceRole",
      "outputs": [],
      "stateMutability": "nonpayable",
      "type": "function"
    },
    {
      "inputs": [
        {
          "internalType": "bytes32",
          "name": "role",
          "type": "bytes32"
        },
        {
          "internalType": "address",
          "name": "account",
          "type": "address"
        }
      ],
      "name": "revokeRole",
      "outputs": [],
      "stateMutability": "nonpayable",
      "type": "function"
    },
    {
      "inputs": [
        {
          "internalType": "address",
          "name": "_gameRegistry",
          "type": "address"
        }
      ],
      "name": "setGameRegistry",
      "outputs": [],
      "stateMutability": "nonpayable",
      "type": "function"
    },
    {
      "inputs": [
        {
          "internalType": "address[]",
          "name": "_winners",
          "type": "address[]"
        }
      ],
      "name": "setWinners",
      "outputs": [],
      "stateMutability": "nonpayable",
      "type": "function"
    },
    {
      "inputs": [],
      "name": "startGame",
      "outputs": [],
      "stateMutability": "nonpayable",
      "type": "function"
    },
    {
      "inputs": [],
      "name": "status",
      "outputs": [
        {
          "internalType": "enum Types.GameStatus",
          "name": "",
          "type": "uint8"
        }
      ],
      "stateMutability": "view",
      "type": "function"
    },
    {
      "inputs": [
        {
          "components": [
            {
              "internalType": "enum Types.GameType",
              "name": "gameType",
              "type": "uint8"
            },
            {
              "internalType": "address",
              "name": "player",
              "type": "address"
            },
            {
              "internalType": "uint256",
              "name": "score",
              "type": "uint256"
            },
            {
              "internalType": "uint256",
              "name": "timestamp",
              "type": "uint256"
            },
            {
              "internalType": "bytes32",
              "name": "gameHash",
              "type": "bytes32"
            },
            {
              "internalType": "uint256[]",
              "name": "metadata",
              "type": "uint256[]"
            }
          ],
          "internalType": "struct Types.GameResult",
          "name": "result",
          "type": "tuple"
        }
      ],
      "name": "submitGameResult",
      "outputs": [],
      "stateMutability": "nonpayable",
      "type": "function"
    },
    {
      "inputs": [
        {
          "internalType": "uint256",
          "name": "score",
          "type": "uint256"
        }
      ],
      "name": "submitScore",
      "outputs": [],
      "stateMutability": "nonpayable",
      "type": "function"
    },
    {
      "inputs": [
        {
          "internalType": "bytes4",
          "name": "interfaceId",
          "type": "bytes4"
        }
      ],
      "name": "supportsInterface",
      "outputs": [
        {
          "internalType": "bool",
          "name": "",
          "type": "bool"
        }
      ],
      "stateMutability": "view",
      "type": "function"
    },
    {
      "inputs": [],
      "name": "title",
      "outputs": [
        {
          "internalType": "string",
          "name": "",
          "type": "string"
        }
      ],
      "stateMutability": "view",
      "type": "function"
    },
    {
      "inputs": [
        {
          "internalType": "uint256",
          "name": "",
          "type": "uint256"
        }
      ],
      "name": "winners",
      "outputs": [
        {
          "internalType": "address",
          "name": "",
          "type": "address"
        }
      ],
      "stateMutability": "view",
      "type": "function"
    }
  ],
  "bytecode": "0x608060405234801561001057600080fd5b5061374d806100206000396000f3fe608060405234801561001057600080fd5b50600436106102745760003560e01c806384da242d11610151578063d0ef024a116100c3578063da09075511610087578063da09075514610598578063dd898b2f146105b0578063dff7d2c7146105c3578063e085c539146105cc578063e5a078a7146105f5578063f71d96cb146105fd57600080fd5b8063d0ef024a1461055a578063d4f77b1c1461056d578063d547741f14610575578063d65ab5f214610588578063d84c1ac91461059057600080fd5b8063a59fffcb11610115578063a59fffcb146104dd578063af4e99de146104f0578063aff0b29714610505578063b062e95014610518578063b5545a3c14610538578063bbdc02db1461054057600080fd5b806384da242d146104805780638aeda25a1461049a57806391d14854146104af578063a217fddf146104c2578063a2fb1175146104ca57600080fd5b8063445e6b39116101ea578063647846a5116101ae578063647846a51461043957806370740ac91461044c578063719ce73e146104545780637284e4161461045d57806377b6e504146104655780638233e4331461046d57600080fd5b8063445e6b39146103d25780634a79d50c146103e55780634c2412a2146103fa578063554c925c146104035780635e6a43f51461041657600080fd5b80631d75d7c21161023c5780631d75d7c21461030c578063200d2ed214610364578063248a9ca31461037e5780632770c895146103a15780632f2ff15d146103aa57806336568abe146103bf57600080fd5b806301ffc9a7146102795780630252b995146102a157806302d05d3f146102b8578063072ea61c146102e3578063140d6b94146102ec575b600080fd5b61028c610287366004612a19565b61061e565b60405190151581526020015b60405180910390f35b6102aa60095481565b604051908152602001610298565b6002546102cb906001600160a01b031681565b6040516001600160a01b039091168152602001610298565b6102aa600b5481565b6102ff6102fa366004612a6f565b610655565b6040516102989190612ab6565b61035361031a366004612a6f565b601660205260009081526040902080546001820154600283015460039093015460ff8316936101009093046001600160a01b0316929085565b604051610298959493929190612b4a565b6012546103719060ff1681565b6040516102989190612b94565b6102aa61038c366004612ba2565b60009081526020819052604090206001015490565b6102aa60065481565b6103bd6103b8366004612bbb565b610797565b005b6103bd6103cd366004612bbb565b6107c2565b6103bd6103e0366004612beb565b6107fa565b6103ed610952565b6040516102989190612ca6565b6102aa60075481565b6103bd610411366004612cb9565b6109e0565b61028c610424366004612a6f565b60146020526000908152604090205460ff1681565b600a546102cb906001600160a01b031681565b6103bd610d16565b6102aa600e5481565b6103ed610e46565b6103bd610e53565b6102aa61047b366004612ba2565b611357565b600f5461048d9060ff1681565b6040516102989190612cf4565b6102aa6000805160206136f883398151915281565b61028c6104bd366004612bbb565b611378565b6102aa600081565b6102cb6104d8366004612ba2565b6113a1565b6103bd6104eb366004612e96565b6113cb565b6104f86117be565b6040516102989190612fe6565b6103bd610513366004612ba2565b6119b9565b6102aa610526366004612a6f565b60116020526000908152604090205481565b6103bd611ad1565b60055461054d9060ff1681565b60405161029891906130ec565b600d546102cb906001600160a01b031681565b6103bd611c50565b6103bd610583366004612bbb565b611f2f565b6103bd611f54565b6103bd6120b1565b6001546102cb9061010090046001600160a01b031681565b6103bd6105be366004612a6f565b61227a565b6102aa60085481565b6102aa6105da366004612a6f565b6001600160a01b031660009081526015602052604090205490565b6103bd612304565b61061061060b366004612ba2565b612716565b6040516102989291906130fa565b60006001600160e01b03198216637965db0b60e01b148061064f57506301ffc9a760e01b6001600160e01b03198316145b92915050565b61069b6040805160c08101909152806000815260200160006001600160a01b03168152602001600081526020016000815260200160008019168152602001606081525090565b6001600160a01b03821660009081526016602052604090819020815160c081019092528054829060ff1660038111156106d6576106d6612a8c565b60038111156106e7576106e7612a8c565b81526020016000820160019054906101000a90046001600160a01b03166001600160a01b03166001600160a01b031681526020016001820154815260200160028201548152602001600382015481526020016004820180548060200260200160405190810160405280929190818152602001828054801561078757602002820191906000526020600020905b815481526020019060010190808311610773575b5050505050815250509050919050565b6000828152602081905260409020600101546107b28161274e565b6107bc838361275b565b50505050565b6001600160a01b03811633146107eb5760405163334bd91960e11b815260040160405180910390fd5b6107f582826127ed565b505050565b6000805160206136f88339815191526108128161274e565b600160125460ff16600481111561082b5761082b612a8c565b146108515760405162461bcd60e51b815260040161084890613113565b60405180910390fd5b60005b828110156108f857601460008585848181106108725761087261313d565b90506020020160208101906108879190612a6f565b6001600160a01b0316815260208101919091526040016000205460ff166108f05760405162461bcd60e51b815260206004820152601860248201527f54686572652069732077696e6e6572206e6f74206a6f696e00000000000000006044820152606401610848565b600101610854565b50610905601784846128d2565b506012805460ff191660021790556040517f8451dabc49a0b82cffb0a79a6771fe2718264aae54a4eff4d4463748813ec56f906109459085908590613153565b60405180910390a1505050565b6003805461095f90613196565b80601f016020809104026020016040519081016040528092919081815260200182805461098b90613196565b80156109d85780601f106109ad576101008083540402835291602001916109d8565b820191906000526020600020905b8154815290600101906020018083116109bb57829003601f168201915b505050505081565b600160125460ff1660048111156109f9576109f9612a8c565b14610a165760405162461bcd60e51b815260040161084890613113565b600954421015610a635760405162461bcd60e51b815260206004820152601860248201527711d85b59481a185cc81b9bdd081cdd185c9d1959081e595d60421b6044820152606401610848565b3360009081526014602052604090205460ff16610ab65760405162461bcd60e51b8152602060048201526011602482015270141b185e595c881b9bdd081a9bda5b9959607a1b6044820152606401610848565b60055460ff166003811115610acd57610acd612a8c565b610ada60208301836131d0565b6003811115610aeb57610aeb612a8c565b14610b2d5760405162461bcd60e51b815260206004820152601260248201527108ec2daca40e8f2e0ca40dad2e6dac2e8c6d60731b6044820152606401610848565b33610b3e6040830160208401612a6f565b6001600160a01b031614610b945760405162461bcd60e51b815260206004820152601760248201527f506c617965722061646472657373206d69736d617463680000000000000000006044820152606401610848565b60015461010090046001600160a01b0316610be85760405162461bcd60e51b815260206004820152601460248201527311d85b59549959da5cdd1c9e481b9bdd081cd95d60621b6044820152606401610848565b6001546040516335c34ae960e01b81526101009091046001600160a01b03169060009082906335c34ae990610c2190869060040161321f565b6020604051808303816000875af1158015610c40573d6000803e3d6000fd5b505050506040513d601f19601f82011682018060405250810190610c6491906132dc565b905080610cb35760405162461bcd60e51b815260206004820152601f60248201527f47616d6520726573756c7420766572696669636174696f6e206661696c6564006044820152606401610848565b336000908152601560209081526040808320818701359055601690915290208390610cde828261341a565b9050507fa578df9b0453d14d7ed8615ee0e9d58f70e041e91fc5865e3b71f81ea05296c03384604001356040516109459291906130fa565b3360009081526011602052604090205480610d675760405162461bcd60e51b81526020600482015260116024820152704e6f207072697a6520746f20636c61696d60781b6044820152606401610848565b3360008181526011602052604080822091909155600d54905163a9059cbb60e01b81526001600160a01b039091169163a9059cbb91610dab919085906004016130fa565b6020604051808303816000875af1158015610dca573d6000803e3d6000fd5b505050506040513d601f19601f82011682018060405250810190610dee91906132dc565b610e0a5760405162461bcd60e51b8152600401610848906134b0565b7fb8e091d87f82e56d22276c9a0088ea5d6068e355383dc08b2721b7b6cb10e8453382604051610e3b9291906130fa565b60405180910390a150565b6004805461095f90613196565b6000805160206136f8833981519152610e6b8161274e565b600260125460ff166004811115610e8457610e84612a8c565b14610ec25760405162461bcd60e51b815260206004820152600e60248201526d11d85b59481b9bdd08195b99195960921b6044820152606401610848565b601754610f025760405162461bcd60e51b815260206004820152600e60248201526d139bc81dda5b9b995c9cc81cd95d60921b6044820152606401610848565b6000600e5411610f4a5760405162461bcd60e51b81526020600482015260136024820152725072697a6520706f6f6c20697320656d70747960681b6044820152606401610848565b600e805460009182905590600f5460ff166002811115610f6c57610f6c612a8c565b03610fc95780601160006017600081548110610f8a57610f8a61313d565b60009182526020808320909101546001600160a01b0316835282019290925260400181208054909190610fbe9084906134d9565b909155506113469050565b6001600f5460ff166002811115610fe257610fe2612a8c565b03611133576013546000610ff68284613502565b905060006110048385613516565b905060005b8381101561107557600083905080601160006013858154811061102e5761102e61313d565b600091825260208083206002909202909101546001600160a01b03168352820192909252604001812080549091906110679084906134d9565b909155505050600101611009565b50600d5460025460405163a9059cbb60e01b81526001600160a01b039283169263a9059cbb926110ac9291169085906004016130fa565b6020604051808303816000875af11580156110cb573d6000803e3d6000fd5b505050506040513d601f19601f820116820180604052508101906110ef91906132dc565b61112b5760405162461bcd60e51b815260206004820152600d60248201526c1499599d5b990819985a5b1959609a1b6044820152606401610848565b505050611346565b6002600f5460ff16600281111561114c5761114c612a8c565b036113465760105460175411156111bb5760405162461bcd60e51b815260206004820152602d60248201527f57696e6e657273206c69737420657863656564732072616e6b207072697a652060448201526c31b7b73334b3bab930ba34b7b760991b6064820152608401610848565b6000805b601754811015611250576000601082815481106111de576111de61313d565b906000526020600020015490506000811161123b5760405162461bcd60e51b815260206004820152601d60248201527f4d697373696e67207072697a6520636f6e66696720666f722072616e6b0000006044820152606401610848565b61124581846134d9565b9250506001016111bf565b5061271081111561129c5760405162461bcd60e51b81526020600482015260166024820152755072697a65204250532065786365656473203130302560501b6044820152606401610848565b60005b601754811015611343576000601082815481106112be576112be61313d565b600091825260208220015491506127106112d88387613365565b6112e29190613502565b90508060116000601786815481106112fc576112fc61313d565b60009182526020808320909101546001600160a01b03168352820192909252604001812080549091906113309084906134d9565b90915550506001909201915061129f9050565b50505b50506012805460ff19166003179055565b6010818154811061136757600080fd5b600091825260209091200154905081565b6000918252602082815260408084206001600160a01b0393909316845291905290205460ff1690565b601781815481106113b157600080fd5b6000918252602090912001546001600160a01b0316905081565b60015460ff16156114145760405162461bcd60e51b8152602060048201526013602482015272105b1c9958591e481a5b9a5d1a585b1a5e9959606a1b6044820152606401610848565b6001805460ff19168117905560e082015142106114735760405162461bcd60e51b815260206004820152601960248201527f52656720656e64206d75737420626520696e20667574757265000000000000006044820152606401610848565b8160e0015182610100015110156114cc5760405162461bcd60e51b815260206004820152601e60248201527f47616d65206d7573742073746172742061667465722072656720656e647300006044820152606401610848565b8160a001518260c0015110156115195760405162461bcd60e51b815260206004820152601260248201527126b0bc1036bab9ba103132901f1e9026b4b760711b6044820152606401610848565b600280546001600160a01b0319166001600160a01b0383161790558151600390611543908261356a565b506020820151600490611556908261356a565b506012805460ff199081169091556040830151600580549192909116600183600381111561158657611586612a8c565b02179055506060820151600a80546001600160a01b039283166001600160a01b0319918216179091556080840151600b5560a084015160065560c084015160075560e0840151600855610100840151600955610120840151600d8054919093169116179055610140820151600e55610160820151600f805460ff1916600183600281111561161657611616612a8c565b0217905550610180820151805161163591601091602090910190612935565b506002826101600151600281111561164f5761164f612a8c565b0361174257610180820151516010546116aa5760405162461bcd60e51b815260206004820152601f60248201527f437573746f6d2072616e6b20636f6e66696720666f726d6174206572726f72006044820152606401610848565b6000805b828110156116f357601081815481106116c9576116c961313d565b9060005260206000200154826116df91906134d9565b91506116ec6001826134d9565b90506116ae565b5061271081111561173f5760405162461bcd60e51b81526020600482015260166024820152755072697a65204250532065786365656473203130302560501b6044820152606401610848565b50505b61174d60008261275b565b506117666000805160206136f88339815191528261275b565b506117806000805160206136f88339815191526000612858565b7fc66e6cd41f805f65978f5241034e8d106c42cf3c7a4d62ccd857646b401cbe4a8160036040516117b292919061362e565b60405180910390a15050565b6117c6612970565b6117ce612970565b6002546001600160a01b03168152600380546117e990613196565b80601f016020809104026020016040519081016040528092919081815260200182805461181590613196565b80156118625780601f1061183757610100808354040283529160200191611862565b820191906000526020600020905b81548152906001019060200180831161184557829003601f168201915b505050505081602001819052506004805461187c90613196565b80601f01602080910402602001604051908101604052809291908181526020018280546118a890613196565b80156118f55780601f106118ca576101008083540402835291602001916118f5565b820191906000526020600020905b8154815290600101906020018083116118d857829003601f168201915b50505050506040820152601254606082019060ff16600481111561191b5761191b612a8c565b9081600481111561192e5761192e612a8c565b905250600554608082019060ff16600381111561194d5761194d612a8c565b9081600381111561196057611960612a8c565b90525060075460a082015260135460c082015260085460e0820152600954610100820152600b54610140820152600a546001600160a01b03908116610120830152600e54610180830152600d5416610160820152919050565b600160125460ff1660048111156119d2576119d2612a8c565b146119ef5760405162461bcd60e51b815260040161084890613113565b600954421015611a3c5760405162461bcd60e51b815260206004820152601860248201527711d85b59481a185cc81b9bdd081cdd185c9d1959081e595d60421b6044820152606401610848565b3360009081526014602052604090205460ff16611a8f5760405162461bcd60e51b8152602060048201526011602482015270141b185e595c881b9bdd081a9bda5b9959607a1b6044820152606401610848565b3360008181526015602052604090819020839055517fa578df9b0453d14d7ed8615ee0e9d58f70e041e91fc5865e3b71f81ea05296c091610e3b9184906130fa565b600460125460ff166004811115611aea57611aea612a8c565b14611b2b5760405162461bcd60e51b815260206004820152601160248201527011d85b59481b9bdd0818d85b98d95b1959607a1b6044820152606401610848565b336000908152600c602052604090205480611b7c5760405162461bcd60e51b81526020600482015260116024820152704e6f207072697a6520746f20636c61696d60781b6044820152606401610848565b336000818152600c602052604080822091909155600a54905163a9059cbb60e01b81526001600160a01b039091169163a9059cbb91611bc0919085906004016130fa565b6020604051808303816000875af1158015611bdf573d6000803e3d6000fd5b505050506040513d601f19601f82011682018060405250810190611c0391906132dc565b611c1f5760405162461bcd60e51b8152600401610848906134b0565b7feb4706597fb7a2e8806c0e31ad4c334330a97bc3cae6b9c360e152c922bb40c83382604051610e3b9291906130fa565b600060125460ff166004811115611c6957611c69612a8c565b14611cb65760405162461bcd60e51b815260206004820152601a60248201527f47616d65206e6f7420616363657074696e6720706c61796572730000000000006044820152606401610848565b6008544210611d075760405162461bcd60e51b815260206004820152601860248201527f526567697374726174696f6e2074696d652070617373656400000000000000006044820152606401610848565b60075460135410611d505760405162461bcd60e51b815260206004820152601360248201527213585e081c1b185e595c9cc81c995858da1959606a1b6044820152606401610848565b3360009081526014602052604090205460ff1615611da15760405162461bcd60e51b815260206004820152600e60248201526d105b1c9958591e481a9bda5b995960921b6044820152606401610848565b600b5415611e4457600a54600b546040516323b872dd60e01b815233600482015230602482015260448101919091526001600160a01b03909116906323b872dd906064016020604051808303816000875af1158015611e04573d6000803e3d6000fd5b505050506040513d601f19601f82011682018060405250810190611e2891906132dc565b611e445760405162461bcd60e51b8152600401610848906134b0565b6040805180820182523380825260006020808401828152601380546001808201835591855295517f66de8ffda797e3de9c05e8fc57b3bf0ec28a930d40b0d285d93c06501cf6a090600290970296870180546001600160a01b0319166001600160a01b0390921691909117905590517f66de8ffda797e3de9c05e8fc57b3bf0ec28a930d40b0d285d93c06501cf6a09190950194909455600b54838352600c8252858320556014815290849020805460ff191690931790925591519182527f31e760aa525306aba638a784082a013b6a1cc0a9a1789f3f22281c0453b10b1f910160405180910390a1565b600082815260208190526040902060010154611f4a8161274e565b6107bc83836127ed565b6000805160206136f8833981519152611f6c8161274e565b600060125460ff166004811115611f8557611f85612a8c565b14611fd25760405162461bcd60e51b815260206004820152601a60248201527f47616d65206e6f7420696e2043726561746564207374617475730000000000006044820152606401610848565b6008544210156120245760405162461bcd60e51b815260206004820152601c60248201527f526567697374726174696f6e206973206e6f74206f76657220796574000000006044820152606401610848565b60065460135410156120785760405162461bcd60e51b815260206004820152601b60248201527f4e6f7420656e6f75676820706c617965727320746f20737461727400000000006044820152606401610848565b6012805460ff191660011790556040517f762f260439bb4be3ef6e4dc2786e2e7bd187d3d80b79057d7a424fe98563e33590600090a150565b6000805160206136f88339815191526120c98161274e565b600060125460ff1660048111156120e2576120e2612a8c565b14806121045750600160125460ff16600481111561210257612102612a8c565b145b6121635760405162461bcd60e51b815260206004820152602a60248201527f43616e6e6f742063616e63656c20616e20656e646564206f722064697374726960448201526962757465642067616d6560b01b6064820152608401610848565b600e805460009091556012805460ff19166004179055801561223457600d5460025460405163a9059cbb60e01b81526001600160a01b039283169263a9059cbb926121b59291169085906004016130fa565b6020604051808303816000875af11580156121d4573d6000803e3d6000fd5b505050506040513d601f19601f820116820180604052508101906121f891906132dc565b6122345760405162461bcd60e51b815260206004820152600d60248201526c1499599d5b990819985a5b1959609a1b6044820152606401610848565b6002546040518281526001600160a01b03909116907fcabd9ffa4ff52290e56c52a9ed671760a0e5951eaa234fd9e0ccccf507bf98ca9060200160405180910390a25050565b60006122858161274e565b6001600160a01b0382166122db5760405162461bcd60e51b815260206004820152601d60248201527f496e76616c69642067616d6520726567697374727920616464726573730000006044820152606401610848565b50600180546001600160a01b0390921661010002610100600160a81b0319909216919091179055565b600854339042106123575760405162461bcd60e51b815260206004820152601960248201527f526567697374726174696f6e2074696d65206973206f766572000000000000006044820152606401610848565b600060125460ff16600481111561237057612370612a8c565b146123bd5760405162461bcd60e51b815260206004820181905260248201527f47616d6520697320616c7265616479206f6e676f696e67206f7220656e6465646044820152606401610848565b6001600160a01b0381166000908152600c6020526040902054806124395760405162461bcd60e51b815260206004820152602d60248201527f506c6179657220686173206e6f74206a6f696e6564206f722066656520616c7260448201526c1958591e481c99599d5b991959609a1b6064820152608401610848565b600080805b60135481101561249857846001600160a01b0316601382815481106124655761246561313d565b60009182526020909120600290910201546001600160a01b0316036124905780925060019150612498565b60010161243e565b50806124f75760405162461bcd60e51b815260206004820152602860248201527f496e7465726e616c206572726f723a20506c61796572206e6f7420666f756e64604482015267081a5b881b1a5cdd60c21b6064820152608401610848565b601354600090612509906001906136ce565b905080831461257f57601381815481106125255761252561313d565b9060005260206000209060020201601384815481106125465761254661313d565b60009182526020909120825460029092020180546001600160a01b0319166001600160a01b039092169190911781556001918201549101555b6013805480612590576125906136e1565b6000828152602080822060026000199094019384020180546001600160a01b0319168155600101829055919092556001600160a01b0387168252600c905260408120819055600e80548692906125e79084906136ce565b90915550506001600160a01b038086166000908152601460209081526040808320805460ff19169055601590915280822091909155600a54905163a9059cbb60e01b815291169063a9059cbb9061264490889088906004016130fa565b6020604051808303816000875af1158015612663573d6000803e3d6000fd5b505050506040513d601f19601f8201168201806040525081019061268791906132dc565b6126cc5760405162461bcd60e51b81526020600482015260166024820152751499599d5b99081d1c985b9cd9995c8819985a5b195960521b6044820152606401610848565b846001600160a01b03167fbddaec5e3db6d33ac9b0043f3c92cf3d081b19f8646f372eb3a68a51e273a1048560405161270791815260200190565b60405180910390a25050505050565b6013818154811061272657600080fd5b6000918252602090912060029091020180546001909101546001600160a01b03909116915082565b61275881336128a3565b50565b60006127678383611378565b6127e5576000838152602081815260408083206001600160a01b03861684529091529020805460ff1916600117905561279d3390565b6001600160a01b0316826001600160a01b0316847f2f8788117e7eff1d82e926ec794901d17c78024a50270940304540a733656f0d60405160405180910390a450600161064f565b50600061064f565b60006127f98383611378565b156127e5576000838152602081815260408083206001600160a01b0386168085529252808320805460ff1916905551339286917ff6391f5c32d9c69d2a47ea670b442974b53935d1edc7fd64eb21e047a839171b9190a450600161064f565b600082815260208190526040808220600101805490849055905190918391839186917fbd79b86ffe0ab8e8776151514217cd7cacd52c909f66475c3af44e129f0b00ff9190a4505050565b6128ad8282611378565b6128ce57808260405163e2517d3f60e01b81526004016108489291906130fa565b5050565b828054828255906000526020600020908101928215612925579160200282015b828111156129255781546001600160a01b0319166001600160a01b038435161782556020909201916001909101906128f2565b50612931929150612a04565b5090565b828054828255906000526020600020908101928215612925579160200282015b82811115612925578251825591602001919060010190612955565b604051806101a0016040528060006001600160a01b031681526020016060815260200160608152602001600060048111156129ad576129ad612a8c565b8152602001600081526020016000815260200160008152602001600081526020016000815260200160006001600160a01b031681526020016000815260200160006001600160a01b03168152602001600081525090565b5b808211156129315760008155600101612a05565b600060208284031215612a2b57600080fd5b81356001600160e01b031981168114612a4357600080fd5b9392505050565b6001600160a01b038116811461275857600080fd5b8035612a6a81612a4a565b919050565b600060208284031215612a8157600080fd5b8135612a4381612a4a565b634e487b7160e01b600052602160045260246000fd5b60048110612ab257612ab2612a8c565b9052565b6000602080835260e08301612ace8285018651612aa2565b60018060a01b03828601511660408501526040850151606085015260608501516080850152608085015160a085015260a085015160c080860152818151808452610100870191508483019350600092505b80831015612b3f5783518252928401926001929092019190840190612b1f565b509695505050505050565b60a08101612b588288612aa2565b6001600160a01b0395909516602082015260408101939093526060830191909152608090910152919050565b60058110612ab257612ab2612a8c565b6020810161064f8284612b84565b600060208284031215612bb457600080fd5b5035919050565b60008060408385031215612bce57600080fd5b823591506020830135612be081612a4a565b809150509250929050565b60008060208385031215612bfe57600080fd5b823567ffffffffffffffff80821115612c1657600080fd5b818501915085601f830112612c2a57600080fd5b813581811115612c3957600080fd5b8660208260051b8501011115612c4e57600080fd5b60209290920196919550909350505050565b6000815180845260005b81811015612c8657602081850181015186830182015201612c6a565b506000602082860101526020601f19601f83011685010191505092915050565b602081526000612a436020830184612c60565b600060208284031215612ccb57600080fd5b813567ffffffffffffffff811115612ce257600080fd5b820160c08185031215612a4357600080fd5b6020810160038310612d0857612d08612a8c565b91905290565b634e487b7160e01b600052604160045260246000fd5b6040516101a0810167ffffffffffffffff81118282101715612d4857612d48612d0e565b60405290565b604051601f8201601f1916810167ffffffffffffffff81118282101715612d7757612d77612d0e565b604052919050565b600082601f830112612d9057600080fd5b813567ffffffffffffffff811115612daa57612daa612d0e565b612dbd601f8201601f1916602001612d4e565b818152846020838601011115612dd257600080fd5b816020850160208301376000918101602001919091529392505050565b6004811061275857600080fd5b8035612a6a81612def565b803560038110612a6a57600080fd5b600082601f830112612e2757600080fd5b8135602067ffffffffffffffff821115612e4357612e43612d0e565b8160051b612e52828201612d4e565b9283528481018201928281019087851115612e6c57600080fd5b83870192505b84831015612e8b57823582529183019190830190612e72565b979650505050505050565b60008060408385031215612ea957600080fd5b823567ffffffffffffffff80821115612ec157600080fd5b908401906101a08287031215612ed657600080fd5b612ede612d24565b823582811115612eed57600080fd5b612ef988828601612d7f565b825250602083013582811115612f0e57600080fd5b612f1a88828601612d7f565b602083015250612f2c60408401612dfc565b6040820152612f3d60608401612a5f565b60608201526080830135608082015260a083013560a082015260c083013560c082015260e083013560e0820152610100808401358183015250610120612f84818501612a5f565b908201526101408381013590820152610160612fa1818501612e07565b908201526101808381013583811115612fb957600080fd5b612fc589828701612e16565b828401525050809450505050612fdd60208401612a5f565b90509250929050565b602081526130006020820183516001600160a01b03169052565b600060208301516101a080604085015261301e6101c0850183612c60565b91506040850151601f1985840301606086015261303b8382612c60565b92505060608501516130506080860182612b84565b50608085015161306360a0860182612aa2565b5060a085015160c085015260c085015160e085015260e08501516101008181870152808701519150506101208181870152808701519150506101406130b2818701836001600160a01b03169052565b8601516101608681019190915286015190506101806130db818701836001600160a01b03169052565b959095015193019290925250919050565b6020810161064f8284612aa2565b6001600160a01b03929092168252602082015260400190565b60208082526010908201526f47616d65206e6f74206f6e676f696e6760801b604082015260600190565b634e487b7160e01b600052603260045260246000fd5b60208082528181018390526000908460408401835b86811015612b3f57823561317b81612a4a565b6001600160a01b031682529183019190830190600101613168565b600181811c908216806131aa57607f821691505b6020821081036131ca57634e487b7160e01b600052602260045260246000fd5b50919050565b6000602082840312156131e257600080fd5b8135612a4381612def565b81835260006001600160fb1b0383111561320657600080fd5b8260051b80836020870137939093016020019392505050565b602081526000823561323081612def565b61323d6020840182612aa2565b50602083013561324c81612a4a565b60018060a01b0381166040840152506040830135606083015260608301356080830152608083013560a083015260a0830135601e1984360301811261329057600080fd5b830160208101903567ffffffffffffffff8111156132ad57600080fd5b8060051b36038213156132bf57600080fd5b60c0808501526132d360e0850182846131ed565b95945050505050565b6000602082840312156132ee57600080fd5b81518015158114612a4357600080fd5b6000808335601e1984360301811261331557600080fd5b83018035915067ffffffffffffffff82111561333057600080fd5b6020019150600581901b360382131561334857600080fd5b9250929050565b634e487b7160e01b600052601160045260246000fd5b808202811582820484141761064f5761064f61334f565b5b818110156128ce576000815560010161337d565b67ffffffffffffffff8311156133a9576133a9612d0e565b680100000000000000008311156133c2576133c2612d0e565b8054838255808410156133e8578160005260206000206133e682820186830161337c565b505b50818160005260208060002060005b8681101561341157833582820155928201926001016133f7565b50505050505050565b813561342581612def565b6004811061343557613435612a8c565b815460ff821691508160ff198216178355602084013561345481612a4a565b6001600160a81b03199190911690911760089190911b610100600160a81b03161781556040820135600182015560608201356002820155608082013560038201556134a260a08301836132fe565b6107bc818360048601613391565b6020808252600f908201526e151c985b9cd9995c8819985a5b1959608a1b604082015260600190565b8082018082111561064f5761064f61334f565b634e487b7160e01b600052601260045260246000fd5b600082613511576135116134ec565b500490565b600082613525576135256134ec565b500690565b601f8211156107f557806000526020600020601f840160051c810160208510156135515750805b613563601f850160051c83018261337c565b5050505050565b815167ffffffffffffffff81111561358457613584612d0e565b613598816135928454613196565b8461352a565b602080601f8311600181146135cd57600084156135b55750858301515b600019600386901b1c1916600185901b178555613626565b600085815260208120601f198616915b828110156135fc578886015182559484019460019091019084016135dd565b508582101561361a5787850151600019600388901b60f8161c191681555b505060018460011b0185555b505050505050565b60018060a01b038316815260006020604060208401526000845461365181613196565b8060408701526060600180841660008114613673576001811461368f576136bf565b60ff19851660608a0152606084151560051b8a010195506136bf565b89600052602060002060005b858110156136b65781548b820186015290830190880161369b565b8a016060019650505b50939998505050505050505050565b8181038181111561064f5761064f61334f565b634e487b7160e01b600052603160045260246000fdfe828634d95e775031b9ff576b159a8509d3053581a8c9c4d7d86899e0afcd882fa2646970667358221220ec9a8bad1e9de04757427f976aa3e00c8723fd7afc6130fa4eadd29d76457b3164736f6c63430008180033",
  "linkReferences": {},
  "deployedLinkReferences": {}
}