{
  "_format": "hh-sol-artifact-1",
  "contractName": "GameInstance",
  "sourceName": "contracts/GameInstance.sol",
  "abi": [
    {
      "inputs": [],
      "name": "AccessControlBadConfirmation",
      "type": "error"
    },
    {
      "inputs": [
        {
          "internalType": "address",
          "name": "account",
          "type": "address"
        },
        {
          "internalType": "bytes32",
          "name": "neededRole",
          "type": "bytes32"
        }
      ],
      "name": "AccessControlUnauthorizedAccount",
      "type": "error"
    },
    {
      "anonymous": false,
      "inputs": [
        {
          "indexed": false,
          "internalType": "address",
          "name": "player",
          "type": "address"
        },
        {
          "indexed": false,
          "internalType": "uint256",
          "name": "amount",
          "type": "uint256"
        }
      ],
      "name": "FeeRefund",
      "type": "event"
    },
    {
      "anonymous": false,
      "inputs": [
        {
          "indexed": true,
          "internalType": "address",
          "name": "creator",
          "type": "address"
        },
        {
          "indexed": false,
          "internalType": "uint256",
          "name": "refundAmount",
          "type": "uint256"
        }
      ],
      "name": "GameCanceled",
      "type": "event"
    },
    {
      "anonymous": false,
      "inputs": [],
      "name": "GameStarted",
      "type": "event"
    },
    {
      "anonymous": false,
      "inputs": [
        {
          "indexed": false,
          "internalType": "address",
          "name": "creator",
          "type": "address"
        },
        {
          "indexed": false,
          "internalType": "string",
          "name": "title",
          "type": "string"
        }
      ],
      "name": "Initialized",
      "type": "event"
    },
    {
      "anonymous": false,
      "inputs": [
        {
          "indexed": false,
          "internalType": "address",
          "name": "player",
          "type": "address"
        }
      ],
      "name": "PlayerJoined",
      "type": "event"
    },
    {
      "anonymous": false,
      "inputs": [
        {
          "indexed": true,
          "internalType": "address",
          "name": "player",
          "type": "address"
        },
        {
          "indexed": false,
          "internalType": "uint256",
          "name": "feeRefunded",
          "type": "uint256"
        }
      ],
      "name": "PlayerUnregistered",
      "type": "event"
    },
    {
      "anonymous": false,
      "inputs": [
        {
          "indexed": false,
          "internalType": "address",
          "name": "winner",
          "type": "address"
        },
        {
          "indexed": false,
          "internalType": "uint256",
          "name": "amount",
          "type": "uint256"
        }
      ],
      "name": "PrizeDistributed",
      "type": "event"
    },
    {
      "anonymous": false,
      "inputs": [
        {
          "indexed": true,
          "internalType": "bytes32",
          "name": "role",
          "type": "bytes32"
        },
        {
          "indexed": true,
          "internalType": "bytes32",
          "name": "previousAdminRole",
          "type": "bytes32"
        },
        {
          "indexed": true,
          "internalType": "bytes32",
          "name": "newAdminRole",
          "type": "bytes32"
        }
      ],
      "name": "RoleAdminChanged",
      "type": "event"
    },
    {
      "anonymous": false,
      "inputs": [
        {
          "indexed": true,
          "internalType": "bytes32",
          "name": "role",
          "type": "bytes32"
        },
        {
          "indexed": true,
          "internalType": "address",
          "name": "account",
          "type": "address"
        },
        {
          "indexed": true,
          "internalType": "address",
          "name": "sender",
          "type": "address"
        }
      ],
      "name": "RoleGranted",
      "type": "event"
    },
    {
      "anonymous": false,
      "inputs": [
        {
          "indexed": true,
          "internalType": "bytes32",
          "name": "role",
          "type": "bytes32"
        },
        {
          "indexed": true,
          "internalType": "address",
          "name": "account",
          "type": "address"
        },
        {
          "indexed": true,
          "internalType": "address",
          "name": "sender",
          "type": "address"
        }
      ],
      "name": "RoleRevoked",
      "type": "event"
    },
    {
      "anonymous": false,
      "inputs": [
        {
          "indexed": false,
          "internalType": "address",
          "name": "player",
          "type": "address"
        },
        {
          "indexed": false,
          "internalType": "uint256",
          "name": "score",
          "type": "uint256"
        }
      ],
      "name": "ScoreSubmitted",
      "type": "event"
    },
    {
      "anonymous": false,
      "inputs": [
        {
          "indexed": false,
          "internalType": "address[]",
          "name": "winner",
          "type": "address[]"
        }
      ],
      "name": "WinnersSet",
      "type": "event"
    },
    {
      "inputs": [],
      "name": "CREATOR_ROLE",
      "outputs": [
        {
          "internalType": "bytes32",
          "name": "",
          "type": "bytes32"
        }
      ],
      "stateMutability": "view",
      "type": "function"
    },
    {
      "inputs": [],
      "name": "DEFAULT_ADMIN_ROLE",
      "outputs": [
        {
          "internalType": "bytes32",
          "name": "",
          "type": "bytes32"
        }
      ],
      "stateMutability": "view",
      "type": "function"
    },
    {
      "inputs": [],
      "name": "PLATFORM_ROLE",
      "outputs": [
        {
          "internalType": "bytes32",
          "name": "",
          "type": "bytes32"
        }
      ],
      "stateMutability": "view",
      "type": "function"
    },
    {
      "inputs": [],
      "name": "cancelGame",
      "outputs": [],
      "stateMutability": "nonpayable",
      "type": "function"
    },
    {
      "inputs": [],
      "name": "cancelRegistration",
      "outputs": [],
      "stateMutability": "nonpayable",
      "type": "function"
    },
    {
      "inputs": [],
      "name": "claimPrize",
      "outputs": [],
      "stateMutability": "nonpayable",
      "type": "function"
    },
    {
      "inputs": [],
      "name": "claimRefund",
      "outputs": [],
      "stateMutability": "nonpayable",
      "type": "function"
    },
    {
      "inputs": [],
      "name": "creator",
      "outputs": [
        {
          "internalType": "address",
          "name": "",
          "type": "address"
        }
      ],
      "stateMutability": "view",
      "type": "function"
    },
    {
      "inputs": [],
      "name": "creatorPrizePool",
      "outputs": [
        {
          "internalType": "uint256",
          "name": "",
          "type": "uint256"
        }
      ],
      "stateMutability": "view",
      "type": "function"
    },
    {
      "inputs": [],
      "name": "description",
      "outputs": [
        {
          "internalType": "string",
          "name": "",
          "type": "string"
        }
      ],
      "stateMutability": "view",
      "type": "function"
    },
    {
      "inputs": [],
      "name": "distributePrize",
      "outputs": [],
      "stateMutability": "nonpayable",
      "type": "function"
    },
    {
      "inputs": [],
      "name": "distributionType",
      "outputs": [
        {
          "internalType": "enum Types.PrizeDistributionType",
          "name": "",
          "type": "uint8"
        }
      ],
      "stateMutability": "view",
      "type": "function"
    },
    {
      "inputs": [],
      "name": "entryFee",
      "outputs": [
        {
          "internalType": "uint256",
          "name": "",
          "type": "uint256"
        }
      ],
      "stateMutability": "view",
      "type": "function"
    },
    {
      "inputs": [],
      "name": "feeToken",
      "outputs": [
        {
          "internalType": "address",
          "name": "",
          "type": "address"
        }
      ],
      "stateMutability": "view",
      "type": "function"
    },
    {
      "inputs": [],
      "name": "gameFactory",
      "outputs": [
        {
          "internalType": "address",
          "name": "",
          "type": "address"
        }
      ],
      "stateMutability": "view",
      "type": "function"
    },
    {
      "inputs": [],
      "name": "gameRegistry",
      "outputs": [
        {
          "internalType": "address",
          "name": "",
          "type": "address"
        }
      ],
      "stateMutability": "view",
      "type": "function"
    },
    {
      "inputs": [
        {
          "internalType": "address",
          "name": "",
          "type": "address"
        }
      ],
      "name": "gameResults",
      "outputs": [
        {
          "internalType": "enum Types.GameType",
          "name": "gameType",
          "type": "uint8"
        },
        {
          "internalType": "address",
          "name": "player",
          "type": "address"
        },
        {
          "internalType": "uint256",
          "name": "score",
          "type": "uint256"
        },
        {
          "internalType": "uint256",
          "name": "timestamp",
          "type": "uint256"
        },
        {
          "internalType": "bytes32",
          "name": "gameHash",
          "type": "bytes32"
        }
      ],
      "stateMutability": "view",
      "type": "function"
    },
    {
      "inputs": [],
      "name": "gameStartTime",
      "outputs": [
        {
          "internalType": "uint256",
          "name": "",
          "type": "uint256"
        }
      ],
      "stateMutability": "view",
      "type": "function"
    },
    {
      "inputs": [],
      "name": "gameType",
      "outputs": [
        {
          "internalType": "enum Types.GameType",
          "name": "",
          "type": "uint8"
        }
      ],
      "stateMutability": "view",
      "type": "function"
    },
    {
      "inputs": [],
      "name": "getGameData",
      "outputs": [
        {
          "components": [
            {
              "internalType": "address",
              "name": "creator",
              "type": "address"
            },
            {
              "internalType": "string",
              "name": "title",
              "type": "string"
            },
            {
              "internalType": "string",
              "name": "description",
              "type": "string"
            },
            {
              "internalType": "enum Types.GameStatus",
              "name": "status",
              "type": "uint8"
            },
            {
              "internalType": "enum Types.GameType",
              "name": "gameType",
              "type": "uint8"
            },
            {
              "internalType": "uint256",
              "name": "maxPlayers",
              "type": "uint256"
            },
            {
              "internalType": "uint256",
              "name": "playerCount",
              "type": "uint256"
            },
            {
              "internalType": "uint256",
              "name": "registrationEndTime",
              "type": "uint256"
            },
            {
              "internalType": "uint256",
              "name": "gameStartTime",
              "type": "uint256"
            },
            {
              "internalType": "address",
              "name": "feeToken",
              "type": "address"
            },
            {
              "internalType": "uint256",
              "name": "entryFee",
              "type": "uint256"
            },
            {
              "internalType": "address",
              "name": "prizeToken",
              "type": "address"
            },
            {
              "internalType": "uint256",
              "name": "prizePool",
              "type": "uint256"
            }
          ],
          "internalType": "struct Types.GameData",
          "name": "",
          "type": "tuple"
        }
      ],
      "stateMutability": "view",
      "type": "function"
    },
    {
      "inputs": [
        {
          "internalType": "address",
          "name": "player",
          "type": "address"
        }
      ],
      "name": "getPlayerGameResult",
      "outputs": [
        {
          "components": [
            {
              "internalType": "enum Types.GameType",
              "name": "gameType",
              "type": "uint8"
            },
            {
              "internalType": "address",
              "name": "player",
              "type": "address"
            },
            {
              "internalType": "uint256",
              "name": "score",
              "type": "uint256"
            },
            {
              "internalType": "uint256",
              "name": "timestamp",
              "type": "uint256"
            },
            {
              "internalType": "bytes32",
              "name": "gameHash",
              "type": "bytes32"
            },
            {
              "internalType": "uint256[]",
              "name": "metadata",
              "type": "uint256[]"
            }
          ],
          "internalType": "struct Types.GameResult",
          "name": "",
          "type": "tuple"
        }
      ],
      "stateMutability": "view",
      "type": "function"
    },
    {
      "inputs": [
        {
          "internalType": "address",
          "name": "player",
          "type": "address"
        }
      ],
      "name": "getPlayerScore",
      "outputs": [
        {
          "internalType": "uint256",
          "name": "",
          "type": "uint256"
        }
      ],
      "stateMutability": "view",
      "type": "function"
    },
    {
      "inputs": [
        {
          "internalType": "bytes32",
          "name": "role",
          "type": "bytes32"
        }
      ],
      "name": "getRoleAdmin",
      "outputs": [
        {
          "internalType": "bytes32",
          "name": "",
          "type": "bytes32"
        }
      ],
      "stateMutability": "view",
      "type": "function"
    },
    {
      "inputs": [
        {
          "internalType": "bytes32",
          "name": "role",
          "type": "bytes32"
        },
        {
          "internalType": "address",
          "name": "account",
          "type": "address"
        }
      ],
      "name": "grantRole",
      "outputs": [],
      "stateMutability": "nonpayable",
      "type": "function"
    },
    {
      "inputs": [
        {
          "internalType": "bytes32",
          "name": "role",
          "type": "bytes32"
        },
        {
          "internalType": "address",
          "name": "account",
          "type": "address"
        }
      ],
      "name": "hasRole",
      "outputs": [
        {
          "internalType": "bool",
          "name": "",
          "type": "bool"
        }
      ],
      "stateMutability": "view",
      "type": "function"
    },
    {
      "inputs": [
        {
          "components": [
            {
              "internalType": "string",
              "name": "title",
              "type": "string"
            },
            {
              "internalType": "string",
              "name": "description",
              "type": "string"
            },
            {
              "internalType": "enum Types.GameType",
              "name": "gameType",
              "type": "uint8"
            },
            {
              "internalType": "address",
              "name": "feeTokenAddress",
              "type": "address"
            },
            {
              "internalType": "uint256",
              "name": "entryFee",
              "type": "uint256"
            },
            {
              "internalType": "uint256",
              "name": "minPlayers",
              "type": "uint256"
            },
            {
              "internalType": "uint256",
              "name": "maxPlayers",
              "type": "uint256"
            },
            {
              "internalType": "uint256",
              "name": "registrationEndTime",
              "type": "uint256"
            },
            {
              "internalType": "uint256",
              "name": "gameStartTime",
              "type": "uint256"
            },
            {
              "internalType": "address",
              "name": "prizeTokenAddress",
              "type": "address"
            },
            {
              "internalType": "uint256",
              "name": "prizePool",
              "type": "uint256"
            },
            {
              "internalType": "enum Types.PrizeDistributionType",
              "name": "distributionType",
              "type": "uint8"
            },
            {
              "internalType": "uint256[]",
              "name": "rankPrizes",
              "type": "uint256[]"
            }
          ],
          "internalType": "struct Types.GameConfig",
          "name": "config",
          "type": "tuple"
        },
        {
          "internalType": "address",
          "name": "_creator",
          "type": "address"
        },
        {
          "internalType": "address",
          "name": "_levelManager",
          "type": "address"
        },
        {
          "internalType": "address",
          "name": "_gameFactory",
          "type": "address"
        }
      ],
      "name": "initialize",
      "outputs": [],
      "stateMutability": "nonpayable",
      "type": "function"
    },
    {
      "inputs": [
        {
          "internalType": "address",
          "name": "",
          "type": "address"
        }
      ],
      "name": "isJoined",
      "outputs": [
        {
          "internalType": "bool",
          "name": "",
          "type": "bool"
        }
      ],
      "stateMutability": "view",
      "type": "function"
    },
    {
      "inputs": [],
      "name": "joinGame",
      "outputs": [],
      "stateMutability": "nonpayable",
      "type": "function"
    },
    {
      "inputs": [],
      "name": "levelManager",
      "outputs": [
        {
          "internalType": "address",
          "name": "",
          "type": "address"
        }
      ],
      "stateMutability": "view",
      "type": "function"
    },
    {
      "inputs": [],
      "name": "maxPlayers",
      "outputs": [
        {
          "internalType": "uint256",
          "name": "",
          "type": "uint256"
        }
      ],
      "stateMutability": "view",
      "type": "function"
    },
    {
      "inputs": [],
      "name": "minPlayers",
      "outputs": [
        {
          "internalType": "uint256",
          "name": "",
          "type": "uint256"
        }
      ],
      "stateMutability": "view",
      "type": "function"
    },
    {
      "inputs": [
        {
          "internalType": "uint256",
          "name": "",
          "type": "uint256"
        }
      ],
      "name": "players",
      "outputs": [
        {
          "internalType": "address",
          "name": "player",
          "type": "address"
        },
        {
          "internalType": "uint256",
          "name": "score",
          "type": "uint256"
        }
      ],
      "stateMutability": "view",
      "type": "function"
    },
    {
      "inputs": [],
      "name": "prizePool",
      "outputs": [
        {
          "internalType": "uint256",
          "name": "",
          "type": "uint256"
        }
      ],
      "stateMutability": "view",
      "type": "function"
    },
    {
      "inputs": [
        {
          "internalType": "address",
          "name": "",
          "type": "address"
        }
      ],
      "name": "prizeToClaimsAmount",
      "outputs": [
        {
          "internalType": "uint256",
          "name": "",
          "type": "uint256"
        }
      ],
      "stateMutability": "view",
      "type": "function"
    },
    {
      "inputs": [],
      "name": "prizeToken",
      "outputs": [
        {
          "internalType": "address",
          "name": "",
          "type": "address"
        }
      ],
      "stateMutability": "view",
      "type": "function"
    },
    {
      "inputs": [
        {
          "internalType": "uint256",
          "name": "",
          "type": "uint256"
        }
      ],
      "name": "rankPrizes",
      "outputs": [
        {
          "internalType": "uint256",
          "name": "",
          "type": "uint256"
        }
      ],
      "stateMutability": "view",
      "type": "function"
    },
    {
      "inputs": [],
      "name": "registrationEndTime",
      "outputs": [
        {
          "internalType": "uint256",
          "name": "",
          "type": "uint256"
        }
      ],
      "stateMutability": "view",
      "type": "function"
    },
    {
      "inputs": [
        {
          "internalType": "bytes32",
          "name": "role",
          "type": "bytes32"
        },
        {
          "internalType": "address",
          "name": "callerConfirmation",
          "type": "address"
        }
      ],
      "name": "renounceRole",
      "outputs": [],
      "stateMutability": "nonpayable",
      "type": "function"
    },
    {
      "inputs": [
        {
          "internalType": "bytes32",
          "name": "role",
          "type": "bytes32"
        },
        {
          "internalType": "address",
          "name": "account",
          "type": "address"
        }
      ],
      "name": "revokeRole",
      "outputs": [],
      "stateMutability": "nonpayable",
      "type": "function"
    },
    {
      "inputs": [
        {
          "internalType": "address",
          "name": "_gameRegistry",
          "type": "address"
        }
      ],
      "name": "setGameRegistry",
      "outputs": [],
      "stateMutability": "nonpayable",
      "type": "function"
    },
    {
      "inputs": [
        {
          "internalType": "address[]",
          "name": "_winners",
          "type": "address[]"
        }
      ],
      "name": "setWinners",
      "outputs": [],
      "stateMutability": "nonpayable",
      "type": "function"
    },
    {
      "inputs": [],
      "name": "startGame",
      "outputs": [],
      "stateMutability": "nonpayable",
      "type": "function"
    },
    {
      "inputs": [],
      "name": "status",
      "outputs": [
        {
          "internalType": "enum Types.GameStatus",
          "name": "",
          "type": "uint8"
        }
      ],
      "stateMutability": "view",
      "type": "function"
    },
    {
      "inputs": [
        {
          "components": [
            {
              "internalType": "enum Types.GameType",
              "name": "gameType",
              "type": "uint8"
            },
            {
              "internalType": "address",
              "name": "player",
              "type": "address"
            },
            {
              "internalType": "uint256",
              "name": "score",
              "type": "uint256"
            },
            {
              "internalType": "uint256",
              "name": "timestamp",
              "type": "uint256"
            },
            {
              "internalType": "bytes32",
              "name": "gameHash",
              "type": "bytes32"
            },
            {
              "internalType": "uint256[]",
              "name": "metadata",
              "type": "uint256[]"
            }
          ],
          "internalType": "struct Types.GameResult",
          "name": "result",
          "type": "tuple"
        }
      ],
      "name": "submitGameResult",
      "outputs": [],
      "stateMutability": "nonpayable",
      "type": "function"
    },
    {
      "inputs": [
        {
          "internalType": "uint256",
          "name": "score",
          "type": "uint256"
        }
      ],
      "name": "submitScore",
      "outputs": [],
      "stateMutability": "nonpayable",
      "type": "function"
    },
    {
      "inputs": [
        {
          "internalType": "bytes4",
          "name": "interfaceId",
          "type": "bytes4"
        }
      ],
      "name": "supportsInterface",
      "outputs": [
        {
          "internalType": "bool",
          "name": "",
          "type": "bool"
        }
      ],
      "stateMutability": "view",
      "type": "function"
    },
    {
      "inputs": [],
      "name": "title",
      "outputs": [
        {
          "internalType": "string",
          "name": "",
          "type": "string"
        }
      ],
      "stateMutability": "view",
      "type": "function"
    },
    {
      "inputs": [
        {
          "internalType": "uint256",
          "name": "",
          "type": "uint256"
        }
      ],
      "name": "winners",
      "outputs": [
        {
          "internalType": "address",
          "name": "",
          "type": "address"
        }
      ],
      "stateMutability": "view",
      "type": "function"
    }
  ],
  "bytecode": "0x608060405234801561001057600080fd5b506140d9806100206000396000f3fe608060405234801561001057600080fd5b50600436106102a05760003560e01c80638233e43311610167578063bbdc02db116100ce578063da09075511610087578063da0907551461060d578063dd898b2f14610625578063dff7d2c714610638578063e085c53914610641578063e5a078a71461066a578063f71d96cb1461067257600080fd5b8063bbdc02db146105c2578063d0ef024a146105cf578063d4f77b1c146105e2578063d547741f146105ea578063d65ab5f2146105fd578063d84c1ac91461060557600080fd5b8063a217fddf11610120578063a217fddf14610557578063a2fb11751461055f578063af4e99de14610572578063aff0b29714610587578063b062e9501461059a578063b5545a3c146105ba57600080fd5b80638233e433146104dc57806384da242d146104ef57806385bfd47c146105095780638aeda25a1461051c57806391d148541461053157806397ae6db81461054457600080fd5b80633b2370ac1161020b578063647846a5116101c4578063647846a51461048157806370740ac91461049457806370824c5c1461049c578063719ce73e146104c35780637284e416146104cc57806377b6e504146104d457600080fd5b80633b2370ac14610411578063445e6b391461041a5780634a79d50c1461042d5780634c2412a214610442578063554c925c1461044b5780635e6a43f51461045e57600080fd5b8063200d2ed21161025d578063200d2ed214610390578063248a9ca3146103aa5780632770c895146103cd5780632a8d950c146103d65780632f2ff15d146103e957806336568abe146103fe57600080fd5b806301ffc9a7146102a55780630252b995146102cd57806302d05d3f146102e4578063072ea61c1461030f578063140d6b94146103185780631d75d7c214610338575b600080fd5b6102b86102b336600461339e565b610693565b60405190151581526020015b60405180910390f35b6102d6600b5481565b6040519081526020016102c4565b6004546102f7906001600160a01b031681565b6040516001600160a01b0390911681526020016102c4565b6102d6600d5481565b61032b6103263660046133f4565b6106ca565b6040516102c49190613444565b61037f6103463660046133f4565b601960205260009081526040902080546001820154600283015460039093015460ff8316936101009093046001600160a01b0316929085565b6040516102c49594939291906134dc565b60155461039d9060ff1681565b6040516102c49190613513565b6102d66103b8366004613526565b60009081526020819052604090206001015490565b6102d660085481565b6002546102f7906001600160a01b031681565b6103fc6103f736600461353f565b61080c565b005b6103fc61040c36600461353f565b610837565b6102d660115481565b6103fc61042836600461356f565b61086f565b6104356109c7565b6040516102c4919061362a565b6102d660095481565b6103fc61045936600461363d565b610a55565b6102b861046c3660046133f4565b60176020526000908152604090205460ff1681565b600c546102f7906001600160a01b031681565b6103fc610d8b565b6102d67f797343f8d6a29aafeb3aaf0910a8973e0081c60c2f6c1f775cd9f76ea348fc1e81565b6102d660105481565b610435610ebb565b6103fc610ec8565b6102d66104ea366004613526565b61163a565b6012546104fc9060ff1681565b6040516102c49190613678565b6003546102f7906001600160a01b031681565b6102d660008051602061408483398151915281565b6102b861053f36600461353f565b61165b565b6103fc610552366004613814565b611684565b6102d6600081565b6102f761056d366004613526565b611aae565b61057a611ad8565b6040516102c49190613985565b6103fc610595366004613526565b611cd3565b6102d66105a83660046133f4565b60146020526000908152604090205481565b6103fc611deb565b60075461039d9060ff1681565b600f546102f7906001600160a01b031681565b6103fc611f6a565b6103fc6105f836600461353f565b61246c565b6103fc612491565b6103fc6128ae565b6001546102f79061010090046001600160a01b031681565b6103fc6106333660046133f4565b612c06565b6102d6600a5481565b6102d661064f3660046133f4565b6001600160a01b031660009081526018602052604090205490565b6103fc612c90565b610685610680366004613526565b6130a2565b6040516102c4929190613a8b565b60006001600160e01b03198216637965db0b60e01b14806106c457506301ffc9a760e01b6001600160e01b03198316145b92915050565b6107106040805160c08101909152806000815260200160006001600160a01b03168152602001600081526020016000815260200160008019168152602001606081525090565b6001600160a01b03821660009081526019602052604090819020815160c081019092528054829060ff16600481111561074b5761074b613411565b600481111561075c5761075c613411565b81526020016000820160019054906101000a90046001600160a01b03166001600160a01b03166001600160a01b03168152602001600182015481526020016002820154815260200160038201548152602001600482018054806020026020016040519081016040528092919081815260200182805480156107fc57602002820191906000526020600020905b8154815260200190600101908083116107e8575b5050505050815250509050919050565b600082815260208190526040902060010154610827816130da565b61083183836130e4565b50505050565b6001600160a01b03811633146108605760405163334bd91960e11b815260040160405180910390fd5b61086a8282613176565b505050565b600080516020614084833981519152610887816130da565b600160155460ff1660048111156108a0576108a0613411565b146108c65760405162461bcd60e51b81526004016108bd90613aa4565b60405180910390fd5b60005b8281101561096d57601760008585848181106108e7576108e7613ace565b90506020020160208101906108fc91906133f4565b6001600160a01b0316815260208101919091526040016000205460ff166109655760405162461bcd60e51b815260206004820152601860248201527f54686572652069732077696e6e6572206e6f74206a6f696e000000000000000060448201526064016108bd565b6001016108c9565b5061097a601a8484613257565b506015805460ff191660021790556040517f8451dabc49a0b82cffb0a79a6771fe2718264aae54a4eff4d4463748813ec56f906109ba9085908590613ae4565b60405180910390a1505050565b600580546109d490613b27565b80601f0160208091040260200160405190810160405280929190818152602001828054610a0090613b27565b8015610a4d5780601f10610a2257610100808354040283529160200191610a4d565b820191906000526020600020905b815481529060010190602001808311610a3057829003601f168201915b505050505081565b600160155460ff166004811115610a6e57610a6e613411565b14610a8b5760405162461bcd60e51b81526004016108bd90613aa4565b600b54421015610ad85760405162461bcd60e51b815260206004820152601860248201527711d85b59481a185cc81b9bdd081cdd185c9d1959081e595d60421b60448201526064016108bd565b3360009081526017602052604090205460ff16610b2b5760405162461bcd60e51b8152602060048201526011602482015270141b185e595c881b9bdd081a9bda5b9959607a1b60448201526064016108bd565b60075460ff166004811115610b4257610b42613411565b610b4f6020830183613b61565b6004811115610b6057610b60613411565b14610ba25760405162461bcd60e51b815260206004820152601260248201527108ec2daca40e8f2e0ca40dad2e6dac2e8c6d60731b60448201526064016108bd565b33610bb360408301602084016133f4565b6001600160a01b031614610c095760405162461bcd60e51b815260206004820152601760248201527f506c617965722061646472657373206d69736d6174636800000000000000000060448201526064016108bd565b60015461010090046001600160a01b0316610c5d5760405162461bcd60e51b815260206004820152601460248201527311d85b59549959da5cdd1c9e481b9bdd081cd95d60621b60448201526064016108bd565b6001546040516335c34ae960e01b81526101009091046001600160a01b03169060009082906335c34ae990610c96908690600401613bb0565b6020604051808303816000875af1158015610cb5573d6000803e3d6000fd5b505050506040513d601f19601f82011682018060405250810190610cd99190613c6f565b905080610d285760405162461bcd60e51b815260206004820152601f60248201527f47616d6520726573756c7420766572696669636174696f6e206661696c65640060448201526064016108bd565b336000908152601860209081526040808320818701359055601990915290208390610d538282613dad565b9050507fa578df9b0453d14d7ed8615ee0e9d58f70e041e91fc5865e3b71f81ea05296c03384604001356040516109ba929190613a8b565b3360009081526014602052604090205480610ddc5760405162461bcd60e51b81526020600482015260116024820152704e6f207072697a6520746f20636c61696d60781b60448201526064016108bd565b3360008181526014602052604080822091909155600f54905163a9059cbb60e01b81526001600160a01b039091169163a9059cbb91610e2091908590600401613a8b565b6020604051808303816000875af1158015610e3f573d6000803e3d6000fd5b505050506040513d601f19601f82011682018060405250810190610e639190613c6f565b610e7f5760405162461bcd60e51b81526004016108bd90613e3c565b7fb8e091d87f82e56d22276c9a0088ea5d6068e355383dc08b2721b7b6cb10e8453382604051610eb0929190613a8b565b60405180910390a150565b600680546109d490613b27565b600080516020614084833981519152610ee0816130da565b600260155460ff166004811115610ef957610ef9613411565b14610f375760405162461bcd60e51b815260206004820152600e60248201526d11d85b59481b9bdd08195b99195960921b60448201526064016108bd565b601a54610f775760405162461bcd60e51b815260206004820152600e60248201526d139bc81dda5b9b995c9cc81cd95d60921b60448201526064016108bd565b600060105411610fbf5760405162461bcd60e51b81526020600482015260136024820152725072697a6520706f6f6c20697320656d70747960681b60448201526064016108bd565b6010805460009182905560025490916001600160a01b039091169060125460ff166002811115610ff157610ff1613411565b036110f5578160146000601a60008154811061100f5761100f613ace565b60009182526020808320909101546001600160a01b0316835282019290925260400181208054909190611043908490613e65565b90915550506002546001600160a01b0316156110f057806001600160a01b0316635fe352ce601a60008154811061107c5761107c613ace565b6000918252602090912001546040516001600160e01b031960e084901b1681526110bd916001600160a01b0316906801158e460913d0000090600401613a8b565b600060405180830381600087803b1580156110d757600080fd5b505af11580156110eb573d6000803e3d6000fd5b505050505b611628565b600160125460ff16600281111561110e5761110e613411565b0361125f5760165460006111228285613e8e565b905060006111308386613ea2565b905060005b838110156111a157600083905080601460006016858154811061115a5761115a613ace565b600091825260208083206002909202909101546001600160a01b0316835282019290925260400181208054909190611193908490613e65565b909155505050600101611135565b50600f546004805460405163a9059cbb60e01b81526001600160a01b039384169363a9059cbb936111d89390911691869101613a8b565b6020604051808303816000875af11580156111f7573d6000803e3d6000fd5b505050506040513d601f19601f8201168201806040525081019061121b9190613c6f565b6112575760405162461bcd60e51b815260206004820152600d60248201526c1499599d5b990819985a5b1959609a1b60448201526064016108bd565b505050611628565b600260125460ff16600281111561127857611278613411565b0361162857601354601a5411156112e75760405162461bcd60e51b815260206004820152602d60248201527f57696e6e657273206c69737420657863656564732072616e6b207072697a652060448201526c31b7b73334b3bab930ba34b7b760991b60648201526084016108bd565b6000805b601a5481101561137c5760006013828154811061130a5761130a613ace565b90600052602060002001549050600081116113675760405162461bcd60e51b815260206004820152601d60248201527f4d697373696e67207072697a6520636f6e66696720666f722072616e6b00000060448201526064016108bd565b6113718184613e65565b9250506001016112eb565b506127108111156113c85760405162461bcd60e51b81526020600482015260166024820152755072697a65204250532065786365656473203130302560501b60448201526064016108bd565b60005b601a54811015611625576000601382815481106113ea576113ea613ace565b600091825260208220015491506127106114048388613cf8565b61140e9190613e8e565b90508060146000601a868154811061142857611428613ace565b60009182526020808320909101546001600160a01b031683528201929092526040018120805490919061145c908490613e65565b90915550506002546001600160a01b03161561161b578260000361151457846001600160a01b0316635fe352ce601a858154811061149c5761149c613ace565b6000918252602090912001546040516001600160e01b031960e084901b1681526114dd916001600160a01b0316906801158e460913d0000090600401613a8b565b600060405180830381600087803b1580156114f757600080fd5b505af115801561150b573d6000803e3d6000fd5b5050505061161b565b8260010361157e57846001600160a01b0316635fe352ce601a858154811061153e5761153e613ace565b6000918252602090912001546040516001600160e01b031960e084901b1681526114dd916001600160a01b031690678ac7230489e8000090600401613a8b565b8260020361161b57846001600160a01b0316635fe352ce601a85815481106115a8576115a8613ace565b6000918252602090912001546040516001600160e01b031960e084901b1681526115e8916001600160a01b031690674563918244f4000090600401613a8b565b600060405180830381600087803b15801561160257600080fd5b505af1158015611616573d6000803e3d6000fd5b505050505b50506001016113cb565b50505b50506015805460ff1916600317905550565b6013818154811061164a57600080fd5b600091825260209091200154905081565b6000918252602082815260408084206001600160a01b0393909316845291905290205460ff1690565b60015460ff16156116cd5760405162461bcd60e51b8152602060048201526013602482015272105b1c9958591e481a5b9a5d1a585b1a5e9959606a1b60448201526064016108bd565b6001805460ff191681179055600280546001600160a01b038085166001600160a01b031992831617909255600380549284169290911691909117905560e0840151421061175c5760405162461bcd60e51b815260206004820152601960248201527f52656720656e64206d75737420626520696e206675747572650000000000000060448201526064016108bd565b8360e0015184610100015110156117b55760405162461bcd60e51b815260206004820152601e60248201527f47616d65206d7573742073746172742061667465722072656720656e6473000060448201526064016108bd565b8360a001518460c0015110156118025760405162461bcd60e51b815260206004820152601260248201527126b0bc1036bab9ba103132901f1e9026b4b760711b60448201526064016108bd565b600480546001600160a01b0319166001600160a01b038516179055835160059061182c9082613ef6565b50602084015160069061183f9082613ef6565b506015805460ff199081169091556040850151600780549192909116600183600481111561186f5761186f613411565b02179055506060840151600c80546001600160a01b039283166001600160a01b0319918216179091556080860151600d5560a086015160085560c086015160095560e0860151600a55610100860151600b55610120860151600f805491909316911617905561014084015160108190556011556101608401516012805460ff1916600183600281111561190457611904613411565b02179055506101808401518051611923916013916020909101906132ba565b506002846101600151600281111561193d5761193d613411565b03611a3057610180840151516013546119985760405162461bcd60e51b815260206004820152601f60248201527f437573746f6d2072616e6b20636f6e66696720666f726d6174206572726f720060448201526064016108bd565b6000805b828110156119e157601381815481106119b7576119b7613ace565b9060005260206000200154826119cd9190613e65565b91506119da600182613e65565b905061199c565b50612710811115611a2d5760405162461bcd60e51b81526020600482015260166024820152755072697a65204250532065786365656473203130302560501b60448201526064016108bd565b50505b611a3b6000846130e4565b50611a54600080516020614084833981519152846130e4565b50611a6e60008051602061408483398151915260006131e1565b7fc66e6cd41f805f65978f5241034e8d106c42cf3c7a4d62ccd857646b401cbe4a836005604051611aa0929190613fba565b60405180910390a150505050565b601a8181548110611abe57600080fd5b6000918252602090912001546001600160a01b0316905081565b611ae06132f5565b611ae86132f5565b6004546001600160a01b0316815260058054611b0390613b27565b80601f0160208091040260200160405190810160405280929190818152602001828054611b2f90613b27565b8015611b7c5780601f10611b5157610100808354040283529160200191611b7c565b820191906000526020600020905b815481529060010190602001808311611b5f57829003601f168201915b5050505050816020018190525060068054611b9690613b27565b80601f0160208091040260200160405190810160405280929190818152602001828054611bc290613b27565b8015611c0f5780601f10611be457610100808354040283529160200191611c0f565b820191906000526020600020905b815481529060010190602001808311611bf257829003601f168201915b50505050506040820152601554606082019060ff166004811115611c3557611c35613411565b90816004811115611c4857611c48613411565b905250600754608082019060ff166004811115611c6757611c67613411565b90816004811115611c7a57611c7a613411565b90525060095460a082015260165460c0820152600a5460e0820152600b54610100820152600d54610140820152600c546001600160a01b03908116610120830152601054610180830152600f5416610160820152919050565b600160155460ff166004811115611cec57611cec613411565b14611d095760405162461bcd60e51b81526004016108bd90613aa4565b600b54421015611d565760405162461bcd60e51b815260206004820152601860248201527711d85b59481a185cc81b9bdd081cdd185c9d1959081e595d60421b60448201526064016108bd565b3360009081526017602052604090205460ff16611da95760405162461bcd60e51b8152602060048201526011602482015270141b185e595c881b9bdd081a9bda5b9959607a1b60448201526064016108bd565b3360008181526018602052604090819020839055517fa578df9b0453d14d7ed8615ee0e9d58f70e041e91fc5865e3b71f81ea05296c091610eb0918490613a8b565b600460155460ff166004811115611e0457611e04613411565b14611e455760405162461bcd60e51b815260206004820152601160248201527011d85b59481b9bdd0818d85b98d95b1959607a1b60448201526064016108bd565b336000908152600e602052604090205480611e965760405162461bcd60e51b81526020600482015260116024820152704e6f207072697a6520746f20636c61696d60781b60448201526064016108bd565b336000818152600e602052604080822091909155600c54905163a9059cbb60e01b81526001600160a01b039091169163a9059cbb91611eda91908590600401613a8b565b6020604051808303816000875af1158015611ef9573d6000803e3d6000fd5b505050506040513d601f19601f82011682018060405250810190611f1d9190613c6f565b611f395760405162461bcd60e51b81526004016108bd90613e3c565b7feb4706597fb7a2e8806c0e31ad4c334330a97bc3cae6b9c360e152c922bb40c83382604051610eb0929190613a8b565b600060155460ff166004811115611f8357611f83613411565b14611fd05760405162461bcd60e51b815260206004820152601a60248201527f47616d65206e6f7420616363657074696e6720706c617965727300000000000060448201526064016108bd565b600b54600a540361203857600b54611fea9061012c613e65565b42106120335760405162461bcd60e51b8152602060048201526018602482015277149959da5cdd1c985d1a5bdb881d1a5b59481c185cdcd95960421b60448201526064016108bd565b612084565b600a5442106120845760405162461bcd60e51b8152602060048201526018602482015277149959da5cdd1c985d1a5bdb881d1a5b59481c185cdcd95960421b60448201526064016108bd565b600954601654106120cd5760405162461bcd60e51b815260206004820152601360248201527213585e081c1b185e595c9cc81c995858da1959606a1b60448201526064016108bd565b3360009081526017602052604090205460ff161561211e5760405162461bcd60e51b815260206004820152600e60248201526d105b1c9958591e481a9bda5b995960921b60448201526064016108bd565b600d541561230b57600c54600d546040516323b872dd60e01b815233600482015230602482015260448101919091526001600160a01b03909116906323b872dd906064016020604051808303816000875af1158015612181573d6000803e3d6000fd5b505050506040513d601f19601f820116820180604052508101906121a59190613c6f565b6121c15760405162461bcd60e51b81526004016108bd90613e3c565b6000612710600d546103e86121d69190613cf8565b6121e09190613e8e565b9050600081600d546121f2919061405a565b905060008211801561220e57506003546001600160a01b031615155b156122d857600c5460035460405163a9059cbb60e01b81526001600160a01b039283169263a9059cbb92612249929116908690600401613a8b565b6020604051808303816000875af1158015612268573d6000803e3d6000fd5b505050506040513d601f19601f8201168201806040525081019061228c9190613c6f565b6122d85760405162461bcd60e51b815260206004820152601c60248201527f506c6174666f726d20666565207472616e73666572206661696c65640000000060448201526064016108bd565b600f54600c546001600160a01b039182169116036123085780601060008282546123029190613e65565b90915550505b50505b6040805180820182523380825260006020808401828152601680546001808201835591855295517fd833147d7dc355ba459fc788f669e58cfaf9dc25ddcd0702e87d69c7b5124289600297880290810180546001600160a01b0319166001600160a01b0393841617905592517fd833147d7dc355ba459fc788f669e58cfaf9dc25ddcd0702e87d69c7b512428a90930192909255600d54948452600e8352868420949094556017909152939020805460ff1916909117905554161561243757600254604051632ff1a96760e11b81526001600160a01b0390911690635fe352ce906124049033906729a2241af62c000090600401613a8b565b600060405180830381600087803b15801561241e57600080fd5b505af1158015612432573d6000803e3d6000fd5b505050505b6040513381527f31e760aa525306aba638a784082a013b6a1cc0a9a1789f3f22281c0453b10b1f9060200160405180910390a1565b600082815260208190526040902060010154612487816130da565b6108318383613176565b6000805160206140848339815191526124a9816130da565b600060155460ff1660048111156124c2576124c2613411565b1461250f5760405162461bcd60e51b815260206004820152601a60248201527f47616d65206e6f7420696e20437265617465642073746174757300000000000060448201526064016108bd565b600a544210156125615760405162461bcd60e51b815260206004820152601c60248201527f526567697374726174696f6e206973206e6f74206f766572207965740000000060448201526064016108bd565b6008546016541015612874576015805460ff191660041790556011541561269e57600f546004805460115460405163a9059cbb60e01b81526001600160a01b039485169463a9059cbb946125ba94909116929101613a8b565b6020604051808303816000875af11580156125d9573d6000803e3d6000fd5b505050506040513d601f19601f820116820180604052508101906125fd9190613c6f565b61263f5760405162461bcd60e51b8152602060048201526013602482015272141c9a5e99481c99599d5b990819985a5b1959606a1b60448201526064016108bd565b60115460106000828254612653919061405a565b90915550506004546011546040519081526001600160a01b03909116907fcabd9ffa4ff52290e56c52a9ed671760a0e5951eaa234fd9e0ccccf507bf98ca9060200160405180910390a25b60005b601654811015612870576000601682815481106126c0576126c0613ace565b600091825260208083206002909202909101546001600160a01b0316808352600e9091526040909120549091508015612866576001600160a01b0382166000908152600e6020526040812081905561271061271d83612328613cf8565b6127279190613e8e565b9050801561286457600c5460405163a9059cbb60e01b81526001600160a01b039091169063a9059cbb906127619086908590600401613a8b565b6020604051808303816000875af1158015612780573d6000803e3d6000fd5b505050506040513d601f19601f820116820180604052508101906127a49190613c6f565b6127f05760405162461bcd60e51b815260206004820152601760248201527f456e7472792066656520726566756e64206661696c656400000000000000000060448201526064016108bd565b600f54600c546001600160a01b0391821691160361282057806010600082825461281a919061405a565b90915550505b826001600160a01b03167fbddaec5e3db6d33ac9b0043f3c92cf3d081b19f8646f372eb3a68a51e273a1048260405161285b91815260200190565b60405180910390a25b505b50506001016126a1565b5050565b6015805460ff191660011790556040517f762f260439bb4be3ef6e4dc2786e2e7bd187d3d80b79057d7a424fe98563e33590600090a15b50565b6000805160206140848339815191526128c6816130da565b600060155460ff1660048111156128df576128df613411565b14806129015750600160155460ff1660048111156128ff576128ff613411565b145b6129605760405162461bcd60e51b815260206004820152602a60248201527f43616e6e6f742063616e63656c20616e20656e646564206f722064697374726960448201526962757465642067616d6560b01b60648201526084016108bd565b6010805460009091556015805460ff191660041790558015612a7a57600f546004805460405163a9059cbb60e01b81526001600160a01b039384169363a9059cbb936129b29390911691869101613a8b565b6020604051808303816000875af11580156129d1573d6000803e3d6000fd5b505050506040513d601f19601f820116820180604052508101906129f59190613c6f565b612a375760405162461bcd60e51b8152602060048201526013602482015272141c9a5e99481c99599d5b990819985a5b1959606a1b60448201526064016108bd565b6004546040518281526001600160a01b03909116907fcabd9ffa4ff52290e56c52a9ed671760a0e5951eaa234fd9e0ccccf507bf98ca9060200160405180910390a25b60005b60165481101561086a57600060168281548110612a9c57612a9c613ace565b600091825260208083206002909202909101546001600160a01b0316808352600e9091526040909120549091508015612bfc576001600160a01b0382166000908152600e60205260408120819055612710612af983612328613cf8565b612b039190613e8e565b90508015612bfa57600c5460405163a9059cbb60e01b81526001600160a01b039091169063a9059cbb90612b3d9086908590600401613a8b565b6020604051808303816000875af1158015612b5c573d6000803e3d6000fd5b505050506040513d601f19601f82011682018060405250810190612b809190613c6f565b612bc05760405162461bcd60e51b8152602060048201526011602482015270119959481c99599d5b990819985a5b1959607a1b60448201526064016108bd565b7feb4706597fb7a2e8806c0e31ad4c334330a97bc3cae6b9c360e152c922bb40c88382604051612bf1929190613a8b565b60405180910390a15b505b5050600101612a7d565b6000612c11816130da565b6001600160a01b038216612c675760405162461bcd60e51b815260206004820152601d60248201527f496e76616c69642067616d65207265676973747279206164647265737300000060448201526064016108bd565b50600180546001600160a01b0390921661010002610100600160a81b0319909216919091179055565b600a5433904210612ce35760405162461bcd60e51b815260206004820152601960248201527f526567697374726174696f6e2074696d65206973206f7665720000000000000060448201526064016108bd565b600060155460ff166004811115612cfc57612cfc613411565b14612d495760405162461bcd60e51b815260206004820181905260248201527f47616d6520697320616c7265616479206f6e676f696e67206f7220656e64656460448201526064016108bd565b6001600160a01b0381166000908152600e602052604090205480612dc55760405162461bcd60e51b815260206004820152602d60248201527f506c6179657220686173206e6f74206a6f696e6564206f722066656520616c7260448201526c1958591e481c99599d5b991959609a1b60648201526084016108bd565b600080805b601654811015612e2457846001600160a01b031660168281548110612df157612df1613ace565b60009182526020909120600290910201546001600160a01b031603612e1c5780925060019150612e24565b600101612dca565b5080612e835760405162461bcd60e51b815260206004820152602860248201527f496e7465726e616c206572726f723a20506c61796572206e6f7420666f756e64604482015267081a5b881b1a5cdd60c21b60648201526084016108bd565b601654600090612e959060019061405a565b9050808314612f0b5760168181548110612eb157612eb1613ace565b906000526020600020906002020160168481548110612ed257612ed2613ace565b60009182526020909120825460029092020180546001600160a01b0319166001600160a01b039092169190911781556001918201549101555b6016805480612f1c57612f1c61406d565b6000828152602080822060026000199094019384020180546001600160a01b0319168155600101829055919092556001600160a01b0387168252600e90526040812081905560108054869290612f7390849061405a565b90915550506001600160a01b038086166000908152601760209081526040808320805460ff19169055601890915280822091909155600c54905163a9059cbb60e01b815291169063a9059cbb90612fd09088908890600401613a8b565b6020604051808303816000875af1158015612fef573d6000803e3d6000fd5b505050506040513d601f19601f820116820180604052508101906130139190613c6f565b6130585760405162461bcd60e51b81526020600482015260166024820152751499599d5b99081d1c985b9cd9995c8819985a5b195960521b60448201526064016108bd565b846001600160a01b03167fbddaec5e3db6d33ac9b0043f3c92cf3d081b19f8646f372eb3a68a51e273a1048560405161309391815260200190565b60405180910390a25050505050565b601681815481106130b257600080fd5b6000918252602090912060029091020180546001909101546001600160a01b03909116915082565b6128ab813361322c565b60006130f0838361165b565b61316e576000838152602081815260408083206001600160a01b03861684529091529020805460ff191660011790556131263390565b6001600160a01b0316826001600160a01b0316847f2f8788117e7eff1d82e926ec794901d17c78024a50270940304540a733656f0d60405160405180910390a45060016106c4565b5060006106c4565b6000613182838361165b565b1561316e576000838152602081815260408083206001600160a01b0386168085529252808320805460ff1916905551339286917ff6391f5c32d9c69d2a47ea670b442974b53935d1edc7fd64eb21e047a839171b9190a45060016106c4565b600082815260208190526040808220600101805490849055905190918391839186917fbd79b86ffe0ab8e8776151514217cd7cacd52c909f66475c3af44e129f0b00ff9190a4505050565b613236828261165b565b61287057808260405163e2517d3f60e01b81526004016108bd929190613a8b565b8280548282559060005260206000209081019282156132aa579160200282015b828111156132aa5781546001600160a01b0319166001600160a01b03843516178255602090920191600190910190613277565b506132b6929150613389565b5090565b8280548282559060005260206000209081019282156132aa579160200282015b828111156132aa5782518255916020019190600101906132da565b604051806101a0016040528060006001600160a01b0316815260200160608152602001606081526020016000600481111561333257613332613411565b8152602001600081526020016000815260200160008152602001600081526020016000815260200160006001600160a01b031681526020016000815260200160006001600160a01b03168152602001600081525090565b5b808211156132b6576000815560010161338a565b6000602082840312156133b057600080fd5b81356001600160e01b0319811681146133c857600080fd5b9392505050565b6001600160a01b03811681146128ab57600080fd5b80356133ef816133cf565b919050565b60006020828403121561340657600080fd5b81356133c8816133cf565b634e487b7160e01b600052602160045260246000fd5b600581106128ab576128ab613411565b61344081613427565b9052565b6000602080835260e08301845161345a81613427565b80838601525060018060a01b03828601511660408501526040850151606085015260608501516080850152608085015160a085015260a085015160c080860152818151808452610100870191508483019350600092505b808310156134d157835182529284019260019290920191908401906134b1565b509695505050505050565b60a081016134e987613427565b9581526001600160a01b039490941660208501526040840192909252606083015260809091015290565b6020810161352083613427565b91905290565b60006020828403121561353857600080fd5b5035919050565b6000806040838503121561355257600080fd5b823591506020830135613564816133cf565b809150509250929050565b6000806020838503121561358257600080fd5b823567ffffffffffffffff8082111561359a57600080fd5b818501915085601f8301126135ae57600080fd5b8135818111156135bd57600080fd5b8660208260051b85010111156135d257600080fd5b60209290920196919550909350505050565b6000815180845260005b8181101561360a576020818501810151868301820152016135ee565b506000602082860101526020601f19601f83011685010191505092915050565b6020815260006133c860208301846135e4565b60006020828403121561364f57600080fd5b813567ffffffffffffffff81111561366657600080fd5b820160c081850312156133c857600080fd5b602081016003831061352057613520613411565b634e487b7160e01b600052604160045260246000fd5b6040516101a0810167ffffffffffffffff811182821017156136c6576136c661368c565b60405290565b604051601f8201601f1916810167ffffffffffffffff811182821017156136f5576136f561368c565b604052919050565b600082601f83011261370e57600080fd5b813567ffffffffffffffff8111156137285761372861368c565b61373b601f8201601f19166020016136cc565b81815284602083860101111561375057600080fd5b816020850160208301376000918101602001919091529392505050565b600581106128ab57600080fd5b80356133ef8161376d565b8035600381106133ef57600080fd5b600082601f8301126137a557600080fd5b8135602067ffffffffffffffff8211156137c1576137c161368c565b8160051b6137d08282016136cc565b92835284810182019282810190878511156137ea57600080fd5b83870192505b84831015613809578235825291830191908301906137f0565b979650505050505050565b6000806000806080858703121561382a57600080fd5b843567ffffffffffffffff8082111561384257600080fd5b908601906101a0828903121561385757600080fd5b61385f6136a2565b82358281111561386e57600080fd5b61387a8a8286016136fd565b82525060208301358281111561388f57600080fd5b61389b8a8286016136fd565b6020830152506138ad6040840161377a565b60408201526138be606084016133e4565b60608201526080830135608082015260a083013560a082015260c083013560c082015260e083013560e08201526101008084013581830152506101206139058185016133e4565b908201526101408381013590820152610160613922818501613785565b90820152610180838101358381111561393a57600080fd5b6139468b828701613794565b82840152505080965050505061395e602086016133e4565b925061396c604086016133e4565b915061397a606086016133e4565b905092959194509250565b6020815261399f6020820183516001600160a01b03169052565b600060208301516101a08060408501526139bd6101c08501836135e4565b91506040850151601f198584030160608601526139da83826135e4565b92505060608501516139ef6080860182613437565b506080850151613a0260a0860182613437565b5060a085015160c085015260c085015160e085015260e0850151610100818187015280870151915050610120818187015280870151915050610140613a51818701836001600160a01b03169052565b860151610160868101919091528601519050610180613a7a818701836001600160a01b03169052565b959095015193019290925250919050565b6001600160a01b03929092168252602082015260400190565b60208082526010908201526f47616d65206e6f74206f6e676f696e6760801b604082015260600190565b634e487b7160e01b600052603260045260246000fd5b60208082528181018390526000908460408401835b868110156134d1578235613b0c816133cf565b6001600160a01b031682529183019190830190600101613af9565b600181811c90821680613b3b57607f821691505b602082108103613b5b57634e487b7160e01b600052602260045260246000fd5b50919050565b600060208284031215613b7357600080fd5b81356133c88161376d565b81835260006001600160fb1b03831115613b9757600080fd5b8260051b80836020870137939093016020019392505050565b6020815260008235613bc18161376d565b613bca81613427565b806020840152506020830135613bdf816133cf565b60018060a01b0381166040840152506040830135606083015260608301356080830152608083013560a083015260a0830135601e19843603018112613c2357600080fd5b830160208101903567ffffffffffffffff811115613c4057600080fd5b8060051b3603821315613c5257600080fd5b60c080850152613c6660e085018284613b7e565b95945050505050565b600060208284031215613c8157600080fd5b815180151581146133c857600080fd5b6000808335601e19843603018112613ca857600080fd5b83018035915067ffffffffffffffff821115613cc357600080fd5b6020019150600581901b3603821315613cdb57600080fd5b9250929050565b634e487b7160e01b600052601160045260246000fd5b80820281158282048414176106c4576106c4613ce2565b5b818110156128705760008155600101613d10565b67ffffffffffffffff831115613d3c57613d3c61368c565b68010000000000000000831115613d5557613d5561368c565b805483825580841015613d7b57816000526020600020613d79828201868301613d0f565b505b50818160005260208060002060005b86811015613da45783358282015592820192600101613d8a565b50505050505050565b8135613db88161376d565b613dc181613427565b815460ff821691508160ff1982161783556020840135613de0816133cf565b6001600160a81b03199190911690911760089190911b610100600160a81b0316178155604082013560018201556060820135600282015560808201356003820155613e2e60a0830183613c91565b610831818360048601613d24565b6020808252600f908201526e151c985b9cd9995c8819985a5b1959608a1b604082015260600190565b808201808211156106c4576106c4613ce2565b634e487b7160e01b600052601260045260246000fd5b600082613e9d57613e9d613e78565b500490565b600082613eb157613eb1613e78565b500690565b601f82111561086a57806000526020600020601f840160051c81016020851015613edd5750805b613eef601f850160051c830182613d0f565b5050505050565b815167ffffffffffffffff811115613f1057613f1061368c565b613f2481613f1e8454613b27565b84613eb6565b602080601f831160018114613f595760008415613f415750858301515b600019600386901b1c1916600185901b178555613fb2565b600085815260208120601f198616915b82811015613f8857888601518255948401946001909101908401613f69565b5085821015613fa65787850151600019600388901b60f8161c191681555b505060018460011b0185555b505050505050565b60018060a01b0383168152600060206040602084015260008454613fdd81613b27565b8060408701526060600180841660008114613fff576001811461401b5761404b565b60ff19851660608a0152606084151560051b8a0101955061404b565b89600052602060002060005b858110156140425781548b8201860152908301908801614027565b8a016060019650505b50939998505050505050505050565b818103818111156106c4576106c4613ce2565b634e487b7160e01b600052603160045260246000fdfe828634d95e775031b9ff576b159a8509d3053581a8c9c4d7d86899e0afcd882fa26469706673582212204ed09b988f87c328cb0adba4f2706e8d7eec5ceff913ae35220f2f3af5caaad164736f6c63430008180033",
  "linkReferences": {},
  "deployedLinkReferences": {}
}