{
  "_format": "hh-sol-artifact-1",
  "contractName": "GameInstance",
  "sourceName": "contracts/GameInstance.sol",
  "abi": [
    {
      "inputs": [],
      "name": "AccessControlBadConfirmation",
      "type": "error"
    },
    {
      "inputs": [
        {
          "internalType": "address",
          "name": "account",
          "type": "address"
        },
        {
          "internalType": "bytes32",
          "name": "neededRole",
          "type": "bytes32"
        }
      ],
      "name": "AccessControlUnauthorizedAccount",
      "type": "error"
    },
    {
      "anonymous": false,
      "inputs": [
        {
          "indexed": false,
          "internalType": "address",
          "name": "player",
          "type": "address"
        },
        {
          "indexed": false,
          "internalType": "uint256",
          "name": "amount",
          "type": "uint256"
        }
      ],
      "name": "FeeRefund",
      "type": "event"
    },
    {
      "anonymous": false,
      "inputs": [
        {
          "indexed": true,
          "internalType": "address",
          "name": "creator",
          "type": "address"
        },
        {
          "indexed": false,
          "internalType": "uint256",
          "name": "refundAmount",
          "type": "uint256"
        }
      ],
      "name": "GameCanceled",
      "type": "event"
    },
    {
      "anonymous": false,
      "inputs": [],
      "name": "GameStarted",
      "type": "event"
    },
    {
      "anonymous": false,
      "inputs": [
        {
          "indexed": false,
          "internalType": "address",
          "name": "creator",
          "type": "address"
        },
        {
          "indexed": false,
          "internalType": "string",
          "name": "title",
          "type": "string"
        }
      ],
      "name": "Initialized",
      "type": "event"
    },
    {
      "anonymous": false,
      "inputs": [
        {
          "indexed": false,
          "internalType": "address",
          "name": "player",
          "type": "address"
        }
      ],
      "name": "PlayerJoined",
      "type": "event"
    },
    {
      "anonymous": false,
      "inputs": [
        {
          "indexed": true,
          "internalType": "address",
          "name": "player",
          "type": "address"
        },
        {
          "indexed": false,
          "internalType": "uint256",
          "name": "feeRefunded",
          "type": "uint256"
        }
      ],
      "name": "PlayerUnregistered",
      "type": "event"
    },
    {
      "anonymous": false,
      "inputs": [
        {
          "indexed": false,
          "internalType": "address",
          "name": "winner",
          "type": "address"
        },
        {
          "indexed": false,
          "internalType": "uint256",
          "name": "amount",
          "type": "uint256"
        }
      ],
      "name": "PrizeDistributed",
      "type": "event"
    },
    {
      "anonymous": false,
      "inputs": [
        {
          "indexed": true,
          "internalType": "bytes32",
          "name": "role",
          "type": "bytes32"
        },
        {
          "indexed": true,
          "internalType": "bytes32",
          "name": "previousAdminRole",
          "type": "bytes32"
        },
        {
          "indexed": true,
          "internalType": "bytes32",
          "name": "newAdminRole",
          "type": "bytes32"
        }
      ],
      "name": "RoleAdminChanged",
      "type": "event"
    },
    {
      "anonymous": false,
      "inputs": [
        {
          "indexed": true,
          "internalType": "bytes32",
          "name": "role",
          "type": "bytes32"
        },
        {
          "indexed": true,
          "internalType": "address",
          "name": "account",
          "type": "address"
        },
        {
          "indexed": true,
          "internalType": "address",
          "name": "sender",
          "type": "address"
        }
      ],
      "name": "RoleGranted",
      "type": "event"
    },
    {
      "anonymous": false,
      "inputs": [
        {
          "indexed": true,
          "internalType": "bytes32",
          "name": "role",
          "type": "bytes32"
        },
        {
          "indexed": true,
          "internalType": "address",
          "name": "account",
          "type": "address"
        },
        {
          "indexed": true,
          "internalType": "address",
          "name": "sender",
          "type": "address"
        }
      ],
      "name": "RoleRevoked",
      "type": "event"
    },
    {
      "anonymous": false,
      "inputs": [
        {
          "indexed": false,
          "internalType": "address",
          "name": "player",
          "type": "address"
        },
        {
          "indexed": false,
          "internalType": "uint256",
          "name": "score",
          "type": "uint256"
        }
      ],
      "name": "ScoreSubmitted",
      "type": "event"
    },
    {
      "anonymous": false,
      "inputs": [
        {
          "indexed": false,
          "internalType": "address[]",
          "name": "winner",
          "type": "address[]"
        }
      ],
      "name": "WinnersSet",
      "type": "event"
    },
    {
      "inputs": [],
      "name": "CREATOR_ROLE",
      "outputs": [
        {
          "internalType": "bytes32",
          "name": "",
          "type": "bytes32"
        }
      ],
      "stateMutability": "view",
      "type": "function"
    },
    {
      "inputs": [],
      "name": "DEFAULT_ADMIN_ROLE",
      "outputs": [
        {
          "internalType": "bytes32",
          "name": "",
          "type": "bytes32"
        }
      ],
      "stateMutability": "view",
      "type": "function"
    },
    {
      "inputs": [],
      "name": "cancelGame",
      "outputs": [],
      "stateMutability": "nonpayable",
      "type": "function"
    },
    {
      "inputs": [],
      "name": "cancelRegistration",
      "outputs": [],
      "stateMutability": "nonpayable",
      "type": "function"
    },
    {
      "inputs": [],
      "name": "claimPrize",
      "outputs": [],
      "stateMutability": "nonpayable",
      "type": "function"
    },
    {
      "inputs": [],
      "name": "claimRefund",
      "outputs": [],
      "stateMutability": "nonpayable",
      "type": "function"
    },
    {
      "inputs": [],
      "name": "creator",
      "outputs": [
        {
          "internalType": "address",
          "name": "",
          "type": "address"
        }
      ],
      "stateMutability": "view",
      "type": "function"
    },
    {
      "inputs": [],
      "name": "description",
      "outputs": [
        {
          "internalType": "string",
          "name": "",
          "type": "string"
        }
      ],
      "stateMutability": "view",
      "type": "function"
    },
    {
      "inputs": [],
      "name": "distributePrize",
      "outputs": [],
      "stateMutability": "nonpayable",
      "type": "function"
    },
    {
      "inputs": [],
      "name": "distributionType",
      "outputs": [
        {
          "internalType": "enum Types.PrizeDistributionType",
          "name": "",
          "type": "uint8"
        }
      ],
      "stateMutability": "view",
      "type": "function"
    },
    {
      "inputs": [],
      "name": "entryFee",
      "outputs": [
        {
          "internalType": "uint256",
          "name": "",
          "type": "uint256"
        }
      ],
      "stateMutability": "view",
      "type": "function"
    },
    {
      "inputs": [],
      "name": "feeToken",
      "outputs": [
        {
          "internalType": "address",
          "name": "",
          "type": "address"
        }
      ],
      "stateMutability": "view",
      "type": "function"
    },
    {
      "inputs": [],
      "name": "gameRegistry",
      "outputs": [
        {
          "internalType": "address",
          "name": "",
          "type": "address"
        }
      ],
      "stateMutability": "view",
      "type": "function"
    },
    {
      "inputs": [
        {
          "internalType": "address",
          "name": "",
          "type": "address"
        }
      ],
      "name": "gameResults",
      "outputs": [
        {
          "internalType": "enum Types.GameType",
          "name": "gameType",
          "type": "uint8"
        },
        {
          "internalType": "address",
          "name": "player",
          "type": "address"
        },
        {
          "internalType": "uint256",
          "name": "score",
          "type": "uint256"
        },
        {
          "internalType": "uint256",
          "name": "timestamp",
          "type": "uint256"
        },
        {
          "internalType": "bytes32",
          "name": "gameHash",
          "type": "bytes32"
        }
      ],
      "stateMutability": "view",
      "type": "function"
    },
    {
      "inputs": [],
      "name": "gameStartTime",
      "outputs": [
        {
          "internalType": "uint256",
          "name": "",
          "type": "uint256"
        }
      ],
      "stateMutability": "view",
      "type": "function"
    },
    {
      "inputs": [],
      "name": "gameType",
      "outputs": [
        {
          "internalType": "enum Types.GameType",
          "name": "",
          "type": "uint8"
        }
      ],
      "stateMutability": "view",
      "type": "function"
    },
    {
      "inputs": [],
      "name": "getGameData",
      "outputs": [
        {
          "components": [
            {
              "internalType": "address",
              "name": "creator",
              "type": "address"
            },
            {
              "internalType": "string",
              "name": "title",
              "type": "string"
            },
            {
              "internalType": "string",
              "name": "description",
              "type": "string"
            },
            {
              "internalType": "enum Types.GameStatus",
              "name": "status",
              "type": "uint8"
            },
            {
              "internalType": "enum Types.GameType",
              "name": "gameType",
              "type": "uint8"
            },
            {
              "internalType": "uint256",
              "name": "maxPlayers",
              "type": "uint256"
            },
            {
              "internalType": "uint256",
              "name": "playerCount",
              "type": "uint256"
            },
            {
              "internalType": "uint256",
              "name": "registrationEndTime",
              "type": "uint256"
            },
            {
              "internalType": "uint256",
              "name": "gameStartTime",
              "type": "uint256"
            },
            {
              "internalType": "address",
              "name": "feeToken",
              "type": "address"
            },
            {
              "internalType": "uint256",
              "name": "entryFee",
              "type": "uint256"
            },
            {
              "internalType": "address",
              "name": "prizeToken",
              "type": "address"
            },
            {
              "internalType": "uint256",
              "name": "prizePool",
              "type": "uint256"
            }
          ],
          "internalType": "struct Types.GameData",
          "name": "",
          "type": "tuple"
        }
      ],
      "stateMutability": "view",
      "type": "function"
    },
    {
      "inputs": [
        {
          "internalType": "address",
          "name": "player",
          "type": "address"
        }
      ],
      "name": "getPlayerGameResult",
      "outputs": [
        {
          "components": [
            {
              "internalType": "enum Types.GameType",
              "name": "gameType",
              "type": "uint8"
            },
            {
              "internalType": "address",
              "name": "player",
              "type": "address"
            },
            {
              "internalType": "uint256",
              "name": "score",
              "type": "uint256"
            },
            {
              "internalType": "uint256",
              "name": "timestamp",
              "type": "uint256"
            },
            {
              "internalType": "bytes32",
              "name": "gameHash",
              "type": "bytes32"
            },
            {
              "internalType": "uint256[]",
              "name": "metadata",
              "type": "uint256[]"
            }
          ],
          "internalType": "struct Types.GameResult",
          "name": "",
          "type": "tuple"
        }
      ],
      "stateMutability": "view",
      "type": "function"
    },
    {
      "inputs": [
        {
          "internalType": "address",
          "name": "player",
          "type": "address"
        }
      ],
      "name": "getPlayerScore",
      "outputs": [
        {
          "internalType": "uint256",
          "name": "",
          "type": "uint256"
        }
      ],
      "stateMutability": "view",
      "type": "function"
    },
    {
      "inputs": [
        {
          "internalType": "bytes32",
          "name": "role",
          "type": "bytes32"
        }
      ],
      "name": "getRoleAdmin",
      "outputs": [
        {
          "internalType": "bytes32",
          "name": "",
          "type": "bytes32"
        }
      ],
      "stateMutability": "view",
      "type": "function"
    },
    {
      "inputs": [
        {
          "internalType": "bytes32",
          "name": "role",
          "type": "bytes32"
        },
        {
          "internalType": "address",
          "name": "account",
          "type": "address"
        }
      ],
      "name": "grantRole",
      "outputs": [],
      "stateMutability": "nonpayable",
      "type": "function"
    },
    {
      "inputs": [
        {
          "internalType": "bytes32",
          "name": "role",
          "type": "bytes32"
        },
        {
          "internalType": "address",
          "name": "account",
          "type": "address"
        }
      ],
      "name": "hasRole",
      "outputs": [
        {
          "internalType": "bool",
          "name": "",
          "type": "bool"
        }
      ],
      "stateMutability": "view",
      "type": "function"
    },
    {
      "inputs": [
        {
          "components": [
            {
              "internalType": "string",
              "name": "title",
              "type": "string"
            },
            {
              "internalType": "string",
              "name": "description",
              "type": "string"
            },
            {
              "internalType": "enum Types.GameType",
              "name": "gameType",
              "type": "uint8"
            },
            {
              "internalType": "address",
              "name": "feeTokenAddress",
              "type": "address"
            },
            {
              "internalType": "uint256",
              "name": "entryFee",
              "type": "uint256"
            },
            {
              "internalType": "uint256",
              "name": "minPlayers",
              "type": "uint256"
            },
            {
              "internalType": "uint256",
              "name": "maxPlayers",
              "type": "uint256"
            },
            {
              "internalType": "uint256",
              "name": "registrationEndTime",
              "type": "uint256"
            },
            {
              "internalType": "uint256",
              "name": "gameStartTime",
              "type": "uint256"
            },
            {
              "internalType": "address",
              "name": "prizeTokenAddress",
              "type": "address"
            },
            {
              "internalType": "uint256",
              "name": "prizePool",
              "type": "uint256"
            },
            {
              "internalType": "enum Types.PrizeDistributionType",
              "name": "distributionType",
              "type": "uint8"
            },
            {
              "internalType": "uint256[]",
              "name": "rankPrizes",
              "type": "uint256[]"
            }
          ],
          "internalType": "struct Types.GameConfig",
          "name": "config",
          "type": "tuple"
        },
        {
          "internalType": "address",
          "name": "_creator",
          "type": "address"
        }
      ],
      "name": "initialize",
      "outputs": [],
      "stateMutability": "nonpayable",
      "type": "function"
    },
    {
      "inputs": [
        {
          "internalType": "address",
          "name": "",
          "type": "address"
        }
      ],
      "name": "isJoined",
      "outputs": [
        {
          "internalType": "bool",
          "name": "",
          "type": "bool"
        }
      ],
      "stateMutability": "view",
      "type": "function"
    },
    {
      "inputs": [],
      "name": "joinGame",
      "outputs": [],
      "stateMutability": "nonpayable",
      "type": "function"
    },
    {
      "inputs": [],
      "name": "maxPlayers",
      "outputs": [
        {
          "internalType": "uint256",
          "name": "",
          "type": "uint256"
        }
      ],
      "stateMutability": "view",
      "type": "function"
    },
    {
      "inputs": [],
      "name": "minPlayers",
      "outputs": [
        {
          "internalType": "uint256",
          "name": "",
          "type": "uint256"
        }
      ],
      "stateMutability": "view",
      "type": "function"
    },
    {
      "inputs": [
        {
          "internalType": "uint256",
          "name": "",
          "type": "uint256"
        }
      ],
      "name": "players",
      "outputs": [
        {
          "internalType": "address",
          "name": "player",
          "type": "address"
        },
        {
          "internalType": "uint256",
          "name": "score",
          "type": "uint256"
        }
      ],
      "stateMutability": "view",
      "type": "function"
    },
    {
      "inputs": [],
      "name": "prizePool",
      "outputs": [
        {
          "internalType": "uint256",
          "name": "",
          "type": "uint256"
        }
      ],
      "stateMutability": "view",
      "type": "function"
    },
    {
      "inputs": [
        {
          "internalType": "address",
          "name": "",
          "type": "address"
        }
      ],
      "name": "prizeToClaimsAmount",
      "outputs": [
        {
          "internalType": "uint256",
          "name": "",
          "type": "uint256"
        }
      ],
      "stateMutability": "view",
      "type": "function"
    },
    {
      "inputs": [],
      "name": "prizeToken",
      "outputs": [
        {
          "internalType": "address",
          "name": "",
          "type": "address"
        }
      ],
      "stateMutability": "view",
      "type": "function"
    },
    {
      "inputs": [
        {
          "internalType": "uint256",
          "name": "",
          "type": "uint256"
        }
      ],
      "name": "rankPrizes",
      "outputs": [
        {
          "internalType": "uint256",
          "name": "",
          "type": "uint256"
        }
      ],
      "stateMutability": "view",
      "type": "function"
    },
    {
      "inputs": [],
      "name": "registrationEndTime",
      "outputs": [
        {
          "internalType": "uint256",
          "name": "",
          "type": "uint256"
        }
      ],
      "stateMutability": "view",
      "type": "function"
    },
    {
      "inputs": [
        {
          "internalType": "bytes32",
          "name": "role",
          "type": "bytes32"
        },
        {
          "internalType": "address",
          "name": "callerConfirmation",
          "type": "address"
        }
      ],
      "name": "renounceRole",
      "outputs": [],
      "stateMutability": "nonpayable",
      "type": "function"
    },
    {
      "inputs": [
        {
          "internalType": "bytes32",
          "name": "role",
          "type": "bytes32"
        },
        {
          "internalType": "address",
          "name": "account",
          "type": "address"
        }
      ],
      "name": "revokeRole",
      "outputs": [],
      "stateMutability": "nonpayable",
      "type": "function"
    },
    {
      "inputs": [
        {
          "internalType": "address",
          "name": "_gameRegistry",
          "type": "address"
        }
      ],
      "name": "setGameRegistry",
      "outputs": [],
      "stateMutability": "nonpayable",
      "type": "function"
    },
    {
      "inputs": [
        {
          "internalType": "address[]",
          "name": "_winners",
          "type": "address[]"
        }
      ],
      "name": "setWinners",
      "outputs": [],
      "stateMutability": "nonpayable",
      "type": "function"
    },
    {
      "inputs": [],
      "name": "startGame",
      "outputs": [],
      "stateMutability": "nonpayable",
      "type": "function"
    },
    {
      "inputs": [],
      "name": "status",
      "outputs": [
        {
          "internalType": "enum Types.GameStatus",
          "name": "",
          "type": "uint8"
        }
      ],
      "stateMutability": "view",
      "type": "function"
    },
    {
      "inputs": [
        {
          "components": [
            {
              "internalType": "enum Types.GameType",
              "name": "gameType",
              "type": "uint8"
            },
            {
              "internalType": "address",
              "name": "player",
              "type": "address"
            },
            {
              "internalType": "uint256",
              "name": "score",
              "type": "uint256"
            },
            {
              "internalType": "uint256",
              "name": "timestamp",
              "type": "uint256"
            },
            {
              "internalType": "bytes32",
              "name": "gameHash",
              "type": "bytes32"
            },
            {
              "internalType": "uint256[]",
              "name": "metadata",
              "type": "uint256[]"
            }
          ],
          "internalType": "struct Types.GameResult",
          "name": "result",
          "type": "tuple"
        }
      ],
      "name": "submitGameResult",
      "outputs": [],
      "stateMutability": "nonpayable",
      "type": "function"
    },
    {
      "inputs": [
        {
          "internalType": "uint256",
          "name": "score",
          "type": "uint256"
        }
      ],
      "name": "submitScore",
      "outputs": [],
      "stateMutability": "nonpayable",
      "type": "function"
    },
    {
      "inputs": [
        {
          "internalType": "bytes4",
          "name": "interfaceId",
          "type": "bytes4"
        }
      ],
      "name": "supportsInterface",
      "outputs": [
        {
          "internalType": "bool",
          "name": "",
          "type": "bool"
        }
      ],
      "stateMutability": "view",
      "type": "function"
    },
    {
      "inputs": [],
      "name": "title",
      "outputs": [
        {
          "internalType": "string",
          "name": "",
          "type": "string"
        }
      ],
      "stateMutability": "view",
      "type": "function"
    },
    {
      "inputs": [
        {
          "internalType": "uint256",
          "name": "",
          "type": "uint256"
        }
      ],
      "name": "winners",
      "outputs": [
        {
          "internalType": "address",
          "name": "",
          "type": "address"
        }
      ],
      "stateMutability": "view",
      "type": "function"
    }
  ],
  "bytecode": "0x608060405234801561001057600080fd5b50613726806100206000396000f3fe608060405234801561001057600080fd5b50600436106102745760003560e01c806384da242d11610151578063d0ef024a116100c3578063da09075511610087578063da0907551461058b578063dd898b2f146105a3578063dff7d2c7146105b6578063e085c539146105bf578063e5a078a7146105e8578063f71d96cb146105f057600080fd5b8063d0ef024a1461054d578063d4f77b1c14610560578063d547741f14610568578063d65ab5f21461057b578063d84c1ac91461058357600080fd5b8063a59fffcb11610115578063a59fffcb146104dd578063af4e99de146104f0578063aff0b29714610505578063b062e95014610518578063b5545a3c14610538578063bbdc02db1461054057600080fd5b806384da242d146104805780638aeda25a1461049a57806391d14854146104af578063a217fddf146104c2578063a2fb1175146104ca57600080fd5b8063445e6b39116101ea578063647846a5116101ae578063647846a51461043957806370740ac91461044c578063719ce73e146104545780637284e4161461045d57806377b6e504146104655780638233e4331461046d57600080fd5b8063445e6b39146103d25780634a79d50c146103e55780634c2412a2146103fa578063554c925c146104035780635e6a43f51461041657600080fd5b80631d75d7c21161023c5780631d75d7c21461030c578063200d2ed214610364578063248a9ca31461037e5780632770c895146103a15780632f2ff15d146103aa57806336568abe146103bf57600080fd5b806301ffc9a7146102795780630252b995146102a157806302d05d3f146102b8578063072ea61c146102e3578063140d6b94146102ec575b600080fd5b61028c610287366004612a0c565b610611565b60405190151581526020015b60405180910390f35b6102aa60095481565b604051908152602001610298565b6002546102cb906001600160a01b031681565b6040516001600160a01b039091168152602001610298565b6102aa600b5481565b6102ff6102fa366004612a62565b610648565b6040516102989190612ab2565b61035361031a366004612a62565b601660205260009081526040902080546001820154600283015460039093015460ff8316936101009093046001600160a01b0316929085565b604051610298959493929190612b4a565b6012546103719060ff1681565b6040516102989190612b81565b6102aa61038c366004612b94565b60009081526020819052604090206001015490565b6102aa60065481565b6103bd6103b8366004612bad565b61078a565b005b6103bd6103cd366004612bad565b6107b5565b6103bd6103e0366004612bdd565b6107ed565b6103ed610945565b6040516102989190612c98565b6102aa60075481565b6103bd610411366004612cab565b6109d3565b61028c610424366004612a62565b60146020526000908152604090205460ff1681565b600a546102cb906001600160a01b031681565b6103bd610d09565b6102aa600e5481565b6103ed610e39565b6103bd610e46565b6102aa61047b366004612b94565b61134a565b600f5461048d9060ff1681565b6040516102989190612ce6565b6102aa6000805160206136d183398151915281565b61028c6104bd366004612bad565b61136b565b6102aa600081565b6102cb6104d8366004612b94565b611394565b6103bd6104eb366004612e82565b6113be565b6104f86117b1565b6040516102989190612fd2565b6103bd610513366004612b94565b6119ac565b6102aa610526366004612a62565b60116020526000908152604090205481565b6103bd611ac4565b6005546103719060ff1681565b600d546102cb906001600160a01b031681565b6103bd611c43565b6103bd610576366004612bad565b611f22565b6103bd611f47565b6103bd6120a4565b6001546102cb9061010090046001600160a01b031681565b6103bd6105b1366004612a62565b61226d565b6102aa60085481565b6102aa6105cd366004612a62565b6001600160a01b031660009081526015602052604090205490565b6103bd6122f7565b6106036105fe366004612b94565b612709565b6040516102989291906130d8565b60006001600160e01b03198216637965db0b60e01b148061064257506301ffc9a760e01b6001600160e01b03198316145b92915050565b61068e6040805160c08101909152806000815260200160006001600160a01b03168152602001600081526020016000815260200160008019168152602001606081525090565b6001600160a01b03821660009081526016602052604090819020815160c081019092528054829060ff1660048111156106c9576106c9612a7f565b60048111156106da576106da612a7f565b81526020016000820160019054906101000a90046001600160a01b03166001600160a01b03166001600160a01b031681526020016001820154815260200160028201548152602001600382015481526020016004820180548060200260200160405190810160405280929190818152602001828054801561077a57602002820191906000526020600020905b815481526020019060010190808311610766575b5050505050815250509050919050565b6000828152602081905260409020600101546107a581612741565b6107af838361274e565b50505050565b6001600160a01b03811633146107de5760405163334bd91960e11b815260040160405180910390fd5b6107e882826127e0565b505050565b6000805160206136d183398151915261080581612741565b600160125460ff16600481111561081e5761081e612a7f565b146108445760405162461bcd60e51b815260040161083b906130f1565b60405180910390fd5b60005b828110156108eb57601460008585848181106108655761086561311b565b905060200201602081019061087a9190612a62565b6001600160a01b0316815260208101919091526040016000205460ff166108e35760405162461bcd60e51b815260206004820152601860248201527f54686572652069732077696e6e6572206e6f74206a6f696e0000000000000000604482015260640161083b565b600101610847565b506108f8601784846128c5565b506012805460ff191660021790556040517f8451dabc49a0b82cffb0a79a6771fe2718264aae54a4eff4d4463748813ec56f906109389085908590613131565b60405180910390a1505050565b6003805461095290613174565b80601f016020809104026020016040519081016040528092919081815260200182805461097e90613174565b80156109cb5780601f106109a0576101008083540402835291602001916109cb565b820191906000526020600020905b8154815290600101906020018083116109ae57829003601f168201915b505050505081565b600160125460ff1660048111156109ec576109ec612a7f565b14610a095760405162461bcd60e51b815260040161083b906130f1565b600954421015610a565760405162461bcd60e51b815260206004820152601860248201527711d85b59481a185cc81b9bdd081cdd185c9d1959081e595d60421b604482015260640161083b565b3360009081526014602052604090205460ff16610aa95760405162461bcd60e51b8152602060048201526011602482015270141b185e595c881b9bdd081a9bda5b9959607a1b604482015260640161083b565b60055460ff166004811115610ac057610ac0612a7f565b610acd60208301836131ae565b6004811115610ade57610ade612a7f565b14610b205760405162461bcd60e51b815260206004820152601260248201527108ec2daca40e8f2e0ca40dad2e6dac2e8c6d60731b604482015260640161083b565b33610b316040830160208401612a62565b6001600160a01b031614610b875760405162461bcd60e51b815260206004820152601760248201527f506c617965722061646472657373206d69736d61746368000000000000000000604482015260640161083b565b60015461010090046001600160a01b0316610bdb5760405162461bcd60e51b815260206004820152601460248201527311d85b59549959da5cdd1c9e481b9bdd081cd95d60621b604482015260640161083b565b6001546040516335c34ae960e01b81526101009091046001600160a01b03169060009082906335c34ae990610c149086906004016131fd565b6020604051808303816000875af1158015610c33573d6000803e3d6000fd5b505050506040513d601f19601f82011682018060405250810190610c5791906132bc565b905080610ca65760405162461bcd60e51b815260206004820152601f60248201527f47616d6520726573756c7420766572696669636174696f6e206661696c656400604482015260640161083b565b336000908152601560209081526040808320818701359055601690915290208390610cd182826133fa565b9050507fa578df9b0453d14d7ed8615ee0e9d58f70e041e91fc5865e3b71f81ea05296c03384604001356040516109389291906130d8565b3360009081526011602052604090205480610d5a5760405162461bcd60e51b81526020600482015260116024820152704e6f207072697a6520746f20636c61696d60781b604482015260640161083b565b3360008181526011602052604080822091909155600d54905163a9059cbb60e01b81526001600160a01b039091169163a9059cbb91610d9e919085906004016130d8565b6020604051808303816000875af1158015610dbd573d6000803e3d6000fd5b505050506040513d601f19601f82011682018060405250810190610de191906132bc565b610dfd5760405162461bcd60e51b815260040161083b90613489565b7fb8e091d87f82e56d22276c9a0088ea5d6068e355383dc08b2721b7b6cb10e8453382604051610e2e9291906130d8565b60405180910390a150565b6004805461095290613174565b6000805160206136d1833981519152610e5e81612741565b600260125460ff166004811115610e7757610e77612a7f565b14610eb55760405162461bcd60e51b815260206004820152600e60248201526d11d85b59481b9bdd08195b99195960921b604482015260640161083b565b601754610ef55760405162461bcd60e51b815260206004820152600e60248201526d139bc81dda5b9b995c9cc81cd95d60921b604482015260640161083b565b6000600e5411610f3d5760405162461bcd60e51b81526020600482015260136024820152725072697a6520706f6f6c20697320656d70747960681b604482015260640161083b565b600e805460009182905590600f5460ff166002811115610f5f57610f5f612a7f565b03610fbc5780601160006017600081548110610f7d57610f7d61311b565b60009182526020808320909101546001600160a01b0316835282019290925260400181208054909190610fb19084906134b2565b909155506113399050565b6001600f5460ff166002811115610fd557610fd5612a7f565b03611126576013546000610fe982846134db565b90506000610ff783856134ef565b905060005b838110156110685760008390508060116000601385815481106110215761102161311b565b600091825260208083206002909202909101546001600160a01b031683528201929092526040018120805490919061105a9084906134b2565b909155505050600101610ffc565b50600d5460025460405163a9059cbb60e01b81526001600160a01b039283169263a9059cbb9261109f9291169085906004016130d8565b6020604051808303816000875af11580156110be573d6000803e3d6000fd5b505050506040513d601f19601f820116820180604052508101906110e291906132bc565b61111e5760405162461bcd60e51b815260206004820152600d60248201526c1499599d5b990819985a5b1959609a1b604482015260640161083b565b505050611339565b6002600f5460ff16600281111561113f5761113f612a7f565b036113395760105460175411156111ae5760405162461bcd60e51b815260206004820152602d60248201527f57696e6e657273206c69737420657863656564732072616e6b207072697a652060448201526c31b7b73334b3bab930ba34b7b760991b606482015260840161083b565b6000805b601754811015611243576000601082815481106111d1576111d161311b565b906000526020600020015490506000811161122e5760405162461bcd60e51b815260206004820152601d60248201527f4d697373696e67207072697a6520636f6e66696720666f722072616e6b000000604482015260640161083b565b61123881846134b2565b9250506001016111b2565b5061271081111561128f5760405162461bcd60e51b81526020600482015260166024820152755072697a65204250532065786365656473203130302560501b604482015260640161083b565b60005b601754811015611336576000601082815481106112b1576112b161311b565b600091825260208220015491506127106112cb8387613345565b6112d591906134db565b90508060116000601786815481106112ef576112ef61311b565b60009182526020808320909101546001600160a01b03168352820192909252604001812080549091906113239084906134b2565b9091555050600190920191506112929050565b50505b50506012805460ff19166003179055565b6010818154811061135a57600080fd5b600091825260209091200154905081565b6000918252602082815260408084206001600160a01b0393909316845291905290205460ff1690565b601781815481106113a457600080fd5b6000918252602090912001546001600160a01b0316905081565b60015460ff16156114075760405162461bcd60e51b8152602060048201526013602482015272105b1c9958591e481a5b9a5d1a585b1a5e9959606a1b604482015260640161083b565b6001805460ff19168117905560e082015142106114665760405162461bcd60e51b815260206004820152601960248201527f52656720656e64206d75737420626520696e2066757475726500000000000000604482015260640161083b565b8160e0015182610100015110156114bf5760405162461bcd60e51b815260206004820152601e60248201527f47616d65206d7573742073746172742061667465722072656720656e64730000604482015260640161083b565b8160a001518260c00151101561150c5760405162461bcd60e51b815260206004820152601260248201527126b0bc1036bab9ba103132901f1e9026b4b760711b604482015260640161083b565b600280546001600160a01b0319166001600160a01b03831617905581516003906115369082613543565b5060208201516004906115499082613543565b506012805460ff199081169091556040830151600580549192909116600183600481111561157957611579612a7f565b02179055506060820151600a80546001600160a01b039283166001600160a01b0319918216179091556080840151600b5560a084015160065560c084015160075560e0840151600855610100840151600955610120840151600d8054919093169116179055610140820151600e55610160820151600f805460ff1916600183600281111561160957611609612a7f565b0217905550610180820151805161162891601091602090910190612928565b506002826101600151600281111561164257611642612a7f565b03611735576101808201515160105461169d5760405162461bcd60e51b815260206004820152601f60248201527f437573746f6d2072616e6b20636f6e66696720666f726d6174206572726f7200604482015260640161083b565b6000805b828110156116e657601081815481106116bc576116bc61311b565b9060005260206000200154826116d291906134b2565b91506116df6001826134b2565b90506116a1565b506127108111156117325760405162461bcd60e51b81526020600482015260166024820152755072697a65204250532065786365656473203130302560501b604482015260640161083b565b50505b61174060008261274e565b506117596000805160206136d18339815191528261274e565b506117736000805160206136d1833981519152600061284b565b7fc66e6cd41f805f65978f5241034e8d106c42cf3c7a4d62ccd857646b401cbe4a8160036040516117a5929190613607565b60405180910390a15050565b6117b9612963565b6117c1612963565b6002546001600160a01b03168152600380546117dc90613174565b80601f016020809104026020016040519081016040528092919081815260200182805461180890613174565b80156118555780601f1061182a57610100808354040283529160200191611855565b820191906000526020600020905b81548152906001019060200180831161183857829003601f168201915b505050505081602001819052506004805461186f90613174565b80601f016020809104026020016040519081016040528092919081815260200182805461189b90613174565b80156118e85780601f106118bd576101008083540402835291602001916118e8565b820191906000526020600020905b8154815290600101906020018083116118cb57829003601f168201915b50505050506040820152601254606082019060ff16600481111561190e5761190e612a7f565b9081600481111561192157611921612a7f565b905250600554608082019060ff16600481111561194057611940612a7f565b9081600481111561195357611953612a7f565b90525060075460a082015260135460c082015260085460e0820152600954610100820152600b54610140820152600a546001600160a01b03908116610120830152600e54610180830152600d5416610160820152919050565b600160125460ff1660048111156119c5576119c5612a7f565b146119e25760405162461bcd60e51b815260040161083b906130f1565b600954421015611a2f5760405162461bcd60e51b815260206004820152601860248201527711d85b59481a185cc81b9bdd081cdd185c9d1959081e595d60421b604482015260640161083b565b3360009081526014602052604090205460ff16611a825760405162461bcd60e51b8152602060048201526011602482015270141b185e595c881b9bdd081a9bda5b9959607a1b604482015260640161083b565b3360008181526015602052604090819020839055517fa578df9b0453d14d7ed8615ee0e9d58f70e041e91fc5865e3b71f81ea05296c091610e2e9184906130d8565b600460125460ff166004811115611add57611add612a7f565b14611b1e5760405162461bcd60e51b815260206004820152601160248201527011d85b59481b9bdd0818d85b98d95b1959607a1b604482015260640161083b565b336000908152600c602052604090205480611b6f5760405162461bcd60e51b81526020600482015260116024820152704e6f207072697a6520746f20636c61696d60781b604482015260640161083b565b336000818152600c602052604080822091909155600a54905163a9059cbb60e01b81526001600160a01b039091169163a9059cbb91611bb3919085906004016130d8565b6020604051808303816000875af1158015611bd2573d6000803e3d6000fd5b505050506040513d601f19601f82011682018060405250810190611bf691906132bc565b611c125760405162461bcd60e51b815260040161083b90613489565b7feb4706597fb7a2e8806c0e31ad4c334330a97bc3cae6b9c360e152c922bb40c83382604051610e2e9291906130d8565b600060125460ff166004811115611c5c57611c5c612a7f565b14611ca95760405162461bcd60e51b815260206004820152601a60248201527f47616d65206e6f7420616363657074696e6720706c6179657273000000000000604482015260640161083b565b6008544210611cfa5760405162461bcd60e51b815260206004820152601860248201527f526567697374726174696f6e2074696d65207061737365640000000000000000604482015260640161083b565b60075460135410611d435760405162461bcd60e51b815260206004820152601360248201527213585e081c1b185e595c9cc81c995858da1959606a1b604482015260640161083b565b3360009081526014602052604090205460ff1615611d945760405162461bcd60e51b815260206004820152600e60248201526d105b1c9958591e481a9bda5b995960921b604482015260640161083b565b600b5415611e3757600a54600b546040516323b872dd60e01b815233600482015230602482015260448101919091526001600160a01b03909116906323b872dd906064016020604051808303816000875af1158015611df7573d6000803e3d6000fd5b505050506040513d601f19601f82011682018060405250810190611e1b91906132bc565b611e375760405162461bcd60e51b815260040161083b90613489565b6040805180820182523380825260006020808401828152601380546001808201835591855295517f66de8ffda797e3de9c05e8fc57b3bf0ec28a930d40b0d285d93c06501cf6a090600290970296870180546001600160a01b0319166001600160a01b0390921691909117905590517f66de8ffda797e3de9c05e8fc57b3bf0ec28a930d40b0d285d93c06501cf6a09190950194909455600b54838352600c8252858320556014815290849020805460ff191690931790925591519182527f31e760aa525306aba638a784082a013b6a1cc0a9a1789f3f22281c0453b10b1f910160405180910390a1565b600082815260208190526040902060010154611f3d81612741565b6107af83836127e0565b6000805160206136d1833981519152611f5f81612741565b600060125460ff166004811115611f7857611f78612a7f565b14611fc55760405162461bcd60e51b815260206004820152601a60248201527f47616d65206e6f7420696e204372656174656420737461747573000000000000604482015260640161083b565b6008544210156120175760405162461bcd60e51b815260206004820152601c60248201527f526567697374726174696f6e206973206e6f74206f7665722079657400000000604482015260640161083b565b600654601354101561206b5760405162461bcd60e51b815260206004820152601b60248201527f4e6f7420656e6f75676820706c617965727320746f2073746172740000000000604482015260640161083b565b6012805460ff191660011790556040517f762f260439bb4be3ef6e4dc2786e2e7bd187d3d80b79057d7a424fe98563e33590600090a150565b6000805160206136d18339815191526120bc81612741565b600060125460ff1660048111156120d5576120d5612a7f565b14806120f75750600160125460ff1660048111156120f5576120f5612a7f565b145b6121565760405162461bcd60e51b815260206004820152602a60248201527f43616e6e6f742063616e63656c20616e20656e646564206f722064697374726960448201526962757465642067616d6560b01b606482015260840161083b565b600e805460009091556012805460ff19166004179055801561222757600d5460025460405163a9059cbb60e01b81526001600160a01b039283169263a9059cbb926121a89291169085906004016130d8565b6020604051808303816000875af11580156121c7573d6000803e3d6000fd5b505050506040513d601f19601f820116820180604052508101906121eb91906132bc565b6122275760405162461bcd60e51b815260206004820152600d60248201526c1499599d5b990819985a5b1959609a1b604482015260640161083b565b6002546040518281526001600160a01b03909116907fcabd9ffa4ff52290e56c52a9ed671760a0e5951eaa234fd9e0ccccf507bf98ca9060200160405180910390a25050565b600061227881612741565b6001600160a01b0382166122ce5760405162461bcd60e51b815260206004820152601d60248201527f496e76616c69642067616d652072656769737472792061646472657373000000604482015260640161083b565b50600180546001600160a01b0390921661010002610100600160a81b0319909216919091179055565b6008543390421061234a5760405162461bcd60e51b815260206004820152601960248201527f526567697374726174696f6e2074696d65206973206f76657200000000000000604482015260640161083b565b600060125460ff16600481111561236357612363612a7f565b146123b05760405162461bcd60e51b815260206004820181905260248201527f47616d6520697320616c7265616479206f6e676f696e67206f7220656e646564604482015260640161083b565b6001600160a01b0381166000908152600c60205260409020548061242c5760405162461bcd60e51b815260206004820152602d60248201527f506c6179657220686173206e6f74206a6f696e6564206f722066656520616c7260448201526c1958591e481c99599d5b991959609a1b606482015260840161083b565b600080805b60135481101561248b57846001600160a01b0316601382815481106124585761245861311b565b60009182526020909120600290910201546001600160a01b031603612483578092506001915061248b565b600101612431565b50806124ea5760405162461bcd60e51b815260206004820152602860248201527f496e7465726e616c206572726f723a20506c61796572206e6f7420666f756e64604482015267081a5b881b1a5cdd60c21b606482015260840161083b565b6013546000906124fc906001906136a7565b905080831461257257601381815481106125185761251861311b565b9060005260206000209060020201601384815481106125395761253961311b565b60009182526020909120825460029092020180546001600160a01b0319166001600160a01b039092169190911781556001918201549101555b6013805480612583576125836136ba565b6000828152602080822060026000199094019384020180546001600160a01b0319168155600101829055919092556001600160a01b0387168252600c905260408120819055600e80548692906125da9084906136a7565b90915550506001600160a01b038086166000908152601460209081526040808320805460ff19169055601590915280822091909155600a54905163a9059cbb60e01b815291169063a9059cbb9061263790889088906004016130d8565b6020604051808303816000875af1158015612656573d6000803e3d6000fd5b505050506040513d601f19601f8201168201806040525081019061267a91906132bc565b6126bf5760405162461bcd60e51b81526020600482015260166024820152751499599d5b99081d1c985b9cd9995c8819985a5b195960521b604482015260640161083b565b846001600160a01b03167fbddaec5e3db6d33ac9b0043f3c92cf3d081b19f8646f372eb3a68a51e273a104856040516126fa91815260200190565b60405180910390a25050505050565b6013818154811061271957600080fd5b6000918252602090912060029091020180546001909101546001600160a01b03909116915082565b61274b8133612896565b50565b600061275a838361136b565b6127d8576000838152602081815260408083206001600160a01b03861684529091529020805460ff191660011790556127903390565b6001600160a01b0316826001600160a01b0316847f2f8788117e7eff1d82e926ec794901d17c78024a50270940304540a733656f0d60405160405180910390a4506001610642565b506000610642565b60006127ec838361136b565b156127d8576000838152602081815260408083206001600160a01b0386168085529252808320805460ff1916905551339286917ff6391f5c32d9c69d2a47ea670b442974b53935d1edc7fd64eb21e047a839171b9190a4506001610642565b600082815260208190526040808220600101805490849055905190918391839186917fbd79b86ffe0ab8e8776151514217cd7cacd52c909f66475c3af44e129f0b00ff9190a4505050565b6128a0828261136b565b6128c157808260405163e2517d3f60e01b815260040161083b9291906130d8565b5050565b828054828255906000526020600020908101928215612918579160200282015b828111156129185781546001600160a01b0319166001600160a01b038435161782556020909201916001909101906128e5565b506129249291506129f7565b5090565b828054828255906000526020600020908101928215612918579160200282015b82811115612918578251825591602001919060010190612948565b604051806101a0016040528060006001600160a01b031681526020016060815260200160608152602001600060048111156129a0576129a0612a7f565b8152602001600081526020016000815260200160008152602001600081526020016000815260200160006001600160a01b031681526020016000815260200160006001600160a01b03168152602001600081525090565b5b8082111561292457600081556001016129f8565b600060208284031215612a1e57600080fd5b81356001600160e01b031981168114612a3657600080fd5b9392505050565b6001600160a01b038116811461274b57600080fd5b8035612a5d81612a3d565b919050565b600060208284031215612a7457600080fd5b8135612a3681612a3d565b634e487b7160e01b600052602160045260246000fd5b6005811061274b5761274b612a7f565b612aae81612a95565b9052565b6000602080835260e083018451612ac881612a95565b80838601525060018060a01b03828601511660408501526040850151606085015260608501516080850152608085015160a085015260a085015160c080860152818151808452610100870191508483019350600092505b80831015612b3f5783518252928401926001929092019190840190612b1f565b509695505050505050565b60a08101612b5787612a95565b9581526001600160a01b039490941660208501526040840192909252606083015260809091015290565b60208101612b8e83612a95565b91905290565b600060208284031215612ba657600080fd5b5035919050565b60008060408385031215612bc057600080fd5b823591506020830135612bd281612a3d565b809150509250929050565b60008060208385031215612bf057600080fd5b823567ffffffffffffffff80821115612c0857600080fd5b818501915085601f830112612c1c57600080fd5b813581811115612c2b57600080fd5b8660208260051b8501011115612c4057600080fd5b60209290920196919550909350505050565b6000815180845260005b81811015612c7857602081850181015186830182015201612c5c565b506000602082860101526020601f19601f83011685010191505092915050565b602081526000612a366020830184612c52565b600060208284031215612cbd57600080fd5b813567ffffffffffffffff811115612cd457600080fd5b820160c08185031215612a3657600080fd5b6020810160038310612b8e57612b8e612a7f565b634e487b7160e01b600052604160045260246000fd5b6040516101a0810167ffffffffffffffff81118282101715612d3457612d34612cfa565b60405290565b604051601f8201601f1916810167ffffffffffffffff81118282101715612d6357612d63612cfa565b604052919050565b600082601f830112612d7c57600080fd5b813567ffffffffffffffff811115612d9657612d96612cfa565b612da9601f8201601f1916602001612d3a565b818152846020838601011115612dbe57600080fd5b816020850160208301376000918101602001919091529392505050565b6005811061274b57600080fd5b8035612a5d81612ddb565b803560038110612a5d57600080fd5b600082601f830112612e1357600080fd5b8135602067ffffffffffffffff821115612e2f57612e2f612cfa565b8160051b612e3e828201612d3a565b9283528481018201928281019087851115612e5857600080fd5b83870192505b84831015612e7757823582529183019190830190612e5e565b979650505050505050565b60008060408385031215612e9557600080fd5b823567ffffffffffffffff80821115612ead57600080fd5b908401906101a08287031215612ec257600080fd5b612eca612d10565b823582811115612ed957600080fd5b612ee588828601612d6b565b825250602083013582811115612efa57600080fd5b612f0688828601612d6b565b602083015250612f1860408401612de8565b6040820152612f2960608401612a52565b60608201526080830135608082015260a083013560a082015260c083013560c082015260e083013560e0820152610100808401358183015250610120612f70818501612a52565b908201526101408381013590820152610160612f8d818501612df3565b908201526101808381013583811115612fa557600080fd5b612fb189828701612e02565b828401525050809450505050612fc960208401612a52565b90509250929050565b60208152612fec6020820183516001600160a01b03169052565b600060208301516101a080604085015261300a6101c0850183612c52565b91506040850151601f198584030160608601526130278382612c52565b925050606085015161303c6080860182612aa5565b50608085015161304f60a0860182612aa5565b5060a085015160c085015260c085015160e085015260e085015161010081818701528087015191505061012081818701528087015191505061014061309e818701836001600160a01b03169052565b8601516101608681019190915286015190506101806130c7818701836001600160a01b03169052565b959095015193019290925250919050565b6001600160a01b03929092168252602082015260400190565b60208082526010908201526f47616d65206e6f74206f6e676f696e6760801b604082015260600190565b634e487b7160e01b600052603260045260246000fd5b60208082528181018390526000908460408401835b86811015612b3f57823561315981612a3d565b6001600160a01b031682529183019190830190600101613146565b600181811c9082168061318857607f821691505b6020821081036131a857634e487b7160e01b600052602260045260246000fd5b50919050565b6000602082840312156131c057600080fd5b8135612a3681612ddb565b81835260006001600160fb1b038311156131e457600080fd5b8260051b80836020870137939093016020019392505050565b602081526000823561320e81612ddb565b61321781612a95565b80602084015250602083013561322c81612a3d565b60018060a01b0381166040840152506040830135606083015260608301356080830152608083013560a083015260a0830135601e1984360301811261327057600080fd5b830160208101903567ffffffffffffffff81111561328d57600080fd5b8060051b360382131561329f57600080fd5b60c0808501526132b360e0850182846131cb565b95945050505050565b6000602082840312156132ce57600080fd5b81518015158114612a3657600080fd5b6000808335601e198436030181126132f557600080fd5b83018035915067ffffffffffffffff82111561331057600080fd5b6020019150600581901b360382131561332857600080fd5b9250929050565b634e487b7160e01b600052601160045260246000fd5b80820281158282048414176106425761064261332f565b5b818110156128c1576000815560010161335d565b67ffffffffffffffff83111561338957613389612cfa565b680100000000000000008311156133a2576133a2612cfa565b8054838255808410156133c8578160005260206000206133c682820186830161335c565b505b50818160005260208060002060005b868110156133f157833582820155928201926001016133d7565b50505050505050565b813561340581612ddb565b61340e81612a95565b815460ff821691508160ff198216178355602084013561342d81612a3d565b6001600160a81b03199190911690911760089190911b610100600160a81b031617815560408201356001820155606082013560028201556080820135600382015561347b60a08301836132de565b6107af818360048601613371565b6020808252600f908201526e151c985b9cd9995c8819985a5b1959608a1b604082015260600190565b808201808211156106425761064261332f565b634e487b7160e01b600052601260045260246000fd5b6000826134ea576134ea6134c5565b500490565b6000826134fe576134fe6134c5565b500690565b601f8211156107e857806000526020600020601f840160051c8101602085101561352a5750805b61353c601f850160051c83018261335c565b5050505050565b815167ffffffffffffffff81111561355d5761355d612cfa565b6135718161356b8454613174565b84613503565b602080601f8311600181146135a6576000841561358e5750858301515b600019600386901b1c1916600185901b1785556135ff565b600085815260208120601f198616915b828110156135d5578886015182559484019460019091019084016135b6565b50858210156135f35787850151600019600388901b60f8161c191681555b505060018460011b0185555b505050505050565b60018060a01b038316815260006020604060208401526000845461362a81613174565b806040870152606060018084166000811461364c576001811461366857613698565b60ff19851660608a0152606084151560051b8a01019550613698565b89600052602060002060005b8581101561368f5781548b8201860152908301908801613674565b8a016060019650505b50939998505050505050505050565b818103818111156106425761064261332f565b634e487b7160e01b600052603160045260246000fdfe828634d95e775031b9ff576b159a8509d3053581a8c9c4d7d86899e0afcd882fa2646970667358221220efd770c3fd00a2fac297852acb6c5fb7b3e568daa3189cb6f69232da8e20cf5164736f6c63430008180033",
  "linkReferences": {},
  "deployedLinkReferences": {}
}