{
  "_format": "hh-sol-artifact-1",
  "contractName": "GameInstance",
  "sourceName": "contracts/GameInstance.sol",
  "abi": [
    {
      "inputs": [],
      "name": "AccessControlBadConfirmation",
      "type": "error"
    },
    {
      "inputs": [
        {
          "internalType": "address",
          "name": "account",
          "type": "address"
        },
        {
          "internalType": "bytes32",
          "name": "neededRole",
          "type": "bytes32"
        }
      ],
      "name": "AccessControlUnauthorizedAccount",
      "type": "error"
    },
    {
      "anonymous": false,
      "inputs": [
        {
          "indexed": false,
          "internalType": "address",
          "name": "player",
          "type": "address"
        },
        {
          "indexed": false,
          "internalType": "uint256",
          "name": "amount",
          "type": "uint256"
        }
      ],
      "name": "FeeRefund",
      "type": "event"
    },
    {
      "anonymous": false,
      "inputs": [
        {
          "indexed": true,
          "internalType": "address",
          "name": "creator",
          "type": "address"
        },
        {
          "indexed": false,
          "internalType": "uint256",
          "name": "refundAmount",
          "type": "uint256"
        }
      ],
      "name": "GameCanceled",
      "type": "event"
    },
    {
      "anonymous": false,
      "inputs": [],
      "name": "GameStarted",
      "type": "event"
    },
    {
      "anonymous": false,
      "inputs": [
        {
          "indexed": false,
          "internalType": "address",
          "name": "creator",
          "type": "address"
        },
        {
          "indexed": false,
          "internalType": "string",
          "name": "title",
          "type": "string"
        }
      ],
      "name": "Initialized",
      "type": "event"
    },
    {
      "anonymous": false,
      "inputs": [
        {
          "indexed": false,
          "internalType": "address",
          "name": "player",
          "type": "address"
        }
      ],
      "name": "PlayerJoined",
      "type": "event"
    },
    {
      "anonymous": false,
      "inputs": [
        {
          "indexed": true,
          "internalType": "address",
          "name": "player",
          "type": "address"
        },
        {
          "indexed": false,
          "internalType": "uint256",
          "name": "feeRefunded",
          "type": "uint256"
        }
      ],
      "name": "PlayerUnregistered",
      "type": "event"
    },
    {
      "anonymous": false,
      "inputs": [
        {
          "indexed": false,
          "internalType": "address",
          "name": "winner",
          "type": "address"
        },
        {
          "indexed": false,
          "internalType": "uint256",
          "name": "amount",
          "type": "uint256"
        }
      ],
      "name": "PrizeDistributed",
      "type": "event"
    },
    {
      "anonymous": false,
      "inputs": [
        {
          "indexed": true,
          "internalType": "bytes32",
          "name": "role",
          "type": "bytes32"
        },
        {
          "indexed": true,
          "internalType": "bytes32",
          "name": "previousAdminRole",
          "type": "bytes32"
        },
        {
          "indexed": true,
          "internalType": "bytes32",
          "name": "newAdminRole",
          "type": "bytes32"
        }
      ],
      "name": "RoleAdminChanged",
      "type": "event"
    },
    {
      "anonymous": false,
      "inputs": [
        {
          "indexed": true,
          "internalType": "bytes32",
          "name": "role",
          "type": "bytes32"
        },
        {
          "indexed": true,
          "internalType": "address",
          "name": "account",
          "type": "address"
        },
        {
          "indexed": true,
          "internalType": "address",
          "name": "sender",
          "type": "address"
        }
      ],
      "name": "RoleGranted",
      "type": "event"
    },
    {
      "anonymous": false,
      "inputs": [
        {
          "indexed": true,
          "internalType": "bytes32",
          "name": "role",
          "type": "bytes32"
        },
        {
          "indexed": true,
          "internalType": "address",
          "name": "account",
          "type": "address"
        },
        {
          "indexed": true,
          "internalType": "address",
          "name": "sender",
          "type": "address"
        }
      ],
      "name": "RoleRevoked",
      "type": "event"
    },
    {
      "anonymous": false,
      "inputs": [
        {
          "indexed": false,
          "internalType": "address",
          "name": "player",
          "type": "address"
        },
        {
          "indexed": false,
          "internalType": "uint256",
          "name": "score",
          "type": "uint256"
        }
      ],
      "name": "ScoreSubmitted",
      "type": "event"
    },
    {
      "anonymous": false,
      "inputs": [
        {
          "indexed": false,
          "internalType": "address[]",
          "name": "winner",
          "type": "address[]"
        }
      ],
      "name": "WinnersSet",
      "type": "event"
    },
    {
      "inputs": [],
      "name": "CREATOR_ROLE",
      "outputs": [
        {
          "internalType": "bytes32",
          "name": "",
          "type": "bytes32"
        }
      ],
      "stateMutability": "view",
      "type": "function"
    },
    {
      "inputs": [],
      "name": "DEFAULT_ADMIN_ROLE",
      "outputs": [
        {
          "internalType": "bytes32",
          "name": "",
          "type": "bytes32"
        }
      ],
      "stateMutability": "view",
      "type": "function"
    },
    {
      "inputs": [],
      "name": "cancelGame",
      "outputs": [],
      "stateMutability": "nonpayable",
      "type": "function"
    },
    {
      "inputs": [],
      "name": "cancelRegistration",
      "outputs": [],
      "stateMutability": "nonpayable",
      "type": "function"
    },
    {
      "inputs": [],
      "name": "claimPrize",
      "outputs": [],
      "stateMutability": "nonpayable",
      "type": "function"
    },
    {
      "inputs": [],
      "name": "claimRefund",
      "outputs": [],
      "stateMutability": "nonpayable",
      "type": "function"
    },
    {
      "inputs": [],
      "name": "creator",
      "outputs": [
        {
          "internalType": "address",
          "name": "",
          "type": "address"
        }
      ],
      "stateMutability": "view",
      "type": "function"
    },
    {
      "inputs": [],
      "name": "description",
      "outputs": [
        {
          "internalType": "string",
          "name": "",
          "type": "string"
        }
      ],
      "stateMutability": "view",
      "type": "function"
    },
    {
      "inputs": [],
      "name": "distributePrize",
      "outputs": [],
      "stateMutability": "nonpayable",
      "type": "function"
    },
    {
      "inputs": [],
      "name": "distributionType",
      "outputs": [
        {
          "internalType": "enum Types.PrizeDistributionType",
          "name": "",
          "type": "uint8"
        }
      ],
      "stateMutability": "view",
      "type": "function"
    },
    {
      "inputs": [],
      "name": "entryFee",
      "outputs": [
        {
          "internalType": "uint256",
          "name": "",
          "type": "uint256"
        }
      ],
      "stateMutability": "view",
      "type": "function"
    },
    {
      "inputs": [],
      "name": "feeToken",
      "outputs": [
        {
          "internalType": "address",
          "name": "",
          "type": "address"
        }
      ],
      "stateMutability": "view",
      "type": "function"
    },
    {
      "inputs": [],
      "name": "gameStartTime",
      "outputs": [
        {
          "internalType": "uint256",
          "name": "",
          "type": "uint256"
        }
      ],
      "stateMutability": "view",
      "type": "function"
    },
    {
      "inputs": [],
      "name": "getGameData",
      "outputs": [
        {
          "components": [
            {
              "internalType": "address",
              "name": "creator",
              "type": "address"
            },
            {
              "internalType": "string",
              "name": "title",
              "type": "string"
            },
            {
              "internalType": "string",
              "name": "description",
              "type": "string"
            },
            {
              "internalType": "enum Types.GameStatus",
              "name": "status",
              "type": "uint8"
            },
            {
              "internalType": "uint256",
              "name": "maxPlayers",
              "type": "uint256"
            },
            {
              "internalType": "uint256",
              "name": "playerCount",
              "type": "uint256"
            },
            {
              "internalType": "uint256",
              "name": "registrationEndTime",
              "type": "uint256"
            },
            {
              "internalType": "uint256",
              "name": "gameStartTime",
              "type": "uint256"
            },
            {
              "internalType": "address",
              "name": "feeToken",
              "type": "address"
            },
            {
              "internalType": "uint256",
              "name": "entryFee",
              "type": "uint256"
            },
            {
              "internalType": "address",
              "name": "prizeToken",
              "type": "address"
            },
            {
              "internalType": "uint256",
              "name": "prizePool",
              "type": "uint256"
            }
          ],
          "internalType": "struct Types.GameData",
          "name": "",
          "type": "tuple"
        }
      ],
      "stateMutability": "view",
      "type": "function"
    },
    {
      "inputs": [
        {
          "internalType": "address",
          "name": "player",
          "type": "address"
        }
      ],
      "name": "getPlayerScore",
      "outputs": [
        {
          "internalType": "uint256",
          "name": "",
          "type": "uint256"
        }
      ],
      "stateMutability": "view",
      "type": "function"
    },
    {
      "inputs": [
        {
          "internalType": "bytes32",
          "name": "role",
          "type": "bytes32"
        }
      ],
      "name": "getRoleAdmin",
      "outputs": [
        {
          "internalType": "bytes32",
          "name": "",
          "type": "bytes32"
        }
      ],
      "stateMutability": "view",
      "type": "function"
    },
    {
      "inputs": [
        {
          "internalType": "bytes32",
          "name": "role",
          "type": "bytes32"
        },
        {
          "internalType": "address",
          "name": "account",
          "type": "address"
        }
      ],
      "name": "grantRole",
      "outputs": [],
      "stateMutability": "nonpayable",
      "type": "function"
    },
    {
      "inputs": [
        {
          "internalType": "bytes32",
          "name": "role",
          "type": "bytes32"
        },
        {
          "internalType": "address",
          "name": "account",
          "type": "address"
        }
      ],
      "name": "hasRole",
      "outputs": [
        {
          "internalType": "bool",
          "name": "",
          "type": "bool"
        }
      ],
      "stateMutability": "view",
      "type": "function"
    },
    {
      "inputs": [
        {
          "components": [
            {
              "internalType": "string",
              "name": "title",
              "type": "string"
            },
            {
              "internalType": "string",
              "name": "description",
              "type": "string"
            },
            {
              "internalType": "address",
              "name": "feeTokenAddress",
              "type": "address"
            },
            {
              "internalType": "uint256",
              "name": "entryFee",
              "type": "uint256"
            },
            {
              "internalType": "uint256",
              "name": "minPlayers",
              "type": "uint256"
            },
            {
              "internalType": "uint256",
              "name": "maxPlayers",
              "type": "uint256"
            },
            {
              "internalType": "uint256",
              "name": "registrationEndTime",
              "type": "uint256"
            },
            {
              "internalType": "uint256",
              "name": "gameStartTime",
              "type": "uint256"
            },
            {
              "internalType": "address",
              "name": "prizeTokenAddress",
              "type": "address"
            },
            {
              "internalType": "uint256",
              "name": "prizePool",
              "type": "uint256"
            },
            {
              "internalType": "enum Types.PrizeDistributionType",
              "name": "distributionType",
              "type": "uint8"
            },
            {
              "internalType": "uint256[]",
              "name": "rankPrizes",
              "type": "uint256[]"
            }
          ],
          "internalType": "struct Types.GameConfig",
          "name": "config",
          "type": "tuple"
        },
        {
          "internalType": "address",
          "name": "_creator",
          "type": "address"
        }
      ],
      "name": "initialize",
      "outputs": [],
      "stateMutability": "nonpayable",
      "type": "function"
    },
    {
      "inputs": [
        {
          "internalType": "address",
          "name": "",
          "type": "address"
        }
      ],
      "name": "isJoined",
      "outputs": [
        {
          "internalType": "bool",
          "name": "",
          "type": "bool"
        }
      ],
      "stateMutability": "view",
      "type": "function"
    },
    {
      "inputs": [],
      "name": "joinGame",
      "outputs": [],
      "stateMutability": "nonpayable",
      "type": "function"
    },
    {
      "inputs": [],
      "name": "maxPlayers",
      "outputs": [
        {
          "internalType": "uint256",
          "name": "",
          "type": "uint256"
        }
      ],
      "stateMutability": "view",
      "type": "function"
    },
    {
      "inputs": [],
      "name": "minPlayers",
      "outputs": [
        {
          "internalType": "uint256",
          "name": "",
          "type": "uint256"
        }
      ],
      "stateMutability": "view",
      "type": "function"
    },
    {
      "inputs": [
        {
          "internalType": "uint256",
          "name": "",
          "type": "uint256"
        }
      ],
      "name": "players",
      "outputs": [
        {
          "internalType": "address",
          "name": "player",
          "type": "address"
        },
        {
          "internalType": "uint256",
          "name": "score",
          "type": "uint256"
        }
      ],
      "stateMutability": "view",
      "type": "function"
    },
    {
      "inputs": [],
      "name": "prizePool",
      "outputs": [
        {
          "internalType": "uint256",
          "name": "",
          "type": "uint256"
        }
      ],
      "stateMutability": "view",
      "type": "function"
    },
    {
      "inputs": [
        {
          "internalType": "address",
          "name": "",
          "type": "address"
        }
      ],
      "name": "prizeToClaimsAmount",
      "outputs": [
        {
          "internalType": "uint256",
          "name": "",
          "type": "uint256"
        }
      ],
      "stateMutability": "view",
      "type": "function"
    },
    {
      "inputs": [],
      "name": "prizeToken",
      "outputs": [
        {
          "internalType": "address",
          "name": "",
          "type": "address"
        }
      ],
      "stateMutability": "view",
      "type": "function"
    },
    {
      "inputs": [
        {
          "internalType": "uint256",
          "name": "",
          "type": "uint256"
        }
      ],
      "name": "rankPrizes",
      "outputs": [
        {
          "internalType": "uint256",
          "name": "",
          "type": "uint256"
        }
      ],
      "stateMutability": "view",
      "type": "function"
    },
    {
      "inputs": [],
      "name": "registrationEndTime",
      "outputs": [
        {
          "internalType": "uint256",
          "name": "",
          "type": "uint256"
        }
      ],
      "stateMutability": "view",
      "type": "function"
    },
    {
      "inputs": [
        {
          "internalType": "bytes32",
          "name": "role",
          "type": "bytes32"
        },
        {
          "internalType": "address",
          "name": "callerConfirmation",
          "type": "address"
        }
      ],
      "name": "renounceRole",
      "outputs": [],
      "stateMutability": "nonpayable",
      "type": "function"
    },
    {
      "inputs": [
        {
          "internalType": "bytes32",
          "name": "role",
          "type": "bytes32"
        },
        {
          "internalType": "address",
          "name": "account",
          "type": "address"
        }
      ],
      "name": "revokeRole",
      "outputs": [],
      "stateMutability": "nonpayable",
      "type": "function"
    },
    {
      "inputs": [
        {
          "internalType": "address[]",
          "name": "_winners",
          "type": "address[]"
        }
      ],
      "name": "setWinners",
      "outputs": [],
      "stateMutability": "nonpayable",
      "type": "function"
    },
    {
      "inputs": [],
      "name": "startGame",
      "outputs": [],
      "stateMutability": "nonpayable",
      "type": "function"
    },
    {
      "inputs": [],
      "name": "status",
      "outputs": [
        {
          "internalType": "enum Types.GameStatus",
          "name": "",
          "type": "uint8"
        }
      ],
      "stateMutability": "view",
      "type": "function"
    },
    {
      "inputs": [
        {
          "internalType": "uint256",
          "name": "score",
          "type": "uint256"
        }
      ],
      "name": "submitScore",
      "outputs": [],
      "stateMutability": "nonpayable",
      "type": "function"
    },
    {
      "inputs": [
        {
          "internalType": "bytes4",
          "name": "interfaceId",
          "type": "bytes4"
        }
      ],
      "name": "supportsInterface",
      "outputs": [
        {
          "internalType": "bool",
          "name": "",
          "type": "bool"
        }
      ],
      "stateMutability": "view",
      "type": "function"
    },
    {
      "inputs": [],
      "name": "title",
      "outputs": [
        {
          "internalType": "string",
          "name": "",
          "type": "string"
        }
      ],
      "stateMutability": "view",
      "type": "function"
    },
    {
      "inputs": [
        {
          "internalType": "uint256",
          "name": "",
          "type": "uint256"
        }
      ],
      "name": "winners",
      "outputs": [
        {
          "internalType": "address",
          "name": "",
          "type": "address"
        }
      ],
      "stateMutability": "view",
      "type": "function"
    }
  ],
  "bytecode": "0x608060405234801561001057600080fd5b50612d1d806100206000396000f3fe608060405234801561001057600080fd5b50600436106102325760003560e01c80638233e43311610130578063b5545a3c116100b8578063d84c1ac91161007c578063d84c1ac9146104ae578063dff7d2c7146104b6578063e085c539146104bf578063e5a078a7146104e8578063f71d96cb146104f057600080fd5b8063b5545a3c14610470578063d0ef024a14610478578063d4f77b1c1461048b578063d547741f14610493578063d65ab5f2146104a657600080fd5b8063a217fddf116100ff578063a217fddf1461040d578063a2fb117514610415578063af4e99de14610428578063aff0b2971461043d578063b062e9501461045057600080fd5b80638233e433146103b857806384da242d146103cb5780638aeda25a146103e557806391d14854146103fa57600080fd5b80633c576207116101be578063647846a511610182578063647846a51461038457806370740ac914610397578063719ce73e1461039f5780637284e416146103a857806377b6e504146103b057600080fd5b80633c5762071461031d578063445e6b39146103305780634a79d50c146103435780634c2412a2146103585780635e6a43f51461036157600080fd5b8063200d2ed211610205578063200d2ed2146102af578063248a9ca3146102c95780632770c895146102ec5780632f2ff15d146102f557806336568abe1461030a57600080fd5b806301ffc9a7146102375780630252b9951461025f57806302d05d3f14610276578063072ea61c146102a6575b600080fd5b61024a610245366004612411565b610511565b60405190151581526020015b60405180910390f35b61026860075481565b604051908152602001610256565b60015461028e9061010090046001600160a01b031681565b6040516001600160a01b039091168152602001610256565b61026860095481565b6010546102bc9060ff1681565b604051610256919061246c565b6102686102d736600461247a565b60009081526020819052604090206001015490565b61026860045481565b6103086103033660046124af565b610548565b005b6103086103183660046124af565b610573565b61030861032b36600461264b565b6105ab565b61030861033e36600461277f565b610986565b61034b610af8565b604051610256919061283a565b61026860055481565b61024a61036f36600461284d565b60126020526000908152604090205460ff1681565b60085461028e906001600160a01b031681565b610308610b86565b610268600c5481565b61034b610cb6565b610308610cc3565b6102686103c636600461247a565b6111ce565b600d546103d89060ff1681565b6040516102569190612868565b610268600080516020612cc883398151915281565b61024a6104083660046124af565b6111ef565b610268600081565b61028e61042336600461247a565b611218565b610430611242565b6040516102569190612882565b61030861044b36600461247a565b61140f565b61026861045e36600461284d565b600f6020526000908152604090205481565b61030861154f565b600b5461028e906001600160a01b031681565b6103086116ce565b6103086104a13660046124af565b6119ad565b6103086119d2565b610308611b2f565b61026860065481565b6102686104cd36600461284d565b6001600160a01b031660009081526013602052604090205490565b610308611d03565b6105036104fe36600461247a565b612115565b604051610256929190612970565b60006001600160e01b03198216637965db0b60e01b148061054257506301ffc9a760e01b6001600160e01b03198316145b92915050565b6000828152602081905260409020600101546105638161214d565b61056d838361215a565b50505050565b6001600160a01b038116331461059c5760405163334bd91960e11b815260040160405180910390fd5b6105a682826121ec565b505050565b60015460ff16156105f95760405162461bcd60e51b8152602060048201526013602482015272105b1c9958591e481a5b9a5d1a585b1a5e9959606a1b60448201526064015b60405180910390fd5b6001805460ff19168117905560c082015142106106585760405162461bcd60e51b815260206004820152601960248201527f52656720656e64206d75737420626520696e206675747572650000000000000060448201526064016105f0565b8160c001518260e0015110156106b05760405162461bcd60e51b815260206004820152601e60248201527f47616d65206d7573742073746172742061667465722072656720656e6473000060448201526064016105f0565b81608001518260a0015110156106fd5760405162461bcd60e51b815260206004820152601260248201527126b0bc1036bab9ba103132901f1e9026b4b760711b60448201526064016105f0565b60018054610100600160a81b0319166101006001600160a01b03841602179055815160029061072c9082612a13565b50602082015160039061073f9082612a13565b50601080546000919060ff191660018302179055506040820151600880546001600160a01b039283166001600160a01b0319918216179091556060840151600955608084015160045560a084015160055560c084015160065560e0840151600755610100840151600b8054919093169116179055610120820151600c55610140820151600d805460ff191660018360028111156107de576107de612442565b021790555061016082015180516107fd91600e916020909101906122d1565b506002826101400151600281111561081757610817612442565b0361090a5761016082015151600e546108725760405162461bcd60e51b815260206004820152601f60248201527f437573746f6d2072616e6b20636f6e66696720666f726d6174206572726f720060448201526064016105f0565b6000805b828110156108bb57600e818154811061089157610891612ad3565b9060005260206000200154826108a79190612aff565b91506108b4600182612aff565b9050610876565b506127108111156109075760405162461bcd60e51b81526020600482015260166024820152755072697a65204250532065786365656473203130302560501b60448201526064016105f0565b50505b61091560008261215a565b5061092e600080516020612cc88339815191528261215a565b50610948600080516020612cc88339815191526000612257565b7fc66e6cd41f805f65978f5241034e8d106c42cf3c7a4d62ccd857646b401cbe4a81600260405161097a929190612b12565b60405180910390a15050565b600080516020612cc883398151915261099e8161214d565b600160105460ff1660048111156109b7576109b7612442565b146109f75760405162461bcd60e51b815260206004820152601060248201526f47616d65206e6f74206f6e676f696e6760801b60448201526064016105f0565b60005b82811015610a9e5760126000858584818110610a1857610a18612ad3565b9050602002016020810190610a2d919061284d565b6001600160a01b0316815260208101919091526040016000205460ff16610a965760405162461bcd60e51b815260206004820152601860248201527f54686572652069732077696e6e6572206e6f74206a6f696e000000000000000060448201526064016105f0565b6001016109fa565b50610aab6014848461231c565b506010805460ff191660021790556040517f8451dabc49a0b82cffb0a79a6771fe2718264aae54a4eff4d4463748813ec56f90610aeb9085908590612bb2565b60405180910390a1505050565b60028054610b0590612989565b80601f0160208091040260200160405190810160405280929190818152602001828054610b3190612989565b8015610b7e5780601f10610b5357610100808354040283529160200191610b7e565b820191906000526020600020905b815481529060010190602001808311610b6157829003601f168201915b505050505081565b336000908152600f602052604090205480610bd75760405162461bcd60e51b81526020600482015260116024820152704e6f207072697a6520746f20636c61696d60781b60448201526064016105f0565b336000818152600f602052604080822091909155600b54905163a9059cbb60e01b81526001600160a01b039091169163a9059cbb91610c1b91908590600401612970565b6020604051808303816000875af1158015610c3a573d6000803e3d6000fd5b505050506040513d601f19601f82011682018060405250810190610c5e9190612bfe565b610c7a5760405162461bcd60e51b81526004016105f090612c20565b7fb8e091d87f82e56d22276c9a0088ea5d6068e355383dc08b2721b7b6cb10e8453382604051610cab929190612970565b60405180910390a150565b60038054610b0590612989565b600080516020612cc8833981519152610cdb8161214d565b600260105460ff166004811115610cf457610cf4612442565b14610d325760405162461bcd60e51b815260206004820152600e60248201526d11d85b59481b9bdd08195b99195960921b60448201526064016105f0565b601454610d725760405162461bcd60e51b815260206004820152600e60248201526d139bc81dda5b9b995c9cc81cd95d60921b60448201526064016105f0565b6000600c5411610dba5760405162461bcd60e51b81526020600482015260136024820152725072697a6520706f6f6c20697320656d70747960681b60448201526064016105f0565b600c805460009182905590600d5460ff166002811115610ddc57610ddc612442565b03610e395780600f60006014600081548110610dfa57610dfa612ad3565b60009182526020808320909101546001600160a01b0316835282019290925260400181208054909190610e2e908490612aff565b909155506111bd9050565b6001600d5460ff166002811115610e5257610e52612442565b03610faa576011546000610e668284612c5f565b90506000610e748385612c73565b905060005b83811015610ee557600083905080600f600060118581548110610e9e57610e9e612ad3565b600091825260208083206002909202909101546001600160a01b0316835282019290925260400181208054909190610ed7908490612aff565b909155505050600101610e79565b50600b5460015460405163a9059cbb60e01b81526001600160a01b039283169263a9059cbb92610f2392610100909104909116908590600401612970565b6020604051808303816000875af1158015610f42573d6000803e3d6000fd5b505050506040513d601f19601f82011682018060405250810190610f669190612bfe565b610fa25760405162461bcd60e51b815260206004820152600d60248201526c1499599d5b990819985a5b1959609a1b60448201526064016105f0565b5050506111bd565b6002600d5460ff166002811115610fc357610fc3612442565b036111bd57600e5460145411156110325760405162461bcd60e51b815260206004820152602d60248201527f57696e6e657273206c69737420657863656564732072616e6b207072697a652060448201526c31b7b73334b3bab930ba34b7b760991b60648201526084016105f0565b6000805b6014548110156110c7576000600e828154811061105557611055612ad3565b90600052602060002001549050600081116110b25760405162461bcd60e51b815260206004820152601d60248201527f4d697373696e67207072697a6520636f6e66696720666f722072616e6b00000060448201526064016105f0565b6110bc8184612aff565b925050600101611036565b506127108111156111135760405162461bcd60e51b81526020600482015260166024820152755072697a65204250532065786365656473203130302560501b60448201526064016105f0565b60005b6014548110156111ba576000600e828154811061113557611135612ad3565b6000918252602082200154915061271061114f8387612c87565b6111599190612c5f565b905080600f60006014868154811061117357611173612ad3565b60009182526020808320909101546001600160a01b03168352820192909252604001812080549091906111a7908490612aff565b9091555050600190920191506111169050565b50505b50506010805460ff19166003179055565b600e81815481106111de57600080fd5b600091825260209091200154905081565b6000918252602082815260408084206001600160a01b0393909316845291905290205460ff1690565b6014818154811061122857600080fd5b6000918252602090912001546001600160a01b0316905081565b61124a61236f565b61125261236f565b60015461010090046001600160a01b031681526002805461127290612989565b80601f016020809104026020016040519081016040528092919081815260200182805461129e90612989565b80156112eb5780601f106112c0576101008083540402835291602001916112eb565b820191906000526020600020905b8154815290600101906020018083116112ce57829003601f168201915b505050505081602001819052506003805461130590612989565b80601f016020809104026020016040519081016040528092919081815260200182805461133190612989565b801561137e5780601f106113535761010080835404028352916020019161137e565b820191906000526020600020905b81548152906001019060200180831161136157829003601f168201915b50505050506040820152601054606082019060ff1660048111156113a4576113a4612442565b908160048111156113b7576113b7612442565b905250600554608082015260115460a082015260065460c082015260075460e08201526009546101208201526008546001600160a01b03908116610100830152600c54610160830152600b5416610140820152919050565b600160105460ff16600481111561142857611428612442565b146114685760405162461bcd60e51b815260206004820152601060248201526f47616d65206e6f74206f6e676f696e6760801b60448201526064016105f0565b6007544210156114ba5760405162461bcd60e51b815260206004820152601860248201527f47616d6520686173206e6f74207374617274656420796574000000000000000060448201526064016105f0565b3360009081526012602052604090205460ff1661150d5760405162461bcd60e51b8152602060048201526011602482015270141b185e595c881b9bdd081a9bda5b9959607a1b60448201526064016105f0565b3360008181526013602052604090819020839055517fa578df9b0453d14d7ed8615ee0e9d58f70e041e91fc5865e3b71f81ea05296c091610cab918490612970565b600460105460ff16600481111561156857611568612442565b146115a95760405162461bcd60e51b815260206004820152601160248201527011d85b59481b9bdd0818d85b98d95b1959607a1b60448201526064016105f0565b336000908152600a6020526040902054806115fa5760405162461bcd60e51b81526020600482015260116024820152704e6f207072697a6520746f20636c61696d60781b60448201526064016105f0565b336000818152600a602052604080822091909155600854905163a9059cbb60e01b81526001600160a01b039091169163a9059cbb9161163e91908590600401612970565b6020604051808303816000875af115801561165d573d6000803e3d6000fd5b505050506040513d601f19601f820116820180604052508101906116819190612bfe565b61169d5760405162461bcd60e51b81526004016105f090612c20565b7feb4706597fb7a2e8806c0e31ad4c334330a97bc3cae6b9c360e152c922bb40c83382604051610cab929190612970565b600060105460ff1660048111156116e7576116e7612442565b146117345760405162461bcd60e51b815260206004820152601a60248201527f47616d65206e6f7420616363657074696e6720706c617965727300000000000060448201526064016105f0565b60065442106117855760405162461bcd60e51b815260206004820152601860248201527f526567697374726174696f6e2074696d6520706173736564000000000000000060448201526064016105f0565b600554601154106117ce5760405162461bcd60e51b815260206004820152601360248201527213585e081c1b185e595c9cc81c995858da1959606a1b60448201526064016105f0565b3360009081526012602052604090205460ff161561181f5760405162461bcd60e51b815260206004820152600e60248201526d105b1c9958591e481a9bda5b995960921b60448201526064016105f0565b600954156118c2576008546009546040516323b872dd60e01b815233600482015230602482015260448101919091526001600160a01b03909116906323b872dd906064016020604051808303816000875af1158015611882573d6000803e3d6000fd5b505050506040513d601f19601f820116820180604052508101906118a69190612bfe565b6118c25760405162461bcd60e51b81526004016105f090612c20565b6040805180820182523380825260006020808401828152601180546001808201835591855295517f31ecc21a745e3968a04e9570e4425bc18fa8019c68028196b546d1669c200c68600290970296870180546001600160a01b0319166001600160a01b0390921691909117905590517f31ecc21a745e3968a04e9570e4425bc18fa8019c68028196b546d1669c200c6990950194909455600954838352600a8252858320556012815290849020805460ff191690931790925591519182527f31e760aa525306aba638a784082a013b6a1cc0a9a1789f3f22281c0453b10b1f910160405180910390a1565b6000828152602081905260409020600101546119c88161214d565b61056d83836121ec565b600080516020612cc88339815191526119ea8161214d565b600060105460ff166004811115611a0357611a03612442565b14611a505760405162461bcd60e51b815260206004820152601a60248201527f47616d65206e6f7420696e20437265617465642073746174757300000000000060448201526064016105f0565b600654421015611aa25760405162461bcd60e51b815260206004820152601c60248201527f526567697374726174696f6e206973206e6f74206f766572207965740000000060448201526064016105f0565b6004546011541015611af65760405162461bcd60e51b815260206004820152601b60248201527f4e6f7420656e6f75676820706c617965727320746f207374617274000000000060448201526064016105f0565b6010805460ff191660011790556040517f762f260439bb4be3ef6e4dc2786e2e7bd187d3d80b79057d7a424fe98563e33590600090a150565b600080516020612cc8833981519152611b478161214d565b600060105460ff166004811115611b6057611b60612442565b1480611b825750600160105460ff166004811115611b8057611b80612442565b145b611be15760405162461bcd60e51b815260206004820152602a60248201527f43616e6e6f742063616e63656c20616e20656e646564206f722064697374726960448201526962757465642067616d6560b01b60648201526084016105f0565b600c805460009091556010805460ff191660041790558015611cb957600b5460015460405163a9059cbb60e01b81526001600160a01b039283169263a9059cbb92611c3a92610100909104909116908590600401612970565b6020604051808303816000875af1158015611c59573d6000803e3d6000fd5b505050506040513d601f19601f82011682018060405250810190611c7d9190612bfe565b611cb95760405162461bcd60e51b815260206004820152600d60248201526c1499599d5b990819985a5b1959609a1b60448201526064016105f0565b6001546040518281526101009091046001600160a01b0316907fcabd9ffa4ff52290e56c52a9ed671760a0e5951eaa234fd9e0ccccf507bf98ca9060200160405180910390a25050565b60065433904210611d565760405162461bcd60e51b815260206004820152601960248201527f526567697374726174696f6e2074696d65206973206f7665720000000000000060448201526064016105f0565b600060105460ff166004811115611d6f57611d6f612442565b14611dbc5760405162461bcd60e51b815260206004820181905260248201527f47616d6520697320616c7265616479206f6e676f696e67206f7220656e64656460448201526064016105f0565b6001600160a01b0381166000908152600a602052604090205480611e385760405162461bcd60e51b815260206004820152602d60248201527f506c6179657220686173206e6f74206a6f696e6564206f722066656520616c7260448201526c1958591e481c99599d5b991959609a1b60648201526084016105f0565b600080805b601154811015611e9757846001600160a01b031660118281548110611e6457611e64612ad3565b60009182526020909120600290910201546001600160a01b031603611e8f5780925060019150611e97565b600101611e3d565b5080611ef65760405162461bcd60e51b815260206004820152602860248201527f496e7465726e616c206572726f723a20506c61796572206e6f7420666f756e64604482015267081a5b881b1a5cdd60c21b60648201526084016105f0565b601154600090611f0890600190612c9e565b9050808314611f7e5760118181548110611f2457611f24612ad3565b906000526020600020906002020160118481548110611f4557611f45612ad3565b60009182526020909120825460029092020180546001600160a01b0319166001600160a01b039092169190911781556001918201549101555b6011805480611f8f57611f8f612cb1565b6000828152602080822060026000199094019384020180546001600160a01b0319168155600101829055919092556001600160a01b0387168252600a905260408120819055600c8054869290611fe6908490612c9e565b90915550506001600160a01b038086166000908152601260209081526040808320805460ff19169055601390915280822091909155600854905163a9059cbb60e01b815291169063a9059cbb906120439088908890600401612970565b6020604051808303816000875af1158015612062573d6000803e3d6000fd5b505050506040513d601f19601f820116820180604052508101906120869190612bfe565b6120cb5760405162461bcd60e51b81526020600482015260166024820152751499599d5b99081d1c985b9cd9995c8819985a5b195960521b60448201526064016105f0565b846001600160a01b03167fbddaec5e3db6d33ac9b0043f3c92cf3d081b19f8646f372eb3a68a51e273a1048560405161210691815260200190565b60405180910390a25050505050565b6011818154811061212557600080fd5b6000918252602090912060029091020180546001909101546001600160a01b03909116915082565b61215781336122a2565b50565b600061216683836111ef565b6121e4576000838152602081815260408083206001600160a01b03861684529091529020805460ff1916600117905561219c3390565b6001600160a01b0316826001600160a01b0316847f2f8788117e7eff1d82e926ec794901d17c78024a50270940304540a733656f0d60405160405180910390a4506001610542565b506000610542565b60006121f883836111ef565b156121e4576000838152602081815260408083206001600160a01b0386168085529252808320805460ff1916905551339286917ff6391f5c32d9c69d2a47ea670b442974b53935d1edc7fd64eb21e047a839171b9190a4506001610542565b600082815260208190526040808220600101805490849055905190918391839186917fbd79b86ffe0ab8e8776151514217cd7cacd52c909f66475c3af44e129f0b00ff9190a4505050565b6122ac82826111ef565b6122cd57808260405163e2517d3f60e01b81526004016105f0929190612970565b5050565b82805482825590600052602060002090810192821561230c579160200282015b8281111561230c5782518255916020019190600101906122f1565b506123189291506123fc565b5090565b82805482825590600052602060002090810192821561230c579160200282015b8281111561230c5781546001600160a01b0319166001600160a01b0384351617825560209092019160019091019061233c565b60405180610180016040528060006001600160a01b031681526020016060815260200160608152602001600060048111156123ac576123ac612442565b81526020016000815260200160008152602001600081526020016000815260200160006001600160a01b031681526020016000815260200160006001600160a01b03168152602001600081525090565b5b8082111561231857600081556001016123fd565b60006020828403121561242357600080fd5b81356001600160e01b03198116811461243b57600080fd5b9392505050565b634e487b7160e01b600052602160045260246000fd5b6005811061246857612468612442565b9052565b602081016105428284612458565b60006020828403121561248c57600080fd5b5035919050565b80356001600160a01b03811681146124aa57600080fd5b919050565b600080604083850312156124c257600080fd5b823591506124d260208401612493565b90509250929050565b634e487b7160e01b600052604160045260246000fd5b604051610180810167ffffffffffffffff81118282101715612515576125156124db565b60405290565b604051601f8201601f1916810167ffffffffffffffff81118282101715612544576125446124db565b604052919050565b600082601f83011261255d57600080fd5b813567ffffffffffffffff811115612577576125776124db565b61258a601f8201601f191660200161251b565b81815284602083860101111561259f57600080fd5b816020850160208301376000918101602001919091529392505050565b8035600381106124aa57600080fd5b600082601f8301126125dc57600080fd5b8135602067ffffffffffffffff8211156125f8576125f86124db565b8160051b61260782820161251b565b928352848101820192828101908785111561262157600080fd5b83870192505b8483101561264057823582529183019190830190612627565b979650505050505050565b6000806040838503121561265e57600080fd5b823567ffffffffffffffff8082111561267657600080fd5b90840190610180828703121561268b57600080fd5b6126936124f1565b8235828111156126a257600080fd5b6126ae8882860161254c565b8252506020830135828111156126c357600080fd5b6126cf8882860161254c565b6020830152506126e160408401612493565b6040820152606083013560608201526080830135608082015260a083013560a082015260c083013560c082015260e083013560e0820152610100612726818501612493565b9082015261012083810135908201526101406127438185016125bc565b90820152610160838101358381111561275b57600080fd5b612767898287016125cb565b8284015250508094505050506124d260208401612493565b6000806020838503121561279257600080fd5b823567ffffffffffffffff808211156127aa57600080fd5b818501915085601f8301126127be57600080fd5b8135818111156127cd57600080fd5b8660208260051b85010111156127e257600080fd5b60209290920196919550909350505050565b6000815180845260005b8181101561281a576020818501810151868301820152016127fe565b506000602082860101526020601f19601f83011685010191505092915050565b60208152600061243b60208301846127f4565b60006020828403121561285f57600080fd5b61243b82612493565b602081016003831061287c5761287c612442565b91905290565b6020815261289c6020820183516001600160a01b03169052565b600060208301516101808060408501526128ba6101a08501836127f4565b91506040850151601f198584030160608601526128d783826127f4565b92505060608501516128ec6080860182612458565b50608085015160a085015260a085015160c085015260c085015160e085015260e0850151610100818187015280870151915050610120612936818701836001600160a01b03169052565b86015161014086810191909152860151905061016061295f818701836001600160a01b03169052565b959095015193019290925250919050565b6001600160a01b03929092168252602082015260400190565b600181811c9082168061299d57607f821691505b6020821081036129bd57634e487b7160e01b600052602260045260246000fd5b50919050565b601f8211156105a6576000816000526020600020601f850160051c810160208610156129ec5750805b601f850160051c820191505b81811015612a0b578281556001016129f8565b505050505050565b815167ffffffffffffffff811115612a2d57612a2d6124db565b612a4181612a3b8454612989565b846129c3565b602080601f831160018114612a765760008415612a5e5750858301515b600019600386901b1c1916600185901b178555612a0b565b600085815260208120601f198616915b82811015612aa557888601518255948401946001909101908401612a86565b5085821015612ac35787850151600019600388901b60f8161c191681555b5050505050600190811b01905550565b634e487b7160e01b600052603260045260246000fd5b634e487b7160e01b600052601160045260246000fd5b8082018082111561054257610542612ae9565b60018060a01b0383168152600060206040602084015260008454612b3581612989565b8060408701526060600180841660008114612b575760018114612b7357612ba3565b60ff19851660608a0152606084151560051b8a01019550612ba3565b89600052602060002060005b85811015612b9a5781548b8201860152908301908801612b7f565b8a016060019650505b50939998505050505050505050565b60208082528181018390526000908460408401835b86811015612bf3576001600160a01b03612be084612493565b1682529183019190830190600101612bc7565b509695505050505050565b600060208284031215612c1057600080fd5b8151801515811461243b57600080fd5b6020808252600f908201526e151c985b9cd9995c8819985a5b1959608a1b604082015260600190565b634e487b7160e01b600052601260045260246000fd5b600082612c6e57612c6e612c49565b500490565b600082612c8257612c82612c49565b500690565b808202811582820484141761054257610542612ae9565b8181038181111561054257610542612ae9565b634e487b7160e01b600052603160045260246000fdfe828634d95e775031b9ff576b159a8509d3053581a8c9c4d7d86899e0afcd882fa26469706673582212202fc25ddcfe0b1fb497f060710fcd15f1023158e58177eef51d12903dd3f3e1f464736f6c63430008180033",
  "linkReferences": {},
  "deployedLinkReferences": {}
}