{
  "_format": "hh-sol-artifact-1",
  "contractName": "GameInstance",
  "sourceName": "contracts/GameInstance.sol",
  "abi": [
    {
      "inputs": [],
      "name": "AccessControlBadConfirmation",
      "type": "error"
    },
    {
      "inputs": [
        {
          "internalType": "address",
          "name": "account",
          "type": "address"
        },
        {
          "internalType": "bytes32",
          "name": "neededRole",
          "type": "bytes32"
        }
      ],
      "name": "AccessControlUnauthorizedAccount",
      "type": "error"
    },
    {
      "anonymous": false,
      "inputs": [
        {
          "indexed": false,
          "internalType": "address",
          "name": "player",
          "type": "address"
        },
        {
          "indexed": false,
          "internalType": "uint256",
          "name": "amount",
          "type": "uint256"
        }
      ],
      "name": "FeeRefund",
      "type": "event"
    },
    {
      "anonymous": false,
      "inputs": [
        {
          "indexed": true,
          "internalType": "address",
          "name": "creator",
          "type": "address"
        },
        {
          "indexed": false,
          "internalType": "uint256",
          "name": "refundAmount",
          "type": "uint256"
        }
      ],
      "name": "GameCanceled",
      "type": "event"
    },
    {
      "anonymous": false,
      "inputs": [],
      "name": "GameStarted",
      "type": "event"
    },
    {
      "anonymous": false,
      "inputs": [
        {
          "indexed": false,
          "internalType": "address",
          "name": "creator",
          "type": "address"
        },
        {
          "indexed": false,
          "internalType": "string",
          "name": "title",
          "type": "string"
        }
      ],
      "name": "Initialized",
      "type": "event"
    },
    {
      "anonymous": false,
      "inputs": [
        {
          "indexed": false,
          "internalType": "address",
          "name": "player",
          "type": "address"
        }
      ],
      "name": "PlayerJoined",
      "type": "event"
    },
    {
      "anonymous": false,
      "inputs": [
        {
          "indexed": true,
          "internalType": "address",
          "name": "player",
          "type": "address"
        },
        {
          "indexed": false,
          "internalType": "uint256",
          "name": "feeRefunded",
          "type": "uint256"
        }
      ],
      "name": "PlayerUnregistered",
      "type": "event"
    },
    {
      "anonymous": false,
      "inputs": [
        {
          "indexed": false,
          "internalType": "address",
          "name": "winner",
          "type": "address"
        },
        {
          "indexed": false,
          "internalType": "uint256",
          "name": "amount",
          "type": "uint256"
        }
      ],
      "name": "PrizeDistributed",
      "type": "event"
    },
    {
      "anonymous": false,
      "inputs": [
        {
          "indexed": true,
          "internalType": "bytes32",
          "name": "role",
          "type": "bytes32"
        },
        {
          "indexed": true,
          "internalType": "bytes32",
          "name": "previousAdminRole",
          "type": "bytes32"
        },
        {
          "indexed": true,
          "internalType": "bytes32",
          "name": "newAdminRole",
          "type": "bytes32"
        }
      ],
      "name": "RoleAdminChanged",
      "type": "event"
    },
    {
      "anonymous": false,
      "inputs": [
        {
          "indexed": true,
          "internalType": "bytes32",
          "name": "role",
          "type": "bytes32"
        },
        {
          "indexed": true,
          "internalType": "address",
          "name": "account",
          "type": "address"
        },
        {
          "indexed": true,
          "internalType": "address",
          "name": "sender",
          "type": "address"
        }
      ],
      "name": "RoleGranted",
      "type": "event"
    },
    {
      "anonymous": false,
      "inputs": [
        {
          "indexed": true,
          "internalType": "bytes32",
          "name": "role",
          "type": "bytes32"
        },
        {
          "indexed": true,
          "internalType": "address",
          "name": "account",
          "type": "address"
        },
        {
          "indexed": true,
          "internalType": "address",
          "name": "sender",
          "type": "address"
        }
      ],
      "name": "RoleRevoked",
      "type": "event"
    },
    {
      "anonymous": false,
      "inputs": [
        {
          "indexed": false,
          "internalType": "address",
          "name": "player",
          "type": "address"
        },
        {
          "indexed": false,
          "internalType": "uint256",
          "name": "score",
          "type": "uint256"
        }
      ],
      "name": "ScoreSubmitted",
      "type": "event"
    },
    {
      "anonymous": false,
      "inputs": [
        {
          "indexed": false,
          "internalType": "address[]",
          "name": "winner",
          "type": "address[]"
        }
      ],
      "name": "WinnersSet",
      "type": "event"
    },
    {
      "inputs": [],
      "name": "CREATOR_ROLE",
      "outputs": [
        {
          "internalType": "bytes32",
          "name": "",
          "type": "bytes32"
        }
      ],
      "stateMutability": "view",
      "type": "function"
    },
    {
      "inputs": [],
      "name": "DEFAULT_ADMIN_ROLE",
      "outputs": [
        {
          "internalType": "bytes32",
          "name": "",
          "type": "bytes32"
        }
      ],
      "stateMutability": "view",
      "type": "function"
    },
    {
      "inputs": [],
      "name": "cancelGame",
      "outputs": [],
      "stateMutability": "nonpayable",
      "type": "function"
    },
    {
      "inputs": [],
      "name": "cancelRegistration",
      "outputs": [],
      "stateMutability": "nonpayable",
      "type": "function"
    },
    {
      "inputs": [],
      "name": "claimPrize",
      "outputs": [],
      "stateMutability": "nonpayable",
      "type": "function"
    },
    {
      "inputs": [],
      "name": "claimRefund",
      "outputs": [],
      "stateMutability": "nonpayable",
      "type": "function"
    },
    {
      "inputs": [],
      "name": "creator",
      "outputs": [
        {
          "internalType": "address",
          "name": "",
          "type": "address"
        }
      ],
      "stateMutability": "view",
      "type": "function"
    },
    {
      "inputs": [],
      "name": "description",
      "outputs": [
        {
          "internalType": "string",
          "name": "",
          "type": "string"
        }
      ],
      "stateMutability": "view",
      "type": "function"
    },
    {
      "inputs": [],
      "name": "distributePrize",
      "outputs": [],
      "stateMutability": "nonpayable",
      "type": "function"
    },
    {
      "inputs": [],
      "name": "distributionType",
      "outputs": [
        {
          "internalType": "enum Types.PrizeDistributionType",
          "name": "",
          "type": "uint8"
        }
      ],
      "stateMutability": "view",
      "type": "function"
    },
    {
      "inputs": [],
      "name": "entryFee",
      "outputs": [
        {
          "internalType": "uint256",
          "name": "",
          "type": "uint256"
        }
      ],
      "stateMutability": "view",
      "type": "function"
    },
    {
      "inputs": [],
      "name": "feeToken",
      "outputs": [
        {
          "internalType": "address",
          "name": "",
          "type": "address"
        }
      ],
      "stateMutability": "view",
      "type": "function"
    },
    {
      "inputs": [],
      "name": "gameRegistry",
      "outputs": [
        {
          "internalType": "address",
          "name": "",
          "type": "address"
        }
      ],
      "stateMutability": "view",
      "type": "function"
    },
    {
      "inputs": [
        {
          "internalType": "address",
          "name": "",
          "type": "address"
        }
      ],
      "name": "gameResults",
      "outputs": [
        {
          "internalType": "enum Types.GameType",
          "name": "gameType",
          "type": "uint8"
        },
        {
          "internalType": "address",
          "name": "player",
          "type": "address"
        },
        {
          "internalType": "uint256",
          "name": "score",
          "type": "uint256"
        },
        {
          "internalType": "uint256",
          "name": "timestamp",
          "type": "uint256"
        },
        {
          "internalType": "bytes32",
          "name": "gameHash",
          "type": "bytes32"
        }
      ],
      "stateMutability": "view",
      "type": "function"
    },
    {
      "inputs": [],
      "name": "gameStartTime",
      "outputs": [
        {
          "internalType": "uint256",
          "name": "",
          "type": "uint256"
        }
      ],
      "stateMutability": "view",
      "type": "function"
    },
    {
      "inputs": [],
      "name": "gameType",
      "outputs": [
        {
          "internalType": "enum Types.GameType",
          "name": "",
          "type": "uint8"
        }
      ],
      "stateMutability": "view",
      "type": "function"
    },
    {
      "inputs": [],
      "name": "getGameData",
      "outputs": [
        {
          "components": [
            {
              "internalType": "address",
              "name": "creator",
              "type": "address"
            },
            {
              "internalType": "string",
              "name": "title",
              "type": "string"
            },
            {
              "internalType": "string",
              "name": "description",
              "type": "string"
            },
            {
              "internalType": "enum Types.GameStatus",
              "name": "status",
              "type": "uint8"
            },
            {
              "internalType": "enum Types.GameType",
              "name": "gameType",
              "type": "uint8"
            },
            {
              "internalType": "uint256",
              "name": "maxPlayers",
              "type": "uint256"
            },
            {
              "internalType": "uint256",
              "name": "playerCount",
              "type": "uint256"
            },
            {
              "internalType": "uint256",
              "name": "registrationEndTime",
              "type": "uint256"
            },
            {
              "internalType": "uint256",
              "name": "gameStartTime",
              "type": "uint256"
            },
            {
              "internalType": "address",
              "name": "feeToken",
              "type": "address"
            },
            {
              "internalType": "uint256",
              "name": "entryFee",
              "type": "uint256"
            },
            {
              "internalType": "address",
              "name": "prizeToken",
              "type": "address"
            },
            {
              "internalType": "uint256",
              "name": "prizePool",
              "type": "uint256"
            }
          ],
          "internalType": "struct Types.GameData",
          "name": "",
          "type": "tuple"
        }
      ],
      "stateMutability": "view",
      "type": "function"
    },
    {
      "inputs": [
        {
          "internalType": "address",
          "name": "player",
          "type": "address"
        }
      ],
      "name": "getPlayerGameResult",
      "outputs": [
        {
          "components": [
            {
              "internalType": "enum Types.GameType",
              "name": "gameType",
              "type": "uint8"
            },
            {
              "internalType": "address",
              "name": "player",
              "type": "address"
            },
            {
              "internalType": "uint256",
              "name": "score",
              "type": "uint256"
            },
            {
              "internalType": "uint256",
              "name": "timestamp",
              "type": "uint256"
            },
            {
              "internalType": "bytes32",
              "name": "gameHash",
              "type": "bytes32"
            },
            {
              "internalType": "uint256[]",
              "name": "metadata",
              "type": "uint256[]"
            }
          ],
          "internalType": "struct Types.GameResult",
          "name": "",
          "type": "tuple"
        }
      ],
      "stateMutability": "view",
      "type": "function"
    },
    {
      "inputs": [
        {
          "internalType": "address",
          "name": "player",
          "type": "address"
        }
      ],
      "name": "getPlayerScore",
      "outputs": [
        {
          "internalType": "uint256",
          "name": "",
          "type": "uint256"
        }
      ],
      "stateMutability": "view",
      "type": "function"
    },
    {
      "inputs": [
        {
          "internalType": "bytes32",
          "name": "role",
          "type": "bytes32"
        }
      ],
      "name": "getRoleAdmin",
      "outputs": [
        {
          "internalType": "bytes32",
          "name": "",
          "type": "bytes32"
        }
      ],
      "stateMutability": "view",
      "type": "function"
    },
    {
      "inputs": [
        {
          "internalType": "bytes32",
          "name": "role",
          "type": "bytes32"
        },
        {
          "internalType": "address",
          "name": "account",
          "type": "address"
        }
      ],
      "name": "grantRole",
      "outputs": [],
      "stateMutability": "nonpayable",
      "type": "function"
    },
    {
      "inputs": [
        {
          "internalType": "bytes32",
          "name": "role",
          "type": "bytes32"
        },
        {
          "internalType": "address",
          "name": "account",
          "type": "address"
        }
      ],
      "name": "hasRole",
      "outputs": [
        {
          "internalType": "bool",
          "name": "",
          "type": "bool"
        }
      ],
      "stateMutability": "view",
      "type": "function"
    },
    {
      "inputs": [
        {
          "components": [
            {
              "internalType": "string",
              "name": "title",
              "type": "string"
            },
            {
              "internalType": "string",
              "name": "description",
              "type": "string"
            },
            {
              "internalType": "enum Types.GameType",
              "name": "gameType",
              "type": "uint8"
            },
            {
              "internalType": "address",
              "name": "feeTokenAddress",
              "type": "address"
            },
            {
              "internalType": "uint256",
              "name": "entryFee",
              "type": "uint256"
            },
            {
              "internalType": "uint256",
              "name": "minPlayers",
              "type": "uint256"
            },
            {
              "internalType": "uint256",
              "name": "maxPlayers",
              "type": "uint256"
            },
            {
              "internalType": "uint256",
              "name": "registrationEndTime",
              "type": "uint256"
            },
            {
              "internalType": "uint256",
              "name": "gameStartTime",
              "type": "uint256"
            },
            {
              "internalType": "address",
              "name": "prizeTokenAddress",
              "type": "address"
            },
            {
              "internalType": "uint256",
              "name": "prizePool",
              "type": "uint256"
            },
            {
              "internalType": "enum Types.PrizeDistributionType",
              "name": "distributionType",
              "type": "uint8"
            },
            {
              "internalType": "uint256[]",
              "name": "rankPrizes",
              "type": "uint256[]"
            }
          ],
          "internalType": "struct Types.GameConfig",
          "name": "config",
          "type": "tuple"
        },
        {
          "internalType": "address",
          "name": "_creator",
          "type": "address"
        },
        {
          "internalType": "address",
          "name": "_levelManager",
          "type": "address"
        }
      ],
      "name": "initialize",
      "outputs": [],
      "stateMutability": "nonpayable",
      "type": "function"
    },
    {
      "inputs": [
        {
          "internalType": "address",
          "name": "",
          "type": "address"
        }
      ],
      "name": "isJoined",
      "outputs": [
        {
          "internalType": "bool",
          "name": "",
          "type": "bool"
        }
      ],
      "stateMutability": "view",
      "type": "function"
    },
    {
      "inputs": [],
      "name": "joinGame",
      "outputs": [],
      "stateMutability": "nonpayable",
      "type": "function"
    },
    {
      "inputs": [],
      "name": "levelManager",
      "outputs": [
        {
          "internalType": "address",
          "name": "",
          "type": "address"
        }
      ],
      "stateMutability": "view",
      "type": "function"
    },
    {
      "inputs": [],
      "name": "maxPlayers",
      "outputs": [
        {
          "internalType": "uint256",
          "name": "",
          "type": "uint256"
        }
      ],
      "stateMutability": "view",
      "type": "function"
    },
    {
      "inputs": [],
      "name": "minPlayers",
      "outputs": [
        {
          "internalType": "uint256",
          "name": "",
          "type": "uint256"
        }
      ],
      "stateMutability": "view",
      "type": "function"
    },
    {
      "inputs": [
        {
          "internalType": "uint256",
          "name": "",
          "type": "uint256"
        }
      ],
      "name": "players",
      "outputs": [
        {
          "internalType": "address",
          "name": "player",
          "type": "address"
        },
        {
          "internalType": "uint256",
          "name": "score",
          "type": "uint256"
        }
      ],
      "stateMutability": "view",
      "type": "function"
    },
    {
      "inputs": [],
      "name": "prizePool",
      "outputs": [
        {
          "internalType": "uint256",
          "name": "",
          "type": "uint256"
        }
      ],
      "stateMutability": "view",
      "type": "function"
    },
    {
      "inputs": [
        {
          "internalType": "address",
          "name": "",
          "type": "address"
        }
      ],
      "name": "prizeToClaimsAmount",
      "outputs": [
        {
          "internalType": "uint256",
          "name": "",
          "type": "uint256"
        }
      ],
      "stateMutability": "view",
      "type": "function"
    },
    {
      "inputs": [],
      "name": "prizeToken",
      "outputs": [
        {
          "internalType": "address",
          "name": "",
          "type": "address"
        }
      ],
      "stateMutability": "view",
      "type": "function"
    },
    {
      "inputs": [
        {
          "internalType": "uint256",
          "name": "",
          "type": "uint256"
        }
      ],
      "name": "rankPrizes",
      "outputs": [
        {
          "internalType": "uint256",
          "name": "",
          "type": "uint256"
        }
      ],
      "stateMutability": "view",
      "type": "function"
    },
    {
      "inputs": [],
      "name": "registrationEndTime",
      "outputs": [
        {
          "internalType": "uint256",
          "name": "",
          "type": "uint256"
        }
      ],
      "stateMutability": "view",
      "type": "function"
    },
    {
      "inputs": [
        {
          "internalType": "bytes32",
          "name": "role",
          "type": "bytes32"
        },
        {
          "internalType": "address",
          "name": "callerConfirmation",
          "type": "address"
        }
      ],
      "name": "renounceRole",
      "outputs": [],
      "stateMutability": "nonpayable",
      "type": "function"
    },
    {
      "inputs": [
        {
          "internalType": "bytes32",
          "name": "role",
          "type": "bytes32"
        },
        {
          "internalType": "address",
          "name": "account",
          "type": "address"
        }
      ],
      "name": "revokeRole",
      "outputs": [],
      "stateMutability": "nonpayable",
      "type": "function"
    },
    {
      "inputs": [
        {
          "internalType": "address",
          "name": "_gameRegistry",
          "type": "address"
        }
      ],
      "name": "setGameRegistry",
      "outputs": [],
      "stateMutability": "nonpayable",
      "type": "function"
    },
    {
      "inputs": [
        {
          "internalType": "address[]",
          "name": "_winners",
          "type": "address[]"
        }
      ],
      "name": "setWinners",
      "outputs": [],
      "stateMutability": "nonpayable",
      "type": "function"
    },
    {
      "inputs": [],
      "name": "startGame",
      "outputs": [],
      "stateMutability": "nonpayable",
      "type": "function"
    },
    {
      "inputs": [],
      "name": "status",
      "outputs": [
        {
          "internalType": "enum Types.GameStatus",
          "name": "",
          "type": "uint8"
        }
      ],
      "stateMutability": "view",
      "type": "function"
    },
    {
      "inputs": [
        {
          "components": [
            {
              "internalType": "enum Types.GameType",
              "name": "gameType",
              "type": "uint8"
            },
            {
              "internalType": "address",
              "name": "player",
              "type": "address"
            },
            {
              "internalType": "uint256",
              "name": "score",
              "type": "uint256"
            },
            {
              "internalType": "uint256",
              "name": "timestamp",
              "type": "uint256"
            },
            {
              "internalType": "bytes32",
              "name": "gameHash",
              "type": "bytes32"
            },
            {
              "internalType": "uint256[]",
              "name": "metadata",
              "type": "uint256[]"
            }
          ],
          "internalType": "struct Types.GameResult",
          "name": "result",
          "type": "tuple"
        }
      ],
      "name": "submitGameResult",
      "outputs": [],
      "stateMutability": "nonpayable",
      "type": "function"
    },
    {
      "inputs": [
        {
          "internalType": "uint256",
          "name": "score",
          "type": "uint256"
        }
      ],
      "name": "submitScore",
      "outputs": [],
      "stateMutability": "nonpayable",
      "type": "function"
    },
    {
      "inputs": [
        {
          "internalType": "bytes4",
          "name": "interfaceId",
          "type": "bytes4"
        }
      ],
      "name": "supportsInterface",
      "outputs": [
        {
          "internalType": "bool",
          "name": "",
          "type": "bool"
        }
      ],
      "stateMutability": "view",
      "type": "function"
    },
    {
      "inputs": [],
      "name": "title",
      "outputs": [
        {
          "internalType": "string",
          "name": "",
          "type": "string"
        }
      ],
      "stateMutability": "view",
      "type": "function"
    },
    {
      "inputs": [
        {
          "internalType": "uint256",
          "name": "",
          "type": "uint256"
        }
      ],
      "name": "winners",
      "outputs": [
        {
          "internalType": "address",
          "name": "",
          "type": "address"
        }
      ],
      "stateMutability": "view",
      "type": "function"
    }
  ],
  "bytecode": "0x608060405234801561001057600080fd5b50613c8d806100206000396000f3fe608060405234801561001057600080fd5b506004361061027f5760003560e01c806377b6e5041161015c578063bbdc02db116100ce578063da09075511610087578063da090755146105a9578063dd898b2f146105c1578063dff7d2c7146105d4578063e085c539146105dd578063e5a078a714610606578063f71d96cb1461060e57600080fd5b8063bbdc02db1461055e578063d0ef024a1461056b578063d4f77b1c1461057e578063d547741f14610586578063d65ab5f214610599578063d84c1ac9146105a157600080fd5b8063a217fddf11610120578063a217fddf146104f3578063a2fb1175146104fb578063af4e99de1461050e578063aff0b29714610523578063b062e95014610536578063b5545a3c1461055657600080fd5b806377b6e504146104965780638233e4331461049e57806384da242d146104b15780638aeda25a146104cb57806391d14854146104e057600080fd5b806336568abe116101f55780635e6a43f5116101b95780635e6a43f514610434578063647846a5146104575780636aba6c191461046a57806370740ac91461047d578063719ce73e146104855780637284e4161461048e57600080fd5b806336568abe146103dd578063445e6b39146103f05780634a79d50c146104035780634c2412a214610418578063554c925c1461042157600080fd5b80631d75d7c2116102475780631d75d7c214610317578063200d2ed21461036f578063248a9ca3146103895780632770c895146103ac5780632a8d950c146103b55780632f2ff15d146103c857600080fd5b806301ffc9a7146102845780630252b995146102ac57806302d05d3f146102c3578063072ea61c146102ee578063140d6b94146102f7575b600080fd5b610297610292366004612f63565b61062f565b60405190151581526020015b60405180910390f35b6102b5600a5481565b6040519081526020016102a3565b6003546102d6906001600160a01b031681565b6040516001600160a01b0390911681526020016102a3565b6102b5600c5481565b61030a610305366004612fb9565b610666565b6040516102a39190613009565b61035e610325366004612fb9565b601760205260009081526040902080546001820154600283015460039093015460ff8316936101009093046001600160a01b0316929085565b6040516102a39594939291906130a1565b60135461037c9060ff1681565b6040516102a391906130d8565b6102b56103973660046130eb565b60009081526020819052604090206001015490565b6102b560075481565b6002546102d6906001600160a01b031681565b6103db6103d6366004613104565b6107a8565b005b6103db6103eb366004613104565b6107d3565b6103db6103fe366004613134565b61080b565b61040b610963565b6040516102a391906131ef565b6102b560085481565b6103db61042f366004613202565b6109f1565b610297610442366004612fb9565b60156020526000908152604090205460ff1681565b600b546102d6906001600160a01b031681565b6103db6104783660046133c5565b610d27565b6103db611129565b6102b5600f5481565b61040b611259565b6103db611266565b6102b56104ac3660046130eb565b6119d8565b6010546104be9060ff1681565b6040516102a39190613525565b6102b5600080516020613c3883398151915281565b6102976104ee366004613104565b6119f9565b6102b5600081565b6102d66105093660046130eb565b611a22565b610516611a4c565b6040516102a39190613539565b6103db6105313660046130eb565b611c47565b6102b5610544366004612fb9565b60126020526000908152604090205481565b6103db611d5f565b60065461037c9060ff1681565b600e546102d6906001600160a01b031681565b6103db611ede565b6103db610594366004613104565b612233565b6103db612258565b6103db612605565b6001546102d69061010090046001600160a01b031681565b6103db6105cf366004612fb9565b6127c7565b6102b560095481565b6102b56105eb366004612fb9565b6001600160a01b031660009081526016602052604090205490565b6103db612851565b61062161061c3660046130eb565b612c63565b6040516102a392919061363f565b60006001600160e01b03198216637965db0b60e01b148061066057506301ffc9a760e01b6001600160e01b03198316145b92915050565b6106ac6040805160c08101909152806000815260200160006001600160a01b03168152602001600081526020016000815260200160008019168152602001606081525090565b6001600160a01b03821660009081526017602052604090819020815160c081019092528054829060ff1660048111156106e7576106e7612fd6565b60048111156106f8576106f8612fd6565b81526020016000820160019054906101000a90046001600160a01b03166001600160a01b03166001600160a01b031681526020016001820154815260200160028201548152602001600382015481526020016004820180548060200260200160405190810160405280929190818152602001828054801561079857602002820191906000526020600020905b815481526020019060010190808311610784575b5050505050815250509050919050565b6000828152602081905260409020600101546107c381612c9b565b6107cd8383612ca5565b50505050565b6001600160a01b03811633146107fc5760405163334bd91960e11b815260040160405180910390fd5b6108068282612d37565b505050565b600080516020613c3883398151915261082381612c9b565b600160135460ff16600481111561083c5761083c612fd6565b146108625760405162461bcd60e51b815260040161085990613658565b60405180910390fd5b60005b82811015610909576015600085858481811061088357610883613682565b90506020020160208101906108989190612fb9565b6001600160a01b0316815260208101919091526040016000205460ff166109015760405162461bcd60e51b815260206004820152601860248201527f54686572652069732077696e6e6572206e6f74206a6f696e00000000000000006044820152606401610859565b600101610865565b5061091660188484612e1c565b506013805460ff191660021790556040517f8451dabc49a0b82cffb0a79a6771fe2718264aae54a4eff4d4463748813ec56f906109569085908590613698565b60405180910390a1505050565b60048054610970906136db565b80601f016020809104026020016040519081016040528092919081815260200182805461099c906136db565b80156109e95780601f106109be576101008083540402835291602001916109e9565b820191906000526020600020905b8154815290600101906020018083116109cc57829003601f168201915b505050505081565b600160135460ff166004811115610a0a57610a0a612fd6565b14610a275760405162461bcd60e51b815260040161085990613658565b600a54421015610a745760405162461bcd60e51b815260206004820152601860248201527711d85b59481a185cc81b9bdd081cdd185c9d1959081e595d60421b6044820152606401610859565b3360009081526015602052604090205460ff16610ac75760405162461bcd60e51b8152602060048201526011602482015270141b185e595c881b9bdd081a9bda5b9959607a1b6044820152606401610859565b60065460ff166004811115610ade57610ade612fd6565b610aeb6020830183613715565b6004811115610afc57610afc612fd6565b14610b3e5760405162461bcd60e51b815260206004820152601260248201527108ec2daca40e8f2e0ca40dad2e6dac2e8c6d60731b6044820152606401610859565b33610b4f6040830160208401612fb9565b6001600160a01b031614610ba55760405162461bcd60e51b815260206004820152601760248201527f506c617965722061646472657373206d69736d617463680000000000000000006044820152606401610859565b60015461010090046001600160a01b0316610bf95760405162461bcd60e51b815260206004820152601460248201527311d85b59549959da5cdd1c9e481b9bdd081cd95d60621b6044820152606401610859565b6001546040516335c34ae960e01b81526101009091046001600160a01b03169060009082906335c34ae990610c32908690600401613764565b6020604051808303816000875af1158015610c51573d6000803e3d6000fd5b505050506040513d601f19601f82011682018060405250810190610c759190613823565b905080610cc45760405162461bcd60e51b815260206004820152601f60248201527f47616d6520726573756c7420766572696669636174696f6e206661696c6564006044820152606401610859565b336000908152601660209081526040808320818701359055601790915290208390610cef8282613961565b9050507fa578df9b0453d14d7ed8615ee0e9d58f70e041e91fc5865e3b71f81ea05296c033846040013560405161095692919061363f565b60015460ff1615610d705760405162461bcd60e51b8152602060048201526013602482015272105b1c9958591e481a5b9a5d1a585b1a5e9959606a1b6044820152606401610859565b6001805460ff191681179055600280546001600160a01b0319166001600160a01b03831617905560e08301514210610dea5760405162461bcd60e51b815260206004820152601960248201527f52656720656e64206d75737420626520696e20667574757265000000000000006044820152606401610859565b8260e001518361010001511015610e435760405162461bcd60e51b815260206004820152601e60248201527f47616d65206d7573742073746172742061667465722072656720656e647300006044820152606401610859565b8260a001518360c001511015610e905760405162461bcd60e51b815260206004820152601260248201527126b0bc1036bab9ba103132901f1e9026b4b760711b6044820152606401610859565b600380546001600160a01b0319166001600160a01b0384161790558251600490610eba9082613a30565b506020830151600590610ecd9082613a30565b506013805460ff1990811690915560408401516006805491929091166001836004811115610efd57610efd612fd6565b02179055506060830151600b80546001600160a01b039283166001600160a01b0319918216179091556080850151600c5560a085015160075560c085015160085560e0850151600955610100850151600a55610120850151600e8054919093169116179055610140830151600f556101608301516010805460ff19166001836002811115610f8d57610f8d612fd6565b02179055506101808301518051610fac91601191602090910190612e7f565b5060028361016001516002811115610fc657610fc6612fd6565b036110b957610180830151516011546110215760405162461bcd60e51b815260206004820152601f60248201527f437573746f6d2072616e6b20636f6e66696720666f726d6174206572726f72006044820152606401610859565b6000805b8281101561106a576011818154811061104057611040613682565b9060005260206000200154826110569190613af4565b9150611063600182613af4565b9050611025565b506127108111156110b65760405162461bcd60e51b81526020600482015260166024820152755072697a65204250532065786365656473203130302560501b6044820152606401610859565b50505b6110c4600083612ca5565b506110dd600080516020613c3883398151915283612ca5565b506110f7600080516020613c388339815191526000612da2565b7fc66e6cd41f805f65978f5241034e8d106c42cf3c7a4d62ccd857646b401cbe4a826004604051610956929190613b07565b336000908152601260205260409020548061117a5760405162461bcd60e51b81526020600482015260116024820152704e6f207072697a6520746f20636c61696d60781b6044820152606401610859565b3360008181526012602052604080822091909155600e54905163a9059cbb60e01b81526001600160a01b039091169163a9059cbb916111be9190859060040161363f565b6020604051808303816000875af11580156111dd573d6000803e3d6000fd5b505050506040513d601f19601f820116820180604052508101906112019190613823565b61121d5760405162461bcd60e51b815260040161085990613ba7565b7fb8e091d87f82e56d22276c9a0088ea5d6068e355383dc08b2721b7b6cb10e845338260405161124e92919061363f565b60405180910390a150565b60058054610970906136db565b600080516020613c3883398151915261127e81612c9b565b600260135460ff16600481111561129757611297612fd6565b146112d55760405162461bcd60e51b815260206004820152600e60248201526d11d85b59481b9bdd08195b99195960921b6044820152606401610859565b6018546113155760405162461bcd60e51b815260206004820152600e60248201526d139bc81dda5b9b995c9cc81cd95d60921b6044820152606401610859565b6000600f541161135d5760405162461bcd60e51b81526020600482015260136024820152725072697a6520706f6f6c20697320656d70747960681b6044820152606401610859565b600f805460009182905560025490916001600160a01b039091169060105460ff16600281111561138f5761138f612fd6565b0361149357816012600060186000815481106113ad576113ad613682565b60009182526020808320909101546001600160a01b03168352820192909252604001812080549091906113e1908490613af4565b90915550506002546001600160a01b03161561148e57806001600160a01b0316635fe352ce601860008154811061141a5761141a613682565b6000918252602090912001546040516001600160e01b031960e084901b16815261145b916001600160a01b0316906801158e460913d000009060040161363f565b600060405180830381600087803b15801561147557600080fd5b505af1158015611489573d6000803e3d6000fd5b505050505b6119c6565b600160105460ff1660028111156114ac576114ac612fd6565b036115fd5760145460006114c08285613be6565b905060006114ce8386613bfa565b905060005b8381101561153f5760008390508060126000601485815481106114f8576114f8613682565b600091825260208083206002909202909101546001600160a01b0316835282019290925260400181208054909190611531908490613af4565b9091555050506001016114d3565b50600e5460035460405163a9059cbb60e01b81526001600160a01b039283169263a9059cbb9261157692911690859060040161363f565b6020604051808303816000875af1158015611595573d6000803e3d6000fd5b505050506040513d601f19601f820116820180604052508101906115b99190613823565b6115f55760405162461bcd60e51b815260206004820152600d60248201526c1499599d5b990819985a5b1959609a1b6044820152606401610859565b5050506119c6565b600260105460ff16600281111561161657611616612fd6565b036119c65760115460185411156116855760405162461bcd60e51b815260206004820152602d60248201527f57696e6e657273206c69737420657863656564732072616e6b207072697a652060448201526c31b7b73334b3bab930ba34b7b760991b6064820152608401610859565b6000805b60185481101561171a576000601182815481106116a8576116a8613682565b90600052602060002001549050600081116117055760405162461bcd60e51b815260206004820152601d60248201527f4d697373696e67207072697a6520636f6e66696720666f722072616e6b0000006044820152606401610859565b61170f8184613af4565b925050600101611689565b506127108111156117665760405162461bcd60e51b81526020600482015260166024820152755072697a65204250532065786365656473203130302560501b6044820152606401610859565b60005b6018548110156119c35760006011828154811061178857611788613682565b600091825260208220015491506127106117a283886138ac565b6117ac9190613be6565b90508060126000601886815481106117c6576117c6613682565b60009182526020808320909101546001600160a01b03168352820192909252604001812080549091906117fa908490613af4565b90915550506002546001600160a01b0316156119b957826000036118b257846001600160a01b0316635fe352ce6018858154811061183a5761183a613682565b6000918252602090912001546040516001600160e01b031960e084901b16815261187b916001600160a01b0316906801158e460913d000009060040161363f565b600060405180830381600087803b15801561189557600080fd5b505af11580156118a9573d6000803e3d6000fd5b505050506119b9565b8260010361191c57846001600160a01b0316635fe352ce601885815481106118dc576118dc613682565b6000918252602090912001546040516001600160e01b031960e084901b16815261187b916001600160a01b031690678ac7230489e800009060040161363f565b826002036119b957846001600160a01b0316635fe352ce6018858154811061194657611946613682565b6000918252602090912001546040516001600160e01b031960e084901b168152611986916001600160a01b031690674563918244f400009060040161363f565b600060405180830381600087803b1580156119a057600080fd5b505af11580156119b4573d6000803e3d6000fd5b505050505b5050600101611769565b50505b50506013805460ff1916600317905550565b601181815481106119e857600080fd5b600091825260209091200154905081565b6000918252602082815260408084206001600160a01b0393909316845291905290205460ff1690565b60188181548110611a3257600080fd5b6000918252602090912001546001600160a01b0316905081565b611a54612eba565b611a5c612eba565b6003546001600160a01b0316815260048054611a77906136db565b80601f0160208091040260200160405190810160405280929190818152602001828054611aa3906136db565b8015611af05780601f10611ac557610100808354040283529160200191611af0565b820191906000526020600020905b815481529060010190602001808311611ad357829003601f168201915b5050505050816020018190525060058054611b0a906136db565b80601f0160208091040260200160405190810160405280929190818152602001828054611b36906136db565b8015611b835780601f10611b5857610100808354040283529160200191611b83565b820191906000526020600020905b815481529060010190602001808311611b6657829003601f168201915b50505050506040820152601354606082019060ff166004811115611ba957611ba9612fd6565b90816004811115611bbc57611bbc612fd6565b905250600654608082019060ff166004811115611bdb57611bdb612fd6565b90816004811115611bee57611bee612fd6565b90525060085460a082015260145460c082015260095460e0820152600a54610100820152600c54610140820152600b546001600160a01b03908116610120830152600f54610180830152600e5416610160820152919050565b600160135460ff166004811115611c6057611c60612fd6565b14611c7d5760405162461bcd60e51b815260040161085990613658565b600a54421015611cca5760405162461bcd60e51b815260206004820152601860248201527711d85b59481a185cc81b9bdd081cdd185c9d1959081e595d60421b6044820152606401610859565b3360009081526015602052604090205460ff16611d1d5760405162461bcd60e51b8152602060048201526011602482015270141b185e595c881b9bdd081a9bda5b9959607a1b6044820152606401610859565b3360008181526016602052604090819020839055517fa578df9b0453d14d7ed8615ee0e9d58f70e041e91fc5865e3b71f81ea05296c09161124e91849061363f565b600460135460ff166004811115611d7857611d78612fd6565b14611db95760405162461bcd60e51b815260206004820152601160248201527011d85b59481b9bdd0818d85b98d95b1959607a1b6044820152606401610859565b336000908152600d602052604090205480611e0a5760405162461bcd60e51b81526020600482015260116024820152704e6f207072697a6520746f20636c61696d60781b6044820152606401610859565b336000818152600d602052604080822091909155600b54905163a9059cbb60e01b81526001600160a01b039091169163a9059cbb91611e4e9190859060040161363f565b6020604051808303816000875af1158015611e6d573d6000803e3d6000fd5b505050506040513d601f19601f82011682018060405250810190611e919190613823565b611ead5760405162461bcd60e51b815260040161085990613ba7565b7feb4706597fb7a2e8806c0e31ad4c334330a97bc3cae6b9c360e152c922bb40c8338260405161124e92919061363f565b600060135460ff166004811115611ef757611ef7612fd6565b14611f445760405162461bcd60e51b815260206004820152601a60248201527f47616d65206e6f7420616363657074696e6720706c61796572730000000000006044820152606401610859565b6009544210611f955760405162461bcd60e51b815260206004820152601860248201527f526567697374726174696f6e2074696d652070617373656400000000000000006044820152606401610859565b60085460145410611fde5760405162461bcd60e51b815260206004820152601360248201527213585e081c1b185e595c9cc81c995858da1959606a1b6044820152606401610859565b3360009081526015602052604090205460ff161561202f5760405162461bcd60e51b815260206004820152600e60248201526d105b1c9958591e481a9bda5b995960921b6044820152606401610859565b600c54156120d257600b54600c546040516323b872dd60e01b815233600482015230602482015260448101919091526001600160a01b03909116906323b872dd906064016020604051808303816000875af1158015612092573d6000803e3d6000fd5b505050506040513d601f19601f820116820180604052508101906120b69190613823565b6120d25760405162461bcd60e51b815260040161085990613ba7565b6040805180820182523380825260006020808401828152601480546001808201835591855295517fce6d7b5282bd9a3661ae061feed1dbda4e52ab073b1f9285be6e155d9c38d4ec600297880290810180546001600160a01b0319166001600160a01b0393841617905592517fce6d7b5282bd9a3661ae061feed1dbda4e52ab073b1f9285be6e155d9c38d4ed90930192909255600c54948452600d8352868420949094556015909152939020805460ff191690911790555416156121fe57600254604051632ff1a96760e11b81526001600160a01b0390911690635fe352ce906121cb9033906729a2241af62c00009060040161363f565b600060405180830381600087803b1580156121e557600080fd5b505af11580156121f9573d6000803e3d6000fd5b505050505b6040513381527f31e760aa525306aba638a784082a013b6a1cc0a9a1789f3f22281c0453b10b1f9060200160405180910390a1565b60008281526020819052604090206001015461224e81612c9b565b6107cd8383612d37565b600080516020613c3883398151915261227081612c9b565b600060135460ff16600481111561228957612289612fd6565b146122d65760405162461bcd60e51b815260206004820152601a60248201527f47616d65206e6f7420696e2043726561746564207374617475730000000000006044820152606401610859565b6009544210156123285760405162461bcd60e51b815260206004820152601c60248201527f526567697374726174696f6e206973206e6f74206f76657220796574000000006044820152606401610859565b60075460145410156125cb57600f805460009091556013805460ff19166004179055801561240b57600e5460035460405163a9059cbb60e01b81526001600160a01b039283169263a9059cbb9261238692911690859060040161363f565b6020604051808303816000875af11580156123a5573d6000803e3d6000fd5b505050506040513d601f19601f820116820180604052508101906123c99190613823565b61240b5760405162461bcd60e51b8152602060048201526013602482015272141c9a5e99481c99599d5b990819985a5b1959606a1b6044820152606401610859565b60005b6014548110156125835760006014828154811061242d5761242d613682565b600091825260208083206002909202909101546001600160a01b0316808352600d9091526040909120549091508015612579576001600160a01b038083166000908152600d602052604080822091909155600b54905163a9059cbb60e01b815291169063a9059cbb906124a6908590859060040161363f565b6020604051808303816000875af11580156124c5573d6000803e3d6000fd5b505050506040513d601f19601f820116820180604052508101906124e99190613823565b6125355760405162461bcd60e51b815260206004820152601760248201527f456e7472792066656520726566756e64206661696c65640000000000000000006044820152606401610859565b816001600160a01b03167fbddaec5e3db6d33ac9b0043f3c92cf3d081b19f8646f372eb3a68a51e273a1048260405161257091815260200190565b60405180910390a25b505060010161240e565b506003546040518281526001600160a01b03909116907fcabd9ffa4ff52290e56c52a9ed671760a0e5951eaa234fd9e0ccccf507bf98ca906020015b60405180910390a25050565b6013805460ff191660011790556040517f762f260439bb4be3ef6e4dc2786e2e7bd187d3d80b79057d7a424fe98563e33590600090a15b50565b600080516020613c3883398151915261261d81612c9b565b600060135460ff16600481111561263657612636612fd6565b14806126585750600160135460ff16600481111561265657612656612fd6565b145b6126b75760405162461bcd60e51b815260206004820152602a60248201527f43616e6e6f742063616e63656c20616e20656e646564206f722064697374726960448201526962757465642067616d6560b01b6064820152608401610859565b600f805460009091556013805460ff19166004179055801561278857600e5460035460405163a9059cbb60e01b81526001600160a01b039283169263a9059cbb9261270992911690859060040161363f565b6020604051808303816000875af1158015612728573d6000803e3d6000fd5b505050506040513d601f19601f8201168201806040525081019061274c9190613823565b6127885760405162461bcd60e51b815260206004820152600d60248201526c1499599d5b990819985a5b1959609a1b6044820152606401610859565b6003546040518281526001600160a01b03909116907fcabd9ffa4ff52290e56c52a9ed671760a0e5951eaa234fd9e0ccccf507bf98ca906020016125bf565b60006127d281612c9b565b6001600160a01b0382166128285760405162461bcd60e51b815260206004820152601d60248201527f496e76616c69642067616d6520726567697374727920616464726573730000006044820152606401610859565b50600180546001600160a01b0390921661010002610100600160a81b0319909216919091179055565b600954339042106128a45760405162461bcd60e51b815260206004820152601960248201527f526567697374726174696f6e2074696d65206973206f766572000000000000006044820152606401610859565b600060135460ff1660048111156128bd576128bd612fd6565b1461290a5760405162461bcd60e51b815260206004820181905260248201527f47616d6520697320616c7265616479206f6e676f696e67206f7220656e6465646044820152606401610859565b6001600160a01b0381166000908152600d6020526040902054806129865760405162461bcd60e51b815260206004820152602d60248201527f506c6179657220686173206e6f74206a6f696e6564206f722066656520616c7260448201526c1958591e481c99599d5b991959609a1b6064820152608401610859565b600080805b6014548110156129e557846001600160a01b0316601482815481106129b2576129b2613682565b60009182526020909120600290910201546001600160a01b0316036129dd57809250600191506129e5565b60010161298b565b5080612a445760405162461bcd60e51b815260206004820152602860248201527f496e7465726e616c206572726f723a20506c61796572206e6f7420666f756e64604482015267081a5b881b1a5cdd60c21b6064820152608401610859565b601454600090612a5690600190613c0e565b9050808314612acc5760148181548110612a7257612a72613682565b906000526020600020906002020160148481548110612a9357612a93613682565b60009182526020909120825460029092020180546001600160a01b0319166001600160a01b039092169190911781556001918201549101555b6014805480612add57612add613c21565b6000828152602080822060026000199094019384020180546001600160a01b0319168155600101829055919092556001600160a01b0387168252600d905260408120819055600f8054869290612b34908490613c0e565b90915550506001600160a01b038086166000908152601560209081526040808320805460ff19169055601690915280822091909155600b54905163a9059cbb60e01b815291169063a9059cbb90612b91908890889060040161363f565b6020604051808303816000875af1158015612bb0573d6000803e3d6000fd5b505050506040513d601f19601f82011682018060405250810190612bd49190613823565b612c195760405162461bcd60e51b81526020600482015260166024820152751499599d5b99081d1c985b9cd9995c8819985a5b195960521b6044820152606401610859565b846001600160a01b03167fbddaec5e3db6d33ac9b0043f3c92cf3d081b19f8646f372eb3a68a51e273a10485604051612c5491815260200190565b60405180910390a25050505050565b60148181548110612c7357600080fd5b6000918252602090912060029091020180546001909101546001600160a01b03909116915082565b6126028133612ded565b6000612cb183836119f9565b612d2f576000838152602081815260408083206001600160a01b03861684529091529020805460ff19166001179055612ce73390565b6001600160a01b0316826001600160a01b0316847f2f8788117e7eff1d82e926ec794901d17c78024a50270940304540a733656f0d60405160405180910390a4506001610660565b506000610660565b6000612d4383836119f9565b15612d2f576000838152602081815260408083206001600160a01b0386168085529252808320805460ff1916905551339286917ff6391f5c32d9c69d2a47ea670b442974b53935d1edc7fd64eb21e047a839171b9190a4506001610660565b600082815260208190526040808220600101805490849055905190918391839186917fbd79b86ffe0ab8e8776151514217cd7cacd52c909f66475c3af44e129f0b00ff9190a4505050565b612df782826119f9565b612e1857808260405163e2517d3f60e01b815260040161085992919061363f565b5050565b828054828255906000526020600020908101928215612e6f579160200282015b82811115612e6f5781546001600160a01b0319166001600160a01b03843516178255602090920191600190910190612e3c565b50612e7b929150612f4e565b5090565b828054828255906000526020600020908101928215612e6f579160200282015b82811115612e6f578251825591602001919060010190612e9f565b604051806101a0016040528060006001600160a01b03168152602001606081526020016060815260200160006004811115612ef757612ef7612fd6565b8152602001600081526020016000815260200160008152602001600081526020016000815260200160006001600160a01b031681526020016000815260200160006001600160a01b03168152602001600081525090565b5b80821115612e7b5760008155600101612f4f565b600060208284031215612f7557600080fd5b81356001600160e01b031981168114612f8d57600080fd5b9392505050565b6001600160a01b038116811461260257600080fd5b8035612fb481612f94565b919050565b600060208284031215612fcb57600080fd5b8135612f8d81612f94565b634e487b7160e01b600052602160045260246000fd5b6005811061260257612602612fd6565b61300581612fec565b9052565b6000602080835260e08301845161301f81612fec565b80838601525060018060a01b03828601511660408501526040850151606085015260608501516080850152608085015160a085015260a085015160c080860152818151808452610100870191508483019350600092505b808310156130965783518252928401926001929092019190840190613076565b509695505050505050565b60a081016130ae87612fec565b9581526001600160a01b039490941660208501526040840192909252606083015260809091015290565b602081016130e583612fec565b91905290565b6000602082840312156130fd57600080fd5b5035919050565b6000806040838503121561311757600080fd5b82359150602083013561312981612f94565b809150509250929050565b6000806020838503121561314757600080fd5b823567ffffffffffffffff8082111561315f57600080fd5b818501915085601f83011261317357600080fd5b81358181111561318257600080fd5b8660208260051b850101111561319757600080fd5b60209290920196919550909350505050565b6000815180845260005b818110156131cf576020818501810151868301820152016131b3565b506000602082860101526020601f19601f83011685010191505092915050565b602081526000612f8d60208301846131a9565b60006020828403121561321457600080fd5b813567ffffffffffffffff81111561322b57600080fd5b820160c08185031215612f8d57600080fd5b634e487b7160e01b600052604160045260246000fd5b6040516101a0810167ffffffffffffffff811182821017156132775761327761323d565b60405290565b604051601f8201601f1916810167ffffffffffffffff811182821017156132a6576132a661323d565b604052919050565b600082601f8301126132bf57600080fd5b813567ffffffffffffffff8111156132d9576132d961323d565b6132ec601f8201601f191660200161327d565b81815284602083860101111561330157600080fd5b816020850160208301376000918101602001919091529392505050565b6005811061260257600080fd5b8035612fb48161331e565b803560038110612fb457600080fd5b600082601f83011261335657600080fd5b8135602067ffffffffffffffff8211156133725761337261323d565b8160051b61338182820161327d565b928352848101820192828101908785111561339b57600080fd5b83870192505b848310156133ba578235825291830191908301906133a1565b979650505050505050565b6000806000606084860312156133da57600080fd5b833567ffffffffffffffff808211156133f257600080fd5b908501906101a0828803121561340757600080fd5b61340f613253565b82358281111561341e57600080fd5b61342a898286016132ae565b82525060208301358281111561343f57600080fd5b61344b898286016132ae565b60208301525061345d6040840161332b565b604082015261346e60608401612fa9565b60608201526080830135608082015260a083013560a082015260c083013560c082015260e083013560e08201526101008084013581830152506101206134b5818501612fa9565b9082015261014083810135908201526101606134d2818501613336565b9082015261018083810135838111156134ea57600080fd5b6134f68a828701613345565b82840152505080955050505061350e60208501612fa9565b915061351c60408501612fa9565b90509250925092565b60208101600383106130e5576130e5612fd6565b602081526135536020820183516001600160a01b03169052565b600060208301516101a08060408501526135716101c08501836131a9565b91506040850151601f1985840301606086015261358e83826131a9565b92505060608501516135a36080860182612ffc565b5060808501516135b660a0860182612ffc565b5060a085015160c085015260c085015160e085015260e0850151610100818187015280870151915050610120818187015280870151915050610140613605818701836001600160a01b03169052565b86015161016086810191909152860151905061018061362e818701836001600160a01b03169052565b959095015193019290925250919050565b6001600160a01b03929092168252602082015260400190565b60208082526010908201526f47616d65206e6f74206f6e676f696e6760801b604082015260600190565b634e487b7160e01b600052603260045260246000fd5b60208082528181018390526000908460408401835b868110156130965782356136c081612f94565b6001600160a01b0316825291830191908301906001016136ad565b600181811c908216806136ef57607f821691505b60208210810361370f57634e487b7160e01b600052602260045260246000fd5b50919050565b60006020828403121561372757600080fd5b8135612f8d8161331e565b81835260006001600160fb1b0383111561374b57600080fd5b8260051b80836020870137939093016020019392505050565b60208152600082356137758161331e565b61377e81612fec565b80602084015250602083013561379381612f94565b60018060a01b0381166040840152506040830135606083015260608301356080830152608083013560a083015260a0830135601e198436030181126137d757600080fd5b830160208101903567ffffffffffffffff8111156137f457600080fd5b8060051b360382131561380657600080fd5b60c08085015261381a60e085018284613732565b95945050505050565b60006020828403121561383557600080fd5b81518015158114612f8d57600080fd5b6000808335601e1984360301811261385c57600080fd5b83018035915067ffffffffffffffff82111561387757600080fd5b6020019150600581901b360382131561388f57600080fd5b9250929050565b634e487b7160e01b600052601160045260246000fd5b808202811582820484141761066057610660613896565b5b81811015612e1857600081556001016138c4565b67ffffffffffffffff8311156138f0576138f061323d565b680100000000000000008311156139095761390961323d565b80548382558084101561392f5781600052602060002061392d8282018683016138c3565b505b50818160005260208060002060005b86811015613958578335828201559282019260010161393e565b50505050505050565b813561396c8161331e565b61397581612fec565b815460ff821691508160ff198216178355602084013561399481612f94565b6001600160a81b03199190911690911760089190911b610100600160a81b03161781556040820135600182015560608201356002820155608082013560038201556139e260a0830183613845565b6107cd8183600486016138d8565b601f82111561080657806000526020600020601f840160051c81016020851015613a175750805b613a29601f850160051c8301826138c3565b5050505050565b815167ffffffffffffffff811115613a4a57613a4a61323d565b613a5e81613a5884546136db565b846139f0565b602080601f831160018114613a935760008415613a7b5750858301515b600019600386901b1c1916600185901b178555613aec565b600085815260208120601f198616915b82811015613ac257888601518255948401946001909101908401613aa3565b5085821015613ae05787850151600019600388901b60f8161c191681555b505060018460011b0185555b505050505050565b8082018082111561066057610660613896565b60018060a01b0383168152600060206040602084015260008454613b2a816136db565b8060408701526060600180841660008114613b4c5760018114613b6857613b98565b60ff19851660608a0152606084151560051b8a01019550613b98565b89600052602060002060005b85811015613b8f5781548b8201860152908301908801613b74565b8a016060019650505b50939998505050505050505050565b6020808252600f908201526e151c985b9cd9995c8819985a5b1959608a1b604082015260600190565b634e487b7160e01b600052601260045260246000fd5b600082613bf557613bf5613bd0565b500490565b600082613c0957613c09613bd0565b500690565b8181038181111561066057610660613896565b634e487b7160e01b600052603160045260246000fdfe828634d95e775031b9ff576b159a8509d3053581a8c9c4d7d86899e0afcd882fa2646970667358221220f52909f28bb407ca4e3f9052aaf3422680bd55130f8c02b6d974507117603ca464736f6c63430008180033",
  "linkReferences": {},
  "deployedLinkReferences": {}
}