{
  "_format": "hh-sol-artifact-1",
  "contractName": "GameInstance",
  "sourceName": "contracts/GameInstance.sol",
  "abi": [
    {
      "inputs": [],
      "name": "AccessControlBadConfirmation",
      "type": "error"
    },
    {
      "inputs": [
        {
          "internalType": "address",
          "name": "account",
          "type": "address"
        },
        {
          "internalType": "bytes32",
          "name": "neededRole",
          "type": "bytes32"
        }
      ],
      "name": "AccessControlUnauthorizedAccount",
      "type": "error"
    },
    {
      "anonymous": false,
      "inputs": [
        {
          "indexed": false,
          "internalType": "address",
          "name": "player",
          "type": "address"
        },
        {
          "indexed": false,
          "internalType": "uint256",
          "name": "amount",
          "type": "uint256"
        }
      ],
      "name": "FeeRefund",
      "type": "event"
    },
    {
      "anonymous": false,
      "inputs": [
        {
          "indexed": true,
          "internalType": "address",
          "name": "creator",
          "type": "address"
        },
        {
          "indexed": false,
          "internalType": "uint256",
          "name": "refundAmount",
          "type": "uint256"
        }
      ],
      "name": "GameCanceled",
      "type": "event"
    },
    {
      "anonymous": false,
      "inputs": [],
      "name": "GameStarted",
      "type": "event"
    },
    {
      "anonymous": false,
      "inputs": [
        {
          "indexed": false,
          "internalType": "address",
          "name": "creator",
          "type": "address"
        },
        {
          "indexed": false,
          "internalType": "string",
          "name": "title",
          "type": "string"
        }
      ],
      "name": "Initialized",
      "type": "event"
    },
    {
      "anonymous": false,
      "inputs": [
        {
          "indexed": false,
          "internalType": "address",
          "name": "player",
          "type": "address"
        }
      ],
      "name": "PlayerJoined",
      "type": "event"
    },
    {
      "anonymous": false,
      "inputs": [
        {
          "indexed": true,
          "internalType": "address",
          "name": "player",
          "type": "address"
        },
        {
          "indexed": false,
          "internalType": "uint256",
          "name": "feeRefunded",
          "type": "uint256"
        }
      ],
      "name": "PlayerUnregistered",
      "type": "event"
    },
    {
      "anonymous": false,
      "inputs": [
        {
          "indexed": false,
          "internalType": "address",
          "name": "winner",
          "type": "address"
        },
        {
          "indexed": false,
          "internalType": "uint256",
          "name": "amount",
          "type": "uint256"
        }
      ],
      "name": "PrizeDistributed",
      "type": "event"
    },
    {
      "anonymous": false,
      "inputs": [
        {
          "indexed": true,
          "internalType": "bytes32",
          "name": "role",
          "type": "bytes32"
        },
        {
          "indexed": true,
          "internalType": "bytes32",
          "name": "previousAdminRole",
          "type": "bytes32"
        },
        {
          "indexed": true,
          "internalType": "bytes32",
          "name": "newAdminRole",
          "type": "bytes32"
        }
      ],
      "name": "RoleAdminChanged",
      "type": "event"
    },
    {
      "anonymous": false,
      "inputs": [
        {
          "indexed": true,
          "internalType": "bytes32",
          "name": "role",
          "type": "bytes32"
        },
        {
          "indexed": true,
          "internalType": "address",
          "name": "account",
          "type": "address"
        },
        {
          "indexed": true,
          "internalType": "address",
          "name": "sender",
          "type": "address"
        }
      ],
      "name": "RoleGranted",
      "type": "event"
    },
    {
      "anonymous": false,
      "inputs": [
        {
          "indexed": true,
          "internalType": "bytes32",
          "name": "role",
          "type": "bytes32"
        },
        {
          "indexed": true,
          "internalType": "address",
          "name": "account",
          "type": "address"
        },
        {
          "indexed": true,
          "internalType": "address",
          "name": "sender",
          "type": "address"
        }
      ],
      "name": "RoleRevoked",
      "type": "event"
    },
    {
      "anonymous": false,
      "inputs": [
        {
          "indexed": false,
          "internalType": "address",
          "name": "player",
          "type": "address"
        },
        {
          "indexed": false,
          "internalType": "uint256",
          "name": "score",
          "type": "uint256"
        }
      ],
      "name": "ScoreSubmitted",
      "type": "event"
    },
    {
      "anonymous": false,
      "inputs": [
        {
          "indexed": false,
          "internalType": "address[]",
          "name": "winner",
          "type": "address[]"
        }
      ],
      "name": "WinnersSet",
      "type": "event"
    },
    {
      "inputs": [],
      "name": "CREATOR_ROLE",
      "outputs": [
        {
          "internalType": "bytes32",
          "name": "",
          "type": "bytes32"
        }
      ],
      "stateMutability": "view",
      "type": "function"
    },
    {
      "inputs": [],
      "name": "DEFAULT_ADMIN_ROLE",
      "outputs": [
        {
          "internalType": "bytes32",
          "name": "",
          "type": "bytes32"
        }
      ],
      "stateMutability": "view",
      "type": "function"
    },
    {
      "inputs": [],
      "name": "PLATFORM_ROLE",
      "outputs": [
        {
          "internalType": "bytes32",
          "name": "",
          "type": "bytes32"
        }
      ],
      "stateMutability": "view",
      "type": "function"
    },
    {
      "inputs": [],
      "name": "cancelGame",
      "outputs": [],
      "stateMutability": "nonpayable",
      "type": "function"
    },
    {
      "inputs": [],
      "name": "cancelRegistration",
      "outputs": [],
      "stateMutability": "nonpayable",
      "type": "function"
    },
    {
      "inputs": [],
      "name": "claimPrize",
      "outputs": [],
      "stateMutability": "nonpayable",
      "type": "function"
    },
    {
      "inputs": [],
      "name": "claimRefund",
      "outputs": [],
      "stateMutability": "nonpayable",
      "type": "function"
    },
    {
      "inputs": [],
      "name": "creator",
      "outputs": [
        {
          "internalType": "address",
          "name": "",
          "type": "address"
        }
      ],
      "stateMutability": "view",
      "type": "function"
    },
    {
      "inputs": [],
      "name": "creatorPrizePool",
      "outputs": [
        {
          "internalType": "uint256",
          "name": "",
          "type": "uint256"
        }
      ],
      "stateMutability": "view",
      "type": "function"
    },
    {
      "inputs": [],
      "name": "description",
      "outputs": [
        {
          "internalType": "string",
          "name": "",
          "type": "string"
        }
      ],
      "stateMutability": "view",
      "type": "function"
    },
    {
      "inputs": [],
      "name": "distributePrize",
      "outputs": [],
      "stateMutability": "nonpayable",
      "type": "function"
    },
    {
      "inputs": [],
      "name": "distributionType",
      "outputs": [
        {
          "internalType": "enum Types.PrizeDistributionType",
          "name": "",
          "type": "uint8"
        }
      ],
      "stateMutability": "view",
      "type": "function"
    },
    {
      "inputs": [],
      "name": "entryFee",
      "outputs": [
        {
          "internalType": "uint256",
          "name": "",
          "type": "uint256"
        }
      ],
      "stateMutability": "view",
      "type": "function"
    },
    {
      "inputs": [],
      "name": "feeToken",
      "outputs": [
        {
          "internalType": "address",
          "name": "",
          "type": "address"
        }
      ],
      "stateMutability": "view",
      "type": "function"
    },
    {
      "inputs": [],
      "name": "gameEndTime",
      "outputs": [
        {
          "internalType": "uint256",
          "name": "",
          "type": "uint256"
        }
      ],
      "stateMutability": "view",
      "type": "function"
    },
    {
      "inputs": [],
      "name": "gameFactory",
      "outputs": [
        {
          "internalType": "address",
          "name": "",
          "type": "address"
        }
      ],
      "stateMutability": "view",
      "type": "function"
    },
    {
      "inputs": [],
      "name": "gameRegistry",
      "outputs": [
        {
          "internalType": "address",
          "name": "",
          "type": "address"
        }
      ],
      "stateMutability": "view",
      "type": "function"
    },
    {
      "inputs": [
        {
          "internalType": "address",
          "name": "",
          "type": "address"
        }
      ],
      "name": "gameResults",
      "outputs": [
        {
          "internalType": "enum Types.GameType",
          "name": "gameType",
          "type": "uint8"
        },
        {
          "internalType": "address",
          "name": "player",
          "type": "address"
        },
        {
          "internalType": "uint256",
          "name": "score",
          "type": "uint256"
        },
        {
          "internalType": "uint256",
          "name": "timestamp",
          "type": "uint256"
        },
        {
          "internalType": "bytes32",
          "name": "gameHash",
          "type": "bytes32"
        }
      ],
      "stateMutability": "view",
      "type": "function"
    },
    {
      "inputs": [],
      "name": "gameStartTime",
      "outputs": [
        {
          "internalType": "uint256",
          "name": "",
          "type": "uint256"
        }
      ],
      "stateMutability": "view",
      "type": "function"
    },
    {
      "inputs": [],
      "name": "gameType",
      "outputs": [
        {
          "internalType": "enum Types.GameType",
          "name": "",
          "type": "uint8"
        }
      ],
      "stateMutability": "view",
      "type": "function"
    },
    {
      "inputs": [],
      "name": "getGameData",
      "outputs": [
        {
          "components": [
            {
              "internalType": "address",
              "name": "creator",
              "type": "address"
            },
            {
              "internalType": "string",
              "name": "title",
              "type": "string"
            },
            {
              "internalType": "string",
              "name": "description",
              "type": "string"
            },
            {
              "internalType": "enum Types.GameStatus",
              "name": "status",
              "type": "uint8"
            },
            {
              "internalType": "enum Types.GameType",
              "name": "gameType",
              "type": "uint8"
            },
            {
              "internalType": "uint256",
              "name": "maxPlayers",
              "type": "uint256"
            },
            {
              "internalType": "uint256",
              "name": "playerCount",
              "type": "uint256"
            },
            {
              "internalType": "uint256",
              "name": "registrationEndTime",
              "type": "uint256"
            },
            {
              "internalType": "uint256",
              "name": "gameStartTime",
              "type": "uint256"
            },
            {
              "internalType": "address",
              "name": "feeToken",
              "type": "address"
            },
            {
              "internalType": "uint256",
              "name": "entryFee",
              "type": "uint256"
            },
            {
              "internalType": "address",
              "name": "prizeToken",
              "type": "address"
            },
            {
              "internalType": "uint256",
              "name": "prizePool",
              "type": "uint256"
            }
          ],
          "internalType": "struct Types.GameData",
          "name": "",
          "type": "tuple"
        }
      ],
      "stateMutability": "view",
      "type": "function"
    },
    {
      "inputs": [
        {
          "internalType": "address",
          "name": "player",
          "type": "address"
        }
      ],
      "name": "getPlayerGameResult",
      "outputs": [
        {
          "components": [
            {
              "internalType": "enum Types.GameType",
              "name": "gameType",
              "type": "uint8"
            },
            {
              "internalType": "address",
              "name": "player",
              "type": "address"
            },
            {
              "internalType": "uint256",
              "name": "score",
              "type": "uint256"
            },
            {
              "internalType": "uint256",
              "name": "timestamp",
              "type": "uint256"
            },
            {
              "internalType": "bytes32",
              "name": "gameHash",
              "type": "bytes32"
            },
            {
              "internalType": "uint256[]",
              "name": "metadata",
              "type": "uint256[]"
            }
          ],
          "internalType": "struct Types.GameResult",
          "name": "",
          "type": "tuple"
        }
      ],
      "stateMutability": "view",
      "type": "function"
    },
    {
      "inputs": [
        {
          "internalType": "address",
          "name": "player",
          "type": "address"
        }
      ],
      "name": "getPlayerScore",
      "outputs": [
        {
          "internalType": "uint256",
          "name": "",
          "type": "uint256"
        }
      ],
      "stateMutability": "view",
      "type": "function"
    },
    {
      "inputs": [
        {
          "internalType": "bytes32",
          "name": "role",
          "type": "bytes32"
        }
      ],
      "name": "getRoleAdmin",
      "outputs": [
        {
          "internalType": "bytes32",
          "name": "",
          "type": "bytes32"
        }
      ],
      "stateMutability": "view",
      "type": "function"
    },
    {
      "inputs": [],
      "name": "getWinners",
      "outputs": [
        {
          "internalType": "address[]",
          "name": "",
          "type": "address[]"
        }
      ],
      "stateMutability": "view",
      "type": "function"
    },
    {
      "inputs": [
        {
          "internalType": "bytes32",
          "name": "role",
          "type": "bytes32"
        },
        {
          "internalType": "address",
          "name": "account",
          "type": "address"
        }
      ],
      "name": "grantRole",
      "outputs": [],
      "stateMutability": "nonpayable",
      "type": "function"
    },
    {
      "inputs": [
        {
          "internalType": "bytes32",
          "name": "role",
          "type": "bytes32"
        },
        {
          "internalType": "address",
          "name": "account",
          "type": "address"
        }
      ],
      "name": "hasRole",
      "outputs": [
        {
          "internalType": "bool",
          "name": "",
          "type": "bool"
        }
      ],
      "stateMutability": "view",
      "type": "function"
    },
    {
      "inputs": [
        {
          "components": [
            {
              "internalType": "string",
              "name": "title",
              "type": "string"
            },
            {
              "internalType": "string",
              "name": "description",
              "type": "string"
            },
            {
              "internalType": "enum Types.GameType",
              "name": "gameType",
              "type": "uint8"
            },
            {
              "internalType": "address",
              "name": "feeTokenAddress",
              "type": "address"
            },
            {
              "internalType": "uint256",
              "name": "entryFee",
              "type": "uint256"
            },
            {
              "internalType": "uint256",
              "name": "minPlayers",
              "type": "uint256"
            },
            {
              "internalType": "uint256",
              "name": "maxPlayers",
              "type": "uint256"
            },
            {
              "internalType": "uint256",
              "name": "registrationEndTime",
              "type": "uint256"
            },
            {
              "internalType": "uint256",
              "name": "gameStartTime",
              "type": "uint256"
            },
            {
              "internalType": "uint256",
              "name": "gameEndTime",
              "type": "uint256"
            },
            {
              "internalType": "address",
              "name": "prizeTokenAddress",
              "type": "address"
            },
            {
              "internalType": "uint256",
              "name": "prizePool",
              "type": "uint256"
            },
            {
              "internalType": "enum Types.PrizeDistributionType",
              "name": "distributionType",
              "type": "uint8"
            },
            {
              "internalType": "uint256[]",
              "name": "rankPrizes",
              "type": "uint256[]"
            }
          ],
          "internalType": "struct Types.GameConfig",
          "name": "config",
          "type": "tuple"
        },
        {
          "internalType": "address",
          "name": "_creator",
          "type": "address"
        },
        {
          "internalType": "address",
          "name": "_levelManager",
          "type": "address"
        },
        {
          "internalType": "address",
          "name": "_gameFactory",
          "type": "address"
        }
      ],
      "name": "initialize",
      "outputs": [],
      "stateMutability": "nonpayable",
      "type": "function"
    },
    {
      "inputs": [
        {
          "internalType": "address",
          "name": "",
          "type": "address"
        }
      ],
      "name": "isJoined",
      "outputs": [
        {
          "internalType": "bool",
          "name": "",
          "type": "bool"
        }
      ],
      "stateMutability": "view",
      "type": "function"
    },
    {
      "inputs": [],
      "name": "joinGame",
      "outputs": [],
      "stateMutability": "nonpayable",
      "type": "function"
    },
    {
      "inputs": [],
      "name": "levelManager",
      "outputs": [
        {
          "internalType": "address",
          "name": "",
          "type": "address"
        }
      ],
      "stateMutability": "view",
      "type": "function"
    },
    {
      "inputs": [],
      "name": "maxPlayers",
      "outputs": [
        {
          "internalType": "uint256",
          "name": "",
          "type": "uint256"
        }
      ],
      "stateMutability": "view",
      "type": "function"
    },
    {
      "inputs": [],
      "name": "minPlayers",
      "outputs": [
        {
          "internalType": "uint256",
          "name": "",
          "type": "uint256"
        }
      ],
      "stateMutability": "view",
      "type": "function"
    },
    {
      "inputs": [
        {
          "internalType": "uint256",
          "name": "",
          "type": "uint256"
        }
      ],
      "name": "players",
      "outputs": [
        {
          "internalType": "address",
          "name": "player",
          "type": "address"
        },
        {
          "internalType": "uint256",
          "name": "score",
          "type": "uint256"
        }
      ],
      "stateMutability": "view",
      "type": "function"
    },
    {
      "inputs": [],
      "name": "prizePool",
      "outputs": [
        {
          "internalType": "uint256",
          "name": "",
          "type": "uint256"
        }
      ],
      "stateMutability": "view",
      "type": "function"
    },
    {
      "inputs": [
        {
          "internalType": "address",
          "name": "",
          "type": "address"
        }
      ],
      "name": "prizeToClaimsAmount",
      "outputs": [
        {
          "internalType": "uint256",
          "name": "",
          "type": "uint256"
        }
      ],
      "stateMutability": "view",
      "type": "function"
    },
    {
      "inputs": [],
      "name": "prizeToken",
      "outputs": [
        {
          "internalType": "address",
          "name": "",
          "type": "address"
        }
      ],
      "stateMutability": "view",
      "type": "function"
    },
    {
      "inputs": [
        {
          "internalType": "uint256",
          "name": "",
          "type": "uint256"
        }
      ],
      "name": "rankPrizes",
      "outputs": [
        {
          "internalType": "uint256",
          "name": "",
          "type": "uint256"
        }
      ],
      "stateMutability": "view",
      "type": "function"
    },
    {
      "inputs": [],
      "name": "registrationEndTime",
      "outputs": [
        {
          "internalType": "uint256",
          "name": "",
          "type": "uint256"
        }
      ],
      "stateMutability": "view",
      "type": "function"
    },
    {
      "inputs": [
        {
          "internalType": "bytes32",
          "name": "role",
          "type": "bytes32"
        },
        {
          "internalType": "address",
          "name": "callerConfirmation",
          "type": "address"
        }
      ],
      "name": "renounceRole",
      "outputs": [],
      "stateMutability": "nonpayable",
      "type": "function"
    },
    {
      "inputs": [
        {
          "internalType": "bytes32",
          "name": "role",
          "type": "bytes32"
        },
        {
          "internalType": "address",
          "name": "account",
          "type": "address"
        }
      ],
      "name": "revokeRole",
      "outputs": [],
      "stateMutability": "nonpayable",
      "type": "function"
    },
    {
      "inputs": [
        {
          "internalType": "address",
          "name": "_gameRegistry",
          "type": "address"
        }
      ],
      "name": "setGameRegistry",
      "outputs": [],
      "stateMutability": "nonpayable",
      "type": "function"
    },
    {
      "inputs": [
        {
          "internalType": "address[]",
          "name": "_winners",
          "type": "address[]"
        }
      ],
      "name": "setWinners",
      "outputs": [],
      "stateMutability": "nonpayable",
      "type": "function"
    },
    {
      "inputs": [],
      "name": "startGame",
      "outputs": [],
      "stateMutability": "nonpayable",
      "type": "function"
    },
    {
      "inputs": [],
      "name": "status",
      "outputs": [
        {
          "internalType": "enum Types.GameStatus",
          "name": "",
          "type": "uint8"
        }
      ],
      "stateMutability": "view",
      "type": "function"
    },
    {
      "inputs": [
        {
          "components": [
            {
              "internalType": "enum Types.GameType",
              "name": "gameType",
              "type": "uint8"
            },
            {
              "internalType": "address",
              "name": "player",
              "type": "address"
            },
            {
              "internalType": "uint256",
              "name": "score",
              "type": "uint256"
            },
            {
              "internalType": "uint256",
              "name": "timestamp",
              "type": "uint256"
            },
            {
              "internalType": "bytes32",
              "name": "gameHash",
              "type": "bytes32"
            },
            {
              "internalType": "uint256[]",
              "name": "metadata",
              "type": "uint256[]"
            }
          ],
          "internalType": "struct Types.GameResult",
          "name": "result",
          "type": "tuple"
        }
      ],
      "name": "submitGameResult",
      "outputs": [],
      "stateMutability": "nonpayable",
      "type": "function"
    },
    {
      "inputs": [
        {
          "internalType": "uint256",
          "name": "score",
          "type": "uint256"
        }
      ],
      "name": "submitScore",
      "outputs": [],
      "stateMutability": "nonpayable",
      "type": "function"
    },
    {
      "inputs": [
        {
          "internalType": "bytes4",
          "name": "interfaceId",
          "type": "bytes4"
        }
      ],
      "name": "supportsInterface",
      "outputs": [
        {
          "internalType": "bool",
          "name": "",
          "type": "bool"
        }
      ],
      "stateMutability": "view",
      "type": "function"
    },
    {
      "inputs": [],
      "name": "title",
      "outputs": [
        {
          "internalType": "string",
          "name": "",
          "type": "string"
        }
      ],
      "stateMutability": "view",
      "type": "function"
    },
    {
      "inputs": [
        {
          "internalType": "uint256",
          "name": "",
          "type": "uint256"
        }
      ],
      "name": "winners",
      "outputs": [
        {
          "internalType": "address",
          "name": "",
          "type": "address"
        }
      ],
      "stateMutability": "view",
      "type": "function"
    }
  ],
  "bytecode": "0x608060405234801561001057600080fd5b50614287806100206000396000f3fe608060405234801561001057600080fd5b50600436106102d65760003560e01c806377b6e50411610182578063bbdc02db116100e9578063da090755116100a2578063dff7d2c71161007c578063dff7d2c714610699578063e085c539146106a2578063e5a078a7146106cb578063f71d96cb146106d357600080fd5b8063da09075514610659578063dd898b2f14610671578063df15c37e1461068457600080fd5b8063bbdc02db14610601578063d0ef024a1461061b578063d4f77b1c1461062e578063d547741f14610636578063d65ab5f214610649578063d84c1ac91461065157600080fd5b8063a217fddf1161013b578063a217fddf14610596578063a2fb11751461059e578063af4e99de146105b1578063aff0b297146105c6578063b062e950146105d9578063b5545a3c146105f957600080fd5b806377b6e504146105265780638233e4331461052e57806384da242d1461054157806385bfd47c1461055b5780638aeda25a1461056e57806391d148541461058357600080fd5b806336568abe11610241578063554c925c116101fa57806370740ac9116101d457806370740ac9146104e657806370824c5c146104ee578063719ce73e146105155780637284e4161461051e57600080fd5b8063554c925c1461049d5780635e6a43f5146104b0578063647846a5146104d357600080fd5b806336568abe146104475780633b2370ac1461045a578063445e6b391461046357806344d9bc5f146104765780634a79d50c1461047f5780634c2412a21461049457600080fd5b80631d75d7c2116102935780631d75d7c214610383578063200d2ed2146103db578063248a9ca3146103f55780632770c895146104185780632a8d950c146104215780632f2ff15d1461043457600080fd5b806301ffc9a7146102db5780630252b9951461030357806302d05d3f1461031a578063072ea61c14610345578063140d6b941461034e57806319ef46cb1461036e575b600080fd5b6102ee6102e93660046134d9565b6106f4565b60405190151581526020015b60405180910390f35b61030c600b5481565b6040519081526020016102fa565b60045461032d906001600160a01b031681565b6040516001600160a01b0390911681526020016102fa565b61030c600e5481565b61036161035c36600461352f565b61072b565b6040516102fa9190613576565b61038161037c366004613792565b61086d565b005b6103ca61039136600461352f565b601a60205260009081526040902080546001820154600283015460039093015460ff8316936101009093046001600160a01b0316929085565b6040516102fa95949392919061390f565b6016546103e89060ff1681565b6040516102fa9190613959565b61030c610403366004613967565b60009081526020819052604090206001015490565b61030c60085481565b60025461032d906001600160a01b031681565b610381610442366004613980565b610cfd565b610381610455366004613980565b610d28565b61030c60125481565b6103816104713660046139b0565b610d60565b61030c600c5481565b610487610eaf565b6040516102fa9190613a6b565b61030c60095481565b6103816104ab366004613a7e565b610f3d565b6102ee6104be36600461352f565b60186020526000908152604090205460ff1681565b600d5461032d906001600160a01b031681565b6103816112b6565b61030c7f797343f8d6a29aafeb3aaf0910a8973e0081c60c2f6c1f775cd9f76ea348fc1e81565b61030c60115481565b6104876113e6565b6103816113f3565b61030c61053c366004613967565b611b65565b60135461054e9060ff1681565b6040516102fa9190613ab9565b60035461032d906001600160a01b031681565b61030c60008051602061423283398151915281565b6102ee610591366004613980565b611b86565b61030c600081565b61032d6105ac366004613967565b611baf565b6105b9611bd9565b6040516102fa9190613ad3565b6103816105d4366004613967565b611dd4565b61030c6105e736600461352f565b60156020526000908152604090205481565b610381611f2f565b60075461060e9060ff1681565b6040516102fa9190613bd9565b60105461032d906001600160a01b031681565b6103816120ae565b610381610644366004613980565b61254d565b610381612572565b610381612987565b60015461032d9061010090046001600160a01b031681565b61038161067f36600461352f565b612cdf565b61068c612d69565b6040516102fa9190613be7565b61030c600a5481565b61030c6106b036600461352f565b6001600160a01b031660009081526019602052604090205490565b610381612dcb565b6106e66106e1366004613967565b6131dd565b6040516102fa929190613c34565b60006001600160e01b03198216637965db0b60e01b148061072557506301ffc9a760e01b6001600160e01b03198316145b92915050565b6107716040805160c08101909152806000815260200160006001600160a01b03168152602001600081526020016000815260200160008019168152602001606081525090565b6001600160a01b0382166000908152601a602052604090819020815160c081019092528054829060ff1660058111156107ac576107ac61354c565b60058111156107bd576107bd61354c565b81526020016000820160019054906101000a90046001600160a01b03166001600160a01b03166001600160a01b031681526020016001820154815260200160028201548152602001600382015481526020016004820180548060200260200160405190810160405280929190818152602001828054801561085d57602002820191906000526020600020905b815481526020019060010190808311610849575b5050505050815250509050919050565b60015460ff16156108bb5760405162461bcd60e51b8152602060048201526013602482015272105b1c9958591e481a5b9a5d1a585b1a5e9959606a1b60448201526064015b60405180910390fd5b6001805460ff191681179055600280546001600160a01b038085166001600160a01b031992831617909255600380549284169290911691909117905560e0840151421061094a5760405162461bcd60e51b815260206004820152601960248201527f52656720656e64206d75737420626520696e206675747572650000000000000060448201526064016108b2565b836101000151846101200151116109a35760405162461bcd60e51b815260206004820152601c60248201527f47616d6520656e64206d7573742062652061667465722073746172740000000060448201526064016108b2565b8360e00151846101200151116109fb5760405162461bcd60e51b815260206004820152601f60248201527f52656720656e64206d757374206265206265666f72652067616d6520656e640060448201526064016108b2565b8360a001518460c001511015610a485760405162461bcd60e51b815260206004820152601260248201527126b0bc1036bab9ba103132901f1e9026b4b760711b60448201526064016108b2565b600480546001600160a01b0319166001600160a01b0385161790558351600590610a729082613cdc565b506020840151600690610a859082613cdc565b506016805460ff1990811690915560408501516007805491929091166001836005811115610ab557610ab561354c565b02179055506060840151600d80546001600160a01b039283166001600160a01b0319918216179091556080860151600e5560a086015160085560c086015160095560e0860151600a55610100860151600b55610120860151600c556101408601516010805491909316911617905561016084015160118190556012556101808401516013805460ff19166001836002811115610b5357610b5361354c565b02179055506101a08401518051610b7291601491602090910190613392565b5060028461018001516002811115610b8c57610b8c61354c565b03610c7f576101a084015151601454610be75760405162461bcd60e51b815260206004820152601f60248201527f437573746f6d2072616e6b20636f6e66696720666f726d6174206572726f720060448201526064016108b2565b6000805b82811015610c305760148181548110610c0657610c06613da0565b906000526020600020015482610c1c9190613dcc565b9150610c29600182613dcc565b9050610beb565b50612710811115610c7c5760405162461bcd60e51b81526020600482015260166024820152755072697a65204250532065786365656473203130302560501b60448201526064016108b2565b50505b610c8a600084613215565b50610ca360008051602061423283398151915284613215565b50610cbd60008051602061423283398151915260006132a7565b7fc66e6cd41f805f65978f5241034e8d106c42cf3c7a4d62ccd857646b401cbe4a836005604051610cef929190613ddf565b60405180910390a150505050565b600082815260208190526040902060010154610d18816132f2565b610d228383613215565b50505050565b6001600160a01b0381163314610d515760405163334bd91960e11b815260040160405180910390fd5b610d5b82826132fc565b505050565b600080516020614232833981519152610d78816132f2565b600160165460ff166004811115610d9157610d9161354c565b14610dae5760405162461bcd60e51b81526004016108b290613e7f565b60005b82811015610e555760186000858584818110610dcf57610dcf613da0565b9050602002016020810190610de4919061352f565b6001600160a01b0316815260208101919091526040016000205460ff16610e4d5760405162461bcd60e51b815260206004820152601860248201527f54686572652069732077696e6e6572206e6f74206a6f696e000000000000000060448201526064016108b2565b600101610db1565b50610e62601b84846133dd565b506016805460ff191660021790556040517f8451dabc49a0b82cffb0a79a6771fe2718264aae54a4eff4d4463748813ec56f90610ea29085908590613ea9565b60405180910390a1505050565b60058054610ebc90613c4d565b80601f0160208091040260200160405190810160405280929190818152602001828054610ee890613c4d565b8015610f355780601f10610f0a57610100808354040283529160200191610f35565b820191906000526020600020905b815481529060010190602001808311610f1857829003601f168201915b505050505081565b600160165460ff166004811115610f5657610f5661354c565b14610f735760405162461bcd60e51b81526004016108b290613e7f565b600b54421015610fc05760405162461bcd60e51b815260206004820152601860248201527711d85b59481a185cc81b9bdd081cdd185c9d1959081e595d60421b60448201526064016108b2565b600c544211156110035760405162461bcd60e51b815260206004820152600e60248201526d11d85b59481a185cc8195b99195960921b60448201526064016108b2565b3360009081526018602052604090205460ff166110565760405162461bcd60e51b8152602060048201526011602482015270141b185e595c881b9bdd081a9bda5b9959607a1b60448201526064016108b2565b60075460ff16600581111561106d5761106d61354c565b61107a6020830183613eec565b600581111561108b5761108b61354c565b146110cd5760405162461bcd60e51b815260206004820152601260248201527108ec2daca40e8f2e0ca40dad2e6dac2e8c6d60731b60448201526064016108b2565b336110de604083016020840161352f565b6001600160a01b0316146111345760405162461bcd60e51b815260206004820152601760248201527f506c617965722061646472657373206d69736d6174636800000000000000000060448201526064016108b2565b60015461010090046001600160a01b03166111885760405162461bcd60e51b815260206004820152601460248201527311d85b59549959da5cdd1c9e481b9bdd081cd95d60621b60448201526064016108b2565b6001546040516335c34ae960e01b81526101009091046001600160a01b03169060009082906335c34ae9906111c1908690600401613f3b565b6020604051808303816000875af11580156111e0573d6000803e3d6000fd5b505050506040513d601f19601f820116820180604052508101906112049190613ff8565b9050806112535760405162461bcd60e51b815260206004820152601f60248201527f47616d6520726573756c7420766572696669636174696f6e206661696c65640060448201526064016108b2565b336000908152601960209081526040808320818701359055601a9091529020839061127e828261410b565b9050507fa578df9b0453d14d7ed8615ee0e9d58f70e041e91fc5865e3b71f81ea05296c0338460400135604051610ea2929190613c34565b33600090815260156020526040902054806113075760405162461bcd60e51b81526020600482015260116024820152704e6f207072697a6520746f20636c61696d60781b60448201526064016108b2565b3360008181526015602052604080822091909155601054905163a9059cbb60e01b81526001600160a01b039091169163a9059cbb9161134b91908590600401613c34565b6020604051808303816000875af115801561136a573d6000803e3d6000fd5b505050506040513d601f19601f8201168201806040525081019061138e9190613ff8565b6113aa5760405162461bcd60e51b81526004016108b2906141a1565b7fb8e091d87f82e56d22276c9a0088ea5d6068e355383dc08b2721b7b6cb10e84533826040516113db929190613c34565b60405180910390a150565b60068054610ebc90613c4d565b60008051602061423283398151915261140b816132f2565b600260165460ff1660048111156114245761142461354c565b146114625760405162461bcd60e51b815260206004820152600e60248201526d11d85b59481b9bdd08195b99195960921b60448201526064016108b2565b601b546114a25760405162461bcd60e51b815260206004820152600e60248201526d139bc81dda5b9b995c9cc81cd95d60921b60448201526064016108b2565b6000601154116114ea5760405162461bcd60e51b81526020600482015260136024820152725072697a6520706f6f6c20697320656d70747960681b60448201526064016108b2565b6011805460009182905560025490916001600160a01b039091169060135460ff16600281111561151c5761151c61354c565b03611620578160156000601b60008154811061153a5761153a613da0565b60009182526020808320909101546001600160a01b031683528201929092526040018120805490919061156e908490613dcc565b90915550506002546001600160a01b03161561161b57806001600160a01b0316635fe352ce601b6000815481106115a7576115a7613da0565b6000918252602090912001546040516001600160e01b031960e084901b1681526115e8916001600160a01b0316906801158e460913d0000090600401613c34565b600060405180830381600087803b15801561160257600080fd5b505af1158015611616573d6000803e3d6000fd5b505050505b611b53565b600160135460ff1660028111156116395761163961354c565b0361178a57601754600061164d82856141e0565b9050600061165b83866141f4565b905060005b838110156116cc57600083905080601560006017858154811061168557611685613da0565b600091825260208083206002909202909101546001600160a01b03168352820192909252604001812080549091906116be908490613dcc565b909155505050600101611660565b506010546004805460405163a9059cbb60e01b81526001600160a01b039384169363a9059cbb936117039390911691869101613c34565b6020604051808303816000875af1158015611722573d6000803e3d6000fd5b505050506040513d601f19601f820116820180604052508101906117469190613ff8565b6117825760405162461bcd60e51b815260206004820152600d60248201526c1499599d5b990819985a5b1959609a1b60448201526064016108b2565b505050611b53565b600260135460ff1660028111156117a3576117a361354c565b03611b5357601454601b5411156118125760405162461bcd60e51b815260206004820152602d60248201527f57696e6e657273206c69737420657863656564732072616e6b207072697a652060448201526c31b7b73334b3bab930ba34b7b760991b60648201526084016108b2565b6000805b601b548110156118a75760006014828154811061183557611835613da0565b90600052602060002001549050600081116118925760405162461bcd60e51b815260206004820152601d60248201527f4d697373696e67207072697a6520636f6e66696720666f722072616e6b00000060448201526064016108b2565b61189c8184613dcc565b925050600101611816565b506127108111156118f35760405162461bcd60e51b81526020600482015260166024820152755072697a65204250532065786365656473203130302560501b60448201526064016108b2565b60005b601b54811015611b505760006014828154811061191557611915613da0565b6000918252602082200154915061271061192f838861406b565b61193991906141e0565b90508060156000601b868154811061195357611953613da0565b60009182526020808320909101546001600160a01b0316835282019290925260400181208054909190611987908490613dcc565b90915550506002546001600160a01b031615611b465782600003611a3f57846001600160a01b0316635fe352ce601b85815481106119c7576119c7613da0565b6000918252602090912001546040516001600160e01b031960e084901b168152611a08916001600160a01b0316906801158e460913d0000090600401613c34565b600060405180830381600087803b158015611a2257600080fd5b505af1158015611a36573d6000803e3d6000fd5b50505050611b46565b82600103611aa957846001600160a01b0316635fe352ce601b8581548110611a6957611a69613da0565b6000918252602090912001546040516001600160e01b031960e084901b168152611a08916001600160a01b031690678ac7230489e8000090600401613c34565b82600203611b4657846001600160a01b0316635fe352ce601b8581548110611ad357611ad3613da0565b6000918252602090912001546040516001600160e01b031960e084901b168152611b13916001600160a01b031690674563918244f4000090600401613c34565b600060405180830381600087803b158015611b2d57600080fd5b505af1158015611b41573d6000803e3d6000fd5b505050505b50506001016118f6565b50505b50506016805460ff1916600317905550565b60148181548110611b7557600080fd5b600091825260209091200154905081565b6000918252602082815260408084206001600160a01b0393909316845291905290205460ff1690565b601b8181548110611bbf57600080fd5b6000918252602090912001546001600160a01b0316905081565b611be1613430565b611be9613430565b6004546001600160a01b0316815260058054611c0490613c4d565b80601f0160208091040260200160405190810160405280929190818152602001828054611c3090613c4d565b8015611c7d5780601f10611c5257610100808354040283529160200191611c7d565b820191906000526020600020905b815481529060010190602001808311611c6057829003601f168201915b5050505050816020018190525060068054611c9790613c4d565b80601f0160208091040260200160405190810160405280929190818152602001828054611cc390613c4d565b8015611d105780601f10611ce557610100808354040283529160200191611d10565b820191906000526020600020905b815481529060010190602001808311611cf357829003601f168201915b50505050506040820152601654606082019060ff166004811115611d3657611d3661354c565b90816004811115611d4957611d4961354c565b905250600754608082019060ff166005811115611d6857611d6861354c565b90816005811115611d7b57611d7b61354c565b90525060095460a082015260175460c0820152600a5460e0820152600b54610100820152600e54610140820152600d546001600160a01b0390811661012083015260115461018083015260105416610160820152919050565b600160165460ff166004811115611ded57611ded61354c565b14611e0a5760405162461bcd60e51b81526004016108b290613e7f565b600b54421015611e575760405162461bcd60e51b815260206004820152601860248201527711d85b59481a185cc81b9bdd081cdd185c9d1959081e595d60421b60448201526064016108b2565b600c54421115611e9a5760405162461bcd60e51b815260206004820152600e60248201526d11d85b59481a185cc8195b99195960921b60448201526064016108b2565b3360009081526018602052604090205460ff16611eed5760405162461bcd60e51b8152602060048201526011602482015270141b185e595c881b9bdd081a9bda5b9959607a1b60448201526064016108b2565b3360008181526019602052604090819020839055517fa578df9b0453d14d7ed8615ee0e9d58f70e041e91fc5865e3b71f81ea05296c0916113db918490613c34565b600460165460ff166004811115611f4857611f4861354c565b14611f895760405162461bcd60e51b815260206004820152601160248201527011d85b59481b9bdd0818d85b98d95b1959607a1b60448201526064016108b2565b336000908152600f602052604090205480611fda5760405162461bcd60e51b81526020600482015260116024820152704e6f207072697a6520746f20636c61696d60781b60448201526064016108b2565b336000818152600f602052604080822091909155600d54905163a9059cbb60e01b81526001600160a01b039091169163a9059cbb9161201e91908590600401613c34565b6020604051808303816000875af115801561203d573d6000803e3d6000fd5b505050506040513d601f19601f820116820180604052508101906120619190613ff8565b61207d5760405162461bcd60e51b81526004016108b2906141a1565b7feb4706597fb7a2e8806c0e31ad4c334330a97bc3cae6b9c360e152c922bb40c833826040516113db929190613c34565b600060165460ff1660048111156120c7576120c761354c565b146121145760405162461bcd60e51b815260206004820152601a60248201527f47616d65206e6f7420616363657074696e6720706c617965727300000000000060448201526064016108b2565b600a5442106121655760405162461bcd60e51b815260206004820152601860248201527f526567697374726174696f6e2074696d6520706173736564000000000000000060448201526064016108b2565b600954601754106121ae5760405162461bcd60e51b815260206004820152601360248201527213585e081c1b185e595c9cc81c995858da1959606a1b60448201526064016108b2565b3360009081526018602052604090205460ff16156121ff5760405162461bcd60e51b815260206004820152600e60248201526d105b1c9958591e481a9bda5b995960921b60448201526064016108b2565b600e54156123ec57600d54600e546040516323b872dd60e01b815233600482015230602482015260448101919091526001600160a01b03909116906323b872dd906064016020604051808303816000875af1158015612262573d6000803e3d6000fd5b505050506040513d601f19601f820116820180604052508101906122869190613ff8565b6122a25760405162461bcd60e51b81526004016108b2906141a1565b6000612710600e546103e86122b7919061406b565b6122c191906141e0565b9050600081600e546122d39190614208565b90506000821180156122ef57506003546001600160a01b031615155b156123b957600d5460035460405163a9059cbb60e01b81526001600160a01b039283169263a9059cbb9261232a929116908690600401613c34565b6020604051808303816000875af1158015612349573d6000803e3d6000fd5b505050506040513d601f19601f8201168201806040525081019061236d9190613ff8565b6123b95760405162461bcd60e51b815260206004820152601c60248201527f506c6174666f726d20666565207472616e73666572206661696c65640000000060448201526064016108b2565b601054600d546001600160a01b039182169116036123e95780601160008282546123e39190613dcc565b90915550505b50505b6040805180820182523380825260006020808401828152601780546001808201835591855295517fc624b66cc0138b8fabc209247f72d758e1cf3343756d543badbf24212bed8c15600297880290810180546001600160a01b0319166001600160a01b0393841617905592517fc624b66cc0138b8fabc209247f72d758e1cf3343756d543badbf24212bed8c1690930192909255600e54948452600f8352868420949094556018909152939020805460ff1916909117905554161561251857600254604051632ff1a96760e11b81526001600160a01b0390911690635fe352ce906124e59033906729a2241af62c000090600401613c34565b600060405180830381600087803b1580156124ff57600080fd5b505af1158015612513573d6000803e3d6000fd5b505050505b6040513381527f31e760aa525306aba638a784082a013b6a1cc0a9a1789f3f22281c0453b10b1f9060200160405180910390a1565b600082815260208190526040902060010154612568816132f2565b610d2283836132fc565b60008051602061423283398151915261258a816132f2565b600060165460ff1660048111156125a3576125a361354c565b146125f05760405162461bcd60e51b815260206004820152601a60248201527f47616d65206e6f7420696e20437265617465642073746174757300000000000060448201526064016108b2565b600b5442101561263a5760405162461bcd60e51b815260206004820152601560248201527411d85b594818d85b9b9bdd081cdd185c9d081e595d605a1b60448201526064016108b2565b600854601754101561294d576016805460ff1916600417905560125415612777576010546004805460125460405163a9059cbb60e01b81526001600160a01b039485169463a9059cbb9461269394909116929101613c34565b6020604051808303816000875af11580156126b2573d6000803e3d6000fd5b505050506040513d601f19601f820116820180604052508101906126d69190613ff8565b6127185760405162461bcd60e51b8152602060048201526013602482015272141c9a5e99481c99599d5b990819985a5b1959606a1b60448201526064016108b2565b6012546011600082825461272c9190614208565b90915550506004546012546040519081526001600160a01b03909116907fcabd9ffa4ff52290e56c52a9ed671760a0e5951eaa234fd9e0ccccf507bf98ca9060200160405180910390a25b60005b6017548110156129495760006017828154811061279957612799613da0565b600091825260208083206002909202909101546001600160a01b0316808352600f909152604090912054909150801561293f576001600160a01b0382166000908152600f602052604081208190556127106127f68361232861406b565b61280091906141e0565b9050801561293d57600d5460405163a9059cbb60e01b81526001600160a01b039091169063a9059cbb9061283a9086908590600401613c34565b6020604051808303816000875af1158015612859573d6000803e3d6000fd5b505050506040513d601f19601f8201168201806040525081019061287d9190613ff8565b6128c95760405162461bcd60e51b815260206004820152601760248201527f456e7472792066656520726566756e64206661696c656400000000000000000060448201526064016108b2565b601054600d546001600160a01b039182169116036128f95780601160008282546128f39190614208565b90915550505b826001600160a01b03167fbddaec5e3db6d33ac9b0043f3c92cf3d081b19f8646f372eb3a68a51e273a1048260405161293491815260200190565b60405180910390a25b505b505060010161277a565b5050565b6016805460ff191660011790556040517f762f260439bb4be3ef6e4dc2786e2e7bd187d3d80b79057d7a424fe98563e33590600090a15b50565b60008051602061423283398151915261299f816132f2565b600060165460ff1660048111156129b8576129b861354c565b14806129da5750600160165460ff1660048111156129d8576129d861354c565b145b612a395760405162461bcd60e51b815260206004820152602a60248201527f43616e6e6f742063616e63656c20616e20656e646564206f722064697374726960448201526962757465642067616d6560b01b60648201526084016108b2565b6011805460009091556016805460ff191660041790558015612b53576010546004805460405163a9059cbb60e01b81526001600160a01b039384169363a9059cbb93612a8b9390911691869101613c34565b6020604051808303816000875af1158015612aaa573d6000803e3d6000fd5b505050506040513d601f19601f82011682018060405250810190612ace9190613ff8565b612b105760405162461bcd60e51b8152602060048201526013602482015272141c9a5e99481c99599d5b990819985a5b1959606a1b60448201526064016108b2565b6004546040518281526001600160a01b03909116907fcabd9ffa4ff52290e56c52a9ed671760a0e5951eaa234fd9e0ccccf507bf98ca9060200160405180910390a25b60005b601754811015610d5b57600060178281548110612b7557612b75613da0565b600091825260208083206002909202909101546001600160a01b0316808352600f9091526040909120549091508015612cd5576001600160a01b0382166000908152600f60205260408120819055612710612bd28361232861406b565b612bdc91906141e0565b90508015612cd357600d5460405163a9059cbb60e01b81526001600160a01b039091169063a9059cbb90612c169086908590600401613c34565b6020604051808303816000875af1158015612c35573d6000803e3d6000fd5b505050506040513d601f19601f82011682018060405250810190612c599190613ff8565b612c995760405162461bcd60e51b8152602060048201526011602482015270119959481c99599d5b990819985a5b1959607a1b60448201526064016108b2565b7feb4706597fb7a2e8806c0e31ad4c334330a97bc3cae6b9c360e152c922bb40c88382604051612cca929190613c34565b60405180910390a15b505b5050600101612b56565b6000612cea816132f2565b6001600160a01b038216612d405760405162461bcd60e51b815260206004820152601d60248201527f496e76616c69642067616d65207265676973747279206164647265737300000060448201526064016108b2565b50600180546001600160a01b0390921661010002610100600160a81b0319909216919091179055565b6060601b805480602002602001604051908101604052809291908181526020018280548015612dc157602002820191906000526020600020905b81546001600160a01b03168152600190910190602001808311612da3575b5050505050905090565b600a5433904210612e1e5760405162461bcd60e51b815260206004820152601960248201527f526567697374726174696f6e2074696d65206973206f7665720000000000000060448201526064016108b2565b600060165460ff166004811115612e3757612e3761354c565b14612e845760405162461bcd60e51b815260206004820181905260248201527f47616d6520697320616c7265616479206f6e676f696e67206f7220656e64656460448201526064016108b2565b6001600160a01b0381166000908152600f602052604090205480612f005760405162461bcd60e51b815260206004820152602d60248201527f506c6179657220686173206e6f74206a6f696e6564206f722066656520616c7260448201526c1958591e481c99599d5b991959609a1b60648201526084016108b2565b600080805b601754811015612f5f57846001600160a01b031660178281548110612f2c57612f2c613da0565b60009182526020909120600290910201546001600160a01b031603612f575780925060019150612f5f565b600101612f05565b5080612fbe5760405162461bcd60e51b815260206004820152602860248201527f496e7465726e616c206572726f723a20506c61796572206e6f7420666f756e64604482015267081a5b881b1a5cdd60c21b60648201526084016108b2565b601754600090612fd090600190614208565b90508083146130465760178181548110612fec57612fec613da0565b90600052602060002090600202016017848154811061300d5761300d613da0565b60009182526020909120825460029092020180546001600160a01b0319166001600160a01b039092169190911781556001918201549101555b60178054806130575761305761421b565b6000828152602080822060026000199094019384020180546001600160a01b0319168155600101829055919092556001600160a01b0387168252600f905260408120819055601180548692906130ae908490614208565b90915550506001600160a01b038086166000908152601860209081526040808320805460ff19169055601990915280822091909155600d54905163a9059cbb60e01b815291169063a9059cbb9061310b9088908890600401613c34565b6020604051808303816000875af115801561312a573d6000803e3d6000fd5b505050506040513d601f19601f8201168201806040525081019061314e9190613ff8565b6131935760405162461bcd60e51b81526020600482015260166024820152751499599d5b99081d1c985b9cd9995c8819985a5b195960521b60448201526064016108b2565b846001600160a01b03167fbddaec5e3db6d33ac9b0043f3c92cf3d081b19f8646f372eb3a68a51e273a104856040516131ce91815260200190565b60405180910390a25050505050565b601781815481106131ed57600080fd5b6000918252602090912060029091020180546001909101546001600160a01b03909116915082565b60006132218383611b86565b61329f576000838152602081815260408083206001600160a01b03861684529091529020805460ff191660011790556132573390565b6001600160a01b0316826001600160a01b0316847f2f8788117e7eff1d82e926ec794901d17c78024a50270940304540a733656f0d60405160405180910390a4506001610725565b506000610725565b600082815260208190526040808220600101805490849055905190918391839186917fbd79b86ffe0ab8e8776151514217cd7cacd52c909f66475c3af44e129f0b00ff9190a4505050565b6129848133613367565b60006133088383611b86565b1561329f576000838152602081815260408083206001600160a01b0386168085529252808320805460ff1916905551339286917ff6391f5c32d9c69d2a47ea670b442974b53935d1edc7fd64eb21e047a839171b9190a4506001610725565b6133718282611b86565b61294957808260405163e2517d3f60e01b81526004016108b2929190613c34565b8280548282559060005260206000209081019282156133cd579160200282015b828111156133cd5782518255916020019190600101906133b2565b506133d99291506134c4565b5090565b8280548282559060005260206000209081019282156133cd579160200282015b828111156133cd5781546001600160a01b0319166001600160a01b038435161782556020909201916001909101906133fd565b604051806101a0016040528060006001600160a01b0316815260200160608152602001606081526020016000600481111561346d5761346d61354c565b8152602001600081526020016000815260200160008152602001600081526020016000815260200160006001600160a01b031681526020016000815260200160006001600160a01b03168152602001600081525090565b5b808211156133d957600081556001016134c5565b6000602082840312156134eb57600080fd5b81356001600160e01b03198116811461350357600080fd5b9392505050565b6001600160a01b038116811461298457600080fd5b803561352a8161350a565b919050565b60006020828403121561354157600080fd5b81356135038161350a565b634e487b7160e01b600052602160045260246000fd5b600681106135725761357261354c565b9052565b6000602080835260e0830161358e8285018651613562565b60018060a01b03828601511660408501526040850151606085015260608501516080850152608085015160a085015260a085015160c080860152818151808452610100870191508483019350600092505b808310156135ff57835182529284019260019290920191908401906135df565b509695505050505050565b634e487b7160e01b600052604160045260246000fd5b6040516101c0810167ffffffffffffffff811182821017156136445761364461360a565b60405290565b604051601f8201601f1916810167ffffffffffffffff811182821017156136735761367361360a565b604052919050565b600082601f83011261368c57600080fd5b813567ffffffffffffffff8111156136a6576136a661360a565b6136b9601f8201601f191660200161364a565b8181528460208386010111156136ce57600080fd5b816020850160208301376000918101602001919091529392505050565b6006811061298457600080fd5b803561352a816136eb565b80356003811061352a57600080fd5b600082601f83011261372357600080fd5b8135602067ffffffffffffffff82111561373f5761373f61360a565b8160051b61374e82820161364a565b928352848101820192828101908785111561376857600080fd5b83870192505b848310156137875782358252918301919083019061376e565b979650505050505050565b600080600080608085870312156137a857600080fd5b843567ffffffffffffffff808211156137c057600080fd5b908601906101c082890312156137d557600080fd5b6137dd613620565b8235828111156137ec57600080fd5b6137f88a82860161367b565b82525060208301358281111561380d57600080fd5b6138198a82860161367b565b60208301525061382b604084016136f8565b604082015261383c6060840161351f565b60608201526080830135608082015260a083013560a082015260c083013560c082015260e083013560e082015261010080840135818301525061012080840135818301525061014061388f81850161351f565b9082015261016083810135908201526101806138ac818501613703565b908201526101a083810135838111156138c457600080fd5b6138d08b828701613712565b8284015250508096505050506138e86020860161351f565b92506138f66040860161351f565b91506139046060860161351f565b905092959194509250565b60a0810161391d8288613562565b6001600160a01b0395909516602082015260408101939093526060830191909152608090910152919050565b600581106135725761357261354c565b602081016107258284613949565b60006020828403121561397957600080fd5b5035919050565b6000806040838503121561399357600080fd5b8235915060208301356139a58161350a565b809150509250929050565b600080602083850312156139c357600080fd5b823567ffffffffffffffff808211156139db57600080fd5b818501915085601f8301126139ef57600080fd5b8135818111156139fe57600080fd5b8660208260051b8501011115613a1357600080fd5b60209290920196919550909350505050565b6000815180845260005b81811015613a4b57602081850181015186830182015201613a2f565b506000602082860101526020601f19601f83011685010191505092915050565b6020815260006135036020830184613a25565b600060208284031215613a9057600080fd5b813567ffffffffffffffff811115613aa757600080fd5b820160c0818503121561350357600080fd5b6020810160038310613acd57613acd61354c565b91905290565b60208152613aed6020820183516001600160a01b03169052565b600060208301516101a0806040850152613b0b6101c0850183613a25565b91506040850151601f19858403016060860152613b288382613a25565b9250506060850151613b3d6080860182613949565b506080850151613b5060a0860182613562565b5060a085015160c085015260c085015160e085015260e0850151610100818187015280870151915050610120818187015280870151915050610140613b9f818701836001600160a01b03169052565b860151610160868101919091528601519050610180613bc8818701836001600160a01b03169052565b959095015193019290925250919050565b602081016107258284613562565b6020808252825182820181905260009190848201906040850190845b81811015613c285783516001600160a01b031683529284019291840191600101613c03565b50909695505050505050565b6001600160a01b03929092168252602082015260400190565b600181811c90821680613c6157607f821691505b602082108103613c8157634e487b7160e01b600052602260045260246000fd5b50919050565b5b818110156129495760008155600101613c88565b601f821115610d5b57806000526020600020601f840160051c81016020851015613cc35750805b613cd5601f850160051c830182613c87565b5050505050565b815167ffffffffffffffff811115613cf657613cf661360a565b613d0a81613d048454613c4d565b84613c9c565b602080601f831160018114613d3f5760008415613d275750858301515b600019600386901b1c1916600185901b178555613d98565b600085815260208120601f198616915b82811015613d6e57888601518255948401946001909101908401613d4f565b5085821015613d8c5787850151600019600388901b60f8161c191681555b505060018460011b0185555b505050505050565b634e487b7160e01b600052603260045260246000fd5b634e487b7160e01b600052601160045260246000fd5b8082018082111561072557610725613db6565b60018060a01b0383168152600060206040602084015260008454613e0281613c4d565b8060408701526060600180841660008114613e245760018114613e4057613e70565b60ff19851660608a0152606084151560051b8a01019550613e70565b89600052602060002060005b85811015613e675781548b8201860152908301908801613e4c565b8a016060019650505b50939998505050505050505050565b60208082526010908201526f47616d65206e6f74206f6e676f696e6760801b604082015260600190565b60208082528181018390526000908460408401835b868110156135ff578235613ed18161350a565b6001600160a01b031682529183019190830190600101613ebe565b600060208284031215613efe57600080fd5b8135613503816136eb565b81835260006001600160fb1b03831115613f2257600080fd5b8260051b80836020870137939093016020019392505050565b6020815260008235613f4c816136eb565b613f596020840182613562565b506020830135613f688161350a565b60018060a01b0381166040840152506040830135606083015260608301356080830152608083013560a083015260a0830135601e19843603018112613fac57600080fd5b830160208101903567ffffffffffffffff811115613fc957600080fd5b8060051b3603821315613fdb57600080fd5b60c080850152613fef60e085018284613f09565b95945050505050565b60006020828403121561400a57600080fd5b8151801515811461350357600080fd5b6000808335601e1984360301811261403157600080fd5b83018035915067ffffffffffffffff82111561404c57600080fd5b6020019150600581901b360382131561406457600080fd5b9250929050565b808202811582820484141761072557610725613db6565b67ffffffffffffffff83111561409a5761409a61360a565b680100000000000000008311156140b3576140b361360a565b8054838255808410156140d9578160005260206000206140d7828201868301613c87565b505b50818160005260208060002060005b8681101561410257833582820155928201926001016140e8565b50505050505050565b8135614116816136eb565b600681106141265761412661354c565b815460ff821691508160ff19821617835560208401356141458161350a565b6001600160a81b03199190911690911760089190911b610100600160a81b031617815560408201356001820155606082013560028201556080820135600382015561419360a083018361401a565b610d22818360048601614082565b6020808252600f908201526e151c985b9cd9995c8819985a5b1959608a1b604082015260600190565b634e487b7160e01b600052601260045260246000fd5b6000826141ef576141ef6141ca565b500490565b600082614203576142036141ca565b500690565b8181038181111561072557610725613db6565b634e487b7160e01b600052603160045260246000fdfe828634d95e775031b9ff576b159a8509d3053581a8c9c4d7d86899e0afcd882fa2646970667358221220b241f102f8f4b9ad6857641e4b67da433d1071c45be50187e19693834918181464736f6c63430008180033",
  "linkReferences": {},
  "deployedLinkReferences": {}
}