{
  "_format": "hh-sol-artifact-1",
  "contractName": "GameInstance",
  "sourceName": "contracts/GameInstance.sol",
  "abi": [
    {
      "inputs": [],
      "name": "AccessControlBadConfirmation",
      "type": "error"
    },
    {
      "inputs": [
        {
          "internalType": "address",
          "name": "account",
          "type": "address"
        },
        {
          "internalType": "bytes32",
          "name": "neededRole",
          "type": "bytes32"
        }
      ],
      "name": "AccessControlUnauthorizedAccount",
      "type": "error"
    },
    {
      "anonymous": false,
      "inputs": [
        {
          "indexed": false,
          "internalType": "address",
          "name": "player",
          "type": "address"
        },
        {
          "indexed": false,
          "internalType": "uint256",
          "name": "amount",
          "type": "uint256"
        }
      ],
      "name": "FeeRefund",
      "type": "event"
    },
    {
      "anonymous": false,
      "inputs": [
        {
          "indexed": true,
          "internalType": "address",
          "name": "creator",
          "type": "address"
        },
        {
          "indexed": false,
          "internalType": "uint256",
          "name": "refundAmount",
          "type": "uint256"
        }
      ],
      "name": "GameCanceled",
      "type": "event"
    },
    {
      "anonymous": false,
      "inputs": [],
      "name": "GameStarted",
      "type": "event"
    },
    {
      "anonymous": false,
      "inputs": [
        {
          "indexed": false,
          "internalType": "address",
          "name": "creator",
          "type": "address"
        },
        {
          "indexed": false,
          "internalType": "string",
          "name": "title",
          "type": "string"
        }
      ],
      "name": "Initialized",
      "type": "event"
    },
    {
      "anonymous": false,
      "inputs": [
        {
          "indexed": false,
          "internalType": "address",
          "name": "player",
          "type": "address"
        }
      ],
      "name": "PlayerJoined",
      "type": "event"
    },
    {
      "anonymous": false,
      "inputs": [
        {
          "indexed": true,
          "internalType": "address",
          "name": "player",
          "type": "address"
        },
        {
          "indexed": false,
          "internalType": "uint256",
          "name": "feeRefunded",
          "type": "uint256"
        }
      ],
      "name": "PlayerUnregistered",
      "type": "event"
    },
    {
      "anonymous": false,
      "inputs": [
        {
          "indexed": false,
          "internalType": "address",
          "name": "winner",
          "type": "address"
        },
        {
          "indexed": false,
          "internalType": "uint256",
          "name": "amount",
          "type": "uint256"
        }
      ],
      "name": "PrizeDistributed",
      "type": "event"
    },
    {
      "anonymous": false,
      "inputs": [
        {
          "indexed": true,
          "internalType": "bytes32",
          "name": "role",
          "type": "bytes32"
        },
        {
          "indexed": true,
          "internalType": "bytes32",
          "name": "previousAdminRole",
          "type": "bytes32"
        },
        {
          "indexed": true,
          "internalType": "bytes32",
          "name": "newAdminRole",
          "type": "bytes32"
        }
      ],
      "name": "RoleAdminChanged",
      "type": "event"
    },
    {
      "anonymous": false,
      "inputs": [
        {
          "indexed": true,
          "internalType": "bytes32",
          "name": "role",
          "type": "bytes32"
        },
        {
          "indexed": true,
          "internalType": "address",
          "name": "account",
          "type": "address"
        },
        {
          "indexed": true,
          "internalType": "address",
          "name": "sender",
          "type": "address"
        }
      ],
      "name": "RoleGranted",
      "type": "event"
    },
    {
      "anonymous": false,
      "inputs": [
        {
          "indexed": true,
          "internalType": "bytes32",
          "name": "role",
          "type": "bytes32"
        },
        {
          "indexed": true,
          "internalType": "address",
          "name": "account",
          "type": "address"
        },
        {
          "indexed": true,
          "internalType": "address",
          "name": "sender",
          "type": "address"
        }
      ],
      "name": "RoleRevoked",
      "type": "event"
    },
    {
      "anonymous": false,
      "inputs": [
        {
          "indexed": false,
          "internalType": "address",
          "name": "player",
          "type": "address"
        },
        {
          "indexed": false,
          "internalType": "uint256",
          "name": "score",
          "type": "uint256"
        }
      ],
      "name": "ScoreSubmitted",
      "type": "event"
    },
    {
      "anonymous": false,
      "inputs": [
        {
          "indexed": false,
          "internalType": "address[]",
          "name": "winner",
          "type": "address[]"
        }
      ],
      "name": "WinnersSet",
      "type": "event"
    },
    {
      "inputs": [],
      "name": "CREATOR_ROLE",
      "outputs": [
        {
          "internalType": "bytes32",
          "name": "",
          "type": "bytes32"
        }
      ],
      "stateMutability": "view",
      "type": "function"
    },
    {
      "inputs": [],
      "name": "DEFAULT_ADMIN_ROLE",
      "outputs": [
        {
          "internalType": "bytes32",
          "name": "",
          "type": "bytes32"
        }
      ],
      "stateMutability": "view",
      "type": "function"
    },
    {
      "inputs": [],
      "name": "PLATFORM_ROLE",
      "outputs": [
        {
          "internalType": "bytes32",
          "name": "",
          "type": "bytes32"
        }
      ],
      "stateMutability": "view",
      "type": "function"
    },
    {
      "inputs": [],
      "name": "cancelGame",
      "outputs": [],
      "stateMutability": "nonpayable",
      "type": "function"
    },
    {
      "inputs": [],
      "name": "cancelRegistration",
      "outputs": [],
      "stateMutability": "nonpayable",
      "type": "function"
    },
    {
      "inputs": [],
      "name": "claimPrize",
      "outputs": [],
      "stateMutability": "nonpayable",
      "type": "function"
    },
    {
      "inputs": [],
      "name": "claimRefund",
      "outputs": [],
      "stateMutability": "nonpayable",
      "type": "function"
    },
    {
      "inputs": [],
      "name": "creator",
      "outputs": [
        {
          "internalType": "address",
          "name": "",
          "type": "address"
        }
      ],
      "stateMutability": "view",
      "type": "function"
    },
    {
      "inputs": [],
      "name": "creatorPrizePool",
      "outputs": [
        {
          "internalType": "uint256",
          "name": "",
          "type": "uint256"
        }
      ],
      "stateMutability": "view",
      "type": "function"
    },
    {
      "inputs": [],
      "name": "description",
      "outputs": [
        {
          "internalType": "string",
          "name": "",
          "type": "string"
        }
      ],
      "stateMutability": "view",
      "type": "function"
    },
    {
      "inputs": [],
      "name": "distributePrize",
      "outputs": [],
      "stateMutability": "nonpayable",
      "type": "function"
    },
    {
      "inputs": [],
      "name": "distributionType",
      "outputs": [
        {
          "internalType": "enum Types.PrizeDistributionType",
          "name": "",
          "type": "uint8"
        }
      ],
      "stateMutability": "view",
      "type": "function"
    },
    {
      "inputs": [],
      "name": "entryFee",
      "outputs": [
        {
          "internalType": "uint256",
          "name": "",
          "type": "uint256"
        }
      ],
      "stateMutability": "view",
      "type": "function"
    },
    {
      "inputs": [],
      "name": "feeToken",
      "outputs": [
        {
          "internalType": "address",
          "name": "",
          "type": "address"
        }
      ],
      "stateMutability": "view",
      "type": "function"
    },
    {
      "inputs": [],
      "name": "gameEndTime",
      "outputs": [
        {
          "internalType": "uint256",
          "name": "",
          "type": "uint256"
        }
      ],
      "stateMutability": "view",
      "type": "function"
    },
    {
      "inputs": [],
      "name": "gameFactory",
      "outputs": [
        {
          "internalType": "address",
          "name": "",
          "type": "address"
        }
      ],
      "stateMutability": "view",
      "type": "function"
    },
    {
      "inputs": [],
      "name": "gameRegistry",
      "outputs": [
        {
          "internalType": "address",
          "name": "",
          "type": "address"
        }
      ],
      "stateMutability": "view",
      "type": "function"
    },
    {
      "inputs": [
        {
          "internalType": "address",
          "name": "",
          "type": "address"
        }
      ],
      "name": "gameResults",
      "outputs": [
        {
          "internalType": "enum Types.GameType",
          "name": "gameType",
          "type": "uint8"
        },
        {
          "internalType": "address",
          "name": "player",
          "type": "address"
        },
        {
          "internalType": "uint256",
          "name": "score",
          "type": "uint256"
        },
        {
          "internalType": "uint256",
          "name": "timestamp",
          "type": "uint256"
        },
        {
          "internalType": "bytes32",
          "name": "gameHash",
          "type": "bytes32"
        }
      ],
      "stateMutability": "view",
      "type": "function"
    },
    {
      "inputs": [],
      "name": "gameStartTime",
      "outputs": [
        {
          "internalType": "uint256",
          "name": "",
          "type": "uint256"
        }
      ],
      "stateMutability": "view",
      "type": "function"
    },
    {
      "inputs": [],
      "name": "gameType",
      "outputs": [
        {
          "internalType": "enum Types.GameType",
          "name": "",
          "type": "uint8"
        }
      ],
      "stateMutability": "view",
      "type": "function"
    },
    {
      "inputs": [],
      "name": "getGameData",
      "outputs": [
        {
          "components": [
            {
              "internalType": "address",
              "name": "creator",
              "type": "address"
            },
            {
              "internalType": "string",
              "name": "title",
              "type": "string"
            },
            {
              "internalType": "string",
              "name": "description",
              "type": "string"
            },
            {
              "internalType": "enum Types.GameStatus",
              "name": "status",
              "type": "uint8"
            },
            {
              "internalType": "enum Types.GameType",
              "name": "gameType",
              "type": "uint8"
            },
            {
              "internalType": "uint256",
              "name": "maxPlayers",
              "type": "uint256"
            },
            {
              "internalType": "uint256",
              "name": "playerCount",
              "type": "uint256"
            },
            {
              "internalType": "uint256",
              "name": "registrationEndTime",
              "type": "uint256"
            },
            {
              "internalType": "uint256",
              "name": "gameStartTime",
              "type": "uint256"
            },
            {
              "internalType": "address",
              "name": "feeToken",
              "type": "address"
            },
            {
              "internalType": "uint256",
              "name": "entryFee",
              "type": "uint256"
            },
            {
              "internalType": "address",
              "name": "prizeToken",
              "type": "address"
            },
            {
              "internalType": "uint256",
              "name": "prizePool",
              "type": "uint256"
            }
          ],
          "internalType": "struct Types.GameData",
          "name": "",
          "type": "tuple"
        }
      ],
      "stateMutability": "view",
      "type": "function"
    },
    {
      "inputs": [
        {
          "internalType": "address",
          "name": "player",
          "type": "address"
        }
      ],
      "name": "getPlayerGameResult",
      "outputs": [
        {
          "components": [
            {
              "internalType": "enum Types.GameType",
              "name": "gameType",
              "type": "uint8"
            },
            {
              "internalType": "address",
              "name": "player",
              "type": "address"
            },
            {
              "internalType": "uint256",
              "name": "score",
              "type": "uint256"
            },
            {
              "internalType": "uint256",
              "name": "timestamp",
              "type": "uint256"
            },
            {
              "internalType": "bytes32",
              "name": "gameHash",
              "type": "bytes32"
            },
            {
              "internalType": "uint256[]",
              "name": "metadata",
              "type": "uint256[]"
            }
          ],
          "internalType": "struct Types.GameResult",
          "name": "",
          "type": "tuple"
        }
      ],
      "stateMutability": "view",
      "type": "function"
    },
    {
      "inputs": [
        {
          "internalType": "address",
          "name": "player",
          "type": "address"
        }
      ],
      "name": "getPlayerScore",
      "outputs": [
        {
          "internalType": "uint256",
          "name": "",
          "type": "uint256"
        }
      ],
      "stateMutability": "view",
      "type": "function"
    },
    {
      "inputs": [
        {
          "internalType": "bytes32",
          "name": "role",
          "type": "bytes32"
        }
      ],
      "name": "getRoleAdmin",
      "outputs": [
        {
          "internalType": "bytes32",
          "name": "",
          "type": "bytes32"
        }
      ],
      "stateMutability": "view",
      "type": "function"
    },
    {
      "inputs": [
        {
          "internalType": "bytes32",
          "name": "role",
          "type": "bytes32"
        },
        {
          "internalType": "address",
          "name": "account",
          "type": "address"
        }
      ],
      "name": "grantRole",
      "outputs": [],
      "stateMutability": "nonpayable",
      "type": "function"
    },
    {
      "inputs": [
        {
          "internalType": "bytes32",
          "name": "role",
          "type": "bytes32"
        },
        {
          "internalType": "address",
          "name": "account",
          "type": "address"
        }
      ],
      "name": "hasRole",
      "outputs": [
        {
          "internalType": "bool",
          "name": "",
          "type": "bool"
        }
      ],
      "stateMutability": "view",
      "type": "function"
    },
    {
      "inputs": [
        {
          "components": [
            {
              "internalType": "string",
              "name": "title",
              "type": "string"
            },
            {
              "internalType": "string",
              "name": "description",
              "type": "string"
            },
            {
              "internalType": "enum Types.GameType",
              "name": "gameType",
              "type": "uint8"
            },
            {
              "internalType": "address",
              "name": "feeTokenAddress",
              "type": "address"
            },
            {
              "internalType": "uint256",
              "name": "entryFee",
              "type": "uint256"
            },
            {
              "internalType": "uint256",
              "name": "minPlayers",
              "type": "uint256"
            },
            {
              "internalType": "uint256",
              "name": "maxPlayers",
              "type": "uint256"
            },
            {
              "internalType": "uint256",
              "name": "registrationEndTime",
              "type": "uint256"
            },
            {
              "internalType": "uint256",
              "name": "gameStartTime",
              "type": "uint256"
            },
            {
              "internalType": "uint256",
              "name": "gameEndTime",
              "type": "uint256"
            },
            {
              "internalType": "address",
              "name": "prizeTokenAddress",
              "type": "address"
            },
            {
              "internalType": "uint256",
              "name": "prizePool",
              "type": "uint256"
            },
            {
              "internalType": "enum Types.PrizeDistributionType",
              "name": "distributionType",
              "type": "uint8"
            },
            {
              "internalType": "uint256[]",
              "name": "rankPrizes",
              "type": "uint256[]"
            }
          ],
          "internalType": "struct Types.GameConfig",
          "name": "config",
          "type": "tuple"
        },
        {
          "internalType": "address",
          "name": "_creator",
          "type": "address"
        },
        {
          "internalType": "address",
          "name": "_levelManager",
          "type": "address"
        },
        {
          "internalType": "address",
          "name": "_gameFactory",
          "type": "address"
        }
      ],
      "name": "initialize",
      "outputs": [],
      "stateMutability": "nonpayable",
      "type": "function"
    },
    {
      "inputs": [
        {
          "internalType": "address",
          "name": "",
          "type": "address"
        }
      ],
      "name": "isJoined",
      "outputs": [
        {
          "internalType": "bool",
          "name": "",
          "type": "bool"
        }
      ],
      "stateMutability": "view",
      "type": "function"
    },
    {
      "inputs": [],
      "name": "joinGame",
      "outputs": [],
      "stateMutability": "nonpayable",
      "type": "function"
    },
    {
      "inputs": [],
      "name": "levelManager",
      "outputs": [
        {
          "internalType": "address",
          "name": "",
          "type": "address"
        }
      ],
      "stateMutability": "view",
      "type": "function"
    },
    {
      "inputs": [],
      "name": "maxPlayers",
      "outputs": [
        {
          "internalType": "uint256",
          "name": "",
          "type": "uint256"
        }
      ],
      "stateMutability": "view",
      "type": "function"
    },
    {
      "inputs": [],
      "name": "minPlayers",
      "outputs": [
        {
          "internalType": "uint256",
          "name": "",
          "type": "uint256"
        }
      ],
      "stateMutability": "view",
      "type": "function"
    },
    {
      "inputs": [
        {
          "internalType": "uint256",
          "name": "",
          "type": "uint256"
        }
      ],
      "name": "players",
      "outputs": [
        {
          "internalType": "address",
          "name": "player",
          "type": "address"
        },
        {
          "internalType": "uint256",
          "name": "score",
          "type": "uint256"
        }
      ],
      "stateMutability": "view",
      "type": "function"
    },
    {
      "inputs": [],
      "name": "prizePool",
      "outputs": [
        {
          "internalType": "uint256",
          "name": "",
          "type": "uint256"
        }
      ],
      "stateMutability": "view",
      "type": "function"
    },
    {
      "inputs": [
        {
          "internalType": "address",
          "name": "",
          "type": "address"
        }
      ],
      "name": "prizeToClaimsAmount",
      "outputs": [
        {
          "internalType": "uint256",
          "name": "",
          "type": "uint256"
        }
      ],
      "stateMutability": "view",
      "type": "function"
    },
    {
      "inputs": [],
      "name": "prizeToken",
      "outputs": [
        {
          "internalType": "address",
          "name": "",
          "type": "address"
        }
      ],
      "stateMutability": "view",
      "type": "function"
    },
    {
      "inputs": [
        {
          "internalType": "uint256",
          "name": "",
          "type": "uint256"
        }
      ],
      "name": "rankPrizes",
      "outputs": [
        {
          "internalType": "uint256",
          "name": "",
          "type": "uint256"
        }
      ],
      "stateMutability": "view",
      "type": "function"
    },
    {
      "inputs": [],
      "name": "registrationEndTime",
      "outputs": [
        {
          "internalType": "uint256",
          "name": "",
          "type": "uint256"
        }
      ],
      "stateMutability": "view",
      "type": "function"
    },
    {
      "inputs": [
        {
          "internalType": "bytes32",
          "name": "role",
          "type": "bytes32"
        },
        {
          "internalType": "address",
          "name": "callerConfirmation",
          "type": "address"
        }
      ],
      "name": "renounceRole",
      "outputs": [],
      "stateMutability": "nonpayable",
      "type": "function"
    },
    {
      "inputs": [
        {
          "internalType": "bytes32",
          "name": "role",
          "type": "bytes32"
        },
        {
          "internalType": "address",
          "name": "account",
          "type": "address"
        }
      ],
      "name": "revokeRole",
      "outputs": [],
      "stateMutability": "nonpayable",
      "type": "function"
    },
    {
      "inputs": [
        {
          "internalType": "address",
          "name": "_gameRegistry",
          "type": "address"
        }
      ],
      "name": "setGameRegistry",
      "outputs": [],
      "stateMutability": "nonpayable",
      "type": "function"
    },
    {
      "inputs": [
        {
          "internalType": "address[]",
          "name": "_winners",
          "type": "address[]"
        }
      ],
      "name": "setWinners",
      "outputs": [],
      "stateMutability": "nonpayable",
      "type": "function"
    },
    {
      "inputs": [],
      "name": "startGame",
      "outputs": [],
      "stateMutability": "nonpayable",
      "type": "function"
    },
    {
      "inputs": [],
      "name": "status",
      "outputs": [
        {
          "internalType": "enum Types.GameStatus",
          "name": "",
          "type": "uint8"
        }
      ],
      "stateMutability": "view",
      "type": "function"
    },
    {
      "inputs": [
        {
          "components": [
            {
              "internalType": "enum Types.GameType",
              "name": "gameType",
              "type": "uint8"
            },
            {
              "internalType": "address",
              "name": "player",
              "type": "address"
            },
            {
              "internalType": "uint256",
              "name": "score",
              "type": "uint256"
            },
            {
              "internalType": "uint256",
              "name": "timestamp",
              "type": "uint256"
            },
            {
              "internalType": "bytes32",
              "name": "gameHash",
              "type": "bytes32"
            },
            {
              "internalType": "uint256[]",
              "name": "metadata",
              "type": "uint256[]"
            }
          ],
          "internalType": "struct Types.GameResult",
          "name": "result",
          "type": "tuple"
        }
      ],
      "name": "submitGameResult",
      "outputs": [],
      "stateMutability": "nonpayable",
      "type": "function"
    },
    {
      "inputs": [
        {
          "internalType": "uint256",
          "name": "score",
          "type": "uint256"
        }
      ],
      "name": "submitScore",
      "outputs": [],
      "stateMutability": "nonpayable",
      "type": "function"
    },
    {
      "inputs": [
        {
          "internalType": "bytes4",
          "name": "interfaceId",
          "type": "bytes4"
        }
      ],
      "name": "supportsInterface",
      "outputs": [
        {
          "internalType": "bool",
          "name": "",
          "type": "bool"
        }
      ],
      "stateMutability": "view",
      "type": "function"
    },
    {
      "inputs": [],
      "name": "title",
      "outputs": [
        {
          "internalType": "string",
          "name": "",
          "type": "string"
        }
      ],
      "stateMutability": "view",
      "type": "function"
    },
    {
      "inputs": [
        {
          "internalType": "uint256",
          "name": "",
          "type": "uint256"
        }
      ],
      "name": "winners",
      "outputs": [
        {
          "internalType": "address",
          "name": "",
          "type": "address"
        }
      ],
      "stateMutability": "view",
      "type": "function"
    }
  ],
  "bytecode": "0x608060405234801561001057600080fd5b5061412b806100206000396000f3fe608060405234801561001057600080fd5b50600436106102bb5760003560e01c80637284e41611610182578063b5545a3c116100e9578063d84c1ac9116100a2578063dff7d2c71161007c578063dff7d2c714610669578063e085c53914610672578063e5a078a71461069b578063f71d96cb146106a357600080fd5b8063d84c1ac914610636578063da0907551461063e578063dd898b2f1461065657600080fd5b8063b5545a3c146105de578063bbdc02db146105e6578063d0ef024a14610600578063d4f77b1c14610613578063d547741f1461061b578063d65ab5f21461062e57600080fd5b806391d148541161013b57806391d1485414610568578063a217fddf1461057b578063a2fb117514610583578063af4e99de14610596578063aff0b297146105ab578063b062e950146105be57600080fd5b80637284e4161461050357806377b6e5041461050b5780638233e4331461051357806384da242d1461052657806385bfd47c146105405780638aeda25a1461055357600080fd5b806336568abe11610226578063554c925c116101df578063554c925c146104825780635e6a43f514610495578063647846a5146104b857806370740ac9146104cb57806370824c5c146104d3578063719ce73e146104fa57600080fd5b806336568abe1461042c5780633b2370ac1461043f578063445e6b391461044857806344d9bc5f1461045b5780634a79d50c146104645780634c2412a21461047957600080fd5b80631d75d7c2116102785780631d75d7c214610368578063200d2ed2146103c0578063248a9ca3146103da5780632770c895146103fd5780632a8d950c146104065780632f2ff15d1461041957600080fd5b806301ffc9a7146102c05780630252b995146102e857806302d05d3f146102ff578063072ea61c1461032a578063140d6b941461033357806319ef46cb14610353575b600080fd5b6102d36102ce3660046133ca565b6106c4565b60405190151581526020015b60405180910390f35b6102f1600b5481565b6040519081526020016102df565b600454610312906001600160a01b031681565b6040516001600160a01b0390911681526020016102df565b6102f1600e5481565b610346610341366004613420565b6106fb565b6040516102df9190613467565b610366610361366004613683565b61083d565b005b6103af610376366004613420565b601a60205260009081526040902080546001820154600283015460039093015460ff8316936101009093046001600160a01b0316929085565b6040516102df959493929190613800565b6016546103cd9060ff1681565b6040516102df919061384a565b6102f16103e8366004613858565b60009081526020819052604090206001015490565b6102f160085481565b600254610312906001600160a01b031681565b610366610427366004613871565b610cce565b61036661043a366004613871565b610cf9565b6102f160125481565b6103666104563660046138a1565b610d31565b6102f1600c5481565b61046c610e80565b6040516102df919061395c565b6102f160095481565b61036661049036600461396f565b610f0e565b6102d36104a3366004613420565b60186020526000908152604090205460ff1681565b600d54610312906001600160a01b031681565b610366611244565b6102f17f797343f8d6a29aafeb3aaf0910a8973e0081c60c2f6c1f775cd9f76ea348fc1e81565b6102f160115481565b61046c611374565b610366611381565b6102f1610521366004613858565b611af3565b6013546105339060ff1681565b6040516102df91906139aa565b600354610312906001600160a01b031681565b6102f16000805160206140d683398151915281565b6102d3610576366004613871565b611b14565b6102f1600081565b610312610591366004613858565b611b3d565b61059e611b67565b6040516102df91906139c4565b6103666105b9366004613858565b611d62565b6102f16105cc366004613420565b60156020526000908152604090205481565b610366611e7a565b6007546105f39060ff1681565b6040516102df9190613aca565b601054610312906001600160a01b031681565b610366611ff9565b610366610629366004613871565b612498565b6103666124bd565b6103666128da565b6001546103129061010090046001600160a01b031681565b610366610664366004613420565b612c32565b6102f1600a5481565b6102f1610680366004613420565b6001600160a01b031660009081526019602052604090205490565b610366612cbc565b6106b66106b1366004613858565b6130ce565b6040516102df929190613ad8565b60006001600160e01b03198216637965db0b60e01b14806106f557506301ffc9a760e01b6001600160e01b03198316145b92915050565b6107416040805160c08101909152806000815260200160006001600160a01b03168152602001600081526020016000815260200160008019168152602001606081525090565b6001600160a01b0382166000908152601a602052604090819020815160c081019092528054829060ff16600581111561077c5761077c61343d565b600581111561078d5761078d61343d565b81526020016000820160019054906101000a90046001600160a01b03166001600160a01b03166001600160a01b031681526020016001820154815260200160028201548152602001600382015481526020016004820180548060200260200160405190810160405280929190818152602001828054801561082d57602002820191906000526020600020905b815481526020019060010190808311610819575b5050505050815250509050919050565b60015460ff161561088b5760405162461bcd60e51b8152602060048201526013602482015272105b1c9958591e481a5b9a5d1a585b1a5e9959606a1b60448201526064015b60405180910390fd5b6001805460ff191681179055600280546001600160a01b038085166001600160a01b031992831617909255600380549284169290911691909117905560e0840151421061091a5760405162461bcd60e51b815260206004820152601960248201527f52656720656e64206d75737420626520696e20667574757265000000000000006044820152606401610882565b8360e0015184610100015110156109735760405162461bcd60e51b815260206004820152601e60248201527f47616d65206d7573742073746172742061667465722072656720656e647300006044820152606401610882565b836101000151846101200151116109cc5760405162461bcd60e51b815260206004820152601c60248201527f47616d6520656e64206d757374206265206166746572207374617274000000006044820152606401610882565b8360a001518460c001511015610a195760405162461bcd60e51b815260206004820152601260248201527126b0bc1036bab9ba103132901f1e9026b4b760711b6044820152606401610882565b600480546001600160a01b0319166001600160a01b0385161790558351600590610a439082613b80565b506020840151600690610a569082613b80565b506016805460ff1990811690915560408501516007805491929091166001836005811115610a8657610a8661343d565b02179055506060840151600d80546001600160a01b039283166001600160a01b0319918216179091556080860151600e5560a086015160085560c086015160095560e0860151600a55610100860151600b55610120860151600c556101408601516010805491909316911617905561016084015160118190556012556101808401516013805460ff19166001836002811115610b2457610b2461343d565b02179055506101a08401518051610b4391601491602090910190613283565b5060028461018001516002811115610b5d57610b5d61343d565b03610c50576101a084015151601454610bb85760405162461bcd60e51b815260206004820152601f60248201527f437573746f6d2072616e6b20636f6e66696720666f726d6174206572726f72006044820152606401610882565b6000805b82811015610c015760148181548110610bd757610bd7613c44565b906000526020600020015482610bed9190613c70565b9150610bfa600182613c70565b9050610bbc565b50612710811115610c4d5760405162461bcd60e51b81526020600482015260166024820152755072697a65204250532065786365656473203130302560501b6044820152606401610882565b50505b610c5b600084613106565b50610c746000805160206140d683398151915284613106565b50610c8e6000805160206140d68339815191526000613198565b7fc66e6cd41f805f65978f5241034e8d106c42cf3c7a4d62ccd857646b401cbe4a836005604051610cc0929190613c83565b60405180910390a150505050565b600082815260208190526040902060010154610ce9816131e3565b610cf38383613106565b50505050565b6001600160a01b0381163314610d225760405163334bd91960e11b815260040160405180910390fd5b610d2c82826131ed565b505050565b6000805160206140d6833981519152610d49816131e3565b600160165460ff166004811115610d6257610d6261343d565b14610d7f5760405162461bcd60e51b815260040161088290613d23565b60005b82811015610e265760186000858584818110610da057610da0613c44565b9050602002016020810190610db59190613420565b6001600160a01b0316815260208101919091526040016000205460ff16610e1e5760405162461bcd60e51b815260206004820152601860248201527f54686572652069732077696e6e6572206e6f74206a6f696e00000000000000006044820152606401610882565b600101610d82565b50610e33601b84846132ce565b506016805460ff191660021790556040517f8451dabc49a0b82cffb0a79a6771fe2718264aae54a4eff4d4463748813ec56f90610e739085908590613d4d565b60405180910390a1505050565b60058054610e8d90613af1565b80601f0160208091040260200160405190810160405280929190818152602001828054610eb990613af1565b8015610f065780601f10610edb57610100808354040283529160200191610f06565b820191906000526020600020905b815481529060010190602001808311610ee957829003601f168201915b505050505081565b600160165460ff166004811115610f2757610f2761343d565b14610f445760405162461bcd60e51b815260040161088290613d23565b600b54421015610f915760405162461bcd60e51b815260206004820152601860248201527711d85b59481a185cc81b9bdd081cdd185c9d1959081e595d60421b6044820152606401610882565b3360009081526018602052604090205460ff16610fe45760405162461bcd60e51b8152602060048201526011602482015270141b185e595c881b9bdd081a9bda5b9959607a1b6044820152606401610882565b60075460ff166005811115610ffb57610ffb61343d565b6110086020830183613d90565b60058111156110195761101961343d565b1461105b5760405162461bcd60e51b815260206004820152601260248201527108ec2daca40e8f2e0ca40dad2e6dac2e8c6d60731b6044820152606401610882565b3361106c6040830160208401613420565b6001600160a01b0316146110c25760405162461bcd60e51b815260206004820152601760248201527f506c617965722061646472657373206d69736d617463680000000000000000006044820152606401610882565b60015461010090046001600160a01b03166111165760405162461bcd60e51b815260206004820152601460248201527311d85b59549959da5cdd1c9e481b9bdd081cd95d60621b6044820152606401610882565b6001546040516335c34ae960e01b81526101009091046001600160a01b03169060009082906335c34ae99061114f908690600401613ddf565b6020604051808303816000875af115801561116e573d6000803e3d6000fd5b505050506040513d601f19601f820116820180604052508101906111929190613e9c565b9050806111e15760405162461bcd60e51b815260206004820152601f60248201527f47616d6520726573756c7420766572696669636174696f6e206661696c6564006044820152606401610882565b336000908152601960209081526040808320818701359055601a9091529020839061120c8282613faf565b9050507fa578df9b0453d14d7ed8615ee0e9d58f70e041e91fc5865e3b71f81ea05296c0338460400135604051610e73929190613ad8565b33600090815260156020526040902054806112955760405162461bcd60e51b81526020600482015260116024820152704e6f207072697a6520746f20636c61696d60781b6044820152606401610882565b3360008181526015602052604080822091909155601054905163a9059cbb60e01b81526001600160a01b039091169163a9059cbb916112d991908590600401613ad8565b6020604051808303816000875af11580156112f8573d6000803e3d6000fd5b505050506040513d601f19601f8201168201806040525081019061131c9190613e9c565b6113385760405162461bcd60e51b815260040161088290614045565b7fb8e091d87f82e56d22276c9a0088ea5d6068e355383dc08b2721b7b6cb10e8453382604051611369929190613ad8565b60405180910390a150565b60068054610e8d90613af1565b6000805160206140d6833981519152611399816131e3565b600260165460ff1660048111156113b2576113b261343d565b146113f05760405162461bcd60e51b815260206004820152600e60248201526d11d85b59481b9bdd08195b99195960921b6044820152606401610882565b601b546114305760405162461bcd60e51b815260206004820152600e60248201526d139bc81dda5b9b995c9cc81cd95d60921b6044820152606401610882565b6000601154116114785760405162461bcd60e51b81526020600482015260136024820152725072697a6520706f6f6c20697320656d70747960681b6044820152606401610882565b6011805460009182905560025490916001600160a01b039091169060135460ff1660028111156114aa576114aa61343d565b036115ae578160156000601b6000815481106114c8576114c8613c44565b60009182526020808320909101546001600160a01b03168352820192909252604001812080549091906114fc908490613c70565b90915550506002546001600160a01b0316156115a957806001600160a01b0316635fe352ce601b60008154811061153557611535613c44565b6000918252602090912001546040516001600160e01b031960e084901b168152611576916001600160a01b0316906801158e460913d0000090600401613ad8565b600060405180830381600087803b15801561159057600080fd5b505af11580156115a4573d6000803e3d6000fd5b505050505b611ae1565b600160135460ff1660028111156115c7576115c761343d565b036117185760175460006115db8285614084565b905060006115e98386614098565b905060005b8381101561165a57600083905080601560006017858154811061161357611613613c44565b600091825260208083206002909202909101546001600160a01b031683528201929092526040018120805490919061164c908490613c70565b9091555050506001016115ee565b506010546004805460405163a9059cbb60e01b81526001600160a01b039384169363a9059cbb936116919390911691869101613ad8565b6020604051808303816000875af11580156116b0573d6000803e3d6000fd5b505050506040513d601f19601f820116820180604052508101906116d49190613e9c565b6117105760405162461bcd60e51b815260206004820152600d60248201526c1499599d5b990819985a5b1959609a1b6044820152606401610882565b505050611ae1565b600260135460ff1660028111156117315761173161343d565b03611ae157601454601b5411156117a05760405162461bcd60e51b815260206004820152602d60248201527f57696e6e657273206c69737420657863656564732072616e6b207072697a652060448201526c31b7b73334b3bab930ba34b7b760991b6064820152608401610882565b6000805b601b54811015611835576000601482815481106117c3576117c3613c44565b90600052602060002001549050600081116118205760405162461bcd60e51b815260206004820152601d60248201527f4d697373696e67207072697a6520636f6e66696720666f722072616e6b0000006044820152606401610882565b61182a8184613c70565b9250506001016117a4565b506127108111156118815760405162461bcd60e51b81526020600482015260166024820152755072697a65204250532065786365656473203130302560501b6044820152606401610882565b60005b601b54811015611ade576000601482815481106118a3576118a3613c44565b600091825260208220015491506127106118bd8388613f0f565b6118c79190614084565b90508060156000601b86815481106118e1576118e1613c44565b60009182526020808320909101546001600160a01b0316835282019290925260400181208054909190611915908490613c70565b90915550506002546001600160a01b031615611ad457826000036119cd57846001600160a01b0316635fe352ce601b858154811061195557611955613c44565b6000918252602090912001546040516001600160e01b031960e084901b168152611996916001600160a01b0316906801158e460913d0000090600401613ad8565b600060405180830381600087803b1580156119b057600080fd5b505af11580156119c4573d6000803e3d6000fd5b50505050611ad4565b82600103611a3757846001600160a01b0316635fe352ce601b85815481106119f7576119f7613c44565b6000918252602090912001546040516001600160e01b031960e084901b168152611996916001600160a01b031690678ac7230489e8000090600401613ad8565b82600203611ad457846001600160a01b0316635fe352ce601b8581548110611a6157611a61613c44565b6000918252602090912001546040516001600160e01b031960e084901b168152611aa1916001600160a01b031690674563918244f4000090600401613ad8565b600060405180830381600087803b158015611abb57600080fd5b505af1158015611acf573d6000803e3d6000fd5b505050505b5050600101611884565b50505b50506016805460ff1916600317905550565b60148181548110611b0357600080fd5b600091825260209091200154905081565b6000918252602082815260408084206001600160a01b0393909316845291905290205460ff1690565b601b8181548110611b4d57600080fd5b6000918252602090912001546001600160a01b0316905081565b611b6f613321565b611b77613321565b6004546001600160a01b0316815260058054611b9290613af1565b80601f0160208091040260200160405190810160405280929190818152602001828054611bbe90613af1565b8015611c0b5780601f10611be057610100808354040283529160200191611c0b565b820191906000526020600020905b815481529060010190602001808311611bee57829003601f168201915b5050505050816020018190525060068054611c2590613af1565b80601f0160208091040260200160405190810160405280929190818152602001828054611c5190613af1565b8015611c9e5780601f10611c7357610100808354040283529160200191611c9e565b820191906000526020600020905b815481529060010190602001808311611c8157829003601f168201915b50505050506040820152601654606082019060ff166004811115611cc457611cc461343d565b90816004811115611cd757611cd761343d565b905250600754608082019060ff166005811115611cf657611cf661343d565b90816005811115611d0957611d0961343d565b90525060095460a082015260175460c0820152600a5460e0820152600b54610100820152600e54610140820152600d546001600160a01b0390811661012083015260115461018083015260105416610160820152919050565b600160165460ff166004811115611d7b57611d7b61343d565b14611d985760405162461bcd60e51b815260040161088290613d23565b600b54421015611de55760405162461bcd60e51b815260206004820152601860248201527711d85b59481a185cc81b9bdd081cdd185c9d1959081e595d60421b6044820152606401610882565b3360009081526018602052604090205460ff16611e385760405162461bcd60e51b8152602060048201526011602482015270141b185e595c881b9bdd081a9bda5b9959607a1b6044820152606401610882565b3360008181526019602052604090819020839055517fa578df9b0453d14d7ed8615ee0e9d58f70e041e91fc5865e3b71f81ea05296c091611369918490613ad8565b600460165460ff166004811115611e9357611e9361343d565b14611ed45760405162461bcd60e51b815260206004820152601160248201527011d85b59481b9bdd0818d85b98d95b1959607a1b6044820152606401610882565b336000908152600f602052604090205480611f255760405162461bcd60e51b81526020600482015260116024820152704e6f207072697a6520746f20636c61696d60781b6044820152606401610882565b336000818152600f602052604080822091909155600d54905163a9059cbb60e01b81526001600160a01b039091169163a9059cbb91611f6991908590600401613ad8565b6020604051808303816000875af1158015611f88573d6000803e3d6000fd5b505050506040513d601f19601f82011682018060405250810190611fac9190613e9c565b611fc85760405162461bcd60e51b815260040161088290614045565b7feb4706597fb7a2e8806c0e31ad4c334330a97bc3cae6b9c360e152c922bb40c83382604051611369929190613ad8565b600060165460ff1660048111156120125761201261343d565b1461205f5760405162461bcd60e51b815260206004820152601a60248201527f47616d65206e6f7420616363657074696e6720706c61796572730000000000006044820152606401610882565b600a5442106120b05760405162461bcd60e51b815260206004820152601860248201527f526567697374726174696f6e2074696d652070617373656400000000000000006044820152606401610882565b600954601754106120f95760405162461bcd60e51b815260206004820152601360248201527213585e081c1b185e595c9cc81c995858da1959606a1b6044820152606401610882565b3360009081526018602052604090205460ff161561214a5760405162461bcd60e51b815260206004820152600e60248201526d105b1c9958591e481a9bda5b995960921b6044820152606401610882565b600e541561233757600d54600e546040516323b872dd60e01b815233600482015230602482015260448101919091526001600160a01b03909116906323b872dd906064016020604051808303816000875af11580156121ad573d6000803e3d6000fd5b505050506040513d601f19601f820116820180604052508101906121d19190613e9c565b6121ed5760405162461bcd60e51b815260040161088290614045565b6000612710600e546103e86122029190613f0f565b61220c9190614084565b9050600081600e5461221e91906140ac565b905060008211801561223a57506003546001600160a01b031615155b1561230457600d5460035460405163a9059cbb60e01b81526001600160a01b039283169263a9059cbb92612275929116908690600401613ad8565b6020604051808303816000875af1158015612294573d6000803e3d6000fd5b505050506040513d601f19601f820116820180604052508101906122b89190613e9c565b6123045760405162461bcd60e51b815260206004820152601c60248201527f506c6174666f726d20666565207472616e73666572206661696c6564000000006044820152606401610882565b601054600d546001600160a01b0391821691160361233457806011600082825461232e9190613c70565b90915550505b50505b6040805180820182523380825260006020808401828152601780546001808201835591855295517fc624b66cc0138b8fabc209247f72d758e1cf3343756d543badbf24212bed8c15600297880290810180546001600160a01b0319166001600160a01b0393841617905592517fc624b66cc0138b8fabc209247f72d758e1cf3343756d543badbf24212bed8c1690930192909255600e54948452600f8352868420949094556018909152939020805460ff1916909117905554161561246357600254604051632ff1a96760e11b81526001600160a01b0390911690635fe352ce906124309033906729a2241af62c000090600401613ad8565b600060405180830381600087803b15801561244a57600080fd5b505af115801561245e573d6000803e3d6000fd5b505050505b6040513381527f31e760aa525306aba638a784082a013b6a1cc0a9a1789f3f22281c0453b10b1f9060200160405180910390a1565b6000828152602081905260409020600101546124b3816131e3565b610cf383836131ed565b6000805160206140d68339815191526124d5816131e3565b600060165460ff1660048111156124ee576124ee61343d565b1461253b5760405162461bcd60e51b815260206004820152601a60248201527f47616d65206e6f7420696e2043726561746564207374617475730000000000006044820152606401610882565b600a5442101561258d5760405162461bcd60e51b815260206004820152601c60248201527f526567697374726174696f6e206973206e6f74206f76657220796574000000006044820152606401610882565b60085460175410156128a0576016805460ff19166004179055601254156126ca576010546004805460125460405163a9059cbb60e01b81526001600160a01b039485169463a9059cbb946125e694909116929101613ad8565b6020604051808303816000875af1158015612605573d6000803e3d6000fd5b505050506040513d601f19601f820116820180604052508101906126299190613e9c565b61266b5760405162461bcd60e51b8152602060048201526013602482015272141c9a5e99481c99599d5b990819985a5b1959606a1b6044820152606401610882565b6012546011600082825461267f91906140ac565b90915550506004546012546040519081526001600160a01b03909116907fcabd9ffa4ff52290e56c52a9ed671760a0e5951eaa234fd9e0ccccf507bf98ca9060200160405180910390a25b60005b60175481101561289c576000601782815481106126ec576126ec613c44565b600091825260208083206002909202909101546001600160a01b0316808352600f9091526040909120549091508015612892576001600160a01b0382166000908152600f6020526040812081905561271061274983612328613f0f565b6127539190614084565b9050801561289057600d5460405163a9059cbb60e01b81526001600160a01b039091169063a9059cbb9061278d9086908590600401613ad8565b6020604051808303816000875af11580156127ac573d6000803e3d6000fd5b505050506040513d601f19601f820116820180604052508101906127d09190613e9c565b61281c5760405162461bcd60e51b815260206004820152601760248201527f456e7472792066656520726566756e64206661696c65640000000000000000006044820152606401610882565b601054600d546001600160a01b0391821691160361284c57806011600082825461284691906140ac565b90915550505b826001600160a01b03167fbddaec5e3db6d33ac9b0043f3c92cf3d081b19f8646f372eb3a68a51e273a1048260405161288791815260200190565b60405180910390a25b505b50506001016126cd565b5050565b6016805460ff191660011790556040517f762f260439bb4be3ef6e4dc2786e2e7bd187d3d80b79057d7a424fe98563e33590600090a15b50565b6000805160206140d68339815191526128f2816131e3565b600060165460ff16600481111561290b5761290b61343d565b148061292d5750600160165460ff16600481111561292b5761292b61343d565b145b61298c5760405162461bcd60e51b815260206004820152602a60248201527f43616e6e6f742063616e63656c20616e20656e646564206f722064697374726960448201526962757465642067616d6560b01b6064820152608401610882565b6011805460009091556016805460ff191660041790558015612aa6576010546004805460405163a9059cbb60e01b81526001600160a01b039384169363a9059cbb936129de9390911691869101613ad8565b6020604051808303816000875af11580156129fd573d6000803e3d6000fd5b505050506040513d601f19601f82011682018060405250810190612a219190613e9c565b612a635760405162461bcd60e51b8152602060048201526013602482015272141c9a5e99481c99599d5b990819985a5b1959606a1b6044820152606401610882565b6004546040518281526001600160a01b03909116907fcabd9ffa4ff52290e56c52a9ed671760a0e5951eaa234fd9e0ccccf507bf98ca9060200160405180910390a25b60005b601754811015610d2c57600060178281548110612ac857612ac8613c44565b600091825260208083206002909202909101546001600160a01b0316808352600f9091526040909120549091508015612c28576001600160a01b0382166000908152600f60205260408120819055612710612b2583612328613f0f565b612b2f9190614084565b90508015612c2657600d5460405163a9059cbb60e01b81526001600160a01b039091169063a9059cbb90612b699086908590600401613ad8565b6020604051808303816000875af1158015612b88573d6000803e3d6000fd5b505050506040513d601f19601f82011682018060405250810190612bac9190613e9c565b612bec5760405162461bcd60e51b8152602060048201526011602482015270119959481c99599d5b990819985a5b1959607a1b6044820152606401610882565b7feb4706597fb7a2e8806c0e31ad4c334330a97bc3cae6b9c360e152c922bb40c88382604051612c1d929190613ad8565b60405180910390a15b505b5050600101612aa9565b6000612c3d816131e3565b6001600160a01b038216612c935760405162461bcd60e51b815260206004820152601d60248201527f496e76616c69642067616d6520726567697374727920616464726573730000006044820152606401610882565b50600180546001600160a01b0390921661010002610100600160a81b0319909216919091179055565b600a5433904210612d0f5760405162461bcd60e51b815260206004820152601960248201527f526567697374726174696f6e2074696d65206973206f766572000000000000006044820152606401610882565b600060165460ff166004811115612d2857612d2861343d565b14612d755760405162461bcd60e51b815260206004820181905260248201527f47616d6520697320616c7265616479206f6e676f696e67206f7220656e6465646044820152606401610882565b6001600160a01b0381166000908152600f602052604090205480612df15760405162461bcd60e51b815260206004820152602d60248201527f506c6179657220686173206e6f74206a6f696e6564206f722066656520616c7260448201526c1958591e481c99599d5b991959609a1b6064820152608401610882565b600080805b601754811015612e5057846001600160a01b031660178281548110612e1d57612e1d613c44565b60009182526020909120600290910201546001600160a01b031603612e485780925060019150612e50565b600101612df6565b5080612eaf5760405162461bcd60e51b815260206004820152602860248201527f496e7465726e616c206572726f723a20506c61796572206e6f7420666f756e64604482015267081a5b881b1a5cdd60c21b6064820152608401610882565b601754600090612ec1906001906140ac565b9050808314612f375760178181548110612edd57612edd613c44565b906000526020600020906002020160178481548110612efe57612efe613c44565b60009182526020909120825460029092020180546001600160a01b0319166001600160a01b039092169190911781556001918201549101555b6017805480612f4857612f486140bf565b6000828152602080822060026000199094019384020180546001600160a01b0319168155600101829055919092556001600160a01b0387168252600f90526040812081905560118054869290612f9f9084906140ac565b90915550506001600160a01b038086166000908152601860209081526040808320805460ff19169055601990915280822091909155600d54905163a9059cbb60e01b815291169063a9059cbb90612ffc9088908890600401613ad8565b6020604051808303816000875af115801561301b573d6000803e3d6000fd5b505050506040513d601f19601f8201168201806040525081019061303f9190613e9c565b6130845760405162461bcd60e51b81526020600482015260166024820152751499599d5b99081d1c985b9cd9995c8819985a5b195960521b6044820152606401610882565b846001600160a01b03167fbddaec5e3db6d33ac9b0043f3c92cf3d081b19f8646f372eb3a68a51e273a104856040516130bf91815260200190565b60405180910390a25050505050565b601781815481106130de57600080fd5b6000918252602090912060029091020180546001909101546001600160a01b03909116915082565b60006131128383611b14565b613190576000838152602081815260408083206001600160a01b03861684529091529020805460ff191660011790556131483390565b6001600160a01b0316826001600160a01b0316847f2f8788117e7eff1d82e926ec794901d17c78024a50270940304540a733656f0d60405160405180910390a45060016106f5565b5060006106f5565b600082815260208190526040808220600101805490849055905190918391839186917fbd79b86ffe0ab8e8776151514217cd7cacd52c909f66475c3af44e129f0b00ff9190a4505050565b6128d78133613258565b60006131f98383611b14565b15613190576000838152602081815260408083206001600160a01b0386168085529252808320805460ff1916905551339286917ff6391f5c32d9c69d2a47ea670b442974b53935d1edc7fd64eb21e047a839171b9190a45060016106f5565b6132628282611b14565b61289c57808260405163e2517d3f60e01b8152600401610882929190613ad8565b8280548282559060005260206000209081019282156132be579160200282015b828111156132be5782518255916020019190600101906132a3565b506132ca9291506133b5565b5090565b8280548282559060005260206000209081019282156132be579160200282015b828111156132be5781546001600160a01b0319166001600160a01b038435161782556020909201916001909101906132ee565b604051806101a0016040528060006001600160a01b0316815260200160608152602001606081526020016000600481111561335e5761335e61343d565b8152602001600081526020016000815260200160008152602001600081526020016000815260200160006001600160a01b031681526020016000815260200160006001600160a01b03168152602001600081525090565b5b808211156132ca57600081556001016133b6565b6000602082840312156133dc57600080fd5b81356001600160e01b0319811681146133f457600080fd5b9392505050565b6001600160a01b03811681146128d757600080fd5b803561341b816133fb565b919050565b60006020828403121561343257600080fd5b81356133f4816133fb565b634e487b7160e01b600052602160045260246000fd5b600681106134635761346361343d565b9052565b6000602080835260e0830161347f8285018651613453565b60018060a01b03828601511660408501526040850151606085015260608501516080850152608085015160a085015260a085015160c080860152818151808452610100870191508483019350600092505b808310156134f057835182529284019260019290920191908401906134d0565b509695505050505050565b634e487b7160e01b600052604160045260246000fd5b6040516101c0810167ffffffffffffffff81118282101715613535576135356134fb565b60405290565b604051601f8201601f1916810167ffffffffffffffff81118282101715613564576135646134fb565b604052919050565b600082601f83011261357d57600080fd5b813567ffffffffffffffff811115613597576135976134fb565b6135aa601f8201601f191660200161353b565b8181528460208386010111156135bf57600080fd5b816020850160208301376000918101602001919091529392505050565b600681106128d757600080fd5b803561341b816135dc565b80356003811061341b57600080fd5b600082601f83011261361457600080fd5b8135602067ffffffffffffffff821115613630576136306134fb565b8160051b61363f82820161353b565b928352848101820192828101908785111561365957600080fd5b83870192505b848310156136785782358252918301919083019061365f565b979650505050505050565b6000806000806080858703121561369957600080fd5b843567ffffffffffffffff808211156136b157600080fd5b908601906101c082890312156136c657600080fd5b6136ce613511565b8235828111156136dd57600080fd5b6136e98a82860161356c565b8252506020830135828111156136fe57600080fd5b61370a8a82860161356c565b60208301525061371c604084016135e9565b604082015261372d60608401613410565b60608201526080830135608082015260a083013560a082015260c083013560c082015260e083013560e0820152610100808401358183015250610120808401358183015250610140613780818501613410565b90820152610160838101359082015261018061379d8185016135f4565b908201526101a083810135838111156137b557600080fd5b6137c18b828701613603565b8284015250508096505050506137d960208601613410565b92506137e760408601613410565b91506137f560608601613410565b905092959194509250565b60a0810161380e8288613453565b6001600160a01b0395909516602082015260408101939093526060830191909152608090910152919050565b600581106134635761346361343d565b602081016106f5828461383a565b60006020828403121561386a57600080fd5b5035919050565b6000806040838503121561388457600080fd5b823591506020830135613896816133fb565b809150509250929050565b600080602083850312156138b457600080fd5b823567ffffffffffffffff808211156138cc57600080fd5b818501915085601f8301126138e057600080fd5b8135818111156138ef57600080fd5b8660208260051b850101111561390457600080fd5b60209290920196919550909350505050565b6000815180845260005b8181101561393c57602081850181015186830182015201613920565b506000602082860101526020601f19601f83011685010191505092915050565b6020815260006133f46020830184613916565b60006020828403121561398157600080fd5b813567ffffffffffffffff81111561399857600080fd5b820160c081850312156133f457600080fd5b60208101600383106139be576139be61343d565b91905290565b602081526139de6020820183516001600160a01b03169052565b600060208301516101a08060408501526139fc6101c0850183613916565b91506040850151601f19858403016060860152613a198382613916565b9250506060850151613a2e608086018261383a565b506080850151613a4160a0860182613453565b5060a085015160c085015260c085015160e085015260e0850151610100818187015280870151915050610120818187015280870151915050610140613a90818701836001600160a01b03169052565b860151610160868101919091528601519050610180613ab9818701836001600160a01b03169052565b959095015193019290925250919050565b602081016106f58284613453565b6001600160a01b03929092168252602082015260400190565b600181811c90821680613b0557607f821691505b602082108103613b2557634e487b7160e01b600052602260045260246000fd5b50919050565b5b8181101561289c5760008155600101613b2c565b601f821115610d2c57806000526020600020601f840160051c81016020851015613b675750805b613b79601f850160051c830182613b2b565b5050505050565b815167ffffffffffffffff811115613b9a57613b9a6134fb565b613bae81613ba88454613af1565b84613b40565b602080601f831160018114613be35760008415613bcb5750858301515b600019600386901b1c1916600185901b178555613c3c565b600085815260208120601f198616915b82811015613c1257888601518255948401946001909101908401613bf3565b5085821015613c305787850151600019600388901b60f8161c191681555b505060018460011b0185555b505050505050565b634e487b7160e01b600052603260045260246000fd5b634e487b7160e01b600052601160045260246000fd5b808201808211156106f5576106f5613c5a565b60018060a01b0383168152600060206040602084015260008454613ca681613af1565b8060408701526060600180841660008114613cc85760018114613ce457613d14565b60ff19851660608a0152606084151560051b8a01019550613d14565b89600052602060002060005b85811015613d0b5781548b8201860152908301908801613cf0565b8a016060019650505b50939998505050505050505050565b60208082526010908201526f47616d65206e6f74206f6e676f696e6760801b604082015260600190565b60208082528181018390526000908460408401835b868110156134f0578235613d75816133fb565b6001600160a01b031682529183019190830190600101613d62565b600060208284031215613da257600080fd5b81356133f4816135dc565b81835260006001600160fb1b03831115613dc657600080fd5b8260051b80836020870137939093016020019392505050565b6020815260008235613df0816135dc565b613dfd6020840182613453565b506020830135613e0c816133fb565b60018060a01b0381166040840152506040830135606083015260608301356080830152608083013560a083015260a0830135601e19843603018112613e5057600080fd5b830160208101903567ffffffffffffffff811115613e6d57600080fd5b8060051b3603821315613e7f57600080fd5b60c080850152613e9360e085018284613dad565b95945050505050565b600060208284031215613eae57600080fd5b815180151581146133f457600080fd5b6000808335601e19843603018112613ed557600080fd5b83018035915067ffffffffffffffff821115613ef057600080fd5b6020019150600581901b3603821315613f0857600080fd5b9250929050565b80820281158282048414176106f5576106f5613c5a565b67ffffffffffffffff831115613f3e57613f3e6134fb565b68010000000000000000831115613f5757613f576134fb565b805483825580841015613f7d57816000526020600020613f7b828201868301613b2b565b505b50818160005260208060002060005b86811015613fa65783358282015592820192600101613f8c565b50505050505050565b8135613fba816135dc565b60068110613fca57613fca61343d565b815460ff821691508160ff1982161783556020840135613fe9816133fb565b6001600160a81b03199190911690911760089190911b610100600160a81b031617815560408201356001820155606082013560028201556080820135600382015561403760a0830183613ebe565b610cf3818360048601613f26565b6020808252600f908201526e151c985b9cd9995c8819985a5b1959608a1b604082015260600190565b634e487b7160e01b600052601260045260246000fd5b6000826140935761409361406e565b500490565b6000826140a7576140a761406e565b500690565b818103818111156106f5576106f5613c5a565b634e487b7160e01b600052603160045260246000fdfe828634d95e775031b9ff576b159a8509d3053581a8c9c4d7d86899e0afcd882fa2646970667358221220665f695fc4ffdd5b0a59ebe3b1369a37818c6f5b2a6512e86afa84f36b408de064736f6c63430008180033",
  "linkReferences": {},
  "deployedLinkReferences": {}
}