{
  "_format": "hh-sol-artifact-1",
  "contractName": "GameRegistry",
  "sourceName": "contracts/GameRegistry.sol",
  "abi": [
    {
      "inputs": [],
      "stateMutability": "nonpayable",
      "type": "constructor"
    },
    {
      "inputs": [],
      "name": "AccessControlBadConfirmation",
      "type": "error"
    },
    {
      "inputs": [
        {
          "internalType": "address",
          "name": "account",
          "type": "address"
        },
        {
          "internalType": "bytes32",
          "name": "neededRole",
          "type": "bytes32"
        }
      ],
      "name": "AccessControlUnauthorizedAccount",
      "type": "error"
    },
    {
      "anonymous": false,
      "inputs": [
        {
          "indexed": false,
          "internalType": "enum Types.GameType",
          "name": "gameType",
          "type": "uint8"
        }
      ],
      "name": "GameDisabled",
      "type": "event"
    },
    {
      "anonymous": false,
      "inputs": [
        {
          "indexed": false,
          "internalType": "enum Types.GameType",
          "name": "gameType",
          "type": "uint8"
        }
      ],
      "name": "GameEnabled",
      "type": "event"
    },
    {
      "anonymous": false,
      "inputs": [
        {
          "indexed": true,
          "internalType": "address",
          "name": "player",
          "type": "address"
        },
        {
          "indexed": false,
          "internalType": "enum Types.GameType",
          "name": "gameType",
          "type": "uint8"
        },
        {
          "indexed": false,
          "internalType": "uint256",
          "name": "score",
          "type": "uint256"
        },
        {
          "indexed": false,
          "internalType": "bytes32",
          "name": "gameHash",
          "type": "bytes32"
        }
      ],
      "name": "GameResultVerified",
      "type": "event"
    },
    {
      "anonymous": false,
      "inputs": [
        {
          "indexed": false,
          "internalType": "enum Types.GameType",
          "name": "gameType",
          "type": "uint8"
        },
        {
          "indexed": false,
          "internalType": "uint256",
          "name": "maxScore",
          "type": "uint256"
        }
      ],
      "name": "MaxScoreUpdated",
      "type": "event"
    },
    {
      "anonymous": false,
      "inputs": [
        {
          "indexed": true,
          "internalType": "bytes32",
          "name": "role",
          "type": "bytes32"
        },
        {
          "indexed": true,
          "internalType": "bytes32",
          "name": "previousAdminRole",
          "type": "bytes32"
        },
        {
          "indexed": true,
          "internalType": "bytes32",
          "name": "newAdminRole",
          "type": "bytes32"
        }
      ],
      "name": "RoleAdminChanged",
      "type": "event"
    },
    {
      "anonymous": false,
      "inputs": [
        {
          "indexed": true,
          "internalType": "bytes32",
          "name": "role",
          "type": "bytes32"
        },
        {
          "indexed": true,
          "internalType": "address",
          "name": "account",
          "type": "address"
        },
        {
          "indexed": true,
          "internalType": "address",
          "name": "sender",
          "type": "address"
        }
      ],
      "name": "RoleGranted",
      "type": "event"
    },
    {
      "anonymous": false,
      "inputs": [
        {
          "indexed": true,
          "internalType": "bytes32",
          "name": "role",
          "type": "bytes32"
        },
        {
          "indexed": true,
          "internalType": "address",
          "name": "account",
          "type": "address"
        },
        {
          "indexed": true,
          "internalType": "address",
          "name": "sender",
          "type": "address"
        }
      ],
      "name": "RoleRevoked",
      "type": "event"
    },
    {
      "inputs": [],
      "name": "DEFAULT_ADMIN_ROLE",
      "outputs": [
        {
          "internalType": "bytes32",
          "name": "",
          "type": "bytes32"
        }
      ],
      "stateMutability": "view",
      "type": "function"
    },
    {
      "inputs": [],
      "name": "GAME_ADMIN_ROLE",
      "outputs": [
        {
          "internalType": "bytes32",
          "name": "",
          "type": "bytes32"
        }
      ],
      "stateMutability": "view",
      "type": "function"
    },
    {
      "inputs": [],
      "name": "MIN_GAME_INTERVAL",
      "outputs": [
        {
          "internalType": "uint256",
          "name": "",
          "type": "uint256"
        }
      ],
      "stateMutability": "view",
      "type": "function"
    },
    {
      "inputs": [
        {
          "internalType": "address",
          "name": "player",
          "type": "address"
        },
        {
          "internalType": "enum Types.GameType",
          "name": "gameType",
          "type": "uint8"
        }
      ],
      "name": "canPlayerPlay",
      "outputs": [
        {
          "internalType": "bool",
          "name": "",
          "type": "bool"
        }
      ],
      "stateMutability": "view",
      "type": "function"
    },
    {
      "inputs": [
        {
          "components": [
            {
              "internalType": "enum Types.GameType",
              "name": "gameType",
              "type": "uint8"
            },
            {
              "internalType": "address",
              "name": "player",
              "type": "address"
            },
            {
              "internalType": "uint256",
              "name": "score",
              "type": "uint256"
            },
            {
              "internalType": "uint256",
              "name": "timestamp",
              "type": "uint256"
            },
            {
              "internalType": "bytes32",
              "name": "gameHash",
              "type": "bytes32"
            },
            {
              "internalType": "uint256[]",
              "name": "metadata",
              "type": "uint256[]"
            }
          ],
          "internalType": "struct Types.GameResult",
          "name": "result",
          "type": "tuple"
        }
      ],
      "name": "computeGameHash",
      "outputs": [
        {
          "internalType": "bytes32",
          "name": "",
          "type": "bytes32"
        }
      ],
      "stateMutability": "pure",
      "type": "function"
    },
    {
      "inputs": [
        {
          "internalType": "enum Types.GameType",
          "name": "gameType",
          "type": "uint8"
        }
      ],
      "name": "disableGame",
      "outputs": [],
      "stateMutability": "nonpayable",
      "type": "function"
    },
    {
      "inputs": [
        {
          "internalType": "enum Types.GameType",
          "name": "gameType",
          "type": "uint8"
        }
      ],
      "name": "enableGame",
      "outputs": [],
      "stateMutability": "nonpayable",
      "type": "function"
    },
    {
      "inputs": [
        {
          "internalType": "enum Types.GameType",
          "name": "",
          "type": "uint8"
        }
      ],
      "name": "gameEnabled",
      "outputs": [
        {
          "internalType": "bool",
          "name": "",
          "type": "bool"
        }
      ],
      "stateMutability": "view",
      "type": "function"
    },
    {
      "inputs": [
        {
          "internalType": "enum Types.GameType",
          "name": "gameType",
          "type": "uint8"
        }
      ],
      "name": "getGameInfo",
      "outputs": [
        {
          "internalType": "bool",
          "name": "enabled",
          "type": "bool"
        },
        {
          "internalType": "uint256",
          "name": "maxScore",
          "type": "uint256"
        }
      ],
      "stateMutability": "view",
      "type": "function"
    },
    {
      "inputs": [
        {
          "internalType": "bytes32",
          "name": "role",
          "type": "bytes32"
        }
      ],
      "name": "getRoleAdmin",
      "outputs": [
        {
          "internalType": "bytes32",
          "name": "",
          "type": "bytes32"
        }
      ],
      "stateMutability": "view",
      "type": "function"
    },
    {
      "inputs": [
        {
          "internalType": "bytes32",
          "name": "role",
          "type": "bytes32"
        },
        {
          "internalType": "address",
          "name": "account",
          "type": "address"
        }
      ],
      "name": "grantRole",
      "outputs": [],
      "stateMutability": "nonpayable",
      "type": "function"
    },
    {
      "inputs": [
        {
          "internalType": "bytes32",
          "name": "role",
          "type": "bytes32"
        },
        {
          "internalType": "address",
          "name": "account",
          "type": "address"
        }
      ],
      "name": "hasRole",
      "outputs": [
        {
          "internalType": "bool",
          "name": "",
          "type": "bool"
        }
      ],
      "stateMutability": "view",
      "type": "function"
    },
    {
      "inputs": [
        {
          "internalType": "address",
          "name": "",
          "type": "address"
        },
        {
          "internalType": "enum Types.GameType",
          "name": "",
          "type": "uint8"
        }
      ],
      "name": "lastPlayedTime",
      "outputs": [
        {
          "internalType": "uint256",
          "name": "",
          "type": "uint256"
        }
      ],
      "stateMutability": "view",
      "type": "function"
    },
    {
      "inputs": [
        {
          "internalType": "enum Types.GameType",
          "name": "",
          "type": "uint8"
        }
      ],
      "name": "maxScores",
      "outputs": [
        {
          "internalType": "uint256",
          "name": "",
          "type": "uint256"
        }
      ],
      "stateMutability": "view",
      "type": "function"
    },
    {
      "inputs": [
        {
          "internalType": "bytes32",
          "name": "role",
          "type": "bytes32"
        },
        {
          "internalType": "address",
          "name": "callerConfirmation",
          "type": "address"
        }
      ],
      "name": "renounceRole",
      "outputs": [],
      "stateMutability": "nonpayable",
      "type": "function"
    },
    {
      "inputs": [
        {
          "internalType": "bytes32",
          "name": "role",
          "type": "bytes32"
        },
        {
          "internalType": "address",
          "name": "account",
          "type": "address"
        }
      ],
      "name": "revokeRole",
      "outputs": [],
      "stateMutability": "nonpayable",
      "type": "function"
    },
    {
      "inputs": [
        {
          "internalType": "bytes4",
          "name": "interfaceId",
          "type": "bytes4"
        }
      ],
      "name": "supportsInterface",
      "outputs": [
        {
          "internalType": "bool",
          "name": "",
          "type": "bool"
        }
      ],
      "stateMutability": "view",
      "type": "function"
    },
    {
      "inputs": [
        {
          "internalType": "enum Types.GameType",
          "name": "gameType",
          "type": "uint8"
        },
        {
          "internalType": "uint256",
          "name": "newMaxScore",
          "type": "uint256"
        }
      ],
      "name": "updateMaxScore",
      "outputs": [],
      "stateMutability": "nonpayable",
      "type": "function"
    },
    {
      "inputs": [
        {
          "components": [
            {
              "internalType": "enum Types.GameType",
              "name": "gameType",
              "type": "uint8"
            },
            {
              "internalType": "address",
              "name": "player",
              "type": "address"
            },
            {
              "internalType": "uint256",
              "name": "score",
              "type": "uint256"
            },
            {
              "internalType": "uint256",
              "name": "timestamp",
              "type": "uint256"
            },
            {
              "internalType": "bytes32",
              "name": "gameHash",
              "type": "bytes32"
            },
            {
              "internalType": "uint256[]",
              "name": "metadata",
              "type": "uint256[]"
            }
          ],
          "internalType": "struct Types.GameResult",
          "name": "result",
          "type": "tuple"
        }
      ],
      "name": "verifyGameResult",
      "outputs": [
        {
          "internalType": "bool",
          "name": "",
          "type": "bool"
        }
      ],
      "stateMutability": "nonpayable",
      "type": "function"
    }
  ],
  "bytecode": "0x60806040523480156200001157600080fd5b506200001f600033620001f2565b506200004c7f9b7946abd96dccbe6cfc6cc2c13300ab429d93e16fa72dc459eeccda73817f0833620001f2565b506200007a7f9b7946abd96dccbe6cfc6cc2c13300ab429d93e16fa72dc459eeccda73817f086000620002a1565b7fcc69885fda6bcc1a4ace058b4a62bf5e179ea78fd58a1ccd71c22cc9b688792f8054600160ff1991821681179092557fd9d16d34ffb15ba3a3d852f0d403e2ce1d691fb54de27ac87cd2f993f3ec330f80548216831790557f7dfe757ecd65cbd7922a9c0161e935dd7fdbcc0e999689c7d31633896b1fc60b8054909116821790556003602081905260647fa15bc60c955c405d20d9149c709e2460f1c2d9a497496a7f46004d1772c3054c8190557fc3a24b0501bd2c13a7e57f2db4369ec4c223447539fc0724a9d55ac4a06ebd4d5560005260327fcbc4e5fb02c3d1de23a9f1e014b4d2ee5aeaea9505df5e855c9210bf472495af556040516000805160206200178d833981519152916200019291620002ec565b60405180910390a16000805160206200178d8339815191526002604051620001bb9190620002ec565b60405180910390a16000805160206200178d8339815191526003604051620001e49190620002ec565b60405180910390a162000315565b6000828152602081815260408083206001600160a01b038516845290915281205460ff1662000297576000838152602081815260408083206001600160a01b03861684529091529020805460ff191660011790556200024e3390565b6001600160a01b0316826001600160a01b0316847f2f8788117e7eff1d82e926ec794901d17c78024a50270940304540a733656f0d60405160405180910390a45060016200029b565b5060005b92915050565b600082815260208190526040808220600101805490849055905190918391839186917fbd79b86ffe0ab8e8776151514217cd7cacd52c909f66475c3af44e129f0b00ff9190a4505050565b60208101600483106200030f57634e487b7160e01b600052602160045260246000fd5b91905290565b61146880620003256000396000f3fe608060405234801561001057600080fd5b50600436106101215760003560e01c806353c2a81e116100ad578063c54a41eb11610071578063c54a41eb14610279578063ce863cd8146102a4578063d547741f146102ce578063e84b2780146102e1578063f010b541146102e957600080fd5b806353c2a81e1461022357806391d1485414610236578063a217fddf14610249578063be22d27d14610251578063c2c9a8841461026657600080fd5b806330e10425116100f457806330e10425146101a757806335c34ae9146101c757806336568abe146101da5780634ac0326e146101ed5780635026f42b1461021057600080fd5b806301ffc9a714610126578063248a9ca31461014e5780632b446be91461017f5780632f2ff15d14610192575b600080fd5b6101396101343660046110c4565b6102fc565b60405190151581526020015b60405180910390f35b61017161015c3660046110f5565b60009081526020819052604090206001015490565b604051908152602001610145565b61013961018d366004611139565b610333565b6101a56101a036600461116c565b61039a565b005b6101716101b536600461118f565b60036020526000908152604090205481565b6101396101d53660046111aa565b6103c5565b6101a56101e836600461116c565b6107f5565b6101396101fb36600461118f565b60016020526000908152604090205460ff1681565b61017161021e3660046111aa565b61082d565b6101a56102313660046111e5565b610895565b61013961024436600461116c565b610925565b610171600081565b61017160008051602061141383398151915281565b6101a561027436600461118f565b61094e565b610171610287366004611139565b600260209081526000928352604080842090915290825290205481565b6102b76102b236600461118f565b610a43565b604080519215158352602083019190915201610145565b6101a56102dc36600461116c565b610ac1565b610171600a81565b6101a56102f736600461118f565b610ae6565b60006001600160e01b03198216637965db0b60e01b148061032d57506301ffc9a760e01b6001600160e01b03198316145b92915050565b6001600160a01b03821660009081526002602052604081208190818460038111156103605761036061120f565b60038111156103715761037161120f565b8152602001908152602001600020549050600a8161038f919061123b565b421015949350505050565b6000828152602081905260409020600101546103b581610b7b565b6103bf8383610b88565b50505050565b60006001816103d7602085018561118f565b60038111156103e8576103e861120f565b60038111156103f9576103f961120f565b815260208101919091526040016000205460ff166104565760405162461bcd60e51b815260206004820152601560248201527411d85b59481d1e5c19481b9bdd08195b98589b1959605a1b60448201526064015b60405180910390fd5b6000610465602084018461118f565b60038111156104765761047661120f565b036104b75760405162461bcd60e51b8152602060048201526011602482015270496e76616c69642067616d65207479706560781b604482015260640161044d565b60006002816104cc604086016020870161124e565b6001600160a01b031681526020808201929092526040016000908120916104f59086018661118f565b60038111156105065761050661120f565b60038111156105175761051761120f565b8152602001908152602001600020549050600a81610535919061123b565b4210156105845760405162461bcd60e51b815260206004820152601860248201527f546f6f206672657175656e74207375626d697373696f6e730000000000000000604482015260640161044d565b4260026000610599604087016020880161124e565b6001600160a01b031681526020808201929092526040016000908120916105c29087018761118f565b60038111156105d3576105d361120f565b60038111156105e4576105e461120f565b8152602001908152602001600020819055506003600084600001602081019061060d919061118f565b600381111561061e5761061e61120f565b600381111561062f5761062f61120f565b815260200190815260200160002054836040013511156106895760405162461bcd60e51b815260206004820152601560248201527453636f72652065786365656473206d6178696d756d60581b604482015260640161044d565b42836060013511156106d15760405162461bcd60e51b81526020600482015260116024820152700496e76616c69642074696d657374616d7607c1b604482015260640161044d565b6106de6201518042611269565b836060013510156107255760405162461bcd60e51b8152602060048201526011602482015270151a5b595cdd185b5c081d1bdbc81bdb19607a1b604482015260640161044d565b60006107308461082d565b90508360800135811461077a5760405162461bcd60e51b815260206004820152601260248201527108ec2daca40d0c2e6d040dad2e6dac2e8c6d60731b604482015260640161044d565b61078384610c1a565b610793604085016020860161124e565b6001600160a01b03167f1e9c851913c59ce225051a04a5685a51e8f1dc7f4f54fa7ab6976ec8d21f56ad6107ca602087018761118f565b866040013587608001356040516107e39392919061129e565b60405180910390a25060019392505050565b6001600160a01b038116331461081e5760405163334bd91960e11b815260040160405180910390fd5b6108288282611020565b505050565b600061083c602083018361118f565b61084c604084016020850161124e565b6040840135606085013561086360a08701876112bd565b6040516020016108789695949392919061130e565b604051602081830303815290604052805190602001209050919050565b6000805160206114138339815191526108ad81610b7b565b81600360008560038111156108c4576108c461120f565b60038111156108d5576108d561120f565b8152602001908152602001600020819055507f4e15c40ee9242df13e261a3c7729bdfd091e0c966fda0f3b95b0325b52b82c29838360405161091892919061138d565b60405180910390a1505050565b6000918252602082815260408084206001600160a01b0393909316845291905290205460ff1690565b60008051602061141383398151915261096681610b7b565b600082600381111561097a5761097a61120f565b036109bb5760405162461bcd60e51b8152602060048201526011602482015270496e76616c69642067616d65207479706560781b604482015260640161044d565b60018060008460038111156109d2576109d261120f565b60038111156109e3576109e361120f565b815260200190815260200160002060006101000a81548160ff0219169083151502179055507f8a4c3e88784cd877ada8be9f43efc736c434652cbd9ac3fc2ca00795bd5da9e782604051610a3791906113a8565b60405180910390a15050565b60008060016000846003811115610a5c57610a5c61120f565b6003811115610a6d57610a6d61120f565b8152602081019190915260400160009081205460ff16906003908582811115610a9857610a9861120f565b6003811115610aa957610aa961120f565b81526020019081526020016000205491509150915091565b600082815260208190526040902060010154610adc81610b7b565b6103bf8383611020565b600080516020611413833981519152610afe81610b7b565b600060016000846003811115610b1657610b1661120f565b6003811115610b2757610b2761120f565b815260200190815260200160002060006101000a81548160ff0219169083151502179055507ff57acfb7bbc2a8ccb2061f1e6f82ad5fd4bed847d0fcb39d9f40a0ab0eda108a82604051610a3791906113a8565b610b85813361108b565b50565b6000610b948383610925565b610c12576000838152602081815260408083206001600160a01b03861684529091529020805460ff19166001179055610bca3390565b6001600160a01b0316826001600160a01b0316847f2f8788117e7eff1d82e926ec794901d17c78024a50270940304540a733656f0d60405160405180910390a450600161032d565b50600061032d565b6001610c29602083018361118f565b6003811115610c3a57610c3a61120f565b03610d59576001610c4e60a08301836112bd565b90501015610c6e5760405162461bcd60e51b815260040161044d906113b6565b6000610c7d60a08301836112bd565b6000818110610c8e57610c8e6113e5565b905060200201359050600081118015610ca8575060058111155b610cec5760405162461bcd60e51b8152602060048201526015602482015274125b9d985b1a5908185d1d195b5c1d0818dbdd5b9d605a1b604482015260640161044d565b6000610cf9826006611269565b610d049060146113fb565b9050808360400135146108285760405162461bcd60e51b815260206004820152601d60248201527f53636f726520646f6573206e6f74206d6174636820617474656d707473000000604482015260640161044d565b6002610d68602083018361118f565b6003811115610d7957610d7961120f565b03610f09576003610d8d60a08301836112bd565b90501015610dad5760405162461bcd60e51b815260040161044d906113b6565b6000610dbc60a08301836112bd565b6000818110610dcd57610dcd6113e5565b9050602002013590506000828060a00190610de891906112bd565b6001818110610df957610df96113e5565b9050602002013590506000838060a00190610e1491906112bd565b6002818110610e2557610e256113e5565b905060200201359050808284610e3b919061123b565b610e45919061123b565b600a14610e8b5760405162461bcd60e51b8152602060048201526014602482015273496e76616c696420746f74616c20726f756e647360601b604482015260640161044d565b6000610e988360056113fb565b610ea385600a6113fb565b610ead919061123b565b905080856040013514610f025760405162461bcd60e51b815260206004820152601c60248201527f53636f726520646f6573206e6f74206d6174636820726573756c747300000000604482015260640161044d565b5050505050565b6003610f18602083018361118f565b6003811115610f2957610f2961120f565b03610b85576001610f3d60a08301836112bd565b90501015610f5d5760405162461bcd60e51b815260040161044d906113b6565b6000610f6c60a08301836112bd565b6000818110610f7d57610f7d6113e5565b9050602002013590506032811115610fc95760405162461bcd60e51b815260206004820152600f60248201526e546f6f206d616e7920636c69636b7360881b604482015260640161044d565b8082604001351461101c5760405162461bcd60e51b815260206004820181905260248201527f53636f726520646f6573206e6f74206d6174636820636c69636b20636f756e74604482015260640161044d565b5050565b600061102c8383610925565b15610c12576000838152602081815260408083206001600160a01b0386168085529252808320805460ff1916905551339286917ff6391f5c32d9c69d2a47ea670b442974b53935d1edc7fd64eb21e047a839171b9190a450600161032d565b6110958282610925565b61101c5760405163e2517d3f60e01b81526001600160a01b03821660048201526024810183905260440161044d565b6000602082840312156110d657600080fd5b81356001600160e01b0319811681146110ee57600080fd5b9392505050565b60006020828403121561110757600080fd5b5035919050565b80356001600160a01b038116811461112557600080fd5b919050565b80356004811061112557600080fd5b6000806040838503121561114c57600080fd5b6111558361110e565b91506111636020840161112a565b90509250929050565b6000806040838503121561117f57600080fd5b823591506111636020840161110e565b6000602082840312156111a157600080fd5b6110ee8261112a565b6000602082840312156111bc57600080fd5b813567ffffffffffffffff8111156111d357600080fd5b820160c081850312156110ee57600080fd5b600080604083850312156111f857600080fd5b6112018361112a565b946020939093013593505050565b634e487b7160e01b600052602160045260246000fd5b634e487b7160e01b600052601160045260246000fd5b8082018082111561032d5761032d611225565b60006020828403121561126057600080fd5b6110ee8261110e565b8181038181111561032d5761032d611225565b6004811061129a57634e487b7160e01b600052602160045260246000fd5b9052565b606081016112ac828661127c565b602082019390935260400152919050565b6000808335601e198436030181126112d457600080fd5b83018035915067ffffffffffffffff8211156112ef57600080fd5b6020019150600581901b360382131561130757600080fd5b9250929050565b60006004881061132e57634e487b7160e01b600052602160045260246000fd5b60f888901b8252606087901b6bffffffffffffffffffffffff1916600183015260158201869052603582018590526001600160fb1b0383111561137057600080fd5b8260051b8085605585013791909101605501979650505050505050565b6040810161139b828561127c565b8260208301529392505050565b6020810161032d828461127c565b6020808252601590820152744d697373696e672067616d65206d6574616461746160581b604082015260600190565b634e487b7160e01b600052603260045260246000fd5b808202811582820484141761032d5761032d61122556fe9b7946abd96dccbe6cfc6cc2c13300ab429d93e16fa72dc459eeccda73817f08a2646970667358221220f0b3ab95296ef6f3e7b2b18477415820420eda244474767a7d6afbf5afb7cd1364736f6c634300081800338a4c3e88784cd877ada8be9f43efc736c434652cbd9ac3fc2ca00795bd5da9e7",
  "linkReferences": {},
  "deployedLinkReferences": {}
}