{
  "_format": "hh-sol-artifact-1",
  "contractName": "GameRegistry",
  "sourceName": "contracts/GameRegistry.sol",
  "abi": [
    {
      "inputs": [],
      "stateMutability": "nonpayable",
      "type": "constructor"
    },
    {
      "inputs": [],
      "name": "AccessControlBadConfirmation",
      "type": "error"
    },
    {
      "inputs": [
        {
          "internalType": "address",
          "name": "account",
          "type": "address"
        },
        {
          "internalType": "bytes32",
          "name": "neededRole",
          "type": "bytes32"
        }
      ],
      "name": "AccessControlUnauthorizedAccount",
      "type": "error"
    },
    {
      "anonymous": false,
      "inputs": [
        {
          "indexed": false,
          "internalType": "enum Types.GameType",
          "name": "gameType",
          "type": "uint8"
        }
      ],
      "name": "GameDisabled",
      "type": "event"
    },
    {
      "anonymous": false,
      "inputs": [
        {
          "indexed": false,
          "internalType": "enum Types.GameType",
          "name": "gameType",
          "type": "uint8"
        }
      ],
      "name": "GameEnabled",
      "type": "event"
    },
    {
      "anonymous": false,
      "inputs": [
        {
          "indexed": true,
          "internalType": "address",
          "name": "player",
          "type": "address"
        },
        {
          "indexed": false,
          "internalType": "enum Types.GameType",
          "name": "gameType",
          "type": "uint8"
        },
        {
          "indexed": false,
          "internalType": "uint256",
          "name": "score",
          "type": "uint256"
        },
        {
          "indexed": false,
          "internalType": "bytes32",
          "name": "gameHash",
          "type": "bytes32"
        }
      ],
      "name": "GameResultVerified",
      "type": "event"
    },
    {
      "anonymous": false,
      "inputs": [
        {
          "indexed": true,
          "internalType": "bytes32",
          "name": "role",
          "type": "bytes32"
        },
        {
          "indexed": true,
          "internalType": "bytes32",
          "name": "previousAdminRole",
          "type": "bytes32"
        },
        {
          "indexed": true,
          "internalType": "bytes32",
          "name": "newAdminRole",
          "type": "bytes32"
        }
      ],
      "name": "RoleAdminChanged",
      "type": "event"
    },
    {
      "anonymous": false,
      "inputs": [
        {
          "indexed": true,
          "internalType": "bytes32",
          "name": "role",
          "type": "bytes32"
        },
        {
          "indexed": true,
          "internalType": "address",
          "name": "account",
          "type": "address"
        },
        {
          "indexed": true,
          "internalType": "address",
          "name": "sender",
          "type": "address"
        }
      ],
      "name": "RoleGranted",
      "type": "event"
    },
    {
      "anonymous": false,
      "inputs": [
        {
          "indexed": true,
          "internalType": "bytes32",
          "name": "role",
          "type": "bytes32"
        },
        {
          "indexed": true,
          "internalType": "address",
          "name": "account",
          "type": "address"
        },
        {
          "indexed": true,
          "internalType": "address",
          "name": "sender",
          "type": "address"
        }
      ],
      "name": "RoleRevoked",
      "type": "event"
    },
    {
      "inputs": [],
      "name": "DEFAULT_ADMIN_ROLE",
      "outputs": [
        {
          "internalType": "bytes32",
          "name": "",
          "type": "bytes32"
        }
      ],
      "stateMutability": "view",
      "type": "function"
    },
    {
      "inputs": [],
      "name": "GAME_ADMIN_ROLE",
      "outputs": [
        {
          "internalType": "bytes32",
          "name": "",
          "type": "bytes32"
        }
      ],
      "stateMutability": "view",
      "type": "function"
    },
    {
      "inputs": [],
      "name": "MIN_GAME_INTERVAL",
      "outputs": [
        {
          "internalType": "uint256",
          "name": "",
          "type": "uint256"
        }
      ],
      "stateMutability": "view",
      "type": "function"
    },
    {
      "inputs": [
        {
          "internalType": "address",
          "name": "player",
          "type": "address"
        },
        {
          "internalType": "enum Types.GameType",
          "name": "gameType",
          "type": "uint8"
        }
      ],
      "name": "canPlayerPlay",
      "outputs": [
        {
          "internalType": "bool",
          "name": "",
          "type": "bool"
        }
      ],
      "stateMutability": "view",
      "type": "function"
    },
    {
      "inputs": [
        {
          "components": [
            {
              "internalType": "enum Types.GameType",
              "name": "gameType",
              "type": "uint8"
            },
            {
              "internalType": "address",
              "name": "player",
              "type": "address"
            },
            {
              "internalType": "uint256",
              "name": "score",
              "type": "uint256"
            },
            {
              "internalType": "uint256",
              "name": "timestamp",
              "type": "uint256"
            },
            {
              "internalType": "bytes32",
              "name": "gameHash",
              "type": "bytes32"
            },
            {
              "internalType": "uint256[]",
              "name": "metadata",
              "type": "uint256[]"
            }
          ],
          "internalType": "struct Types.GameResult",
          "name": "result",
          "type": "tuple"
        }
      ],
      "name": "computeGameHash",
      "outputs": [
        {
          "internalType": "bytes32",
          "name": "",
          "type": "bytes32"
        }
      ],
      "stateMutability": "pure",
      "type": "function"
    },
    {
      "inputs": [
        {
          "internalType": "enum Types.GameType",
          "name": "gameType",
          "type": "uint8"
        }
      ],
      "name": "disableGame",
      "outputs": [],
      "stateMutability": "nonpayable",
      "type": "function"
    },
    {
      "inputs": [
        {
          "internalType": "enum Types.GameType",
          "name": "gameType",
          "type": "uint8"
        }
      ],
      "name": "enableGame",
      "outputs": [],
      "stateMutability": "nonpayable",
      "type": "function"
    },
    {
      "inputs": [
        {
          "internalType": "enum Types.GameType",
          "name": "",
          "type": "uint8"
        }
      ],
      "name": "gameEnabled",
      "outputs": [
        {
          "internalType": "bool",
          "name": "",
          "type": "bool"
        }
      ],
      "stateMutability": "view",
      "type": "function"
    },
    {
      "inputs": [
        {
          "internalType": "enum Types.GameType",
          "name": "gameType",
          "type": "uint8"
        }
      ],
      "name": "getGameInfo",
      "outputs": [
        {
          "internalType": "bool",
          "name": "enabled",
          "type": "bool"
        }
      ],
      "stateMutability": "view",
      "type": "function"
    },
    {
      "inputs": [
        {
          "internalType": "bytes32",
          "name": "role",
          "type": "bytes32"
        }
      ],
      "name": "getRoleAdmin",
      "outputs": [
        {
          "internalType": "bytes32",
          "name": "",
          "type": "bytes32"
        }
      ],
      "stateMutability": "view",
      "type": "function"
    },
    {
      "inputs": [
        {
          "internalType": "bytes32",
          "name": "role",
          "type": "bytes32"
        },
        {
          "internalType": "address",
          "name": "account",
          "type": "address"
        }
      ],
      "name": "grantRole",
      "outputs": [],
      "stateMutability": "nonpayable",
      "type": "function"
    },
    {
      "inputs": [
        {
          "internalType": "bytes32",
          "name": "role",
          "type": "bytes32"
        },
        {
          "internalType": "address",
          "name": "account",
          "type": "address"
        }
      ],
      "name": "hasRole",
      "outputs": [
        {
          "internalType": "bool",
          "name": "",
          "type": "bool"
        }
      ],
      "stateMutability": "view",
      "type": "function"
    },
    {
      "inputs": [
        {
          "internalType": "address",
          "name": "",
          "type": "address"
        },
        {
          "internalType": "enum Types.GameType",
          "name": "",
          "type": "uint8"
        }
      ],
      "name": "lastPlayedTime",
      "outputs": [
        {
          "internalType": "uint256",
          "name": "",
          "type": "uint256"
        }
      ],
      "stateMutability": "view",
      "type": "function"
    },
    {
      "inputs": [
        {
          "internalType": "bytes32",
          "name": "role",
          "type": "bytes32"
        },
        {
          "internalType": "address",
          "name": "callerConfirmation",
          "type": "address"
        }
      ],
      "name": "renounceRole",
      "outputs": [],
      "stateMutability": "nonpayable",
      "type": "function"
    },
    {
      "inputs": [
        {
          "internalType": "bytes32",
          "name": "role",
          "type": "bytes32"
        },
        {
          "internalType": "address",
          "name": "account",
          "type": "address"
        }
      ],
      "name": "revokeRole",
      "outputs": [],
      "stateMutability": "nonpayable",
      "type": "function"
    },
    {
      "inputs": [
        {
          "internalType": "bytes4",
          "name": "interfaceId",
          "type": "bytes4"
        }
      ],
      "name": "supportsInterface",
      "outputs": [
        {
          "internalType": "bool",
          "name": "",
          "type": "bool"
        }
      ],
      "stateMutability": "view",
      "type": "function"
    },
    {
      "inputs": [
        {
          "components": [
            {
              "internalType": "enum Types.GameType",
              "name": "gameType",
              "type": "uint8"
            },
            {
              "internalType": "address",
              "name": "player",
              "type": "address"
            },
            {
              "internalType": "uint256",
              "name": "score",
              "type": "uint256"
            },
            {
              "internalType": "uint256",
              "name": "timestamp",
              "type": "uint256"
            },
            {
              "internalType": "bytes32",
              "name": "gameHash",
              "type": "bytes32"
            },
            {
              "internalType": "uint256[]",
              "name": "metadata",
              "type": "uint256[]"
            }
          ],
          "internalType": "struct Types.GameResult",
          "name": "result",
          "type": "tuple"
        }
      ],
      "name": "verifyGameResult",
      "outputs": [
        {
          "internalType": "bool",
          "name": "",
          "type": "bool"
        }
      ],
      "stateMutability": "nonpayable",
      "type": "function"
    }
  ],
  "bytecode": "0x60806040523480156200001157600080fd5b506200001f6000336200022a565b506200004c7f9b7946abd96dccbe6cfc6cc2c13300ab429d93e16fa72dc459eeccda73817f08336200022a565b506200007a7f9b7946abd96dccbe6cfc6cc2c13300ab429d93e16fa72dc459eeccda73817f086000620002d9565b600160208190527fcc69885fda6bcc1a4ace058b4a62bf5e179ea78fd58a1ccd71c22cc9b688792f805460ff1990811683179091557fd9d16d34ffb15ba3a3d852f0d403e2ce1d691fb54de27ac87cd2f993f3ec330f80548216831790557f7dfe757ecd65cbd7922a9c0161e935dd7fdbcc0e999689c7d31633896b1fc60b80548216831790557fedc95719e9a3b28dd8e80877cb5880a9be7de1a13fc8b05e7999683b6b567643805482168317905560056000527fe2689cd4a84e23ad2f564004f1c9013e9589d260bde6380aba3ca7e09e4df40c80549091168217905560405160008051602062001a9583398151915291620001789162000324565b60405180910390a160008051602062001a958339815191526002604051620001a1919062000324565b60405180910390a160008051602062001a958339815191526003604051620001ca919062000324565b60405180910390a160008051602062001a958339815191526004604051620001f3919062000324565b60405180910390a160008051602062001a9583398151915260056040516200021c919062000324565b60405180910390a16200034d565b6000828152602081815260408083206001600160a01b038516845290915281205460ff16620002cf576000838152602081815260408083206001600160a01b03861684529091529020805460ff19166001179055620002863390565b6001600160a01b0316826001600160a01b0316847f2f8788117e7eff1d82e926ec794901d17c78024a50270940304540a733656f0d60405160405180910390a4506001620002d3565b5060005b92915050565b600082815260208190526040808220600101805490849055905190918391839186917fbd79b86ffe0ab8e8776151514217cd7cacd52c909f66475c3af44e129f0b00ff9190a4505050565b60208101600683106200034757634e487b7160e01b600052602160045260246000fd5b91905290565b611738806200035d6000396000f3fe608060405234801561001057600080fd5b506004361061010b5760003560e01c806391d14854116100a2578063c54a41eb11610071578063c54a41eb14610242578063ce863cd81461026d578063d547741f14610280578063e84b278014610293578063f010b5411461029b57600080fd5b806391d14854146101ed578063a217fddf14610200578063be22d27d14610208578063c2c9a8841461022f57600080fd5b806335c34ae9116100de57806335c34ae91461019157806336568abe146101a45780634ac0326e146101b75780635026f42b146101da57600080fd5b806301ffc9a714610110578063248a9ca3146101385780632b446be9146101695780632f2ff15d1461017c575b600080fd5b61012361011e3660046113f9565b6102ae565b60405190151581526020015b60405180910390f35b61015b61014636600461142a565b60009081526020819052604090206001015490565b60405190815260200161012f565b61012361017736600461146e565b6102e5565b61018f61018a3660046114a1565b61034c565b005b61012361019f3660046114c4565b610377565b61018f6101b23660046114a1565b610713565b6101236101c53660046114ff565b60016020526000908152604090205460ff1681565b61015b6101e83660046114c4565b61074b565b6101236101fb3660046114a1565b6107b3565b61015b600081565b61015b7f9b7946abd96dccbe6cfc6cc2c13300ab429d93e16fa72dc459eeccda73817f0881565b61018f61023d3660046114ff565b6107dc565b61015b61025036600461146e565b600260209081526000928352604080842090915290825290205481565b61012361027b3660046114ff565b6108e3565b61018f61028e3660046114a1565b610926565b61015b600a81565b61018f6102a93660046114ff565b61094b565b60006001600160e01b03198216637965db0b60e01b14806102df57506301ffc9a760e01b6001600160e01b03198316145b92915050565b6001600160a01b03821660009081526002602052604081208190818460058111156103125761031261151a565b60058111156103235761032361151a565b8152602001908152602001600020549050600a816103419190611546565b421015949350505050565b600082815260208190526040902060010154610367816109f2565b61037183836109ff565b50505050565b600060018161038960208501856114ff565b600581111561039a5761039a61151a565b60058111156103ab576103ab61151a565b815260208101919091526040016000205460ff166104085760405162461bcd60e51b815260206004820152601560248201527411d85b59481d1e5c19481b9bdd08195b98589b1959605a1b60448201526064015b60405180910390fd5b600061041760208401846114ff565b60058111156104285761042861151a565b036104695760405162461bcd60e51b8152602060048201526011602482015270496e76616c69642067616d65207479706560781b60448201526064016103ff565b600060028161047e6040860160208701611559565b6001600160a01b031681526020808201929092526040016000908120916104a7908601866114ff565b60058111156104b8576104b861151a565b60058111156104c9576104c961151a565b8152602001908152602001600020549050600a816104e79190611546565b4210156105365760405162461bcd60e51b815260206004820152601860248201527f546f6f206672657175656e74207375626d697373696f6e73000000000000000060448201526064016103ff565b426002600061054b6040870160208801611559565b6001600160a01b03168152602080820192909252604001600090812091610574908701876114ff565b60058111156105855761058561151a565b60058111156105965761059661151a565b815260208101919091526040016000205542606084013511156105ef5760405162461bcd60e51b81526020600482015260116024820152700496e76616c69642074696d657374616d7607c1b60448201526064016103ff565b6105fc6201518042611574565b836060013510156106435760405162461bcd60e51b8152602060048201526011602482015270151a5b595cdd185b5c081d1bdbc81bdb19607a1b60448201526064016103ff565b600061064e8461074b565b9050836080013581146106985760405162461bcd60e51b815260206004820152601260248201527108ec2daca40d0c2e6d040dad2e6dac2e8c6d60731b60448201526064016103ff565b6106a184610a91565b6106b16040850160208601611559565b6001600160a01b03167f1e9c851913c59ce225051a04a5685a51e8f1dc7f4f54fa7ab6976ec8d21f56ad6106e860208701876114ff565b86604001358760800135604051610701939291906115a9565b60405180910390a25060019392505050565b6001600160a01b038116331461073c5760405163334bd91960e11b815260040160405180910390fd5b6107468282611355565b505050565b600061075a60208301836114ff565b61076a6040840160208501611559565b6040840135606085013561078160a08701876115c8565b60405160200161079696959493929190611619565b604051602081830303815290604052805190602001209050919050565b6000918252602082815260408084206001600160a01b0393909316845291905290205460ff1690565b7f9b7946abd96dccbe6cfc6cc2c13300ab429d93e16fa72dc459eeccda73817f08610806816109f2565b600082600581111561081a5761081a61151a565b0361085b5760405162461bcd60e51b8152602060048201526011602482015270496e76616c69642067616d65207479706560781b60448201526064016103ff565b60018060008460058111156108725761087261151a565b60058111156108835761088361151a565b815260200190815260200160002060006101000a81548160ff0219169083151502179055507f8a4c3e88784cd877ada8be9f43efc736c434652cbd9ac3fc2ca00795bd5da9e7826040516108d79190611698565b60405180910390a15050565b6000600160008360058111156108fb576108fb61151a565b600581111561090c5761090c61151a565b815260208101919091526040016000205460ff1692915050565b600082815260208190526040902060010154610941816109f2565b6103718383611355565b7f9b7946abd96dccbe6cfc6cc2c13300ab429d93e16fa72dc459eeccda73817f08610975816109f2565b60006001600084600581111561098d5761098d61151a565b600581111561099e5761099e61151a565b815260200190815260200160002060006101000a81548160ff0219169083151502179055507ff57acfb7bbc2a8ccb2061f1e6f82ad5fd4bed847d0fcb39d9f40a0ab0eda108a826040516108d79190611698565b6109fc81336113c0565b50565b6000610a0b83836107b3565b610a89576000838152602081815260408083206001600160a01b03861684529091529020805460ff19166001179055610a413390565b6001600160a01b0316826001600160a01b0316847f2f8788117e7eff1d82e926ec794901d17c78024a50270940304540a733656f0d60405160405180910390a45060016102df565b5060006102df565b6001610aa060208301836114ff565b6005811115610ab157610ab161151a565b03610bd0576001610ac560a08301836115c8565b90501015610ae55760405162461bcd60e51b81526004016103ff906116a6565b6000610af460a08301836115c8565b6000818110610b0557610b056116d5565b905060200201359050600081118015610b1f575060058111155b610b635760405162461bcd60e51b8152602060048201526015602482015274125b9d985b1a5908185d1d195b5c1d0818dbdd5b9d605a1b60448201526064016103ff565b6000610b70826006611574565b610b7b9060146116eb565b9050808360400135146107465760405162461bcd60e51b815260206004820152601d60248201527f53636f726520646f6573206e6f74206d6174636820617474656d70747300000060448201526064016103ff565b6002610bdf60208301836114ff565b6005811115610bf057610bf061151a565b03610d80576003610c0460a08301836115c8565b90501015610c245760405162461bcd60e51b81526004016103ff906116a6565b6000610c3360a08301836115c8565b6000818110610c4457610c446116d5565b9050602002013590506000828060a00190610c5f91906115c8565b6001818110610c7057610c706116d5565b9050602002013590506000838060a00190610c8b91906115c8565b6002818110610c9c57610c9c6116d5565b905060200201359050808284610cb29190611546565b610cbc9190611546565b600a14610d025760405162461bcd60e51b8152602060048201526014602482015273496e76616c696420746f74616c20726f756e647360601b60448201526064016103ff565b6000610d0f8360056116eb565b610d1a85600a6116eb565b610d249190611546565b905080856040013514610d795760405162461bcd60e51b815260206004820152601c60248201527f53636f726520646f6573206e6f74206d6174636820726573756c74730000000060448201526064016103ff565b5050505050565b6003610d8f60208301836114ff565b6005811115610da057610da061151a565b03610e97576001610db460a08301836115c8565b90501015610dd45760405162461bcd60e51b81526004016103ff906116a6565b6000610de360a08301836115c8565b6000818110610df457610df46116d5565b9050602002013590506032811115610e405760405162461bcd60e51b815260206004820152600f60248201526e546f6f206d616e7920636c69636b7360881b60448201526064016103ff565b80826040013514610e935760405162461bcd60e51b815260206004820181905260248201527f53636f726520646f6573206e6f74206d6174636820636c69636b20636f756e7460448201526064016103ff565b5050565b6005610ea660208301836114ff565b6005811115610eb757610eb761151a565b03611102576003610ecb60a08301836115c8565b90501015610eeb5760405162461bcd60e51b81526004016103ff906116a6565b6000610efa60a08301836115c8565b6000818110610f0b57610f0b6116d5565b9050602002013590506000828060a00190610f2691906115c8565b6001818110610f3757610f376116d5565b9050602002013590506000838060a00190610f5291906115c8565b6002818110610f6357610f636116d5565b9050602002013590506001821015610fad5760405162461bcd60e51b815260206004820152600d60248201526c125b9d985b1a59081b195d995b609a1b60448201526064016103ff565b6001811015610ff25760405162461bcd60e51b8152602060048201526011602482015270496e76616c6964206d617820636f6d626f60781b60448201526064016103ff565b60006110008361012c6116eb565b90508084101561104c5760405162461bcd60e51b815260206004820152601760248201527614d8dbdc99481d1bdbc81b1bddc8199bdc881b195d995b604a1b60448201526064016103ff565b600061105a846103e86116eb565b9050808511156110a75760405162461bcd60e51b815260206004820152601860248201527714d8dbdc99481d1bdbc81a1a59da08199bdc881b195d995b60421b60448201526064016103ff565b848660400135146110fa5760405162461bcd60e51b815260206004820152601c60248201527f53636f7265206d69736d617463682077697468206d657461646174610000000060448201526064016103ff565b505050505050565b600461111160208301836114ff565b60058111156111225761112261151a565b036109fc57600461113660a08301836115c8565b905010156111565760405162461bcd60e51b81526004016103ff906116a6565b600061116560a08301836115c8565b6000818110611176576111766116d5565b9050602002013590506000828060a0019061119191906115c8565b60018181106111a2576111a26116d5565b9050602002013590506000838060a001906111bd91906115c8565b60028181106111ce576111ce6116d5565b9050602002013590506000848060a001906111e991906115c8565b60038181106111fa576111fa6116d5565b90506020020135905060018310156112445760405162461bcd60e51b815260206004820152600d60248201526c125b9d985b1a59081b195d995b609a1b60448201526064016103ff565b6000611252846103e86116eb565b90508085101561129e5760405162461bcd60e51b815260206004820152601760248201527614d8dbdc99481d1bdbc81b1bddc8199bdc881b195d995b604a1b60448201526064016103ff565b60006112ac856113886116eb565b9050808611156112f95760405162461bcd60e51b815260206004820152601860248201527714d8dbdc99481d1bdbc81a1a59da08199bdc881b195d995b60421b60448201526064016103ff565b8587604001351461134c5760405162461bcd60e51b815260206004820152601c60248201527f53636f7265206d69736d617463682077697468206d657461646174610000000060448201526064016103ff565b50505050505050565b600061136183836107b3565b15610a89576000838152602081815260408083206001600160a01b0386168085529252808320805460ff1916905551339286917ff6391f5c32d9c69d2a47ea670b442974b53935d1edc7fd64eb21e047a839171b9190a45060016102df565b6113ca82826107b3565b610e935760405163e2517d3f60e01b81526001600160a01b0382166004820152602481018390526044016103ff565b60006020828403121561140b57600080fd5b81356001600160e01b03198116811461142357600080fd5b9392505050565b60006020828403121561143c57600080fd5b5035919050565b80356001600160a01b038116811461145a57600080fd5b919050565b80356006811061145a57600080fd5b6000806040838503121561148157600080fd5b61148a83611443565b91506114986020840161145f565b90509250929050565b600080604083850312156114b457600080fd5b8235915061149860208401611443565b6000602082840312156114d657600080fd5b813567ffffffffffffffff8111156114ed57600080fd5b820160c0818503121561142357600080fd5b60006020828403121561151157600080fd5b6114238261145f565b634e487b7160e01b600052602160045260246000fd5b634e487b7160e01b600052601160045260246000fd5b808201808211156102df576102df611530565b60006020828403121561156b57600080fd5b61142382611443565b818103818111156102df576102df611530565b600681106115a557634e487b7160e01b600052602160045260246000fd5b9052565b606081016115b78286611587565b602082019390935260400152919050565b6000808335601e198436030181126115df57600080fd5b83018035915067ffffffffffffffff8211156115fa57600080fd5b6020019150600581901b360382131561161257600080fd5b9250929050565b60006006881061163957634e487b7160e01b600052602160045260246000fd5b60f888901b8252606087901b6bffffffffffffffffffffffff1916600183015260158201869052603582018590526001600160fb1b0383111561167b57600080fd5b8260051b8085605585013791909101605501979650505050505050565b602081016102df8284611587565b6020808252601590820152744d697373696e672067616d65206d6574616461746160581b604082015260600190565b634e487b7160e01b600052603260045260246000fd5b80820281158282048414176102df576102df61153056fea264697066735822122071911faaa32fe4fd92bf2974d5a4e998fc6befa556c841b2ec1754119df576fb64736f6c634300081800338a4c3e88784cd877ada8be9f43efc736c434652cbd9ac3fc2ca00795bd5da9e7",
  "linkReferences": {},
  "deployedLinkReferences": {}
}