{
  "_format": "hh-sol-artifact-1",
  "contractName": "GameRegistry",
  "sourceName": "contracts/GameRegistry.sol",
  "abi": [
    {
      "inputs": [],
      "stateMutability": "nonpayable",
      "type": "constructor"
    },
    {
      "inputs": [],
      "name": "AccessControlBadConfirmation",
      "type": "error"
    },
    {
      "inputs": [
        {
          "internalType": "address",
          "name": "account",
          "type": "address"
        },
        {
          "internalType": "bytes32",
          "name": "neededRole",
          "type": "bytes32"
        }
      ],
      "name": "AccessControlUnauthorizedAccount",
      "type": "error"
    },
    {
      "anonymous": false,
      "inputs": [
        {
          "indexed": false,
          "internalType": "enum Types.GameType",
          "name": "gameType",
          "type": "uint8"
        }
      ],
      "name": "GameDisabled",
      "type": "event"
    },
    {
      "anonymous": false,
      "inputs": [
        {
          "indexed": false,
          "internalType": "enum Types.GameType",
          "name": "gameType",
          "type": "uint8"
        }
      ],
      "name": "GameEnabled",
      "type": "event"
    },
    {
      "anonymous": false,
      "inputs": [
        {
          "indexed": true,
          "internalType": "address",
          "name": "player",
          "type": "address"
        },
        {
          "indexed": false,
          "internalType": "enum Types.GameType",
          "name": "gameType",
          "type": "uint8"
        },
        {
          "indexed": false,
          "internalType": "uint256",
          "name": "score",
          "type": "uint256"
        },
        {
          "indexed": false,
          "internalType": "bytes32",
          "name": "gameHash",
          "type": "bytes32"
        }
      ],
      "name": "GameResultVerified",
      "type": "event"
    },
    {
      "anonymous": false,
      "inputs": [
        {
          "indexed": false,
          "internalType": "enum Types.GameType",
          "name": "gameType",
          "type": "uint8"
        },
        {
          "indexed": false,
          "internalType": "uint256",
          "name": "maxScore",
          "type": "uint256"
        }
      ],
      "name": "MaxScoreUpdated",
      "type": "event"
    },
    {
      "anonymous": false,
      "inputs": [
        {
          "indexed": true,
          "internalType": "bytes32",
          "name": "role",
          "type": "bytes32"
        },
        {
          "indexed": true,
          "internalType": "bytes32",
          "name": "previousAdminRole",
          "type": "bytes32"
        },
        {
          "indexed": true,
          "internalType": "bytes32",
          "name": "newAdminRole",
          "type": "bytes32"
        }
      ],
      "name": "RoleAdminChanged",
      "type": "event"
    },
    {
      "anonymous": false,
      "inputs": [
        {
          "indexed": true,
          "internalType": "bytes32",
          "name": "role",
          "type": "bytes32"
        },
        {
          "indexed": true,
          "internalType": "address",
          "name": "account",
          "type": "address"
        },
        {
          "indexed": true,
          "internalType": "address",
          "name": "sender",
          "type": "address"
        }
      ],
      "name": "RoleGranted",
      "type": "event"
    },
    {
      "anonymous": false,
      "inputs": [
        {
          "indexed": true,
          "internalType": "bytes32",
          "name": "role",
          "type": "bytes32"
        },
        {
          "indexed": true,
          "internalType": "address",
          "name": "account",
          "type": "address"
        },
        {
          "indexed": true,
          "internalType": "address",
          "name": "sender",
          "type": "address"
        }
      ],
      "name": "RoleRevoked",
      "type": "event"
    },
    {
      "inputs": [],
      "name": "DEFAULT_ADMIN_ROLE",
      "outputs": [
        {
          "internalType": "bytes32",
          "name": "",
          "type": "bytes32"
        }
      ],
      "stateMutability": "view",
      "type": "function"
    },
    {
      "inputs": [],
      "name": "GAME_ADMIN_ROLE",
      "outputs": [
        {
          "internalType": "bytes32",
          "name": "",
          "type": "bytes32"
        }
      ],
      "stateMutability": "view",
      "type": "function"
    },
    {
      "inputs": [],
      "name": "MIN_GAME_INTERVAL",
      "outputs": [
        {
          "internalType": "uint256",
          "name": "",
          "type": "uint256"
        }
      ],
      "stateMutability": "view",
      "type": "function"
    },
    {
      "inputs": [
        {
          "internalType": "address",
          "name": "player",
          "type": "address"
        },
        {
          "internalType": "enum Types.GameType",
          "name": "gameType",
          "type": "uint8"
        }
      ],
      "name": "canPlayerPlay",
      "outputs": [
        {
          "internalType": "bool",
          "name": "",
          "type": "bool"
        }
      ],
      "stateMutability": "view",
      "type": "function"
    },
    {
      "inputs": [
        {
          "components": [
            {
              "internalType": "enum Types.GameType",
              "name": "gameType",
              "type": "uint8"
            },
            {
              "internalType": "address",
              "name": "player",
              "type": "address"
            },
            {
              "internalType": "uint256",
              "name": "score",
              "type": "uint256"
            },
            {
              "internalType": "uint256",
              "name": "timestamp",
              "type": "uint256"
            },
            {
              "internalType": "bytes32",
              "name": "gameHash",
              "type": "bytes32"
            },
            {
              "internalType": "uint256[]",
              "name": "metadata",
              "type": "uint256[]"
            }
          ],
          "internalType": "struct Types.GameResult",
          "name": "result",
          "type": "tuple"
        }
      ],
      "name": "computeGameHash",
      "outputs": [
        {
          "internalType": "bytes32",
          "name": "",
          "type": "bytes32"
        }
      ],
      "stateMutability": "pure",
      "type": "function"
    },
    {
      "inputs": [
        {
          "internalType": "enum Types.GameType",
          "name": "gameType",
          "type": "uint8"
        }
      ],
      "name": "disableGame",
      "outputs": [],
      "stateMutability": "nonpayable",
      "type": "function"
    },
    {
      "inputs": [
        {
          "internalType": "enum Types.GameType",
          "name": "gameType",
          "type": "uint8"
        }
      ],
      "name": "enableGame",
      "outputs": [],
      "stateMutability": "nonpayable",
      "type": "function"
    },
    {
      "inputs": [
        {
          "internalType": "enum Types.GameType",
          "name": "",
          "type": "uint8"
        }
      ],
      "name": "gameEnabled",
      "outputs": [
        {
          "internalType": "bool",
          "name": "",
          "type": "bool"
        }
      ],
      "stateMutability": "view",
      "type": "function"
    },
    {
      "inputs": [
        {
          "internalType": "enum Types.GameType",
          "name": "gameType",
          "type": "uint8"
        }
      ],
      "name": "getGameInfo",
      "outputs": [
        {
          "internalType": "bool",
          "name": "enabled",
          "type": "bool"
        },
        {
          "internalType": "uint256",
          "name": "maxScore",
          "type": "uint256"
        }
      ],
      "stateMutability": "view",
      "type": "function"
    },
    {
      "inputs": [
        {
          "internalType": "bytes32",
          "name": "role",
          "type": "bytes32"
        }
      ],
      "name": "getRoleAdmin",
      "outputs": [
        {
          "internalType": "bytes32",
          "name": "",
          "type": "bytes32"
        }
      ],
      "stateMutability": "view",
      "type": "function"
    },
    {
      "inputs": [
        {
          "internalType": "bytes32",
          "name": "role",
          "type": "bytes32"
        },
        {
          "internalType": "address",
          "name": "account",
          "type": "address"
        }
      ],
      "name": "grantRole",
      "outputs": [],
      "stateMutability": "nonpayable",
      "type": "function"
    },
    {
      "inputs": [
        {
          "internalType": "bytes32",
          "name": "role",
          "type": "bytes32"
        },
        {
          "internalType": "address",
          "name": "account",
          "type": "address"
        }
      ],
      "name": "hasRole",
      "outputs": [
        {
          "internalType": "bool",
          "name": "",
          "type": "bool"
        }
      ],
      "stateMutability": "view",
      "type": "function"
    },
    {
      "inputs": [
        {
          "internalType": "address",
          "name": "",
          "type": "address"
        },
        {
          "internalType": "enum Types.GameType",
          "name": "",
          "type": "uint8"
        }
      ],
      "name": "lastPlayedTime",
      "outputs": [
        {
          "internalType": "uint256",
          "name": "",
          "type": "uint256"
        }
      ],
      "stateMutability": "view",
      "type": "function"
    },
    {
      "inputs": [
        {
          "internalType": "enum Types.GameType",
          "name": "",
          "type": "uint8"
        }
      ],
      "name": "maxScores",
      "outputs": [
        {
          "internalType": "uint256",
          "name": "",
          "type": "uint256"
        }
      ],
      "stateMutability": "view",
      "type": "function"
    },
    {
      "inputs": [
        {
          "internalType": "bytes32",
          "name": "role",
          "type": "bytes32"
        },
        {
          "internalType": "address",
          "name": "callerConfirmation",
          "type": "address"
        }
      ],
      "name": "renounceRole",
      "outputs": [],
      "stateMutability": "nonpayable",
      "type": "function"
    },
    {
      "inputs": [
        {
          "internalType": "bytes32",
          "name": "role",
          "type": "bytes32"
        },
        {
          "internalType": "address",
          "name": "account",
          "type": "address"
        }
      ],
      "name": "revokeRole",
      "outputs": [],
      "stateMutability": "nonpayable",
      "type": "function"
    },
    {
      "inputs": [
        {
          "internalType": "bytes4",
          "name": "interfaceId",
          "type": "bytes4"
        }
      ],
      "name": "supportsInterface",
      "outputs": [
        {
          "internalType": "bool",
          "name": "",
          "type": "bool"
        }
      ],
      "stateMutability": "view",
      "type": "function"
    },
    {
      "inputs": [
        {
          "internalType": "enum Types.GameType",
          "name": "gameType",
          "type": "uint8"
        },
        {
          "internalType": "uint256",
          "name": "newMaxScore",
          "type": "uint256"
        }
      ],
      "name": "updateMaxScore",
      "outputs": [],
      "stateMutability": "nonpayable",
      "type": "function"
    },
    {
      "inputs": [
        {
          "components": [
            {
              "internalType": "enum Types.GameType",
              "name": "gameType",
              "type": "uint8"
            },
            {
              "internalType": "address",
              "name": "player",
              "type": "address"
            },
            {
              "internalType": "uint256",
              "name": "score",
              "type": "uint256"
            },
            {
              "internalType": "uint256",
              "name": "timestamp",
              "type": "uint256"
            },
            {
              "internalType": "bytes32",
              "name": "gameHash",
              "type": "bytes32"
            },
            {
              "internalType": "uint256[]",
              "name": "metadata",
              "type": "uint256[]"
            }
          ],
          "internalType": "struct Types.GameResult",
          "name": "result",
          "type": "tuple"
        }
      ],
      "name": "verifyGameResult",
      "outputs": [
        {
          "internalType": "bool",
          "name": "",
          "type": "bool"
        }
      ],
      "stateMutability": "nonpayable",
      "type": "function"
    }
  ],
  "bytecode": "0x60806040523480156200001157600080fd5b506200001f60003362000269565b506200004c7f9b7946abd96dccbe6cfc6cc2c13300ab429d93e16fa72dc459eeccda73817f083362000269565b506200007a7f9b7946abd96dccbe6cfc6cc2c13300ab429d93e16fa72dc459eeccda73817f08600062000318565b7fcc69885fda6bcc1a4ace058b4a62bf5e179ea78fd58a1ccd71c22cc9b688792f8054600160ff1991821681179092557fd9d16d34ffb15ba3a3d852f0d403e2ce1d691fb54de27ac87cd2f993f3ec330f80548216831790557f7dfe757ecd65cbd7922a9c0161e935dd7fdbcc0e999689c7d31633896b1fc60b80548216831790557fedc95719e9a3b28dd8e80877cb5880a9be7de1a13fc8b05e7999683b6b567643805490911682179055600360205260647fa15bc60c955c405d20d9149c709e2460f1c2d9a497496a7f46004d1772c3054c8190557fc3a24b0501bd2c13a7e57f2db4369ec4c223447539fc0724a9d55ac4a06ebd4d5560327fcbc4e5fb02c3d1de23a9f1e014b4d2ee5aeaea9505df5e855c9210bf472495af5560046000526127107f83ec6a1f0257b830b5e016457c9cf1435391bf56cc98f369a58a54fe937724655560405160008051602062001a7b83398151915291620001e09162000363565b60405180910390a160008051602062001a7b833981519152600260405162000209919062000363565b60405180910390a160008051602062001a7b833981519152600360405162000232919062000363565b60405180910390a160008051602062001a7b83398151915260046040516200025b919062000363565b60405180910390a16200038c565b6000828152602081815260408083206001600160a01b038516845290915281205460ff166200030e576000838152602081815260408083206001600160a01b03861684529091529020805460ff19166001179055620002c53390565b6001600160a01b0316826001600160a01b0316847f2f8788117e7eff1d82e926ec794901d17c78024a50270940304540a733656f0d60405160405180910390a450600162000312565b5060005b92915050565b600082815260208190526040808220600101805490849055905190918391839186917fbd79b86ffe0ab8e8776151514217cd7cacd52c909f66475c3af44e129f0b00ff9190a4505050565b60208101600583106200038657634e487b7160e01b600052602160045260246000fd5b91905290565b6116df806200039c6000396000f3fe608060405234801561001057600080fd5b50600436106101215760003560e01c806353c2a81e116100ad578063c54a41eb11610071578063c54a41eb14610279578063ce863cd8146102a4578063d547741f146102ce578063e84b2780146102e1578063f010b541146102e957600080fd5b806353c2a81e1461022357806391d1485414610236578063a217fddf14610249578063be22d27d14610251578063c2c9a8841461026657600080fd5b806330e10425116100f457806330e10425146101a757806335c34ae9146101c757806336568abe146101da5780634ac0326e146101ed5780635026f42b1461021057600080fd5b806301ffc9a714610126578063248a9ca31461014e5780632b446be91461017f5780632f2ff15d14610192575b600080fd5b61013961013436600461133b565b6102fc565b60405190151581526020015b60405180910390f35b61017161015c36600461136c565b60009081526020819052604090206001015490565b604051908152602001610145565b61013961018d3660046113b0565b610333565b6101a56101a03660046113e3565b61039a565b005b6101716101b5366004611406565b60036020526000908152604090205481565b6101396101d5366004611421565b6103c5565b6101a56101e83660046113e3565b6107f5565b6101396101fb366004611406565b60016020526000908152604090205460ff1681565b61017161021e366004611421565b61082d565b6101a561023136600461145c565b610895565b6101396102443660046113e3565b610925565b610171600081565b61017160008051602061168a83398151915281565b6101a5610274366004611406565b61094e565b6101716102873660046113b0565b600260209081526000928352604080842090915290825290205481565b6102b76102b2366004611406565b610a43565b604080519215158352602083019190915201610145565b6101a56102dc3660046113e3565b610ac2565b610171600a81565b6101a56102f7366004611406565b610ae7565b60006001600160e01b03198216637965db0b60e01b148061032d57506301ffc9a760e01b6001600160e01b03198316145b92915050565b6001600160a01b038216600090815260026020526040812081908184600481111561036057610360611486565b600481111561037157610371611486565b8152602001908152602001600020549050600a8161038f91906114b2565b421015949350505050565b6000828152602081905260409020600101546103b581610b7c565b6103bf8383610b89565b50505050565b60006001816103d76020850185611406565b60048111156103e8576103e8611486565b60048111156103f9576103f9611486565b815260208101919091526040016000205460ff166104565760405162461bcd60e51b815260206004820152601560248201527411d85b59481d1e5c19481b9bdd08195b98589b1959605a1b60448201526064015b60405180910390fd5b60006104656020840184611406565b600481111561047657610476611486565b036104b75760405162461bcd60e51b8152602060048201526011602482015270496e76616c69642067616d65207479706560781b604482015260640161044d565b60006002816104cc60408601602087016114c5565b6001600160a01b031681526020808201929092526040016000908120916104f590860186611406565b600481111561050657610506611486565b600481111561051757610517611486565b8152602001908152602001600020549050600a8161053591906114b2565b4210156105845760405162461bcd60e51b815260206004820152601860248201527f546f6f206672657175656e74207375626d697373696f6e730000000000000000604482015260640161044d565b426002600061059960408701602088016114c5565b6001600160a01b031681526020808201929092526040016000908120916105c290870187611406565b60048111156105d3576105d3611486565b60048111156105e4576105e4611486565b8152602001908152602001600020819055506003600084600001602081019061060d9190611406565b600481111561061e5761061e611486565b600481111561062f5761062f611486565b815260200190815260200160002054836040013511156106895760405162461bcd60e51b815260206004820152601560248201527453636f72652065786365656473206d6178696d756d60581b604482015260640161044d565b42836060013511156106d15760405162461bcd60e51b81526020600482015260116024820152700496e76616c69642074696d657374616d7607c1b604482015260640161044d565b6106de62015180426114e0565b836060013510156107255760405162461bcd60e51b8152602060048201526011602482015270151a5b595cdd185b5c081d1bdbc81bdb19607a1b604482015260640161044d565b60006107308461082d565b90508360800135811461077a5760405162461bcd60e51b815260206004820152601260248201527108ec2daca40d0c2e6d040dad2e6dac2e8c6d60731b604482015260640161044d565b61078384610c1b565b61079360408501602086016114c5565b6001600160a01b03167f1e9c851913c59ce225051a04a5685a51e8f1dc7f4f54fa7ab6976ec8d21f56ad6107ca6020870187611406565b866040013587608001356040516107e393929190611515565b60405180910390a25060019392505050565b6001600160a01b038116331461081e5760405163334bd91960e11b815260040160405180910390fd5b6108288282611297565b505050565b600061083c6020830183611406565b61084c60408401602085016114c5565b6040840135606085013561086360a0870187611534565b60405160200161087896959493929190611585565b604051602081830303815290604052805190602001209050919050565b60008051602061168a8339815191526108ad81610b7c565b81600360008560048111156108c4576108c4611486565b60048111156108d5576108d5611486565b8152602001908152602001600020819055507f4e15c40ee9242df13e261a3c7729bdfd091e0c966fda0f3b95b0325b52b82c298383604051610918929190611604565b60405180910390a1505050565b6000918252602082815260408084206001600160a01b0393909316845291905290205460ff1690565b60008051602061168a83398151915261096681610b7c565b600082600481111561097a5761097a611486565b036109bb5760405162461bcd60e51b8152602060048201526011602482015270496e76616c69642067616d65207479706560781b604482015260640161044d565b60018060008460048111156109d2576109d2611486565b60048111156109e3576109e3611486565b815260200190815260200160002060006101000a81548160ff0219169083151502179055507f8a4c3e88784cd877ada8be9f43efc736c434652cbd9ac3fc2ca00795bd5da9e782604051610a37919061161f565b60405180910390a15050565b60008060016000846004811115610a5c57610a5c611486565b6004811115610a6d57610a6d611486565b8152602081019190915260400160009081205460ff1690600390856004811115610a9957610a99611486565b6004811115610aaa57610aaa611486565b81526020019081526020016000205491509150915091565b600082815260208190526040902060010154610add81610b7c565b6103bf8383611297565b60008051602061168a833981519152610aff81610b7c565b600060016000846004811115610b1757610b17611486565b6004811115610b2857610b28611486565b815260200190815260200160002060006101000a81548160ff0219169083151502179055507ff57acfb7bbc2a8ccb2061f1e6f82ad5fd4bed847d0fcb39d9f40a0ab0eda108a82604051610a37919061161f565b610b868133611302565b50565b6000610b958383610925565b610c13576000838152602081815260408083206001600160a01b03861684529091529020805460ff19166001179055610bcb3390565b6001600160a01b0316826001600160a01b0316847f2f8788117e7eff1d82e926ec794901d17c78024a50270940304540a733656f0d60405160405180910390a450600161032d565b50600061032d565b6001610c2a6020830183611406565b6004811115610c3b57610c3b611486565b03610d5a576001610c4f60a0830183611534565b90501015610c6f5760405162461bcd60e51b815260040161044d9061162d565b6000610c7e60a0830183611534565b6000818110610c8f57610c8f61165c565b905060200201359050600081118015610ca9575060058111155b610ced5760405162461bcd60e51b8152602060048201526015602482015274125b9d985b1a5908185d1d195b5c1d0818dbdd5b9d605a1b604482015260640161044d565b6000610cfa8260066114e0565b610d05906014611672565b9050808360400135146108285760405162461bcd60e51b815260206004820152601d60248201527f53636f726520646f6573206e6f74206d6174636820617474656d707473000000604482015260640161044d565b6002610d696020830183611406565b6004811115610d7a57610d7a611486565b03610f0a576003610d8e60a0830183611534565b90501015610dae5760405162461bcd60e51b815260040161044d9061162d565b6000610dbd60a0830183611534565b6000818110610dce57610dce61165c565b9050602002013590506000828060a00190610de99190611534565b6001818110610dfa57610dfa61165c565b9050602002013590506000838060a00190610e159190611534565b6002818110610e2657610e2661165c565b905060200201359050808284610e3c91906114b2565b610e4691906114b2565b600a14610e8c5760405162461bcd60e51b8152602060048201526014602482015273496e76616c696420746f74616c20726f756e647360601b604482015260640161044d565b6000610e99836005611672565b610ea485600a611672565b610eae91906114b2565b905080856040013514610f035760405162461bcd60e51b815260206004820152601c60248201527f53636f726520646f6573206e6f74206d6174636820726573756c747300000000604482015260640161044d565b5050505050565b6003610f196020830183611406565b6004811115610f2a57610f2a611486565b03611021576001610f3e60a0830183611534565b90501015610f5e5760405162461bcd60e51b815260040161044d9061162d565b6000610f6d60a0830183611534565b6000818110610f7e57610f7e61165c565b9050602002013590506032811115610fca5760405162461bcd60e51b815260206004820152600f60248201526e546f6f206d616e7920636c69636b7360881b604482015260640161044d565b8082604001351461101d5760405162461bcd60e51b815260206004820181905260248201527f53636f726520646f6573206e6f74206d6174636820636c69636b20636f756e74604482015260640161044d565b5050565b60046110306020830183611406565b600481111561104157611041611486565b03610b8657600361105560a0830183611534565b905010156110755760405162461bcd60e51b815260040161044d9061162d565b600061108460a0830183611534565b60008181106110955761109561165c565b9050602002013590506000828060a001906110b09190611534565b60018181106110c1576110c161165c565b9050602002013590506000838060a001906110dc9190611534565b60028181106110ed576110ed61165c565b90506020020135905060018210156111375760405162461bcd60e51b815260206004820152600d60248201526c125b9d985b1a59081b195d995b609a1b604482015260640161044d565b600181101561117c5760405162461bcd60e51b8152602060048201526011602482015270496e76616c6964206d617820636f6d626f60781b604482015260640161044d565b600061118a8361012c611672565b9050808410156111dc5760405162461bcd60e51b815260206004820152601760248201527f53636f726520746f6f206c6f7720666f72206c6576656c000000000000000000604482015260640161044d565b60006111ea846103e8611672565b90508085111561123c5760405162461bcd60e51b815260206004820152601860248201527f53636f726520746f6f206869676820666f72206c6576656c0000000000000000604482015260640161044d565b8486604001351461128f5760405162461bcd60e51b815260206004820152601c60248201527f53636f7265206d69736d617463682077697468206d6574616461746100000000604482015260640161044d565b505050505050565b60006112a38383610925565b15610c13576000838152602081815260408083206001600160a01b0386168085529252808320805460ff1916905551339286917ff6391f5c32d9c69d2a47ea670b442974b53935d1edc7fd64eb21e047a839171b9190a450600161032d565b61130c8282610925565b61101d5760405163e2517d3f60e01b81526001600160a01b03821660048201526024810183905260440161044d565b60006020828403121561134d57600080fd5b81356001600160e01b03198116811461136557600080fd5b9392505050565b60006020828403121561137e57600080fd5b5035919050565b80356001600160a01b038116811461139c57600080fd5b919050565b80356005811061139c57600080fd5b600080604083850312156113c357600080fd5b6113cc83611385565b91506113da602084016113a1565b90509250929050565b600080604083850312156113f657600080fd5b823591506113da60208401611385565b60006020828403121561141857600080fd5b611365826113a1565b60006020828403121561143357600080fd5b813567ffffffffffffffff81111561144a57600080fd5b820160c0818503121561136557600080fd5b6000806040838503121561146f57600080fd5b611478836113a1565b946020939093013593505050565b634e487b7160e01b600052602160045260246000fd5b634e487b7160e01b600052601160045260246000fd5b8082018082111561032d5761032d61149c565b6000602082840312156114d757600080fd5b61136582611385565b8181038181111561032d5761032d61149c565b6005811061151157634e487b7160e01b600052602160045260246000fd5b9052565b6060810161152382866114f3565b602082019390935260400152919050565b6000808335601e1984360301811261154b57600080fd5b83018035915067ffffffffffffffff82111561156657600080fd5b6020019150600581901b360382131561157e57600080fd5b9250929050565b6000600588106115a557634e487b7160e01b600052602160045260246000fd5b60f888901b8252606087901b6bffffffffffffffffffffffff1916600183015260158201869052603582018590526001600160fb1b038311156115e757600080fd5b8260051b8085605585013791909101605501979650505050505050565b6040810161161282856114f3565b8260208301529392505050565b6020810161032d82846114f3565b6020808252601590820152744d697373696e672067616d65206d6574616461746160581b604082015260600190565b634e487b7160e01b600052603260045260246000fd5b808202811582820484141761032d5761032d61149c56fe9b7946abd96dccbe6cfc6cc2c13300ab429d93e16fa72dc459eeccda73817f08a2646970667358221220ae96da378545eed50cb9cc2199672f1cb43bb91ba4a32a5ab8a7587a12922b3f64736f6c634300081800338a4c3e88784cd877ada8be9f43efc736c434652cbd9ac3fc2ca00795bd5da9e7",
  "linkReferences": {},
  "deployedLinkReferences": {}
}