{
  "_format": "hh-sol-artifact-1",
  "contractName": "UserLevelManager",
  "sourceName": "contracts/UserLevelManager.sol",
  "abi": [
    {
      "inputs": [
        {
          "internalType": "address",
          "name": "blzTokenAddress",
          "type": "address"
        }
      ],
      "stateMutability": "nonpayable",
      "type": "constructor"
    },
    {
      "inputs": [],
      "name": "AccessControlBadConfirmation",
      "type": "error"
    },
    {
      "inputs": [
        {
          "internalType": "address",
          "name": "account",
          "type": "address"
        },
        {
          "internalType": "bytes32",
          "name": "neededRole",
          "type": "bytes32"
        }
      ],
      "name": "AccessControlUnauthorizedAccount",
      "type": "error"
    },
    {
      "anonymous": false,
      "inputs": [
        {
          "indexed": true,
          "internalType": "address",
          "name": "user",
          "type": "address"
        },
        {
          "indexed": false,
          "internalType": "uint256",
          "name": "achievementId",
          "type": "uint256"
        },
        {
          "indexed": false,
          "internalType": "uint256",
          "name": "reward",
          "type": "uint256"
        }
      ],
      "name": "AchievementUnlocked",
      "type": "event"
    },
    {
      "anonymous": false,
      "inputs": [
        {
          "indexed": true,
          "internalType": "address",
          "name": "user",
          "type": "address"
        },
        {
          "indexed": false,
          "internalType": "uint256",
          "name": "amount",
          "type": "uint256"
        },
        {
          "indexed": false,
          "internalType": "uint256",
          "name": "totalExp",
          "type": "uint256"
        }
      ],
      "name": "ExpGained",
      "type": "event"
    },
    {
      "anonymous": false,
      "inputs": [
        {
          "indexed": true,
          "internalType": "address",
          "name": "user",
          "type": "address"
        },
        {
          "indexed": false,
          "internalType": "uint256",
          "name": "newLevel",
          "type": "uint256"
        }
      ],
      "name": "LevelUp",
      "type": "event"
    },
    {
      "anonymous": false,
      "inputs": [
        {
          "indexed": true,
          "internalType": "bytes32",
          "name": "role",
          "type": "bytes32"
        },
        {
          "indexed": true,
          "internalType": "bytes32",
          "name": "previousAdminRole",
          "type": "bytes32"
        },
        {
          "indexed": true,
          "internalType": "bytes32",
          "name": "newAdminRole",
          "type": "bytes32"
        }
      ],
      "name": "RoleAdminChanged",
      "type": "event"
    },
    {
      "anonymous": false,
      "inputs": [
        {
          "indexed": true,
          "internalType": "bytes32",
          "name": "role",
          "type": "bytes32"
        },
        {
          "indexed": true,
          "internalType": "address",
          "name": "account",
          "type": "address"
        },
        {
          "indexed": true,
          "internalType": "address",
          "name": "sender",
          "type": "address"
        }
      ],
      "name": "RoleGranted",
      "type": "event"
    },
    {
      "anonymous": false,
      "inputs": [
        {
          "indexed": true,
          "internalType": "bytes32",
          "name": "role",
          "type": "bytes32"
        },
        {
          "indexed": true,
          "internalType": "address",
          "name": "account",
          "type": "address"
        },
        {
          "indexed": true,
          "internalType": "address",
          "name": "sender",
          "type": "address"
        }
      ],
      "name": "RoleRevoked",
      "type": "event"
    },
    {
      "anonymous": false,
      "inputs": [
        {
          "indexed": true,
          "internalType": "address",
          "name": "user",
          "type": "address"
        },
        {
          "indexed": false,
          "internalType": "uint256",
          "name": "amount",
          "type": "uint256"
        }
      ],
      "name": "TokensClaimed",
      "type": "event"
    },
    {
      "inputs": [],
      "name": "ADMIN_ROLE",
      "outputs": [
        {
          "internalType": "bytes32",
          "name": "",
          "type": "bytes32"
        }
      ],
      "stateMutability": "view",
      "type": "function"
    },
    {
      "inputs": [],
      "name": "BASE_EXP_NEEDED",
      "outputs": [
        {
          "internalType": "uint256",
          "name": "",
          "type": "uint256"
        }
      ],
      "stateMutability": "view",
      "type": "function"
    },
    {
      "inputs": [],
      "name": "DEFAULT_ADMIN_ROLE",
      "outputs": [
        {
          "internalType": "bytes32",
          "name": "",
          "type": "bytes32"
        }
      ],
      "stateMutability": "view",
      "type": "function"
    },
    {
      "inputs": [],
      "name": "EXP_MULTIPLIER",
      "outputs": [
        {
          "internalType": "uint256",
          "name": "",
          "type": "uint256"
        }
      ],
      "stateMutability": "view",
      "type": "function"
    },
    {
      "inputs": [],
      "name": "GAME_ROLE",
      "outputs": [
        {
          "internalType": "bytes32",
          "name": "",
          "type": "bytes32"
        }
      ],
      "stateMutability": "view",
      "type": "function"
    },
    {
      "inputs": [],
      "name": "MAX_LEVEL",
      "outputs": [
        {
          "internalType": "uint256",
          "name": "",
          "type": "uint256"
        }
      ],
      "stateMutability": "view",
      "type": "function"
    },
    {
      "inputs": [
        {
          "internalType": "address",
          "name": "",
          "type": "address"
        },
        {
          "internalType": "uint256",
          "name": "",
          "type": "uint256"
        }
      ],
      "name": "achievementUnlocked",
      "outputs": [
        {
          "internalType": "bool",
          "name": "",
          "type": "bool"
        }
      ],
      "stateMutability": "view",
      "type": "function"
    },
    {
      "inputs": [
        {
          "internalType": "uint256",
          "name": "",
          "type": "uint256"
        }
      ],
      "name": "achievements",
      "outputs": [
        {
          "internalType": "string",
          "name": "name",
          "type": "string"
        },
        {
          "internalType": "string",
          "name": "description",
          "type": "string"
        },
        {
          "internalType": "uint256",
          "name": "reward",
          "type": "uint256"
        },
        {
          "internalType": "bool",
          "name": "isActive",
          "type": "bool"
        }
      ],
      "stateMutability": "view",
      "type": "function"
    },
    {
      "inputs": [
        {
          "internalType": "address",
          "name": "user",
          "type": "address"
        },
        {
          "internalType": "uint256",
          "name": "exp",
          "type": "uint256"
        }
      ],
      "name": "addExp",
      "outputs": [],
      "stateMutability": "nonpayable",
      "type": "function"
    },
    {
      "inputs": [
        {
          "internalType": "uint256",
          "name": "amount",
          "type": "uint256"
        }
      ],
      "name": "addTokensToPool",
      "outputs": [],
      "stateMutability": "nonpayable",
      "type": "function"
    },
    {
      "inputs": [
        {
          "internalType": "uint256",
          "name": "achievementId",
          "type": "uint256"
        }
      ],
      "name": "getAchievement",
      "outputs": [
        {
          "components": [
            {
              "internalType": "string",
              "name": "name",
              "type": "string"
            },
            {
              "internalType": "string",
              "name": "description",
              "type": "string"
            },
            {
              "internalType": "uint256",
              "name": "reward",
              "type": "uint256"
            },
            {
              "internalType": "bool",
              "name": "isActive",
              "type": "bool"
            }
          ],
          "internalType": "struct UserLevelManager.Achievement",
          "name": "",
          "type": "tuple"
        }
      ],
      "stateMutability": "view",
      "type": "function"
    },
    {
      "inputs": [
        {
          "internalType": "uint256",
          "name": "level",
          "type": "uint256"
        }
      ],
      "name": "getExpForLevel",
      "outputs": [
        {
          "internalType": "uint256",
          "name": "",
          "type": "uint256"
        }
      ],
      "stateMutability": "pure",
      "type": "function"
    },
    {
      "inputs": [
        {
          "internalType": "bytes32",
          "name": "role",
          "type": "bytes32"
        }
      ],
      "name": "getRoleAdmin",
      "outputs": [
        {
          "internalType": "bytes32",
          "name": "",
          "type": "bytes32"
        }
      ],
      "stateMutability": "view",
      "type": "function"
    },
    {
      "inputs": [],
      "name": "getTokenBalance",
      "outputs": [
        {
          "internalType": "uint256",
          "name": "",
          "type": "uint256"
        }
      ],
      "stateMutability": "view",
      "type": "function"
    },
    {
      "inputs": [
        {
          "internalType": "address",
          "name": "user",
          "type": "address"
        }
      ],
      "name": "getUserData",
      "outputs": [
        {
          "components": [
            {
              "internalType": "uint256",
              "name": "totalExp",
              "type": "uint256"
            },
            {
              "internalType": "uint256",
              "name": "currentLevel",
              "type": "uint256"
            },
            {
              "internalType": "uint256",
              "name": "expForNextLevel",
              "type": "uint256"
            }
          ],
          "internalType": "struct UserLevelManager.UserData",
          "name": "userData",
          "type": "tuple"
        }
      ],
      "stateMutability": "view",
      "type": "function"
    },
    {
      "inputs": [
        {
          "internalType": "bytes32",
          "name": "role",
          "type": "bytes32"
        },
        {
          "internalType": "address",
          "name": "account",
          "type": "address"
        }
      ],
      "name": "grantRole",
      "outputs": [],
      "stateMutability": "nonpayable",
      "type": "function"
    },
    {
      "inputs": [
        {
          "internalType": "address",
          "name": "user",
          "type": "address"
        },
        {
          "internalType": "uint256",
          "name": "achievementId",
          "type": "uint256"
        }
      ],
      "name": "hasAchievement",
      "outputs": [
        {
          "internalType": "bool",
          "name": "",
          "type": "bool"
        }
      ],
      "stateMutability": "view",
      "type": "function"
    },
    {
      "inputs": [
        {
          "internalType": "bytes32",
          "name": "role",
          "type": "bytes32"
        },
        {
          "internalType": "address",
          "name": "account",
          "type": "address"
        }
      ],
      "name": "hasRole",
      "outputs": [
        {
          "internalType": "bool",
          "name": "",
          "type": "bool"
        }
      ],
      "stateMutability": "view",
      "type": "function"
    },
    {
      "inputs": [
        {
          "internalType": "bytes32",
          "name": "role",
          "type": "bytes32"
        },
        {
          "internalType": "address",
          "name": "callerConfirmation",
          "type": "address"
        }
      ],
      "name": "renounceRole",
      "outputs": [],
      "stateMutability": "nonpayable",
      "type": "function"
    },
    {
      "inputs": [
        {
          "internalType": "bytes32",
          "name": "role",
          "type": "bytes32"
        },
        {
          "internalType": "address",
          "name": "account",
          "type": "address"
        }
      ],
      "name": "revokeRole",
      "outputs": [],
      "stateMutability": "nonpayable",
      "type": "function"
    },
    {
      "inputs": [
        {
          "internalType": "bytes4",
          "name": "interfaceId",
          "type": "bytes4"
        }
      ],
      "name": "supportsInterface",
      "outputs": [
        {
          "internalType": "bool",
          "name": "",
          "type": "bool"
        }
      ],
      "stateMutability": "view",
      "type": "function"
    },
    {
      "inputs": [
        {
          "internalType": "address",
          "name": "user",
          "type": "address"
        },
        {
          "internalType": "uint256",
          "name": "achievementId",
          "type": "uint256"
        }
      ],
      "name": "unlockAchievement",
      "outputs": [],
      "stateMutability": "nonpayable",
      "type": "function"
    },
    {
      "inputs": [
        {
          "internalType": "address",
          "name": "",
          "type": "address"
        }
      ],
      "name": "users",
      "outputs": [
        {
          "internalType": "uint256",
          "name": "totalExp",
          "type": "uint256"
        },
        {
          "internalType": "uint256",
          "name": "currentLevel",
          "type": "uint256"
        },
        {
          "internalType": "uint256",
          "name": "expForNextLevel",
          "type": "uint256"
        }
      ],
      "stateMutability": "view",
      "type": "function"
    }
  ],
  "bytecode": "0x60a06040523480156200001157600080fd5b5060405162001f9538038062001f95833981016040819052620000349162000847565b6001600160a01b0381166080526200004e600033620000c2565b506200006a60008051602062001f7583398151915233620000c2565b506200008660008051602062001f5583398151915233620000c2565b50620000b160008051602062001f5583398151915260008051602062001f7583398151915262000171565b620000bb620001bc565b50620009ec565b6000828152602081815260408083206001600160a01b038516845290915281205460ff1662000167576000838152602081815260408083206001600160a01b03861684529091529020805460ff191660011790556200011e3390565b6001600160a01b0316826001600160a01b0316847f2f8788117e7eff1d82e926ec794901d17c78024a50270940304540a733656f0d60405160405180910390a45060016200016b565b5060005b92915050565b600082815260208190526040808220600101805490849055905190918391839186917fbd79b86ffe0ab8e8776151514217cd7cacd52c909f66475c3af44e129f0b00ff9190a4505050565b6040805160c081018252600960808201908152682334b939ba102bb4b760b91b60a0830152815281518083018352601981527f57696e20796f757220666972737420746f75726e616d656e7400000000000000602082810191909152808301919091526801158e460913d0000092820192909252600160608201819052600052600290915280517fe90b7bceb6e7df5418fb78d8ee546e97c83a08bbccc01a0644d599ccd2a7c2e090819062000273908262000920565b50602082015160018201906200028a908262000920565b506040828101516002838101919091556060938401516003909301805460ff191693151593909317909255805160c0810182526008608082019081526721b430b6b834b7b760c11b60a0830152815281518083018352601281527157696e20313020746f75726e616d656e747360701b6020828101919091528083019190915268056bc75e2d631000009282019290925260019381019390935260008290525280517f679795a0195a1b76cdebb7c51d74e058aee92919b8c3389af86ef24535e8a28c9081906200035c908262000920565b506020820151600182019062000373908262000920565b506040828101516002838101919091556060938401516003938401805460ff1916911515919091179055815160c081018352600b608082019081526a23b0b6b29026b0b9ba32b960a91b60a0830152815282518084018452601d81527f506172746963697061746520696e20353020746f75726e616d656e7473000000602082810191909152808301919091526802b5e3af16b1880000938201939093526001948101949094526000929092525280517f88601476d11616a71c5be67555bd1dff4b1cbf21533d2669b768b61518cfe1c390819062000453908262000920565b50602082015160018201906200046a908262000920565b5060408281015160028301556060928301516003909201805460ff191692151592909217909155805160c081018252600b608082019081526a2434b3b41029b1b7b932b960a91b60a083015281528151928301909152602a80835290916020808401929062001f2b9083013981526801a055690d9db80000602080830191909152600160409092019190915260046000526002905280517fee60d0579bcffd98e668647d59fec1ff86a7fb340ce572e844f234ae73a6918f90819062000531908262000920565b506020820151600182019062000548908262000920565b506040828101516002838101919091556060938401516003909301805460ff191693151593909317909255805160c0810182526010608082019081526f536f6369616c20427574746572666c7960801b60a0830152815281518083018352600e81526d41646420313020667269656e647360901b6020828101919091528083019190915268015af1d78b58c400009282019290925260019381019390935260056000525280517fb98b78633099fa36ed8b8680c4f8092689e1e04080eb9cbb077ca38a14d7e3849081906200061e908262000920565b506020820151600182019062000635908262000920565b506040828101516002838101919091556060938401516003909301805460ff191693151593909317909255805160c081018252600760808201908152662837b83ab630b960c91b60a083015281528151808301835260208082527f52656365697665203530206c696b6573206f6e20796f75722070726f66696c65828201528083019190915268022b1c8c1227a000009282019290925260019381019390935260066000525280517f59dd4b18488d12f51eda69757a0ed42a2010c14b564330cc74a06895e60c077b9081906200070d908262000920565b506020820151600182019062000724908262000920565b506040828101516002838101919091556060938401516003909301805460ff191693151593909317909255805160c0810182526010608082019081526f21b7b6b6bab734ba3c902632b0b232b960811b60a0830152815281518083018352601581527f43726561746520313020746f75726e616d656e7473000000000000000000000060208281019190915280830191909152680340aad21b3b7000009282019290925260019381019390935260076000525280517facd8ef244210bb6898e73c48bf820ed8ecc857a3bab8d79c10e4fa92b1e9ca6590819062000809908262000920565b506020820151600182019062000820908262000920565b50604082015160028201556060909101516003909101805460ff1916911515919091179055565b6000602082840312156200085a57600080fd5b81516001600160a01b03811681146200087257600080fd5b9392505050565b634e487b7160e01b600052604160045260246000fd5b600181811c90821680620008a457607f821691505b602082108103620008c557634e487b7160e01b600052602260045260246000fd5b50919050565b601f8211156200091b576000816000526020600020601f850160051c81016020861015620008f65750805b601f850160051c820191505b81811015620009175782815560010162000902565b5050505b505050565b81516001600160401b038111156200093c576200093c62000879565b62000954816200094d84546200088f565b84620008cb565b602080601f8311600181146200098c5760008415620009735750858301515b600019600386901b1c1916600185901b17855562000917565b600085815260208120601f198616915b82811015620009bd578886015182559484019460019091019084016200099c565b5085821015620009dc5787850151600019600388901b60f8161c191681555b5050505050600190811b01905550565b60805161151562000a16600039600081816105fd01528181610a990152610ee301526115156000f3fe608060405234801561001057600080fd5b506004361061014d5760003560e01c806378c6c3fc116100c3578063ab4007061161007c578063ab40070614610300578063ab5eba1614610327578063b57c81bd14610360578063d547741f14610373578063f2ccc54314610386578063ffc9896b146103a657600080fd5b806378c6c3fc1461028c57806382b2e2571461029457806391d148541461029c578063a217fddf146102af578063a49062d41461028c578063a87430ba146102b757600080fd5b806336568abe1161011557806336568abe146101eb5780633e047ce9146101fe5780633ffb953d1461022c5780635bb338bc1461023f5780635fe352ce1461025257806375b238fc1461026557600080fd5b806301ffc9a7146101525780631c7bd8121461017a578063248a9ca31461019057806327aed72e146101b35780632f2ff15d146101d6575b600080fd5b610165610160366004611135565b6103db565b60405190151581526020015b60405180910390f35b610182600f81565b604051908152602001610171565b61018261019e366004611166565b60009081526020819052604090206001015490565b6101c66101c1366004611166565b610412565b60405161017194939291906111c5565b6101e96101e436600461121f565b61054e565b005b6101e96101f936600461121f565b610579565b61016561020c36600461124b565b600360209081526000928352604080842090915290825290205460ff1681565b6101e961023a366004611166565b6105b1565b6101e961024d36600461124b565b6106c3565b6101e961026036600461124b565b6108ae565b6101827fa49807205ce4d355092ef5a8a18f56e8913cf4a201fbe287825b095693c2177581565b610182606481565b610182610a81565b6101656102aa36600461121f565b610b11565b610182600081565b6102e56102c5366004611275565b600160208190526000918252604090912080549181015460029091015483565b60408051938452602084019290925290820152606001610171565b6101827f6a64baf327d646d1bca72653e2a075d15fd6ac6d8cbd7f6ee03fc55875e0fa8881565b61016561033536600461124b565b6001600160a01b03919091166000908152600360209081526040808320938352929052205460ff1690565b61018261036e366004611166565b610b3a565b6101e961038136600461121f565b610bb1565b610399610394366004611166565b610bd6565b6040516101719190611290565b6103b96103b4366004611275565b610d5f565b6040805182518152602080840151908201529181015190820152606001610171565b60006001600160e01b03198216637965db0b60e01b148061040c57506301ffc9a760e01b6001600160e01b03198316145b92915050565b60026020526000908152604090208054819061042d906112ec565b80601f0160208091040260200160405190810160405280929190818152602001828054610459906112ec565b80156104a65780601f1061047b576101008083540402835291602001916104a6565b820191906000526020600020905b81548152906001019060200180831161048957829003601f168201915b5050505050908060010180546104bb906112ec565b80601f01602080910402602001604051908101604052809291908181526020018280546104e7906112ec565b80156105345780601f1061050957610100808354040283529160200191610534565b820191906000526020600020905b81548152906001019060200180831161051757829003601f168201915b50505050600283015460039093015491929160ff16905084565b60008281526020819052604090206001015461056981610dc4565b6105738383610dd1565b50505050565b6001600160a01b03811633146105a25760405163334bd91960e11b815260040160405180910390fd5b6105ac8282610e63565b505050565b7fa49807205ce4d355092ef5a8a18f56e8913cf4a201fbe287825b095693c217756105db81610dc4565b6040516323b872dd60e01b8152336004820152306024820152604481018390527f0000000000000000000000000000000000000000000000000000000000000000906000906001600160a01b038316906323b872dd906064016020604051808303816000875af1158015610653573d6000803e3d6000fd5b505050506040513d601f19601f820116820180604052508101906106779190611326565b9050806105735760405162461bcd60e51b8152602060048201526015602482015274151bdad95b881d1c985b9cd9995c8819985a5b1959605a1b60448201526064015b60405180910390fd5b7f6a64baf327d646d1bca72653e2a075d15fd6ac6d8cbd7f6ee03fc55875e0fa886106ed81610dc4565b6000821180156106fe575060078211155b6107435760405162461bcd60e51b8152602060048201526016602482015275125b9d985b1a59081858da1a595d995b595b9d08125160521b60448201526064016106ba565b6001600160a01b038316600090815260036020908152604080832085845290915290205460ff16156107b75760405162461bcd60e51b815260206004820152601c60248201527f416368696576656d656e7420616c726561647920756e6c6f636b65640000000060448201526064016106ba565b6000828152600260205260409020600381015460ff166108125760405162461bcd60e51b8152602060048201526016602482015275416368696576656d656e74206e6f742061637469766560501b60448201526064016106ba565b6001600160a01b03841660009081526003602090815260408083208684529091529020805460ff1916600117905560028101541561085857610858848260020154610ece565b836001600160a01b03167f0d2905f03971dd710b34c1a52dde26e0e95c254f1b25942b22ce357c654f6dd78483600201546040516108a0929190918252602082015260400190565b60405180910390a250505050565b7f6a64baf327d646d1bca72653e2a075d15fd6ac6d8cbd7f6ee03fc55875e0fa886108d881610dc4565b6000821161091f5760405162461bcd60e51b8152602060048201526014602482015273457870206d75737420626520706f73697469766560601b60448201526064016106ba565b6001600160a01b03831661096c5760405162461bcd60e51b8152602060048201526014602482015273496e76616c69642075736572206164647265737360601b60448201526064016106ba565b6001600160a01b038316600090815260016020526040812080549091849183919061099890849061135e565b909155505080546000906109ab906110a1565b90508160010154811180156109c1575060648111155b15610a2e5760018083018290558254906109e09061036e90849061135e565b6109ea9190611371565b60028301556040518181526001600160a01b038616907f91e51c29e7e87a74ad3b8ccba98538970f50a4309242735467f41e27c6b0fbac9060200160405180910390a25b81546040516001600160a01b038716917fdab4b3f5b88b5dccc5142bab47751bd4359cd369f7f03180adfcd31a8b3ce7ff91610a7291888252602082015260400190565b60405180910390a25050505050565b6040516370a0823160e01b81523060048201526000907f00000000000000000000000000000000000000000000000000000000000000006001600160a01b0316906370a0823190602401602060405180830381865afa158015610ae8573d6000803e3d6000fd5b505050506040513d601f19601f82011682018060405250810190610b0c9190611384565b905090565b6000918252602082815260408084206001600160a01b0393909316845291905290205460ff1690565b600081600003610b4c57506000919050565b81600103610b5c57506000919050565b600060015b83811015610baa57600a610b76600183611371565b610b8190600f611481565b610b8c90606461148d565b610b9691906114a4565b610ba0908361135e565b9150600101610b61565b5092915050565b600082815260208190526040902060010154610bcc81610dc4565b6105738383610e63565b610c0360405180608001604052806060815260200160608152602001600081526020016000151581525090565b60008281526002602052604090819020815160808101909252805482908290610c2b906112ec565b80601f0160208091040260200160405190810160405280929190818152602001828054610c57906112ec565b8015610ca45780601f10610c7957610100808354040283529160200191610ca4565b820191906000526020600020905b815481529060010190602001808311610c8757829003601f168201915b50505050508152602001600182018054610cbd906112ec565b80601f0160208091040260200160405190810160405280929190818152602001828054610ce9906112ec565b8015610d365780601f10610d0b57610100808354040283529160200191610d36565b820191906000526020600020905b815481529060010190602001808311610d1957829003601f168201915b50505091835250506002820154602082015260039091015460ff16151560409091015292915050565b610d8360405180606001604052806000815260200160008152602001600081525090565b506001600160a01b03166000908152600160208181526040928390208351606081018552815481529281015491830191909152600201549181019190915290565b610dce81336110f8565b50565b6000610ddd8383610b11565b610e5b576000838152602081815260408083206001600160a01b03861684529091529020805460ff19166001179055610e133390565b6001600160a01b0316826001600160a01b0316847f2f8788117e7eff1d82e926ec794901d17c78024a50270940304540a733656f0d60405160405180910390a450600161040c565b50600061040c565b6000610e6f8383610b11565b15610e5b576000838152602081815260408083206001600160a01b0386168085529252808320805460ff1916905551339286917ff6391f5c32d9c69d2a47ea670b442974b53935d1edc7fd64eb21e047a839171b9190a450600161040c565b6040516370a0823160e01b81523060048201527f00000000000000000000000000000000000000000000000000000000000000009082906001600160a01b038316906370a0823190602401602060405180830381865afa158015610f36573d6000803e3d6000fd5b505050506040513d601f19601f82011682018060405250810190610f5a9190611384565b1015610fa85760405162461bcd60e51b815260206004820152601a60248201527f496e73756666696369656e7420746f6b656e2062616c616e636500000000000060448201526064016106ba565b60405163a9059cbb60e01b81526001600160a01b038481166004830152602482018490526000919083169063a9059cbb906044016020604051808303816000875af1158015610ffb573d6000803e3d6000fd5b505050506040513d601f19601f8201168201806040525081019061101f9190611326565b9050806110665760405162461bcd60e51b8152602060048201526015602482015274151bdad95b881d1c985b9cd9995c8819985a5b1959605a1b60448201526064016106ba565b836001600160a01b03167f896e034966eaaf1adc54acc0f257056febbd300c9e47182cf761982cf1f5e430846040516108a091815260200190565b6000816000036110b357506001919050565b600160005b6064821015610baa5760006110d161036e84600161135e565b90508085106110ec57826110e4816114c6565b9350506110f2565b50610baa565b506110b8565b6111028282610b11565b6111315760405163e2517d3f60e01b81526001600160a01b0382166004820152602481018390526044016106ba565b5050565b60006020828403121561114757600080fd5b81356001600160e01b03198116811461115f57600080fd5b9392505050565b60006020828403121561117857600080fd5b5035919050565b6000815180845260005b818110156111a557602081850181015186830182015201611189565b506000602082860101526020601f19601f83011685010191505092915050565b6080815260006111d8608083018761117f565b82810360208401526111ea818761117f565b6040840195909552505090151560609091015292915050565b80356001600160a01b038116811461121a57600080fd5b919050565b6000806040838503121561123257600080fd5b8235915061124260208401611203565b90509250929050565b6000806040838503121561125e57600080fd5b61126783611203565b946020939093013593505050565b60006020828403121561128757600080fd5b61115f82611203565b6020815260008251608060208401526112ac60a084018261117f565b90506020840151601f198483030160408501526112c9828261117f565b915050604084015160608401526060840151151560808401528091505092915050565b600181811c9082168061130057607f821691505b60208210810361132057634e487b7160e01b600052602260045260246000fd5b50919050565b60006020828403121561133857600080fd5b8151801515811461115f57600080fd5b634e487b7160e01b600052601160045260246000fd5b8082018082111561040c5761040c611348565b8181038181111561040c5761040c611348565b60006020828403121561139657600080fd5b5051919050565b600181815b808511156113d85781600019048211156113be576113be611348565b808516156113cb57918102915b93841c93908002906113a2565b509250929050565b6000826113ef5750600161040c565b816113fc5750600061040c565b8160018114611412576002811461141c57611438565b600191505061040c565b60ff84111561142d5761142d611348565b50506001821b61040c565b5060208310610133831016604e8410600b841016171561145b575081810a61040c565b611465838361139d565b806000190482111561147957611479611348565b029392505050565b600061115f83836113e0565b808202811582820484141761040c5761040c611348565b6000826114c157634e487b7160e01b600052601260045260246000fd5b500490565b6000600182016114d8576114d8611348565b506001019056fea2646970667358221220d84ef1c30f1e2e1a2370ea961e5058c57c9fc1d3d2c0a9018eae3cafc8e5faf064736f6c6343000818003353636f72652061626f766520313030303020706f696e747320696e20496e66696e697465204d617463686a64baf327d646d1bca72653e2a075d15fd6ac6d8cbd7f6ee03fc55875e0fa88a49807205ce4d355092ef5a8a18f56e8913cf4a201fbe287825b095693c21775",
  "linkReferences": {},
  "deployedLinkReferences": {}
}